:100000000C94FC000C941D010C9442030C946D03A1
:100010000C941D010C941D010C941D010C941D01E8
:100020000C941D010C941D010C941D010C941D01D8
:100030000C941D010C941D010C9440070C941D019F
:100040000C9471070C941D010C941D010C941D015E
:100050000C941D010C941D010C941D010C941D01A8
:100060000C941D010C941D010C941D010C941D0198
:100070000C941D010C941D010C941D010C941D0188
:100080000C941D010C941D010C9407090C941D0186
:100090000C941D010C941D010C941D010C941D0168
:1000A0000C941D010C941D010C941D010C941D0158
:1000B0000C941D010C941D010C941D010C941D0148
:1000C0000C941D010C941D010C941D010C941D0138
:1000D0000C941D010C941D010C941D010C941D0128
:1000E0000C941D010C941D010C941D010C941D0118
:1000F0000C941D010C941D010C941D010C941D0108
:100100000C941D010C941D010C941D010C941D01F7
:100110000C941D010C941D010C941D010C941D01E7
:100120000C941D010C941D010C941D010C941D01D7
:100130000C941D010C941D010C941D010C941D01C7
:100140000C941D010C941D010C941D010C941D01B7
:100150000C941D010C941D010C941D010C941D01A7
:100160000C94BF020C941D010C94EB020C941D0125
:100170000C941D010C941D010C941D010C941D0187
:100180000C941D010C941D010C941D010C941D0177
:100190000C941D010C941D010C941D010C941D0167
:1001A0000C941D010C941D010C941D010C941D0157
:1001B0000C941D010C941D010C941D010C941D0147
:1001C0000C941D010C941D010C941D010C941D0137
:1001D0000C941D010C941D010C941D010C941D0127
:1001E0000C941D010C941D0103020201010000FF8B
:1001F000FEFDFCFBF9F7F4EF11241FBECFEFDFE5A6
:10020000DEBFCDBF00E00CBF10E2A0E0B0E2E2EC48
:10021000F2E200E00BBF02C007900D92A430B107DC
:10022000D9F713E2A4E0B0E201C01D92A43AB107ED
:10023000E1F70E946C010C945F110C9400001F9375
:10024000CF93DF93882391F4109106201B50C0E1D7
:10025000D0E280E0BE01412F0E942103811778F493
:10026000181BC80FD11D0E945204F3CF813E69F4C0
:1002700082E090E080930420909305200AC082E001
:1002800090E062E070E00E94AC08109204201092AE
:100290000520DF91CF911F9108951F93CF93DF9396
:1002A000FC0110811B50EC012A9680E0BE01412F19
:1002B0000E942103811730F4181BC80FD11D0E9422
:1002C0005204F3CF81E090E062E070E00E94AC085D
:1002D000DF91CF911F910895CF92DF92EF92FF921D
:1002E0000F931F93DF93CF9300D0CDB7DEB70E945B
:1002F000B70F882311F00E94F0030E949D070E940F
:10030000A60880E090E060E070E00E94AC0881E028
:1003100090E061E070E00E94AC0882E090E061E073
:1003200070E00E94AC08789480E00E942A03882341
:1003300011F00E94F0038BE08093062081E698E89C
:1003400080930720909308200E940C11809309202D
:100350008EEF9AEC80930A2090930B2021E0E22EFE
:10036000F12CE0920C20F0920D208A839B838E0169
:100370000E5F1F4F80E5B8010E94E30DEA82FB8209
:1003800083E5B8010E94E30D8A819B8180930E2052
:1003900090930F2084E1898380E0BE016F5F7F4FDF
:1003A0000E94E30D86E00E94681088E8C82E80E273
:1003B000D82E00E110E20E9452040E942C0C809181
:1003C0000420909105200097F9F480E068E870E23D
:1003D00046E60E941803482F882369F3E092042020
:1003E000F0920520809109208F5F80930920473685
:1003F00008F046E6455F409306204B50C801B60121
:1004000050E00E941C1106C00297A9F6E092042059
:10041000F092052086E090E262E070E041E00E9408
:10042000110DC9CF9B01AC016050774F824C9F4F9B
:10043000F2E0660F771F881F991FFA95D1F7E3E066
:10044000220F331F441F551FEA95D1F70E948F10CA
:1004500021503040E0E6F6E088E0818384E082834A
:10046000E0EAF9E0378326838CE1848383E08583A7
:100470008CE383830895DC018091A309837FE0EA04
:10048000F9E083832091F5228091F622821730F0E3
:100490002250922F981B892F2E5F05C02150922F3A
:1004A000981B892F2F5F482F681708F4462F342F89
:1004B00012C09091F622E92FF0E0E950FF4D8C91A7
:1004C00080839E3F19F41092F62203C09F5F9093A1
:1004D000F62231501196332361F78091F922882357
:1004E00051F4E22FF0E0E950FF4D80818093A009A4
:1004F00081E08093F9228091A3098C60E0EAF9E021
:100500008383842F0895DC012091FA22222311F4A1
:1005100080E008958091A3098F7CE0EAF9E083836D
:100520002F3F39F48091F8228093F7222093FA220A
:1005300002C0261708F0262F322F17C0E091F722AD
:10054000F0E0EA50FE4D80818C939091F7229F5FFE
:100550009093F7228091FA2281508093FA229F3F54
:1005600011F41092F72211963150332339F780910C
:10057000A3098063E0EAF9E08383822F08951F9244
:100580000F920FB60F920BB60F9211248F939F9379
:10059000EF93FF939091F8228091FA228F5F8093DE
:1005A000FA228091A009E92FF0E0EA50FE4D808305
:1005B0009E3F19F41092F82203C09F5F9093F82297
:1005C000FF91EF919F918F910F900BBE0F900FBEF7
:1005D0000F901F9018951F920F920FB60F920BB6A7
:1005E0000F9211248F93EF93FF938091F5228E3F0A
:1005F00019F41092F52203C08F5F8093F522E091E9
:10060000F5228091F622E81739F0F0E0E950FF4D2D
:1006100080818093A00902C01092F922FF91EF918E
:100620008F910F900BBE0F900FBE0F901F901895DB
:10063000882311F080E00895CB01642F0E9483028B
:100640000895882311F080E00895CB01642F0E9463
:100650003B020895882311F085E8089560E875E26B
:1006600080E090E00E94120280E008958093EE20E6
:100670009093EF20E0E4F6E091E0928B84E08287B3
:10068000948708951F920F920FB60F920BB60F9298
:1006900011242F933F934F935F936F937F938F9387
:1006A0009F93AF93BF93EF93FF93E091EE20F09170
:1006B000EF201995FF91EF91BF91AF919F918F918D
:1006C0007F916F915F914F913F912F910F900BBE52
:1006D0000F900FBE0F901F9018951F920F920FB69C
:1006E0000F9211240F900FBE0F901F9018954F92EC
:1006F0005F926F927F928F929F92AF92BF92CF92B2
:10070000DF92EF92FF920F931F93CF93DF939C01A1
:100710006B015A01CB01820F931F8150904110F061
:1007200085E84DC0A0E0B0E0C0ECD1E040EC51E085
:1007300016E0612EF8EDEF2EF12C01E010E06BECED
:1007400071E0E3E37E2E95E3892E86E3982E33C095
:100750008091CF0187FDFCCFFA0112823183522EA6
:100760002093C0016286C701FB0184BF0083809192
:10077000C401F501EA0FFB1F40808415C9F0809188
:10078000CF0187FDFCCF8091CF0181FF06C0FA0128
:100790009286C701FB0184BF00837A865092C00114
:1007A00019821A824C828A86C701FB0184BF0083AA
:1007B0002F5F3F4F1196AC15BD0550F280E0DF91E1
:1007C000CF911F910F91FF90EF90DF90CF90BF904E
:1007D000AF909F908F907F906F905F904F90089513
:1007E0001F93CF93DF93E0E2F6E014828FEF8183D3
:1007F000C0E2D6E01FEF8FEF9FEF0E948A041F83B5
:10080000FACFBF92CF92DF92EF92FF920F931F9396
:10081000CF93DF938130910531F4862F642FA901A6
:100820000E94EE0735C0892B11F088EE31C0CA0155
:10083000860F971F8150904110F085E829C0A0E0F5
:10084000B0E0C0ECD1E096E0B92E88EDC82ED12CF6
:1008500001E0E02EF12C0BEC11E016C08091CF01ED
:1008600087FDFCCF1A8279836093C001BA86C601E6
:10087000F80184BFE0828091C401F901EA0FFB1FF7
:10088000808311966F5F7F4FA417B50738F380E020
:10089000DF91CF911F910F91FF90EF90DF90CF905C
:1008A000BF9008950E94130608950E94A9070E9410
:1008B000C4070E9430090E9484070E949F070E947B
:1008C000A30780E00895892B19F488E0809300083D
:1008D0000895FC012091FB223091FC22C901A0E087
:1008E000B0E0BC0155274427809120089091210851
:1008F000A0E0B0E0482B592B6A2B7B2B8091FB2288
:100900009091FC222817390729F74083518362838D
:10091000738308954FB7F8948630910518F12091AC
:10092000200830912108280F391F809120089091CC
:1009300021088217930740F48091200890912108A4
:1009400082179307C8F30EC0809120089091210868
:1009500028173907C8F38091200890912108821741
:100960009307C8F34FBF089520E090E0FC0153E0E7
:10097000EE0FFF1F5A95E1F7E80FF91FE350FD4D09
:1009800084819581892B09F021E0822F0895DF92DF
:10099000EF92FF920F931F93DFB6F8948091F220AD
:1009A0008F3F09F456C090E0FC01A3E0EE0FFF1F5B
:1009B000AA95E1F7E80FF91FE350FD4DE080F180C3
:1009C000028113812091FB223091FC22C801AA27C9
:1009D000BB272817390769F4E0922808F092290804
:1009E00080910C08806180930C08809107088360D7
:1009F00003C0809107088C7F809307086091FB22D9
:100A00007091FC229B0140E050E080912008909181
:100A10002108A90133272227A0E0B0E0282B392B99
:100A20004A2B5B2B8091FB229091FC22681779075F
:100A300029F72E193F09400B510B2F5F3F4F4F4FA6
:100A40005F4F2F5F3F4F4F4F5F4718F481E0809318
:100A5000F120DFBE1F910F91FF90EF90DF9008957E
:100A60008091F120882309F44CC01092F12030913C
:100A7000F020332309F445C08091F3208F3F59F4CF
:100A80008091F4208F3F39F48091F2208093F420FC
:100A90008093F32012C02091F2208091F42090E006
:100AA000FC0143E0EE0FFF1F4A95E1F7E80FF91F45
:100AB000E350FD4D20872093F4208091F22090E0B8
:100AC000FC0123E0EE0FFF1F2A95E1F7E80FF91F65
:100AD000E350FD4D80858093F2208091F42090E0DA
:100AE000FC01B3E0EE0FFF1FBA95E1F7E80FF91F25
:100AF000E350FD4D8FEF808731503093F0200E94FE
:100B0000C70408950F931F93882311F08AE883C0C8
:100B10000FB7F8940E9430051091F020112309F4CA
:100B20007DC04091F220842F242F312F2223F1F415
:100B3000442339F4809105238093F2200E94C70456
:100B40000EC090E0FC01A3E0EE0FFF1FAA95E1F7B5
:100B5000E80FF91FE350FD4D8091052380878FEF4B
:100B60008093052311501093F0204AC0822F90E00B
:100B7000FC0173E0EE0FFF1F7A95E1F7E80FF91F14
:100B8000E350FD4D50853150822F09F447C0252F89
:100B9000CDCF222319F52091F420332359F42223B9
:100BA00021F48FEF8093F42002C08091052380937D
:100BB000F32026C0842F90E0FC0163E0EE0FFF1FBE
:100BC0006A95E1F7E80FF91FE350FD4D8091052389
:100BD00080872223A9F44093F42012C0822F90E052
:100BE000FC0153E0EE0FFF1F5A95E1F7E80FF91FE4
:100BF000E350FD4D422F20852F3F59F680E005C080
:100C0000109201231092022381E00FBF882311F478
:100C100089E801C080E01F910F9108953091F32081
:100C2000432F232FE9CF1F931FB7F8940E9430055D
:100C30001FBF1FEF25C06FB7F894822F90E0FC0113
:100C4000B3E0EE0FFF1FBA95E1F7E80FF91FE3508D
:100C5000FD4D2085448155818681978110871482BE
:100C60001582168217822F3F09F43FEF6FBF41159F
:100C7000510551F03093F4202093F320FA01199597
:100C80003091F4202091F3202F3FA9F63093F420E7
:100C90002093F3201F9108954F925F926F927F925D
:100CA0009F92AF92BF92CF92DF92EF92FF920F93FB
:100CB0001F935A016B01F901882311F08AE8C0C023
:100CC0000115110509F4B9C0809101239091022307
:100CD000892B11F088E8B4C06091FB227091FC224E
:100CE0009B0140E050E08091200890912108A901EB
:100CF00033272227A0E0B0E0282B392B4A2B5B2B8F
:100D00008091FB229091FC226817790729F7309790
:100D100021F0319709F091C011C0D601C50180586A
:100D20009040A040B04080589F4FAF4FBF4708F061
:100D300086C0A20EB31EC41ED51E10C0D601C501AA
:100D400080589040A040B040821B930BA40BB50B81
:100D500080589F4FAF4FBF4708F071C09FB6F894BF
:100D60000E9430054091F2204F3F31F06091F02019
:100D7000242F342F50E041C01092F22040930523DD
:100D800027C02F3FA9F1822F90E0FC0173E0EE0F06
:100D9000FF1F7A95E1F7E80FF91FE350FD4D8081C1
:100DA0009181A281B38125013601481A590A6A0A44
:100DB0007B0AD301C2018F5F9F4FAF4FBF4710F433
:100DC000808518C020930523421721F41092F22049
:100DD00091E017C0832F90E0FC0133E0EE0FFF1F7E
:100DE0003A95E1F7E80FF91FE350FD4D108646C034
:100DF0008FEF232F5F5F322F282F561708F4C1CFB4
:100E00002DC0A092FD22B092FE22C092FF22D0926D
:100E100000230093012310930223E0920323F09216
:100E200004238091F0208F5F8093F020992311F0AC
:100E30000E94C7049FBE80E003C088EE01C08BE81B
:100E40001F910F91FF90EF90DF90CF90BF90AF90E8
:100E50009F907F906F905F904F900895832F90E0C8
:100E6000FC0123E0EE0FFF1F2A95E1F7E80FF91FC1
:100E7000E350FD4D10868FEF8093052390E0C1CFA6
:100E80001F920F920FB60F920BB60F9211242F9351
:100E90003F934F935F936F937F938F939F93AF9302
:100EA000BF93EF93FF938091FB229091FC220196D8
:100EB0008093FB229093FC220E94C704FF91EF9144
:100EC000BF91AF919F918F917F916F915F914F9162
:100ED0003F912F910F900BBE0F900FBE0F901F9060
:100EE00018951F920F920FB60F9211248F93809135
:100EF000F020882319F081E08093F1208F910F90EA
:100F00000FBE0F901F9018951092F0201092F120B4
:100F10001092FB221092FC228FEF8093F22080939C
:100F2000F3208093F42080930523109201231092E4
:100F300002230E94E1070895089581E0089584E85E
:100F4000809380010895E0EAF0E0828184608283EA
:100F5000089582E0809350008091510081FFFCCF82
:100F600098ED94BF84E0E0E4F0E0818394BF81E0F9
:100F70008093400082E0E0E5F0E0868380916000AD
:100F80008160809360000895E0E4F6E080818061F4
:100F9000808380818068808380818160808380817C
:100FA0008062808380818860808380818F7B808362
:100FB000E0E6F6E080ED818380E2828380E1858354
:100FC000089588E08093000880EF80930C0880E308
:100FD00080934C0883E08093060808956F927F9277
:100FE0009F92AF92BF92CF92DF92EF92FF920F93B8
:100FF0001F93DF93CF93CDB7DEB7C054D040CDBFA2
:10100000DEBFD82EA62EC42EB52E3E010894611C3C
:10101000711C662DA0E4B6E0EE24E39490E1F92E75
:1010200000EC18E083E0982E20EC38E0AE01405C44
:101030005F4F962D961B70914906809149068C7FD3
:1010400019968C9319971696EC9216971696FC9211
:1010500016970000000000000000000000000000E3
:101060000000000000000000000000000000000080
:101070000000F80193828091C20887FFFCCF9F7720
:10108000F90193838091C20887FFFCCFF901138295
:101090008091C20887FFFCCF8091C3081596FC920F
:1010A00015971596EC92159719967C931997F3015D
:1010B00080836416750621F00894611C711CB9CFF9
:1010C000FE01319620E030E0DE01AF5BBF4F819141
:1010D0002827022E2295207F2025032E322F2295AD
:1010E0002F700226269532272327220F220F220F48
:1010F0002025EA17FB0759F7232B11F085E814C0C8
:10110000DE011196AD0DB11D8C2D9B2D9C01AD0105
:1011100006C0FA018191AF01F90181939F01842FEB
:101120008A1B8A15B0F380E0C05CDF4FCDBFDEBF05
:10113000CF91DF911F910F91FF90EF90DF90CF90B3
:10114000BF90AF909F907F906F900895E0E2F6E09F
:1011500087E08183868308958130910519F0029795
:1011600019F404C021E003C020E001C022E06115B1
:10117000710521F061307105A9F40BC081E090E0A8
:1011800002C0880F991F2A95E2F7E0E2F6E0858316
:10119000089502C0660F771F2A95E2F7E0E2F6E0B5
:1011A0006683089581E090E002C0880F991F2A9518
:1011B000E2F7E0E2F6E087830895E0E2F6E088E017
:1011C000828388E1838B0895E0E2F6E0208530E0B9
:1011D00043E0369527954A95E1F721703070C901B3
:1011E00008952FB7F89498E09093B000E0E2F6E00D
:1011F0008BE1838B81858C7F826081879287E0EA97
:10120000F0E082818260828378942FBF08951F92DC
:101210000F920FB60F920BB60F9211248F93EF938C
:10122000FF93E0E2F6E08285877F8287E8E4F0E0E2
:1012300080818E7F8083FF91EF918F910F900BBE05
:101240000F900FBE0F901F9018950E94F108E8E4D0
:10125000F0E08081807F8560808378948895089510
:1012600080E58093C00880E1E0E4F6E0858308959E
:10127000E0E4F6E020914906909149069C7F918731
:10128000806C90E19683E0ECF8E083838091C20863
:1012900087FFFCCFE0ECF8E063838091C20887FF12
:1012A000FCCFE0E4F6E080E1858321870895E0E467
:1012B000F6E020914906909149069C7F91878068CD
:1012C00090E19683E0ECF8E083838091C20887FF89
:1012D000FCCFE0ECF8E013828091C20887FFFCCFDE
:1012E0008091C308E0E4F6E090E1958321870895BA
:1012F000CF93DF93DC0180E1E0E4F6E0868380E2D7
:10130000E0ECF8E083838091C20887FFFCCFE0EC3B
:10131000F8E013826130A9F0FD01262FC0ECD8E07F
:101320008091C20887FFFCCF8091C3081B82819304
:1013300021502230A8F76250862F90E00196A80F26
:10134000B91F8091C20887FFFCCF8091C3088C939E
:1013500080E1E0E4F6E08583DF91CF910895DC0140
:1013600080E1E0E4F6E0868380E6E0ECF8E0838369
:101370008091C20887FFFCCFE0ECF8E09D916150BE
:101380008091C20887FFFCCF93836623B9F78091D1
:10139000C20887FFFCCF80E1E0E4F6E08583089592
:1013A000FF920F931F93062FF42E0E9457090823D4
:1013B00010E002C015950795FA94E2F7802F1F916F
:1013C0000F91FF900895DF92EF92FF920F931F937A
:1013D000D82EF62EE42E022F0E94570910E002C0EC
:1013E000000F111FEA94E2F76F2D6023F094F822AA
:1013F0006F298D2D0E9438091F910F91FF90EF905A
:10140000DF9008951F9381E06FE140E00E94D009D2
:101410008830A1F48FE00E94570982E069E00E94C1
:10142000380910E08FE00E94570980FD07C08EE662
:1014300090E00E948A041F5F1330A1F71F91089566
:101440000F931F93082F80911E238F3019F588E08A
:10145000E0E4F6E08683809120238823E1F3109274
:1014600020238FE00E94570986E290E10E94360314
:101470008EE068E00E9438098DE064E042E021E0FF
:101480000E94E309083011F0033021F488E08093D2
:101490001E23DFC181E06FE140E00E94D00980930C
:1014A0001E23083009F45BC0093050F4043009F4FD
:1014B000A8C0063009F4B2C0033009F0C1C167C04A
:1014C0000F3069F0003120F4093009F0B9C177C05C
:1014D000063109F4DCC0093109F0B2C144C182E02F
:1014E00063E00E9438098DE064E042E020E00E9461
:1014F000E3090E940C11682F192F8DE20E94380910
:101500008EE267E040E0212F0E94E3098FE00E9415
:1015100057098DE190E10E9436038EE06FEF40E0C5
:1015200020E10E94E309000000000000000000002C
:1015300000000000000000000000000000000000AB
:1015400000000000000088E0E0E4F6E0858383E22C
:1015500090E00E948A0400931E238FE07AC18830B5
:1015600009F46EC182E068E00E94380900000000C2
:10157000000000000000000000000000000000006B
:1015800000000000000000000000000059C1883089
:1015900009F456C182E063E00E94380900000000AF
:1015A000000000000000000000000000000000003B
:1015B00000000000000000000000000041C1883071
:1015C00029F1893020F4863009F03AC105C086310E
:1015D00019F0893109F034C182E069E00E943809CC
:1015E00000000000000000000000000000000000FB
:1015F00000000000000000000000000000000000EB
:101600001FC1883019F0893021F41AC10E94020AE2
:1016100017C182E064E00E94380912C1893059F094
:101620008A3020F4883009F00BC11AC0863119F0D5
:10163000893109F005C182E066E00E9438090000A6
:10164000000000000000000000000000000000009A
:101650000000000000000000000000000000F0C0DA
:101660000E94020A82E066E00E9438090000000041
:10167000000000000000000000000000000000006A
:10168000000000000000000000000000D9C0883009
:1016900001F1893020F4863009F0D2C031C08930A0
:1016A00019F0893109F0CCC082E066E10E94380966
:1016B000000000000000000000000000000000002A
:1016C000000000000000000000000000000000001A
:1016D000B7C00E94020A82E066E10E943809000059
:1016E00000000000000000000000000000000000FA
:1016F0000000000000000000000000000000A0C08A
:1017000082E069E00E94380900000000000000004B
:1017100000000000000000000000000000000000C9
:10172000000000000000000081E06FE140E00E9446
:10173000D00980931E23893009F08BC082E066E1D6
:101740000E943809000000000000000000000000B6
:101750000000000000000000000000000000000089
:10176000000000006DC0883009F454C0893020F4B6
:10177000863009F065C01BC0893021F0863109F040
:101780005FC015C082E069E10E94380900000000D6
:101790000000000000000000000000000000000049
:1017A00000000000000000000000000049C082E0CE
:1017B00069E00E94380900000000000000000000FD
:1017C0000000000000000000000000000000000019
:1017D00000000000000081E06FE140E00E94D009BD
:1017E00080931E23893009F034C082E069E10E94B1
:1017F00038090000000000000000000000000000A8
:1018000000000000000000000000000000000000D8
:10181000000016C00E94020A82E069E10E943809B5
:1018200000000000000000000000000000000000B8
:1018300000000000000000000000000000000000A8
:1018400081E06FE140E00E94D00980931E238F3138
:10185000B9F31F910F9108958091F520882321F00D
:101860000E943B0C1092F52080912123823011F4CC
:101870000E94140D0895CF93DF93E0912223F0E0AE
:10188000EF012196DE01AE5DBC4DAC91EE5DFC4DED
:1018900022812F3110F02EE103C0222309F421E030
:1018A000A295A695A695A3708FEFA89FC0011124BD
:1018B00030E0AC01429FC001439F900D529F900DBC
:1018C00011246AE570E00E947B106F3F710511F0F2
:1018D00008F06FEFCE5DDC4D688382E293E20E94F8
:1018E0004D01DF91CF9108951F93DF93CF930F9216
:1018F000CDB7DEB787E00E945709182FCE010196B9
:1019000061E00E947809698167FD0DC06E5F82E227
:1019100093E20E947809E981F0E0EE5DFC4D1283CC
:1019200081E08093F5200F90CF91DF911F91089572
:1019300082E08093212386E10E94200A0895EF929D
:10194000FF920F931F93CF93DF93EC017B01042F42
:10195000442331F08CE260EF44E020911D2304C069
:101960008CE260EF44E020E00E94E30982E0E816A8
:10197000F10498F4002361F08CE26EE041E02091E4
:1019800017230E94E3098FE260E00E94380916C025
:101990008CE26EE041E027E00FC060911B2362956E
:1019A000607F80911C23682B8FE20E9438098CE2B3
:1019B0006EE041E0209117230E94E30989E10E9433
:1019C000200A8931D9F7809149068C7FE0E4F6E05E
:1019D000818781E080932123E1E0EE16F10451F448
:1019E0008881833118F080E492E002C080E890E0C2
:1019F0000E948A0400E416E088E0F801858386836B
:101A000068816150CE010E94AF09809149068360D0
:101A1000F8018187DF91CF911F910F91FF90EF9097
:101A200008950E949F0C0895109221238091F62022
:101A3000833071F0843028F4882331F0813061F4F0
:101A400005C0853049F406C080E007C087E805C0BE
:101A500081EE03C089EE01C085E80E941F01089550
:101A6000282F85FD03C0982F9F7304C0982F919550
:101A70009F719195E8EEF1E08491891734F03F96DB
:101A80008491981714F0822F0CC0803E3CF0803275
:101A90003CF487FF06C08F71806203C080E201C002
:101AA0008FE18068089584E08093172323E02093DA
:101AB0001C238FEF9FEF8093122390931323809327
:101AC0001523909316238BE08093192310921123F2
:101AD00085E080931B2320931D2383E80E94300D13
:101AE0008093062381E08093142310921A23089593
:101AF00085FD03C0982F9F7304C0982F91959F7107
:101B00009195E8EEF1E080E02491921724F02917F6
:101B10003CF4815008958F5F31968031A9F780E0C1
:101B200008951F93CF93DF9382E2609112230E9466
:101B300038096091132383E20E943809C7E0D3E299
:101B400014E2812F69910E9438091F5F1C32C9F786
:101B500080E2609115230E9438096091162381E28A
:101B60000E94380988E060E645E0209114230E9435
:101B7000E3098FE26FE040E020911C230E94E3091B
:101B80008EE268E043E020911A230E94E3098FE28D
:101B900060EF44E020911B230E94E30988E06FE19D
:101BA00040E0209119230E94E309809106230E94BE
:101BB000780D282F85E06FE040E00E94E309DF9177
:101BC000CF911F9108951F93CF93DF93EB018E3434
:101BD00031F0893541F4888180931D23D4C08881F8
:101BE00080931723D0C020911E232F3011F481E859
:101BF000CBC08B3009F4BAC08C3070F4823009F459
:101C00007DC0833018F48823C9F115C0833009F4EE
:101C100083C0843081F461C0833509F1843528F4B0
:101C20008F3459F0803539F40DC0873509F45FC021
:101C3000803F09F478C084EFA7C0288120931C233B
:101C40008FE267C068818981609312238093132398
:101C500082E20E9438096091132383E20CC06881FC
:101C60008981609315238093162380E20E943809AE
:101C70006091162381E20E94380985C0809121235A
:101C8000882309F07CC080E098EFAFEFB7E00880D0
:101C900004C0B695A795979587950A94D2F7817059
:101CA0009070892B09F46DC0283011F418E006C03B
:101CB00088E00E94200A8830D9F716E12881209315
:101CC000192388E06FE140E00E94E309183009F42D
:101CD0005AC086E10E94200A56C0809121238823A1
:101CE00009F04DC08881882309F44DC04AC028817D
:101CF00020931B238FE260EF44E03EC088818093F5
:101D000006230E94300D809306230E94780D282F11
:101D100085E06FE040E030C028812093142388E004
:101D200060E645E029C088818093072389818093FC
:101D300008238A81809309238B8180930A238C81D5
:101D400080930B238D8180930C238E8180930D23B0
:101D50008F8180930E23C7E0D3E214E2812F699133
:101D60000E9438091F5F1C32C9F70DC028812093DB
:101D70001A238EE268E043E00E94E30904C086E88B
:101D800003C088EE01C080E0DF91CF911F910895DC
:101D9000DF92EF92FF920F931F93DF93CF930F92F7
:101DA000CDB7DEB7D82E81E090E065E170E041E08C
:101DB00050E09E012F5F3F4F0E94010400E416E0B7
:101DC00088E0F80186838CE791E00E948A04FF2472
:101DD000F394F801F68281E090E00E948A04F80111
:101DE000F58210E084E690E00E948A0481E06FE1D1
:101DF00040E00E94D0091A3011F485E838C08830DC
:101E000011F01F5FEFCF80931E2329812223C1F1A0
:101E100082E16FE040E00E94E30932C086E060E6C4
:101E200045E00E94D0099801220F331F220F331F73
:101E3000082F10E0022B132BF394F8E0FF1671F734
:101E400083E00E94200A8FE00E945709E0E4F6E058
:101E500081E08487E186C8010E941111DD2011F024
:101E60000E94530D0E94910D1092212380E00F904B
:101E7000CF91DF911F910F91FF90EF90DF90089528
:101E800083E060E344E020E00E94E30983E068E04F
:101E900043E020E00E94E30983E067E040E021E0C6
:101EA0000E94E3098EE260E245E021E00E94E3093E
:101EB0008CE060E847E021E00E94E30984E062E012
:101EC00041E021E00E94E3098EE068E00E943809C9
:101ED0008DE063E040E021E00E94E3098AE06FE0EA
:101EE00040E023E00E94E3098DE068E043E021E068
:101EF0000E94E3098DE064E042E021E00E94E309F2
:101F000086E00E94200AE0904906809149068C7F75
:101F1000E0E4F6E0818700E010E0FF247FCF1F932C
:101F20000E94C80E882311F085E81FC086E290E168
:101F30000E943603E0E4F6E081E084878091490660
:101F4000836081870E940C11682F192F8DE20E94F7
:101F500038098EE267E040E0212F0E94E30980E02B
:101F60000E9448100E94351080E01F910895FF9252
:101F70000F931F930E945504882309F059C000E471
:101F800016E0FF24F394F801F58288E086838AE462
:101F900091E00E948A04F801F68281E090E00E94BC
:101FA0008A04F801F58200E004C00F5F0A3009F4EA
:101FB0003FC084E690E00E948A048DE10E945709A8
:101FC000823099F78CE10E945709833071F782E0E3
:101FD00068E00E94380900E084E690E00E948A04EC
:101FE00081E06FE140E00E94D0090A3009F18830B9
:101FF00011F00F5FF1CF80931E2381E090E060E04D
:1020000070E048E050E027E033E20E94010481E004
:102010000E94C80E882361F486E290E10E94360394
:10202000809149068360E0E4F6E0818780E001C0AA
:1020300085E81F910F91FF9008958FE00E94570946
:1020400084FF03C081E08093202308958FE00E94E5
:10205000570983FF09C080912123813019F40E9420
:10206000980C08950E94740C089580911E238F305F
:1020700011F082E8089588E00E94200A883011F06B
:1020800085E8089581E090E00E94630480E008956F
:10209000882311F088EE089580911E238F3011F46B
:1020A00081E8089580912123882381F488E00E94AB
:1020B000200A8830D9F780E090E00E9463048FE026
:1020C0000E94200A8F3011F480E0089586E8089578
:1020D000982F80912123882311F086E80895983065
:1020E00029F488E00E94200A88E0089586E10E9491
:1020F000200A86E00895AA1BBB1B51E107C0AA1F56
:10210000BB1FA617B70710F0A61BB70B881F991F98
:102110005A95A9F780959095BC01CD010895A1E24B
:102120001A2EAA1BBB1BFD010DC0AA1FBB1FEE1F51
:10213000FF1FA217B307E407F50720F0A21BB30B9C
:10214000E40BF50B661F771F881F991F1A9469F718
:1021500060957095809590959B01AC01BD01CF0174
:102160000895AF92BF92CF92DF92EF92FF920F93BA
:102170001F93CF93DF93EC01A880B980CA80DB80E6
:10218000A114B104C104D10441F484E2A82E89ED64
:10219000B82E8BE5C82E87E0D82EC601B5012DE1FB
:1021A00033EF41E050E00E94441127EA31E440E07F
:1021B00050E00E9425117B018C01C601B5012DE183
:1021C00033EF41E050E00E944411CA01B9012CEE06
:1021D00034EF4FEF5FEF0E9425116E0D7F1D801FC2
:1021E000911F97FF04C06150704080409048688301
:1021F00079838A839B839B013F77C901DF91CF91CC
:102200001F910F91FF90EF90DF90CF90BF90AF9014
:1022100008950E94B110089580E090E20E94B110EC
:102220000895A0E0B0E08093002090930120A09357
:102230000220B09303200895FB01DC0102C001904D
:102240000D9241505040D8F70895629FD001739F7E
:10225000F001829FE00DF11D649FE00DF11D929F42
:10226000F00D839FF00D749FF00D659FF00D992781
:10227000729FB00DE11DF91F639FB00DE11DF91FA5
:10228000BD01CF011124089597FB092E05260ED01C
:1022900057FD04D044DF0AD0001C38F45095409517
:1022A000309521953F4F4F4F5F4F0895F6F790952A
:1022B0008095709561957F4F8F4F9F4F0895F8944B
:0222C000FFCF4E
:0422C2000100000017
:00000001FF
