:100000000C9435010C9456010C945F050C948A05F0
:100010000C9456010C9456010C9456010C94560104
:100020000C9456010C9456010C9456010C945601F4
:100030000C9456010C9456010C94D8090C9456015A
:100040000C94090A0C9456010C9456010C94560118
:100050000C9456010C9456010C9456010C945601C4
:100060000C9456010C9456010C9456010C945601B4
:100070000C9456010C9456010C9456010C945601A4
:100080000C9456010C9456010C9456010C94560194
:100090000C9456010C9456010C9456010C94560184
:1000A0000C9456010C9456010C9456010C94560174
:1000B0000C9456010C9456010C9456010C94560164
:1000C0000C9456010C9456010C9456010C94560154
:1000D0000C9456010C9456010C9456010C94560144
:1000E0000C9456010C9456010C9456010C94560134
:1000F0000C9456010C9456010C9456010C94560124
:100100000C9456010C9456010C9456010C94560113
:100110000C9456010C9456010C9456010C94560103
:100120000C9456010C9456010C9456010C945601F3
:100130000C9456010C9456010C9456010C945601E3
:100140000C9456010C9456010C9456010C945601D3
:100150000C9456010C9456010C9456010C945601C3
:100160000C9456010C9456010C9456010C94DC042A
:100170000C9456010C9408050C9456010C945601ED
:100180000C9456010C9456010C9456010C94560193
:100190000C9456010C9456010C9456010C94560183
:1001A0000C9456010C9456010C9456010C94560173
:1001B0000C9456010C9456010C9456010C94560163
:1001C0000C9456010C9456010C9456010C94560153
:1001D0000C9456010C9456010C9456010C94560143
:1001E0000C9456010C94560103020201010000FF19
:1001F000FEFDFCFBF9F7F4EF431A2F17000019205E
:100200000000F51DA0230000C023EF216C27082A61
:1002100000000000E324000012192619000000006D
:1002200001199718B018E3180000000000003618F4
:1002300000001A1885182618671858180000761834
:10024000010401010102010101010101010101019A
:100250000401080201010101020101020102010180
:100260000201020201010101080011241FBECFEFAB
:10027000DFE5DEBFCDBF00E00CBF11E2A0E0B0E2E1
:10028000E8EDF6E600E00BBF02C007900D92AA3B36
:10029000B107D9F715E2AAEBB1E201C01D92A83669
:1002A000B107E1F70E9483030C946A330C940000B9
:1002B0007F928F929F92AF92BF92CF92DF92EF92F6
:1002C000FF920F931F93DF93CF93CDB7DEB72597A0
:1002D000CDBFDEBF742E4901702F6E2DE090BA2184
:1002E000F090BB210091BC211091BD210894E11C2C
:1002F000F11C011D111DE092BA21F092BB21009367
:10030000BC211093BD21F901419151914093BE212F
:100310005093BF21842F87708093C0217092C12198
:10032000252F2695269523702093C321352F3295AE
:100330003695369533703093CE21222371F1D40156
:1003400012968D919C9113978093C4219093C5210F
:100350003296223039F4819191918093C621909305
:10036000C7211BC02330C9F480818093C6218181BD
:100370008093C72182818093C82183818093C92182
:1003800084818093CA2185818093CB21868180934B
:10039000CC2187818093CD213896332389F146FD86
:1003A00003C08191919104C08091C4219091C52195
:1003B0008093CF219093D021323039F48191919163
:1003C0008093D1219093D2211BC03330C9F4808116
:1003D0008093D12181818093D22182818093D32106
:1003E00083818093D42184818093D52185818093DA
:1003F000D62186818093D72187818093D821389612
:100400006093C221872D880D8E1B8093DE2170930F
:10041000D921A092DA21B092DB21C092DC21D092C6
:10042000DD21E093DF21F093E02100D000D080E0D7
:1004300090E2EDB7FEB781839283ADB7BEB7139656
:10044000ED92FD920D931C9316970E94F62EEDB738
:10045000FEB73696EDBFFEBF8091C0218130F1F02E
:10046000813028F08230F9F0833059F521C00F92A5
:100470000F928AE090E2ADB7BEB711968D939C9330
:1004800012970E94F62E0F900F9064018E010F5F5D
:100490001F4F86E3E82E80E2F82E38C00F920F92AD
:1004A00083E190E209C00F920F928AE190E2E3CFDC
:1004B0000F920F9280E290E2EDB7FEB781839283B4
:1004C000E0CF0F920F9286E290E2D5CF00D000D01D
:1004D000EDB7FEB73196ADB7BEB711960D931C932D
:1004E0001297E282F382D6018D916D018483158289
:1004F0000E943D2F0F900F900F900F90EDB7FEB719
:10050000018312830E94F62E0F900F908C2D881974
:100510008715E0F28CE390E20E94082F2596CDBF6C
:10052000DEBFCF91DF911F910F91FF90EF90DF9091
:10053000CF90BF90AF909F908F907F900895EF9253
:10054000FF920F931F93DF93CF9300D0CDB7DEB709
:10055000882309F050C0643031F41092E12184E026
:1005600061EE71E246C0662309F045C000D00F92EB
:10057000EDB7FEB731968EE390E2ADB7BEB71196F8
:100580008D939C931297DA018C91828313820E943F
:10059000F62EDE011196ECEAF1E283E001900D9275
:1005A0008150E1F70F900F900F900F9086E590E249
:1005B0000E94082F8E010F5F1F4F94E0E92EF12C4F
:1005C000EC0EFD1E80E090E00E94E803982F80531F
:1005D0008A3030F4F80191938F01EE15FF0591F701
:1005E000CE0101960E94652E6093E22180E062EECA
:1005F00071E20E946E2D2396CDBFDEBFCF91DF91B9
:100600001F910F91FF90EF900895DF93CF930F927A
:10061000CDB7DEB7882309F04EC06430D9F400D0DE
:100620000F92EDB7FEB7319684E890E2ADB7BEB752
:1006300011968D939C9312978091E121828313826E
:100640000E94F62E0F900F900F900F9080E00E9466
:10065000712C4BC06623D9F400D00F92EDB7FEB7D2
:1006600031968EE390E2ADB7BEB711968D939C9311
:1006700012978091E221828313820E94F62E81E0FC
:1006800089830F900F900F900F9082E509C062351B
:1006900069F481EA90E20E94082F81E0898381E574
:1006A000BE016F5F7F4F0E946E2D1FC0613519F430
:1006B00085EB90E218C00F920F9281ED90E2EDB7BA
:1006C000FEB7818392830E94F62E83EF90E2ADB74E
:1006D000BEB711968D939C9312970E94F62E0F90A1
:1006E0000F908DE091E20E94082F0F90CF91DF9143
:1006F0000895882321F484E00E94712C089581E0FC
:100700000E94892C08950E94B02D882311F00E9428
:100710000D060E943A0B789481E00E9447058823D9
:1007200011F00E940D0681E094E068EE73E00E94F3
:10073000AA2E80E090E00E94E80381E00E94892CCC
:1007400088E291E20E94082F0F920F928AE691E2CE
:10075000EDB7FEB7818392830E94F62E8EE891E278
:10076000EDB7FEB7818392830E94F62E88E991E26D
:10077000EDB7FEB7818392830E94F62E8CE991E259
:10078000EDB7FEB7818392830E94F62E0F900F90F3
:1007900089EA91E20E94082F0E949A2DFDCFDF93F3
:1007A000CF930F92CDB7DEB781E0BE016F5F7F4F71
:1007B00041E00E943505813019F02FEF3FEF03C073
:1007C0008981282F30E0C9010F90CF91DF910895E2
:1007D0000F931F93DF93CF930F92CDB7DEB78E01A8
:1007E0000F5F1F4F81E0B80141E00E94350588236B
:1007F000C9F3898190E00F90CF91DF911F910F9104
:1008000008950F931F93DF93CF930F92CDB7DEB769
:1008100089838A3071F48DE089838E010F5F1F4FC9
:1008200081E0B80141E00E943E058823C9F38AE0D7
:1008300089838E010F5F1F4F81E0B80141E00E9464
:100840003E058823C9F380E090E00F90CF91DF91BF
:100850001F910F9108959B01AC016050774F824C1E
:100860009F4FF2E0660F771F881F991FFA95D1F707
:10087000E3E0220F331F441F551FEA95D1F70E9472
:10088000D82D21503040E0E6F6E080E8818380E416
:100890008283E0EBF9E0378326838CE1848383E075
:1008A00085838CE383830895DC018091B309837F82
:1008B000E0EBF9E0838320919124809192248217C8
:1008C00030F0275F922F981B892F295005C02150A7
:1008D000922F981B892F2F5F482F681708F4462FF7
:1008E000342F12C090919224E92FF0E0E358FB4D91
:1008F0008C918083993019F41092922403C09F5FE9
:100900009093922431501196332361F7809195246E
:10091000882351F4E22FF0E0E358FB4D808180936F
:10092000B00981E0809395248091B3098C60E0EB5D
:10093000F9E08383842F0895DC01209196242223FB
:1009400011F480E008958091B3098F7CE0EBF9E029
:1009500083832A3058F080919424809393248AE0F2
:10096000809396246A3020F02AE003C0261708F00E
:10097000262F322F17C0E0919324F0E0E358FB4D6F
:1009800082858C93909193249F5F90939324809180
:1009900096248150809396249A3011F410929324D7
:1009A00011963150332339F78091B3098063E0EB1E
:1009B000F9E08383822F08951F920F920FB60F9252
:1009C0000BB60F9211248F939F93EF93FF93909107
:1009D0009424809196248F5F809396248091B0090F
:1009E000E92FF0E0E358FB4D8287993019F410921B
:1009F000942403C09F5F90939424FF91EF919F9163
:100A00008F910F900BBE0F900FBE0F901F901895F7
:100A10001F920F920FB60F920BB60F9211248F9365
:100A2000EF93FF9380919124893019F410929124CF
:100A300003C08F5F80939124E09191248091922450
:100A4000E81739F0F0E0E358FB4D80818093B0095E
:100A500002C010929524FF91EF918F910F900BBEE1
:100A60000F900FBE0F901F901895813011F080E00D
:100A70000895CB01642F0E949C040895813011F0E9
:100A800080E00895CB01642F0E94540408958130C2
:100A900011F085E8089560E875E280E090E00E943A
:100AA0002B0480E008958093E3219093E421E0E417
:100AB000F6E091E0928B84E08287948708951F92FC
:100AC0000F920FB60F920BB60F9211242F933F93F4
:100AD0004F935F936F937F938F939F93AF93BF9346
:100AE000EF93FF93E091E321F091E4211995FF91B9
:100AF000EF91BF91AF919F918F917F916F915F9196
:100B00004F913F912F910F900BBE0F900FBE0F9002
:100B10001F9018951F920F920FB60F9211240F90ED
:100B20000FBE0F901F9018954F925F926F927F9219
:100B30008F929F92AF92BF92CF92DF92EF92FF92ED
:100B40000F931F93CF93DF939C016B015A01CB014D
:100B5000820F931F8150904110F085E84DC0A0E0B6
:100B6000B0E0C0ECD1E040EC51E016E0612EF8EDD1
:100B7000EF2EF12C01E010E06BEC71E0E3E37E2E50
:100B800095E3892E86E3982E33C08091CF0187FDAF
:100B9000FCCFFA0112823183522E2093C00162866B
:100BA000C701FB0184BF00838091C401F501EA0FF6
:100BB000FB1F40808415C9F08091CF0187FDFCCFD9
:100BC0008091CF0181FF06C0FA019286C701FB0127
:100BD00084BF00837A865092C00119821A824C82A7
:100BE0008A86C701FB0184BF00832F5F3F4F1196A8
:100BF000AC15BD0550F280E0DF91CF911F910F91B0
:100C0000FF90EF90DF90CF90BF90AF909F908F902C
:100C10007F906F905F904F9008951F93CF93DF93D5
:100C2000E0E8F6E014828FEF8183C0E8D6E01FEFA2
:100C30008FEF9FEF0E94A7061F83FACFBF92CF923C
:100C4000DF92EF92FF920F931F93CF93DF93813048
:100C5000910531F4862F642FA9010E94820A35C0C4
:100C6000892B11F088EE31C0CA01860F971F815081
:100C7000904110F085E829C0A0E0B0E0C0ECD1E0E0
:100C800096E0B92E88EDC82ED12C01E0E02EF12C93
:100C90000BEC11E016C08091CF0187FDFCCF1A82CA
:100CA00079836093C001BA86C601F80184BFE082EF
:100CB0008091C401F901EA0FFB1F808311966F5FD9
:100CC0007F4FA417B50738F380E0DF91CF911F91D4
:100CD0000F91FF90EF90DF90CF90BF9008950E940A
:100CE000750808950E94450A0E94600A0E94C30B7D
:100CF0000E941C0A0E943B0A0E943F0A80E008955D
:100D0000892B19F488E0809300080895FC01209154
:100D1000972430919824C901A0E0B0E0BC01552788
:100D200044278091200890912108A0E0B0E0482B52
:100D3000592B6A2B7B2B809197249091982428170C
:100D4000390729F7408351836283738308954FB72E
:100D5000F8948630910518F12091200830912108EF
:100D6000280F391F8091200890912108821793073E
:100D700040F4809120089091210882179307C8F3CE
:100D80000EC0809120089091210828173907C8F3D8
:100D9000809120089091210882179307C8F34FBFD4
:100DA000089520E090E0FC0153E0EE0FFF1F5A95FC
:100DB000E1F7E80FF91FE756FB4D84819581892BF8
:100DC00009F021E0822F0895DF92EF92FF920F93B6
:100DD0001F93DFB6F8948091E7218F3F09F456C046
:100DE00090E0FC01A3E0EE0FFF1FAA95E1F7E80FEA
:100DF000F91FE756FB4DE080F180028113812091BD
:100E0000972430919824C801AA27BB2728173907AF
:100E100069F4E0922808F092290880910C0880611A
:100E200080930C0880910708836003C080910708B5
:100E30008C7F8093070860919724709198249B0180
:100E400040E050E08091200890912108A9013327CB
:100E50002227A0E0B0E0282B392B4A2B5B2B809176
:100E60009724909198246817790729F72E193F093C
:100E7000400B510B2F5F3F4F4F4F5F4F2F5F3F4F47
:100E80004F4F5F4718F481E08093E621DFBE1F914A
:100E90000F91FF90EF90DF9008958091E6218823D5
:100EA00009F44CC01092E6213091E521332309F476
:100EB00045C08091E8218F3F59F48091E9218F3F0F
:100EC00039F48091E7218093E9218093E82112C0D1
:100ED0002091E7218091E92190E0FC0143E0EE0FB1
:100EE000FF1F4A95E1F7E80FF91FE756FB4D2087F2
:100EF0002093E9218091E72190E0FC0123E0EE0FAF
:100F0000FF1F2A95E1F7E80FF91FE756FB4D808593
:100F10008093E7218091E92190E0FC01B3E0EE0F9E
:100F2000FF1FBA95E1F7E80FF91FE756FB4D8FEF6A
:100F3000808731503093E5210E94E4060895FF92A6
:100F40000F931F93182F853010F08AE8C5C0FFB6A5
:100F5000F8940E944D070091E521002309F4C0C0D8
:100F60004091E721242F302F842F1217F1F5212FE4
:100F700030E0141781F4F90163E0EE0FFF1F6A956A
:100F8000E1F7E20FF31FE756FB4D80858093E721E1
:100F90000E94E40618C090E0DC0153E0AA0FBB1FDA
:100FA0005A95E1F7A80FB91FA756BB4DF90143E0C9
:100FB000EE0FFF1F4A95E1F7E20FF31FE756FB4DD7
:100FC000808518968C93812F90E0FC0123E0EE0F32
:100FD000FF1F2A95E1F7E80FF91FE756FB4D8FEF4A
:100FE000808701500093E52162C0822F90E0FC01D0
:100FF000B3E0EE0FFF1FBA95E1F7E80FF91FE756D0
:10100000FB4D50853150822F09F46AC0252FADCF9A
:101010001217D1F52091E9211317B1F4121721F419
:101020008FEF8093E9210DC0812F90E0FC01A3E0B8
:10103000EE0FFF1FAA95E1F7E80FF91FE756FB4DEA
:1010400080858093E82133C0842F90E0DC01E3E0C9
:10105000AA0FBB1FEA95E1F7A80FB91FA756BB4D12
:10106000812F90E0FC0173E0EE0FFF1F7A95E1F70E
:10107000E80FF91FE756FB4D808518968C931217E1
:10108000B1F44093E92113C0822F90E0FC0163E0AA
:10109000EE0FFF1F6A95E1F7E80FF91FE756FB4DCA
:1010A000422F20852F3F09F0B3CF80E00FC0812F62
:1010B00090E0FC0153E0EE0FFF1F5A95E1F7E80FB7
:1010C000F91FE756FB4D1482158281E0FFBE88238D
:1010D00011F489E801C080E01F910F91FF900895FD
:1010E0003091E821232F432FDDCF1F931FB7F894B2
:1010F0000E944D071FBF1FEF25C06FB7F894822FC6
:1011000090E0FC0173E0EE0FFF1F7A95E1F7E80F26
:10111000F91FE756FB4D20854481558186819781D3
:10112000108714821582168217822F3F09F43FEF31
:101130006FBF4115510551F03093E9212093E8210B
:10114000FA0119953091E9212091E8212F3FA9F664
:101150003093E9212093E8211F9108952F923F9227
:101160004F925F927F928F929F92AF92BF92CF9257
:10117000DF92EF92FF920F931F93CF93DF93782E1E
:101180005A016B01490194E0292E281610F48AE8CF
:10119000E2C00115110509F4DBC0C82FD0E0FE0143
:1011A00083E0EE0FFF1F8A95E1F7EC0FFD1FE75676
:1011B000FB4D84819581892B11F088E8CCC060912A
:1011C0009724709198249B0140E050E08091200882
:1011D00090912108A90133272227A0E0B0E0282B15
:1011E000392B4A2B5B2B8091972490919824681778
:1011F000790729F78114910431F061E08616910492
:1012000009F0A6C011C0D601C50180589040A04089
:10121000B04080589F4FAF4FBF4708F09BC0A20E11
:10122000B31EC41ED51E10C0D601C5018058904003
:10123000A040B040821B930BA40BB50B80589F4F6E
:10124000AF4FBF4708F086C09FB6F8940E944D0785
:101250005091E7215F3F31F06091E521252F452F27
:1012600030E054C07092E721FE01A3E0EE0FFF1FB3
:10127000AA95E1F7EC0FFD1FE756FB4D508731C0F3
:101280002F3F09F43EC0822F90E0FC0173E0EE0F87
:10129000FF1F7A95E1F7E80FF91FE756FB4D8081B4
:1012A0009181A281B38115012601281A390A4A0ABF
:1012B0005B0AD201C1018F5F9F4FAF4FBF4710F450
:1012C000808521C0FE0133E0EE0FFF1F3A95E1F764
:1012D000EC0FFD1FE756FB4D2087521721F470924B
:1012E000E72191E017C0842F90E0FC0123E0EE0F8E
:1012F000FF1F2A95E1F7E80FF91FE756FB4D7086AF
:1013000055C08FEF242F3F5F422F282F361708F448
:10131000B7CF33C0FE0183E0EE0FFF1F8A95E1F7E0
:10132000EC0FFD1FE756FB4DA082B182C282D38233
:1013300004831583E682F7828091E5218F5F809395
:10134000E521992311F00E94E4069FBE80E003C0CE
:1013500088EE01C08BE8DF91CF911F910F91FF9034
:10136000EF90DF90CF90BF90AF909F908F907F9045
:101370005F904F903F902F900895842F90E0FC0154
:10138000B3E0EE0FFF1FBA95E1F7E80FF91FE7563C
:10139000FB4D7086FE01A3E0EE0FFF1FAA95E1F75B
:1013A000EC0FFD1FE756FB4D8FEF808790E0B2CF2B
:1013B0001F920F920FB60F920BB60F9211242F931C
:1013C0003F934F935F936F937F938F939F93AF93CD
:1013D000BF93EF93FF938091972490919824019667
:1013E00080939724909398240E94E406FF91EF91B4
:1013F000BF91AF919F918F917F916F915F914F912D
:101400003F912F910F900BBE0F900FBE0F901F902A
:1014100018951F920F920FB60F9211248F938091FF
:10142000E521882319F081E08093E6218F910F90C8
:101430000FBE0F901F9018951092E5211092E62193
:1014400010929724109298248FEF8093E721809335
:10145000E8218093E921EDE9F4E28483108211828E
:10146000399694E2EA3CF907C1F70E94750A08959B
:10147000089581E0089584E8809380010895E0EA6A
:10148000F0E0828184608283089582E0809350003E
:101490008091510081FFFCCF98ED94BF84E0E0E49F
:1014A000F0E0818394BF81E08093400082E0E0E53A
:1014B000F0E08683809160008160809360000895F1
:1014C000E0E4F6E0808180618083808180688083B1
:1014D0008081816080838081806280838081886058
:1014E000808380818F7B8083089588E080930008CB
:1014F00080EF80930C0880E380934C0883E0809316
:10150000060808956F927F929F92AF92BF92CF92FA
:10151000DF92EF92FF920F931F93DF93CF93CDB79C
:10152000DEB7C054D040CDBFDEBFD82EA62EC42E0D
:10153000B52E3E010894611C711C662DA0E4B6E036
:10154000EE24E39490E1F92E00EC18E083E0982E6D
:1015500020EC38E0AE01405C5F4F962D961B7091F9
:101560004906809149068C7F19968C931997169697
:10157000EC9216971696FC92169700000000000059
:10158000000000000000000000000000000000005B
:1015900000000000000000000000F801938280912C
:1015A000C20887FFFCCF9F77F90193838091C2081F
:1015B00087FFFCCFF90113828091C20887FFFCCF1F
:1015C0008091C3081596FC9215971596EC92159785
:1015D00019967C931997F30180836416750621F0A0
:1015E0000894611C711CB9CFFE01319620E030E0F7
:1015F000DE01AF5BBF4F81912827022E2295207F0D
:101600002025032E322F22952F7002262695322771
:101610002327220F220F220F2025EA17FB0759F755
:10162000232B11F085E814C0DE011196AD0DB11D1C
:101630008C2D9B2D9C01AD0106C0FA018191AF015B
:10164000F90181939F01842F8A1B8A15B0F380E0F2
:10165000C05CDF4FCDBFDEBFCF91DF911F910F91F7
:10166000FF90EF90DF90CF90BF90AF909F907F90D2
:101670006F900895E0E8F6E08FEF8483808308950B
:1016800084309105E9F08530910548F48230910568
:1016900099F08330910590F4019761F409C0863088
:1016A000910591F08630910568F0079719F40EC006
:1016B00021E00DC020E00BC022E009C023E007C0FC
:1016C00024E005C025E003C026E001C027E0611545
:1016D000710521F061307105A9F40BC081E090E043
:1016E00002C0880F991F2A95E2F7E0E8F6E08683AA
:1016F000089502C0660F771F2A95E2F7E0E8F6E04A
:101700006583089581E090E002C0880F991F2A95B3
:10171000E2F7E0E8F6E0878308951092A0060895C6
:1017200084309105E9F08530910548F482309105C7
:1017300099F08330910590F4019761F409C08630E7
:10174000910591F08630910568F0079719F40EC065
:1017500081E00DC080E00BC082E009C083E007C0DB
:1017600084E005C085E003C086E001C087E02091E9
:10177000A80630E002C0359527958A95E2F72170DA
:101780003070C901089580E58093C00880E1E0E4ED
:10179000F6E085830895E0E4F6E020914906909113
:1017A00049069C7F9187806C90E19683E0ECF8E09D
:1017B00083838091C20887FFFCCFE0ECF8E063836D
:1017C0008091C20887FFFCCFE0E4F6E080E18583EA
:1017D00021870895E0E4F6E02091490690914906BA
:1017E0009C7F9187806890E19683E0ECF8E08383AA
:1017F0008091C20887FFFCCFE0ECF8E01382809173
:10180000C20887FFFCCF8091C308E0E4F6E090E1D6
:10181000958321870895CF93DF93DC0180E1E0E495
:10182000F6E0868380E2E0ECF8E083838091C208F2
:1018300087FFFCCFE0ECF8E013826130A9F0FD01F6
:10184000262FC0ECD8E08091C20887FFFCCF8091A2
:10185000C3081B82819321502230A8F76250862F43
:1018600090E00196A80FB91F8091C20887FFFCCFB6
:101870008091C3088C9380E1E0E4F6E08583DF91FA
:10188000CF910895DC0180E1E0E4F6E0868380E614
:10189000E0ECF8E083838091C20887FFFCCFE0ECA6
:1018A000F8E09D9161508091C20887FFFCCF93833F
:1018B0006623B9F78091C20887FFFCCF80E1E0E49E
:1018C000F6E085830895FF920F931F93062FF42E61
:1018D0000E94EA0B082310E002C015950795FA94C0
:1018E000E2F7802F1F910F91FF900895DF92EF9202
:1018F000FF920F931F93D82EF62EE42E022F0E94F4
:10190000EA0B10E002C0000F111FEA94E2F76F2DFE
:101910006023F094F8226F298D2D0E94CB0B1F912C
:101920000F91FF90EF90DF900895BC01009721F098
:1019300082E694E20E94CA0C089582E694E260E096
:1019400070E00E945F0D08950F931F93CF93DF9374
:1019500082E694E20E94C30CC2E5D4E20AEE11E2F0
:101960000883198382E694E2BE010E94CA0C249681
:1019700006561F4F84E2C236D80791F7DF91CF9108
:101980001F910F910895FC0110821182128213821F
:1019900014820895CF93DF93DC01EB019FB7F89495
:1019A00014968C911497882321F46D937C9311974E
:1019B00006C01296ED91FC91139762837383129681
:1019C000CD93DC9313971A821B8214968C911497F3
:1019D0008F5F14968C939FBFDF91CF9108959F9254
:1019E000AF92BF92CF92DF92EF92FF920F931F932D
:1019F000CF93DF938C015B016A019FB6F894DC0101
:101A000014968C91882319F4C0E0D0E04AC0F80104
:101A1000C081D18141155105B1F07E0111C0D601BF
:101A200012966D917C911397ED91FC91888199812B
:101A30001995882359F47E018A819B819C01E901D3
:101A4000209769F72EC0209761F17E01AB2849F5F8
:101A5000F801808191812A813B81C817D90719F447
:101A60002083318305C0D70112962D933C931397A1
:101A7000F80182819381C817D90711F4E282F382B9
:101A8000D80114968C911497815014968C931497C6
:101A90008D919C911197892B21F412961D921C9285
:101AA00013979FBECE01DF91CF911F910F91FF90B1
:101AB000EF90DF90CF90BF90AF909F900895AB01D3
:101AC00060E070E00E94EF0C0895AB0161E070E00F
:101AD0000E94EF0C0895CF93DF93EC010BC0CE0171
:101AE00060E070E00E945F0D009711F41C8205C059
:101AF0000E94950C8C81882391F7DF91CF910895F6
:101B00001F9381E06FE140E00E94630C8830A1F4F4
:101B10008FE00E94EA0B82E069E00E94CB0B10E0AC
:101B20008FE00E94EA0B80FD07C08EE690E00E94E5
:101B3000A7061F5F1330A1F71F9108950F931F93FE
:101B4000082F8091EB248F3039F59FB7F894789463
:101B500088E0E0E4F6E086838091F4248823E1F3D2
:101B60009FBF1092F4248FE00E94EA0B8AE895E16F
:101B70000E9453058EE06CE00E94CB0B8DE064E088
:101B800042E021E00E94760C083011F0033021F48D
:101B900088E08093EB24DFC181E06FE140E00E94A8
:101BA000630C8093EB24083009F45BC0093050F4D7
:101BB000043009F4A8C0063009F4B2C0033009F0BB
:101BC000C1C167C00F3069F0003120F4093009F05D
:101BD000B9C177C0063109F4DCC0093109F0B2C1DE
:101BE00044C182E063E00E94CB0B8DE064E042E000
:101BF00020E00E94760C0E94552E682F192F8DE24E
:101C00000E94CB0B8EE267E040E0212F0E94760C11
:101C10008FE00E94EA0B81E895E10E9453058EE077
:101C20006FEF40E020E10E94760C00000000000011
:101C300000000000000000000000000000000000A4
:101C40000000000000000000000088E0E0E4F6E092
:101C5000858383E290E00E94A7060093EB248FE047
:101C60007AC1883009F46EC182E068E00E94CB0B33
:101C70000000000000000000000000000000000064
:101C80000000000000000000000000000000000054
:101C900059C1883009F456C182E063E00E94CB0B41
:101CA0000000000000000000000000000000000034
:101CB0000000000000000000000000000000000024
:101CC00041C1883029F1893020F4863009F03AC1C9
:101CD00005C0863119F0893109F034C182E069E02C
:101CE0000E94CB0B0000000000000000000000007C
:101CF00000000000000000000000000000000000E4
:101D0000000000001FC1883019F0893021F41AC189
:101D10000E94800D17C182E064E00E94CB0B12C1CB
:101D2000893059F08A3020F4883009F00BC11AC08C
:101D3000863119F0893109F005C182E066E00E9420
:101D4000CB0B0000000000000000000000000000BD
:101D50000000000000000000000000000000000083
:101D60000000F0C00E94800D82E066E00E94CB0B74
:101D70000000000000000000000000000000000063
:101D80000000000000000000000000000000000053
:101D9000D9C0883001F1893020F4863009F0D2C0F2
:101DA00031C0893019F0893109F0CCC082E066E198
:101DB0000E94CB0B000000000000000000000000AB
:101DC0000000000000000000000000000000000013
:101DD00000000000B7C00E94800D82E066E10E9412
:101DE000CB0B00000000000000000000000000001D
:101DF00000000000000000000000000000000000E3
:101E00000000A0C082E069E00E94CB0B000000004F
:101E100000000000000000000000000000000000C2
:101E200000000000000000000000000081E06FE101
:101E300040E00E94630C8093EB24893009F08BC052
:101E400082E066E10E94CB0B000000000000000071
:101E50000000000000000000000000000000000082
:101E600000000000000000006DC0883009F454C07C
:101E7000893020F4863009F065C01BC0893021F01C
:101E8000863109F05FC015C082E069E10E94CB0B8A
:101E90000000000000000000000000000000000042
:101EA0000000000000000000000000000000000032
:101EB00049C082E069E00E94CB0B000000000000F6
:101EC0000000000000000000000000000000000012
:101ED0000000000000000000000081E06FE140E031
:101EE0000E94630C8093EB24893009F034C082E0B7
:101EF00069E10E94CB0B0000000000000000000020
:101F000000000000000000000000000000000000D1
:101F100000000000000016C00E94800D82E069E110
:101F20000E94CB0B00000000000000000000000039
:101F300000000000000000000000000000000000A1
:101F40000000000081E06FE140E00E94630C80939C
:101F5000EB248F31B9F31F910F9108958091D7240D
:101F6000882311F18091F5248823F1F4809167246E
:101F700090916824892B39F48AE90E949D0C809302
:101F80006724909368248091672490916824892B1A
:101F900059F01092D7248091EA24882311F086E02A
:101FA00001C086E10E949E0D8091DC24882351F0BF
:101FB00088ED94E260E070E00E945F0D009711F000
:101FC0000E940E108091F524823011F40E94551168
:101FD0000895982F6F3110F06EE103C0662309F465
:101FE00061E092959695969593708FEF989FC001BA
:101FF0001124262F30E0AC01429FC001439F900D79
:10200000529F900D11246AE570E00E94C42DCB010F
:102010006F3F710511F008F08FEF0895EF92FF9276
:102020000F931F93CF93DF937C01FC01C081D1817B
:10203000EA85FB8580818093ED24282F30E089019B
:102040000F5F1F4F0E0F1F1FF801808161810E94DB
:10205000E90FF8018083E982FA82CE010E94841997
:10206000DF91CF911F910F91FF90EF900895DF9234
:10207000EF92FF920F931F93DF93CF930F92CDB701
:10208000DEB7E0916724F0916824309709F451C0DD
:10209000E080F1808091EA24882341F086E060E8C6
:1020A00047E00E94630C882309F443C087E00E9444
:1020B000EA0BD82ECE01019661E00E940B0C6981DB
:1020C00067FD37C06D5F0AE910E0061B11090E0DB0
:1020D0001F1D6150C8010E940B0CF7010287138776
:1020E0008981080F111DF801D2828091E624909118
:1020F000E724A091E824B091E924F701868397832F
:10210000A087B187609167247091682488ED94E27C
:102110000E94CA0C8AE90E949D0C809367249093C8
:102120006824892B31F489E00E949E0D81E0809320
:10213000D7240F90CF91DF911F910F91FF90EF90D7
:10214000DF9008951F93182F8091E2249091E3244B
:1021500006960E948606112311F087E005C082E0F2
:1021600060EE45E00E94630C8093692482E08093D6
:10217000F5248091672490916824892B39F489E0B3
:102180000E949E0D81E08093D72403C086E10E94C7
:102190009E0D1F910895EF92FF920F931F93CF937F
:1021A000DF937C01EB01042F442331F08CE260EFDC
:1021B00044E02091E52404C08CE260EF44E020E09C
:1021C0000E94760CC230D10598F4002361F08CE2B5
:1021D0006EE041E02091DD240E94760C8FE260E009
:1021E0000E94CB0B16C08CE26EE041E027E00FC0EE
:1021F0006091E1246295607F8091E424682B8FE2F6
:102200000E94CB0B8CE26EE041E02091DD240E9425
:10221000760C89E10E949E0D8931D9F7809149069B
:102220008C7FE0E4F6E08187219759F48091ED24DA
:10223000833118F080E492E002C080E890E00E94D0
:10224000A70600E416E088E0F80185838683F7019D
:1022500060816150C7010E94420C81E08093F524A7
:10226000809149068360F8018187DF91CF911F91AA
:102270000F91FF90EF900895FC018091F524882341
:1022800011F086E80895E093E224F093E324828538
:1022900093858093EE249093EF24009711F488EEB9
:1022A00008950E94CB1080E00895CF93DF931092A1
:1022B000F524E091EE24F091EF248081282F30E086
:1022C000275F3F4F85E0220F331F8A95E1F7C091CA
:1022D000E224D091E324EA85FB85818185FF02C059
:1022E000205E3D4F40E050E08E819F81A885B985FA
:1022F000821B930BA40BB50B8E839F83A887B98792
:1023000080916924833071F0843028F4882331F07F
:10231000813061F405C0853049F406C080E007C013
:1023200087E805C081EE03C089EE01C085E8BE01E3
:102330000E947426DF91CF910895282F85FD03C058
:10234000982F9F7304C0982F91959F719195E8EEF7
:10235000F1E08491891734F03F968491981714F036
:10236000822F0CC0803E3CF080323CF487FF06C0D8
:102370008F71806203C080E201C08FE180680895A0
:1023800084E08093DD2423E02093E4248FEF9FEF0B
:102390008093D2249093D3248093D5249093D624F1
:1023A0008BE08093DF2480E098EFAFEFB7E080937D
:1023B000F0249093F124A093F224B093F32410928C
:1023C000D1248AE091E08093CF249093D0248AE0B6
:1023D0008093EC2482E08093DE2485E08093E124E6
:1023E0002093E52483E80E949D118093C62481E018
:1023F0008093D4241092E0241092EA24089585FD5D
:1024000003C0982F9F7304C0982F91959F71919549
:10241000E8EEF1E080E02491921724F029173CF4D3
:10242000815008958F5F31968031A9F780E008953B
:102430001F93CF93DF93EB01813569F0893519F054
:102440008E3439F504C088818093E52405C18881E4
:102450008093DD2401C12881211121E02093EA2409
:10246000222389F00E94B7158091672490916824F7
:10247000892B39F489E00E949E0D81E08093D72456
:10248000EBC086E08AC088E00E949E0D1092D7249F
:10249000E3C02091EB242F3011F481E8DEC08B30B3
:1024A00009F4CDC08C3078F4823009F490C08330C8
:1024B00020F4882309F445C015C0833009F495C081
:1024C000843081F46DC0833561F1843528F48F3414
:1024D00059F0803539F417C0873509F46BC0803F57
:1024E00009F48AC084EFB9C088818093E424909174
:1024F000E124981710F49093E4248FE26FE040E019
:102500002091E424A2C088819981682F8093D224ED
:102510009093D32482E20E94CB0B83E26091D32478
:102520000DC088819981682F8093D5249093D624FB
:1025300080E20E94CB0B81E26091D6240E94CB0BFB
:102540008BC08091F524882309F082C080E098EF49
:10255000AFEFB7E0088004C0B695A795979587952B
:102560000A94D2F781709070892B09F473C02830D7
:1025700011F418E006C088E00E949E0D8830D9F75B
:1025800016E128812093DF2488E06FE140E00E947B
:10259000760C183009F460C086E10E949E0D5CC084
:1025A0008091F524882309F053C08881882309F499
:1025B00053C050C028812093E1248091E42428173F
:1025C00010F42093E4248FE260EF44E03EC0888161
:1025D0008093C6240E949D118093C6240E94FF11FF
:1025E000282F85E06FE040E030C028812093D4247C
:1025F00088E060E645E029C088818093C72489810E
:102600008093C8248A818093C9248B818093CA24B3
:102610008C818093CB248D818093CC248E81809378
:10262000CD248F818093CE24C7ECD4E214E2812F95
:1026300069910E94CB0B1F5F1C32C9F70DC0288126
:102640002093E0248EE268E043E00E94760C04C010
:1026500086E803C088EE01C080E0DF91CF911F9132
:1026600008951F93CF93DF9382E26091D2240E945A
:10267000CB0B83E26091D3240E94CB0BC7ECD4E256
:1026800014E2812F69910E94CB0B1F5F1C32C9F7A6
:1026900080E26091D5240E94CB0B81E26091D62428
:1026A0000E94CB0B88E060E645E02091D4240E9494
:1026B000760C8FE26FE040E02091E4240E94760CDB
:1026C0008EE268E043E02091E0240E94760C8FE2E5
:1026D00060EF44E02091E1240E94760C88E06FE1F5
:1026E00040E02091DF240E94760C8091C6240E9455
:1026F000FF11282F85E06FE040E00E94760C80916A
:10270000EA24882319F086E00E949E0DDF91CF9184
:102710001F910895DF92EF92FF920F931F93DF9323
:10272000CF930F92CDB7DEB7D82E81E090E065E170
:1027300070E041E050E09E012F5F3F4F0E941E0677
:1027400000E416E088E0F80186838CE791E00E94BF
:10275000A706FF24F394F801F68281E090E00E943E
:10276000A706F801F58210E084E690E00E94A70633
:1027700081E06FE140E00E94630C1A3011F485E8BB
:102780003AC0883011F01F5FEFCF8093EB2429818E
:102790002223D1F182E16FE040E00E94760C34C048
:1027A00086E060E645E00E94630C9801220F331F2B
:1027B000220F331F082F10E0022B132BF394F8E0A5
:1027C000FF1671F783E00E949E0D8FE00E94EA0BD6
:1027D000E0E4F6E081E08487E186C8010E945A2E99
:1027E000DD2011F00E94C0110E9431131092F524D7
:1027F0001092D72480E00F90CF91DF911F910F911D
:10280000FF90EF90DF90089583E060E344E020E0E4
:102810000E94760C83E068E043E020E00E94760CA2
:1028200083E067E040E021E00E94760C8EE260E207
:1028300045E021E00E94760C8CE060E847E021E072
:102840000E94760C84E062E041E021E00E94760C78
:102850008EE06CE00E94CB0B8DE063E040E021E075
:102860000E94760C8AE06FE040E023E00E94760C44
:102870008DE068E043E021E00E94760C8DE064E0AA
:1028800042E021E00E94760C86E00E949E0DE090DE
:102890004906809149068C7FE0E4F6E0818700E0FC
:1028A00010E0FF247DCF1F930E948A13882361F0DC
:1028B00085E82DC088ED94E260E070E00E945F0D35
:1028C000009711F00E94950C8091DC24882391F7E9
:1028D0008AE895E10E945305E0E4F6E081E0848710
:1028E00080914906836081870E94552E682F192F99
:1028F0008DE20E94CB0B8EE267E040E0212F0E9428
:10290000760C80E00E94CA150E94B71580E01F91E6
:102910000895FF920F931F93CF93DF930E94720647
:10292000882309F0E7C000E416E0FF24F394F801DF
:10293000F58288E086838AE491E00E94A706F80188
:10294000F68281E090E00E94A706F801F58200E09F
:1029500004C00F5F0A3009F4CDC084E690E00E9405
:10296000A7068DE10E94EA0B823099F78CE10E9464
:10297000EA0B833071F782E068E00E94CB0B00E045
:1029800084E690E00E94A70681E06FE140E00E94AB
:10299000630C0A3009F4AEC0883011F00F5FF0CF3D
:1029A0008093EB2481E090E060E070E048E050E04C
:1029B00027EC34E20E941E0681E00E948A138823DD
:1029C00051F098C0C7ECD4E20E94552E8993F4E2EE
:1029D000CF3CDF07C9F78091C7243091C8244091CC
:1029E000C9246091CA247091CB24F091CC24B09179
:1029F000CD245091CE24182F115091E0181708F0D3
:102A000090E0832F815021E0831708F020E0092F08
:102A1000080F91E0081708F090E0292B842F8150CF
:102A200031E0841708F030E0A22FA80F91E0A8173A
:102A300008F090E0392B862F815021E0861708F0AE
:102A400020E0E32FE80F91E0E81708F090E0292B51
:102A5000872F815031E0871708F030E0622F680F30
:102A600091E0681708F090E0392B8F2F815021E01A
:102A70008F1708F020E0432F480F91E0481708F027
:102A800090E0292B8B2F815091E08B1708F090E07C
:102A9000322F380F21E0381708F020E0922B5195A3
:102AA000591779F43F3F69F44F3F59F46F3F49F4A8
:102AB000EF3F39F4AF3F29F40F3F19F41E3F08F000
:102AC00081CF8AE895E10E94530580914906836091
:102AD000E0E4F6E081870E94A40C8AE90E949D0C44
:102AE000809367249093682488ED94E20E94C30C3D
:102AF00080E001C085E8DF91CF911F910F91FF9099
:102B000008958FE00E94EA0B84FF03C081E0809368
:102B1000F424089586EE94E20E9486068FE00E94D7
:102B2000EA0B282F83FF0CC08091F524813029F413
:102B300026FF80E00E94A21008950E943710089599
:102B400082FF14C08DE060E847E00E94630C882398
:102B500039F48DE063E040E021E00E94760C0895B6
:102B60008DE063E040E022E00E94760C08958091C1
:102B7000EB248F3011F082E8089588E00E949E0DCA
:102B8000883011F085E8089581E090E00E94800689
:102B900080E00895882311F088EE08958091EB2459
:102BA0008F3011F481E808958091F524882391F401
:102BB0001092D72488E00E949E0D8830D9F780E0DB
:102BC00090E00E9480068FE00E949E0D8F3011F4ED
:102BD00080E0089586E80895982F8091F524882351
:102BE00011F086E80895983039F488E00E949E0D2F
:102BF0001092D72488E008958091672490916824EA
:102C0000892B59F08091EA24882311F086E001C0D5
:102C100086E10E949E0D86E0089581E08093D7248E
:102C200086E00895DC01ED91FC91119784E18083A9
:102C300063834183528389E595E2BD010E94CA0CFA
:102C400008950F931F93DF93CF930F920F92CDB7F9
:102C5000DEB7A0911225B0911325ED91FC9111974B
:102C600084E180838BEE83830FEF1FEF0183128358
:102C700089E595E2BD010E94CA0C109203250983E3
:102C80001A8380E5BE016F5F7F4F0E948022009310
:102C900014251093152510922225109223251092A9
:102CA0002425109225251092262510922725109272
:102CB0002825109229250E947A210F900F90CF91FC
:102CC000DF911F910F910895EF92FF920F931F9341
:102CD000E0901E25F0901F2580E061E040E020E0BC
:102CE00030E000E010E00E94B01C8823A9F4A0911D
:102CF0001225B0911325ED91FC91119784E1808309
:102D000081EE83838FEF9FEF8183928389E595E244
:102D1000BD010E94CA0C19C0A70160E070E084E008
:102D2000440F551F661F771F8A95D1F780E020E07A
:102D300030E001E216E1EE24FF240E94AE08882371
:102D400021F080E090E00E9421161F910F91FF90EA
:102D5000EF900895FF920F931F93DF93CF930F92FD
:102D60000F92CDB7DEB7F0904E250E94950CFF2054
:102D7000B1F583E56CE475E20E94802220914C2538
:102D800030914D2580913D258093222580913E25CF
:102D90008093232580913F25809324258091402591
:102DA0008093252580914125809326258091422579
:102DB0008093272580914325809328258091442561
:102DC0008093292581E080935525109203258091D9
:102DD0000D25833031F582E080930D2522C01092BD
:102DE00003250FEF1FEF09831A8380E5BE016F5F94
:102DF0007F4F0E9480220093142510931525109276
:102E00002225109223251092242510922525109218
:102E100026251092272510922825109229252FEF7C
:102E20003FEFE0911225F0911325A081B18184E15B
:102E30008C931396FC92139711962D933C931297B3
:102E400089E595E2BF010E94CA0C0E947A210F9089
:102E50000F90CF91DF911F910F91FF900895CF9226
:102E6000DF92EF92FF921F93DF93CF93CDB7DEB740
:102E70002F97CDBFDEBFAC017C01DE011196FC01B6
:102E8000808191819C01F9018FE001900D92815028
:102E9000E1F740931225509313259C81892F82508E
:102EA000823088F0D701ED91FC9184E1808388EE37
:102EB00083838FEF9FEF8183928389E595E2B7014A
:102EC0000E94CA0CACC0923019F48F8198851AC048
:102ED0008F818093222588858093232589858093FF
:102EE00024258A85809325258B85809326258C85AE
:102EF000809327258D85809328258E85809329258D
:102F00008EEF9FEF809314259093152580E5BE01E9
:102F10006B5F7F4F0E9480220E945521F701C08085
:102F2000D18081E0D6018C931196ED92FC9212979C
:102F3000F601EA56FF4F80838F8581839F012850D9
:102F40003040D901E7ECF4E288E001900D92815025
:102F5000E1F7F9018FEF9FEF929382938C8182309A
:102F600051F480911425909115259293829345E117
:102F700023E238EC11C0F9013A979F0142E255E291
:102F800088E0DA010D90AD01D9010D929D018150CB
:102F9000C1F74BE123E23CEC8091D2249091D32401
:102FA0009293829380910E2582938F5F80930E255A
:102FB000329322934293D6011A96ED93FC931B977A
:102FC00084E0BE016D5F7F4F0E948022182F80E059
:102FD000BE016E5F7F4F0E948022112371F488230F
:102FE00061F4C60162E070E041E00E943C11882378
:102FF00021F481E08093562512C0D701ED91FC9118
:1030000084E1808381EE83838FEF9FEF81839283BE
:1030100089E595E2B7010E94CA0C0E947A212F9699
:10302000CDBFDEBFCF91DF911F91FF90EF90DF907A
:10303000CF900895FC010190F081E02D62817381B1
:103040008181448125810E94C32D08950F931F9390
:103050008C01DC01ED91FC91818162810E9405036C
:10306000C8010E94950C1F910F910895AF92BF92D5
:10307000CF92DF92EF920F931F935C01DC01ED91F1
:10308000FC91048115812681378181816281438190
:10309000E08439966F010E94C12DC5010E94950CF4
:1030A0001F910F91EF90DF90CF90BF90AF90089558
:1030B0000F931F938C01DC01ED91FC9181810E94A3
:1030C000C02DC8010E94950C1F910F9108950F9378
:1030D0001F938C01DC01ED91FC9181810E947903A9
:1030E000C8010E94950C1F910F9108950F931F9393
:1030F0008C01DC01ED91FC9181810E94BF2DC80102
:103100000E94950C1F910F9108950F931F938C01AE
:10311000DC01ED91FC91818162813396AF010E94C7
:103120009F02C8010E94950C1F910F910895EF9284
:10313000FF920F937C01DC01ED91FC9121813281A2
:1031400043815481658176818781908501850E94C4
:10315000BD2DC7010E94950C0F91FF90EF9008952F
:103160000F931F93DF93CF93CDB7DEB72B97CDBFD0
:10317000DEBF8C01DC01ED91FC918281898383812A
:1031800094818A839B839E012C5F3F4FAF014B5FED
:103190005F4F88E0DA010D90AD01D9010D929D01DC
:1031A0008150C1F78181BE016F5F7F4F0E94BC2DAE
:1031B000C8010E94950C2B96CDBFDEBFCF91DF9149
:1031C0001F910F910895CF92DF92EF92FF920F938C
:1031D0006C01DC01ED91FC91BF016E5F7F4F208D92
:1031E000318DE38CF48C81814789028D0E94BA2D48
:1031F000C6010E94950C0F91FF90EF90DF90CF9049
:1032000008950F931F938C01DC01ED91FC91818156
:10321000928163810E94B82DC8010E94950C1F9174
:103220000F9108950F931F938C01DC01ED91FC9198
:103230002381348145815681818162810E94B72D2D
:10324000C8010E94950C1F910F9108958F929F9233
:10325000AF92BF92CF92DF92EF920F93DF93CF9313
:10326000CDB7DEB76697CDBFDEBF4C01DC01ED9177
:10327000FC9181818983828193818A839B839E01D2
:103280002C5F3F4FAF014C5F5F4F88E0DA010D903C
:10329000AD01D9010D929D018150C1F784858C87C4
:1032A000858596858D879E879E01215F3F4FAF0163
:1032B000415F5F4F88E0DA010D90AD01D9010D92B9
:1032C0009D018150C1F7268D378DA18CB28CC38CA6
:1032D000D48CCE010196BE01645F7F4F458D078976
:1032E000E08C0E945801C4010E94950C6696CDBFE7
:1032F000DEBFCF91DF910F91EF90DF90CF90BF9025
:10330000AF909F908F900895FC011082618172812F
:103310006115710521F089E195E20E94CA0C0895BA
:103320000F931F93CF93DF93282F80914C2590917B
:103330004D2596FFA3C0222359F420913B253091BF
:103340003C258091D2249091D3242817390761F02D
:1033500020913B2530913C2580911725909118258F
:103360002817390709F08AC020913D2530913E2564
:1033700080911425909115252817390709F47EC0EE
:1033800090913D2580912225981759F590913E25E1
:1033900080912325981729F590913F258091242528
:1033A0009817F9F490914025809125259817C9F434
:1033B0009091412580912625981799F49091422566
:1033C00080912725981769F49091432580912825AD
:1033D000981739F49091442580912925981709F47C
:1033E0004DC08AE90E949D0C8C01009709F446C0EB
:1033F000DC012D913C9185E0F901808301831283EA
:10340000E956FF4F8083AF0148505040FA01A7ECC6
:10341000B4E288E00D9001928150E1F7FA0138970B
:10342000EF01A2E2B5E288E00D9009928150E1F748
:103430008091D2249091D3249293829380910E25EF
:1034400082938F5F80930E2583E69CEC9293829308
:1034500088E18293D9011A96ED93FC931B97C901D9
:1034600062E070E041E00E943C11882321F481E099
:103470008093562503C0C8010E94950CDF91CF911F
:103480001F910F9108950F931F93CF93DF938C019A
:10349000DC01CD91DC91AA85BB857C9170932D25B3
:1034A000FD01E70FF11D4181409346258091EA24FB
:1034B0009D012F5F3F4F882371F1D801ED91FC9161
:1034C000268F378FAA85BB858C91858F108E8E8134
:1034D0009F81A885B985818F928FA38FB48F118228
:1034E0001282138214821582168217821086118628
:1034F000128613861486158616861786108A118AF8
:10350000128A138A148A158A168A478B81E180836E
:1035100089E595E280C111964D915C911297409397
:103520002A2550932B2513968C91139780932E2543
:10353000ED012496652F6295669566956370352F2B
:1035400036953695337019F4FE0120E049C0149683
:103550008D919C9115978093302590933125FD0195
:1035600036963230E1F410923225109233251092C3
:103570003425109235251092362510923725109259
:1035800038251092392516968D919C911797809326
:10359000322590933325FD01389624E021C0333045
:1035A00011F022E01DC016968C911697809332255B
:1035B0008181809333258281809334258381809318
:1035C00035258481809336258581809337258681B2
:1035D00080933825878180933925FD013E962AE026
:1035E000662309F447C046FD08C0819191918093FC
:1035F0003B2590933C252E5F08C08091302590910B
:10360000312580933B2590933C256230C1F4109284
:103610003D2510923E2510923F2510924025109294
:103620004125109242251092432510924425808115
:10363000918180933D2590933E252E5F1BC0633082
:10364000C9F4808180933D25818180933E258281CC
:1036500080933F25838180934025848180934125F9
:10366000858180934225868180934325878180933D
:103670004425285F972F9550921B90934B2560937C
:103680003A2530932F2543FD5CC1DE01A20FB11D09
:10369000842F877080932C25833021F48C91809324
:1036A000452563C0813009F451C0813020F083305A
:1036B00009F047C15AC08D919C91119780934C2578
:1036C00090934D2512968C91129780934E2587707A
:1036D00011F493E002C0982F9C5FFD01E90FF11DEA
:1036E000808180934F25292F2F5F382F377090E0EE
:1036F0008077907044E0959587954A95E1F7482F3B
:10370000332311F4882389F0CD01820F911D80931A
:10371000502590935125332311F0330F230F442369
:1037200021F0440F440F440F240F80914B2528179C
:1037300050F4821B80935225A20FB11DA0935325F4
:10374000B093542502C110925225FFC0992351F025
:10375000963718F086E780934B25A0934C25B093BD
:103760004D25F3C010924B25F0C080914525843043
:1037700009F4EBC0853030F4823059F0833009F021
:10378000E0C014C0873009F4E0C0883009F0D9C027
:1037900012C011968D919C91129780934C25909315
:1037A0004D2513968C9180934E25CFC011968C9108
:1037B00080934C25CAC011968D919C91129780934D
:1037C0004C2590934D2513968D919C911497809341
:1037D0004E2590934F2515968C91159780935025E3
:1037E00016968D919C911797809351259093522511
:1037F00054FFABC018968C9180935325A6C080913E
:103800002C25833061F480914525843011F0873078
:1038100031F489E195E2B8010E94CA0C9CC0809104
:103820000325813009F478C0813020F0843008F01D
:1038300088C059C080910C25882351F59091552559
:10384000923008F07EC080912C25813009F475C03B
:10385000813020F0833009F074C00CC0809158256D
:10386000882309F46EC0992309F46BC080E00E949C
:10387000901967C080914525833009F040C0C80188
:103880000E94C41D80915525813009F064C03DC05F
:103890008330D1F0843019F0823009F052C0809129
:1038A0002C25882309F04DC080915825882341F0AC
:1038B000809155258150823018F481E00E94901942
:1038C000C8010E943D2547C080912C258330C9F551
:1038D000809145258830A9F581E00E949F07C801A5
:1038E0000E94B22838C00E94B22480912C258130D9
:1038F00021F1833031F580914525833019F08830EE
:1039000001F506C0C8010E94C41D0E94282223C0E0
:10391000C8010E94A42B1FC080912C25833059F42C
:1039200080914525823069F480E00E949F07C8019C
:103930000E94AA1610C0813021F4C8010E94DF1E27
:103940000AC0C8010E94950C06C0809156258823A4
:1039500009F055CF64CFDF91CF911F910F9108955A
:103960006F927F929F92AF92BF92CF92DF92EF922F
:10397000FF920F931F93CF93DF93D82E962EC42ED2
:10398000590138018AE90E949D0C7C01009709F4D5
:103990009BC0DC010D911C91DD2021F084E0F80139
:1039A000808303C08BE0D8018C93F801E182F2821E
:1039B000E956FF4F84E080832091D5243091D624AE
:1039C000C9010296029710F0992069F03897EF012B
:1039D000A7ECB4E288E00D9009928150E1F762E132
:1039E00083E290EC05C0329322936CE083E290E88E
:1039F000CC2061F02091D2243091D324621673063A
:103A000029F06E5F3293229370E002C0806471E00F
:103A100022E0C21641F4AC015860D5018D919C9111
:103A20009293829328C0B3E0CB1661F4AC015C6042
:103A300038976A5FEF01D50188E00D9009928150B7
:103A4000E1F719C020911425309115254FEF2E3F35
:103A5000340729F0AC015860329322930CC0AC01BA
:103A60005C6038976A5FEF01A2E2B5E288E00D90F2
:103A700009928150E1F73297772339F08091D2246F
:103A80009091D3248083918302C06082718280915F
:103A90000E2582938F5F80930E25529342936293FB
:103AA000D8011A96ED93FC931B97C80162E070E071
:103AB00041E00E943C11882321F481E08093562547
:103AC00004C0C7010E94950C80E0DF91CF911F9147
:103AD0000F91FF90EF90DF90CF90BF90AF909F90AD
:103AE0007F906F900895EF92FF920F931F93CF9363
:103AF000DF937C01E801DC01ED91FC9186E180839C
:103B00006183428323833483CF010596423069F475
:103B100015821682178210861186128613861486E5
:103B2000888199818583968307C0DC01F80188E04C
:103B300001900D928150E1F789E595E2B7010E946D
:103B4000CA0CDF91CF911F910F91FF90EF900895D4
:103B50000F931F93AC018091D5249091D6240296A7
:103B60002091D2243091D324029728F4CA0143E053
:103B700007EC14E204C0CA0142E005ED14E20E9421
:103B8000731D1F910F910895CF93DF939C01FC014A
:103B9000C081D181FE0185E18193ADE3B5E288E08A
:103BA0000D9001928150E1F780914C25898789E53C
:103BB00095E2B9010E94CA0C109222251092232589
:103BC0001092242510922525109226251092272543
:103BD00010922825109229258FEF9FEF80931425AE
:103BE00090931525DF91CF9108950F931F93DF9345
:103BF000CF93CDB7DEB72E97CDBFDEBF8C01DC01F2
:103C00004D915C91DE011196FA018EE001900D92CA
:103C10008150E1F72B813C818091D2249091D32473
:103C20002817390749F0C80168EE4A818E010B5FF9
:103C30001F4F0E94731D66C0FA010183128383E047
:103C40008083EA56FF4F80838D85818338979F015B
:103C500067EC74E288E0DB010D90BD01D9010D92A3
:103C60009D018150C1F78A81823031F48D819E811E
:103C70009293829333E10FC038979F01BE016B5F2F
:103C80007F4F88E0DB010D90BD01D9010D929D01B0
:103C90008150C1F739E18091D2249091D32492933D
:103CA000829380910E2582938F5F80930E252A81C7
:103CB000922F990F990F80E08366906C9293829374
:103CC0003293DA011A96ED93FC931B970E945521CB
:103CD000F8018081918162E070E041E00E943C1136
:103CE000882321F481E0809356250CC02B813C81F0
:103CF000C80161EE4A818E010B5F1F4F0E94731D48
:103D00000E947A212E96CDBFDEBFCF91DF911F9109
:103D10000F910895DC01ED91FC911197E081E4325F
:103D200078F4F0E0EE0FFF1FE850FE4F259134913C
:103D30002115310519F0F901199508950E94950C86
:103D400008951F9380915625882381F480910B2537
:103D5000882361F087E095E260E070E00E945F0DEB
:103D6000009721F00E948A1E11E001C010E08091AE
:103D70001D25882359F089E195E260E070E00E94FA
:103D80005F0D009719F00E948A1E11E0812F1F918C
:103D900008950F931F93DC01ED91FC91119780E141
:103DA000808341836283038314832583368389E57B
:103DB00095E2BD010E94CA0C1F910F9108950F93C7
:103DC0001F93DF93CF93CDB7DEB72897CDBFDEBF6C
:103DD000AC01DC019C9111962C9180914B2588239C
:103DE00021F4CA010E94950C1AC1E92FF22F80918B
:103DF0002E25808F8091472590914825A0914925B7
:103E0000B0914A25818F928FA38FB48F20913A254C
:103E1000218380913B2590913C2582839383822F3F
:103E20008250823010F51482158216821782108615
:103E3000118612861386223039F480913D259091A7
:103E40003E25848395831BC02330C9F49F012C5FDA
:103E50003F4F6DE375E288E0DB010D90BD01D901B4
:103E60000D929D018150C1F70AC012821382148203
:103E70001582168217821086118612861386208D6F
:103E80008091F624281761F594818091F924981780
:103E900039F595818091FA24981711F596818091D2
:103EA000FB249817E9F497818091FC249817C1F4BA
:103EB00090858091FD24981799F491858091FE2436
:103EC000981771F492858091FF24981749F493858F
:103ED00080910025981721F4CA010E94950C5AC0C0
:103EE0002093F62484818093F92485818093FA2499
:103EF00086818093FB2487818093FC248085809336
:103F0000FD2481858093FE2482858093FF24838510
:103F10008093002520912F2524871786108A118AE7
:103F2000128A138A148A158A168A809130259091F4
:103F3000312585879687233079F49F01215F3F4F94
:103F400062E375E288E0DB010D90BD01D9010D92BD
:103F50009D018150C1F70BC0223039F48091322588
:103F6000909133258787908B02C0158616868091A5
:103F70004625878B80914B25858F80914C2590918C
:103F80004D25868F978F81E1808389E595E2BA017F
:103F90000E94CA0C80912A2584FF41C080913A2555
:103FA000823071F480913D2590913E2589839A83DA
:103FB00000913B2510913C2580E060E042E021C06B
:103FC000833019F580913D25898380913E258A8330
:103FD00080913F258B83809140258C838091412562
:103FE0008D83809142258E83809143258F8380919C
:103FF0004425888700913B2510913C2580E060E0B6
:1040000043E09E012F5F3F4F07C080E060E040E04B
:1040100020E030E000E010E00E94B01C02C00E94EE
:104020007A212896CDBFDEBFCF91DF911F910F91EE
:104030000895CF92DF92EF92FF920F931F93DF9339
:10404000CF93CDB7DEB76497CDBFDEBF8C01DE0165
:104050001396FC01808191819C01F90182E101901C
:104060000D928150E1F7898982FD11C0809103256D
:10407000882321F480910C25882349F09889D80160
:10408000ED91FC9180E18083918381EEDFC02885F2
:10409000398529833A83898980FF06C08D818230E2
:1040A00019F42F5F3F4FA1F08C81882361F48D813B
:1040B000882359F49889D801ED91FC9180E180839F
:1040C000918385EFC3C0813019F08D81813049F42F
:1040D0009889D801ED91FC9180E18083918388EEED
:1040E000B5C0F801C080D1808DE0D6018C9388895D
:1040F00013968C938A8945E0F42EF80EE8E9F0E0F7
:10410000E81BF109EC0DFD1D9C81923051F437E064
:10411000F32EF80E8091D5249091D6249293829319
:1041200012C0933081F438972DE0F22EF80E9F01E3
:1041300047EC54E288E0DA010D90AD01D9010D920F
:104140009D018150C1F72091D2243091D3248E81DA
:104150009F812817390749F48C81882331F08D819C
:10416000882319F040E450E009C08C81882321F0B5
:10417000B2E0FB0E3293229340E050E08D81882321
:1041800011F1823039F46F2D6E5F88859985929395
:10419000829312C038976F2D685F9F0198E0E92ED7
:1041A000F12CEC0EFD1E88E0D7010D907D01D901A8
:1041B0000D929D018150C1F782E0F82EF60E8E819E
:1041C0009F819293829380910E2582938F5F80933B
:1041D0000E25BA016160898980FF02C0BA0161625F
:1041E0008A89873608F070618D81382F330F330F3D
:1041F00020E04C81942F9295990F990F907C80E04C
:10420000282B392B262B372B329322933296F7FC0F
:1042100015C03397F082D6011A96ED93FC931B9745
:104220000E945521F60101831283C60162E070E00D
:1042300041E00E943C118823A1F017C09889D80161
:10424000ED91FC9180E18083918385EE82831382DE
:1042500014821582168289E595E2B8010E94CA0C83
:1042600018C081E08093562514C09889D801ED913B
:10427000FC9180E18083918381EE8283138214829A
:104280001582168289E595E2B8010E94CA0C0E9447
:104290007A216496CDBFDEBFCF91DF911F910F9140
:1042A000FF90EF90DF90CF90089580915725813057
:1042B00051F40E94B715853831F081E090E00E94FA
:1042C000800610925725089580915725882389F4F8
:1042D00080E090E00E94800680E00E94CA1588235A
:1042E00021F481E080935725089581E090E00E94B9
:1042F000800608958091F724882331F48091162553
:10430000882311F40E94642108950F931F93182F9E
:1043100010925625109255251092572510920C2573
:1043200010920D25109203251092F6248FEF8093A2
:10433000F9248093FA248093FB248093FC248093B7
:10434000FD248093FE248093FF2480930025109207
:10435000162588E00E94EC150FB7F89480E00E94C3
:104360009F0781E00E949F0782E00E949F070FBF86
:10437000112391F11092582582EC97E08093052546
:104380009093062580E098E780931E2590931F2543
:104390001092022581E08093042586E08093F82422
:1043A0001092222510922325109224251092252563
:1043B0001092262510922725109228251092292543
:1043C0008FEF9FEF80931425909315250E94552E13
:1043D00080930E251092F7241F910F9108950F934B
:1043E0001F93CF93DF93EC01088119810E9455211F
:1043F000F801018180E090E00E94800680E00111D8
:1044000081E00E945314182F81E090E00E94800602
:10441000802F0E9485210E947A2187E095E20E94E8
:104420006B0D89E195E20E946B0D89E595E20E9492
:104430006B0DE881F981118380E2808389E595E243
:10444000BE010E94CA0CDF91CF911F910F91089578
:10445000DF93CF9300D00F92CDB7DEB70E945521E6
:104460008FEF9FEF89839A838B839C8383E5BE01C3
:104470006F5F7F4F0E94802280E5BE016D5F7F4F9E
:104480000E94802281E00E9485210E947A21249648
:10449000CDBFDEBFCF91DF9108950E94891488239C
:1044A00099F40E94390A882379F081E00E948521DD
:1044B0000E947A2187E095E20E94C30C89E195E28F
:1044C0000E94C30C80E0089585E80895E82F8830A5
:1044D00030F4E82FF0E0E05CFD4F849108958054C3
:1044E000803228F4F0E0E85FFD4F84910895E03FCA
:1044F00010F480E00895F0E0E858FE4F84910895AC
:104500001F93CF93DF93182FEB01809157258130B4
:1045100051F40E945521812FBE010E941812182FBC
:104520000E947A2104C0812F0E941812182F812F17
:10453000DF91CF911F910895FF920F931F93CF9317
:10454000DF93182FEB01F42E823518F58E3408F026
:1045500084C0833409F481C0843460F4853038F435
:10456000823008F07AC0882309F477C02AC08234E8
:1045700041F537C08A34E9F18B3428F48434A9F149
:104580008734F9F46AC08B3409F44CC08C34C9F414
:1045900050C0873509F461C0883548F4853520F46A
:1045A000833508F05AC049C0863559F40CC08935A6
:1045B00009F453C0893558F08A3561F0803F09F419
:1045C0004CC004EFABC0888180935825A6C0888179
:1045D00099819FC08881998180931E2590931F2582
:1045E0009CC088818093042598C088818093F8249A
:1045F00094C08881809322258981809323258A8194
:10460000809324258B81809325258C81809326257A
:104610008D81809327258E81809328258F8180939B
:1046200029257BC088819981809314259093152535
:1046300074C0888180930E2570C06881611161E02B
:104640006093F724662331F00E94552186E00E9492
:10465000EC1563C00E947A2160C0812FBE010E94C8
:104660001812082F813871F40E94B715812FBE01EE
:104670000E941812082F882309F050C081E080930F
:104680006A2403C0882309F049C08091DD24282FC3
:1046900030E08091E124482F50E06091E424CA0189
:1046A000861B9109281739070CF4C901A82F281B6C
:1046B000310981E090E002C0880F991F4A95E2F726
:1046C0000197289FA001299F500D389F500D11245C
:1046D00020E030E070E0E1E0F0E00DC0C901860FBD
:1046E000971FEF0102C0CC0FDD1F8A95E2F74C0F38
:1046F0005D1F2F5F3F4F2A1788F384E190E09C01F4
:10470000429FC001439F900D529F900D1124865FE0
:104710009E4F809305259093062500E0FF2049F0E9
:1047200080916A24882329F080E00E94CA151092A3
:104730006A24802FDF91CF911F910F91FF900895F0
:10474000EF92FF920F931F937C01FC010081118176
:10475000B8016E5F7F4FF801818141E00E949C2289
:10476000F801918192839FE19083818389E595E2AD
:10477000B7010E94CA0C1F910F91FF90EF9008950E
:10478000CF93DF93AC01DC01ED91FC919F012D5F94
:104790003F4F81818E3409F48FC08F3458F58530B6
:1047A00009F468C0863090F4823009F4B3C08330D5
:1047B00038F4882309F49EC0813009F040C09DC0C0
:1047C000833009F4AAC08430D1F551C0823409F491
:1047D0005CC0833430F4863009F451C0873079F5F9
:1047E00051C08B3409F460C08C3409F462C08A343F
:1047F00031F551C0863529F1873588F4813509F4C2
:1048000047C0823530F48F3409F459C08035B9F48B
:1048100059C0823509F45BC0833589F45BC08935A2
:10482000D9F08A3528F4873579F0883541F40FC0FE
:104830008D35D1F0803F09F454C08A3581F094EF72
:1048400070C0809158256BC08091E12468C0809130
:1048500005259091062542C08091E52460C0809195
:104860001E2590911F253AC08091022558C0809145
:10487000D12455C08091CF249091D0242FC0809115
:10488000EC244DC08091DE244AC08091042547C0AD
:104890008091EA2444C0E901A2E2B5E288E00D90EB
:1048A00009928150E1F73CC0809114259091152523
:1048B00015C080910E2533C08091DD2430C08091D9
:1048C000E4242DC08091D2249091D32407C08091FC
:1048D000F72425C08091D5249091D6248383948396
:1048E0001FC0E901A7ECB4E288E00D900992815065
:1048F000E1F716C08091DF2412C08091F0249091DE
:10490000F124A091F224B091F32483839483A583AE
:10491000B68306C08091C62402C08091D4248383CC
:1049200090E0818182838EE18083918389E595E2A5
:10493000BA010E94CA0CDF91CF910895CF93DF9303
:10494000EC01E881F98183E280836183662311F0C1
:104950000E947A2189E595E2BE010E94CA0CDF918E
:10496000CF91089580912C258823E1F080E00E946A
:104970009F0780912C25813031F480914B2588232D
:1049800011F060E001C06BEE80910325823031F4BC
:1049900080911225909113250E949E2410925625F5
:1049A00010920325089580910325823039F4809177
:1049B0001225909113256BEE0E949E2410920325E0
:1049C000109256250895CF92DF92EF92FF920F93A7
:1049D0001F93DF93CF93CDB7DEB72897CDBFDEBF50
:1049E000D82EC92E809103258823B1F580910C25FE
:1049F000882391F50E945521ED2CFC2CD701ED91D7
:104A0000FC9181819F012C5F3F4F823031F4848182
:104A1000958189839A8342E00DC0AE014F5F5F4F5D
:104A200088E0D9010D909D01DA010D92AD01815010
:104A3000C1F743E00281138181E060E09E012F5FB6
:104A40003F4F0E94B01C882329F0D0921225C092BB
:104A5000132507C0C70102C08D2D9C2D61EE0E9459
:104A60009E242896CDBFDEBFCF91DF911F910F917D
:104A7000FF90EF90DF90CF9008955F926F927F92BA
:104A80008F929F92AF92BF92CF92DF92EF92FF925E
:104A90000F931F93DF93CF93CDB7DEB76597CDBF4D
:104AA000DEBFBC0140910C25423011F0443069F466
:104AB00080910425882349F0E0911225F091132577
:104AC00020813181F901399604C0E0E0F0E020E076
:104AD00030E050913A25598300913B2510913C25B7
:104AE0000A831B83523069F41E821F82188619863E
:104AF0001A861B8680913D2590913E258C839D834F
:104B000018C080913D258C8380913E258D838091B6
:104B10003F258E83809140258F8380914125888712
:104B2000809142258987809143258A8780914425F9
:104B30008B877090DF247C86A090D124AD868091F5
:104B40004C2590914D258E879F87188A80914E2500
:104B500087FF02C081E0888B80914625898B8091F8
:104B6000472590914825A0914925B0914A258A8BE7
:104B70009B8BAC8BBD8B423019F0443009F052C096
:104B800080910425882309F44DC0D9011896FC9022
:104B9000AC81BD815C806D808E809F80B884C9842B
:104BA000DA84EB8440E030C08181928108171907D4
:104BB00049F58081581731F58385781619F5848574
:104BC000A81601F5523031F483819481A817B907F2
:104BD000C9F428C083818515A9F48481861591F4D0
:104BE0008581881579F48681891561F487818B1513
:104BF00049F480858C1531F481858D1519F48285F1
:104C00008E1581F04F5F75964F1570F255C0DE011D
:104C1000119685E10D9001928150E1F7F9018085AF
:104C20008F5F808790914F2580915225882321F4B2
:104C3000809104258823E1F5DB01ED91FC9187E16A
:104C4000808380912E2581839F012E5F3F4FAE018F
:104C50004F5F5F4F85E1DA010D90AD01D9010D92F3
:104C60009D018150C1F780914F25878B892F8770D7
:104C700059F4892F90E08077907024E0959587957E
:104C80002A95E1F7882331F08091502590915125A4
:104C9000808F918F80915225828F809153259091A2
:104CA0005425838F948F89E595E20E94CA0C09C030
:104CB000CB010E94950C05C0B4E0BF1508F4B2CF3B
:104CC000A6CF6596CDBFDEBFCF91DF911F910F912B
:104CD000FF90EF90DF90CF90BF90AF909F908F901C
:104CE0007F906F905F900895EF92FF920F931F93C4
:104CF000CF93DF93F82EEB011092562580910C256F
:104D0000823021F48881873051F405C0833039F432
:104D10008881863021F48F2D0E94042BAEC08881BB
:104D2000843009F457C0853030F4813029F1833064
:104D300009F0A1C014C08B3009F44CC08D3021F0B3
:104D4000853009F098C090C00E811F812885398573
:104D500089819A816F2D4B810E94C91E8CC08981E7
:104D60009A816F2D0E94A81D80915525813009F0F0
:104D700082C00E9428227FC099EEF91619F091EEA8
:104D8000F91641F489819A816F2D4FEF5FEF0E94F0
:104D9000121671C08093032540911E2550911F2546
:104DA00060E070E094E0440F551F661F771F9A95EE
:104DB000D1F780E020E030E004E616E1EE24FF24A5
:104DC0000E94AE08882309F458C080E090E00E9459
:104DD000641653C089819A810E94950C80910325A5
:104DE000813009F44AC088818430A9F487E8F81634
:104DF00081F0E0911225F0911325A081B18183E229
:104E00008C931196FC9289E595E2BF010E94CA0C31
:104E100032C082E007C099EEF91669F181EEF8160A
:104E200051F183E08093032540910525509106259B
:104E300060E070E084E0440F551F661F771F8A957D
:104E4000D1F780E020E030E003ED14E2EE24FF240F
:104E50000E94AE0891E090935625882371F080E07F
:104E600090E00E94D32409C089819A810E94950C08
:104E70008EEE0E945F2B0E947A21DF91CF911F91CD
:104E80000F91FF90EF900895EF92FF920F931F9371
:104E9000109216258091F7248823C9F48091572514
:104EA0008823A9F488E00E94EC15883071F082E034
:104EB00040E850E060E070E020E030E004E417E219
:104EC000EE24FF240E94AE0802C00E947A211F91A6
:104ED0000F91FF90EF900895DF92EF92FF920F9362
:104EE0001F93CF93DF93EC01E881F981E680F7808F
:104EF00000851185E114F1040105110539F480E004
:104F000090E00E944427E881F98147C08091032501
:104F10008823F1F580910C258823D1F50E94552135
:104F200086E00E94EC15D82E81E08093162582E061
:104F30000E94D106882319F082E00E949F0784E036
:104F4000EE0CFF1C001F111F8A95D1F782E0B801FB
:104F5000A70120E030E004E417E2EE24FF240E94E1
:104F6000AE08882381F0E881F98181E2808388EEB0
:104F7000818389E595E2BE010E94CA0C80E090E041
:104F80000E94442712C0E881F98186E0D81629F0F2
:104F900081E2808382EF818303C081E2808311827A
:104FA00089E595E2BE010E94CA0CDF91CF911F9165
:104FB0000F91FF90EF90DF900895BC0189E595E295
:104FC0000E94CA0C809101258093712484E061E7DE
:104FD00074E20E948022809111258093702480E0E9
:104FE00060E774E20E94802210920C250E947A21D0
:104FF0000895CF93DF93E0912025F0912125C08182
:10500000D181DE01A956BF4FE983FA83882339F0A5
:1050100087E088838C9323E038E04AE013C086E081
:1050200088838C9318979D0147EC54E288E0FA013D
:105030000190AF01F90101929F018150C1F723E472
:1050400038EC42E1FD018FEF9FEF9293829332970C
:1050500080839183159780910E258C938F5F809329
:105060000E253E932E93FD014293EA87FB87CE01E6
:1050700062E070E040E00E943C11882311F080E083
:1050800003C081E080935625DF91CF910895EF9280
:10509000FF920F931F93DF93CF930F92CDB7DEB79D
:1050A00090910C25933009F443C0943041F0923034
:1050B00009F050C0882309F048C081E03BC0882334
:1050C00009F043C086E00E94EC15863021F540ECE3
:1050D00053E060E070E00090722404C0440F551F5C
:1050E000661F771F0A94D2F740545C4F6F4F7F4F73
:1050F00084E0440F551F661F771F8A95D1F781E022
:1051000020E030E004ED19E2EE24FF240E94AE0816
:10511000882301F113C0809170248F5F80937024E5
:10512000609112257091132582E00E940A2912C015
:10513000882359F40E94F927882361F481E0898348
:10514000CE0101960E94D42905C0809170248F5F02
:10515000809370240F90CF91DF911F910F91FF905A
:10516000EF9008950F931F938C01809120259091CB
:1051700021250E94950C1092202510922125A091A6
:105180001225B0911325ED91FC9111978BE180834D
:10519000118283E082831482158216821782108620
:1051A00089E595E2BD010E94CA0C10920C250E946F
:1051B0007A21C8010E94950C80E56CE475E20E949A
:1051C000802280915125909152258F5F9F4F29F029
:1051D00083E561E575E20E94802280914E259091E1
:1051E0004F25809314259093152580912A25909121
:1051F0002B2594FF05C084E063E575E20E948022C0
:1052000080E060E575E20E9480220E9447281F919D
:105210000F910895EF92FF921F93CF93DF93182F72
:105220007B01FB01C081D18184E061E774E20E94CF
:10523000802240910C25509104252091702455C066
:10524000423011F0443031F4552321F08885853007
:1052500008F04EC0133021F48885882309F087C0F8
:10526000322F3F5F8C819D81AE81BF81022E04C0B1
:10527000B695A795979587950A94D2F78170907007
:10528000892B91F120937024113011F482E003C036
:10529000123021F484E080930C2504C0133011F403
:1052A00010930C2580E060E774E20E948022182FA2
:1052B0008823B1F080912025909121250E94950CA2
:1052C00010922025109221250E947A218AEE89834E
:1052D000188689E595E2B7010E94CA0C10920C2548
:1052E000812F0E9447285AC0232F2B3108F4A8CFC2
:1052F00020937024123041F11330D9F1113009F0AC
:105300004DC080912025909121250E94950C1092EE
:1053100020251092212580910425882339F0888545
:10532000853010F08AEF05C0882311F0198202C081
:105330008AEE898380E567E175E20E948022809190
:1053400012259091132528C0552339F08885853082
:1053500010F08AEF05C0882311F0198202C08AEE8E
:10536000898380E567E175E20E94802214C0209362
:10537000702480912025909121250E94950C1092F7
:105380002025109221258885882311F0198202C0DA
:105390008AEE89831886C7010E94DD27DF91CF91AD
:1053A0001F91FF90EF900895CF93DF93C091122546
:1053B000D09113259881298180910C2582508330CA
:1053C00020F5E92FF22F21E030E040E050E000909E
:1053D000702404C0220F331F441F551F0A94D2F7B4
:1053E000209530954095509584819581A681B7810F
:1053F00082239323A423B52384839583A683B78331
:1054000080916B24BE010E940A29DF91CF910895FB
:10541000CF92DF92EF92FF920F931F93DF93CF9380
:105420000F920F92CDB7DEB7D82EC92E082F192FA5
:10543000D801ED91FC918091DF248093112580911A
:10544000D124809301258681809372248181809369
:105450006B2482819381A481B58180936C24909385
:105460006D24A0936E24B0936F2427812093712420
:10547000D0921225C09213258BE1808380916B24FA
:10548000828380916C2490916D24A0916E24B091C0
:105490006F2484839583A683B78323831086118624
:1054A000809103258823F9F480910C258823D9F471
:1054B00080916C2490916D24A0916E24B0916F2402
:1054C0000097A105B10579F09770A070B87F00979B
:1054D000A105B10541F4809172248F3020F48091B0
:1054E0006B24882341F488EE818389E595E2B80135
:1054F0000E94CA0C7EC00E945521F801E080F18014
:105500008BE08093702480916B24813008F466C016
:10551000833020F0833009F061C04BC08FEF9FEFE4
:1055200089839A838091D2249091D32480931725E4
:105530009093182580E5BE016F5F7F4F0E94802207
:1055400080916B24813021F4D0922025C0922125B6
:105550008AE90E949D0C8093122590931325009751
:10556000E9F180916B24823019F4C8010E94950CF6
:105570002091122530911325D901ED91FC918BE1F9
:10558000808380916B2482838091712483838091B6
:105590006C2490916D24A0916E24B0916F2484832B
:1055A0009583A683B7831086118680916B24B901F9
:1055B00012C08AE90E949D0C80932025909321259A
:1055C000009721F488EEF70181830CC060911225C9
:1055D0007091132583E00E940A290BC088EED70141
:1055E00011968C9389E595E2B8010E94CA0C0E943D
:1055F0007A210F900F90CF91DF911F910F91FF9023
:10560000EF90DF90CF900895EF92FF920F931F934A
:10561000DF93CF930F92CDB7DEB790910E259F5FAA
:1056200090930E258823B1F580910C25823091F45A
:1056300040EC53E060E070E00090722404C0440F3E
:10564000551F661F771F0A94D2F740545C4F6F4F67
:105650007F4F07C080911E2590911F25AC0160E00F
:1056600070E094E0440F551F661F771F9A95D1F79D
:1056700081E020E030E004ED19E2EE24FF240E94F6
:10568000AE088823A1F081E08983CE0101960E94B3
:10569000D4290DC0809170248F5F80937024609115
:1056A00012257091132580916B240E940A290F9076
:1056B000CF91DF911F910F91FF90EF90089527E711
:1056C00034E220937324309374249DE190937724E3
:1056D0008093782480910C25882379F08091172578
:1056E000909118258093792490937A2480911125A4
:1056F00080937B24809101250EC08091D2249091CB
:10570000D3248093792490937A248091DF2480930A
:105710007B248091D12480937C2489E595E263E702
:1057200074E20E94CA0C80915525823050F4809119
:105730000C25882331F480910325882311F40E94DD
:105740007A2110920D2508950F931F938C018FEEEF
:105750000E945F2BC8010E94950C80E56CE475E205
:105760000E94802280915125909152258F5F9F4FFA
:1057700029F083E561E575E20E94802280914E2543
:1057800090914F25809314259093152580912A257B
:1057900090912B2594FF05C084E063E575E20E949B
:1057A000802280E060E575E20E9480221F910F91C7
:1057B0000895CF93DF93EC018AE90E949D0CBC0110
:1057C000009711F480E025C0DC01ED91FC918EE0A2
:1057D00080838881818389819A8182839383888170
:1057E0009F012C5F3F4FAE014D5F5F4F823029F428
:1057F0008B819C818483958307C0D901FA0188E05D
:1058000001900D928150E1F787E095E20E94CA0C69
:1058100081E0DF91CF910895BF92CF92DF92EF9216
:10582000FF920F931F93182F6A017B01B22E8AE912
:105830000E949D0CDC01009711F480E012C0ED91F4
:10584000FC9111978BE080831183C282D382E48222
:10585000F582B682078387E095E2BD010E94CA0CFB
:1058600081E01F910F91FF90EF90DF90CF90BF905C
:1058700008957F928F929F92AF92BF92CF92DF92C4
:10588000EF92FF920F931F93782E6A017B014801DC
:1058900059018AE90E949D0CDC01009711F480E017
:1058A00014C0ED91FC9111978AE080837182C282CD
:1058B000D382E482F58286829782A086B18687E0D1
:1058C00095E2BD010E94CA0C81E01F910F91FF90EB
:1058D000EF90DF90CF90BF90AF909F908F907F9090
:1058E00008951F93182F8AE90E949D0CDC010097F0
:1058F00011F480E00CC0ED91FC91119788E0808359
:10590000118387E095E2BD010E94CA0C81E01F91DE
:1059100008951F93182F8AE90E949D0CDC010097BF
:1059200011F480E00CC0ED91FC91119789E0808327
:10593000118387E095E2BD010E94CA0C81E01F91AE
:1059400008950F931F93CF93DF93EC01162F042F2D
:105950008AE90E949D0C9C01009711F480E01FC011
:10596000DC01ED91FC9185E080831487888181833F
:1059700089819A8182839383AF014C5F5F4FDE01FF
:10598000139688E00D90EA010992AE018150D1F79B
:10599000058787E095E2B9010E94CA0C81E0DF919A
:1059A000CF911F910F910895FF920F931F93CF9363
:1059B000DF93182FF62EEA01022F8AE90E949D0C30
:1059C0009C01009711F480E020C0DC01ED91FC9176
:1059D00081E0808311838881838389819A81848394
:1059E0009583AF014A5F5F4FDE01139688E00D900B
:1059F000EA010992AE018150D1F70687F28287E071
:105A000095E2B9010E94CA0C81E0DF91CF911F910C
:105A10000F91FF9008958F929F92AF92BF92CF9275
:105A2000DF92EF92FF920F931F93CF93DF93B82EE5
:105A30006B01F42E922E832EA02E86E7841708F495
:105A40003FC08AE90E949D0C8C010097C9F1DC01DE
:105A5000ED91FC9183E08083B182D6012C91228369
:105A600011968D919C9112978383948322502230BA
:105A700080F415821682178210861186128613868C
:105A80001486EF012596139688E00D9009928150B7
:105A9000E1F7A586E686F78628E930E02F19310977
:105AA0002E0F3F1FC901692D782D4F2D50E00E9408
:105AB0008C2E87E095E2B8010E94CA0C81E001C0FB
:105AC00080E0DF91CF911F910F91FF90EF90DF90D9
:105AD000CF90BF90AF909F908F900895FF920F93BB
