:100000000C946E000C948F000C948F000C948F0055
:100010000C948F000C948F000C948F000C948F0024
:100020000C948F000C948F000C948F000C948F0014
:100030000C948F000C948F000C948F000C948F0004
:100040000C94B1020C946C060C948F000C948F00ED
:100050000C943B060C948F000C948F000C948F0032
:100060000C948F000C948F000C948F000C948F00D4
:100070000C948F000C948F000C948F000C948F00C4
:100080000C948F000C948F000C948F000C948F00B4
:100090000C942A020C948F000C9456020C948F003E
:1000A0000C948F000C948F000C948F000C948F0094
:1000B0000C948F000C948F000C948F000C948F0084
:1000C0000C948F000C948F000C948F00030202019B
:1000D000010000FFFEFDFCFBF9F7F4EF11241FBE49
:1000E000CFEFD1E2DEBFCDBF00E00CBF12E0A0E059
:1000F000B2E0EAE1F0E200E00BBF02C007900D922F
:10010000A430B107D9F715E0A4E0B2E001C01D9218
:10011000A43AB107E1F70E94DE000C940B100C9496
:1001200000001F93CF93DF93882391F41091060270
:100130001B50C0E1D2E081E0BE01412F0E948C0241
:10014000811778F4181BC80FD11D0E944A03F3CF02
:10015000813E69F482E090E090930502809304026E
:100160000AC082E090E062E070E00E943A071092DC
:10017000050210920402DF91CF911F9108951F9301
:10018000CF93DF93FC0110811B50EC012A9681E094
:10019000BE01412F0E948C02811730F4181BC80F3A
:1001A000D11D0E944A03F3CF81E090E062E070E04D
:1001B0000E943A07DF91CF911F910895CF92DF926D
:1001C000EF92FF920F931F93DF93CF9300D0CDB7A1
:1001D000DEB70E94480E882311F00E94DC020E94C4
:1001E000B0060E94360780E090E060E070E00E9478
:1001F0003A0781E090E061E070E00E943A0782E017
:1002000090E061E070E00E943A07789481E00E94FB
:100210009502882311F00E94DC028BE08093060295
:1002200081E698E890930802809307020E94A20F4B
:10023000809309028EEF9AEC90930B0280930A024E
:1002400021E0E22EF12CF0920D02E0920C029B8351
:100250008A838E010E5F1F4F80E5B8010E94E80C73
:10026000FB82EA8283E5B8010E94E80C8A819B81C7
:1002700090930F0280930E0284E1898380E0BE0197
:100280006F5F7F4F0E94E80C86E00E94FA0E88E8BC
:10029000C82E82E0D82E00E112E00E944A030E949C
:1002A000E20A80910402909105020097F9F481E03E
:1002B00068E872E046E60E948302482F882369F3CB
:1002C000F0920502E0920402809109028F5F809310
:1002D0000902473608F046E6455F409306024B5058
:1002E000C801B60150E00E94B20F06C00297A9F6FD
:1002F000F0920502E092040286E092E062E070E093
:1003000041E00E94F10BC9CF9B01AC0160587B47D3
:10031000814E9F4FF2E0660F771F881F991FFA9555
:10032000D1F7E3E0220F331F441F551FEA95D1F7A1
:100330000E94250F215030403093CD002093CC00F7
:1003400082E08093C80088ED8093C90086E08093A6
:10035000CA000895DC018091C9008F7B8093C90099
:100360002091F3048091F404821730F02250922FF0
:10037000981B892F2E5F05C02150922F981B892F23
:100380002F5F482F681708F4462F342F12C0909122
:10039000F404E92FF0E0EB50FD4F8C9180839E3FF9
:1003A00019F41092F40403C09F5F9093F404315049
:1003B0001196332361F78091F704882351F4E22FDB
:1003C000F0E0EB50FD4F80818093CE0081E0809380
:1003D000F7048091C90080648093C900842F089538
:1003E000DC012091F804222311F480E0089580912B
:1003F000C9008F778093C9002F3F39F48091F604AC
:100400008093F5042093F80402C0261708F0262FE5
:10041000322F17C0E091F504F0E0EC50FC4F8081E2
:100420008C939091F5049F5F9093F5048091F8046C
:1004300081508093F8049F3F11F41092F5041196B7
:100440003150332339F78091C90080688093C90007
:10045000822F08951F920F920FB60F920BB60F9234
:1004600011248F939F93EF93FF939091F6048091C3
:10047000F8048F5F8093F8048091CE00E92FF0E0BC
:10048000EC50FC4F80839E3F19F41092F60403C099
:100490009F5F9093F604FF91EF919F918F910F9042
:1004A0000BBE0F900FBE0F901F9018951F920F92CA
:1004B0000FB60F920BB60F9211248F93EF93FF9309
:1004C0008091F3048E3F19F41092F30403C08F5F00
:1004D0008093F304E091F3048091F404E81739F079
:1004E000F0E0EB50FD4F80818093CE0002C010926F
:1004F000F704FF91EF918F910F900BBE0F900FBEFD
:100500000F901F901895813011F080E00895CB0175
:10051000642F0E94F0010895813011F080E0089569
:10052000CB01642F0E94AA010895813011F085E863
:10053000089560E875E280E090E00E94840180E028
:1005400008959093EF028093EE02EFE6F0E0808151
:100550008F7D8083E1E8F0E0808180648083B59ABC
:1005600008951F920F920FB60F920BB60F9211249F
:100570002F933F934F935F936F937F938F939F93AB
:10058000AF93BF93EF93FF93E091EE02F091EF02F0
:100590001995FF91EF91BF91AF919F918F917F91AD
:1005A0006F915F914F913F912F910F900BBE0F90E4
:1005B0000FBE0F901F9018951EB88FEF8DB98FEF5B
:1005C0009FEF0E9488038EB180958EB9F8CFCF92AD
:1005D000DF92EF92FF920F931F93CF93DF937B01F4
:1005E0008A016901892B11F088EE19C0CA01860FB2
:1005F000971F8150904110F085E811C0C0E0D0E015
:100600000AC0CE018E0D9F1D0E94BB0FF601EC0F9C
:10061000FD1F80832196C017D10798F380E0DF91FA
:10062000CF911F910F91FF90EF90DF90CF900895A1
:10063000CF92DF92EF92FF920F931F93CF93DF93AE
:100640008C017B016A01CB01800F911F8150904189
:1006500010F085E816C0C0E0D0E00FC0C8010E94CD
:10066000BB0FF601EC0FFD1F6081861719F0C80162
:100670000E94C30F0F5F1F4F2196CE15DF0570F349
:1006800080E0DF91CF911F910F91FF90EF90DF906D
:10069000CF9008950E940E05089580E090E020E834
:1006A0000FB6F89420936100809361000FBE0E9402
:1006B00020070E94B6070E947F0680E00895892BDC
:1006C00011F482E401C087E4809381000895FC0165
:1006D0002091F9043091FA04C901A0E0B0E0BC0116
:1006E000552744278091840090918500A0E0B0E0D8
:1006F000482B592B6A2B7B2B8091F9049091FA049B
:100700002817390729F7408351836283738308953B
:100710004FB7F8948630910518F1209184003091FC
:100720008500280F391F80918400909185008217E1
:10073000930740F48091840090918500821793077D
:10074000C8F30EC080918400909185002817390766
:10075000C8F3809184009091850082179307C8F3B5
:100760004FBF089520E090E0FC0153E0EE0FFF1F23
:100770005A95E1F7E80FF91FE550FB4F8481958109
:10078000892B09F021E0822F0895DF92EF92FF92EA
:100790000F931F93DFB6F8948091F2028F3F09F414
:1007A00053C090E0FC01A3E0EE0FFF1FAA95E1F714
:1007B000E80FF91FE550FB4FE080F18002811381C3
:1007C0002091F9043091FA04C801AA27BB27281701
:1007D000390751F4F0928900E092880082E086BBEC
:1007E00080916F00826003C080916F008D7F809345
:1007F0006F006091F9047091FA049B0140E050E0B1
:100800008091840090918500A90133272227A0E0E0
:10081000B0E0282B392B4A2B5B2B8091F904909167
:10082000FA046817790729F72E193F09400B510B75
:100830002F5F3F4F4F4F5F4F2F5F3F4F4F4F5F47F0
:1008400018F481E08093F102DFBE1F910F91FF90B9
:10085000EF90DF9008958091F102882309F44CC055
:100860001092F1023091F002332309F445C08091D7
:10087000F3028F3F59F48091F4028F3F39F4809155
:10088000F2028093F4028093F30212C02091F202EC
:100890008091F40290E0FC0143E0EE0FFF1F4A95C7
:1008A000E1F7E80FF91FE550FB4F20872093F40292
:1008B0008091F20290E0FC0123E0EE0FFF1F2A95E9
:1008C000E1F7E80FF91FE550FB4F80858093F202B6
:1008D0008091F40290E0FC01B3E0EE0FFF1FBA95A7
:1008E000E1F7E80FF91FE550FB4F8FEF808731509C
:1008F0003093F0020E94C50308950F931F9388233D
:1009000011F08AE883C00FB7F8940E942B0410916D
:10091000F002112309F47DC04091F202242F842FAC
:10092000312F2223F1F4442339F48091030580937D
:10093000F2020E94C5030EC090E0FC01A3E0EE0F9E
:10094000FF1FAA95E1F7E80FF91FE550FB4F8091D3
:10095000030580878FEF8093030511501093F002F9
:100960004AC0822F90E0FC0173E0EE0FFF1F7A95E2
:10097000E1F7E80FF91FE550FB4F50853150822F0A
:1009800009F447C0252FCDCF222319F52091F40279
:10099000332359F4222321F48FEF8093F40202C011
:1009A000809103058093F30226C0842F90E0FC0120
:1009B00063E0EE0FFF1F6A95E1F7E80FF91FE550BE
:1009C000FB4F8091030580872223A9F44093F40212
:1009D00012C0822F90E0FC0153E0EE0FFF1F5A95EA
:1009E000E1F7E80FF91FE550FB4F422F20852F3F1D
:1009F00059F680E005C0109200051092FF0481E0D6
:100A00000FBF882311F489E801C080E01F910F9186
:100A100008953091F302232F432FE9CF1F931FB77F
:100A2000F8940E942B041FBF1FEF25C06FB7F894E6
:100A3000822F90E0FC01B3E0EE0FFF1FBA95E1F7C3
:100A4000E80FF91FE550FB4F2085448155818681D1
:100A50009781108715821482178216822F3F09F41E
:100A60003FEF6FBF4115510551F03093F4022093D1
:100A7000F302FA0119953091F4022091F3022F3F0D
:100A8000A9F63093F4022093F3021F9108954F9238
:100A90005F926F927F929F92AF92BF92CF92DF92BE
:100AA000EF92FF920F931F935A016B01F901882374
:100AB00011F08AE8C0C00115110509F4B9C0809190
:100AC000FF0490910005892B11F088E8B4C0609173
:100AD000F9047091FA049B0140E050E08091840099
:100AE00090918500A90133272227A0E0B0E0282BB0
:100AF000392B4A2B5B2B8091F9049091FA046817EB
:100B0000790729F7309721F0319709F091C011C08A
:100B1000D601C50180589040A040B04080589F4FFA
:100B2000AF4FBF4708F086C0A20EB31EC41ED51E2D
:100B300010C0D601C50180589040A040B040821B33
:100B4000930BA40BB50B80589F4FAF4FBF4708F0D6
:100B500071C09FB6F8940E942B043091F2023F3F7F
:100B600031F06091F002432F232F50E041C01092EA
:100B7000F2023093030527C02F3FA9F1822F90E0A6
:100B8000FC0173E0EE0FFF1F7A95E1F7E80FF91F04
:100B9000E550FB4F80819181A281B381250136010F
:100BA000481A590A6A0A7B0AD301C2018F5F9F4F14
:100BB000AF4FBF4710F4808518C02093030532174C
:100BC00021F41092F20291E017C0842F90E0FC0112
:100BD00033E0EE0FFF1F3A95E1F7E80FF91FE550FC
:100BE000FB4F108646C08FEF242F5F5F422F282FC8
:100BF000561708F4C1CF2DC0A092FB04B092FC049C
:100C0000C092FD04D092FE04109300050093FF04EF
:100C1000F0920205E09201058091F0028F5F8093CF
:100C2000F002992311F00E94C5039FBE80E003C02B
:100C300088EE01C08BE81F910F91FF90EF90DF903D
:100C4000CF90BF90AF909F907F906F905F904F90AC
:100C50000895842F90E0FC0123E0EE0FFF1F2A95FA
:100C6000E1F7E80FF91FE550FB4F10868FEF8093F7
:100C7000030590E0C1CF1F920F920FB60F920BB6F3
:100C80000F9211242F933F934F935F936F937F9312
:100C90008F939F93AF93BF93EF93FF938091F9044A
:100CA0009091FA0401969093FA048093F9040E94BB
:100CB000C503FF91EF91BF91AF919F918F917F916C
:100CC0006F915F914F913F912F910F900BBE0F90BD
:100CD0000FBE0F901F9018951F920F920FB60F9294
:100CE00011248F938091F002882319F081E0809382
:100CF000F1028F910F900FBE0F901F9018951092D8
:100D0000F0021092F1021092FA041092F9048FEF9F
:100D10008093F2028093F3028093F40280930305A0
:100D2000109200051092FF040E9427070895FC010D
:100D30008091F9049091FA04209186003091870007
:100D4000A0E0B0E0DC019927882740E050E0822B4A
:100D5000932BA42BB52B80839183A283B383089517
:100D6000CF92DF92EF92FF920F931F93DFB6F8942A
:100D7000E090B100F0908100009180001092B100ED
:100D80001092810010928000E0E06FEF7FEF40E072
:100D900050E01FEFF1E0A0E2CA2EA4E2B4EF16BBD0
:100DA00017BB1092B2001092850010928400F0934D
:100DB0008100F093B100C092B600B89BFECF1092B4
:100DC00081001092B100209184003091850021159E
:100DD000310511F480E024C084EF2532380720F477
:100DE000CD01821B930B03C0C9018452944F861717
:100DF000970718F4E0916600BC012552344F20F4A7
:100E0000809166008F5F03C080916600815080935F
:100E100066004F5F5F4F4436510509F0C0CF81E057
:100E2000E092B100F092810000938000DFBEE09379
:100E300066001F910F91FF90EF90DF90CF90089583
:100E4000209A219A259A229A249A2398089582E436
:100E50008093810082E086BB84E086BB88E086BB0D
:100E6000EFE6F0E080818160808308958FEF8EB996
:100E70008DB9089584309105E9F08530910548F4E5
:100E80008230910599F08330910590F4019761F4D7
:100E900009C08630910591F08630910568F007977A
:100EA00019F40EC031E00DC030E00BC032E009C0D3
:100EB00033E007C034E005C035E003C036E001C0D0
:100EC00037E06115710501F16130710541F48EB1B2
:100ED00002C0660F771F3A95E2F7862B1FC08EB1CE
:100EE00090E0032E02C0959587950A94E2F780FD65
:100EF0000BC02EB181E090E002C0880F991F3A9597
:100F0000E2F7282B2EB908952EB181E090E002C0BF
:100F1000880F991F3A95E2F7809582238EB908953C
:100F2000889A899A8A9A8B9A8098819882988398CD
:100F300008958230910549F08330910541F0019781
:100F400011F481E005C080E003C082E001C083E0CD
:100F50002FB130E002C0359527958A95E2F72170D0
:100F60003070C901089580E090E0089580E58CBD5F
:100F700081E08DBD8CB58C7F8CBD289A0895209121
:100F80006F0090916F009F7D90936F00806C289808
:100F90008EBD0DB407FEFDCF6EBD0DB407FEFDCFB7
:100FA000289A20936F00089520916F0090916F0010
:100FB0009F7D90936F00806828988EBD0DB407FECA
:100FC000FDCF1EBC0DB407FEFDCF8EB5289A209331
:100FD0006F000895FC01289880E28EBD0DB407FED5
:100FE000FDCF1EBC613089F0DF01262F0DB407FE56
:100FF000FDCF8EB51EBC8D9321502230B8F76250C4
:10100000862F90E00196E80FF91F0DB407FEFDCF83
:101010008EB58083289A0895FC01289880E68EBDBD
:101020000DB407FEFDCF819161500DB407FEFDCFD9
:101030008EBD6623C1F70DB407FEFDCF289A089533
:10104000FF920F931F93062FF42E0E94D4070823BC
:1010500010E002C015950795FA94E2F7802F1F91D2
:101060000F91FF900895DF92EF92FF920F931F93DD
:10107000D82EF62EE42E022F0E94D40710E002C0D4
:10108000000F111FEA94E2F76F2D6023F094F8220D
:101090006F298D2D0E94BF071F910F91FF90EF9038
:1010A000DF9008950F931F93DF93CF93CDB7DEB7F3
:1010B00028970FB6F894DEBF0FBECDBF81E06FE179
:1010C00040E00E9420088830D9F580916F008F7D24
:1010D00080936F008EE061E00E94BF078FE00E9466
:1010E000D40782E069E00E94BF07CE0101960E940A
:1010F00067038E010B5F1F4F8FE00E94D40780FDB6
:1011000014C0C8010E9467038D819E81AF81B8859C
:1011100029813A814B815C81821B930BA40BB50B17
:1011200089509740A040B04038F380E286BB8EE003
:1011300068E00E94BF0780916F00806280936F001B
:1011400028960FB6F894DEBF0FBECDBFCF91DF91CA
:101150001F910F9108951F93CF93DF93EC0180911E
:101160001C0590911D050F97B9F42C9881E06FE153
:1011700040E00E9420088830C9F7C830D10519F036
:10118000C330D10549F488E090E090931D05809329
:101190001C0528E030E011C281E06FE140E00E94D0
:1011A000200880931C0510921D05C930D10509F453
:1011B00075C0CA30D10560F4C630D10509F4FAC053
:1011C000C830D10509F43DC0239709F0E8C149C0F2
:1011D000C631D10509F440C1C731D10520F42A97A1
:1011E00009F0DDC176C0C931D10509F487C16A971C
:1011F00009F0D5C182E063E00E94BF070E94A20F00
:10120000682F192F8DE20E94BF078EE267E040E051
:10121000212F0E94330800000000000000000000A1
:101220000000000000002C9A83E290E00E948803F6
:101230008FE090E090931D0580931C052FE030E037
:10124000BCC1883009F4ABC182E068E00E94BF07EE
:10125000000000000000000000000000000000008E
:101260009EC1883009F49BC1893159F482E063E062
:101270000E94BF072C9A82E090E00E9488032C987D
:101280008EC182E063E00E94BF0700000000000002
:101290000000000000000000000081C1883009F457
:1012A00086C0893020F4863009F079C105C08631C6
:1012B00019F0893109F073C182E069E00E94BF072B
:1012C000000000000000000000000000000000001E
:1012D00066C1883009F46BC0893040F4823069F10E
:1012E000863061F0813009F05AC108C0823109F4BA
:1012F0003EC0863119F0813109F051C110916F0063
:1013000080916F008F7D80936F0082E063E00E9488
:10131000BF0782E069E00E94BF078FE00E94D40708
:1013200080E286BB10936F00000000000000000008
:10133000000000000000000032C110916F00809199
:101340006F008F7D80936F0082E063E00E94BF0793
:1013500082E069E00E94BF0710936F000000000068
:1013600000000000000000000000000018C1109103
:101370006F0080916F008F7D80936F0082E063E04B
:101380000E94BF072C9882E090E00E9488032C9A6C
:1013900082E069E00E94BF0710936F000000000028
:1013A000000000000000000000000000F8C00E94E3
:1013B0005208F5C0893061F08A3020F4883009F095
:1013C000EEC013C0863101F1893109F0E8C01CC0BC
:1013D00082E066E00E94BF070000000000000000FD
:1013E0000000000000000000DAC00E94520882E005
:1013F00066E00E94BF07000000000000000000003F
:10140000000000000000CBC082E069E00E94BF073E
:1014100000000000000000000000000000000000CC
:1014200081E06FE140E00E942008282F30E03093F7
:101430001D0520931C052930310509F0BEC082E04E
:1014400066E00E94BF0700000000000000000000EE
:10145000000000000000A3C08830C9F0893020F4EB
:10146000863009F09CC022C0893021F0893109F012
:1014700096C01CC082E066E10E94BF070000000029
:1014800000000000000000000000000088C00E9472
:10149000520882E066E10E94BF07000000000000E1
:1014A0000000000000000000000079C082E069E058
:1014B0000E94BF07000000000000000000000000C4
:1014C0000000000081E06FE140E00E942008282F2A
:1014D00030E030931D0520931C052930310509F0BB
:1014E0006CC082E066E10E94BF07000000000000BF
:1014F0000000000000000000000051C0883009F426
:1015000040C0893020F4863009F049C013C08930CA
:1015100021F0863109F043C00DC082E069E10E94EC
:10152000BF070000000000000000000000000000F5
:10153000000035C082E069E00E94BF0700000000A3
:1015400000000000000000000000000081E06FE1EA
:1015500040E00E942008282F30E030931D052093A2
:101560001C052930310549F582E069E10E94BF0779
:10157000000000000000000000000000000000006B
:101580000EC00E94520882E069E10E94BF0700007D
:10159000000000000000000000000000000081E0EA
:1015A0006FE140E00E942008282F30E030931D05B5
:1015B00020931C052F31310591F3C901DF91CF91A3
:1015C0001F91089580912105882321F00E94F70A38
:1015D0001092210580911F0590912005009731F010
:1015E0008F708250823010F40E94F40B0895CF93D4
:1015F000DF93E0912205F0E0EF012196DE01AE5D80
:10160000BA4FAC91EE5DFA4F2281203210F02FE1FB
:1016100003C0222309F421E0A295A695A695A37004
:101620008FEFA89FC001112430E0AC01429FC001A0
:10163000439F900D529F900D11246DE570E00E9424
:10164000110F6F3F710511F008F06FEFCE5DDA4FAB
:10165000688382E295E00E94BF00DF91CF910895F8
:101660001F93DF93CF930F92CDB7DEB787E00E9431
:10167000D407182FCE01019661E00E94EA07698124
:1016800067FD0DC06E5F82E295E00E94EA07E98186
:10169000F0E0EE5DFA4F128381E0809321050F9018
:1016A000CF91DF911F91089580911F0590912005A2
:1016B0008230910599F582E060EE45E00E942008B5
:1016C0008330B1F0843028F4882361F08130E1F474
:1016D00003C08530C9F412C080911F059091200588
:1016E000806117C080911F0590912005806211C014
:1016F00080911F059091200580630BC080911F058C
:1017000090912005806405C080911F05909120056F
:1017100080659093200580931F050895039731F409
:1017200083E290E09093200580931F0508950F9326
:101730001F93CF93DF938C01EB01442359F08CE28C
:1017400060EF44E020911B050E943308C230D105B0
:1017500028F50AC06230710538F08CE260EF44E091
:1017600020E00E9433081AC089E090E00E94AB0894
:101770000997D1F783E090E09093200580931F05AF
:101780002197C1F4F8018081833118F080E492E060
:1017900002C080E890E00E9488030CC089E190E0DC
:1017A0000E94AB084997D1F782E090E09093200522
:1017B00080931F0580916F008F7D80936F002C9A1E
:1017C0002C98F80160816150C8010E940C0880913A
:1017D0006F00806280936F00DF91CF911F910F9116
:1017E00008950E94970B089580911F059091200500
:1017F0009C01207F30708F7090708230910521F0B5
:10180000039709F03FC034C020333105E9F021339C
:10181000310538F42031310559F02032310591F588
:101820000DC020343105B1F02035310559F518C00F
:101830001092200510921F0587E817C0109220050E
:1018400010921F0580E011C01092200510921F0514
:1018500081EE0BC01092200510921F0589EE05C085
:101860001092200510921F0585E80E9491000895AE
:101870002032310539F41092200510921F0580E0C6
:101880000E9491000895282F85FD03C0982F9F7313
:1018900004C0982F91959F719195ECECF0E08491A4
:1018A000891734F03F968491981714F0822F0CC05A
:1018B000803E3CF080323CF487FF06C08F7180622E
:1018C00003C080E201C08FE18068089584E08093C6
:1018D000150523E020931A058FEF9FEF90931105D4
:1018E0008093100590931405809313058BE08093EB
:1018F000170510920F0585E08093190520931B05AD
:1019000083E80E94430C8093040581E080931205D4
:1019100010921805089585FD03C0982F9F7304C089
:10192000982F91959F719195ECECF0E080E02491D7
:10193000921724F029173CF4815008958F5F319657
:101940008031A9F780E008951F93CF93DF9382E25F
:10195000609110050E94BF076091110583E20E940B
:10196000BF07C5E0D5E014E2812F69910E94BF074F
:101970001F5F1C32C9F780E2609113050E94BF0708
:101980006091140581E20E94BF07809104050E94C6
:101990008B0C282F85E06FE040E00E94330888E040
:1019A00060E645E0209112050E94330888E06FE16F
:1019B00040E0209117050E9433088EE260EC46E07B
:1019C00020911A050E943308DF91CF911F9108954D
:1019D0000F931F93CF93DF93EB018E3431F0893552
:1019E00041F4888180931B05E0C0888180931505B0
:1019F000DCC020911C0530911D052F30310511F4FC
:101A000081E8D4C08B3009F4C3C08C3070F48230CC
:101A100009F486C0833018F48823D9F115C08330C7
:101A200009F48CC0843081F46BC0833519F184359E
:101A300028F48F3459F0803539F40FC0873509F414
:101A40006BC0803F09F481C084EFB0C0288120932F
:101A50001A058EE260EC46E0A1C06881898160933E
:101A600010058093110582E20E94BF076091110565
:101A700083E20CC06881898160931305809314050B
:101A800080E20E94BF076091140581E20E94BF07B7
:101A90008CC080911F0590912005892B09F081C091
:101AA00080E098EFAFEFB7E0088004C0B695A79547
:101AB000979587950A94D2F781709070892B09F4D5
:101AC00072C02830310519F408E010E008C088E041
:101AD00090E00E94AB080897D1F706E110E028815A
:101AE0002093170588E06FE140E00E94330808303A
:101AF000110509F45AC086E190E00E94AB0855C078
:101B000080911F0590912005892B09F04AC088819A
:101B1000882309F44AC047C088818093190545C0CD
:101B20008881809304050E94430C809304050E94E1
:101B30008B0C282F85E06FE040E030C02881209397
:101B4000120588E060E645E029C08881809305059C
:101B50008981809306058A81809307058B81809314
:101B600008058C81809309058D8180930A058E81FB
:101B700080930B058F8180930C05C5E0D5E014E2BE
:101B8000812F69910E94BF071F5F1C32C9F70DC0EA
:101B90002881209318058EE268E043E00E94330814
:101BA00004C086E803C088EE01C080E0DF91CF91D9
:101BB0001F910F9108951F932C9880E793E00E9446
:101BC00088032D9886E090E00E9488032D9A10E00B
:101BD00081E06FE140E00E9420081F5F1B3F11F48D
:101BE00085E809C08830A1F788E090E090931D0552
:101BF00080931C0580E01F91089583E061E00E94BE
:101C0000BF078EE260E245E021E00E94330885E0F4
:101C100060E847E021E00E9433088EE068E00E941F
:101C2000BF0708951F930E94A20F682F192F8DE2FE
:101C30000E94BF078EE267E040E0212F0E94330838
:101C400080E00E94D40E0E94BE0E1F91089588234A
:101C500011F00E94660C0E94DB0D882311F085E8CC
:101C600008950E94FD0D0E94120E0E94A40C109275
:101C7000200510921F0588EA9EE00E94A10280E2E2
:101C800086BB80916F00806280936F0080E0089532
:101C90001F930E944D03882309F057C02D9A2C985A
:101CA00084EF91E00E9488032D9886E090E00E94E6
:101CB00088032D9A10E004C01F5F1F3F09F445C040
:101CC0008DE10E94D4078230B9F78CE10E94D407DD
:101CD000823091F768E00E94BF0710E081E06FE179
:101CE00040E00E942008115081F18830B9F788E067
:101CF00090E090931D0580931C0580E090E060E0EB
:101D000070E048E050E025E035E00E94E7020E94E4
:101D1000DB0D8823D1F40E94FD0D0E94120E0E945B
:101D2000660C0E94A40C1092200510921F058FE0F3
:101D30000E94D40788EA9EE00E94A10280916F0071
:101D4000806280936F0080E001C085E81F91089554
:101D50008FE00E94D40783FF10C080911F059091EF
:101D600020050297029738F486E190E00E94AB08C4
:101D70000E94540B08950E94300B089580911C0519
:101D800090911D050F9711F082E8089588E090E08A
:101D90000E94AB08089711F085E8089581E090E073
:101DA0000E945F0380E00895882311F088EE089573
:101DB00080911C0590911D050F9711F481E80895FD
:101DC00080911F0590912005892B91F488E090E087
:101DD0000E94AB080897D1F780E090E00E945F0373
:101DE0008AE190E00E94AB080F9711F480E008951B
:101DF00086E80895282F80911F0590912005892B52
:101E000011F086E80895283031F488E090E00E94CF
:101E1000AB0888E0089586E190E00E94AB0886E078
:101E20000895AA1BBB1B51E107C0AA1FBB1FA61721
:101E3000B70710F0A61BB70B881F991F5A95A9F773
:101E400080959095BC01CD010895A1E21A2EAA1BA0
:101E5000BB1BFD010DC0AA1FBB1FEE1FFF1FA2175A
:101E6000B307E407F50720F0A21BB30BE40BF50B57
:101E7000661F771F881F991F1A9469F760957095E0
:101E8000809590959B01AC01BD01CF010895AF9263
:101E9000BF92CF92DF92EF92FF920F931F93CF9357
:101EA000DF93EC01A880B980CA80DB80A114B10463
:101EB000C104D10441F484E2A82E89EDB82E8BE54B
:101EC000C82E87E0D82EC601B5012DE133EF41E0E1
:101ED00050E00E94F00F27EA31E440E050E00E9419
:101EE000D10F7B018C01C601B5012DE133EF41E03B
:101EF00050E00E94F00FCA01B9012CEE34EF4FEF11
:101F00005FEF0E94D10F6E0D7F1D801F911F97FF05
:101F100004C06150704080409048688379838A8310
:101F20009B839B013F77C901DF91CF911F910F9157
:101F3000FF90EF90DF90CF90BF90AF9008950E94F8
:101F4000470F089580E092E00E94470F0895A0E0B7
:101F5000B0E08093000290930102A0930202B0933C
:101F600003020895FB01DC0102C001900D92415073
:101F70005040D8F70895F999FECF92BD81BDF89AE7
:101F8000992780B50895262FF999FECF1FBA92BDE3
:101F900081BD20BD0FB6F894FA9AF99A0FBE01964A
:101FA0000895629FD001739FF001829FE00DF11DA3
:101FB000649FE00DF11D929FF00D839FF00D749FC3
:101FC000F00D659FF00D9927729FB00DE11DF91F6F
:101FD000639FB00DE11DF91FBD01CF0111240895CC
:101FE00097FB092E05260ED057FD04D02EDF0AD010
:101FF000001C38F450954095309521953F4F4F4F38
:102000005F4F0895F6F790958095709561957F4F95
:0A2010008F4F9F4F0895F894FFCF03
:04201A0001000000C1
:00000001FF
