S01500005354425F446174615F53696E6B2E7372656359
S11300000C94D1000C94F0000C94F0000C94F000CB
S11300100C94F0000C94F0000C94F0000C94F0009C
S11300200C94F0000C94F0000C94F0000C94F0008C
S11300300C94F0000C94F0000C94F0000C94F0007C
S11300400C94F0000C94F0000C94F0000C94F0006C
S11300500C94F0000C94F0000C94F0000C94F0005C
S11300600C94F0000C94F0000C94F0000C94F0004C
S11300700C94F0000C94F0000C94F0000C94F0003C
S11300800C94F0000C94F0000C94F0000C94F0002C
S11300900C94F0000C94F0000C94F0000C94F0001C
S11300A00C94F0000C94F0000C94F0000C94F0000C
S11300B00C94F0000C94F0000C94F0000C94F000FC
S11300C00C94F0000C94F0000C94F0000C94F000EC
S11300D00C94F0000C94F0000C94F0000C94F000DC
S11300E00C94F0000C9487060C9491060C947D06F5
S11300F00C94FC050C9427060C949B060C94D105D7
S11301000C9452060C94930B0C94BC0B0C94F000BE
S11301100C94F0000C94F0000C94AF060C94A5061B
S113012003020201010000FFFEFDFCFBF9F7F4EFFE
S1130130EE1F061B801ADC28F0268A25392E982B00
S1130140062C182BDA3163340000D4359E2E0000BF
S1130150A41EB41E941E6A1E831EAA1DC31D4C1E1B
S113016000000000821D331DFC1D081D981D231D69
S1130170641D551D141D731D0104010101020101BB
S11301800101010101010101040108020101010150
S11301900201010201020101020102020101010145
S11301A0080011241FBECFEFD1E4DEBFCDBF12E0A3
S11301B0A0E0B2E0EEEDFFE700E00BBF02C0079065
S11301C00D92A63BB107D9F718E0A6EBB2E001C047
S11301D01D92A632B107E1F70E94C8030C94ED3FCB
S11301E00C940000089581E090E061E070E00E94CA
S11301F0DF0B08950F931F93CF93DF938C0160E07F
S113020070E00E94DF0BC8EED3E004C084E690E007
S11302100E94D40721978FEFCF3FD807B9F7C801C1
S113022061E070E00E94DF0BC8EED3E004C084E616
S113023090E00E94D40721978FEFCF3FD807B9F7FA
S1130240DF91CF911F910F9108956F927F928F92BA
S11302509F92AF92BF92CF92DF92EF92FF920F9351
S11302601F93DF93CF93CDB7DEB7CF5FD0400FB6E8
S1130270F894DEBF0FBECDBF39014A3121F4D90154
S11302808C918E3221F080E090E00E94FA008091FF
S1130290980290919902892B61F0A7EBB2E0F301E7
S11302A0359688E001900D928150E1F78EE28093BB
S11302B0C30288249924540174E0D72E44E050E00A
S11302C0DA942D2D30E0FA01E21BF30BE60DF71D55
S11302D0808190E063E0220F331F6A95E1F702C04A
S11302E0880F991F2A95E2F7AA2797FDA095BA2FA0
S11302F0882A992AAA2ABB2ADD2011F72091C6024E
S11303003091C7024091C8025091C90282169306E7
S1130310A406B50608F049C0EDB7FEB73C970FB682
S1130320F894FEBF0FBEEDBF31968E010F5F1F4FD5
S1130330ADB7BEB712961C930E93119780E092E06E
S11303409383828384829582A682B78220873187B1
S1130350428753870E94833BEDB7FEB736960FB6AC
S1130360F894FEBF0FBEEDBF3196ADB7BEB712967F
S11303701C930E9311978BE292E09383828380E027
S113038091E0958384830E94833B0F900F900F909C
S11303900F90EDB7FEB7128301830E943C3B0F9090
S11303A00F9080E090E00E94FA008092C602909242
S11303B0C702A092C802B092C902F301818192815E
S11303C0A381B4818093BF029093C002A093C10221
S11303D0B093C2024091980250919902C30166EB16
S11303E072E02EE004E036E0E32ECC24C3940E94B5
S11303F09A0E833020F4813008F09BC004C083300F
S113040009F09BC06CC08DB79EB708970FB6F894DF
S11304109EBF0FBE8DBFEDB7FEB731968E010F5F45
S11304201F4FADB7BEB712961C930E93119781E47C
S113043092E09383828384829582A682B7820E940B
S1130440833BEDB7FEB736960FB6F894FEBF0FBEEA
S1130450EDBF128301830E943C3B73010F900F9008
S113046080E5A82E82E0B82E00D000D000D0EDB7F1
S1130470FEB73196ADB7BEB711960C93119712968D
S11304801C93B382A282D7011E968C918483158219
S11304900E94833B0F900F900F900F90EDB7FEB723
S11304A0018312830E943C3BD3940894E11CF11C09
S11304B00F900F90F4E0DF16B9F6C80164E572E01E
S11304C00E94E93A00D0ADB7BEB711960C931197CC
S11304D012961C930E943C3B0F900F902EC0EDB7D8
S11304E0FEB738970FB6F894FEBF0FBEEDBF319636
S11304F08E010F5F1F4FADB7BEB712961C930E93BC
S113050011978FE592E09383828384829582A682F9
S1130510B7820E94833BEDB7FEB736960FB6F894C8
S1130520FEBF0FBEEDBF128301830E943C3B0F90C0
S11305300F9081E090E00E94FA00109299021092CC
S1130540980281E090E060E070E00E94DF0B84E0BC
S113055040E251EA67E070E020E030E003EF10E0B1
S1130560EE24FF240E94120AC150DF4F0FB6F89404
S1130570DEBF0FBECDBFCF91DF911F910F91FF90D2
S1130580EF90DF90CF90BF90AF909F908F907F902F
S11305906F900895EF92FF920F931F937C01E09167
S11305A0CA02F091CB02309709F18091CC028217F4
S11305B0E9F48091CD028317C9F48091CE028417A7
S11305C0A9F48091CF02851789F48091D00286170F
S11305D069F48091D102871749F48091D2028E1573
S11305E029F48091D3028F1509F45DC00091D402DF
S11305F01091D5020115110501F18091D6028217DF
S1130600E1F48091D7028317C1F48091D802841752
S1130610A1F48091D902851781F48091DA028617BA
S113062061F48091DB02871741F48091DC028E151E
S113063021F48091DD028F15B9F1EF2B19F4A0E0BC
S1130640B0E004C0012B49F5A1E0B0E08D010F5FDB
S11306501F4FFD01EE0FFF1FCD01880F991F880F5B
S1130660991F880F991FE80FF91FE653FD4F118357
S11306700083FD01EE0FFF1FEE0FFF1FEA0FFB1FAC
S1130680EE0FFF1FE453FD4F2083318342835383D6
S113069064837583E682F78207C0C7010FEF1FEFFB
S11306A0EE24E39403C08F01C701EE240E940A39AB
S11306B01F910F91FF90EF900895882359F485E7D7
S11306C092E00E944E3B80E090E060E070E00E9487
S11306D0DF0B089581E00E9482380895AF92CF9293
S11306E0EF920F938EEC9AEF64E140E02FE00FE07D
S11306F0EE24E394CC24AA240E94D2370F91EF90E5
S1130700CF90AF900895DF93CF9300D0CDB7DEB7ED
S1130710882349F419821A8283E5BE016F5F7F4FF3
S11307200E94F93903C081E00E9482380F900F9033
S1130730CF91DF9108950F93DF93CF930F92CDB7AD
S1130740DEB78823E9F4633521F481E0898381E409
S113075005C0613449F481E0898382E5BE016F5F9D
S11307607F4F0E94F9390FC0623551F481E040E0B7
S113077058EF6FEF77E021E000E00E94053803C0F6
S113078081E00E9482380F90CF91DF910F910895FC
S11307900E943B3A882311F00E94B9060E942D0C56
S11307A080E090E060E070E00E94DF0B80E090E089
S11307B061E070E00E94DF0B81E090E061E070E0B6
S11307C00E94DF0B789482E00E94B505882311F023
S11307D00E94B90687E394E06BE174E00E94F03A6A
S11307E080E090E00E941B048CE892E00E944E3B63
S11307F081E00E9482380E94AB0F0E94253AFDCF0F
S1130800DF93CF930F92CDB7DEB70E94380782E013
S1130810BE016F5F7F4F41E00E94A305813019F054
S11308202FEF3FEF03C08981282F30E0C9010F90DB
S1130830CF91DF9108950F931F93DF93CF930F927E
S1130840CDB7DEB78E010F5F1F4F02C00E9438077D
S113085082E0B80141E00E94A3058823B9F38981AD
S113086090E00F90CF91DF911F910F9108950F9316
S11308701F93DF93CF930F92CDB7DEB789838A306E
S1130880A9F48DE089838E010F5F1F4F02C00E947F
S1130890380782E0B80141E00E94AC058823B9F32F
S11308A08AE0898303C00E94380703C08E010F5F6A
S11308B01F4F82E0B80141E00E94AC05882399F300
S11308C080E090E00F90CF91DF911F910F910895F8
S11308D0759A6D9A749A6C9A6F986E989A9AA29A6D
S11308E08FEF84B982E285B900000000A29814B8A1
S11308F015B802C07598759A679BFCCF5E98569A96
S11309005F98579A0895DC018091DE02882311F0E4
S113091080E008959091E0028091DF02981710F032
S1130920875F01C08150891B282F681708F4262F80
S11309308091E302820F8093E302322F0DC0E92FEE
S1130940F0E0E15FF84F8C918083993011F490E0EE
S113095001C09F5F31501196332389F79093E002D1
S1130960822F0895DC019091E402992311F480E030
S113097008959A3058F08091E2028093E1028AE06F
S11309808093E4026A3020F09AE003C0961708F0DE
S1130990962F2091E1024091E402392F0CC0E22FFE
S11309A0F0E0E75EF84F80818C932F5F2A3009F4E2
S11309B020E011963150332391F72093E102491B33
S11309C04093E402892F08950F931F93DF93CF93ED
S11309D000D000D0CDB7DEB76CB167FD1DC08091EB
S11309E0E4028A30C8F48F5F8093E40214B815B827
S11309F07598000000009091E20283B1E92FF0E0C5
S1130A00E75EF84F8083759A993019F41092E202E8
S1130A1003C09F5F9093E202B091E302BB2309F00D
S1130A2056C088C061157105D1F4AA2329F020E0CD
S1130A3030E040E050E0A0E004B9E92FF0E0E15FED
S1130A40F84F808185B97498749A14B815B89930A0
S1130A5011F490E001C09F5F1150B15049C0209340
S1130A60E5023093E6024093E7025093E802A09334
S1130A70DE029093DF02B093E302AA2309F05AC086
S1130A80211531054105510529F485EE92E00E94B6
S1130A909E0750C0CE0101960E949E0789819A81CB
S1130AA0AB81BC812091E5023091E6024091E702DE
S1130AB05091E802821B930BA40BB50B8958934108
S1130AC0A040B040B8F181E08093DE0233C02091B1
S1130AD0E5023091E6024091E7025091E802A091CC
S1130AE0DE029091DF021FEF70E0607470700FEF10
S1130AF0BB2379F42093E5023093E6024093E702A6
S1130B005093E802A093DE029093DF021092E30276
S1130B1011C0112309F086CF2093E5023093E60239
S1130B204093E7025093E802A093DE029093DF0221
S1130B30B093E3020F900F900F900F90CF91DF913D
S1130B401F910F910895823011F080E00895CB0138
S1130B50642F0E94B2040895823011F080E0089559
S1130B60CB01642F0E9483040895823011F085E83C
S1130B7008950E94680480E008959093EA028093A7
S1130B80E90208959093EC028093EB020895909308
S1130B90EE028093ED0208959093F0028093EF02A9
S1130BA008951F920F920FB60F920BB60F92112455
S1130BB02F933F934F935F936F937F938F939F9361
S1130BC0AF93BF93EF93FF93E091E902F091EA02B0
S1130BD00995FF91EF91BF91AF919F918F917F9173
S1130BE06F915F914F913F912F910F900BBE0F909A
S1130BF00FBE0F901F9018951F920F920FB60F9271
S1130C000BB60F9211242F933F934F935F936F93DF
S1130C107F938F939F93AF93BF93EF93FF93E09151
S1130C20EB02F091EC020995FF91EF91BF91AF9126
S1130C309F918F917F916F915F914F913F912F91F0
S1130C400F900BBE0F900FBE0F901F9018951F9220
S1130C500F920FB60F920BB60F9211242F933F935E
S1130C604F935F936F937F938F939F93AF93BF93B0
S1130C70EF93FF93E091ED02F091EE020995FF915D
S1130C80EF91BF91AF919F918F917F916F915F9100
S1130C904F913F912F910F900BBE0F900FBE0F906D
S1130CA01F9018951F920F920FB60F920BB60F92CA
S1130CB011242F933F934F935F936F937F938F935D
S1130CC09F93AF93BF93EF93FF93E091EF02F09163
S1130CD0F0020995FF91EF91BF91AF919F918F9190
S1130CE07F916F915F914F913F912F910F900BBE28
S1130CF00F900FBE0F901F9018951F920F920FB672
S1130D000F9211240F900FBE0F901F9018951F92F1
S1130D100F920FB60F9211240F900FBE0F901F90D9
S1130D2018951F920F920FB60F9211240F900FBEB9
S1130D300F901F9018951F920F920FB60F921124C7
S1130D400F900FBE0F901F9018951F920F920FB621
S1130D500F9211240F900FBE0F901F9018951F92A1
S1130D600F920FB60F9211240F900FBE0F901F9089
S1130D7018950E942D0C8FEF9FEF0E94D40780E0FE
S1130D8090E062E070E00E94DF0B81E090E062E0BE
S1130D9070E00E94DF0BEFCFCF92DF92EF92FF92D1
S1130DA00F931F93CF93DF938C017B016A01CB01D7
S1130DB0800F911F8150904110F085E816C0C0E06B
S1130DC0D0E00FC0C8010E94BA3DF601EC0FFD1F30
S1130DD06081861719F0C8010E94C23D0F5F1F4F42
S1130DE02196CE15DF0570F380E0DF91CF911F913E
S1130DF00F91FF90EF90DF90CF900895CF92DF9204
S1130E00EF92FF920F931F93CF93DF938B017A019D
S1130E1069018130910531F4862F642FA9010E9464
S1130E20500C1DC0892B11F088EE19C0CA01860F21
S1130E30971F8150904110F085E811C0C0E0D0E0C8
S1130E400AC0CE01800F911F0E94BA3DF601EC0F3B
S1130E50FD1F80832196CE15DF0598F380E0DF9196
S1130E60CF911F910F91FF90EF90DF90CF90089555
S1130E700E94DC090E94E40408950E944E070E9427
S1130E804D0C0E946F07A89588E10FB6F8948093E3
S1130E906000109260000FBE80E008959FB7F89440
S1130EA0E0E0F0E089E08093570084919FBF8F7069
S1130EB0823011F090E001C09FE080E80FB6F89412
S1130EC080936100909361000FBE80E180933501AF
S1130ED080933401809333018093320108951092FA
S1130EE0F102109250078FEF8093F2028093F30285
S1130EF08093F402E7E2F7E09FEF9483118210827B
S1130F00399687E0E435F807C1F780E28093B600AC
S1130F1088EA8093DC008FE08093F4009093F300E0
S1130F209093F2009093F10082E08093E00080912E
S1130F30DF0082608093DF0008950895FC018091B2
S1130F40DE0080FDFCCF2091E100822F2091E200A1
S1130F50922F2091E300A22F2091E400B22F24E0ED
S1130F60880F991FAA1FBB1F2A95D1F780839183ED
S1130F70A283B3830895FC012091E900822F20917C
S1130F80EA00922F2091EB00A22F2091EC00B22FC7
S1130F9034E0880F991FAA1FBB1F3A95D1F78083AD
S1130FA09183A283B3830895AC018436910518F02C
S1130FB060E070E01EC07FB7F89461E01AC057FD8E
S1130FC002C09A0102C02FEF3FE7C901880F991FA1
S1130FD0909581959F4F9093250180932401FABBAE
S1130FE0E0932101D09BFECF421B530B10922101B1
S1130FF002C0F1E0E2E04115510509F761117FBF3C
S1131000089520E090E0FC01B3E0EE0FFF1FBA95D5
S1131010E1F7E80FF91FED5DF84F84819581892B85
S113102009F021E0822F0895AF92BF92CF92DF9210
S1131030EF92FF920F931F938091F20290E0FC01D4
S113104013E0EE0FFF1F1A95E1F7E80FF91FED5DAE
S1131050F84FA080B180C280D3808091F1028823B0
S113106009F46BC0D092F800C092F700B092F60079
S1131070A092F5008091DF0080FD08C081E080939C
S1131080E0008091DF0081608093DF002091E10027
S1131090822F2091E200922F2091E300A22F209131
S11310A0E400B22F9C01AD012F5F3F4F4F4F5F4FC4
S11310B0DA01C9018A259B25AC25BD258070907075
S11310C0A070B87F0097A105B10531F4A216B3064C
S11310D0C406D506C0F109C0D601C501B770577062
S11310E0281739074A075B0770F180915D01883042
S11310F068F5E090F502F090F6020091F702109185
S1131100F8020894E11CF11C011D111DEA14FB04F2
S11311100C051D05D9F48091E100282F8091E2008F
S1131120382F8091E300482F8091E400582F2E152A
S11311303F054007510779F706C08091DF008E7F95
S11311408093DF0003C081E0809350071F910F91CB
S1131150FF90EF90DF90CF90BF90AF9008951F93D2
S11311601FB7F89480915007882309F44CC010925B
S113117050073091F102332309F445C08091F30202
S11311808F3F59F48091F4028F3F39F48091F20239
S11311908093F4028093F30212C02091F2028091B2
S11311A0F40290E0FC0153E0EE0FFF1F5A95E1F7C3
S11311B0E80FF91FED5DF84F20872093F40280912A
S11311C0F20290E0FC0143E0EE0FFF1F4A95E1F7C5
S11311D0E80FF91FED5DF84F80858093F20280914E
S11311E0F40290E0FC0123E0EE0FFF1F2A95E1F7E3
S11311F0E80FF91FED5DF84F8FEF80873150309382
S1131200F1020E9414081FBF1F910895FF920F93CB
S11312101F93182F853010F08AE8C5C0FFB6F894E4
S11312200E94AF080091F102002309F4C0C040916C
S1131230F202242F842F302F1217F1F5212F30E0E2
S1131240141781F4F901A3E0EE0FFF1FAA95E1F74B
S1131250E20FF31FED5DF84F80858093F2020E9448
S1131260140818C090E0DC01E3E0AA0FBB1FEA9564
S1131270E1F7A80FB91FAD5DB84FF90173E0EE0FA8
S1131280FF1F7A95E1F7E20FF31FED5DF84F8085BC
S113129018968C93812F90E0FC0163E0EE0FFF1F02
S11312A06A95E1F7E80FF91FED5DF84F8FEF80873E
S11312B001500093F10262C0822F90E0FC0153E0E0
S11312C0EE0FFF1F5A95E1F7E80FF91FED5DF84F98
S11312D050853150822F09F46AC0252FADCF1217E3
S11312E0D1F52091F4021317B1F4121721F48FEF02
S11312F08093F4020DC0812F90E0FC0143E0EE0FD7
S1131300FF1F4A95E1F7E80FF91FED5DF84F80855F
S11313108093F30233C0842F90E0DC0133E0AA0F02
S1131320BB1F3A95E1F7A80FB91FAD5DB84F812FE8
S113133090E0FC0103E0EE0FFF1F0A95E1F7E80FD0
S1131340F91FED5DF84F808518968C931217B1F450
S11313504093F40213C0822F90E0FC0173E0EE0F7F
S1131360FF1F7A95E1F7E80FF91FED5DF84F422F63
S113137020852F3F09F0B3CF80E00FC0812F90E08C
S1131380FC0163E0EE0FFF1F6A95E1F7E80FF91F18
S1131390ED5DF84F1582148281E0FFBE882311F4BD
S11313A089E801C080E01F910F91FF90089530916A
S11313B0F302232F432FDDCF1F930E94AF081FEFAB
S11313C025C06FB7F894822F90E0FC01B3E0EE0FD4
S11313D0FF1FBA95E1F7E80FF91FED5DF84F20857F
S11313E044815581868197811087158214821782E2
S11313F016822F3F09F43FEF6FBF4115510551F09D
S11314003093F4022093F302FA0109953091F40227
S11314102091F3022F3FA9F63093F4022093F302B4
S11314201F9108952F923F924F925F926F927F92F5
S11314308F929F92AF92BF92CF92DF92EF92FF92E0
S11314400F931F93DF93CF9300D000D00F92CDB7AB
S1131450DEB7582E1801FB82EA8204E0081710F464
S11314608AE820C12114310409F419C190E09D8354
S11314708C83FC01A3E0EE0FFF1FAA95E1F7E80FB0
S1131480F91FED5DF84F84819581892B11F088E86F
S113149009C1E4E07695679557954795EA95D1F7A4
S11314A02115310529F02130310509F0F8C026C095
S11314B0DB01CA010897A109B109885F9F4FAF4FAB
S11314C0B74008F0EEC02091E100822F2091E200A5
S11314D0922F2091E300A22F2091E400B22F7A01F1
S11314E08B01E80EF91E0A1F1B1F8FEF9FEFAFEF52
S11314F0BFE0E822F9220A231B2320C02091E10047
S1131500822F2091E200922F2091E300A22F2091BC
S1131510E400B22F8A019B01081B190B2A0B3B0B19
S1131520D901C801BF700897A109B109885F9F4F0D
S1131530AF4FB74008F0B5C07A018B012FB72983AC
S1131540F8946FEF862E6FEF962E6FEFA62E6FE056
S1131550B62E8E209F20A022B1220E94AF08609058
S1131560F2023FEF631671F04090F102C62CD62CC4
S113157077248FEF9FEFAFEFB7E0E822F9220A2339
S11315801B2367C05092F202EC81FD8153E0EE0F01
S1131590FF1F5A95E1F7AC81BD81EA0FFB1FED5D9A
S11315A0F84F60865AC0BFEFDB1609F44DC06D2DAD
S11315B070E0FB0143E0EE0FFF1F4A95E1F7E60FF1
S11315C0F71FED5DF84F2081318142815381D501B0
S11315D0C40182279327A427B52780709070A07038
S11315E0B87F0097A105B10539F4281539054A05D6
S11315F05B0508F46FC007C05770E216F3060407D2
S1131600150708F467C0EC81FD8133E0EE0FFF1F7E
S11316103A95E1F70C811D81E00FF11FED5DF84F64
S1131620D0866D1419F45092F20217C08C2D90E0FC
S1131630FC0123E0EE0FFF1F2A95E1F7E80FF91FE5
S1131640ED5DF84F508609C08FEFDC2C7394CD2CE0
S1131650D82E741408F4A7CF49C0EC81FD8193E01F
S1131660EE0FFF1F9A95E1F72C813D81E20FF31FE6
S1131670ED5DF84F80829182A282B382358224820A
S11316808A819B81978386838091F1028F5F809307
S1131690F1020E94140899819FBF80E003C088EE84
S11316A001C08BE80F900F900F900F900F90CF9187
S11316B0DF911F910F91FF90EF90DF90CF90BF903B
S11316C0AF909F908F907F906F905F904F903F90DE
S11316D02F900895FB0183E0EE0FFF1F8A95E1F739
S11316E0E60FF71FED5DF84F8085B0CF8C2D90E0AD
S11316F0FC0103E0EE0FFF1F0A95E1F7E80FF91F65
S1131700ED5DF84F5086EC81FD8113E0EE0FFF1F75
S11317101A95E1F7AC81BD81EA0FFB1FED5DF84F2F
S11317208FEF80879ACF1F920F920FB60F921124DA
S11317302F933F938F939F938091E1009091E200C8
S11317402091E3003091E4008093F5029093F60237
S11317502093F7023093F8028091F102882319F064
S113176081E0809350079F918F913F912F910F902B
S11317700FBE0F901F9018951F920F920FB60F92E5
S113178011248F938FEF8093E4008093E300809380
S1131790E2008093E1008F910F900FBE0F901F9095
S11317A0189581E008955E9A569A5F98579A6C9AB4
S11317B07498749A5E98569A5F98579A089545B1AA
S11317C0209A219A019711F431E001C030E06115AB
S11317D0710531F02091F90261307105A1F40AC05C
S11317E081E090E002C0880F991F3A95E2F72091BA
S11317F0F90226C002C0660F771F3A95E2F7862FDA
S1131800809528231EC0822F90E0032E02C0959558
S113181087950A94E2F780FF0CC081E090E002C053
S1131820880F991F3A95E2F7809582238093F902F5
S11318300AC081E090E002C0880F991F3A95E2F750
S1131840282B2093F9028091F902809583704C7FB4
S1131850842B85B90E94D30B08951092F902209A23
S1131860219A289A299A0E94D30B089508955E9A82
S1131870569A5F98579A75986D9A289A209823B12A
S1131880759A209A5E98569A5F98579A30E02095F8
S1131890309521703070C9010895A59A9D9A0895D4
S11318A0EF92FF920F931F93DF93CF93CDB7DEB7E1
S11318B0C054D0400FB6F894DEBF0FBECDBFF82E93
S11318C0E62E142F052F749A759A6C9A6D9A5E9A67
S11318D05F9A569A579AA2989A9AA5989D9A14B87C
S11318E015B887E084B983E58CBDFE0131964E2F8F
S11318F093E09E01205C3F4F8E2F841BA59800002F
S113190000000000000000000000000000000000D3
S113191000000000000000000000000000009EBD68
S11319200DB407FEFDCF8F778EBD0DB407FEFDCF3E
S11319301EBC0DB407FEFDCF8EB5A59A8083E217B9
S1131940F30711F03196D8CF1CBC20980E9468048C
S1131950FE01319620E030E0AE014F5B5F4F819194
S11319602827022E2295207F2025032E322F229510
S11319702F700226269532272327220F220F220FAB
S11319802025E417F50759F7232B11F085E80DC03E
S11319909E012F5F3F4F2F0D311D812F902FB901D5
S11319A04E2D50E00E94D93A80E0C05CDF4F0FB664
S11319B0F894DEBF0FBECDBFCF91DF911F910F9181
S11319C0FF90EF900895BC01009721F08EEA96E015
S11319D00E94180D08958EEA96E060E070E00E947F
S11319E0AD0D08950F931F93CF93DF938EEA96E086
S11319F00E94110DC6E9D6E00AEF12E019830883AC
S1131A008EEA96E0BE010E94180D249606561F4FDA
S1131A1086E0CE3AD80791F7DF91CF911F910F91CD
S1131A200895FC0111821082138212821482089597
S1131A30CF93DF93DC01EB019FB7F89414968C915C
S1131A401497882321F411967C936E9306C0129602
S1131A50ED91FC911397738362831396DC93CE9379
S1131A6012971B821A8214968C9114978F5F149686
S1131A708C939FBFDF91CF9108959F92AF92BF92B5
S1131A80CF92DF92EF92FF920F931F93CF93DF9346
S1131A908C015B016A019FB6F894DC0114968C9169
S1131AA0882319F4C0E0D0E04AC0F801C081D18194
S1131AB041155105B1F07E0111C0D60112966D9108
S1131AC07C911397ED91FC918881998109958823E4
S1131AD059F47E018A819B819C01E901209769F771
S1131AE02EC0209761F17E01AB2849F5F801808171
S1131AF091812A813B81C817D90719F43183208346
S1131B0005C0D70113963C932E931297F801828156
S1131B109381C817D90711F4F382E282D80114968D
S1131B208C911497815014968C9314978D919C9159
S1131B301197892B21F413961C921E9212979FBE23
S1131B40CE01DF91CF911F910F91FF90EF90DF9025
S1131B50CF90BF90AF909F900895AB0160E070E08C
S1131B600E943D0D0895AB0161E070E00E943D0DBF
S1131B700895CF93DF93EC010BC0CE0160E070E0D9
S1131B800E94AD0D009711F41C8205C00E94E30C65
S1131B908C81882391F7DF91CF9108950895FC01FA
S1131BA090E0819180933E019F5F9031D1F78091C5
S1131BB0B406806880933C0180913D0180FFFCCF96
S1131BC00895FC0190E080913E0181939F5F9031E4
S1131BD0D1F708958091D5068F3019F480E00E94E2
S1131BE0F9180895809171078093D5068F3011F408
S1131BF00E94EA188091AA02882319F0E5ECF6E025
S1131C0002C0E5EBF6E090E0819180933F019F5F95
S1131C109031D1F78091B40680933C0108950F93DD
S1131C201F93DF93CF93CDB7DEB760970FB6F894C9
S1131C30DEBF0FBECDBFDC01162F042F0097F1F0DD
S1131C401092B30682E08093AA0225EB36E0AD0140
S1131C5080E1FA010190AF01F90101929F018150E5
S1131C60C1F720E030E0FD01E20FF31F8081809393
S1131C703F012F5F3F4F20313105A9F7002321F0A9
S1131C80013009F047C00EC08091AA02813079F575
S1131C90E5EBF6E0819180933F0186E0E53CF807AF
S1131CA0C9F725C08091AA028130A1F18091B306C1
S1131CB08823A1F41092B40610923C01CE0101963F
S1131CC00E94CF0DE5ECF6E080913F01819386E020
S1131CD0E53DF807C9F781E08093B306E5ECF6E04B
S1131CE0819180933F0186E0E53DF807C9F70093B1
S1131CF0AA02123078F4802F880F880F880F88701A
S1131D001295110F1072812B8093B40680933C01BD
S1131D1081E001C080E060960FB6F894DEBF0FBE8C
S1131D20CDBFCF91DF911F910F91089581E08093F2
S1131D30D60608953F924F925F926F927F928F9250
S1131D409F92AF92BF92CF92DF92EF92FF920F9346
S1131D501F93DF93CF93CDB7DEB762970FB6F89496
S1131D60DEBF0FBECDBF4C015B013A01322ED02E37
S1131D70FE2C8091D606882321F00E94F20D109249
S1131D80D6064F2D50E09A0123703070211531058D
S1131D9011F4EE240AC02F5F3F4F81E090E002C0AF
S1131DA0880F991F2A95E2F7E82E487F452BA1F466
S1131DB08114910489F0A114B10471F0432C5524C9
S1131DC082010D0D111D8E2D90E09A8B898B800F51
S1131DD0911F8038910520F00E94EA0D81E0A3C094
S1131DE08091AB02882339F06114710409F50E94D3
S1131DF0EA0D82E098C061147104D1F040E130E052
S1131E004150E42FF0E0D301AE0FBF1FE952F94F68
S1131E108C912081822790E0232F30E0822B932B1A
S1131E2030E0892B09F031E0442351F73093AB02C1
S1131E308091AB02882379F0C30160E040E00E9406
S1131E400F0EA7EDB6E0F30180E101900D928150F1
S1131E50E1F71092AB0281E0F5018083EE2061F09E
S1131E608E2D90E002979595879523E0880F991F12
S1131E702A95E1F781608083332021F0F501808188
S1131E808064808384E0782E7F20F501608016864C
S1131E90CC20D1F4EE2051F0D786080D191DC401D1
S1131EA0B801A501232D0D2D0E9494107720C1F1B6
S1131EB081E0F5018083C401840D951DB5014E2D8B
S1131EC02D2D0E94AE0F2CC0772059F081E0F50132
S1131ED08083C401840D951DB5014E2D2D2D0E94C6
S1131EE0AE0FEE20E9F0F5016082D786C4017E01D1
S1131EF00894E11CF11CB701A501232D0D2D0E94AE
S1131F009410832D90E08D0D911D880D991DB701BE
S1131F1049895A890E94CC3A009711F083E003C0A2
S1131F200E94EA0D80E062960FB6F894DEBF0FBE01
S1131F30CDBFCF91DF911F910F91FF90EF90DF9074
S1131F40CF90BF90AF909F908F907F906F905F9055
S1131F504F903F9008950E94CE0D08954F925F9246
S1131F606F927F928F929F92AF92BF92CF92DF92A5
S1131F70EF92FF920F931F93DF93CF93CDB7DEB70A
S1131F8060970FB6F894DEBF0FBECDBF5C016B0146
S1131F90642E122F80E090E060E040E00E940F0E7B
S1131FA07724EE24FF24412E55244E010894811CED
S1131FB0911C25C07394D6011F967C92C6010E9481
S1131FC0CF0DC4010E94E10DC8010131110514F0C7
S1131FD080E190E0D501F401282F30E0A401420F04
S1131FE0531F04C08C91919189278D93E417F507B1
S1131FF0C9F7A20EB31EE0EFFFEFEE0EFF1E87013E
S1132000040D151D10161106ACF26620E9F0D60178
S11320101F961C92C6010E94CF0D8E010F5F1F4FA9
S1132020C8010E94E10D20E030E00CC0F801E20F8D
S1132030F31FD5018C9190818927F50181935F016C
S11320402F5F3F4F621691F760960FB6F894DEBF8C
S11320500FBECDBFCF91DF911F910F91FF90EF90F5
S1132060DF90CF90BF90AF909F908F907F906F90B4
S11320705F904F900895CF92DF92EF92FF920F936B
S11320801F93DF93CF93CDB7DEB760970FB6F89465
S1132090DEBF0FBECDBF6C01F62E8C01E62E07C04D
S11320A0C8010E94CF0D005F1F4F80EFE80E8FE044
S11320B08E15B0F30F2D0F70F2949FE0F9222F2D9F
S11320C030E084E0220F331F8A95E1F72C0D3D1D8B
S11320D00023D9F010E07E010894E11CF11CC70133
S11320E0B901402F50E00E94D93AE0E1F0E0E01B52
S11320F0F10B9701200F311FC90160E070E0AF01BF
S11321000E94E23AC7010E94CF0D60960FB6F89480
S1132110DEBF0FBECDBFCF91DF911F910F91FF9016
S1132120EF90DF90CF9008959F92AF92BF92CF929D
S1132130DF92EF92FF920F931F93DF93CF93CDB76C
S1132140DEB760970FB6F894DEBF0FBECDBF6C014B
S11321505B017A01122F902EFA01078780E090E04C
S113216060E040E00E940F0EC7010E94CF0D80E0A6
S113217090E061E040E00E940F0E112301F1012F75
S11321801F3008F00EE019821A83E02EFF249E010E
S11321902D5F3F4FC901B601402F50E00E94D93A4C
S11321A0602F6E5FCE0101960E943B10011738F438
S11321B0612F601BC6018E0D9F1D0E943B10C6013E
S11321C0810F911D692D0E943B10C5010E94E10DF4
S11321D060960FB6F894DEBF0FBECDBFCF91DF91EE
S11321E01F910F91FF90EF90DF90CF90BF90AF9031
S11321F09F900895809141018F718830F1F481E0BE
S113220080934F0189E08093420180914F0180FDCA
S113221014C08EE690E00E94D40780914F0180FDA7
S11322200CC08EE690E00E94D40780914F0180FD9F
S113223004C08EE690E00E94D40708951F93182FDF
S1132240809171078F30D1F49FB7F894789480917E
S113225039018D7F8093390180917A078823E1F3D6
S11322609FBF10927A0780914F018CE480934E01B6
S1132270183011F0133011F488E0AFC1809141019E
S11322808F7180937107183009F44BC0193050F4E2
S1132290143009F493C0163009F49BC0133009F0CC
S11322A097C155C01F3069F0103120F4193009F07E
S11322B08FC163C0163109F4C2C0193109F088C155
S11322C022C183E0809342010E94BC3A80936D0155
S11322D080916E019770887F982B90936E01809106
S11322E04F0180E880934E010000000000000000D0
S11322F000000000000000000000000000000000DA
S11323000000000000000000809139018260809389
S1132310390183E290E00E94D407109371078FE0A3
S11323205EC1883009F454C11093420100000000DA
S11323300000000000000000000000000000000099
S113234000000000000000000000000041C18830CF
S113235009F43EC110934201000000000000000097
S11323600000000000000000000000000000000069
S113237000000000000000002BC1883021F18930EA
S113238020F4863009F024C105C0863119F0893162
S113239009F01EC189E080934201000000000000A2
S11323A00000000000000000000000000000000029
S11323B0000000000000000000000AC1883019F08D
S11323C0893021F405C10E94FA1002C11093420120
S11323D0FFC0893059F08A3020F4883009F0F8C001
S11323E019C0863119F0893109F0F2C086E0809372
S11323F04201000000000000000000000000000096
S113240000000000000000000000000000000000C8
S11324100000DEC00E94FA10109342010000000088
S113242000000000000000000000000000000000A8
S1132430000000000000000000000000C9C0883057
S1132440F9F0893020F4863009F0C2C02EC08930FA
S113245019F0893109F0BCC086E180934201000083
S11324600000000000000000000000000000000068
S11324700000000000000000000000000000A8C0F0
S11324800E94FA10109342010000000000000000B6
S11324900000000000000000000000000000000038
S11324A0000000000000000093C089E08093420116
S11324B00000000000000000000000000000000018
S11324C00000000000000000000000000000000008
S11324D0809141018F7180937107893009F07FC029
S11324E01093420100000000000000000000000002
S11324F000000000000000000000000000000000D8
S11325000000000065C0883009F44EC0893020F412
S1132510863009F05DC019C0893021F0863109F098
S113252057C013C0109342010000000000000000D7
S11325300000000000000000000000000000000097
S1132540000000000000000043C089E080934201C5
S11325500000000000000000000000000000000077
S11325600000000000000000000000000000000067
S1132570809141018F7180937107893009F02FC0D8
S113258089E1809342010000000000000000000087
S11325900000000000000000000000000000000037
S11325A000000000000014C00E94FA1010934201C1
S11325B00000000000000000000000000000000017
S11325C00000000000000000000000000000000007
S11325D0809141018F718F31D9F3809371071F91DD
S11325E00895809162078823E1F080917B07882316
S11325F0C1F48091E7069091E806892B39F48AE9C1
S11326000E94EB0C9093E8068093E7068091E7061E
S11326109091E806892B29F01092620786E10E94C6
S11326201E1180916707882351F083E697E060E0EC
S113263070E00E94AD0D009711F00E942C13809160
S11326407B07823019F0853031F403C00E94841472
S113265008950E94DB140895EF92FF920F931F9345
S1132660CF93DF937C01DC010D911C91D801179667
S1132670ED91FC911897808180937307C82FD0E067
S11326802196CE0FDF1F988129812D3310F02CE382
S113269003C0222309F421E09295969596959370B0
S11326A08FEF989FC001112430E0FC01E29FC0012C
S11326B0E39F900DF29F900D112464EB70E00E9453
S11326C04D3A6F3F710511F008F06FEF6883D80140
S11326D01296FC92EE921197C8010E940C1FDF9192
S11326E0CF911F910F91FF90EF900895CF92DF92B9
S11326F0EF92FF920F931F93CF93DF93E091E7063E
S1132700F091E806309709F449C0C081D181C090A6
S11327104701D0907B01D7FC41C082E0D80E0AE982
S113272010E00D191109EEEFDE0E0C0F1D1FED2C3C
S1132730FF2497012F5F3F4FC80160E871E0A901B2
S11327400E94D93AF801D292F887EF83EE0EFF1E69
S1132750F701C28280914C018F7780934C01809164
S11327604C01806880934C016091E7067091E80603
S113277083E697E00E94180D8AE90E94EB0C90937F
S1132780E8068093E706892B31F489E00E941E1144
S113279081E08093620780E480934F01DF91CF91C1
S11327A01F910F91FF90EF90DF90CF9008951F93AA
S11327B010917B071130C9F480914201829586956E
S11327C087708093E90682E080937B078091E70617
S11327D09091E806892B31F489E00E941E11109330
S11327E0620703C086E10E941E111F9108950F9392
S11327F01F93CF93DF93EC018B01442349F0909115
S11328006C01809170078295807F9F70892B03C033
S113281080916C018F7080936C010230110598F4E3
S1132820442369F090916C0180916807880F8E7041
S1132830917F892B80936C0110926F0117C0809156
S11328406C018E6011C080916C078295807F90919D
S11328506F07892B80936F0190916C0180916807B9
S1132860880F8E70917F892B80936C0189E10E947F
S11328701E118931D9F70130110551F48091730784
S1132880833118F080E492E005C080E890E002C053
S113289089E090E00E94D4071FB7F8948091390131
S11328A0826080933901809139018D7F8093390151
S11328B0288130E02150304080E891E0BE01A90138
S11328C00E94D93A81E080937B071FBFDF91CF91AB
S11328D01F910F910895FC0180917B07882311F0CB
S11328E086E80895F0936E07E0936D0787819085DD
S11328F09093750780937407009711F488EE0895F8
S11329000E94F71380E0089510927B078091E906F6
S11329108330B1F0843028F4882331F08130E1F43D
S113292009C08530C9F412C060916D0770916E07BB
S113293080E017C060916D0770916E0787E811C041
S113294060916D0770916E0781EE0BC060916D0709
S113295070916E0789EE05C060916D0770916E07E6
S113296085E80E945A300895909147018091EA06C3
S1132970891710F49093EA068091EB069091EC0687
S1132980A091ED06B091EE060197A109B1098093DB
S1132990EB069093EC06A093ED06B093EE06009739
S11329A0A105B10521F08FEF80934701089585E0DB
S11329B080937B070895809155018F77809355010B
S11329C08CE480934E0110927B0786E10E941E11D5
S11329D09091EA06983320F08FEF8093EA060AC0BC
S11329E08FEF989FC001112467E370E00E944D3A75
S11329F06093EA068091EA060E942D3408950F93AD
S1132A001F93082F80917B07882341F080917107E1
S1132A108F3011F086E846C081E844C080915501AA
S1132A2080688093550110E110934F0184EB94E189
S1132A300E94C70510934E0186E00E941E11863045
S1132A4051F0809155018F77809355018CE48093E8
S1132A504E0185E827C084E080937B071092EA0644
S1132A6080EC93E0A0E0B0E004C0880F991FAA1F97
S1132A70BB1F0A95D2F780549C4FAF4FBF4F23E042
S1132A80B695A795979587952A95D1F78093EB06E8
S1132A909093EC06A093ED06B093EE068FEF80932F
S1132AA0470180E01F910F910895282F85FD03C0F1
S1132AB0982F9F7304C0982F91959F719195E0E290
S1132AC0F1E08491891734F03F968491981714F0BB
S1132AD0822F0CC0803E3CF080323CF487FF06C05D
S1132AE08F71806203C080E201C08FE18068089525
S1132AF084E08093680723E020936F078FEF9FEFB4
S1132B0090935E0780935D079093610780936007BD
S1132B108BE080936A0710925C0780E098EFAFEF38
S1132B20B7E08093760790937707A0937807B093E4
S1132B3079078AE091E090935B0780935A078AE0D3
S1132B408093720782E08093690785E080936C0725
S1132B502093700783E80E9455158093510781E004
S1132B6080935F0710926B07089585FD03C0982F2B
S1132B709F7304C0982F91959F719195E0E2F1E0C5
S1132B8080E02491921724F029173CF48150089591
S1132B908F5F31968031A9F780E0089580915D07B9
S1132BA090915E078093620190936301E2E5F7E000
S1132BB0A4E6B1E081918D9387E0EA35F807D1F777
S1132BC08091600790916107809360019093610107
S1132BD09091480180915F078295880F80769F7954
S1132BE0892B8093480190916F0180916F078F70BA
S1132BF0907F892B80936F0190916E0180916B0778
S1132C00880F880F880F8870977F892B80936E01B7
S1132C1090916F0180916C078295807F9F70892BC2
S1132C2080936F019091480180916A078F71907E23
S1132C30892B80934801809151070E94B51590918A
S1132C4045018F70907F892B809345010895CF9320
S1132C50DF93EB0190917B07943009F4E4C08E3448
S1132C6031F0893541F4888180937007E0C0888110
S1132C7080936807DCC0209171072F3011F481E83C
S1132C80D7C08B3009F4C1C08C3070F4823009F4A1
S1132C907BC0833018F48823B1F115C0833009F464
S1132CA084C0843081F45CC0833511F1843528F408
S1132CB08F3459F0803539F410C0873509F458C081
S1132CC0803F09F47FC084EFB3C0988190936F076D
S1132CD080916F019F70807F53C088819981809318
S1132CE05D0790935E0780936201909363019FC098
S1132CF08881998180936007909361078093600134
S1132D009093610194C0992309F08DC080E098EFFD
S1132D10AFEFB7E0088004C0B695A795979587955F
S1132D200A94D2F781709070892B09F47EC0283000
S1132D3031F088E00E941E118830D9F726E198818D
S1132D4090936A07809148019F71807E982B90939D
S1132D504801283009F46BC086E10E941E1167C047
S1132D60992309F060C08881882309F460C05DC09C
S1132D70988190936C0780916F019295907F8F70EA
S1132D80982B90936F0153C08881809351070E94C0
S1132D905515809351070E94B515909145018F7088
S1132DA0907F892B8093450142C0888180935F077F
S1132DB0909148018295880F80769F79892B809322
S1132DC0480135C0888180935207898180935307D5
S1132DD08A81809354078B81809355078C818093DB
S1132DE056078D81809357078E81809358078F8172
S1132DF080935907E2E5F7E0A4E6B1E081918D9371
S1132E0087E0EA35F807D1F712C0888180936B0711
S1132E1090916E01880F880F880F8870977F892B97
S1132E2080936E0104C086E803C088EE01C080E090
S1132E30DF91CF910895EF92FF920F931F93DF9349
S1132E40CF930F92CDB7DEB7E82E81E090E065E135
S1132E5070E041E050E09E012F5F3F4F0E94FE066C
S1132E60809139018D7F8093390180EF90E00E9439
S1132E70D407809139018E7F8093390181E090E0FD
S1132E800E94D4078091390181608093390110E058
S1132E9084E690E00E94D407809141011A3011F435
S1132EA085E845C08F71883011F01F5FF1CF8093A2
S1132EB071079981992309F442C0809152019F704E
S1132EC0807F982B909352013AC080914601000F65
S1132ED0111F000F111F90E08076907025E09695E9
S1132EE087952A95E1F7082B192BF39488E0F816B7
S1132EF061F783E00E941E1180914F01F0924F010F
S1132F0080E480934F0180E880934F018CE48093A8
S1132F104E01C8010E94C13AEE2011F00E947815BA
S1132F200E94CE1510927B071092620780E00F90EA
S1132F30CF91DF911F910F91FF90EF9008958091B1
S1132F406E01806280936E0180914C018068809351
S1132F504C018CE480934E0186E00E941E11109275
S1132F604E0100E010E0FF24B0CF0E941B1788231D
S1132F7061F085E8089583E697E060E070E00E94E0
S1132F80AD0D009711F00E94E30C80916707882330
S1132F9091F788E080934F0180E480934F0184E0AF
S1132FA080934F0180E880934F010E94BC3A809344
S1132FB06D0180916E019770887F982B90936E01BC
S1132FC080E00E94F9180E94EA180E94960E80E0A0
S1132FD008950F931F93CF93DF930E943D07882397
S1132FE009F0CDC0809139018160809339018091CD
S1132FF039018D7F809339018CE791E00E94D407D9
S1133000809139018E7F8093390181E090E00E94A4
S1133010D4078091390181608093390110E084E6FE
S113302090E00E94D407809141011A3009F4A7C0AE
S11330308F71883011F01F5FF2CF809371078091F8
S11330405C01833809F09BC0A0C0C2E5D7E00E94B0
S1133050BC3A899387E0CA35D807C9F780915207EB
S1133060309153074091540760915507709156076A
S1133070F0915707B091580750915907082F015004
S113308091E0081708F090E0832F815021E0831726
S113309008F020E0192F180F91E0181708F090E0BD
S11330A0292B842F815031E0841708F030E0A22FBF
S11330B0A80F91E0A81708F090E0392B862F8150D3
S11330C021E0861708F020E0E32FE80F91E0E817ED
S11330D008F090E0292B872F815031E0871708F002
S11330E030E0622F680F91E0681708F090E0392B08
S11330F08F2F815021E08F1708F020E0432F480FD5
S113310091E0481708F090E0292B8B2F815091E033
S11331108B1708F090E0322F380F21E0381708F0B1
S113312020E0922B5195591779F43F3F69F44F3FB2
S113313059F46F3F49F4EF3F39F4AF3F29F41F3F8F
S113314019F40E3F08F081CF82EE98E10E94C20587
S11331508AED98E10E94BD0586ED98E10E94CC05B8
S11331600E94F20C8AE90E94EB0C9093E80680938B
S1133170E70683E697E00E94110D80E001C085E830
S1133180DF91CF911F910F91089581E090E060E06D
S113319070E048E050E022E537E00E94FE0681E05E
S11331A00E941B17882309F459CFE9CF81E080934B
S11331B07A0708951F931FB7F8940E94D7131FBF6F
S11331C01F9108951F931FB7F8940E9476131FBF91
S11331D01F910895809171078F3011F082E808954E
S11331E088E00E941E11883011F085E8089580E07F
S11331F00895882311F088EE0895809171078F3027
S113320011F481E8089580917B07882381F410925A
S1133210620788E00E941E118830D9F78FE00E946F
S11332201E118F3021F40E94960E80E0089586E8E6
S11332300895982F80917B07882311F086E80895DC
S1133240983039F488E00E941E111092620788E0D9
S113325008958091E7069091E806892B29F086E18C
S11332600E941E1186E0089581E08093620786E043
S11332700895CF93DF93DC019C9111962C911197C3
S113328080917C07882321F4CD010E94E30C1AC0AD
S1133290E92FF22F9F012F5F3F4F4FEF57E088E058
S11332A0EA010990AE01E90109929E018150C1F73A
S11332B080910A08818783E1808387E198E0BD01DA
S11332C00E94180DDF91CF910895DC01ED91FC91DE
S11332D0119784E1808363835283418387E198E07B
S11332E0BD010E94180D08950F931F93DF93CF9390
S11332F000D0CDB7DEB7A091A007B091A107ED91A2
S1133300FC91119784E180838BEE83830FEF1FEF91
S11333101283018387E198E0BD010E94180D109289
S11333208F071A83098380E5BE016F5F7F4F0E9478
S1133330EA2B1093D7070093D6071092E407109254
S1133340E5071092E6071092E7071092E80710923B
S1133350E9071092EA071092EB070E94322A0F90B5
S11333600F90CF91DF911F910F910895EF92FF92EB
S11333700F931F93E090E007F090E10780E061E095
S113338040E020E030E000E010E00E944F2388237A
S1133390A9F4A091A007B091A107ED91FC91119718
S11333A084E1808381EE83838FEF9FEF9283818317
S11333B087E198E0BD010E94180D19C0A70160E0E3
S11333C070E084E0440F551F661F771F8A95D1F77C
S11333D080E020E030E004E719E1EE24FF240E94BD
S11333E0120A882321F080E090E00E9474191F9152
S11333F00F91FF90EF900895FF920F931F93DF9327
S1133400CF9300D0CDB7DEB7F0900C080E94E30C48
S1133410FF20B1F583E56AE078E00E94EA2B209171
S11334200A0830910B088091FF078093E40780918C
S113343000088093E507809101088093E607809156
S113344002088093E707809103088093E80780913E
S113345004088093E907809105088093EA07809126
S113346006088093EB0781E08093130810928F077E
S113347080919A07833031F582E080939A0722C0C5
S113348010928F070FEF1FEF1A83098380E5BE01A7
S11334906F5F7F4F0E94EA2B1093D7070093D607E4
S11334A01092E4071092E5071092E6071092E707DE
S11334B01092E8071092E9071092EA071092EB07BE
S11334C02FEF3FEFE091A007F091A107A081B18118
S11334D084E18C931396FC92139712963C932E934B
S11334E0119787E198E0BF010E94180D0E94322ACB
S11334F00F900F90CF91DF911F910F91FF9008953E
S11335000F931F93DF93CF93CDB7DEB72C970FB6EE
S1133510F894DEBF0FBECDBFAC01DE011196FC01F5
S1133520808191819C01F9018CE001900D92815080
S1133530E1F7DA010D911C918091130882508230D9
S113354020F0CA010E94E30C56C082E0F801808397
S1133550D801AC56BF4FFD0181938A859B85129695
S11335609C938E9311978C8582839D0128503040C3
S1133570D901E2E5F7E088E001900D928150E1F78E
S1133580F90138979F01BE016E5F7F4F88E0DB0130
S11335900D90BD01D9010D929D018150C1F780911B
S11335A05D0790915E079293829380919B0782932B
S11335B08F5F80939B0783E69CEC929382938BE1CD
S11335C08293D8011896FC93EE93179716961C9243
S11335D08EE797E0BA010E94180D80919D079091A3
S11335E09E07F8019583848381E00E940108882363
S11335F011F40E9487272C960FB6F894DEBF0FBEF5
S1133600CDBFCF91DF911F910F910895CF92DF929B
S1133610EF92FF921F93DF93CF93CDB7DEB72F972F
S11336200FB6F894DEBF0FBECDBFAC017C01DE0146
S11336301196FC01808191819C01F9018FE0019038
S11336400D928150E1F74093A0075093A1078C811C
S1133650823019F48F8198851AC08F818093E40792
S113366088858093E50789858093E6078A8580931A
S1133670E7078B858093E8078C858093E9078D8520
S11336808093EA078E858093EB078EEF9FEF9093EC
S1133690D7078093D60780E5BE016B5F7F4F0E94FA
S11336A0EA2B0E940D2AD701CD90DC9081E0F6012F
S11336B08083F282E182EA56FF4F80838F85818383
S11336C09F0128503040D901E2E5F7E088E00190FD
S11336D00D928150E1F7F9018FEF9FEF929382935E
S11336E08C81823051F48091D6079091D7079293C0
S11336F0829345E123E238EC11C0F9013A979F0126
S113370044EE57E088E0DA010D90AD01D9010D9245
S11337109D018150C1F74BE123E23CEC80915D07B0
S113372090915E079293829380919B0782938F5F1F
S113373080939B07329322934293D6011896FC936D
S1133740EE93179784E0BE016D5F7F4F0E94EA2BD2
S1133750182F80E0BE016E5F7F4F0E94EA2B112379
S113376071F4882361F4C60162E070E041E00E94D4
S11337706B14882321F481E08093140812C0D701CC
S1133780ED91FC9184E1808381EE83838FEF9FEF41
S11337909283818387E198E0B7010E94180D0E940B
S11337A0322A2F960FB6F894DEBF0FBECDBFCF914D
S11337B0DF911F91FF90EF90DF90CF900895FC016F
S11337C08091F1068730F0F4A781B08512968C9130
S11337D012978695869583708230A1F4E091EF0666
S11337E0F091F0063297F093F006E093EF06169608
S11337F08D919C911797918380838091F1068F5FBF
S11338008093F10680E00895FC018091F1068730F1
S1133810F0F40780F085E02D82818695869583708B
S11338208330A9F48091EF069091F0060897909365
S1133830F0068093EF06DC01369688E001900D9245
S11338408150E1F78091F1068F5F8093F10680E06B
S113385008959F92AF92BF92CF92DF92EF92FF9220
S11338600F931F93DF93CF9300D000D0CDB7DEB773
S1133870FB01A080B180D50112967C936E931197C1
S11338808AE08C9378E9C72ED12CCA0CDB1C80917A
S11338909C07882319F46DE0962E0EC0482F50E043
S11338A0C41AD50A5DE0952E980E22EA37E0C601C7
S11338B0B90150E00E94D93A80918207882309F423
S11338C042C0D092F006C092EF061092F10684E056
S11338D09CE19A8389838EE797E07E010894E11C3A
S11338E0F11CB7010E94B30D0091F1061092F1068C
S11338F08FED9BE19A8389838EE797E0B7010E945D
S1133900B30D2091F106E091EF06F091F0063197A6
S113391010E0C80134E0880F991F3A95E1F7822B33
S11339208083000F111F000F111F020F111D000FC4
S1133930111F0093F106900EE02FF0E0E095F09552
S1133940EC0DFD1D02C0F6011292DF011E92809162
S11339501308833019F42FEF3FE402C02FEF3FE048
S113396080917C0781113068FD013293229380910C
S11339706007909161072FEF8E3F920799F4FD0144
S11339803A9786E0980E9F0142E557E088E0DA0115
S11339900D90AD01D9010D929D018150C1F720E038
S11339A030EC04C09293829320E030E880915D076C
S11339B090915E07929382938091990782938F5F8F
S11339C080939907329322939292D5011896FC938F
S11339D0EE931797C50162E070E040E00E946B141B
S11339E081E0809314080F900F900F900F90CF9167
S11339F0DF911F910F91FF90EF90DF90CF90BF90D8
S1133A00AF909F900895BC0180E00E94291C089506
S1133A10FC010190F081E02D6281738181814481F8
S1133A2025810E944C3A08950F931F938C01DC0169
S1133A30ED91FC9181810E945D03C8010E94E30C19
S1133A401F910F9108950F931F938C01DC01ED9149
S1133A50FC91818162810E949B03C8010E94E30C56
S1133A601F910F910895AF92BF92CF92DF92EF9280
S1133A700F931F935C01DC01ED91FC91048115818E
S1133A8026813781818162814381E08439966F0187
S1133A900E946E03C5010E94E30C1F910F91EF90E9
S1133AA0DF90CF90BF90AF9008950F931F938C0138
S1133AB0DC01ED91FC9181810E944B3AC8010E9486
S1133AC0E30C1F910F9108950F931F938C01DC0158
S1133AD0ED91FC9181810E948303C8010E94E30C53
S1133AE01F910F9108950F931F938C01DC01ED91A9
S1133AF0FC9181810E944A3AC8010E94E30C1F9103
S1133B000F9108950F931F938C01DC01ED91FC91AB
S1133B1021813281438154816581768187819085B9
S1133B200E94493AC8010E94E30C1F910F91089525
S1133B300F931F938C01DC01ED91FC9181816281D3
S1133B403396AF010E94483AC8010E94E30C1F91CA
S1133B500F910895EF92FF920F937C01DC01ED9198
S1133B60FC912181328143815481658176818781F1
S1133B70908501850E94473AC7010E94E30C0F918A
S1133B80FF90EF9008950F931F93DF93CF93CDB7DA
S1133B90DEB72B970FB6F894DEBF0FBECDBF8C01F6
S1133BA0DC01ED91FC9182818983838194819B83E3
S1133BB08A839E012C5F3F4FAF014B5F5F4F88E0CC
S1133BC0DA010D90AD01D9010D929D018150C1F72B
S1133BD08181BE016F5F7F4F0E94463AC8010E94F7
S1133BE0E30C2B960FB6F894DEBF0FBECDBFCF917A
S1133BF0DF911F910F9108950F931F93DF93CF933C
S1133C00CDB7DEB766970FB6F894DEBF0FBECDBF53
S1133C108C01DC01ED91FC91818192819B838A83EB
S1133C20838189839E012C5F3F4FAF014C5F5F4FBF
S1133C3088E0DA010D90AD01D9010D929D0181500A
S1133C40C1F7818192819E878D8784858C879E01AF
S1133C50215F3F4FAF01435F5F4F88E0DA010D9072
S1133C60AD01D9010D929D018150C1F7CE0101969C
S1133C70BE01645F7F4F45890E94F200C8010E9423
S1133C80E30C66960FB6F894DEBF0FBECDBFCF919E
S1133C90DF911F910F910895CF92DF92EF92FF92DF
S1133CA00F936C01DC01ED91FC91BF016E5F7F4FBE
S1133CB024893589E788F08C8181438906890E94AB
S1133CC0453AC6010E94E30C0F91FF90EF90DF90FC
S1133CD0CF900895EF92FF920F937C01DC01ED9158
S1133CE0FC91218132814381548165817681878170
S1133CF0908501850E94CA02C7010E94E30C0F91BE
S1133D00FF90EF9008950F931F938C01DC01ED91C8
S1133D10FC918181928163810E94443AC8010E948E
S1133D20E30C1F910F9108950F931F938C01DC01F5
S1133D30ED91FC91818162810E94433AC8010E9405
S1133D40E30C1F910F9108950F931F938C01DC01D5
S1133D50ED91FC91818162810E94423AC8010E94E6
S1133D60E30C1F910F910895CF92DF92EF920F937E
S1133D70DF93CF93CDB7DEB766970FB6F894DEBF67
S1133D800FBECDBF6C01DC01ED91FC918181898373
S1133D90828193819B838A839E012C5F3F4FAF0175
S1133DA04C5F5F4F88E0DA010D90AD01D9010D92AF
S1133DB09D018150C1F784858C87858596859E8772
S1133DC08D879E01215F3F4FAF01415F5F4F88E0C8
S1133DD0DA010D90AD01D9010D929D018150C1F719
S1133DE0228D338DCE010196BE01645F7F4F418DDC
S1133DF00789E08C0E942501C6010E94E30C6696A7
S1133E000FB6F894DEBF0FBECDBFCF91DF910F91F7
S1133E10EF90DF90CF900895FC0110826181728150
S1133E206115710521F08BED97E00E94180D08953E
S1133E30282F80910A0890910B0896FF1BC022231B
S1133E4059F42091FD073091FE0780915D07909110
S1133E505E072817390759F02091FD073091FE07B6
S1133E608091D9079091DA072817390719F48EEE53
S1133E700E946F3608950F931F93CF93DF93282FDB
S1133E8080910A0890910B0896FFA3C0222359F44D
S1133E902091FD073091FE0780915D0790915E07A8
S1133EA02817390761F02091FD073091FE078091B2
S1133EB0D9079091DA072817390709F08AC02091A9
S1133EC0FF07309100088091D6079091D7072817F3
S1133ED0390709F47EC09091FF078091E407981791
S1133EE059F5909100088091E507981729F590916C
S1133EF001088091E6079817F9F4909102088091DF
S1133F00E7079817C9F4909103088091E807981778
S1133F1099F4909104088091E907981769F49091B5
S1133F2005088091EA07981739F490910608809162
S1133F30EB07981709F44DC08AE90E94EB0C8C0139
S1133F40009709F446C0DC012D913C9185E0F9010C
S1133F50808312830183E956FF4F8083AF01485069
S1133F605040FA01A2E5B7E088E00D90019281503B
S1133F70E1F7FA013897EF01A4EEB7E088E00D907D
S1133F8009928150E1F780915D0790915E079293C9
S1133F90829380919B0782938F5F80939B0783E634
S1133FA09CEC9293829388E18293D9011896FC93B6
S1133FB0EE931797C90162E070E041E00E946B1430
S1133FC0882321F481E08093140803C0C8010E946F
S1133FD0E30CDF91CF911F910F9108950F931F93DD
S1133FE0CF93DF93EC01E881F981A781B0857C91BF
S1133FF07093EF07FD01E70FF11D8181809308089D
S113400011964D915C9112975093ED074093EC07F4
S113401013968C9113978093F0078D010C5F1F4FBB
S1134020652F6295669566956370352F369536953E
S1134030337019F4F80120E049C014968D919C91D5
S113404015979093F3078093F207FD01369632306B
S1134050E1F41092F4071092F5071092F60710920B
S1134060F7071092F8071092F9071092FA071092C6
S1134070FB0716968D919C9117979093F507809363
S1134080F407FD01389624E021C0333011F022E01A
S11340901DC016968C9116978093F40781818093A6
S11340A0F50782818093F60783818093F7078481E3
S11340B08093F80785818093F90786818093FA07B6
S11340C087818093FB07FD013E962AE0662309F46D
S11340D047C046FD08C0819191919093FE0780935B
S11340E0FD072E5F08C08091F2079091F30790932B
S11340F0FE078093FD076230C1F41092FF0710920F
S113410000081092010810920208109203081092FD
S113411004081092050810920608808191819093FA
S113412000088093FF072E5F1BC06330C9F48081B1
S11341308093FF0781818093000882818093010826
S1134140838180930208848180930308858180930E
S11341500408868180930508878180930608285F78
S1134160972F9550921B909309086093FC07309306
S1134170F10743FDCEC1D801A20FB11D842F877072
S11341808093EE07833021F48C918093070863C0F9
S1134190813009F451C0813020F0833009F0B9C175
S11341A05AC08D919C91119790930B0880930A08A3
S11341B012968C91129780930C08877011F493E0F7
S11341C002C0982F9C5FFD01E90FF11D808180934F
S11341D00D08292F2F5F382F377090E0807790706B
S11341E044E0959587954A95E1F7482F332311F4D8
S11341F0882389F0CD01820F911D90930F0880933D
S11342000E08332311F0330F230F442321F0440FFE
S1134210440F440F240F80910908281750F4821B7F
S113422080931008A20FB11DB0931208A093110837
S113423074C11092100871C1992351F0963718F087
S113424086E780930908B0930B08A0930A0865C118
S11342501092090862C1809107088330E1F084302C
S113426030F48130C1F0823009F053C107C0883086
S113427008F453C1883009F04CC112C011968D91D5
S11342809C91129790930B0880930A0813968C9133
S113429080930C0842C111968C9180930A083DC109
S11342A011968D919C91129790930B0880930A0814
S11342B013968D919C91149790930D0880930C08FC
S11342C015968C91159780930E0816968D919C9156
S11342D017979093100880930F0854FF1EC11896E7
S11342E08C918093110819C18091EE07833061F499
S11342F080910708843011F0873031F48BED97E01A
S1134300BE010E94180D0FC180918F07813009F4FE
S1134310EBC0813020F0843008F0FBC0A3C0809152
S11343209807882309F06AC090911308933080F1AC
S1134330933009F0EEC08091EE07813009F4E5C0B6
S1134340813010F1833009F0E4C080910708843093
S113435009F4AFC0853038F4813009F4A0C083304B
S113436009F0D7C009C0863009F4AEC0863040F0E9
S1134370873009F0CEC0B0C0CE010E945925D3C009
S11343808EEE0E946F36C5C080E00E94181FC1C027
S11343908091EE07813009F4B8C0813020F0833079
S11343A009F0B7C00CC080911608882309F4B1C085
S11343B0992309F4AEC080E00E943B1FAAC08091FB
S11343C00708843009F475C0853038F4813009F465
S11343D066C0833009F09DC004C0873009F05AC01C
S11343E009C0CE010E94592580911308813009F03B
S11343F09AC05CC0923009F08CC06EC0833009F161
S1134400843019F0823009F084C08091EE0788234B
S113441009F07FC080911308833019F481E00E9471
S1134420181F80911608882341F080911308815049
S1134430823018F481E00E943B1FCE010E94022FBB
S113444072C08091EE07833009F063C08091070841
S1134450883009F05EC082E00E940609CE010E9405
S1134460EC3261C00E946D2E8091EE07813009F418
S11344704CC0833009F04DC0809107088430C9F0E6
S1134480853030F4813059F0833009F042C00BC0DC
S11344908730F1F0883021F18630D9F515C0CE018E
S11344A00E94391940C0CE010E9459250E94552B03
S11344B03AC080918207882321F0CE010E94122401
S11344C032C00E94F42225C0CE010E94B52B2BC01D
S11344D0809113088230E9F4CE010E94031D23C0A9
S11344E0CE010E94B4361FC08091EE07833059F488
S11344F080910708823069F480E00E940609CE01A9
S11345000E94FC1910C0813021F4CE010E94A3271F
S11345100AC0CE010E94E30C06C0809114088823CF
S113452009F0E2CEF1CEDF91CF911F910F91089562
S1134530DB01FC018681882399F40780F085E02D56
S11345408281869586958370823051F440E02D9166
S11345503C91868197812817390719F441E001C0FD
S113456040E0842F0895DB01FC0186818823C9F58E
S11345700780F085E02D828186958695837083304F
S113458081F520E09C918681981761F511969C91A4
S113459011978781981731F512969C91129780850F
S11345A0981701F513969C91139781859817D1F468
S11345B014969C91149782859817A1F415969C9152
S11345C015978385981771F416969C911697848590
S11345D0981741F417969C918585981719F421E052
S11345E001C020E0822F08950F931F93CF93DF9390
S11345F08AE90E94EB0C8C01009709F44BC0DC01A2
S1134600CD91DC918CE088831A8309831E82FE019C
S1134610E856FF4F8091FC07833089F438979F0157
S11346204FEF57E088E0DA010D90AD01D9010D920A
S11346309D018150C1F721E03CE04FE009C0809129
S1134640FF07909100089293829321E038E049E0BB
S11346508091FD079091FE079293829380919B072E
S113466082938F5F80939B07329322934293F887C0
S1134670EF83F8018081918161E070E040E00E9465
S11346806B14882321F481E08093140803C0C801CB
S11346900E94E30CDF91CF911F910F9108956F92C7
S11346A07F929F92AF92BF92CF92DF92EF92FF924E
S11346B00F931F93CF93DF93D82E962EC42E5901B8
S11346C038018AE90E94EB0C7C01009709F49BC035
S11346D0DC010D911C91DD2021F084E0F801808340
S11346E003C08BE0D8018C93F801F282E182E95691
S11346F0FF4F84E080832091600730916107C901F6
S11347000296029710F0992069F03897EF01A2E51C
S1134710B7E088E00D9009928150E1F762E183E20D
S113472090EC05C0329322936CE083E290E8CC20B5
S113473061F020915D0730915E076216730629F0DF
S11347406E5F3293229370E002C0806471E022E0D5
S1134750C21641F4AC015860D5018D919C9192939D
S1134760829328C0B3E0CB1661F4AC015C60389747
S11347706A5FEF01D50188E00D9009928150E1F75D
S113478019C02091D6073091D7074FEF2E3F340739
S113479029F0AC015860329322930CC0AC015C60E8
S11347A038976A5FEF01A4EEB7E088E00D900992B4
S11347B08150E1F73297772339F080915D0790912A
S11347C05E079183808302C07182608280919B071F
S11347D082938F5F80939B07529342936293D80195
S11347E01896FC93EE931797C80162E070E041E0DD
S11347F00E946B14882321F481E08093140804C080
S1134800C7010E94E30C80E0DF91CF911F910F91CB
S1134810FF90EF90DF90CF90BF90AF909F907F90EC
S11348206F900895EF92FF920F931F93DF93CF93AE
S113483000D000D0CDB7DEB70E94E30C80911308FE
S1134840823008F453C08091FC07823019F488E95F
S113485092E205C0833009F049C083EB92E29A8367
S113486089838FEF97E09C838B838EE797E07E01AB
S11348700894E11CF11CB7010E94B30DDC01009700
S113488081F00D911C911197F801878190852091F9
S1134890FD073091FE07FC018481958128173907B3
S11348A019F00E94F42222C081E0F8018683B283C9
S11348B0A1838EE797E0B7010E94B30D892B41F0E5
S11348C0D8011796ED91FC911897818180618183BD
S11348D0C80161E070E040E00E946B14882321F479
S11348E081E08093140802C0F80116820F900F90A3
S11348F00F900F90CF91DF911F910F91FF90EF9048
S11349000895EF92FF920F931F93CF93DF937C014F
S1134910E801DC01ED91FC9186E1808361834283AF
S113492034832383CF010596423069F415821682BD
S113493017821086118612861386148688819981BF
S11349409683858307C0DC01F80188E001900D920D
S11349508150E1F787E198E0B7010E94180DDF91DB
S1134960CF911F910F91FF90EF9008950F931F9394
S1134970DF93CF93CDB7DEB728970FB6F894DEBF99
S11349800FBECDBFDC01ED91FC91119719821A8203
S11349901B821C821D821E821F8218860780F0855E
S11349A0E02D4281469546954370842F8250823093
S11349B080F48681898387818A8380858B8381853E
S11349C08C8382858D8383858E8384858F8385857F
S11349D0888780911308833049F420915D073091D2
S11349E05E078E010F5F1F4FCD0156C0823009F064
S11349F03FC0423051F4268137818091D60790918F
S1134A00D7072817390759F533C0433041F5968144
S1134A108091E407981719F597818091E507981715
S1134A20F1F490858091E6079817C9F491858091F7
S1134A30E7079817A1F492858091E807981779F40D
S1134A4093858091E907981751F494858091EA073A
S1134A50981729F495858091EB07981749F02091D0
S1134A605D0730915E07CD018E010F5F1F4F14C0AB
S1134A708091600790916107029620915D073091C3
S1134A805E07029728F4CD0143E002E517E004C075
S1134A90CD0142E000E617E00E94812428960FB67B
S1134AA0F894DEBF0FBECDBFCF91DF911F910F9160
S1134AB00895CF93DF939C01FC01C081D181FE0155
S1134AC085E18193AFEFB7E088E00D9001928150CA
S1134AD0E1F780910A08898787E198E0B9010E948B
S1134AE0180D1092E4071092E5071092E607109251
S1134AF0E7071092E8071092E9071092EA0710926C
S1134B00EB078FEF9FEF9093D7078093D607DF9142
S1134B10CF910895EF92FF920F931F93DF93CF935A
S1134B20CDB7DEB72E970FB6F894DEBF0FBECDBF5C
S1134B308C01DC01ED90FC90DE011196F7018EE012
S1134B4001900D928150E1F7F7011283018383E014
S1134B508083EA56FF4F80838D85818338979F0138
S1134B6042E557E088E0DA010D90AD01D9010D92DC
S1134B709D018150C1F78A81823031F48D819E81FB
S1134B809293829333E10FC038979F01AE014B5F3C
S1134B905F4F88E0DA010D90AD01D9010D929D01BE
S1134BA08150C1F739E180915D0790915E0792933E
S1134BB0829380919B0782938F5F80939B072A81C6
S1134BC0922F990F990F80E08366906C9293829351
S1134BD03293D7011896FC93EE93179716961C926E
S1134BE0809113088250823008F060C08E8588233B
S1134BF009F45CC08A818230D1F48D818B3409F050
S1134C0041C08E818823F1F58F818823D9F5888569
S1134C108823C1F589858823A9F58A85882391F598
S1134C208B85882379F58C85882361F55BC0833077
S1134C3009F058C09D818091E407981719F59E8169
S1134C408091E5079817F1F49F818091E607981702
S1134C50C9F498858091E7079817A1F49985809104
S1134C60E807981779F49A858091E907981751F421
S1134C709B858091EA07981729F49C858091EB071E
S1134C80981781F18EE797E0B8010E94180D809182
S1134C909D0790919E07F7019583848381E00E948C
S1134CA001088823F9F40E9487271CC00E940D2A5A
S1134CB0D8018D919C9162E070E041E00E946B14F8
S1134CC0882321F481E0809314080CC02B813C815B
S1134CD0C80161EE4A818E010B5F1F4F0E9481243F
S1134CE00E94322A2E960FB6F894DEBF0FBECDBFB7
S1134CF0CF91DF911F910F91FF90EF900895DC0108
S1134D00ED91FC911197E081E43278F4F0E0EE0F3C
S1134D10FF1FE05DFE4F259134912115310519F0F7
S1134D20F901099508950E94E30C08951F93809159
S1134D301408882381F480919707882361F083E91C
S1134D4097E060E070E00E94AD0D009721F00E94B2
S1134D507F2611E001C010E08091DF07882359F01D
S1134D608BED97E060E070E00E94AD0D009719F0C4
S1134D700E947F2611E0812F1F910895FC018681F6
S1134D80882329F48481958101979583848380E025
S1134D900895FC018681882311F020E006C020E0FC
S1134DA084819581892B09F421E0822F0895FB01E8
S1134DB020E0DC0113969C918081981709F421E08E
S1134DC0822F0895DC01ED91FC91119780E180839D
S1134DD04183628387E198E0BD010E94180D089524
S1134DE0EF92FF920F931F93DF93CF9300D000D0E5
S1134DF00F92CDB7DEB77C01FC0100811181F8016F
S1134E00918182E18083998387ED96E29B838A83F3
S1134E10CE0101969D838C838EE797E0BE016E5F81
S1134E207F4F0E94AD0D009729F00E94E30CF8011A
S1134E30128203C087EEF801828387E198E0B7010C
S1134E400E94180D0F900F900F900F900F90CF911C
S1134E50DF911F910F91FF90EF900895FF920F93B0
S1134E601F93DF93CF9300D000D0CDB7DEB78EEB86
S1134E7096E29A8389838EE797E08E010F5F1F4F36
S1134E80B8010E94B30D89EC96E29A838983F02ECF
S1134E90012F10E18EE797E06F2D702F0E94AD0D6A
S1134EA0DC01009721F19C9111962C911197E92F27
S1134EB0F22F8081833049F08D3061F0823051F7D8
S1134EC080EFBD010E943D2AE5CFCD0160EF0E9435
S1134ED0B624E0CF8381E92FF22F1083818380EF02
S1134EE0828387E198E0BD010E94180DD3CF8091A1
S1134EF08207882311F00E9487270F900F900F904C
S1134F000F90CF91DF911F910F91FF900895EF9231
S1134F10FF920F931F9381E040E050EE61E070E058
S1134F2020E030E00EE217E2EE24FF240E94120A91
S1134F30882321F080E090E00E942E271F910F919A
S1134F40FF90EF9008950F931F93DF93CF93CDB706
S1134F50DEB728970FB6F894DEBF0FBECDBFAC0105
S1134F60DC019C9111962C9180910908882321F4ED
S1134F70CA010E94E30C13C1E92FF22F8091F007BC
S1134F80808F2091FC0721838091FD079091FE077B
S1134F9093838283822F8250823010F5148215828B
S1134FA0168217821086118612861386223039F4EF
S1134FB08091FF0790910008958384831BC0233060
S1134FC0C9F49F012C5F3F4F6FEF77E088E0DB016E
S1134FD00D90BD01D9010D929D018150C1F70AC008
S1134FE01382128214821582168217821086118609
S1134FF012861386208D80917D07281761F5948190
S113500080918507981739F59581809186079817BF
S113501011F59681809187079817E9F4978180911B
S113502088079817C1F4908580918907981799F497
S1135030918580918A07981771F4928580918B07E6
S1135040981749F4938580918C07981721F4CA0125
S11350500E94E30C5AC020937D07848180938507C6
S113506085818093860786818093870787818093D3
S11350708807808580938907818580938A07828544
S113508080938B07838580938C072091F107248775
S11350901786108A118A128A138A148A158A168A24
S11350A08091F2079091F30796878587233079F4EE
S11350B09F01215F3F4F64EF77E088E0DB010D90B3
S11350C0BD01D9010D929D018150C1F70BC0223061
S11350D039F48091F4079091F507908B878702C08B
S11350E01686158680910808878B80910908818F20
S11350F080910A0890910B08938F828F81E18083BD
S113510087E198E0BA010E94180D8091EC0784FFB2
S113511046C080911308833009F443C08091FC0792
S1135120823071F48091FF07909100089A838983FB
S11351300091FD071091FE0780E060E042E021C08D
S1135140833019F58091FF078983809100088A8351
S1135150809101088B83809102088C8380910308DD
S11351608D83809104088E83809105088F838091BC
S1135170060888870091FD071091FE0780E060E033
S113518043E09E012F5F3F4F07C080E060E040E0B6
S113519020E030E000E010E00E944F2302C00E94B3
S11351A0322A28960FB6F894DEBF0FBECDBFCF913A
S11351B0DF911F910F910895CF92DF92EF92FF92AA
S11351C00F931F93DF93CF93CDB7DEB762970FB6DC
S11351D0F894DEBF0FBECDBF8C01DE011196FC0139
S11351E0808191819C01F90182E101900D928150AD
S11351F0E1F78F8582FD11C080918F07882321F408
S113520080919807882349F09E85D801ED91FC91FF
S113521080E18083918381EEAEC0F801E080F1806B
S11352208DE0D7018C938E8513968C9313971696E5
S11352301C92888945E0D42ED80EE8E9F0E0E81BFA
S1135240F109EE0DFF1D9A81923051F437E0D32E0F
S1135250D80E80916007909161079293829312C057
S1135260933081F438972DE0D22ED80E9F0142E579
S113527057E088E0DA010D90AD01D9010D929D014E
S11352808150C1F720915D0730915E078C819D812B
S11352902817390749F48A81882331F08B818823C0
S11352A019F040E450E009C08A81882321F0B2E07B
S11352B0DB0E3293229340E050E08B81882311F17E
S11352C0823039F46D2D6E5F8E819F81929382932B
S11352D012C038976D2D685F9F0196E0C92ED12CBE
S11352E0CC0EDD1E88E0D6010D906D01D9010D9222
S11352F09D018150C1F782E0D82ED60E8C819D810C
S11353009293829380919B0782938F5F80939B07F4
S1135310BA0161608F8580FF02C0BA016162888929
S1135320873608F070618B81382F330F330F20E0FC
S11353304A81942F9295990F990F907C80E0282BA5
S1135340392B262B372B329322933296D7FC0BC062
S11353503397D082D7011896FC93EE9317978F85D5
S113536082FD10C028C09E85D801ED91FC9180E19A
S11353708083918385EE828387E198E0B8010E945F
S1135380180D3CC08091130882508230A0F48EE73F
S113539097E0B8010E94180D80919D0790919E0797
S11353A0F7019583848381E00E940108882331F505
S11353B00E94872723C00E940D2AD70112961C93AE
S11353C00E931197C70162E070E041E00E946B14F4
S11353D0882321F481E08093140810C09E85D801AD
S11353E0ED91FC9180E18083918381EE828387E15A
S11353F098E0B8010E94180D0E94322A62960FB6F6
S1135400F894DEBF0FBECDBFCF91DF911F910F91F6
S1135410FF90EF90DF90CF90089580911508813030
S113542051F40E94EA18853831F081E090E00E943E
S11354309D0710921508089580911508882389F412
S113544080E090E00E949D0780E00E94F918882384
S113545021F481E080931508089581E090E00E9492
S11354609D07089580918307882331F48091D8079C
S1135470882311F40E941C2A0895DF93CF93CDB79B
S1135480DEB728970FB6F894DEBF0FBECDBF482F06
S11354909B01DB01ED91FC910780F085E02DDE019D
S11354A01196369688E001900D928150E1F7D9016A
S11354B0ED91FC918CE1808380915D0790915E0772
S11354C09283818393E093838091520784838091B4
S11354D0530785838091540786838091550787837A
S11354E0809156078087809157078187809158075C
S11354F082878091590783879487898185878A81E8
S113550086878B8187878C81808B8D81818B8E812F
S1135510828B8F81838B8885848B458B87E198E090
S1135520B9010E94180D28960FB6F894DEBF0FBE7D
S1135530CDBFCF91DF9108950F931F93182F109231
S113554014081092130810921508109298071092DC
S11355509A0710928F0710927D078FEF809385072B
S113556080938607809387078093880780938907B1
S113557080938A0780938B0780938C071092D807B7
S113558088E00E9419190FB7F89480E00E94060978
S113559081E00E94060982E00E94060983E00E94DD
S11355A006090FBF112309F440C01092160882ECBB
S11355B097E0909392078093910780E098E7909307
S11355C0E1078093E00710928E0710927C071092F7
S11355D09C070E94BC3A8093990784EF91E09093D2
S11355E09E0780939D0781E08093900786E08093D7
S11355F084071092E4071092E5071092E6071092D0
S1135600E7071092E8071092E9071092EA07109250
S1135610EB078FEF9FEF9093D7078093D6070E94F5
S1135620BC3A80939B07109283071F910F910895B2
S11356300F931F93CF93DF93EC01088119810E948C
S11356400D2AF801018180E090E00E949D0780E02E
S1135650011181E00E94B517182F81E090E00E94AB
S11356609D07802F0E949C2A0E94322A83E997E09A
S11356700E94B90D8BED97E00E94B90D87E198E087
S11356800E94B90D8EE797E00E94B90DE881F98177
S1135690118380E2808387E198E0BE010E94180DA7
S11356A0DF91CF911F910F910895DF93CF9300D095
S11356B000D0CDB7DEB70E940D2A8FEF9FEF9A83FB
S11356C089839C838B8383E5BE016F5F7F4F0E9438
S11356D0EA2B80E5BE016D5F7F4F0E94EA2B81E0DB
S11356E00E949C2A0E94322A0F900F900F900F90D4
S11356F0CF91DF9108950E94E9178823B9F40E949D
S1135700D10B882399F081E00E949C2A0E94322ABE
S113571083E997E00E94110D8BED97E00E94110D33
S11357208EE797E00E94110D80E0089585E80895C2
S1135730FF920F931F93182FF92E40915D075091FC
S11357405E0789E0612F792F20916A0700915C0739
S11357500E94E936882329F481EE612F7F2D0E946F
S11357603D2A1F910F91FF900895CF93DF93EC0191
S1135770E881F9818AE18193AFEFB7E088E00D9089
S113578001928150E1F787E198E0BE010E94180D73
S1135790DF91CF910895E82F853419F480919C0707
S11357A00895883030F4E82FF0E0E858FE4F8491F3
S11357B008958054803228F4F0E0E05CFE4F849138
S11357C00895E03F10F480E00895F0E0E055FF4FC5
S11357D0849108951F93CF93DF93182FEB01809149
S11357E01508813051F40E940D2A812FBE010E94B8
S11357F02716182F0E94322A04C0812F0E942716D0
S1135800182F812FDF91CF911F9108950F931F932C
S1135810CF93DF938C01FC01C081D181BE016D5F08
S11358207F4F89818B3409F4A4C08C3478F5863099
S113583009F475C0873098F4823009F4D0C08330FD
S113584038F4882309F4BBC0813009F048C0BAC0D9
S1135850843009F45CC0853008F05CC0C3C0853472
S113586009F469C0863448F4813409F461C082348F
S113587009F45BC0873099F555C0893409F468C0D0
S11358808A3408F06DC0863451F55FC0853509F45B
S113589062C08635A0F48F3409F476C0803530F4C4
S11358A08C3409F46BC08E34D1F46BC0823509F4A6
S11358B073C0833509F473C0803589F468C08935B1
S11358C0D9F08A3528F4873579F0883580F409C011
S11358D08D35D1F0803F09F469C08A3581F094EFA9
S11358E085C08091160880C080916C077DC080912E
S11358F091079091920757C08091700775C080916D
S1135900E0079091E1074FC080918E076DC08091B0
S11359105C076AC080915A0790915B0744C08091EC
S1135920720762C0809169075FC0809190075CC074
S113593080917C0759C040919C0722EA37E0CB0153
S1135940B90150E00E94D93A50C080919C074CC0E4
S11359508091990749C080919D0790919E0723C02B
S1135960DB01E4EEF7E088E001900D928150E1F76D
S11359703CC08091D6079091D70715C080919B07B2
S113598033C08091680730C080916F072DC080912B
S11359905D0790915E0707C08091830725C08091C1
S11359A06007909161079C838B831FC0DB01E2E554
S11359B0F7E088E001900D928150E1F716C08091E4
S11359C06A0712C08091760790917707A0917807B3
S11359D0B09179078B839C83AD83BE8306C080918D
S11359E0510702C080915F078B8390E089818A838D
S11359F08EE18883998387E198E0B8010E94180DAD
S1135A00DF91CF911F910F910895FF920F931F93F0
S1135A10CF93DF93182FEB01F42E8B3409F49BC042
S1135A208C3440F5833409F4B1C0843478F485307F
S1135A3038F4823008F0AAC0882309F4A7C03EC015
S1135A40813409F453C08234C9F548C0863409F45A
S1135A505AC0873430F4843409F444C0853471F571
S1135A6049C0893409F453C08A3408F05BC08734D0
S1135A7029F58CC0853509F44EC0863570F481351E
S1135A8030F48E3408F082C08C34C1F46BC082359B
S1135A9009F46CC0823590F079C08835A9F0893555
S1135AA028F4863569F0873549F470C08A3579F071
S1135AB08A3508F46BC0803F09F468C004EFC7C09E
S1135AC0888180931608C2C088819981BBC088816F
S1135AD099819093E1078093E007B8C0888180930F
S1135AE09007B4C0888180938407B0C08881809374
S1135AF07C07ACC022EA37E040919C07C90150E022
S1135B000E94D93AA3C0888180939C079FC0888152
S1135B10809399079BC08881998190939E07809375
S1135B209D0794C088818093E40789818093E50769
S1135B308A818093E6078B818093E7078C81809329
S1135B40E8078D818093E9078E818093EA078F812E
S1135B508093EB077BC0888199819093D7078093CA
S1135B60D60774C0888180939B0770C068816111D7
S1135B7061E060938307662331F00E940D2A86E07A
S1135B800E94191963C00E94322A60C0812FBE018D
S1135B900E942716082F813871F40E94EA18812F79
S1135BA0BE010E942716082F882309F050C081E007
S1135BB08093F20603C0882309F049C080916807E6
S1135BC0282F30E080916C07482F50E060916F07D8
S1135BD0CA01861B9109281739070CF4C901A82F9B
S1135BE0281B310981E090E002C0880F991F4A9573
S1135BF0E2F70197289FA001299F500D389F500D6F
S1135C00112420E030E070E0E1E0F0E00DC0C901D3
S1135C10860F971FEF0102C0CC0FDD1F8A95E2F7B4
S1135C204C0F5D1F2F5F3F4F2A1788F384E190E0EC
S1135C309C01429FC001439F900D529F900D1124DF
S1135C40865F9E4F909392078093910700E0FF2018
S1135C5049F08091F206882329F080E00E94F91827
S1135C601092F206802FDF91CF911F910F91FF9038
S1135C700895EF92FF920F931F937C01FC01008122
S1135C801181B8016E5F7F4FF801818141E00E946C
S1135C90052DF801918192839FE19083818387E1AF
S1135CA098E0B7010E94180D1F910F91FF90EF909B
S1135CB00895CF93DF93EC01E881F98183E2808337
S1135CC06183662311F00E94322A87E198E0BE01C5
S1135CD00E94180DDF91CF9108958091EE078823DB
S1135CE0E1F080E00E9406098091EE07813031F4F2
