:100000000C946E000C948D000C948D000C948D005B
:100010000C948D000C948D000C948D000C948D002C
:100020000C948D000C948D000C948D000C948D001C
:100030000C948D000C948D000C948D000C948D000C
:100040000C94D0020C9496060C948D000C948D00A8
:100050000C9465060C948D000C948D000C948D000E
:100060000C948D000C948D000C948D000C948D00DC
:100070000C948D000C948D000C948D000C948D00CC
:100080000C948D000C948D000C948D000C948D00BC
:100090000C948D000C948D000C948D000C948D00AC
:1000A0000C948D000C948D000C948D000C948D009C
:1000B0000C948D000C948D000C948D000C948D008C
:1000C0000C948D000C948D000C948D0003020201A1
:1000D000010000FFFEFDFCFBF9F7F4EF11241FBE49
:1000E000CFEFD1E2DEBFCDBF12E0A0E0B2E0E4E5A9
:1000F000F0E200E00BBF02C007900D92A430B10700
:10010000D9F714E0A4E0B2E001C01D92A835B10710
:10011000E1F70E94DC000C9428100C9400001F935F
:10012000CF93DF93882391F4109106021B50C0E116
:10013000D2E082E0BE01412F0E94AF02811778F425
:10014000181BC80FD11D0E947103F3CF813E69F4C3
:1001500082E090E090930502809304020AC081E05F
:1001600090E062E070E00E94700710920502109229
:100170000402DF91CF911F9108951F93CF93DF93D6
:10018000FC0110811B50EC012A9682E0BE01412F38
:100190000E94AF02811730F4181BC80FD11D0E94B6
:1001A0007103F3CF80E090E062E070E00E9470079E
:1001B000DF91CF911F910895CF92DF92EF92FF923E
:1001C0000F931F93DF93CF9300D00F92CDB7DEB77D
:1001D0000E94650E882311F00E94FB020E94DA063D
:1001E0000E94600780E090E060E070E00E9470078D
:1001F00080E090E061E070E00E94700781E090E0B4
:1002000061E070E00E947007789482E00E94B8027A
:10021000882311F00E94FB028BE08093060281E6A6
:1002200098E890930802809307020E949D0F8093A4
:1002300009028EEF9AEC90930B0280930A0221E060
:10024000E22EF12CF0920D02E0920C029B838A8345
:100250008E010E5F1F4F80E5B8010E94050DFB82E5
:10026000EA8283E5B8010E94050D8A819B81909303
:100270000F0280930E0284E1898380E0BE016F5FEC
:100280007F4F0E94050D86E00E94170F88E8C82E58
:1002900082E0D82E00E112E00E9471030E94FF0A62
:1002A00080910402909105020097F9F482E068E8D9
:1002B00072E04EEF0E94A602482F882369F3F09265
:1002C0000502E0920402809109028F5F8093090287
:1002D000473608F046E6455F409306024B50C8019A
:1002E000B60150E00E94AD0F06C00297A9F6F09249
:1002F0000502E092040286E092E062E070E041E0F4
:100300000E940E0CC9CF8FEF87B918B8E4E7F0E070
:1003100080818068808380E8809375008DB18F73C1
:100320008DB90895DC0180918603882311F080E067
:1003300008959091880380918703981710F0875F44
:1003400001C08150891B282F681708F4262F80913F
:100350008B03820F80938B03322F0DC0E92FF0E0C7
:10036000E756FC4F8C918083993011F490E001C0E6
:100370009F5F31501196332389F790938803822F22
:100380000895DC0190918C03992311F480E0089585
:100390009A3058F080918A03809389038AE0809391
:1003A0008C036A3020F09AE003C0961708F0962F6D
:1003B0002091890340918C03392F0CC0E22FF0E08B
:1003C000ED55FC4F80818C932F5F2A3009F420E09B
:1003D00011963150332391F720938903491B4093A1
:1003E0008C03892F08951F93DF93CF9300D000D003
:1003F000CDB7DEB76CB167FD18C080918C038A3031
:10040000A0F48F5F80938C0390918A0380910022E7
:10041000E92FF0E0ED55FC4F8083993019F41092EC
:100420008A0303C09F5F90938A03B0918B03BB2321
:1004300009F052C083C061157105B1F4AA2329F0F7
:1004400020E030E040E050E0A0E0E92FF0E0E756A7
:10045000FC4F808180930022993011F490E001C01C
:100460009F5F1150B15048C020938D0330938E038D
:1004700040938F0350939003A09386039093870338
:10048000B0938B03AA2309F059C02115310541050A
:10049000510529F48DE893E00E9491034FC0CE01ED
:1004A00001960E94910389819A81AB81BC81209140
:1004B0008D0330918E0340918F0350919003821BE6
:1004C000930BA40BB50B89589341A040B040B0F1F9
:1004D00081E08093860332C020918D0330918E039A
:1004E00040918F0350919003A091860390918703D0
:1004F0001FEF70E060747070BB2379F420938D035C
:1005000030938E0340938F0350939003A093860300
:100510009093870310928B0311C0112309F08BCFA6
:1005200020938D0330938E0340938F035093900359
:10053000A093860390938703B0938B030F900F9043
:100540000F900F90CF91DF911F910895823011F09D
:1005500080E00895CB01642F0E94C101089582308C
:1005600011F080E00895CB01642F0E94920108955C
:10057000823011F085E808950E94830180E008959B
:100580009093920380939103EFE6F0E080818F7D5A
:100590008083E1E8F0E0808180648083B59A0895EB
:1005A0001F920F920FB60F920BB60F9211242F933A
:1005B0003F934F935F936F937F938F939F93AF93EB
:1005C000BF93EF93FF93E0919103F091920309950C
:1005D000FF91EF91BF91AF919F918F917F916F911B
:1005E0005F914F913F912F910F900BBE0F900FBED7
:1005F0000F901F9018950E9460078FEF9FEF0E9449
:10060000B20380E090E062E070E00E94700781E059
:1006100090E062E070E00E947007EFCFCF92DF922F
:10062000EF92FF920F931F93CF93DF937B018A0189
:100630006901892B11F088EE19C0CA01860F971F36
:100640008150904110F085E811C0C0E0D0E00AC0B0
:10065000CE018E0D9F1D0E94B60FF601EC0FFD1FFF
:1006600080832196C017D10798F380E0DF91CF9166
:100670001F910F91FF90EF90DF90CF900895CF9250
:10068000DF92EF92FF920F931F93CF93DF938C0132
:100690007B016A01CB01800F911F8150904110F0C6
:1006A00085E816C0C0E0D0E00FC0C8010E94B60FB8
:1006B000F601EC0FFD1F6081861719F0C8010E943A
:1006C000BE0F0F5F1F4F2196CE15DF0570F380E040
:1006D000DF91CF911F910F91FF90EF90DF90CF901E
:1006E00008950E9438050E94F301089580E090E08B
:1006F00020E80FB6F89420936100809361000FBE4C
:100700000E944A070E94D307269A0E94A90680E009
:100710000895892B11F482E401C087E4809381005D
:100720000895FC012091AD033091AE03C901A0E012
:10073000B0E0BC015527442780918400909185004A
:10074000A0E0B0E0482B592B6A2B7B2B8091AD03A6
:100750009091AE032817390729F7408351836283AC
:10076000738308954FB7F8948630910518F120915E
:10077000840030918500280F391F8091840090916A
:1007800085008217930740F4809184009091850042
:1007900082179307C8F30EC0809184009091850062
:1007A00028173907C8F3809184009091850082173B
:1007B0009307C8F34FBF089520E090E0FC0153E099
:1007C000EE0FFF1F5A95E1F7E80FF91FE155FC4FB7
:1007D00084819581892B09F021E0822F0895DF9291
:1007E000EF92FF920F931F93DFB6F89480919503D9
:1007F0008F3F09F453C090E0FC01A3E0EE0FFF1F10
:10080000AA95E1F7E80FF91FE155FC4FE080F18070
:10081000028113812091AD033091AE03C801AA2754
:10082000BB272817390751F4F0928900E09288001D
:1008300082E086BB80916F00826003C080916F0070
:100840008D7F80936F006091AD037091AE039B012B
:1008500040E050E08091840090918500A901332709
:100860002227A0E0B0E0282B392B4A2B5B2B80916C
:10087000AD039091AE036817790729F72E193F0948
:10088000400B510B2F5F3F4F4F4F5F4F2F5F3F4F3D
:100890004F4F5F4718F481E080939403DFBE1F91B0
:1008A0000F91FF90EF90DF9008958091940388233B
:1008B00009F44CC01092940330919303332309F44C
:1008C00045C0809196038F3F59F4809197038F3FE5
:1008D00039F480919503809397038093960312C017
:1008E000209195038091970390E0FC0143E0EE0F87
:1008F000FF1F4A95E1F7E80FF91FE155FC4F2087EC
:10090000209397038091950390E0FC0123E0EE0F84
:10091000FF1F2A95E1F7E80FF91FE155FC4F80858D
:10092000809395038091970390E0FC01B3E0EE0F74
:10093000FF1FBA95E1F7E80FF91FE155FC4F8FEF64
:1009400080873150309393030E94EF0308950F93F3
:100950001F93882311F08AE883C00FB7F8940E9490
:10096000550410919303112309F47DC04091950320
:10097000242F842F312F2223F1F4442339F4809142
:10098000B703809395030E94EF030EC090E0FC0133
:10099000A3E0EE0FFF1FAA95E1F7E80FF91FE1555D
:1009A000FC4F8091B70380878FEF8093B70311507E
:1009B000109393034AC0822F90E0FC0173E0EE0F86
:1009C000FF1F7A95E1F7E80FF91FE155FC4F5085BD
:1009D0003150822F09F447C0252FCDCF222319F59E
:1009E00020919703332359F4222321F48FEF80932E
:1009F000970302C08091B7038093960326C0842F8B
:100A000090E0FC0163E0EE0FFF1F6A95E1F7E80F4D
:100A1000F91FE155FC4F8091B70380872223A9F489
:100A20004093970312C0822F90E0FC0153E0EE0F39
:100A3000FF1F5A95E1F7E80FF91FE155FC4F422FD0
:100A400020852F3F59F680E005C01092B403109224
:100A5000B30381E00FBF882311F489E801C080E06F
:100A60001F910F91089530919603232F432FE9CFC3
:100A70001F931FB7F8940E9455041FBF1FEF25C096
:100A80006FB7F894822F90E0FC01B3E0EE0FFF1FE8
:100A9000BA95E1F7E80FF91FE155FC4F2085448135
:100AA000558186819781108715821482178216825C
:100AB0002F3F09F43FEF6FBF4115510551F03093BF
:100AC000970320939603FA0109953091970320919B
:100AD00096032F3FA9F630939703209396031F9117
:100AE00008954F925F926F927F929F92AF92BF92C2
:100AF000CF92DF92EF92FF920F931F935A016B01F7
:100B0000F901882311F08AE8C0C00115110509F424
:100B1000B9C08091B3039091B403892B11F088E898
:100B2000B4C06091AD037091AE039B0140E050E012
:100B30008091840090918500A90133272227A0E0AD
:100B4000B0E0282B392B4A2B5B2B8091AD03909181
:100B5000AE036817790729F7309721F0319709F02C
:100B600091C011C0D601C50180589040A040B0404E
:100B700080589F4FAF4FBF4708F086C0A20EB31EEC
:100B8000C41ED51E10C0D601C50180589040A0409B
:100B9000B040821B930BA40BB50B80589F4FAF4FF7
:100BA000BF4708F071C09FB6F8940E945504309179
:100BB00095033F3F31F060919303432F232F50E083
:100BC00041C0109295033093B70327C02F3FA9F17E
:100BD000822F90E0FC0173E0EE0FFF1F7A95E1F7A2
:100BE000E80FF91FE155FC4F80819181A281B3810B
:100BF00025013601481A590A6A0A7B0AD301C20143
:100C00008F5F9F4FAF4FBF4710F4808518C0209370
:100C1000B703321721F41092950391E017C0842F87
:100C200090E0FC0133E0EE0FFF1F3A95E1F7E80F8B
:100C3000F91FE155FC4F108646C08FEF242F5F5FF0
:100C4000422F282F561708F4C1CF2DC0A092AF0312
:100C5000B092B003C092B103D092B2031093B40328
:100C60000093B303F092B603E092B503809193032F
:100C70008F5F80939303992311F00E94EF039FBE2F
:100C800080E003C088EE01C08BE81F910F91FF90B8
:100C9000EF90DF90CF90BF90AF909F907F906F903C
:100CA0005F904F900895842F90E0FC0123E0EE0FB9
:100CB000FF1F2A95E1F7E80FF91FE155FC4F108659
:100CC0008FEF8093B70390E0C1CF1F920F920FB6C2
:100CD0000F920BB60F9211242F933F934F935F9374
:100CE0006F937F938F939F93AF93BF93EF93FF93F4
:100CF0008091AD039091AE0301969093AE038093E3
:100D0000AD030E94EF03FF91EF91BF91AF919F91CF
:100D10008F917F916F915F914F913F912F910F90A4
:100D20000BBE0F900FBE0F901F9018951F920F9241
:100D30000FB60F9211248F9380919303882319F09B
:100D400081E0809394038F910F900FBE0F901F90BE
:100D5000189510929303109294031092AE03109280
:100D6000AD038FEF80939503809396038093970351
:100D70008093B7031092B4031092B3030E945107FB
:100D80000895FC018091AD039091AE0320918600FF
:100D900030918700A0E0B0E0DC019927882740E08F
:100DA00050E0822B932BA42BB52B80839183A283BD
:100DB000B3830895CF92DF92EF92FF920F931F9328
:100DC000DFB6F894E090B100F090810000918000CF
:100DD0001092B1001092810010928000E0E06FEF5D
:100DE0007FEF40E050E01FEFF1E0A0E2CA2EA4E266
:100DF000B4EF16BB17BB1092B20010928500109290
:100E00008400F0938100F093B100C092B600B89BCB
:100E1000FECF109281001092B10020918400309199
:100E200085002115310511F480E024C084EF2532BE
:100E3000380720F4CD01821B930B03C0C9018452F3
:100E4000944F8617970718F4E0916600BC0125526D
:100E5000344F20F4809166008F5F03C0809166005C
:100E60008150809366004F5F5F4F4436510509F013
:100E7000C0CF81E0E092B100F09281000093800049
:100E8000DFBEE09366001F910F91FF90EF90DF901F
:100E9000CF900895209A219A259A229A249A2398ED
:100EA000089582E48093810082E086BB84E086BB63
:100EB00088E086BBEFE6F0E0808181608083089562
:100EC0009FEF97B918B8E4E7F0E0808180688083ED
:100ED00080E88093750010929803909300400895E5
:100EE000019711F441E001C040E06115710531F056
:100EF0002091980361307105B9F40BC021E030E016
:100F000002C0220F331F4A95E2F780919803822B8B
:100F100008C002C0660F771F4A95E2F7862F8095BA
:100F200082238093980322C0822F90E0042E02C077
:100F3000959587950A94E2F780FF0CC081E090E0D8
:100F400002C0880F991F4A95E2F78095822380930B
:100F500098030AC081E090E002C0880F991F4A956B
:100F6000E2F7282B209398038091980380958C6F4B
:100F70008093004008958FEF87B918B8E4E7F0E058
:100F800080818068808380E8809375000895209137
:100F9000004030E02095309521703070C9010895EF
:100FA00080E090E0089580E58CBD81E08DBD8CB53A
:100FB0008C7F8CBD289A089520916F0090916F00CE
:100FC0009F7D90936F00806C28988EBD0DB407FEB6
:100FD000FDCF6EBD0DB407FEFDCF289A20936F00A4
:100FE000089520916F0090916F009F7D90936F0006
:100FF000806828988EBD0DB407FEFDCF1EBC0DB4D1
:1010000007FEFDCF8EB5289A20936F000895FC014E
:10101000289880E28EBD0DB407FEFDCF1EBC613066
:1010200089F0DF01262F0DB407FEFDCF8EB51EBC63
:101030008D9321502230B8F76250862F90E00196B0
:10104000E80FF91F0DB407FEFDCF8EB58083289AF7
:101050000895FC01289880E68EBD0DB407FEFDCFF3
:10106000819161500DB407FEFDCF8EBD6623C1F79F
:101070000DB407FEFDCF289A0895FF920F931F939A
:10108000062FF42E0E94F107082310E002C01595E8
:101090000795FA94E2F7802F1F910F91FF90089522
:1010A000DF92EF92FF920F931F93D82EF62EE42E2D
:1010B000022F0E94F10710E002C0000F111FEA94F6
:1010C000E2F76F2D6023F094F8226F298D2D0E9496
:1010D000DC071F910F91FF90EF90DF9008950F9321
:1010E0001F93DF93CF93CDB7DEB728970FB6F89451
:1010F000DEBF0FBECDBF81E06FE140E00E943D0842
:101100008830D9F580916F008F7D80936F008EE0DD
:1011100061E00E94DC078FE00E94F10782E069E055
:101120000E94DC07CE0101960E9491038E010B5FA5
:101130001F4F8FE00E94F10780FD14C0C8010E947C
:1011400091038D819E81AF81B88529813A814B8140
:101150005C81821B930BA40BB50B89509740A04078
:10116000B04038F380E286BB8EE068E00E94DC0786
:1011700080916F00806280936F0028960FB6F8947C
:10118000DEBF0FBECDBFCF91DF911F910F910895AC
:101190001F93CF93DF93EC018091D0039091D10303
:1011A0000F97B9F42C9881E06FE140E00E943D0870
:1011B0008830C9F7C830D10519F0C330D10549F4DA
:1011C00088E090E09093D1038093D00328E030E052
:1011D00011C281E06FE140E00E943D088093D0039E
:1011E0001092D103C930D10509F475C0CA30D105B8
:1011F00060F4C630D10509F4FAC0C830D10509F44D
:101200003DC0239709F0E8C149C0C631D10509F4B2
:1012100040C1C731D10520F42A9709F0DDC176C05D
:10122000C931D10509F487C16A9709F0D5C182E0B7
:1012300063E00E94DC070E949D0F682F192F8DE24A
:101240000E94DC078EE267E040E0212F0E945008F8
:10125000000000000000000000000000000000008E
:101260002C9A83E290E00E94B2038FE090E090938A
:10127000D1038093D0032FE030E0BCC1883009F463
:10128000ABC182E068E00E94DC07000000000000C3
:10129000000000000000000000009EC1883009F43A
:1012A0009BC1893159F482E063E00E94DC072C9AEB
:1012B00082E090E00E94B2032C988EC182E063E04D
:1012C0000E94DC0700000000000000000000000099
:1012D0000000000081C1883009F486C0893020F404
:1012E000863009F079C105C0863119F0893109F0DD
:1012F00073C182E069E00E94DC070000000000008A
:101300000000000000000000000066C1883009F401
:101310006BC0893040F4823069F1863061F08130F1
:1013200009F05AC108C0823109F43EC0863119F073
:10133000813109F051C110916F0080916F008F7D54
:1013400080936F0082E063E00E94DC0782E069E046
:101350000E94DC078FE00E94F10780E286BB1093B9
:101360006F0000000000000000000000000000000E
:10137000000032C110916F0080916F008F7D8093CB
:101380006F0082E063E00E94DC0782E069E00E9477
:10139000DC0710936F000000000000000000000058
:1013A00000000000000018C110916F0080916F00D4
:1013B0008F7D80936F0082E063E00E94DC072C98B1
:1013C00082E090E00E94B2032C9A82E069E00E94E1
:1013D000DC0710936F000000000000000000000018
:1013E000000000000000F8C00E946F08F5C08930BE
:1013F00061F08A3020F4883009F0EEC013C08631E5
:1014000001F1893109F0E8C01CC082E066E00E9469
:10141000DC070000000000000000000000000000E9
:101420000000DAC00E946F0882E066E00E94DC07DC
:1014300000000000000000000000000000000000AC
:10144000CBC082E069E00E94DC07000000000000E1
:101450000000000000000000000081E06FE140E0BB
:101460000E943D08282F30E03093D1032093D00311
:101470002930310509F0BEC082E066E00E94DC0739
:10148000000000000000000000000000000000005C
:10149000A3C08830C9F0893020F4863009F09CC0A0
:1014A00022C0893021F0893109F096C01CC082E049
:1014B00066E10E94DC070000000000000000000060
:1014C00000000000000088C00E946F0882E066E112
:1014D0000E94DC0700000000000000000000000087
:1014E0000000000079C082E069E00E94DC07000093
:1014F000000000000000000000000000000081E08B
:101500006FE140E00E943D08282F30E03093D10386
:101510002093D0032930310509F06CC082E066E1E8
:101520000E94DC0700000000000000000000000036
:101530000000000051C0883009F440C0893020F418
:10154000863009F049C013C0893021F0863109F096
:1015500043C00DC082E069E10E94DC07000000008A
:1015600000000000000000000000000035C082E024
:1015700069E00E94DC07000000000000000000009D
:1015800000000000000081E06FE140E00E943D08A3
:10159000282F30E03093D1032093D0032930310538
:1015A00049F582E069E10E94DC07000000000000CC
:1015B000000000000000000000000EC00E946F0844
:1015C00082E069E10E94DC070000000000000000EA
:1015D000000000000000000081E06FE140E00E9498
:1015E0003D08282F30E03093D1032093D0032F31D2
:1015F000310591F3C901DF91CF911F910895809139
:10160000D503882321F00E94140B1092D5038091FA
:10161000D3039091D403009731F08F7082508230C1
:1016200010F40E94110C0895CF93DF93E091D6033C
:10163000F0E0EF012196DE01AA52BC4FAC91EA52D4
:10164000FC4F2281203210F02FE103C0222309F445
:1016500021E0A295A695A695A3708FEFA89FC00143
:10166000112430E0AC01429FC001439F900D529F76
:10167000900D11246DE570E00E942E0F6F3F7105F3
:1016800011F008F06FEFCA52DC4F688386ED93E0EB
:101690000E94BD00DF91CF9108951F93DF93CF93F8
:1016A0000F92CDB7DEB787E00E94F107182FCE0169
:1016B000019661E00E940708698167FD0DC06E5FB9
:1016C00086ED93E00E940708E981F0E0EA52FC4FC2
:1016D000128381E08093D5030F90CF91DF911F910A
:1016E00008958091D3039091D4038230910599F5A8
:1016F00082E060EE45E00E943D088330B1F0843026
:1017000028F4882361F08130E1F403C08530C9F406
:1017100012C08091D3039091D403806117C080914F
:10172000D3039091D403806211C08091D303909130
:10173000D40380630BC08091D3039091D403806461
:1017400005C08091D3039091D40380659093D40316
:101750008093D3030895039731F483E290E090934C
:10176000D4038093D30308950F931F93CF93DF93F4
:101770008C01EB01442359F08CE260EF44E02091AE
:10178000CF030E945008C230D10528F50AC062304C
:10179000710538F08CE260EF44E020E00E945008D0
:1017A0001AC089E090E00E94C8080997D1F783E049
:1017B00090E09093D4038093D3032197C1F4F80170
:1017C0008081833118F080E492E002C080E890E0EC
:1017D0000E94B2030CC089E190E00E94C8084997BA
:1017E000D1F782E090E09093D4038093D30380916B
:1017F0006F008F7D80936F002C9A2C98F801608188
:101800006150C8010E94290880916F008062809316
:101810006F00DF91CF911F910F9108950E94B40B3B
:1018200008958091D3039091D4039C01207F307060
:101830008F7090708230910521F0039709F03FC0BE
:1018400034C020333105E9F02133310538F420313B
:10185000310559F02032310591F50DC020343105A4
:10186000B1F02035310559F518C01092D40310920B
:10187000D30387E817C01092D4031092D30380E0FB
:1018800011C01092D4031092D30381EE0BC01092BA
:10189000D4031092D30389EE05C01092D4031092A2
:1018A000D30385E80E948F0008952032310539F472
:1018B0001092D4031092D30380E00E948F00089509
:1018C000282F85FD03C0982F9F7304C0982F9195F2
:1018D0009F719195ECECF0E08491891734F03F967C
:1018E0008491981714F0822F0CC0803E3CF0803217
:1018F0003CF487FF06C08F71806203C080E201C0A4
:101900008FE18068089584E08093C90323E02093E9
:10191000CE038FEF9FEF9093C5038093C403909302
:10192000C8038093C7038BE08093CB031092C3035B
:1019300085E08093CD032093CF0383E80E94600C61
:101940008093B80381E08093C6031092CC0308957E
:1019500085FD03C0982F9F7304C0982F91959F71A8
:101960009195ECECF0E080E02491921724F0291797
:101970003CF4815008958F5F31968031A9F780E063
:1019800008951F93CF93DF9382E26091C4030E9476
:10199000DC076091C50383E20E94DC07C9EBD3E05A
:1019A00014E2812F69910E94DC071F5F1C32C9F786
:1019B00080E26091C7030E94DC076091C80381E266
:1019C0000E94DC078091B8030E94A80C282F85E0B4
:1019D0006FE040E00E94500888E060E645E020911A
:1019E000C6030E94500888E06FE140E02091CB03DD
:1019F0000E9450088EE260EC46E02091CE030E94E7
:101A00005008DF91CF911F9108950F931F93CF93AB
:101A1000DF93EB018E3431F0893541F48881809376
:101A2000CF03E0C088818093C903DCC02091D0033C
:101A30003091D1032F30310511F481E8D4C08B30BF
:101A400009F4C3C08C3070F4823009F486C083304E
:101A500018F48823D9F115C0833009F48CC0843080
:101A600081F46BC0833519F1843528F48F3459F033
:101A7000803539F40FC0873509F46BC0803F09F415
:101A800081C084EFB0C028812093CE038EE260EC49
:101A900046E0A1C0688189816093C4038093C50337
:101AA00082E20E94DC076091C50383E20CC068817A
:101AB00089816093C7038093C80380E20E94DC079A
:101AC0006091C80381E20E94DC078CC08091D3033F
:101AD0009091D403892B09F081C080E098EFAFEF9B
:101AE000B7E0088004C0B695A795979587950A94A6
:101AF000D2F781709070892B09F472C028303105BB
:101B000019F408E010E008C088E090E00E94C808DE
:101B10000897D1F706E110E028812093CB0388E0F5
:101B20006FE140E00E9450080830110509F45AC0E6
:101B300086E190E00E94C80855C08091D30390913F
:101B4000D403892B09F04AC08881882309F44AC04C
:101B500047C088818093CD0345C088818093B803B6
:101B60000E94600C8093B8030E94A80C282F85E087
:101B70006FE040E030C028812093C60388E060E633
:101B800045E029C088818093B90389818093BA0395
:101B90008A818093BB038B818093BC038C8180936B
:101BA000BD038D818093BE038E818093BF038F819F
:101BB0008093C003C9EBD3E014E2812F69910E94A6
:101BC000DC071F5F1C32C9F70DC028812093CC03AE
:101BD0008EE268E043E00E94500804C086E803C03B
:101BE00088EE01C080E0DF91CF911F910F910895A1
:101BF0001F932C9880E793E00E94B2032D9886E013
:101C000090E00E94B2032D9A10E081E06FE140E085
:101C10000E943D081F5F1B3F11F485E809C0883012
:101C2000A1F788E090E09093D1038093D00380E007
:101C30001F91089583E061E00E94DC078EE260E27C
:101C400045E021E00E94500885E060E847E021E09F
:101C50000E9450088EE068E00E94DC0708951F9300
:101C60000E949D0F682F192F8DE20E94DC078EE2E3
:101C700067E040E0212F0E94500880E00E94F10EB2
:101C80000E94DB0E1F910895882311F00E94830C9F
:101C90000E94F80D882311F085E808950E941A0E1D
:101CA0000E942F0E0E94C10C1092D4031092D303F5
:101CB00085EC9EE00E94C00280E286BB80916F00AE
:101CC000806280936F0080E008951F930E947603E6
:101CD000882309F057C02D9A2C9884EF91E00E9438
:101CE000B2032D9886E090E00E94B2032D9A10E096
:101CF00004C01F5F1F3F09F445C08DE10E94F1073A
:101D00008230B9F78CE10E94F107823091F768E0E8
:101D10000E94DC0710E081E06FE140E00E943D0896
:101D2000115081F18830B9F788E090E09093D103A9
:101D30008093D00380E090E060E070E048E050E005
:101D400029EB33E00E940E030E94F80D8823D1F4A2
:101D50000E941A0E0E942F0E0E94830C0E94C10C3A
:101D60001092D4031092D3038FE00E94F10785EC08
:101D70009EE00E94C00280916F00806280936F009D
:101D800080E001C085E81F9108958FE00E94F1076F
:101D900083FF10C08091D3039091D40302970297E0
:101DA00038F486E190E00E94C8080E94710B089503
:101DB0000E944D0B08958091D0039091D1030F970D
:101DC00011F082E8089588E090E00E94C808089722
:101DD00011F085E8089581E090E00E94890380E099
:101DE0000895882311F088EE08958091D003909192
:101DF000D1030F9711F481E808958091D303909156
:101E0000D403892B91F488E090E00E94C8080897D9
:101E1000D1F780E090E00E9489038AE190E00E947F
:101E2000C8080F9711F480E0089586E80895282FD8
:101E30008091D3039091D403892B11F086E8089503
:101E4000283031F488E090E00E94C80888E00895C6
:101E500086E190E00E94C80886E00895AA1BBB1B9B
:101E600051E107C0AA1FBB1FA617B70710F0A61B9A
:101E7000B70B881F991F5A95A9F780959095BC01BB
:101E8000CD010895AF92BF92CF92DF92EF92FF9271
:101E90000F931F93CF93DF93EC01A880B980CA8082
:101EA000DB80A114B104C104D10441F484E2A82E62
:101EB00089EDB82E8BE5C82E87E0D82EC601B50176
:101EC0002DE133EF41E050E00E94EB0F27EA31E4CF
:101ED00040E050E00E94CC0F7B018C01C601B501AF
:101EE0002DE133EF41E050E00E94EB0FCA01B90150
:101EF0002CEE34EF4FEF5FEF0E94CC0F6E0D7F1D85
:101F0000801F911F97FF04C061507040804090482F
:101F1000688379838A839B839B013F77C901DF9123
:101F2000CF911F910F91FF90EF90DF90CF90BF90D6
:101F3000AF9008950E94420F089580E092E00E94C1
:101F4000420F0895A0E0B0E0809300029093010258
:101F5000A0930202B09303020895FB01DC0102C0CA
:101F600001900D9241505040D8F70895F999FECF55
:101F700092BD81BDF89A992780B50895262FF999C9
:101F8000FECF1FBA92BD81BD20BD0FB6F894FA9A5C
:101F9000F99A0FBE01960895629FD001739FF001D8
:101FA000829FE00DF11D649FE00DF11D929FF00DE9
:101FB000839FF00D749FF00D659FF00D9927729F20
:101FC000B00DE11DF91F639FB00DE11DF91FBD01AB
:101FD000CF011124089597FB092E05260ED057FD39
:101FE00004D014D00AD0001C38F450954095309598
:101FF00021953F4F4F4F5F4F0895F6F7909580958D
:10200000709561957F4F8F4F9F4F0895A1E21A2ED3
:10201000AA1BBB1BFD010DC0AA1FBB1FEE1FFF1F8C
:10202000A217B307E407F50720F0A21BB30BE40BDC
:10203000F50B661F771F881F991F1A9469F7609523
:102040007095809590959B01AC01BD01CF010895DD
:04205000F894FFCF32
:042054000100000087
:00000001FF
