:100000000C94D1000C94F0000C94F0000C94F000CF
:100010000C94F0000C94F0000C949E080C94F000EA
:100020000C94F0000C94F0000C94F0000C94F00090
:100030000C94F0000C94F0000C94F0000C94F00080
:100040000C94F0000C94F0000C94F0000C94F00070
:100050000C94F0000C94F0000C94F0000C94F00060
:100060000C94F0000C94F0000C94F0000C94F00050
:100070000C94F0000C94F0000C94F0000C94F00040
:100080000C94F0000C94F0000C94F0000C94F00030
:100090000C94F0000C94F0000C94F0000C94F00020
:1000A0000C94F0000C94F0000C94F0000C94F00010
:1000B0000C94F0000C94F0000C94F0000C94F00000
:1000C0000C94F0000C94F0000C94F0000C94F000F0
:1000D0000C94F0000C94F0000C94F0000C94F000E0
:1000E0000C94F0000C9407030C9411030C94FD0283
:1000F0000C947C020C94A7020C941B030C945102E8
:100100000C94D2020C94FE070C9427080C94F00077
:100110000C94F0000C94F0000C942F030C94250325
:1001200003020201010000FFFEFDFCFBF9F7F4EF02
:100130001F1521120000A61A00009C18051E0000C1
:10014000251E501CDE217A2400000000411F000003
:10015000F813081400000000E71377139013C91375
:1001600000000000000016130000FA1265130613C9
:100170004713381300005613010401010102010165
:100180000101010101010101040108020101010154
:100190000201010201020101020102020101010149
:1001A000080011241FBECFEFD1E4DEBFCDBF12E0A7
:1001B000A0E0B2E0EEE2F2E500E00BBF02C0079083
:1001C0000D92A430B107D9F715E0A4E0B2E001C068
:1001D0001D92AF36B107E1F70E941C020C9415295D
:1001E0000C94000082E090E061E070E00E9445081D
:1001F0000895EF92FF920F931F93662399F482E084
:1002000090E060E070E00E94450884E040E251EA3E
:1002100067E070E020E030E002EF10E0EE24FF2421
:100220000E947D061F910F91FF90EF900895EF922D
:10023000FF920F931F9381E090E062E070E00E94D4
:10024000450884E040E251EA67E070E020E030E0F9
:1002500007E111E0EE24FF240E947D061F910F911B
:10026000FF90EF900895EF92FF920F931F936623F4
:10027000B9F484E00E94710581E090E060E070E0F4
:100280000E94450883E040E854E86EE170E020E019
:1002900030E008E511E0EE24FF240E947D0603C053
:1002A00081E00E94E3261F910F91FF90EF90089547
:1002B000EF92FF920F931F93DF93CF93CDB7DEB7EB
:1002C0002C970FB6F894DEBF0FBECDBF82E08A83B5
:1002D0008EEB9AEB9C838B838091050290910602B2
:1002E0009E838D830E948A288983009104020F5F78
:1002F0000093040282E0BE016E5F7F4F41E09E01E9
:100300002F5F3F4FEE24E3940E94652783E040E88F
:1003100054E86EE170E020E030E008E511E0EE2402
:10032000FF240E947D062C960FB6F894DEBF0FBE08
:10033000CDBFCF91DF911F910F91FF90EF90089566
:10034000CF92DF92EF920F93CF93DF938823C9F57B
:10035000F60120E02DC08385843141F58485882312
:1003600029F5818192818E5B9A4B01F58585968571
:1003700097FF1CC08081823039F4838194819093EF
:100380000602809305020BC0833039F5C7E0D2E046
:10039000DF01139688E00D9009928150E1F7838583
:1003A0006485AF0120E80E942E271AC071962F5F46
:1003B0002E1588F281E040E058EF6FEF77E025E0FE
:1003C00008C08A3E51F481E040E058EF6FEF77E0DB
:1003D00026E000E00E94662603C081E00E94E3263A
:1003E000DF91CF910F91EF90DF90CF900895EF9232
:1003F000FF920F931F938823B9F481E040E058EFF8
:100400006FEF77E025E000E00E94662684E040E29E
:1004100051EA67E070E020E030E007E111E0EE240F
:10042000FF240E947D0603C081E00E94E3261F9105
:100430000F91FF90EF9008950E940A28882311F0F1
:100440000E9439030E943E0880E090E060E070E086
:100450000E94450881E090E061E070E00E9445085C
:1004600082E090E061E070E00E944508789481E0CD
:100470000E94E3260E94F427FDCF90931002809300
:100480000F020895909312028093110208959093A1
:10049000140280931302089590931602809315021C
:1004A00008951F920F920FB60F920BB60F92112460
:1004B0002F933F934F935F936F937F938F939F936C
:1004C000AF93BF93EF93FF93E0910F02F09110026F
:1004D0000995FF91EF91BF91AF919F918F917F917E
:1004E0006F915F914F913F912F910F900BBE0F90A5
:1004F0000FBE0F901F9018951F920F920FB60F927C
:100500000BB60F9211242F933F934F935F936F93EA
:100510007F938F939F93AF93BF93EF93FF93E0915C
:100520001102F09112020995FF91EF91BF91AF91E5
:100530009F918F917F916F915F914F913F912F91FB
:100540000F900BBE0F900FBE0F901F9018951F922B
:100550000F920FB60F920BB60F9211242F933F9369
:100560004F935F936F937F938F939F93AF93BF93BB
:10057000EF93FF93E0911302F09114020995FF911C
:10058000EF91BF91AF919F918F917F916F915F910B
:100590004F913F912F910F900BBE0F900FBE0F9078
:1005A0001F9018951F920F920FB60F920BB60F92D5
:1005B00011242F933F934F935F936F937F938F9368
:1005C0009F93AF93BF93EF93FF93E0911502F09148
:1005D00016020995FF91EF91BF91AF919F918F9175
:1005E0007F916F915F914F913F912F910F900BBE33
:1005F0000F900FBE0F901F9018951F920F920FB67D
:100600000F9211240F900FBE0F901F9018951F92FC
:100610000F920FB60F9211240F900FBE0F901F90E4
:1006200018951F920F920FB60F9211240F900FBEC4
:100630000F901F9018951F920F920FB60F921124D2
:100640000F900FBE0F901F9018951F920F920FB62C
:100650000F9211240F900FBE0F901F9018951F92AC
:100660000F920FB60F9211240F900FBE0F901F9094
:1006700018951EB88FEF8DB98FEF9FEF0E943F0442
:100680008EB180958EB9F8CFCF92DF92EF92FF9224
:100690000F931F93CF93DF937B018A016901892B0D
:1006A00011F088EE19C0CA01860F971F8150904142
:1006B00010F085E811C0C0E0D0E00AC0CE018E0D78
:1006C0009F1D0E94A328F601EC0FFD1F8083219639
:1006D000C017D10798F380E0DF91CF911F910F9160
:1006E000FF90EF90DF90CF900895CF92DF92EF923E
:1006F000FF920F931F93CF93DF938C017B016A01CD
:10070000CB01800F911F8150904110F085E816C0F9
:10071000C0E0D0E00FC0C8010E94A328F601EC0F92
:10072000FD1F6081861719F0C8010E94AB280F5F7A
:100730001F4F2196CE15DF0570F380E0DF91CF913A
:100740001F910F91FF90EF90DF90CF9008950E943E
:10075000470608950E94B9030E94DA03A89588E12C
:100760000FB6F89480936000109260000FBE80E096
:1007700008959FB7F894E0E0F0E089E08093570097
:1007800084919FBF8F70823011F090E001C09FE094
:1007900080E80FB6F89480936100909361000FBEDB
:1007A00080E18093350180933401809333018093FD
:1007B00032010895109217021092DF048FEF809398
:1007C00018028093190280931A02E6EBF4E09FEF7F
:1007D000948311821082399684E0E33EF807C1F7D2
:1007E00080E28093B60088EA8093DC008FE08093FB
:1007F000F4009093F3009093F2009093F10082E064
:100800008093E0008091DF0082608093DF00089594
:100810000895FC018091DE0080FDFCCF2091E10075
:10082000822F2091E200922F2091E300A22F2091AD
:10083000E400B22F24E0880F991FAA1FBB1F2A953E
:10084000D1F780839183A283B3830895FC01209123
:10085000E900822F2091EA00922F2091EB00A22F35
:100860002091EC00B22F34E0880F991FAA1FBB1F04
:100870003A95D1F780839183A283B3830895AC0125
:100880008436910518F060E070E01EC07FB7F894E0
:1008900061E01AC057FD02C09A0102C02FEF3FE786
:1008A000C901880F991F909581959F4F90932501BD
:1008B00080932401FABBE0932101D09BFECF421B21
:1008C000530B1092210102C0F1E0E2E04115510505
:1008D00009F761117FBF089520E090E0FC01B3E0CB
:1008E000EE0FFF1FBA95E1F7E80FF91FEE54FB4F2B
:1008F00084819581892B09F021E0822F0895AF92A0
:10090000BF92CF92DF92EF92FF920F931F9380914D
:10091000180290E0FC0113E0EE0FFF1F1A95E1F7BB
:10092000E80FF91FEE54FB4FA080B180C280D38046
:1009300080911702882309F46BC0D092F800C0920E
:10094000F700B092F600A092F5008091DF0080FDE4
:1009500008C081E08093E0008091DF008160809397
:10096000DF002091E100822F2091E200922F209160
:10097000E300A22F2091E400B22F9C01AD012F5F74
:100980003F4F4F4F5F4FDA01C9018A259B25AC25A8
:10099000BD2580709070A070B87F0097A105B1054B
:1009A00031F4A216B306C406D506C0F109C0D601BB
:1009B000C501B7705770281739074A075B0770F1F0
:1009C00080915D01883068F5E0901B02F0901C0278
:1009D00000911D0210911E020894E11CF11C011DE2
:1009E000111DEA14FB040C051D05D9F48091E100EA
:1009F000282F8091E200382F8091E300482F8091CA
:100A0000E400582F2E153F054007510779F706C01F
:100A10008091DF008E7F8093DF0003C081E08093B0
:100A2000DF041F910F91FF90EF90DF90CF90BF9068
:100A3000AF9008951F931FB7F8948091DF04882327
:100A400009F44CC01092DF0430911702332309F4EB
:100A500045C0809119028F3F59F480911A028F3F4F
:100A600039F48091180280931A028093190212C0FF
:100A70002091180280911A0290E0FC0153E0EE0FE1
:100A8000FF1F5A95E1F7E80FF91FEE54FB4F20873F
:100A900020931A028091180290E0FC0143E0EE0FCF
:100AA000FF1F4A95E1F7E80FF91FEE54FB4F8085D1
:100AB0008093180280911A0290E0FC0123E0EE0F6F
:100AC000FF1F2A95E1F7E80FF91FEE54FB4F8FEF58
:100AD00080873150309317020E947F041FBF1F91FF
:100AE0000895FF920F931F93182F853010F08AE816
:100AF000C5C0FFB6F8940E941A05009117020023A2
:100B000009F4C0C040911802242F842F302F1217EF
:100B1000F1F5212F30E0141781F4F901A3E0EE0F75
:100B2000FF1FAA95E1F7E20FF31FEE54FB4F8085FC
:100B3000809318020E947F0418C090E0DC01E3E07B
:100B4000AA0FBB1FEA95E1F7A80FB91FAE54BB4F20
:100B5000F90173E0EE0FFF1F7A95E1F7E20FF31F43
:100B6000EE54FB4F808518968C93812F90E0FC010A
:100B700063E0EE0FFF1F6A95E1F7E80FF91FEE54EF
:100B8000FB4F8FEF808701500093170262C0822FC6
:100B900090E0FC0153E0EE0FFF1F5A95E1F7E80FDC
:100BA000F91FEE54FB4F50853150822F09F46AC073
:100BB000252FADCF1217D1F520911A021317B1F4DA
:100BC000121721F48FEF80931A020DC0812F90E04D
:100BD000FC0143E0EE0FFF1F4A95E1F7E80FF91F14
:100BE000EE54FB4F80858093190233C0842F90E030
:100BF000DC0133E0AA0FBB1F3A95E1F7A80FB91F3C
:100C0000AE54BB4F812F90E0FC0103E0EE0FFF1FBD
:100C10000A95E1F7E80FF91FEE54FB4F808518960F
:100C20008C931217B1F440931A0213C0822F90E0F4
:100C3000FC0173E0EE0FFF1F7A95E1F7E80FF91F53
:100C4000EE54FB4F422F20852F3F09F0B3CF80E0B9
:100C50000FC0812F90E0FC0163E0EE0FFF1F6A954B
:100C6000E1F7E80FF91FEE54FB4F1582148281E083
:100C7000FFBE882311F489E801C080E01F910F9125
:100C8000FF90089530911902232F432FDDCF1F933A
:100C90000E941A051FEF25C06FB7F894822F90E0CD
:100CA000FC01B3E0EE0FFF1FBA95E1F7E80FF91F63
:100CB000EE54FB4F208544815581868197811087B2
:100CC00015821482178216822F3F09F43FEF6FBFFF
:100CD0004115510551F030931A0220931902FA017F
:100CE000099530911A02209119022F3FA9F63093ED
:100CF0001A02209319021F9108952F923F924F924A
:100D00005F926F927F928F929F92AF92BF92CF929B
:100D1000DF92EF92FF920F931F93DF93CF9300D058
:100D200000D00F92CDB7DEB7582E1801FB82EA82B1
:100D300004E0081710F48AE820C12114310409F4F2
:100D400019C190E09D838C83FC01A3E0EE0FFF1F8F
:100D5000AA95E1F7E80FF91FEE54FB4F84819581C6
:100D6000892B11F088E809C1E4E0769567955795DD
:100D70004795EA95D1F72115310529F02130310544
:100D800009F0F8C026C0DB01CA010897A109B10922
:100D9000885F9F4FAF4FB74008F0EEC02091E10051
:100DA000822F2091E200922F2091E300A22F209128
:100DB000E400B22F7A018B01E80EF91E0A1F1B1FF7
:100DC0008FEF9FEFAFEFBFE0E822F9220A231B234A
:100DD00020C02091E100822F2091E200922F2091EB
:100DE000E300A22F2091E400B22F8A019B01081B8F
:100DF000190B2A0B3B0BD901C801BF700897A10939
:100E0000B109885F9F4FAF4FB74008F0B5C07A0176
:100E10008B012FB72983F8946FEF862E6FEF962EF4
:100E20006FEFA62E6FE0B62E8E209F20A022B1225B
:100E30000E941A05609018023FEF631671F040900F
:100E40001702C62CD62C77248FEF9FEFAFEFB7E0B9
:100E5000E822F9220A231B2367C050921802EC8172
:100E6000FD8153E0EE0FFF1F5A95E1F7AC81BD8184
:100E7000EA0FFB1FEE54FB4F60865AC0BFEFDB1634
:100E800009F44DC06D2D70E0FB0143E0EE0FFF1F34
:100E90004A95E1F7E60FF71FEE54FB4F20813181B1
:100EA00042815381D501C40182279327A427B52706
:100EB00080709070A070B87F0097A105B10539F4DB
:100EC000281539054A055B0508F46FC007C057703F
:100ED000E216F3060407150708F467C0EC81FD81EC
:100EE00033E0EE0FFF1F3A95E1F70C811D81E00F13
:100EF000F11FEE54FB4FD0866D1419F45092180276
:100F000017C08C2D90E0FC0123E0EE0FFF1F2A9507
:100F1000E1F7E80FF91FEE54FB4F508609C08FEF41
:100F2000DC2C7394CD2CD82E741408F4A7CF49C0B0
:100F3000EC81FD8193E0EE0FFF1F9A95E1F72C8184
:100F40003D81E20FF31FEE54FB4F80829182A2821B
:100F5000B382358224828A819B81978386838091A4
:100F600017028F5F809317020E947F0499819FBFB1
:100F700080E003C088EE01C08BE80F900F900F90C7
:100F80000F900F90CF91DF911F910F91FF90EF90F5
:100F9000DF90CF90BF90AF909F908F907F906F9099
:100FA0005F904F903F902F900895FB0183E0EE0FEC
:100FB000FF1F8A95E1F7E60FF71FEE54FB4F808580
:100FC000B0CF8C2D90E0FC0103E0EE0FFF1F0A95DF
:100FD000E1F7E80FF91FEE54FB4F5086EC81FD81DD
:100FE00013E0EE0FFF1F1A95E1F7AC81BD81EA0F08
:100FF000FB1FEE54FB4F8FEF80879ACF1F920F920B
:101000000FB60F9211242F933F938F939F9380914C
:10101000E1009091E2002091E3003091E4008093A0
:101020001B0290931C0220931D0230931E0280919C
:101030001702882319F081E08093DF049F918F913C
:101040003F912F910F900FBE0F901F9018951F92F8
:101050000F920FB60F9211248F938FEF8093E400BD
:101060008093E3008093E2008093E1008F910F90E2
:101070000FBE0F901F90189581E00895729A6A9A9A
:10108000739A6B9A749A6C9A08958130910599F0CD
:10109000029721F16130710549F06130710520F04E
:1010A0006230710569F504C072980895729A0895C6
:1010B0008EB194E010C06130710549F06130710566
:1010C00020F062307105E1F404C073980895739ABA
:1010D00008958EB198E089278EB908956130710521
:1010E00049F06130710520F06230710549F404C0A7
:1010F00074980895749A08958EB190E189278EB9F5
:101100000895759A6D9808952CB130E085E0369574
:1011100027958A95E1F721703070C901089590E212
:101120009CBBED9A93B7917F982B93BF83B7816057
:1011300083BF889583B78E7F83BF08951F920F92D8
:101140000FB60F921124ED980F900FBE0F901F90C5
:101150001895BC01009721F087E994E00E94DE0811
:10116000089587E994E060E070E00E9473090895B3
:101170000F931F93CF93DF9387E994E00E94D708E2
:10118000C7E8D4E00FE112E01983088387E994E00F
:10119000BE010E94DE08249606561F4F84E0C73920
:1011A000D80791F7DF91CF911F910F910895FC011E
:1011B000118210821382128214820895CF93DF93DA
:1011C000DC01EB019FB7F89414968C911497882357
:1011D00021F411967C936E9306C01296ED91FC91CA
:1011E0001397738362831396DC93CE9312971B82BB
:1011F0001A8214968C9114978F5F14968C939FBFCC
:10120000DF91CF9108959F92AF92BF92CF92DF92DC
:10121000EF92FF920F931F93CF93DF938C015B01AB
:101220006A019FB6F894DC0114968C91882319F416
:10123000C0E0D0E04AC0F801C081D181411551051C
:10124000B1F07E0111C0D60112966D917C91139779
:10125000ED91FC91888199810995882359F47E014B
:101260008A819B819C01E901209769F72EC0209714
:1012700061F17E01AB2849F5F801808191812A81D5
:101280003B81C817D90719F43183208305C0D701E2
:1012900013963C932E931297F80182819381C8177D
:1012A000D90711F4F382E282D80114968C91149735
:1012B000815014968C9314978D919C911197892B42
:1012C00021F413961C921E9212979FBECE01DF91BD
:1012D000CF911F910F91FF90EF90DF90CF90BF9033
:1012E000AF909F900895AB0160E070E00E94030909
:1012F0000895AB0161E070E00E9403090895CF9367
:10130000DF93EC010BC0CE0160E070E00E94730936
:10131000009711F41C8205C00E94A9088C818823C3
:1013200091F7DF91CF910895809141018F718830BD
:10133000F1F481E080934F0189E080934201809134
:101340004F0180FD14C08EE690E00E943F04809122
:101350004F0180FD0CC08EE690E00E943F0480911A
:101360004F0180FD04C08EE690E00E943F04089586
:101370001F93182F809100058F30D1F49FB7F894F8
:101380007894809139018D7F80933901809109058E
:101390008823E1F39FBF1092090580914F018CE4EF
:1013A00080934E01183011F0133011F488E0AFC172
:1013B000809141018F7180930005183009F44BC072
:1013C000193050F4143009F493C0163009F49BC05E
:1013D000133009F097C155C01F3069F0103120F467
:1013E000193009F08FC163C0163109F4C2C0193138
:1013F00009F088C122C183E0809342010E948A28BB
:1014000080936D0180916E019770887F982B9093E7
:101410006E0180914F0180E880934E010000000032
:1014200000000000000000000000000000000000BC
:101430000000000000000000000000008091390161
:1014400082608093390183E290E00E943F04109310
:1014500000058FE05EC1883009F454C11093420149
:10146000000000000000000000000000000000007C
:10147000000000000000000000000000000000006C
:1014800041C1883009F43EC11093420100000000C0
:10149000000000000000000000000000000000004C
:1014A0000000000000000000000000002BC1883098
:1014B00021F1893020F4863009F024C105C086313D
:1014C00019F0893109F01EC189E0809342010000C2
:1014D000000000000000000000000000000000000C
:1014E00000000000000000000000000000000AC131
:1014F000883019F0893021F405C10E94940902C195
:1015000010934201FFC0893059F08A3020F48830AE
:1015100009F0F8C019C0863119F0893109F0F2C01C
:1015200086E08093420100000000000000000000FF
:1015300000000000000000000000000000000000AB
:10154000000000000000DEC00E94940910934201D8
:10155000000000000000000000000000000000008B
:10156000000000000000000000000000000000007B
:10157000C9C08830F9F0893020F4863009F0C2C043
:101580002EC0893019F0893109F0BCC086E1809302
:101590004201000000000000000000000000000008
:1015A000000000000000000000000000000000003B
:1015B0000000A8C00E94940910934201000000009E
:1015C000000000000000000000000000000000001B
:1015D00000000000000000000000000093C089E04F
:1015E00080934201000000000000000000000000A5
:1015F00000000000000000000000000000000000EB
:1016000000000000809141018F71809300058930B6
:1016100009F07FC0109342010000000000000000AC
:1016200000000000000000000000000000000000BA
:10163000000000000000000065C0883009F44EC0C2
:10164000893020F4863009F05DC019C0893021F05E
:10165000863109F057C013C010934201000000000A
:10166000000000000000000000000000000000007A
:1016700000000000000000000000000043C089E0FE
:101680008093420100000000000000000000000004
:10169000000000000000000000000000000000004A
:1016A00000000000809141018F7180930005893016
:1016B00009F02FC089E18093420100000000000082
:1016C000000000000000000000000000000000001A
:1016D0000000000000000000000014C00E949409F7
:1016E0001093420100000000000000000000000014
:1016F00000000000000000000000000000000000EA
:1017000000000000809141018F718F31D9F38093E7
:1017100000051F9108958091F1048823E1F08091E4
:101720000A058823C1F480919C0490919D04892B23
:1017300039F48AE90E94B10890939D0480939C0437
:1017400080919C0490919D04892B29F01092F104C2
:1017500086E10E94B8098091F604882351F082EF57
:1017600094E060E070E00E947309009711F00E941D
:10177000C00B80910A05823011F40E94180D089563
:10178000EF92FF920F931F93CF93DF937C01DC01C5
:101790000D911C91D8011696ED91FC9117978081BF
:1017A00080930205C82FD0E02196CE0FDF1F9881CD
:1017B00029812D3310F02CE303C0222309F421E00A
:1017C00092959695969593708FEF989FC0011124EE
:1017D00030E0FC01E29FC001E39F900DF29F900D6D
:1017E000112464EB70E00E941B286F3F710511F01B
:1017F00008F06FEF6883D8011296FC92EE92119771
:10180000C8010E946014DF91CF911F910F91FF904A
:10181000EF900895CF92DF92EF92FF920F931F9374
:10182000CF93DF93E0919C04F0919D04309709F4ED
:1018300049C0C081D181C0904701D0907B01D7FCC5
:1018400041C082E0D80E0AE910E00D191109EEEF4F
:10185000DE0E0C0F1D1FED2CFF2497012F5F3F4F55
:10186000C80160E871E0A9010E949A28F801D292AB
:10187000FF83EE83EE0EFF1EF701C28280914C01C2
:101880008F7780934C0180914C01806880934C014C
:1018900060919C0470919D0482EF94E00E94DE08A8
:1018A0008AE90E94B10890939D0480939C04892B3F
:1018B00031F489E00E94B80981E08093F10480E46A
:1018C00080934F01DF91CF911F910F91FF90EF9087
:1018D000DF90CF9008951F9310910A051130C9F43D
:1018E0008091420182958695877080939E0482E064
:1018F00080930A0580919C0490919D04892B31F47A
:1019000089E00E94B8091093F10403C086E10E94A7
:10191000B8091F9108950F931F93CF93DF93EC01A4
:101920008B01442349F090916C018091FF048295D2
:10193000807F9F70892B03C080916C018F70809392
:101940006C010230110598F4442369F090916C0108
:101950008091F704880F8E70917F892B80936C01A2
:1019600010926F0117C080916C018E6011C0809140
:10197000FB048295807F9091FE04892B80936F01F8
:1019800090916C018091F704880F8E70917F892B64
:1019900080936C0189E10E94B8098931D9F701303F
:1019A000110551F480910205833118F080E492E032
:1019B00005C080E890E002C089E090E00E943F040A
:1019C0001FB7F8948091390182608093390180912A
:1019D00039018D7F80933901288130E021503040DA
:1019E00080E891E0BE01A9010E949A2881E08093DD
:1019F0000A051FBFDF91CF911F910F910895FC0140
:101A000080910A05882311F086E80895F093FD047B
:101A1000E093FC04868197819093040580930305ED
:101A2000009711F488EE08950E948B0C80E00895D1
:101A300010920A0580919E048330B1F0843028F41E
:101A4000882331F08130E1F409C08530C9F412C037
:101A50006091FC047091FD0480E017C06091FC046B
:101A60007091FD0487E811C06091FC047091FD0441
:101A700081EE0BC06091FC047091FD0489EE05C0FD
:101A80006091FC047091FD0485E80E94EF200895A8
:101A9000282F85FD03C0982F9F7304C0982F919520
:101AA0009F719195E0E2F1E08491891734F03F96BF
:101AB0008491981714F0822F0CC0803E3CF0803245
:101AC0003CF487FF06C08F71806203C080E201C0D2
:101AD0008FE18068089584E08093F70423E02093E9
:101AE000FE048FEF9FEF9093ED048093EC049093AE
:101AF000F0048093EF048BE08093F9041092EB04E0
:101B000080E098EFAFEFB7E080930505909306056E
:101B1000A0930705B09308058AE091E09093EA044A
:101B20008093E9048AE08093010582E08093F804C1
:101B300085E08093FB042093FF0483E80E94480D16
:101B40008093E00481E08093EE041092FA040895FB
:101B500085FD03C0982F9F7304C0982F91959F71A6
:101B60009195E0E2F1E080E02491921724F02917AA
:101B70003CF4815008958F5F31968031A9F780E061
:101B800008958091EC049091ED048093620190930C
:101B90006301E1EEF4E0A4E6B1E081918D9384E08D
:101BA000E93EF807D1F78091EF049091F00480931B
:101BB000600190936101909148018091EE048295BB
:101BC000880F80769F79892B8093480190916F01CF
:101BD0008091FE048F70907F892B80936F0190918C
:101BE0006E018091FA04880F880F880F8870977FA4
:101BF000892B80936E0190916F018091FB048295F7
:101C0000807F9F70892B80936F0190914801809114
:101C1000F9048F71907E892B809348018091E004B4
:101C20000E94A80D909145018F70907F892B809321
:101C300045010895CF93DF93EB018E3431F0893560
:101C400041F488818093FF04E4C088818093F70485
:101C5000E0C0209100052F3011F481E8DBC08B300B
:101C600009F4C5C08C3070F4823009F47FC0833031
:101C700018F48823B1F115C0833009F488C084308A
:101C800081F45EC0833511F1843528F48F3459F026
:101C9000803539F410C0873509F45CC0803F09F401
:101CA00083C084EFB7C098819093FE0480916F0148
:101CB0009F70807F57C0888199818093EC049093B6
:101CC000ED048093620190936301A3C088819981A0
:101CD0008093EF049093F0048093600190936101EE
:101CE00098C080910A05882309F08FC080E098EFA2
:101CF000AFEFB7E0088004C0B695A7959795879594
:101D00000A94D2F781709070892B09F480C0283032
:101D100031F088E00E94B8098830D9F726E198812F
:101D20009093F904809148019F71807E982B909345
:101D30004801283009F46DC086E10E94B80969C0E5
:101D400080910A05882309F060C08881882309F4FE
:101D500060C05DC098819093FB0480916F01929563
:101D6000907F8F70982B90936F0153C088818093E0
:101D7000E0040E94480D8093E0040E94A80D909119
:101D800045018F70907F892B8093450142C08881E7
:101D90008093EE04909148018295880F80769F7918
:101DA000892B8093480135C088818093E104898123
:101DB0008093E2048A818093E3048B818093E4041E
:101DC0008C818093E5048D818093E6048E818093DD
:101DD000E7048F818093E804E1EEF4E0A4E6B1E04B
:101DE00081918D9384E0E93EF807D1F712C0888194
:101DF0008093FA0490916E01880F880F880F887085
:101E0000977F892B80936E0104C086E803C088EE1B
:101E100001C080E0DF91CF9108950F931F93CF937E
:101E2000DF93082F809139018D7F8093390180EFF6
:101E300090E00E943F04809139018E7F80933901A8
:101E400081E090E00E943F0480913901816080939D
:101E5000390110E084E690E00E943F048091410146
:101E60001A3011F485E84DC08F71883011F01F5F72
:101E7000F1CF8093000580916E01806280936E01A6
:101E800080914C01806880934C018CE480934E01DA
:101E900086E00E94B80910924E01C0E0D0E010E048
:101EA00080914601CC0FDD1FCC0FDD1F90E08076C6
:101EB000907025E0969587952A95E1F7C82BD92B48
:101EC0001F5F183069F783E00E94B80980914F01C5
:101ED00010934F0180E480934F0180E880934F017D
:101EE0008CE480934E01CE010E948F28002311F0D4
:101EF0000E946B0D0E94C10D10920A051092F10410
:101F000080E0DF91CF911F910F9108950E940D0FF6
:101F1000882361F085E8089582EF94E060E070E046
:101F20000E947309009711F00E94A9088091F6049D
:101F3000882391F788E080934F0180E480934F01DC
:101F400084E080934F0180E880934F010E948A28AB
:101F500080936D0180916E019770887F982B90938C
:101F60006E0180E00E94C8100E94B91080E00895C0
:101F70000F931F93CF93DF930E94AA03882309F046
:101F8000CDC0809139018160809339018091390100
:101F90008D7F809339018CE791E00E943F0480910E
:101FA00039018E7F8093390181E090E00E943F04E7
:101FB0008091390181608093390110E084E690E0DE
:101FC0000E943F04809141011A3009F4A7C08F712B
:101FD000883011F01F5FF2CF8093000580915C0183
:101FE000833809F09BC0A0C0C1EED4E00E948A28CB
:101FF000899384E0C93ED807C9F78091E104309104
:10200000E2044091E3046091E4047091E504F091EE
:10201000E604B091E7045091E804082F015091E0E4
:10202000081708F090E0832F815021E0831708F013
:1020300020E0192F180F91E0181708F090E0292BD5
:10204000842F815031E0841708F030E0A22FA80FD0
:1020500091E0A81708F090E0392B862F815021E0FD
:10206000861708F020E0E32FE80F91E0E81708F06A
:1020700090E0292B872F815031E0871708F030E05E
:10208000622F680F91E0681708F090E0392B8F2FCE
:10209000815021E08F1708F020E0432F480F91E096
:1020A000481708F090E0292B8B2F815091E08B1777
:1020B00008F090E0322F380F21E0381708F020E0C8
:1020C000922B5195591779F43F3F69F44F3F59F4DA
:1020D0006F3F49F4EF3F39F4AF3F29F41F3F19F444
:1020E0000E3F08F081CF81EB90E10E94420289EA25
:1020F00090E10E943D0285EA90E10E944C020E941C
:10210000B8088AE90E94B10890939D0480939C04CA
:1021100082EF94E00E94D70880E001C085E8DF915B
:10212000CF911F910F91089580E090E060E070E002
:1021300048E050E021EE34E00E94440381E00E9438
:102140000D0F882309F459CFE9CF81E08093090569
:1021500008951F931FB7F8940E946B0C1FBF1F9127
:1021600008951F931FB7F8940E940A0C1FBF1F9178
:102170000895809100058F3011F082E8089588E07D
:102180000E94B809883011F085E8089580E008952C
:10219000882311F088EE0895809100058F3011F4A6
:1021A00081E8089580910A05882371F41092F10462
:1021B00088E00E94B8098830D9F78FE00E94B809FA
:1021C0008F3011F480E0089586E80895982F80916B
:1021D0000A05882311F086E80895983039F488E0DC
:1021E0000E94B8091092F10488E0089580919C043F
:1021F00090919D04892B29F086E10E94B80986E020
:10220000089581E08093F10486E00895DC01ED916A
:10221000FC91119784E180836383528341838AE632
:1022200095E0BD010E94DE0808950F931F93DF9390
:10223000CF9300D0CDB7DEB7A0912705B091280588
:10224000ED91FC91119784E180838BEE83830FEFF6
:102250001FEF128301838AE695E0BD010E94DE082C
:10226000109218051A83098380E5BE016F5F7F4FC6
:102270000E94E21C10932A0500932905109237054D
:10228000109238051092390510923A0510923B05CC
:1022900010923C0510923D0510923E050E94DB1BFA
:1022A0000F900F90CF91DF911F910F910895EF92B2
:1022B000FF920F931F93E0903305F090340580E078
:1022C00061E040E020E030E000E010E00E945717BD
:1022D0008823A9F4A0912705B0912805ED91FC91E0
:1022E000119784E1808381EE83838FEF9FEF928348
:1022F00081838AE695E0BD010E94DE0819C0A7012E
:1023000060E070E084E0440F551F661F771F8A95D8
:10231000D1F780E020E030E005E111E1EE24FF2478
:102320000E947D06882321F080E090E00E94151134
:102330001F910F91FF90EF900895FF920F931F93BD
:10234000DF93CF9300D0CDB7DEB7F0905F050E944A
:10235000A908FF20B1F583E56DE575E00E94E21C58
:1023600020915D0530915E0580915205809337057F
:1023700080915305809338058091540580933905E9
:102380008091550580933A058091560580933B05D1
:102390008091570580933C058091580580933D05B9
:1023A0008091590580933E0581E0809366051092E7
:1023B000180580912205833031F582E08093220553
:1023C00022C0109218050FEF1FEF1A83098380E5D2
:1023D000BE016F5F7F4F0E94E21C10932A0500939D
:1023E0002905109237051092380510923905109280
:1023F0003A0510923B0510923C0510923D05109253
:102400003E052FEF3FEFE0912705F0912805A081D1
:10241000B18184E18C931396FC92139712963C93AE
:102420002E9311978AE695E0BF010E94DE080E9474
:10243000DB1B0F900F90CF91DF911F910F91FF90B9
:102440000895CF92DF92EF92FF921F93DF93CF9385
:10245000CDB7DEB72F970FB6F894DEBF0FBECDBF56
:10246000AC017C01DE011196FC01808191819C010F
:10247000F9018FE001900D928150E1F7409327051B
:10248000509328058C81823019F48F8198851AC069
:102490008F8180933705888580933805898580935F
:1024A00039058A8580933A058B8580933B058C8519
:1024B00080933C058D8580933D058E8580933E05F8
:1024C0008EEF9FEF90932A058093290580E5BE014A
:1024D0006B5F7F4F0E94E21C0E94B61BD701CD901C
:1024E000DC9081E0F6018083F282E182EA56FF4FC0
:1024F00080838F8581839F0128503040D901E1EE90
:10250000F4E088E001900D928150E1F7F9018FEF3E
:102510009FEF929382938C81823051F480912905B0
:1025200090912A059293829345E123E238EC11C001
:10253000F9013A979F0147E355E088E0DA010D90F1
:10254000AD01D9010D929D018150C1F74BE123E20C
:102550003CEC8091EC049091ED04929382938091F5
:10256000230582938F5F80932305329322934293B6
:10257000D6011796FC93EE93169784E0BE016D5F2B
:102580007F4F0E94E21C182F80E0BE016E5F7F4FDC
:102590000E94E21C112371F4882361F4C60162E0F9
:1025A00070E041E00E94FF0C882321F481E08093D9
:1025B000670512C0D701ED91FC9184E1808381EE23
:1025C00083838FEF9FEF928381838AE695E0B70143
:1025D0000E94DE080E94DB1B2F960FB6F894DEBF28
:1025E0000FBECDBFCF91DF911F91FF90EF90DF9095
:1025F000CF900895FC010190F081E02D62817381FC
:102600008181448125810E941A2808950F931F9388
:102610008C01DC01ED91FC91818162810E94162880
:10262000C8010E94A9081F910F910895AF92BF920F
:10263000CF92DF92EF920F931F935C01DC01ED913B
:10264000FC910481158126813781818162814381DA
:10265000E08439966F010E94A001C5010E94A9087B
:102660001F910F91EF90DF90CF90BF90AF900895A2
:102670000F931F938C01DC01ED91FC9181810E94ED
:102680001928C8010E94A9081F910F9108950F935E
:102690001F938C01DC01ED91FC9181810E94F70177
:1026A000C8010E94A9081F910F9108950F931F93CD
:1026B0008C01DC01ED91FC9181810E941828C801F8
:1026C0000E94A9081F910F9108950F931F938C01E9
:1026D000DC01ED91FC91818162813396AF010E9412
:1026E0001528C8010E94A9081F910F910895EF9223
:1026F000FF920F937C01DC01ED91FC9121813281ED
:1027000043815481658176818781908501850E940E
:102710001428C7010E94A9080F91FF90EF90089517
:102720000F931F93DF93CF93CDB7DEB72B970FB6E1
:10273000F894DEBF0FBECDBF8C01DC01ED91FC91A2
:1027400082818983838194819B838A839E012C5F0C
:102750003F4FAF014B5F5F4F88E0DA010D90AD0155
:10276000D9010D929D018150C1F78181BE016F5F3A
:102770007F4F0E941328C8010E94A9082B960FB60C
:10278000F894DEBF0FBECDBFCF91DF911F910F91A7
:102790000895CF92DF92EF92FF920F936C01DC01CC
:1027A000ED91FC91BF016E5F7F4F24893589E788E9
:1027B000F08C8181438906890E941228C6010E94FB
:1027C000A9080F91FF90EF90DF90CF9008950F939D
:1027D0001F938C01DC01ED91FC91818192816381D9
:1027E0000E943301C8010E94A9081F910F9108950A
:1027F0000F931F938C01DC01ED91FC91818162812B
:102800000E94F900C8010E94A9081F910F91089524
:10281000CF92DF92EF920F93DF93CF93CDB7DEB7D6
:1028200066970FB6F894DEBF0FBECDBF6C01DC011A
:10283000ED91FC9181818983828193819B838A833D
:102840009E012C5F3F4FAF014C5F5F4F88E0DA0184
:102850000D90AD01D9010D929D018150C1F7848584
:102860008C87858596859E878D879E01215F3F4F4A
:10287000AF01415F5F4F88E0DA010D90AD01D901F2
:102880000D929D018150C1F7228D338DCE010196AD
:10289000BE01645F7F4F418D0789E08C0E94112843
:1028A000C6010E94A90866960FB6F894DEBF0FBE57
:1028B000CDBFCF91DF910F91EF90DF90CF90089532
:1028C000FC011082618172816115710521F08EE237
:1028D00095E00E94DE0808950F931F93CF93DF9336
:1028E000282F80915D0590915E0596FFA3C022235D
:1028F00059F420915005309151058091EC0490914C
:10290000ED042817390761F02091500530915105E9
:1029100080912C0590912D052817390709F08AC060
:1029200020915205309153058091290590912A05F7
:102930002817390709F47EC0909152058091370518
:10294000981759F59091530580913805981729F5F6
:1029500090915405809139059817F9F49091550597
:1029600080913A059817C9F49091560580913B05DE
:10297000981799F49091570580913C05981769F440
:102980009091580580913D05981739F4909159051B
:1029900080913E05981709F44DC08AE90E94B1085C
:1029A0008C01009709F446C0DC012D913C9185E033
:1029B000F901808312830183E956FF4F8083AF01C1
:1029C00048505040FA01A1EEB4E088E00D90019229
:1029D0008150E1F7FA013897EF01A7E3B5E088E00D
:1029E0000D9009928150E1F78091EC049091ED04F3
:1029F000929382938091230582938F5F8093230526
:102A000083E69CEC9293829388E18293D901179696
:102A1000FC93EE931697C90162E070E041E00E94DA
:102A2000FF0C882321F481E08093670503C0C8016F
:102A30000E94A908DF91CF911F910F9108950F93E4
:102A40001F93CF93DF93EC01E881F981A681B781D1
:102A50007C9170934205FD01E70FF11D8181809308
:102A60005B0511964D915C911297509340054093F0
:102A70003F0513968C911397809343058D010C5F4E
:102A80001F4F652F6295669566956370352F369555
:102A90003695337019F4F80120E049C014968D91F1
:102AA0009C9115979093460580934505FD013696B8
:102AB0003230E1F410924705109248051092490512
:102AC00010924A0510924B0510924C0510924D053C
:102AD00010924E0516968D919C91179790934805EC
:102AE00080934705FD01389624E021C0333011F072
:102AF00022E01DC016968C91169780934705818120
:102B000080934805828180934905838180934A059B
:102B1000848180934B05858180934C0586818093C9
:102B20004D05878180934E05FD013E962AE0662380
:102B300009F447C046FD08C08191919190935105D9
:102B4000809350052E5F08C0809145059091460501
:102B500090935105809350056230C1F41092520554
:102B60001092530510925405109255051092560577
:102B70001092570510925805109259058081918145
:102B800090935305809352052E5F1BC06330C9F4A8
:102B90008081809352058181809353058281809347
:102BA00054058381809355058481809356058581E2
:102BB00080935705868180935805878180935905B6
:102BC000285F972F9550921B90935C0560934F055B
:102BD0003093440543FD5CC1D801A20FB11D842F81
:102BE000877080934105833021F48C9180935A053E
:102BF00063C0813009F451C0813020F0833009F086
:102C000047C15AC08D919C91119790935E05809316
:102C10005D0512968C91129780935F05877011F471
:102C200093E002C0982F9C5FFD01E90FF11D8081A8
:102C300080936005292F2F5F382F377090E08077C1
:102C4000907044E0959587954A95E1F7482F332396
:102C500011F4882389F0CD01820F911D90936205B4
:102C600080936105332311F0330F230F442321F0A8
:102C7000440F440F440F240F80915C05281750F433
:102C8000821B80936305A20FB11DB0936505A093CD
:102C9000640502C110926305FFC0992351F0963775
:102CA00018F086E780935C05B0935E05A0935D0500
:102CB000F3C010925C05F0C080915A05843009F48D
:102CC000EBC0853030F4823059F0833009F0E0C039
:102CD00014C0873009F4E0C0883009F0D9C012C0B0
:102CE00011968D919C91129790935E0580935D054E
:102CF00013968C9180935F05CFC011968C91809331
:102D00005D05CAC011968D919C91129790935E05B6
:102D100080935D0513968D919C9114979093600517
:102D200080935F0515968C91159780936105169693
:102D30008D919C911797909363058093620554FF42
:102D4000ABC018968C9180936405A6C08091410514
:102D5000833061F480915A05843011F0873031F46A
:102D60008EE295E0BE010E94DE089CC080911805AD
:102D7000813009F478C0813020F0843008F088C0B8
:102D800059C080912105882351F5909166059230B4
:102D900008F07EC080914105813009F475C0813012
:102DA00020F0833009F074C00CC08091690588233D
:102DB00009F46EC0992309F46BC080E00E946C1482
:102DC00067C080915A05833009F040C0CE010E944F
:102DD0006B1880916605813009F064C03DC0833076
:102DE000D1F0843019F0823009F052C08091410551
:102DF000882309F04DC080916905882341F08091B6
:102E000066058150823018F481E00E946C14CE0176
:102E10000E94A11F47C0809141058330C9F5809170
:102E20005A058830A9F581E00E947105CE010E9403
:102E3000242338C00E94101F80914105813021F168
:102E4000833031F580915A05833019F0883001F5CF
:102E500006C0CE010E946B180E94891C23C0CE01BF
:102E60000E94FE251FC080914105833059F4809156
:102E70005A05823069F480E00E947105CE010E94FB
:102E80009D1110C0813021F4CE010E9472190AC038
:102E9000CE010E94A90806C080916705882309F029
:102EA00055CF64CFDF91CF911F910F9108956F920D
:102EB0007F929F92AF92BF92CF92DF92EF92FF925A
:102EC0000F931F93CF93DF93D82E962EC42E5901C4
:102ED00038018AE90E94B1087C01009709F49BC07F
:102EE000DC010D911C91DD2021F084E0F80180834C
:102EF00003C08BE0D8018C93F801F282E182E9569D
:102F0000FF4F84E080832091EF043091F004C901E9
:102F10000296029710F0992069F03897EF01A1EE20
:102F2000B4E088E00D9009928150E1F762E183E21C
:102F300090EC05C0329322936CE083E290E8CC20C1
:102F400061F02091EC043091ED046216730629F0D3
:102F50006E5F3293229370E002C0806471E022E0E1
:102F6000C21641F4AC015860D5018D919C919293A9
:102F7000829328C0B3E0CB1661F4AC015C60389753
:102F80006A5FEF01D50188E00D9009928150E1F769
:102F900019C02091290530912A054FEF2E3F3407A3
:102FA00029F0AC015860329322930CC0AC015C60F4
:102FB00038976A5FEF01A7E3B5E088E00D900992CA
:102FC0008150E1F73297772339F08091EC049091AA
:102FD000ED049183808302C0718260828091230519
:102FE00082938F5F80932305529342936293D8011B
:102FF0001796FC93EE931697C80162E070E041E0EB
:103000000E94FF0C882321F481E08093670504C0AF
:10301000C7010E94A90880E0DF91CF911F910F9115
:10302000FF90EF90DF90CF90BF90AF909F907F90F8
:103030006F900895EF92FF920F931F93CF93DF93BA
:103040007C01E801DC01ED91FC9186E180836183E4
:10305000428334832383CF010596423069F415827D
:10306000168217821086118612861386148688812E
:1030700099819683858307C0DC01F80188E001907F
:103080000D928150E1F78AE695E0B7010E94DE08D3
:10309000DF91CF911F910F91FF90EF9008950F93C3
:1030A0001F93AC018091EF049091F004029620915F
:1030B000EC043091ED04029728F4CA0143E001EEDC
:1030C00014E004C0CA0142E00FEE14E00E941A1896
:1030D0001F910F910895CF93DF939C01FC01C08154
:1030E000D181FE0185E18193A2E5B5E088E00D90F4
:1030F00001928150E1F780915D0589878AE695E02C
:10310000B9010E94DE08109237051092380510921E
:10311000390510923A0510923B0510923C05109229
:103120003D0510923E058FEF9FEF90932A05809307
:103130002905DF91CF9108950F931F93DF93CF93CC
:10314000CDB7DEB72E970FB6F894DEBF0FBECDBF5A
:103150008C01DC014D915C91DE011196FA018EE04B
:1031600001900D928150E1F7FA011283018383E00F
:103170008083EA56FF4F80838D85818338979F0136
:1031800061EE74E088E0DB010D90BD01D9010D9284
:103190009D018150C1F78A81823031F48D819E81F9
:1031A0009293829333E10FC038979F01BE016B5F0A
:1031B0007F4F88E0DB010D90BD01D9010D929D018B
:1031C0008150C1F739E18091EC049091ED04929324
:1031D00082938091230582938F5F809323052A81B8
:1031E000922F990F990F80E08366906C929382934F
:1031F0003293DA011796FC93EE9316970E94B61B52
:10320000F8018081918162E070E041E00E94FF0C52
:10321000882321F481E0809367050CC02B813C81D9
:10322000C80161EE4A818E010B5F1F4F0E941A1880
:103230000E94DB1B2E960FB6F894DEBF0FBECDBFEB
:10324000CF91DF911F910F910895DC01ED91FC91D9
:103250001197E081E43278F4F0E0EE0FFF1FE05DBB
:10326000FE4F259134912115310519F0F901099589
:1032700008950E94A90808951F93809167058823E7
:1032800081F480912005882361F08CE195E060E075
:1032900070E00E947309009721F00E94251911E047
:1032A00001C010E080913205882359F08EE295E04C
:1032B00060E070E00E947309009719F00E942519E0
:1032C00011E0812F1F910895DC01ED91FC91119780
:1032D00080E18083418362838AE695E0BD010E949C
:1032E000DE0808950F931F93DF93CF93CDB7DEB71A
:1032F00028970FB6F894DEBF0FBECDBFAC01DC013E
:103300009C9111962C9180915C05882321F4CA012F
:103310000E94A9080EC1E92FF22F80914305808FEA
:1033200020914F0521838091500590915105938301
:103330008283822F8250823010F514821582168289
:1033400017821086118612861386223039F48091F6
:10335000520590915305958384831BC02330C9F493
:103360009F012C5F3F4F62E575E088E0DB010D9027
:10337000BD01D9010D929D018150C1F70AC0138290
:103380001282148215821682178210861186128686
:103390001386208D80910B05281761F5948180910B
:1033A0000E05981739F5958180910F05981711F53D
:1033B0009681809110059817E9F497818091110505
:1033C0009817C1F4908580911205981799F491850A
:1033D00080911305981771F49285809114059817C0
:1033E00049F4938580911505981721F4CA010E942C
:1033F000A9085AC020930B05848180930E0585810E
:1034000080930F0586818093100587818093110535
:103410008085809312058185809313058285809332
:10342000140583858093150520914405248717860C
:10343000108A118A128A138A148A158A168A809130
:1034400045059091460596878587233079F49F013D
:10345000215F3F4F67E475E088E0DB010D90BD011F
:10346000D9010D929D018150C1F70BC0223039F472
:103470008091470590914805908B878702C01686FA
:10348000158680915B05878B80915C05818F80918B
:103490005D0590915E05938F828F81E180838AE63E
:1034A00095E0BA010E94DE0880913F0584FF41C08B
:1034B00080914F05823071F48091520590915305AF
:1034C0009A838983009150051091510580E060E056
:1034D00042E021C0833019F58091520589838091A3
:1034E00053058A83809154058B83809155058C8385
:1034F000809156058D83809157058E838091580564
:103500008F8380915905888700915005109151054E
:1035100080E060E043E09E012F5F3F4F07C080E006
:1035200060E040E020E030E000E010E00E9457174B
:1035300002C00E94DB1B28960FB6F894DEBF0FBEB8
:10354000CDBFCF91DF911F910F910895CF92DF9260
:10355000EF92FF920F931F93DF93CF93CDB7DEB718
:1035600062970FB6F894DEBF0FBECDBF8C01DE01AF
:103570001196FC01808191819C01F90182E1019009
:103580000D928150E1F78F8582FD11C08091180561
:10359000882321F480912105882349F09E85D80154
:1035A000ED91FC9180E18083918381EEB5C0F801BB
:1035B000C080D1808DE0D6018C938E8513968C933C
:1035C000888945E0F42EF80EE8E9F0E0E81BF109FF
:1035D000EC0DFD1D9A81923051F437E0F32EF80E78
:1035E0008091EF049091F0049293829312C09330F3
:1035F00081F438972DE0F22EF80E9F0141EE54E051
:1036000088E0DA010D90AD01D9010D929D01815044
:10361000C1F72091EC043091ED048C819D81281735
:10362000390749F48A81882331F08B81882319F086
:1036300040E450E009C08A81882321F0B2E0FB0E0B
:103640003293229340E050E08B81882311F1823045
:1036500039F46F2D6E5F8E819F819293829312C099
:1036600038976F2D685F9F0196E0E92EF12CEC0EE4
:10367000FD1E88E0D7010D907D01D9010D929D01BD
:103680008150C1F782E0F82EF60E8C819D819293D5
:1036900082938091230582938F5F80932305BA01E3
:1036A00061608F8580FF02C0BA01616288898736B8
:1036B00008F070618B81382F330F330F20E04A817F
:1036C000942F9295990F990F907C80E0282B392B9D
:1036D000262B372B329322933296F7FC15C0339763
:1036E000F082D6011796FC93EE9316970E94B61BB4
:1036F000F60112830183C60162E070E041E00E949E
:10370000FF0C882381F013C09E85D801ED91FC91B8
:1037100080E18083918385EE82838AE695E0B8011B
:103720000E94DE0814C081E08093670510C09E856A
:10373000D801ED91FC9180E18083918381EE8283B9
:103740008AE695E0B8010E94DE080E94DB1B6296C3
:103750000FB6F894DEBF0FBECDBFCF91DF911F91A2
:103760000F91FF90EF90DF90CF90089580916805C2
:10377000813051F40E94B910853831F081E090E039
:103780000E940804109268050895809168058823B6
:1037900089F480E090E00E94080480E00E94C81054
:1037A000882321F481E080936805089581E090E00A
:1037B0000E940804089580910C05882331F48091BB
:1037C0002B05882311F40E94C51B08950F931F93A6
:1037D000182F1092670510926605109268051092D6
:1037E0002105109222051092180510920B058FEFFB
:1037F00080930E0580930F0580931005809311052B
:10380000809312058093130580931405809315050A
:1038100010922B0588E00E94E6100FB7F89480E024
:103820000E94710581E00E94710582E00E9471058D
:103830000FBF112391F11092690582EC97E09093EC
:103840001B0580931A0580E098E7909334058093D8
:1038500033051092170581E08093190586E0809367
:103860000D05109237051092380510923905109207
:103870003A0510923B0510923C0510923D051092BE
:103880003E058FEF9FEF90932A05809329050E94B4
:103890008A288093230510920C051F910F9108959B
:1038A0000F931F93CF93DF93EC01088119810E943E
:1038B000B61BF801018180E090E00E94080480E0DE
:1038C000011181E00E94860F182F81E090E00E9494
:1038D0000804802F0E94E61B0E94DB1B8CE195E010
:1038E0000E947F098EE295E00E947F098AE695E0BA
:1038F0000E947F09E881F981118380E280838AE652
:1039000095E0BE010E94DE08DF91CF911F910F91DB
:103910000895DF93CF9300D000D0CDB7DEB70E94DB
:10392000B61B8FEF9FEF9A8389839C838B8383E5FC
:10393000BE016F5F7F4F0E94E21C80E5BE016D5F9C
:103940007F4F0E94E21C81E00E94E61B0E94DB1B6D
:103950000F900F900F900F90CF91DF9108950E94DC
:10396000B80F882399F40E943C08882379F081E0FD
:103970000E94E61B0E94DB1B8CE195E00E94D708A9
:103980008EE295E00E94D70880E0089585E80895CA
:10399000E82F883030F4E82FF0E0E858FE4F8491AB
:1039A00008958054803228F4F0E0E05CFE4F84916A
:1039B0000895E03F10F480E00895F0E0E055FF4FF7
:1039C000849108951F93CF93DF93182FEB0180917B
:1039D0006805813051F40E94B61B812FBE010E9400
:1039E0001A0E182F0E94DB1B04C0812F0E941A0E92
:1039F000182F812FDF91CF911F910895FF920F9380
:103A00001F93CF93DF93182FEB01F42E813520F510
:103A10008E3408F087C0833409F484C0843460F4A1
:103A2000853038F4823008F07DC0882309F47AC0EC
:103A30002DC0823459F53AC08A3409F43FC08B3422
:103A400028F48434B9F1873409F56CC08B3409F457
:103A50004EC08C34D9F452C0873509F463C0883520
:103A600058F4853530F4833508F05CC0823571F444
:103A700049C0863559F40CC0893509F453C08935DD
:103A800058F08A3561F0803F09F44CC004EFABC0B8
:103A9000888180936905A6C0888199819FC08881AB
:103AA000998190933405809333059CC088818093DD
:103AB000190598C0888180930D0594C088818093F2
:103AC00037058981809338058A81809339058B81F8
:103AD00080933A058C8180933B058D8180933C05D2
:103AE0008E8180933D058F8180933E057BC08881C8
:103AF000998190932A058093290574C088818093C9
:103B0000230570C06881611161E060930C05662334
:103B100031F00E94B61B86E00E94E61063C00E944E
:103B2000DB1B60C0812FBE010E941A0E082F813856
:103B300071F40E94B910812FBE010E941A0E082F45
:103B4000882309F050C081E080939F0403C088233C
:103B500009F049C08091F704282F30E08091FB04E0
:103B6000482F50E06091FE04CA01861B9109281776
:103B700039070CF4C901A82F281B310981E090E016
:103B800002C0880F991F4A95E2F70197289FA0016C
:103B9000299F500D389F500D112420E030E070E037
:103BA000E1E0F0E00DC0C901860F971FEF0102C0F0
:103BB000CC0FDD1F8A95E2F74C0F5D1F2F5F3F4F43
:103BC0002A1788F384E190E09C01429FC001439F43
:103BD000900D529F900D1124865F9E4F90931B0570
:103BE00080931A0500E0FF2049F080919F0488230C
:103BF00029F080E00E94C81010929F04802FDF916E
:103C0000CF911F910F91FF900895EF92FF920F9324
:103C10001F937C01FC0100811181B8016E5F7F4F11
:103C2000F801818141E00E94FE1CF801918192839C
:103C30009FE1908381838AE695E0B7010E94DE08C8
:103C40001F910F91FF90EF900895CF93DF93AC01F8
:103C5000DC01ED91FC919F012D5F3F4F81818C3400
:103C600009F485C08D3438F5853009F464C0863098
:103C700088F4823009F4ACC0833030F4882309F42E
:103C800097C08130E9F597C0833009F4A4C084302F
:103C9000B9F54EC0823409F459C0833430F486300B
:103CA00009F44EC0873061F54EC08A3409F451C022
:103CB0008B3431F557C0863529F1873588F4803546
:103CC00009F45EC0813530F48E3409F453C08F346A
:103CD000B9F453C0823509F458C0833589F458C00B
:103CE0008935D9F08A3528F4873579F0883541F45B
:103CF0000FC08D35D1F0803F09F451C08A3581F075
:103D000094EF6DC08091690568C08091FB0465C027
:103D100080911A0590911B053FC08091FF045DC002
:103D2000809133059091340537C08091170555C0B7
:103D30008091EB0452C08091E9049091EA042CC078
:103D4000809101054AC08091F80447C0809119050F
:103D500044C0E901A7E3B5E088E00D9009928150E5
:103D6000E1F73CC08091290590912A0515C080910A
:103D7000230533C08091F70430C08091FE042DC02C
:103D80008091EC049091ED0407C080910C0525C052
:103D90008091EF049091F004948383831FC0E90124
:103DA000A1EEB4E088E00D9009928150E1F716C0D1
:103DB0008091F90412C08091050590910605A091AB
:103DC0000705B091080583839483A583B68306C055
:103DD0008091E00402C08091EE04838390E08181B1
:103DE00082838EE1808391838AE695E0BA010E9406
:103DF000DE08DF91CF910895CF93DF93EC01E88146
:103E0000F98183E280836183662311F00E94DB1BCA
:103E10008AE695E0BE010E94DE08DF91CF91089509
:103E2000809141058823E1F080E00E947105809136
:103E30004105813031F480915C05882311F060E008
:103E400001C06BEE80911805823031F48091270516
:103E5000909128050E94FC1E10926705109218058B
:103E6000089580911805823039F48091270590914A
:103E700028056BEE0E94FC1E109218051092670533
:103E80000895CF92DF92EF92FF920F931F93DF93EB
:103E9000CF93CDB7DEB728970FB6F894DEBF0FBE2D
:103EA000CDBFD82EC92E809118058823B1F58091F9
:103EB0002105882391F50E94B61BED2CFC2CD7011F
:103EC000ED91FC9181819F012C5F3F4F823031F455
:103ED000848195819A83898342E00DC0AE014F5F52
:103EE0005F4F88E0D9010D909D01DA010D92AD017F
:103EF0008150C1F743E00281138181E060E09E01BF
:103F00002F5F3F4F0E945717882329F0D092270533
:103F1000C092280507C0C70102C08D2D9C2D61EEFF
:103F20000E94FC1E28960FB6F894DEBF0FBECDBFD0
:103F3000CF91DF911F910F91FF90EF90DF90CF9085
:103F400008955F926F927F928F929F92AF92BF92ED
:103F5000CF92DF92EF92FF920F931F93DF93CF9355
:103F6000CDB7DEB761970FB6F894DEBF0FBECDBFF9
:103F7000BC0140912105423011F0443069F4809138
:103F80001905882349F0E0912705F0912805208143
:103F90003181D901199604C0A0E0B0E020E030E002
:103FA00050914F05598300915005109151051B8385
:103FB0000A83523069F41E821F82188619861A8677
:103FC0001B8680915205909153059D838C8318C068
:103FD000809152058C83809153058D838091540587
:103FE0008E83809155058F838091560588878091B7
:103FF00057058987809158058A87809159058B8755
:104000009090F9049C86B090EB04BD8680915D058C
:1040100090915E059F878E87188A80915F0587FF44
:1040200002C081E0888B80915B05898B423019F05A
:10403000443009F06FC080911905882309F46AC0E3
:10404000F901F084EC81FD815C806D807E808F8041
:10405000A884C984DA84EB8440E049C011968D912C
:104060009C9112970817190709F03FC08C915817B7
:10407000E1F51B968C911B979816B9F51C968C91BF
:104080001C97B81691F5523041F413968D919C917E
:104090001497E817F90749F53DC013968C911397CB
:1040A000851519F514968C9114978615F1F41596CB
:1040B0008C9115978715C9F416968C9116978815CB
:1040C000A1F417968C9117978A1579F418968C910C
:1040D00018978C1551F419968C9119978D1529F410
:1040E0001A968C911A978E15A9F04F5F51964F151D
:1040F00008F4B4CF59C0FD01DE01119681E10D90A5
:1041000001928150E1F7D90118968C9118978F5F31
:1041100018968C939091600580916305882321F413
:10412000809119058823E1F5DB01ED91FC9187E190
:1041300080838091430581839F012E5F3F4FAE01B5
:104140004F5F5F4F81E1DA010D90AD01D9010D9212
:104150009D018150C1F780916005838B892F877005
:1041600059F4892F90E08077907024E09595879599
:104170002A95E1F7882331F08091610590916205DD
:10418000958B848B80916305868B809164059091DB
:104190006505908F878B8AE695E00E94DE0809C04E
:1041A000CB010E94A90805C0E4E0EF1508F4B2CFE6
:1041B000A2CF61960FB6F894DEBF0FBECDBFCF91F0
:1041C000DF911F910F91FF90EF90DF90CF90BF9004
:1041D000AF909F908F907F906F905F900895EF9237
:1041E000FF920F931F93CF93DF93182FEB01109241
:1041F000670580912105823021F48881873051F450
:1042000005C0833039F48881863021F4812F0E94E3
:104210005E25A5C08881843009F451C0853030F412
:10422000813009F1833009F098C010C08B3009F457
:1042300046C08D3021F0853009F08FC087C089815C
:104240009A81612F4B810E94641987C089819A816C
:10425000612F0E944F1880916605813009F07DC062
:104260000E94891C7AC0193E11F0113E41F48981E7
:104270009A81612F4FEF5FEF0E9406116EC080930D
:104280001805409133055091340560E070E094E0EA
:10429000440F551F661F771F9A95D1F780E020E0E5
:1042A00030E007E511E1EE24FF240E947D0688231B
:1042B00009F455C080E090E00E94571150C08981F8
:1042C0009A810E94A90880911805813009F447C09D
:1042D00088818430A1F4173881F0E0912705F091AE
:1042E0002805A081B18183E28C9311961C938AE604
:1042F00095E0BF010E94DE0830C082E005C0193E93
:1043000061F1113E51F183E08093180540911A0547
:1043100050911B0560E070E084E0440F551F661F5C
:10432000771F8A95D1F780E020E030E001E31FE1BC
:10433000EE24FF240E947D0691E090936705882378
:1043400071F080E090E00E94311F09C089819A815C
:104350000E94A9088EEE0E94B9250E94DB1BDF9106
:10436000CF911F910F91FF90EF900895EF92FF92E0
:104370000F931F9310922B0580910C058823C9F48D
:10438000809168058823A9F488E00E94E6108830AF
:1043900071F082E040E850E060E070E020E030E062
:1043A00006EB11E2EE24FF240E947D0602C00E946B
:1043B000DB1B1F910F91FF90EF900895DF92EF921A
:1043C000FF920F931F93CF93DF93EC01E881F98164
:1043D000E680F78000851185E114F10401051105DF
:1043E00039F480E090E00E94B621E881F98147C06D
:1043F000809118058823F1F5809121058823D1F556
:104400000E94B61B86E00E94E610D82E81E08093C1
:104410002B0582E00E946C04882319F082E00E9440
:10442000710584E0EE0CFF1C001F111F8A95D1F767
:1044300082E0B801A70120E030E006EB11E2EE24B3
:10444000FF240E947D06882381F0E881F98181E2C2
:10445000808388EE81838AE695E0BE010E94DE08B3
:1044600080E090E00E94B62112C0E881F98186E0E8
:10447000D81629F081E2808382EF818303C081E234
:10448000808311828AE695E0BE010E94DE08DF91FA
:10449000CF911F910F91FF90EF90DF900895BC0195
:1044A0008AE695E00E94DE08809116058093A604B6
:1044B00084E066EA74E00E94E21C80912605809305
:1044C000A50480E065EA74E00E94E21C10922105D8
:1044D0000E94DB1B0895CF93DF93E0913505F091A7
:1044E0003605C081D181DE01A956BF4FFA83E98329
:1044F000882339F087E088838C934AE023E038E012
:1045000013C086E088838C9318979D0141EE54E098
:1045100088E0FA010190AF01F90101929F018150F9
:10452000C1F742E123E438ECFD018FEF9FEF929356
:1045300082933297918380831597809123058C9382
:104540008F5F809323053E932E93FD014293FF835B
:10455000EE83CE0162E070E040E00E94FF0C882311
:1045600011F080E003C081E080936705DF91CF9177
:104570000895EF92FF920F931F93DF93CF930F92C3
:10458000CDB7DEB790912105933009F443C0943044
:1045900041F0923009F050C0882309F048C081E012
:1045A0003BC0882309F043C086E00E94E6108630B5
:1045B00021F540EC53E060E070E00090A70404C0F7
:1045C000440F551F661F771F0A94D2F740545C4F63
:1045D0006F4F7F4F84E0440F551F661F771F8A95EA
:1045E000D1F781E020E030E006E414E2EE24FF247D
:1045F0000E947D06882301F113C08091A5048F5F7E
:104600008093A504609127057091280582E00E949F
:104610007C2312C0882359F40E946B22882361F402
:1046200081E08983CE0101960E94462405C08091D5
:10463000A5048F5F8093A5040F90CF91DF911F9108
:104640000F91FF90EF9008950F931F938C0180912D
:104650003505909136050E94A908109236051092F2
:104660003505A0912705B0912805ED91FC91119792
:104670008BE18083118283E082831482158216820B
:10468000178210868AE695E0BD010E94DE0810922E
:1046900021050E94DB1BC8010E94A90880E56DE589
:1046A00075E00E94E21C80916205909163058F5F26
:1046B0009F4F29F083E562E675E00E94E21C80913D
:1046C0005F059091600590932A058093290580915C
:1046D0003F059091400594FF05C084E064E675E0D5
:1046E0000E94E21C80E061E675E00E94E21C0E94EC
:1046F000B9221F910F910895EF92FF921F93CF93CC
:10470000DF93182F7B01FB01C081D18184E066EA31
:1047100074E00E94E21C40912105509119052091FE
:10472000A50455C0423011F0443031F4552321F036
:104730008885853008F04EC0133021F488858823A1
:1047400009F087C0322F3F5F8C819D81AE81BF8190
:10475000022E04C0B695A795979587950A94D2F72F
:1047600081709070892B91F12093A504113011F480
:1047700082E003C0123021F484E08093210504C05C
:10478000133011F41093210580E065EA74E00E9473
:10479000E21C182F8823B1F08091350590913605E1
:1047A0000E94A90810923605109235050E94DB1B65
:1047B0008AEE898318868AE695E0B7010E94DE08B2
:1047C00010922105812F0E94B9225AC0232F2B312C
:1047D00008F4A8CF2093A504123041F11330D9F189
:1047E000113009F04DC080913505909136050E9439
:1047F000A908109236051092350580911905882375
:1048000039F08885853010F08AEF05C0882311F0D3
:10481000198202C08AEE898380E56CE275E00E940D
:10482000E21C809127059091280528C0552339F076
:104830008885853010F08AEF05C0882311F0198231
:1048400002C08AEE898380E56CE275E00E94E21C7A
:1048500014C02093A50480913505909136050E94DF
:10486000A90810923605109235058885882311F025
:10487000198202C08AEE89831886C7010E944F22DE
:10488000DF91CF911F91FF90EF900895CF93DF9329
:10489000C0912705D0912805988129818091210513
:1048A0008250833020F5E92FF22F21E030E040E004
:1048B00050E00090A50404C0220F331F441F551F71
:1048C0000A94D2F720953095409550958481958132
:1048D000A681B78182239323A423B5238483958360
:1048E000A683B7838091A004BE010E947C23DF9140
:1048F000CF910895CF92DF92EF92FF920F931F9383
:10490000DF93CF9300D0CDB7DEB7D82EC92E082FB6
:10491000192FD801ED91FC918091F904809326051F
:104920008091EB048093160586818093A704818192
:104930008093A00482819381A481B5818093A10496
:104940009093A204A093A304B093A404278120937E
:10495000A604D0922705C09228058BE18083809120
:10496000A00482838091A1049091A204A091A30449
:10497000B091A40484839583A683B7832383108690
:10498000118680911805882341F4809121058823A0
:1049900021F48091A004882341F488EE81838AE683
:1049A00095E0B8010E94DE087EC00E94B61BF801A7
:1049B000E080F1808BE08093A5048091A004813099
:1049C00008F466C0833020F0833009F061C04BC02A
:1049D0008FEF9FEF9A8389838091EC049091ED048F
:1049E00090932D0580932C0580E5BE016F5F7F4F6E
:1049F0000E94E21C8091A004813021F4D092350500
:104A0000C09236058AE90E94B108909328058093E8
:104A100027050097E9F18091A004823019F4C801BC
:104A20000E94A9082091270530912805D901ED9110
:104A3000FC918BE180838091A00482838091A60405
:104A400083838091A1049091A204A091A304B091CA
:104A5000A40484839583A683B783108611868091EE
:104A6000A004B90112C08AE90E94B10890933605EA
:104A700080933505009721F488EEF70181830CC0FF
:104A8000609127057091280583E00E947C230BC06C
:104A900088EED70111968C938AE695E0B8010E94C2
:104AA000DE080E94DB1B0F900F90CF91DF911F91CA
:104AB0000F91FF90EF90DF90CF900895EF92FF92CB
:104AC0000F931F93DF93CF930F92CDB7DEB79091E3
:104AD00023059F5F909323058823B1F580912105DD
:104AE000823091F440EC53E060E070E00090A70465
:104AF00004C0440F551F661F771F0A94D2F7405415
:104B00005C4F6F4F7F4F07C0809133059091340504
:104B1000AC0160E070E094E0440F551F661F771F02
:104B20009A95D1F781E020E030E006E414E2EE242B
:104B3000FF240E947D068823A1F081E08983CE01B5
:104B400001960E9446240DC08091A5048F5F80933A
:104B5000A50460912705709128058091A0040E940A
:104B60007C230F90CF91DF911F910F91FF90EF90D9
:104B700008952CEA34E03093A9042093A8049DE121
:104B80009093AC048093AD0480912105882379F043
:104B900080912C0590912D059093AF048093AE04E5
:104BA000809126058093B004809116050EC08091F7
:104BB000EC049091ED049093AF048093AE04809147
:104BC000F9048093B0048091EB048093B1048AE6E9
:104BD00095E068EA74E00E94DE0880916605823004
:104BE00050F480912105882331F4809118058823A1
:104BF00011F40E94DB1B1092220508950F931F935E
:104C00008C018FEE0E94B925C8010E94A90880E599
:104C10006DE575E00E94E21C80916205909163054C
:104C20008F5F9F4F29F083E562E675E00E94E21CEA
:104C300080915F059091600590932A0580932905E6
:104C400080913F059091400594FF05C084E064E6A3
:104C500075E00E94E21C80E061E675E00E94E21CC3
:104C60001F910F910895CF93DF93EC018AE90E9481
:104C7000B108BC01009711F480E025C0DC01ED9182
:104C8000FC918EE080838881818389819A819383DE
:104C9000828388819F012C5F3F4FAE014D5F5F4F44
:104CA000823029F48B819C819583848307C0D9014C
:104CB000FA0188E001900D928150E1F78CE195E0D6
:104CC0000E94DE0881E0DF91CF910895BF92CF92DC
:104CD000DF92EF92FF920F931F93182F6A017B01CF
:104CE000B22E8AE90E94B108DC01009711F480E03D
:104CF00012C0ED91FC9111978BE080831183C282E9
:104D0000D382E482F582B68207838CE195E0BD010F
:104D10000E94DE0881E01F910F91FF90EF90DF90DD
:104D2000CF90BF9008957F928F929F92AF92BF9243
:104D3000CF92DF92EF92FF920F931F93782E6A012A
:104D40007B01480159018AE90E94B108DC01009702
:104D500011F480E014C0ED91FC9111978AE08083FA
:104D60007182C282D382E482F58286829782A08693
:104D7000B1868CE195E0BD010E94DE0881E01F91C3
:104D80000F91FF90EF90DF90CF90BF90AF909F90EA
:104D90008F907F9008951F93182F8AE90E94B10881
:104DA000DC01009711F480E00CC0ED91FC911197AB
:104DB00088E0808311838CE195E0BD010E94DE08CC
:104DC00081E01F9108951F93182F8AE90E94B1086E
:104DD000DC01009711F480E00CC0ED91FC9111977B
:104DE00089E0808311838CE195E0BD010E94DE089B
:104DF00081E01F9108950F931F93CF93DF93EC01F0
:104E0000162F042F8AE90E94B1089C01009711F423
:104E100080E01FC0DC01ED91FC9185E08083148768
:104E20008881818389819A8193838283AF014C5FDA
:104E30005F4FDE01139688E00D90EA010992AE0102
:104E40008150D1F705878CE195E0B9010E94DE0819
:104E500081E0DF91CF911F910F910895FF920F9301
:104E60001F93CF93DF93182FF62EEA01022F8AE9C2
:104E70000E94B1089C01009711F480E020C0DC0181
:104E8000ED91FC9181E08083118388818383898106
:104E90009A8195838483AF014A5F5F4FDE01139649
:104EA00088E00D90EA010992AE018150D1F70687A2
:104EB000F2828CE195E0B9010E94DE0881E0DF9189
:104EC000CF911F910F91FF9008958F929F92AF9273
:104ED000BF92CF92DF92EF92FF920F931F93CF93E7
:104EE000DF93B82E6B01F42E922E832EA02E86E730
:104EF000841708F43FC08AE90E94B1088C0100972A
:104F0000C9F1DC01ED91FC9183E08083B182D6018F
:104F10002C91228311968D919C9112979483838377
:104F20002250223080F41582168217821086118654
:104F3000128613861486EF012596139688E00D904D
:104F400009928150E1F7A586E686F78628E930E0E8
:104F50002F1931092E0F3F1FC901692D782D4F2DB3
:104F600050E00E949A288CE195E0B8010E94DE088A
:104F700081E001C080E0DF91CF911F910F91FF9000
:104F8000EF90DF90CF90BF90AF909F908F9008955B
:104F9000FF920F931F93CF93DF93182F062FF72EB7
:104FA0008AE90E94B108EC01009711F480E016C074
:104FB000812F0E94C81C482FE881F98186E08083F8
:104FC00011833296CF01602F7F2D50E00E949A28E6
:104FD0008CE195E0BE010E94DE0881E0DF91CF9177
:104FE0001F910F91FF9008951F930E943C19182F55
:104FF0008AE695E060E070E00E947309009719F07E
:105000000E94251911E00E948B0B0E94A703812F9B
:105010001F9108958AE695E00E94D7080E94AF1C70
:105020000895089508950895089508950895089598
:10503000089508950895AA1BBB1B51E107C0AA1F3C
:10504000BB1FA617B70710F0A61BB70B881F991F29
:105050005A95A9F780959095BC01CD010895AF921E
:10506000BF92CF92DF92EF92FF920F931F93CF9355
:10507000DF93EC01A880B980CA80DB80A114B10461
:10508000C104D10441F484E2A82E89EDB82E8BE549
:10509000C82E87E0D82EC601B5012DE133EF41E0DF
:1050A00050E00E94D82827EA31E440E050E00E9416
:1050B000B9287B018C01C601B5012DE133EF41E038
:1050C00050E00E94D828CA01B9012CEE34EF4FEF0E
:1050D0005FEF0E94B9286E0D7F1D801F911F97FF03
:1050E00004C06150704080409048688379838A830F
:1050F0009B839B013F77C901DF91CF911F910F9156
:10510000FF90EF90DF90CF90BF90AF9008950E94F6
:105110002F28089580E092E00E942F280895A0E0B3
:10512000B0E08093000290930102A0930202B0933A
:1051300003020895FB01DC0102C001900D92415071
:105140005040D8F70895F999FECF92BD81BDF89AE5
:10515000992780B50895262FF999FECF1FBA92BDE1
:1051600081BD20BD0FB6F894FA9AF99A0FBE019648
:105170000895629FD001739FF001829FE00DF11DA1
:10518000649FE00DF11D929FF00D839FF00D749FC1
:10519000F00D659FF00D9927729FB00DE11DF91F6D
:1051A000639FB00DE11DF91FBD01CF0111240895CA
:1051B00097FB092E05260ED057FD04D014D00AD037
:1051C000001C38F450954095309521953F4F4F4F36
:1051D0005F4F0895F6F790958095709561957F4F94
:1051E0008F4F9F4F0895A1E21A2EAA1BBB1BFD01F2
:1051F0000DC0AA1FBB1FEE1FFF1FA217B307E407B6
:10520000F50720F0A21BB30BE40BF50B661F771F0D
:10521000881F991F1A9469F76095709580959095ED
:0E5220009B01AC01BD01CF010895F894FFCFB2
:04522E00010000007B
:00000001FF
