:100000000C941B010C9441010C9472030C94A803F2
:100010000C9441010C9441010C9441010C94410158
:100020000C9441010C9441010C94B7030C944101D0
:100030000C9441010C9441010C9491070C944101E2
:100040000C94CD070C9441010C9441010C94410196
:100050000C9441010C9441010C9441010C94410118
:100060000C9441010C9441010C9441010C94410108
:100070000C9441010C9441010C9441010C944101F8
:100080000C9441010C9441010C9441010C944101E8
:100090000C9441010C9441010C9441010C944101D8
:1000A0000C9441010C9441010C9441010C944101C8
:1000B0000C9441010C9441010C9441010C944101B8
:1000C0000C9441010C9441010C9441010C944101A8
:1000D0000C9441010C9441010C9441010C94410198
:1000E0000C9441010C9441010C9441010C94410188
:1000F0000C9441010C9441010C9441010C94410178
:100100000C9441010C9441010C9441010C94410167
:100110000C9441010C9441010C9441010C94410157
:100120000C9441010C9441010C9441010C94410147
:100130000C9441010C9441010C9441010C94410137
:100140000C9441010C9441010C9441010C94410127
:100150000C9441010C9441010C9441010C94410117
:100160000C9441010C9441010C9441010C94E30264
:100170000C9441010C9415030C9441010C94410121
:100180000C9441010C9441010C9441010C944101E7
:100190000C9441010C9441010C9441010C944101D7
:1001A0000C9441010C9441010C9441010C944101C7
:1001B0000C9441010C9441010C9441010C944101B7
:1001C0000C9441010C9441010C9441010C944101A7
:1001D0000C9441010C9441010C9441010C94410197
:1001E0000C9441010C9441010C9441010C94410187
:1001F0000C944101E7E7E7E7E7E7E8E9EACAAAABD9
:100200004525030405060708090AE7E7E7E7E7E7E6
:10021000E8E9EACBABACAD4827060708090A0B0CA6
:10022000C0A181828360614142222302030405064A
:100230000708090A0B0C11241FBECFEFDFE3DEBF56
:10024000CDBF00E00CBF18BE19BE1ABE1BBE10E227
:10025000A0E0B0E2E6EBF5E200E00BBF02C00790E1
:100260000D92A430B107D9F71BBE13E2A4E0B0E2AF
:1002700001C01D92A43AB107E1F70E9490010C94CD
:10028000D9120C9400001F93CF93DF93882391F42D
:10029000109106201B50C0E1D0E281E0BE01412F49
:1002A0000E945103811778F4181BC80FD11D0E94BA
:1002B000A104F3CF813E69F482E090E080930420B2
:1002C000909305200AC082E090E062E070E00E9416
:1002D0002A091092042010920520DF91CF911F91DE
:1002E00008951F93CF93DF93FC0110811B50EC0105
:1002F0002A9681E0BE01412F0E945103811730F4FC
:10030000181BC80FD11D0E94A104F3CF81E090E01B
:1003100062E070E00E942A09DF91CF911F91089559
:10032000CF92DF92EF92FF920F931F93DF93CF93C1
:1003300000D0CDB7DEB70E942B11882311F00E94A8
:100340003F040E9416080E94240980E090E060E0CB
:1003500070E00E942A0981E090E061E070E00E9474
:100360002A0982E090E061E070E00E942A09789416
:1003700081E00E945A03882311F00E943F048BE021
:100380008093062081E698E88093072090930820C8
:100390000E948612809309208EEF9AEC80930A20A7
:1003A00090930B2021E0E22EF12CE0920C20F092B1
:1003B0000D208A839B838E010E5F1F4F80E5B8015D
:1003C0000E942A0FEA82FB8283E5B8010E942A0F6D
:1003D0008A819B8180930E2090930F2081E08983F6
:1003E00080E0BE016F5F7F4F0E942A0F86E00E946F
:1003F000E21188E8C82E80E2D82E00E110E20E94C7
:10040000A1040E949D0C80910420909105200097EA
:10041000F9F481E068E870E246E60E944803482F5C
:10042000882369F3E0920420F0920520809109204E
:100430008F5F80930920473608F046E6455F40937A
:1004400006204B50C801B60150E00E94961206C02B
:100450000297A9F6E0920420F092052086E090E24F
:1004600062E070E041E00E94A50DC9CF9B01AC01A4
:100470006050774F824C9F4FF2E0660F771F881FC6
:10048000991FFA95D1F7E3E0220F331F441F551F40
:10049000EA95D1F70E94091221503040E0E6F6E0DB
:1004A00080E8818380E48283E0EBF9E03783268370
:1004B0008CE1848383E085838CE383830895DC016E
:1004C0008091B309837FE0EBF9E083832091F422EC
:1004D0008091F522821730F02250922F981B892F9D
:1004E0002E5F05C02150922F981B892F2F5F482F18
:1004F000681708F4462F342F12C09091F522E92F87
:10050000F0E0EA50FF4D8C9180839E3F19F41092E9
:10051000F52203C09F5F9093F5223150119633234B
:1005200061F78091F822882351F4E22FF0E0EA503D
:10053000FF4D80818093B00981E08093F822809103
:10054000B3098C60E0EBF9E08383842F0895DC012C
:100550002091F922222311F480E008958091B309BB
:100560008F7CE0EBF9E083832F3F39F48091F72211
:100570008093F6222093F92202C0261708F0262F36
:10058000322F17C0E091F622F0E0EB50FE4D808153
:100590008C939091F6229F5F9093F6228091F9229E
:1005A00081508093F9229F3F11F41092F622119608
:1005B0003150332339F78091B3098063E0EBF9E0E0
:1005C0008383822F08951F920F920FB60F9208B661
:1005D0000F920BB60F92112418BE1BBE8F939F93E0
:1005E000EF93FF939091F7228091F9228F5F809390
:1005F000F9228091B009E92FF0E0EB50FE4D8083A5
:100600009E3F19F41092F72203C09F5F9093F72248
:10061000FF91EF919F918F910F900BBE0F9008BEAD
:100620000F900FBE0F901F9018951F920F920FB64C
:100630000F9208B60F920BB60F92112418BE1BBE74
:100640008F93EF93FF938091F4228E3F19F41092D1
:10065000F42203C08F5F8093F422E091F422809112
:10066000F522E81739F0F0E0EA50FF4D80818093E1
:10067000B00902C01092F822FF91EF918F910F9074
:100680000BBE0F9008BE0F900FBE0F901F901895D5
:10069000813011F080E00895CB01642F0E94A70201
:1006A0000895813011F080E00895CB01642F0E94FD
:1006B0005F020895813011F085E8089560E875E2E1
:1006C00080E090E00E94360280E008958093EE2062
:1006D0009093EF20E0E4F6E091E0928B84E0828753
:1006E000948708951F920F920FB60F9208B60F923B
:1006F00009B60F920BB60F92112418BE19BE1BBE7D
:100700002F933F934F935F936F937F938F939F9319
:10071000AF93BF93EF93FF93E091EE20F091EF2022
:100720001995FF91EF91BF91AF919F918F917F911B
:100730006F915F914F913F912F910F900BBE0F9052
:1007400009BE0F9008BE0F900FBE0F901F90189516
:100750001F920F920FB60F9208B60F92112418BE77
:100760000F9008BE0F900FBE0F901F9018951F920C
:100770000F920FB60F9208B60F92112418BE0F9069
:1007800008BE0F900FBE0F901F9018954F925F926A
:100790006F927F928F929F92AF92BF92CF92DF9291
:1007A000EF92FF920F931F93CF93DF939C016B0106
:1007B0005A01CB01820F931F8150984010F085E8B9
:1007C0004DC0A0E0B0E0C0ECD1E040EC51E016E05C
:1007D000612EF8EDEF2EF12C01E010E06BEC71E0F2
:1007E000E3E37E2E95E3892E86E3982E33C0809135
:1007F000CF0187FDFCCFFA0112823183522E209364
:10080000C0016286C701FB0184BF00838091C401DF
:10081000F501EA0FFB1F40808415C9F08091CF01DC
:1008200087FDFCCF8091CF0181FF06C0FA0192863F
:10083000C701FB0184BF00837A865092C0011982F0
:100840001A824C828A86C701FB0184BF00832F5F16
:100850003F4F1196AC15BD0550F280E0DF91CF916E
:100860001F910F91FF90EF90DF90CF90BF90AF90CE
:100870009F908F907F906F905F904F9008951F93FF
:10088000CF93DF93E0E8F6E014828FEF8183C0E836
:10089000D6E01FEF8FEF9FEF0E94DB041F83FACF9C
:1008A000BF92CF92DF92EF92FF920F931F93CF935D
:1008B000DF938130910531F4862F642FA9010E94C6
:1008C0006C0835C0892B11F088EE31C0CA01860F43
:1008D000971F8150984010F085E829C0A0E0B0E053
:1008E000C0ECD1E096E0B92E88EDC82ED12C01E005
:1008F000E02EF12C0BEC11E016C08091CF0187FDAA
:10090000FCCF1A8279836093C001BA86C601F801D0
:1009100084BFE0828091C401F901EA0FFB1F80834C
:1009200011966F5F7F4FA417B50738F380E0DF9112
:10093000CF911F910F91FF90EF90DF90CF90BF90DC
:1009400008950E94640608950E9425080E944008A8
:100950000E94AD090E94E5070E9418080E941F0826
:1009600080E00895892B29F488E080930008809323
:1009700040080895FC012091FA223091FB22C90120
:10098000A0E0B0E0BC015527442780912008909159
:100990002108A0E0B0E0482B592B6A2B7B2B8091DB
:1009A000FA229091FB222817390729F740835183B7
:1009B0006283738308954FB7F8948630910518F1D8
:1009C0002091200830912108280F391F809120089C
:1009D000909121088217930740F48091200890910C
:1009E000210882179307C8F30EC0809120089091C8
:1009F000210828173907C8F3809120089091210811
:100A000082179307C8F34FBF089520E090E0FC01E0
:100A100053E0EE0FFF1F5A95E1F7E80FF91FE4507E
:100A2000FD4D84819581892B09F021E0822F089565
:100A3000DF92EF92FF920F931F93DFB6F8948091AD
:100A4000F2208F3F09F456C090E0FC01A3E0EE0FC6
:100A5000FF1FAA95E1F7E80FF91FE450FD4DE08074
:100A6000F180028113812091FA223091FB22C8018A
:100A7000AA27BB272817390769F4E0922808F092C3
:100A8000290880910C08806180930C0880910708E8
:100A9000836003C0809107088C7F80930708609172
:100AA000FA227091FB229B0140E050E080912008E7
:100AB00090912108A90133272227A0E0B0E0282B3C
:100AC000392B4A2B5B2B8091FA229091FB226817DD
:100AD000790729F72E193F09400B510B2F5F3F4F24
:100AE0004F4F5F4F2F5F3F4F4F4F5F4718F481E0ED
:100AF0008093F120DFBE1F910F91FF90EF90DF9068
:100B000008958091F120882309F44CC01092F120BF
:100B10003091F020332309F445C08091F3208F3FBA
:100B200059F48091F4208F3F39F48091F220809322
:100B3000F4208093F32012C02091F2208091F420C1
:100B400090E0FC0143E0EE0FFF1F4A95E1F7E80F4C
:100B5000F91FE450FD4D20872093F4208091F2206E
:100B600090E0FC0123E0EE0FFF1F2A95E1F7E80F6C
:100B7000F91FE450FD4D80858093F2208091F42090
:100B800090E0FC01B3E0EE0FFF1FBA95E1F7E80F2C
:100B9000F91FE450FD4D8FEF808731503093F020E6
:100BA0000E94180508950F931F93882311F08AE877
:100BB00083C00FB7F8940E9481051091F020112393
:100BC00009F47DC04091F220242F842F312F22235D
:100BD000F1F4442339F4809104238093F2200E949D
:100BE00018050EC090E0FC01A3E0EE0FFF1FAA95D0
:100BF000E1F7E80FF91FE450FD4D80910423808751
:100C00008FEF8093042311501093F0204AC0822F5D
:100C100090E0FC0173E0EE0FFF1F7A95E1F7E80F1B
:100C2000F91FE450FD4D50853150822F09F447C023
:100C3000252FCDCF222319F52091F420332359F409
:100C4000222321F48FEF8093F42002C080910423AB
:100C50008093F32026C0842F90E0FC0163E0EE0F28
:100C6000FF1F6A95E1F7E80FF91FE450FD4D8091F1
:100C7000042380872223A9F44093F42012C0822FFA
:100C800090E0FC0153E0EE0FFF1F5A95E1F7E80FEB
:100C9000F91FE450FD4D422F20852F3F59F680E08B
:100CA00005C0109200231092012381E00FBF88231A
:100CB00011F489E801C080E01F910F9108953091EF
:100CC000F320232F432FE9CF1F931FB7F8940E94DF
:100CD00081051FBF1FEF25C06FB7F894822F90E0EA
:100CE000FC01B3E0EE0FFF1FBA95E1F7E80FF91F23
:100CF000E450FD4D20854481558186819781108780
:100D000014821582168217822F3F09F43FEF6FBFBE
:100D10004115510551F03093F4202093F320FA014E
:100D200019953091F4202091F3202F3FA9F63093AC
:100D3000F4202093F3201F9108954F925F926F92B9
:100D40007F929F92AF92BF92CF92DF92EF92FF92EB
:100D50000F931F935A016B01F901882311F08AE860
:100D6000C0C00115110509F4B9C08091002390910C
:100D70000123892B11F088E8B4C06091FA227091A8
:100D8000FB229B0140E050E08091200890912108D7
:100D9000A90133272227A0E0B0E0282B392B4A2BCA
:100DA0005B2B8091FA229091FB226817790729F733
:100DB000309721F0319709F091C011C0D601C501DB
:100DC00080589040A040B04080589F4FAF4FBF47E1
:100DD00008F086C0A20EB31EC41ED51E10C0D601D8
:100DE000C50180589040A040B040821B930BA40BDB
:100DF000B50B80589F4FAF4FBF4708F071C09FB6EB
:100E0000F8940E9481053091F2203F3F31F06091CB
:100E1000F020432F232F50E041C01092F220309356
:100E2000042327C02F3FA9F1822F90E0FC0173E03B
:100E3000EE0FFF1F7A95E1F7E80FF91FE450FD4D23
:100E400080819181A281B38125013601481A590A16
:100E50006A0A7B0AD301C2018F5F9F4FAF4FBF4722
:100E600010F4808518C020930423321721F41092C7
:100E7000F22091E017C0842F90E0FC0133E0EE0FE8
:100E8000FF1F3A95E1F7E80FF91FE450FD4D10867A
:100E900046C08FEF242F5F5F422F282F561708F48C
:100EA000C1CF2DC0A092FC22B092FD22C092FE22A2
:100EB000D092FF220093002310930123E09202239B
:100EC000F09203238091F0208F5F8093F02099238C
:100ED00011F00E9418059FBE80E003C088EE01C09B
:100EE0008BE81F910F91FF90EF90DF90CF90BF9014
:100EF000AF909F907F906F905F904F900895842F58
:100F000090E0FC0123E0EE0FFF1F2A95E1F7E80FC8
:100F1000F91FE450FD4D10868FEF8093042390E07D
:100F2000C1CF1F920F920FB60F9208B60F9209B65B
:100F30000F920BB60F92112418BE19BE1BBE2F9331
:100F40003F934F935F936F937F938F939F93AF9351
:100F5000BF93EF93FF938091FA229091FB22019629
:100F60008093FA229093FB220E941805FF91EF9143
:100F7000BF91AF919F918F917F916F915F914F91B1
:100F80003F912F910F900BBE0F9009BE0F9008BE9E
:100F90000F900FBE0F901F9018951F920F920FB6D3
:100FA0000F9208B60F92112418BE8F938091F020F3
:100FB000882319F081E08093F1208F910F9008BE73
:100FC0000F900FBE0F901F9018951092F020109266
:100FD000F1201092FA221092FB228FEF8093F220E0
:100FE0008093F3208093F4208093042310920023B5
:100FF000109201230E9455080895FC018091FA2265
:101000009091FB222091680830916908A0E0B0E03F
:10101000DC019927882740E050E0822B932BA42BFA
:10102000B52B80839183A283B383089581E00895D3
:1010300084E88093800181E6809381010895E0EA4D
:10104000F0E0828184608283089582E08093500082
:101050008091510081FFFCCF98ED94BF84E0E0E4E3
:10106000F0E0818394BF81E08093400082E0E0E57E
:10107000F0E0868380916000816080936000089535
:10108000E0E4F6E0808180618083808180688083F5
:10109000808181608083808180628083808188609C
:1010A000808380818F7B8083089588E0809300080F
:1010B0008093400880EF80930C0880E380934C0875
:1010C00083E080930608E1E4F8E08081806180831A
:1010D00089E28093430808956F927F929F92AF9226
:1010E000BF92CF92DF92EF92FF920F931F93DF9305
:1010F000CF93CDB7DEB7C054D040CDBFDEBFD82E22
:10110000A62EC42EB52E3E010894611C711C662DBE
:10111000A0E4B6E0EE24E39470E1F72E00EC18E0D2
:1011200053E0952E20EC38E0AE01405C5F4F962DE9
:10113000961B70914906809149068C7F19968C9375
:1011400019971696EC9216971696FC921697000031
:10115000000000000000000000000000000000008F
:101160000000000000000000000000000000F80186
:1011700093828091C20887FFFCCF9F77F901938308
:101180008091C20887FFFCCFF90113828091C208C9
:1011900087FFFCCF8091C3081596FC921597159692
:1011A000EC92159719967C931997F3018083641636
:1011B000750621F00894611C711CB9CFFE013196AF
:1011C00020E030E0DE01AF5BBF4F81912827022E87
:1011D0002295207F2025032E322F22952F70022664
:1011E000269532272327220F220F220F2025EA17C8
:1011F000FB0759F7232B11F085E814C0DE01119687
:10120000AD0DB11D8C2D9B2D9C01AD0106C0FA01C9
:101210008191AF01F90181939F01842F8A1B8A1567
:10122000B0F380E0C05CDF4FCDBFDEBFCF91DF9178
:101230001F910F91FF90EF90DF90CF90BF90AF90F4
:101240009F907F906F900895E0E8F6E08FEF8483A1
:101250008083089584309105E9F08530910548F444
:101260008230910599F08330910590F4019761F4F3
:1012700009C08630910591F08630910568F0079796
:1012800019F40EC021E00DC020E00BC022E009C01F
:1012900023E007C024E005C025E003C026E001C02C
:1012A00027E06115710521F061307105A9F40BC0CB
:1012B00081E090E002C0880F991F2A95E2F7E0E8EC
:1012C000F6E08683089502C0660F771F2A95E2F73D
:1012D000E0E8F6E06583089581E090E002C0880FC1
:1012E000991F2A95E2F7E0E8F6E0878308951092C7
:1012F000A006089584309105E9F08530910548F401
:101300008230910599F08330910590F4019761F452
:1013100009C08630910591F08630910568F00797F5
:1013200019F40EC081E00DC080E00BC082E009C05E
:1013300083E007C084E005C085E003C086E001C00B
:1013400087E02091A80630E002C0359527958A9560
:10135000E2F721703070C901089580E58093C008DC
:1013600080E1E0E4F6E085830895E0E4F6E0209192
:101370004906909149069C7F9187806C90E1968305
:10138000E0ECF8E083838091C20887FFFCCFE0ECBB
:10139000F8E063838091C20887FFFCCFE0E4F6E0C9
:1013A00080E1858321870895E0E4F6E020914906F5
:1013B000909149069C7F9187806890E19683E0EC4C
:1013C000F8E083838091C20887FFFCCFE0ECF8E06F
:1013D00013828091C20887FFFCCF8091C308E0E4AC
:1013E000F6E090E1958321870895CF93DF93DC01A8
:1013F00080E1E0E4F6E0868380E2E0ECF8E08383DD
:101400008091C20887FFFCCFE0ECF8E013826130E6
:10141000A9F0FD01262FC0ECD8E08091C20887FF1B
:10142000FCCF8091C3081B82819321502230A8F702
:101430006250862F90E00196A80FB91F8091C208D4
:1014400087FFFCCF8091C3088C9380E1E0E4F6E055
:101450008583DF91CF910895DC0180E1E0E4F6E03F
:10146000868380E6E0ECF8E083838091C20887FF02
:10147000FCCFE0ECF8E09D9161508091C20887FFBD
:10148000FCCF93836623B9F78091C20887FFFCCF16
:1014900080E1E0E4F6E085830895FF920F931F93C7
:1014A000062FF42E0E94D409082310E002C01595DF
:1014B0000795FA94E2F7802F1F910F91FF900895FE
:1014C000DF92EF92FF920F931F93D82EF62EE42E09
:1014D000022F0E94D40910E002C0000F111FEA94ED
:1014E000E2F76F2D6023F094F8226F298D2D0E9472
:1014F000B5091F910F91FF90EF90DF9008951F9312
:1015000081E06FE140E00E944D0A8830A1F48FE055
:101510000E94D40982E069E00E94B50910E08FE0E2
:101520000E94D40980FD07C088EC90E00E94DB0493
:101530001F5F1330A1F71F9108950F931F93082F7A
:1015400080911D238F30E9F488E0E0E4F6E08683A3
:1015500080911F238823E1F310921F238FE00E94C4
:10156000D40980EA91E10E9466038EE068E00E945F
:10157000B509083011F0033021F488E080931D2371
:10158000D9C181E06FE140E00E944D0A80931D23A4
:10159000083009F455C0093050F4043009F4A2C0F1
:1015A000063009F4ACC0033009F0BBC161C00F3094
:1015B00069F0003120F4093009F0B3C171C006317F
:1015C00009F4D6C0093109F0ACC13EC182E063E044
:1015D0000E94B5090E948612682F192F8DE20E9481
:1015E000B5098EE267E040E0212F0E94600A8FE09B
:1015F0000E94D40987E991E10E9466038EE06FEFB3
:1016000040E020E10E94600A0000000000000000AD
:1016100000000000000000000000000000000000CA
:10162000000000000000000088E0E0E4F6E08583B0
:1016300083E290E00E94DB0400931D238FE07AC1D7
:10164000883009F46EC182E068E00E94B5090000AC
:10165000000000000000000000000000000000008A
:10166000000000000000000000000000000059C160
:10167000883009F456C182E063E00E94B509000099
:10168000000000000000000000000000000000005A
:10169000000000000000000000000000000041C148
:1016A000883029F1893020F4863009F03AC105C02C
:1016B000863119F0893109F034C182E069E00E9475
:1016C000B50900000000000000000000000000005C
:1016D000000000000000000000000000000000000A
:1016E00000001FC1883019F0893021F41AC10E940E
:1016F0007F0A17C182E064E00E94B50912C18930F7
:1017000059F08A3020F4883009F00BC11AC08631B4
:1017100019F0893109F005C182E066E00E94B5093F
:1017200000000000000000000000000000000000B9
:1017300000000000000000000000000000000000A9
:10174000F0C00E947F0A82E066E00E94B5090000B6
:101750000000000000000000000000000000000089
:101760000000000000000000000000000000D9C0E0
:10177000883001F1893020F4863009F0D2C031C0C0
:10178000893019F0893109F0CCC082E066E10E940D
:10179000B50900000000000000000000000000008B
:1017A0000000000000000000000000000000000039
:1017B0000000B7C00E947F0A82E066E10E94B5097E
:1017C0000000000000000000000000000000000019
:1017D0000000000000000000000000000000000009
:1017E000A0C082E069E00E94B5090000000000008E
:1017F00000000000000000000000000000000000E9
:101800000000000000000000000081E06FE140E007
:101810000E944D0A80931D23893009F08BC082E01D
:1018200066E10E94B5090000000000000000000011
:1018300000000000000000000000000000000000A8
:101840000000000000006DC0883009F454C08930E9
:1018500020F4863009F065C01BC0893021F0863144
:1018600009F05FC015C082E069E10E94B50900007F
:101870000000000000000000000000000000000068
:10188000000000000000000000000000000049C04F
:1018900082E069E00E94B50900000000000000003D
:1018A0000000000000000000000000000000000038
:1018B000000000000000000081E06FE140E00E94B5
:1018C0004D0A80931D23893009F034C082E069E11C
:1018D0000E94B509000000000000000000000000A8
:1018E00000000000000000000000000000000000F8
:1018F0000000000016C00E947F0A82E069E10E9499
:10190000B509000000000000000000000000000019
:1019100000000000000000000000000000000000C7
:10192000000081E06FE140E00E944D0A80931D239A
:101930008F31B9F31F910F9108958091212388234E
:1019400021F00E94AC0C1092212380912023823040
:1019500011F40E94A80D0895CF93DF93E091222304
:10196000F0E0EF012196DE01AE5DBC4DAC91EE5D85
:10197000FC4D2281263210F025E203C0222309F417
:1019800021E0A295A695A695A3708FEFA89FC00110
:10199000112430E0AC01429FC001439F900D529F43
:1019A000900D11246FE670E00E94F5116F3F7105F4
:1019B00011F008F06FEFCE5DDC4D688382E293E2B8
:1019C0000E947101DF91CF9108951F93DF93CF9310
:1019D0000F92CDB7DEB787E00E94D409182FCE0151
:1019E000019661E00E94F509698167FD0DC06E5F97
:1019F00082E293E20E94F509E981F0E0EE5DFC4DA0
:101A0000128381E0809321230F90CF91DF911F916A
:101A1000089582E08093202386E10E949D0A089524
:101A2000EF92FF920F931F93CF93DF93EC017B0113
:101A3000042F442331F08CE260EF44E020911C231A
:101A400004C08CE260EF44E020E00E94600A82E083
:101A5000E816F10498F4002361F08CE26EE041E0B6
:101A6000209116230E94600A8FE260E00E94B5096F
:101A700016C08CE26EE041E027E00FC060911A23AF
:101A80006295607F80911B23682B8FE20E94B509CD
:101A90008CE26EE041E0209116230E94600A89E109
:101AA0000E949D0A8931D9F7809149068C7FE0E434
:101AB000F6E0818781E080932023E1E0EE16F104D7
:101AC00071F58881909110238331A0F080911823C3
:101AD000992341F4882319F08FEB93E01EC087EA25
:101AE00097E01BC0882319F087E592E016C087E1D4
:101AF00096E013C080911823992341F4882319F0AC
:101B000083E091E00AC08FE292E007C0882319F0D9
:101B100087E990E002C087EB91E00E94DB0400E4DB
:101B200016E088E0F80185838683CE0168810E94F3
:101B30002C0A809149068360F8018187DF91CF915B
:101B40001F910F91FF90EF9008950E94100D08953E
:101B5000109220238091F520833071F0843028F496
:101B6000882331F0813061F405C0853049F406C026
:101B700080E007C087E805C081EE03C089EE01C0A0
:101B800085E80E94430108958091052385FD03C0E7
:101B9000982F9F7308C0982F91959F719195963FAC
:101BA00014F495EF22C080911023823059F08530D3
:101BB000A1F08823A1F480911823882359F496304A
:101BC000FCF411C080911823882321F494303CF058
:101BD00093E00FC09B3094F402C096308CF49032A6
:101BE00014F08FE908C097FF04C0892F8F71806AB5
:101BF00002C0892F80688093052308959AE0F9CF69
:101C000095E0F7CF1F9384E08093162323E0209381
:101C10001B238FEF9FEF80931123909312238093C8
:101C200014239093152311E010931823109210237E
:101C300085E080931A2320931C238AE88093052350
:101C40000E94C40D10931323109219231F9108951D
:101C500085FD03C0982F9F7304C0982F91959F71A5
:101C6000919580911023853051F4892F992787FD14
:101C70009095EEEFF1E0E81BF90B849108958091C7
:101C80001823292F332727FD3095882331F4E4E1E9
:101C9000F2E0E21BF30B84910895EAE2F2E0E21B2A
:101CA000F30B84910895823091F0853009F44AC095
:101CB000882311F080E008958CE068E043E020E0A4
:101CC0000E94600A86E163E040E023E010C08CE0FF
:101CD00068E043E021E00E94600A86E163E040E0C2
:101CE00022E00E94600A8CE063E040E020E00E9475
:101CF000600A80911823882321F48CE064E042E09C
:101D000009C08CE064E042E021E00E94600A8CE0BF
:101D100060E144E020E00E94600A87E164E042E084
:101D200020E00E94600A84E167E040E020E00E9439
:101D3000600A88E06FE140E0209118230E94600A69
:101D400081E008958CE068E043E021E00E94600AB1
:101D500086E163E040E022E00E94600A8CE063E0FC
:101D600040E020E00E94600A8CE060E144E021E075
:101D70000E94600A8CE064E042E021E00E94600A78
:101D800087E164E042E020E00E94600A809118232D
:101D9000843010F01092182384E167E040E024E0E2
:101DA0000E94600A20911823220F255F83E16FEFC4
:101DB00040E00E94600A81E008951F93CF93DF9373
:101DC00082E2609111230E94B5096091122383E29F
:101DD0000E94B509C6E0D3E214E2812F69910E9406
:101DE000B5091F5F1C32C9F780E2609114230E947D
:101DF000B5096091152381E20E94B50988E060E68B
:101E000045E0209113230E94600A8FE26FE040E0DA
:101E100020911B230E94600A8EE268E043E020913B
:101E200019230E94600A8FE260EF44E020911A2398
:101E30000E94600A809110230E94530E8091052316
:101E40000E94280E682F85E00E94B509DF91CF918E
:101E50001F910895FF920F931F93CF93DF93EB0190
:101E60008E3431F0893541F4888180931C2315C16B
:101E700088818093162311C190911D239F3011F406
:101E800081E80CC18B3009F4FDC08C3070F48230D5
:101E900009F4C0C0833018F48823D9F115C0833009
:101EA00009F4C4C0843081F489C0833519F18435C4
:101EB00028F48F3459F0803539F40FC0873509F490
:101EC000A2C0803F09F4BBC084EFE8C02881209302
:101ED0001B238FE26FE040E0AFC06881898160938F
:101EE00011238093122382E20E94B509609112238C
:101EF00083E20CC068818981609314238093152349
:101F000080E20E94B5096091152381E20E94B50923
:101F1000C4C080912023882309F0BBC08091102386
:101F20002881853029F48FE090E0A0E0B0E004C083
:101F30008FEF97E0A0E0B0E004C0B695A795979525
:101F400087952A95D2F780FFA6C010911823888123
:101F50008093182380911D23883011F408E006C077
:101F600088E00E949D0A8830D9F706E1809110230D
:101F700020911823853029F4220F255F83E16FEF2C
:101F800006C0222341F0112331F088E06FE140E0E8
:101F90000E94600A0CC00E94530E0E94C40D8091E2
:101FA00005230E94280E682F85E00E94B50908309D
:101FB00009F473C086E10E949D0A6FC080912023BE
:101FC000882309F066C0983011F418E006C088E054
:101FD0000E949D0A8830D9F716E1F8808F2D0E9463
:101FE000530E082F183019F086E10E949D0A002335
:101FF00009F451C0F09210230E94C40D8091052372
:102000000E94280E10C0288120931A238FE260EFCF
:1020100044E012C08881809305230E94C40D809102
:1020200005230E94280E682F85E070CF2881209319
:10203000132388E060E645E00E94600A2EC0888194
:10204000809306238981809307238A8180930823C4
:102050008B81809309238C8180930A238D818093C7
:102060000B238E8180930C238F8180930D23C6E0F8
:10207000D3E214E2812F69910E94B5091F5F1C32DF
:10208000C9F70BC02881209319238EE268E043E052
:10209000D3CF86E803C088EE01C080E0DF91CF9106
:1020A0001F910F91FF900895DF92EF92FF920F938F
:1020B0001F93DF93CF930F92CDB7DEB7D82E81E079
:1020C00090E065E170E041E050E09E012F5F3F4FFE
:1020D0000E94500400E416E088E0F80186838CE753
:1020E00091E00E94DB04FF24F394F801F68281E082
:1020F00090E00E94DB04F801F58210E084E690E0B5
:102100000E94DB0481E06FE140E00E944D0A1A303A
:1021100011F485E838C0883011F01F5FEFCF80934D
:102120001D2329812223C1F182E16FE040E00E945A
:10213000600A32C086E060E645E00E944D0A9801E0
:10214000220F331F220F331F082F10E0022B132BF7
:10215000F394F8E0FF1671F783E00E949D0A8FE088
:102160000E94D409E0E4F6E081E08487E186C801BA
:102170000E948B12DD2011F00E94020E0E94DD0EE3
:102180001092202380E00F90CF91DF911F910F914B
:10219000FF90EF90DF90089583E060E344E020E05B
:1021A0000E94600A83E068E043E020E00E94600A49
:1021B00083E067E040E021E00E94600A8EE260E296
:1021C00045E021E00E94600A8CE060E847E021E001
:1021D0000E94600A84E062E041E021E00E94600A1F
:1021E0008EE068E00E94B50986E00E949D0AE090BA
:1021F0004906809149068C7FE0E4F6E0818700E0A3
:1022000010E0FF2497CF1F930E945410882311F0F1
:1022100085E81FC080EA91E10E946603E0E4F6E0F1
:1022200081E0848780914906836081870E948612BD
:10223000682F192F8DE20E94B5098EE267E040E019
:10224000212F0E94600A80E00E94C2110E94AF11FB
:1022500080E01F910895FF920F931F93CF93DF9318
:102260000E94A404882309F05BC0E0E4F6E081E06A
:10227000858388E086838AE491E00E94DB0410E095
:10228000C0E4D6E0FF24F39401E00E8381E090E007
:102290000E94DB04FD821A3009F442C084E690E01B
:1022A0000E94DB048CE10E94D409873011F01F5F8B
:1022B000ECCF83E067E040E021E00E94600A82E02A
:1022C00063E00E94B50910E084E690E00E94DB0420
:1022D00081E06FE140E00E944D0A1A3009F1883038
:1022E00011F01F5FF1CF80931D2381E090E060E04B
:1022F00070E048E050E026E033E20E94500481E0C4
:102300000E945410882361F480EA91E10E946603E0
:10231000809149068360E0E4F6E0818780E001C0B7
:1023200085E8DF91CF911F910F91FF9008958FE085
:102330000E94D40984FF03C081E080931F23089585
:102340008FE00E94D40983FF09C08091202381304F
:1023500019F40E94090D08950E94E50C08958091DA
:102360001D238F3011F082E8089588E00E949D0AB5
:10237000883011F085E8089581E090E00E94B20471
:1023800080E00895882311F088EE089580911D2340
:102390008F3011F481E8089580912023882381F4FF
:1023A00088E00E949D0A8830D9F780E090E00E9482
:1023B000B2048FE00E949D0A8F3011F480E00895EE
:1023C00086E80895982F80912023882311F086E8CD
:1023D0000895983029F488E00E949D0A88E00895C5
:1023E00086E10E949D0A86E00895AA1BBB1B51E16D
:1023F00007C0AA1FBB1FA617B70710F0A61BB70B75
:10240000881F991F5A95A9F780959095BC01CD0119
:102410000895A1E21A2EAA1BBB1BFD010DC0AA1F25
:10242000BB1FEE1FFF1FA217B307E407F50720F03D
:10243000A21BB30BE40BF50B661F771F881F991FB8
:102440001A9469F760957095809590959B01AC0101
:10245000BD01CF010895AF92BF92CF92DF92EF926C
:10246000FF920F931F93CF93DF93EC01A880B98065
:10247000CA80DB80A114B104C104D10441F484E218
:10248000A82E89EDB82E8BE5C82E87E0D82EC60180
:10249000B5012DE133EF41E050E00E94BE1227EA82
:1024A00031E440E050E00E949F127B018C01C601A4
:1024B000B5012DE133EF41E050E00E94BE12CA01A8
:1024C000B9012CEE34EF4FEF5FEF0E949F126E0DBB
:1024D0007F1D801F911F97FF04C061507040804096
:1024E0009048688379838A839B839B013F77C901E6
:1024F000DF91CF911F910F91FF90EF90DF90CF90E0
:10250000BF90AF9008950E942B12089580E090E252
:102510000E942B120895A0E0B0E0809300209093D9
:102520000120A0930220B09303200895FB01DC0159
:1025300002C001900D9241505040D8F70895629F1B
:10254000D001739FF001829FE00DF11D649FE00DAB
:10255000F11D929FF00D839FF00D749FF00D659F0C
:10256000F00D9927729FB00DE11DF91F639FB00D0B
:10257000E11DF91FBD01CF011124089597FB092E1C
:1025800005260ED057FD04D044DF0AD0001C38F4D5
:1025900050954095309521953F4F4F4F5F4F08958F
:1025A000F6F790958095709561957F4F8F4F9F4F6F
:0625B0000895F894FFCF2E
:0425B6000100000020
:00000001FF
