:100000000C94D1000C94F0000C94F0000C94F000CF
:100010000C94F0000C94F0000C94F0000C94F000A0
:100020000C94F0000C94F0000C94F0000C94F00090
:100030000C94F0000C94F0000C94F0000C94F00080
:100040000C94F0000C94F0000C94F0000C94F00070
:100050000C94F0000C94F0000C94F0000C94F00060
:100060000C94F0000C94F0000C94F0000C94F00050
:100070000C94F0000C94F0000C94F0000C94F00040
:100080000C94F0000C94F0000C94F0000C94F00030
:100090000C94F0000C94F0000C94F0000C94F00020
:1000A0000C94F0000C94F0000C94F0000C94F00010
:1000B0000C94F0000C94F0000C94F0000C94F00000
:1000C0000C94F0000C94F0000C94F0000C94F000F0
:1000D0000C94F0000C94F0000C94F0000C94F000E0
:1000E0000C94F0000C9420070C942A070C94F5064D
:1000F0000C9474060C949F060C9434070C944906D7
:100100000C94CA060C942C0C0C94550C0C94F00016
:100110000C94F0000C94F0000C9448070C943E07EB
:1001200003020201010000FFFEFDFCFBF9F7F4EF02
:10013000D324941E0E1E1E2F262DB82BC834073232
:1001400075327F31AB39723D0000103F2D357F4055
:100150007523852365233B2354237B2294221D236F
:100160000000000053220422CD22D9216922F4216B
:1001700035222622E5214422010401010102010168
:100180000101010101010101040108020101010154
:100190000201010201020101020102020101010149
:1001A000080011241FBECFEFD1E4DEBFCDBF13E0A6
:1001B000A0E0B2E0E4EDF3E900E00BBF02C007907D
:1001C0000D92AE31B107D9F71DE0AEE1B3E001C049
:1001D0001D92AB32B107E1F70E9439040C94E84953
:1001E0000C940000AF92BF92CF92DF92EF92FF92F9
:1001F0000F931F93DF93CF93CDB7DEB7CF5FD04080
:100200000FB6F894DEBF0FBECDBFF22EE32ED42E74
:10021000C52EB82EA92EA8010FE113E0F801A08188
:10022000B1811097E9F082818F15D1F483818E1509
:10023000B9F484818D15A1F485818C1589F48681AA
:10024000861771F48781871759F480858B1541F4DF
:1002500081858A1529F4FA01B183A08381E067C002
:100260003A9687E0E730F807D1F6A0E0B0E0F80171
:10027000808191819D012F5F3F4F892B09F04FC0F5
:10028000FA0120833183FD01EE0FFF1FCD0143E012
:10029000880F991F4A95E1F7E80FF91FE15EFC4FBF
:1002A00020833183FD01EE0FFF1FEE0FFF1FEA0FCA
:1002B000FB1FEE0FFF1FEF5DFC4FF082E182D28249
:1002C000C38264837583B682A782809107078F5F9C
:1002D0008093070700D000D000D0EDB7FEB731966D
:1002E0008E010F5F1F4FADB7BEB712961C930E93D2
:1002F000119780E092E093838283358324830E9468
:10030000B8450F900F900F900F90EDB7FEB7128386
:1003100001830E94714581E00F900F9008C0D901C0
:10032000065F1F4F2436310509F0A1CF80E0C15090
:10033000DF4F0FB6F894DEBF0FBECDBFCF91DF9178
:100340001F910F91FF90EF90DF90CF90BF90AF90F3
:100350000895EF92FF920F93DF93CF93CDB7DEB75F
:10036000CF5FD0400FB6F894DEBF0FBECDBF062FD3
:1003700000D000D000D0EDB7FEB731967E010894D2
:10038000E11CF11CADB7BEB71296FC92EE9211972C
:1003900026E132E033832283848315820E94B845AC
:1003A0000F900F900F900F90EDB7FEB7F282E182A1
:1003B0000E9471450F900F90002319F484E392E09E
:1003C00009C0013F19F48CE392E004C0003F21F41E
:1003D00081E592E00E948345C150DF4F0FB6F8944B
:1003E000DEBF0FBECDBFCF91DF910F91FF90EF9099
:1003F0000895EF92FF920F931F93442369F48CE0CA
:1004000040EC56EC6DE270E020E030E001E112E0FB
:10041000EE24FF240E94AB0A1F910F91FF90EF90F2
:1004200008952F923F924F925F926F927F928F9298
:100430009F92AF92BF92CF92DF92EF92FF920F9373
:100440001F93DF93CF93CDB7DEB7CB50D1400FB61C
:10045000F894DEBF0FBECDBFFF242DE0C22ED12CFD
:10046000CC0EDD1E95E6292E92E0392E8EEB482E1D
:100470008AEB582E0FE7602E02E0702E12E0812EDC
:10048000912C8C0E9D1E5E010894A11CB11C69C0AC
:100490000F2D10E000D000D000D0EDB7FEB73196A0
:1004A000ADB7BEB71296DC92CE92119733822282FC
:1004B0000F5F1F4F15830483015010400E94B84501
:1004C0000F900F900F900F90EDB7FEB7D282C182C0
:1004D0000E947145F2E0FA835C824B82F801B3E03E
:1004E000EE0FFF1FBA95E1F7000F111FE00FF11F8C
:1004F000E15EFC4F808191819E838D830F900F90F0
:100500000E940C45898380910C078F5F80930C07B4
:1005100000D000D000D0EDB7FEB73196ADB7BEB772
:100520001296DC92CE921197738262828483158236
:100530000E94B8450F900F900F900F90EDB7FEB747
:10054000D282C1820E9471450F900F9082E0B40167
:1005500041E0950100910C07E5E0EE2E0E94A543D5
:10056000F39480910707F81608F492CF8CE040ECE2
:1005700056EC6DE270E020E030E001E112E0EE24A4
:10058000FF240E94AB0AC55FDE4F0FB6F894DEBFB2
:100590000FBECDBFCF91DF911F910F91FF90EF90D4
:1005A000DF90CF90BF90AF909F908F907F906F9093
:1005B0005F904F903F902F9008958F929F92AF92AF
:1005C000BF92CF92DF92EF92FF920F931F93DF9330
:1005D000CF9300D0CDB7DEB77901D42EC52EB62E7D
:1005E000A72E982E892E8FEF9FEF9A838983892DCE
:1005F000982D8E010F5F1F4F0E94F20009811A8112
:10060000882349F097014D2D5C2D6B2D7A2D892D76
:10061000982DEE2409C097014D2D5C2D6B2D7A2D60
:10062000892D982DEE24E3940E9419430F900F908A
:10063000CF91DF911F910F91FF90EF90DF90CF90BE
:10064000BF90AF909F908F900895EF92FF920F937D
:100650001F93DF93CF93CDB7DEB7CB50D1400FB60A
:10066000F894DEBF0FBECDBF82E08A838EEB9AEB9B
:100670009C838B838FEF9FEF9E838D830E940C451D
:10068000898380911E038F5F80931E0380910807EA
:1006900090910907A0910A07B0910B070196A11D3F
:1006A000B11D8093080790930907A0930A07B093A0
:1006B0000B072DB73EB7285030400FB6F8943EBF19
:1006C0000FBE2DBF4DB75EB74F5F5F4F8E01035F0B
:1006D0001F4FEDB7FEB71283018323E932E0FA0121
:1006E0003383228384839583A683B7830E94B8458E
:1006F0002DB73EB72A5F3F4F0FB6F8943EBF0FBEEF
:100700002DBFEDB7FEB7128301830E9471450F9094
:100710000F9082E0BE016E5F7F4F41E09E012F5F30
:100720003F4F00911E03EE240E94A543882331F021
:1007300081E090E060E070E00E94780C8BE040E4A3
:100740005BE46CE470E020E030E005E213E0EE24CE
:10075000FF240E94AB0AC55FDE4F0FB6F894DEBFE0
:100760000FBECDBFCF91DF911F910F91FF90EF9002
:100770000895EF92FF920F931F938823C1F483EBA8
:1007800092E00E94834580E090E060E070E00E948B
:10079000780C8BE040E45BE46CE470E020E030E057
:1007A00005E213E0EE24FF240E94AB0A03C081E0BF
:1007B0000E9491421F910F91FF90EF900895AF9288
:1007C000CF92EF920F938EEB9AEB64E140E025E03D
:1007D00005E0EE24E394CC24AA240E94E1410F9189
:1007E000EF90CF90AF900895DF93CF9300D0CDB727
:1007F000DEB7882349F419821A8283E5BE016F5F50
:100800007F4F0E94084403C081E00E9491420F90F4
:100810000F90CF91DF9108950F93DF93CF930F92B5
:10082000CDB7DEB78823E9F4633521F481E089830D
:1008300081E405C0613449F481E0898382E5BE0129
:100840006F5F7F4F0E9408440FC0623551F481E012
:1008500040E050E060E170E021E000E00E941442DE
:1008600003C081E00E9491420F90CF91DF910F91E0
:1008700008950E944A44882311F00E9452070E9462
:10088000C60C80E090E060E070E00E94780C80E0B0
:1008900090E061E070E00E94780C81E090E061E01F
:1008A00070E00E94780C789482E00E9428068823E9
:1008B00011F00E9452078AEA94E06EE874E00E9408
:1008C000254580E090E00E948E0482ED92E00E9437
:1008D000834585E093E00E94834581E00E94914238
:1008E0000E943444FDCFDF93CF930F92CDB7DEB794
:1008F0000E94D10782E0BE016F5F7F4F41E00E94FE
:100900001606813019F02FEF3FEF03C08981282FA1
:1009100030E0C9010F90CF91DF9108950F931F939D
:10092000DF93CF930F92CDB7DEB78E010F5F1F4FCE
:1009300002C00E94D10782E0B80141E00E94160681
:100940008823B9F3898190E00F90CF91DF911F91B7
:100950000F9108950F931F93DF93CF930F92CDB70D
:10096000DEB789838A30A9F48DE089838E010F5F19
:100970001F4F02C00E94D10782E0B80141E00E94EF
:100980001F068823B9F38AE0898303C00E94D10738
:1009900003C08E010F5F1F4F82E0B80141E00E944B
:1009A0001F06882399F380E090E00F90CF91DF91AC
:1009B0001F910F910895759A6D9A749A6C9A6F9819
:1009C0006E989A9AA29A8FEF84B982E285B9000054
:1009D0000000A29814B815B802C07598759A679B64
:1009E000FCCF5E98569A5F98579A0895DC018091E3
:1009F0000D07882311F080E0089590910F078091F2
:100A00000E07981710F0875F01C08150891B282FAF
:100A1000681708F4262F80911207820F809312071F
:100A2000322F0DC0E92FF0E0EE54F44F8C9180830B
:100A3000993011F490E001C09F5F3150119633233B
:100A400089F790930F07822F0895DC019091130787
:100A5000992311F480E008959A3058F0809111079D
:100A6000809310078AE0809313076A3020F09AE0A1
:100A700003C0961708F0962F209110074091130796
:100A8000392F0CC0E22FF0E0E454F44F80818C93B6
:100A90002F5F2A3009F420E011963150332391F76B
:100AA00020931007491B40931307892F08950F9334
:100AB0001F93DF93CF9300D000D0CDB7DEB76CB1DA
:100AC00067FD1DC0809113078A30C8F48F5F809343
:100AD000130714B815B8759800000000909111071D
:100AE00083B1E92FF0E0E454F44F8083759A993094
:100AF00019F41092110703C09F5F90931107B091F2
:100B00001207BB2309F056C088C061157105D1F4E6
:100B1000AA2329F020E030E040E050E0A0E004B952
:100B2000E92FF0E0EE54F44F808185B97498749AFF
:100B300014B815B8993011F490E001C09F5F1150BE
:100B4000B15049C0209314073093150740931607FE
:100B500050931707A0930D0790930E07B0931207B9
:100B6000AA2309F05AC0211531054105510529F480
:100B700084E197E00E94370850C0CE0101960E94A0
:100B8000370889819A81AB81BC812091140730910B
:100B900015074091160750911707821B930BA40B62
:100BA000B50B89589341A040B040B8F181E08093E3
:100BB0000D0733C020911407309115074091160797
:100BC00050911707A0910D0790910E071FEF70E04D
:100BD000607470700FEFBB2379F420931407309387
:100BE00015074093160750931707A0930D0790938E
:100BF0000E071092120711C0112309F086CF20931F
:100C00001407309315074093160750931707A093C6
:100C10000D0790930E07B09312070F900F900F904F
:100C20000F90CF91DF911F910F910895823011F0B5
:100C300080E00895CB01642F0E942505089582303D
:100C400011F080E00895CB01642F0E94F60408950E
:100C5000823011F085E808950E94DB0480E0089559
:100C60009093190780931807089590931B0780931A
:100C70001A07089590931D0780931C070895909379
:100C8000210780932007089590931F0780931E07E4
:100C900008951F920F920FB60F920BB60F92112468
:100CA0002F933F934F935F936F937F938F939F9374
:100CB000AF93BF93EF93FF93E0911807F09119075B
:100CC0000995FF91EF91BF91AF919F918F917F9186
:100CD0006F915F914F913F912F910F900BBE0F90AD
:100CE0000FBE0F901F9018951F920F920FB60F9284
:100CF0000BB60F9211242F933F934F935F936F93F3
:100D00007F938F939F93AF93BF93EF93FF93E09164
:100D10001A07F0911B070995FF91EF91BF91AF91D1
:100D20009F918F917F916F915F914F913F912F9103
:100D30000F900BBE0F900FBE0F901F9018951F9233
:100D40000F920FB60F920BB60F9211242F933F9371
:100D50004F935F936F937F938F939F93AF93BF93C3
:100D6000EF93FF93E0911C07F0911D070995FF9108
:100D7000EF91BF91AF919F918F917F916F915F9113
:100D80004F913F912F910F900BBE0F900FBE0F9080
:100D90001F9018951F920F920FB60F920BB60F92DD
:100DA00011242F933F934F935F936F937F938F9370
:100DB0009F93AF93BF93EF93FF93E0911E07F09142
:100DC0001F070995FF91EF91BF91AF919F918F916F
:100DD0007F916F915F914F913F912F910F900BBE3B
:100DE0000F900FBE0F901F9018951F920F920FB685
:100DF0000F920BB60F9211242F933F934F935F9353
:100E00006F937F938F939F93AF93BF93EF93FF93D2
:100E1000E0912007F09121070995FF91EF91BF9193
:100E2000AF919F918F917F916F915F914F913F9182
:100E30002F910F900BBE0F900FBE0F901F90189523
:100E40001F920F920FB60F9211240F900FBE0F90AA
:100E50001F9018951F920F920FB60F9211240F90AA
:100E60000FBE0F901F9018951F920F920FB60F9202
:100E700011240F900FBE0F901F9018951F920F9284
:100E80000FB60F9211240F900FBE0F901F90189560
:100E90001F920F920FB60F9211240F900FBE0F905A
:100EA0001F9018950E94C60C8FEF9FEF0E946D084F
:100EB00080E090E062E070E00E94780C81E090E0D9
:100EC00062E070E00E94780CEFCFCF92DF92EF9259
:100ED000FF920F931F93CF93DF938C017B016A01E5
:100EE000CB01800F911F8150904110F085E816C012
:100EF000C0E0D0E00FC0C8010E94EF47F601EC0F40
:100F0000FD1F6081861719F0C8010E94F7470F5F27
:100F10001F4F2196CE15DF0570F380E0DF91CF9152
:100F20001F910F91FF90EF90DF90CF900895CF9297
:100F3000DF92EF92FF920F931F93CF93DF938B017A
:100F40007A0169018130910531F4862F642FA9015E
:100F50000E94E90C1DC0892B11F088EE19C0CA014E
:100F6000860F971F8150904110F085E811C0C0E0B6
:100F7000D0E00AC0CE01800F911F0E94EF47F6011A
:100F8000EC0FFD1F80832196CE15DF0598F380E0DE
:100F9000DF91CF911F910F91FF90EF90DF90CF9055
:100FA00008950E94750A0E94570508950E94E70758
:100FB0000E94E60C0E940808A89588E10FB6F894F4
:100FC00080936000109260000FBE80E008959FB78C
:100FD000F894E0E0F0E089E08093570084919FBFAF
:100FE0008F70823011F090E001C09FE080E80FB672
:100FF000F89480936100909361000FBE80E180932C
:101000003501809334018093330180933201089538
:101010001092220710923B0C8FEF8093230780934E
:10102000240780932507EAECFBE09FEF948311826D
:10103000108239968CE0EF33F807C1F780E2809395
:10104000B60088EA8093DC008FE08093F4009093F0
:10105000F3009093F2009093F10082E08093E0001F
:101060008091DF0082608093DF0008950895FC0185
:101070008091DE0080FDFCCF2091E100822F209145
:10108000E200922F2091E300A22F2091E400B22FE2
:1010900024E0880F991FAA1FBB1F2A95D1F78083D0
:1010A0009183A283B3830895FC012091E900822FEC
:1010B0002091EA00922F2091EB00A22F2091EC00CA
:1010C000B22F34E0880F991FAA1FBB1F3A95D1F7A2
:1010D00080839183A283B3830895AC018436910504
:1010E00018F060E070E01EC07FB7F89461E01AC0AD
:1010F00057FD02C09A0102C02FEF3FE7C901880FD8
:10110000991F909581959F4F90932501809324017D
:10111000FABBE0932101D09BFECF421B530B1092F0
:10112000210102C0F1E0E2E04115510509F761112A
:101130007FBF089520E090E0FC01B3E0EE0FFF1FB9
:10114000BA95E1F7E80FF91FEA53F44F84819581CE
:10115000892B09F021E0822F0895AF92BF92CF92A0
:10116000DF92EF92FF920F931F938091230790E0FD
:10117000FC0113E0EE0FFF1F1A95E1F7E80FF91FCE
:10118000EA53F44FA080B180C280D38080912207BF
:10119000882309F46BC0D092F800C092F700B09297
:1011A000F600A092F5008091DF0080FD08C081E08C
:1011B0008093E0008091DF0081608093DF002091C8
:1011C000E100822F2091E200922F2091E300A22FD4
:1011D0002091E400B22F9C01AD012F5F3F4F4F4F94
:1011E0005F4FDA01C9018A259B25AC25BD2580709A
:1011F0009070A070B87F0097A105B10531F4A216D8
:10120000B306C406D506C0F109C0D601C501B77042
:101210005770281739074A075B0770F180915D0105
:10122000883068F5E0902607F0902707009128079E
:10123000109129070894E11CF11C011D111DEA14ED
:10124000FB040C051D05D9F48091E100282F809145
:10125000E200382F8091E300482F8091E400582F5E
:101260002E153F054007510779F706C08091DF0032
:101270008E7F8093DF0003C081E080933B0C1F9141
:101280000F91FF90EF90DF90CF90BF90AF900895B7
:101290001F931FB7F89480913B0C882309F44CC02E
:1012A00010923B0C30912207332309F445C0809102
:1012B00024078F3F59F4809125078F3F39F480919F
:1012C0002307809325078093240712C020912307CA
:1012D0008091250790E0FC0153E0EE0FFF1F5A9527
:1012E000E1F7E80FF91FEA53F44F20872093250711
:1012F0008091230790E0FC0143E0EE0FFF1F4A9529
:10130000E1F7E80FF91FEA53F44F80858093230734
:101310008091250790E0FC0123E0EE0FFF1F2A9546
:10132000E1F7E80FF91FEA53F44F8FEF8087315050
:10133000309322070E94AD081FBF1F910895FF92AE
:101340000F931F93182F8D3010F08AE8C5C0FFB699
:10135000F8940E94480900912207002309F4C0C0B4
:1013600040912307242F842F302F1217F1F5212FBE
:1013700030E0141781F4F901A3E0EE0FFF1FAA95E6
:10138000E1F7E20FF31FEA53F44F808580932307C0
:101390000E94AD0818C090E0DC01E3E0AA0FBB1F7B
:1013A000EA95E1F7A80FB91FAA53B44FF90173E00A
:1013B000EE0FFF1F7A95E1F7E20FF31FEA53F44FA8
:1013C000808518968C93812F90E0FC0163E0EE0FEE
:1013D000FF1F6A95E1F7E80FF91FEA53F44F8FEF0B
:1013E000808701500093220762C0822F90E0FC01A9
:1013F00053E0EE0FFF1F5A95E1F7E80FF91FEA538C
:10140000F44F50853150822F09F46AC0252FADCF9B
:101410001217D1F5209125071317B1F4121721F4F3
:101420008FEF809325070DC0812F90E0FC0143E0F2
:10143000EE0FFF1F4A95E1F7E80FF91FEA53F44F4B
:1014400080858093240733C0842F90E0DC0133E053
:10145000AA0FBB1F3A95E1F7A80FB91FAA53B44FC3
:10146000812F90E0FC0103E0EE0FFF1F0A95E1F7EA
:10147000E80FF91FEA53F44F808518968C931217E2
:10148000B1F44093250713C0822F90E0FC0173E074
:10149000EE0FFF1F7A95E1F7E80FF91FEA53F44FBB
:1014A000422F20852F3F09F0B3CF80E00FC0812F5E
:1014B00090E0FC0163E0EE0FFF1F6A95E1F7E80F93
:1014C000F91FEA53F44F1582148281E0FFBE88238E
:1014D00011F489E801C080E01F910F91FF900895F9
:1014E00030912407232F432FDDCF1F930E944809FB
:1014F0001FEF25C06FB7F894822F90E0FC01B3E096
:10150000EE0FFF1FBA95E1F7E80FF91FEA53F44F0A
:1015100020854481558186819781108715821482A8
:10152000178216822F3F09F43FEF6FBF4115510517
:1015300051F03093250720932407FA010995309143
:101540002507209124072F3FA9F6309325072093E4
:1015500024071F9108952F923F924F925F926F92AE
:101560007F928F929F92AF92BF92CF92DF92EF9233
:10157000FF920F931F93DF93CF9300D000D00F9271
:10158000CDB7DEB7582E1801FB82EA820CE00817AF
:1015900010F48AE820C12114310409F419C190E043
:1015A0009D838C83FC01A3E0EE0FFF1FAA95E1F75A
:1015B000E80FF91FEA53F44F84819581892B11F0CC
:1015C00088E809C1E4E07695679557954795EA95CF
:1015D000D1F72115310529F02130310509F0F8C086
:1015E00026C0DB01CA010897A109B109885F9F4F96
:1015F000AF4FB74008F0EEC02091E100822F20915C
:10160000E200922F2091E300A22F2091E400B22F5C
:101610007A018B01E80EF91E0A1F1B1F8FEF9FEF47
:10162000AFEFBFE0E822F9220A231B2320C020915C
:10163000E100822F2091E200922F2091E300A22F5F
:101640002091E400B22F8A019B01081B190B2A0B81
:101650003B0BD901C801BF700897A109B109885F88
:101660009F4FAF4FB74008F0B5C07A018B012FB73D
:101670002983F8946FEF862E6FEF962E6FEFA62ECC
:101680006FE0B62E8E209F20A022B1220E94480932
:10169000609023073FEF631671F040902207C62C3D
:1016A000D62C77248FEF9FEFAFEFB7E0E822F92237
:1016B0000A231B2367C050922307EC81FD8153E06E
:1016C000EE0FFF1F5A95E1F7AC81BD81EA0FFB1FBA
:1016D000EA53F44F60865AC0BFEFDB1609F44DC0E1
:1016E0006D2D70E0FB0143E0EE0FFF1F4A95E1F71F
:1016F000E60FF71FEA53F44F208131814281538175
:10170000D501C40182279327A427B5278070907044
:10171000A070B87F0097A105B10539F428153905E7
:101720004A055B0508F46FC007C05770E216F30660
:101730000407150708F467C0EC81FD8133E0EE0F64
:10174000FF1F3A95E1F70C811D81E00FF11FEA536D
:10175000F44FD0866D1419F45092230717C08C2DC6
:1017600090E0FC0123E0EE0FFF1F2A95E1F7E80F60
:10177000F91FEA53F44F508609C08FEFDC2C7394A5
:10178000CD2CD82E741408F4A7CF49C0EC81FD816C
:1017900093E0EE0FFF1F9A95E1F72C813D81E20F58
:1017A000F31FEA53F44F80829182A282B382358282
:1017B00024828A819B8197838683809122078F5F11
:1017C000809322070E94AD0899819FBF80E003C0EB
:1017D00088EE01C08BE80F900F900F900F900F9044
:1017E000CF91DF911F910F91FF90EF90DF90CF90FD
:1017F000BF90AF909F908F907F906F905F904F9031
:101800003F902F900895FB0183E0EE0FFF1F8A9514
:10181000E1F7E60FF71FEA53F44F8085B0CF8C2D28
:1018200090E0FC0103E0EE0FFF1F0A95E1F7E80FDF
:10183000F91FEA53F44F5086EC81FD8113E0EE0F5F
:10184000FF1F1A95E1F7AC81BD81EA0FFB1FEA5338
:10185000F44F8FEF80879ACF1F920F920FB60F929F
:1018600011242F933F938F939F938091E100909148
:10187000E2002091E3003091E400809326079093EA
:101880002707209328073093290780912207882370
:1018900019F081E080933B0C9F918F913F912F91A4
:1018A0000F900FBE0F901F9018951F920F920FB6BA
:1018B0000F9211248F938FEF8093E4008093E300C5
:1018C0008093E2008093E1008F910F900FBE0F9004
:1018D0001F90189581E008955E9A569A5F98579ADE
:1018E0006C9A7498749A5E98569A5F98579A08956D
:1018F00045B1209A219A019711F431E001C030E0FE
:101900006115710531F020912A0761307105A1F44C
:101910000AC081E090E002C0880F991F3A95E2F773
:1019200020912A0726C002C0660F771F3A95E2F77A
:10193000862F809528231EC0822F90E0032E02C0A0
:10194000959587950A94E2F780FF0CC081E090E0BE
:1019500002C0880F991F3A95E2F780958223809301
:101960002A070AC081E090E002C0880F991F3A95CB
:10197000E2F7282B20932A0780912A07809583700D
:101980004C7F842B85B90E946C0C089510922A0715
:10199000209A219A289A299A0E946C0C08950895F9
:1019A0005E9A569A5F98579A75986D9A289A2098D9
:1019B00023B1759A209A5E98569A5F98579A30E0AC
:1019C0002095309521703070C9010895A59A9D9A8F
:1019D0000895EF92FF920F931F93DF93CF93CDB7AC
:1019E000DEB7C054D0400FB6F894DEBF0FBECDBFF7
:1019F000F82EE62E142F052F749A759A6C9A6D9A0C
:101A00005E9A5F9A569A579AA2989A9AA5989D9A22
:101A100014B815B887E084B983E58CBDFE01319612
:101A20004E2F93E09E01205C3F4F8E2F841BA59884
:101A300000000000000000000000000000000000A6
:101A40000000000000000000000000000000000096
:101A50009EBD0DB407FEFDCF8F778EBD0DB407FE82
:101A6000FDCF1EBC0DB407FEFDCF8EB5A59A8083B9
:101A7000E217F30711F03196D8CF1CBC20980E94D2
:101A8000DB04FE01319620E030E0AE014F5B5F4F9A
:101A900081912827022E2295207F2025032E322F88
:101AA00022952F700226269532272327220F220FF8
:101AB000220F2025E417F50759F7232B11F085E8AD
:101AC0000DC09E012F5F3F4F2F0D311D812F902F95
:101AD000B9014E2D50E00E941C4580E0C05CDF4FF4
:101AE0000FB6F894DEBF0FBECDBFCF91DF911F912F
:101AF0000F91FF90EF900895BC01009721F08FEDBA
:101B00009AE00E94B10D08958FED9AE060E070E0D8
:101B10000E94460E08950F931F93CF93DF938FED8E
:101B20009AE00E94AA0DC7ECDAE00BE217E01983F5
:101B300008838FED9AE0BE010E94B10D24960656EF
:101B40001F4F8AE0CF3DD80791F7DF91CF911F91CA
:101B50000F910895FC011182108213821282148267
:101B60000895CF93DF93DC01EB019FB7F8941496AF
:101B70008C911497882321F411967C936E9306C060
:101B80001296ED91FC911397738362831396DC9305
:101B9000CE9312971B821A8214968C9114978F5FA2
:101BA00014968C939FBFDF91CF9108959F92AF922F
:101BB000BF92CF92DF92EF92FF920F931F93CF933A
:101BC000DF938C015B016A019FB6F894DC011496E7
:101BD0008C91882319F4C0E0D0E04AC0F801C0819C
:101BE000D18141155105B1F07E0111C0D601129687
:101BF0006D917C911397ED91FC9188819981099564
:101C0000882359F47E018A819B819C01E9012097F8
:101C100069F72EC0209761F17E01AB2849F5F801E4
:101C2000808191812A813B81C817D90719F43183BA
:101C3000208305C0D70113963C932E931297F80189
:101C400082819381C817D90711F4F382E282D80107
:101C500014968C911497815014968C9314978D91AF
:101C60009C911197892B21F413961C921E92129726
:101C70009FBECE01DF91CF911F910F91FF90EF900A
:101C8000DF90CF90BF90AF909F900895AB0160E040
:101C900070E00E94D60D0895AB0161E070E00E94F3
:101CA000D60D0895CF93DF93EC010BC0CE0160E019
:101CB00070E00E94460E009711F41C8205C00E943D
:101CC0007C0D8C81882391F7DF91CF9108958091CD
:101CD00041018F718830F1F481E080934F0189E0F8
:101CE0008093420180914F0180FD14C08EE690E008
:101CF0000E946D0880914F0180FD0CC08EE690E03F
:101D00000E946D0880914F0180FD04C08EE690E036
:101D10000E946D0808951F93182F8091660C8F30D4
:101D2000D1F49FB7F8947894809139018D7F809396
:101D300039018091730C8823E1F39FBF1092730CDB
:101D400080914F018CE480934E01183011F01330D4
:101D500011F488E0AFC1809141018F718093660CCE
:101D6000183009F44BC0193050F4143009F493C002
:101D7000163009F49BC0133009F097C155C01F30CD
:101D800069F0103120F4193009F08FC163C01631A9
:101D900009F4C2C0193109F088C122C183E08093DF
:101DA00042010E940C4580936D0180916E019770F5
:101DB000887F982B90936E0180914F0180E88093EB
:101DC0004E010000000000000000000000000000C4
:101DD0000000000000000000000000000000000003
:101DE00000008091390182608093390183E290E0A4
:101DF0000E946D081093660C8FE05EC1883009F474
:101E000054C11093420100000000000000000000D7
:101E100000000000000000000000000000000000C2
:101E200000000000000041C1883009F43EC1109359
:101E3000420100000000000000000000000000005F
:101E40000000000000000000000000000000000092
:101E500000002BC1883021F1893020F4863009F050
:101E600024C105C0863119F0893109F01EC189E00D
:101E7000809342010000000000000000000000000C
:101E80000000000000000000000000000000000052
:101E9000000000000AC1883019F0893021F405C122
:101EA0000E94670E02C110934201FFC0893059F0B1
:101EB0008A3020F4883009F0F8C019C0863119F052
:101EC000893109F0F2C086E08093420100000000F1
:101ED0000000000000000000000000000000000002
:101EE000000000000000000000000000DEC00E94B2
:101EF000670E109342010000000000000000000087
:101F000000000000000000000000000000000000D1
:101F1000000000000000C9C08830F9F0893020F4CA
:101F2000863009F0C2C02EC0893019F0893109F01D
:101F3000BCC086E180934201000000000000000068
:101F40000000000000000000000000000000000091
:101F50000000000000000000A8C00E94670E10935F
:101F6000420100000000000000000000000000002E
:101F70000000000000000000000000000000000061
:101F8000000093C089E0809342010000000000003F
:101F90000000000000000000000000000000000041
:101FA00000000000000000000000809141018F71DE
:101FB0008093660C893009F07FC0109342010000C5
:101FC0000000000000000000000000000000000011
:101FD000000000000000000000000000000065C0DC
:101FE000883009F44EC0893020F4863009F05DC095
:101FF00019C0893021F0863109F057C013C0109301
:10200000420100000000000000000000000000008D
:1020100000000000000000000000000000000000C0
:10202000000043C089E080934201000000000000EE
:1020300000000000000000000000000000000000A0
:1020400000000000000000000000809141018F713D
:102050008093660C893009F02FC089E1809342019A
:102060000000000000000000000000000000000070
:102070000000000000000000000000000000000060
:1020800014C00E94670E109342010000000000007F
:102090000000000000000000000000000000000040
:1020A00000000000000000000000809141018F71DD
:1020B0008F31D9F38093660C1F91089580914F0C56
:1020C0008823E1F08091740C8823C1F48091E40AA4
:1020D0009091E50A892B39F48AE90E94840D909346
:1020E000E50A8093E40A8091E40A9091E50A892B3D
:1020F00029F010924F0C86E10E948B0E8091540CB7
:10210000882351F080E59CE060E070E00E94460E7C
:10211000009711F00E949D108091740C833039F06B
:10212000853041F0823041F40E94721208950E947D
:102130000E1808950E949F130895EF92FF920F9337
:102140001F93CF93DF937C01FC0100811181F80183
:10215000C385D48528812093680C898190E087709D
:102160009070892BF9F48091600C9091610C02972A
:10217000C9F487819085A185B28534E0B695A7958D
:10218000979587953A95D1F780936F0C9093700C43
:10219000A093710CB093720C89E090E09093610C65
:1021A0008093600CE22FF0E03196EC0FFD1F9081E0
:1021B00021812D3310F02CE303C0222309F421E008
:1021C00092959695969593708FEF989FC0011124E4
:1021D00030E0AC01429FC001439F900D529F900D93
:1021E000112464EB70E00E947B446F3F710511F095
:1021F00008F06FEF6083F801F282E182C8010E946B
:10220000DD23DF91CF911F910F91FF90EF90089503
:10221000CF92DF92EF92FF920F931F93CF93DF93B2
:10222000E091E40AF091E50A309709F455C0C081C5
:10223000D181C0904701D0907B01D7FC4DC082E096
:10224000D80E0AE910E00D191109EEEFDE0E0C0FA1
:102250001D1FED2CFF2497012F5F3F4FC80160E841
:1022600071E0A9010E941C45F801D292FC87EB871E
:10227000EE0EFF1EF701C28280914C018F77809392
:102280004C0180914C01806880934C018091620CDC
:102290009091630CA091640CB091650C8F8398872A
:1022A000A987BA876091E40A7091E50A80E59CE00D
:1022B0000E94B10D8AE90E94840D9093E50A8093F3
:1022C000E40A892B31F489E00E948B0E81E080932F
:1022D0004F0C80E480934F01DF91CF911F910F91BC
:1022E000FF90EF90DF90CF9008951F93CF93DF93EF
:1022F000FC01C385D4858091740C8130F9F089E0AC
:102300000E948B0E8930D9F71FB7F894809139015C
:10231000826080933901809139018D7F80933901EA
:10232000288130E02150304080E891E0BE01A901D1
:102330000E941C4581E08093570C1FBFDF91CF9115
:102340001F9108958091740C813029F08091570C71
:10235000882309F452C08091570C882359F01092B9
:10236000570C8091600C9091610C0297B1F589E057
:1023700090E028C080915C0C90915D0C07960E94C3
:102380003708209142012295269527702093E60A6E
:102390008091600C9091610C0497E1F483E080934C
:1023A000740C213039F0213040F0233081F0253099
:1023B00071F406C086E090E005C085E090E002C0C0
:1023C00087E090E09093610C8093600C06C083E0FE
:1023D00090E0F8CF82E08093740C8091E40A9091B1
:1023E000E50A892B39F489E00E948B0E81E0809305
:1023F0004F0C089586E10E948B0E08950F931F9352
:10240000CF93DF93EC018B01442349F090916C0151
:1024100080915F0C8295807F9F70892B03C0809193
:102420006C018F7080936C010230110598F4442385
:1024300069F090916C018091550C880F8E70917F9E
:10244000892B80936C0110926F0117C080916C01F1
:102450008E6011C080915B0C8295807F90915E0CA4
:10246000892B80936F0190916C018091550C880F9E
:102470008E70917F892B80936C0189E10E948B0E75
:102480008931D9F70130110551F48091680C8331FD
:1024900018F080E492E005C080E890E002C089E096
:1024A00090E00E946D081FB7F89480913901826016
:1024B00080933901809139018D7F80933901288182
:1024C00030E02150304080E891E0BE01A9010E9437
:1024D0001C4581E08093740C1FBFDF91CF911F9149
:1024E0000F910895CF93DF931092740CE091690CD3
:1024F000F0916A0C8081282F30E0275F3F4F85E004
:10250000220F331F8A95E1F7C0915C0CD0915D0CCE
:10251000EB85FC85818185FF02C0205E3D4F40E058
:1025200050E08F819885A985BA85821B930BA40BF7
:10253000B50B8F839887A987BA878091E60A833085
:1025400071F0843028F4882331F0813061F405C0C3
:10255000853049F406C080E007C087E805C081EEF9
:1025600003C089EE01C085E8BE010E94BE37DF913D
:10257000CF9108957F928F929F92AF92BF92CF9208
:10258000DF92EF92FF920F931F93DF93CF9300D0D0
:1025900000D0CDB7DEB7FC014B01742E8091740CD6
:1025A000882311F086E892C0F0935D0CE0935C0CF8
:1025B0008385948590936A0C8093690C892B11F420
:1025C00088EE84C06330710539F4842F0E94471768
:1025D000882309F078C079C08091590C8F3008F0B9
:1025E0006AC06130710509F066C0442309F063C018
:1025F0000E94191420ECE22E23E0F22E012D112D61
:102600000090590C04C0EE0CFF1C001F111F0A940F
:10261000D2F780916F0C9091700CA091710CB091D9
:10262000720CE80EF91E0A1F1B1F8FEF9FEFAFEF12
:10263000BFE0E822F9220A231B23CE0101960E9463
:102640003708A980BA80CB80DC8094E0D694C79408
:10265000B794A7949A95D1F7AE14BF04C006D106DB
:1026600038F4B801A7014A195B096C097D090AC051
:10267000B801A7014A195B096C097D094150504016
:102680006040704F7F70AE14BF04C006D106E8F4FE
:102690008091750C24E1829FC0011124AA2797FD27
:1026A000A095BA2F481759076A077B0770F0A982CF
:1026B000BA82CB82DC828091690C90916A0CB40161
:1026C000472D0E94FE1180E001C081EE0F900F9017
:1026D0000F900F90CF91DF911F910F91FF90EF908E
:1026E000DF90CF90BF90AF909F908F907F90089594
:1026F000909147018091E70A891710F49093E70AB7
:102700008091E80A9091E90AA091EA0AB091EB0A57
:102710000197A109B1098093E80A9093E90AA0936F
:10272000EA0AB093EB0A0097A105B10521F08FEFFB
:1027300080934701089585E08093740C08958091FB
:1027400055018F77809355018CE480934E01109250
:10275000740C86E10E948B0E9091E70A983320F06A
:102760008FEF8093E70A0AC08FEF989FC001112472
:1027700067E370E00E947B446093E70A8091E70A78
:102780000E943C3D08950F931F93082F8091740C75
:10279000882341F08091660C8F3011F086E846C0A6
:1027A00081E844C08091550180688093550110E113
:1027B00010934F0188E793E10E943A0610934E016F
:1027C00086E00E948B0E863051F0809155018F7704
:1027D000809355018CE480934E0185E827C084E006
:1027E0008093740C1092E70A80EC93E0A0E0B0E0D4
:1027F00004C0880F991FAA1FBB1F0A95D2F78054E7
:102800009C4FAF4FBF4F23E0B695A79597958795FF
:102810002A95D1F78093E80A9093E90AA093EA0AEF
:10282000B093EB0A8FEF8093470180E01F910F91E7
:102830000895E091690CF0916A0C8081282F2B5F3C
:10284000833118F44CE050E002C048E250E0E091DF
:102850005C0CF0915D0C0384F485E02D818185FF93
:1028600003C0265F405E5F4F30E0220F331F240F0E
:10287000351FC90164E170E00E947B44462F6093DC
:10288000750CC90164E170E00E947B44892B19F04A
:102890004F5F4093750C8091750C8E5F8093750C23
:1028A000089588E090E09093610C8093600C089507
:1028B000EF92FF920F931F9340E050EF60E070E0C3
:1028C0000090590C04C0440F551F661F771F0A94CF
:1028D000D2F74053584F6F4F7F4F81E020E030E0F8
:1028E00001E514E1EE24FF240E94AB0A1F910F9131
:1028F000FF90EF900895EF92FF920F931F93DF9355
:10290000CF9300D000D0CDB7DEB78E010F5F1F4F41
:10291000C8010E94370889819A81AB81BC818E5D94
:102920009E4FAF4FBF4F2091F00A3091F10A409176
:10293000F20A5091F30A82179307A407B50740F3F0
:102940008091570C882309F0AEC08091660C8F30BF
:1029500019F488E00E948B0E8E010F5F1F4FC80193
:102960000E94370889819A81AB81BC8180569F4F34
:10297000AF4FBF4F2091F00A3091F10A4091F20A17
:102980005091F30A82179307A407B50740F389E033
:102990000E948B0E893009F086C0809155018068B5
:1029A0008093550112E07E010894E11CF11CC701DF
:1029B0000E94370889819A81AB81BC814496A11D10
:1029C000B11D2091F00A3091F10A4091F20A509124
:1029D000F30A82179307A407B50748F386E00E941D
:1029E0008B0E8091480180688093480180E990E0D7
:1029F0000E946D088091410187FFFCCF89E00E9411
:102A00008B0E8091410186FF19C08091F00A909150
:102A1000F10AA091F20AB091F30A805C9E4FAF4F89
:102A2000BF4F8093F00A9093F10AA093F20AB093FB
:102A3000F30A115009F0BBCF94E004C086E10E9474
:102A40008B0E90E0809155018F77809355019430E3
:102A500051F58E010F5F1F4FC8010E943708898111
:102A60009A81AB81BC818096A11DB11D2091F00A95
:102A70003091F10A4091F20A5091F30A82179307BC
:102A8000A407B50748F384E090E09093610C80932D
:102A9000600C8091690C90916A0C60E070E040E0FD
:102AA0000E94FE1106C083E090E09093610C809339
:102AB000600C0F900F900F900F90CF91DF911F91AE
:102AC0000F91FF90EF9008952F923F924F925F9257
:102AD0006F927F928F929F92AF92BF92CF92DF922E
:102AE000EF92FF920F931F93DF93CF93CDB7DEB793
:102AF00028970FB6F894DEBF0FBECDBF40EC53E071
:102B000060E070E00090490C04C0440F551F661F40
:102B1000771F0A94D2F780916F0C9091700CA0915E
:102B2000710CB091720C480F591F6A1F7B1F7F7088
:102B30002091590C30E02E5F3F4F8FE090E002C0B3
:102B4000880F991F2A95E2F78C01222717FD2095FF
:102B5000322F025C1F4F2F4F3F4F041715072607D8
:102B6000370778F43A014B01601A710A820A930A16
:102B70002FEF3FEF4FEF5FE0622273228422952216
:102B800018C08FEF682E8FEF782E8FEF882E8FE092
:102B9000982E640E751E861E971E601A710A820A90
:102BA000930A8FEF9FEFAFEFBFE0682279228A226E
:102BB0009B22CE0101960E94370829803A804B80E3
:102BC0005C8014E056944794379427941A95D1F773
:102BD00029823A824B825C8220916F0C3091700C7A
:102BE0004091710C5091720C2D833E834F83588716
:102BF000C201B101621B730B840B950B22153305C7
:102C00004405550568F4BFEFAB2EBFEFBB2EBFEFF9
:102C1000CB2EBFE0DB2EA622B722C822D92214C0B9
:102C2000AFEFAA2EAFEFBA2EAFEFCA2EAFE0DA2E7B
:102C3000A60EB71EC81ED91E8FEF9FEFAFEFBFE0E5
:102C4000A822B922CA22DB22C601B50124E130E064
:102C500040E050E00E948F44C901DA017C018D01FF
:102C6000C601B50124E130E040E050E00E948F440D
:102C7000611571058105910529F00894E11CF11C8D
:102C8000011D111DC801B70124E130E040E050E012
:102C90000E945C445B016C012D813E814F8158850F
:102CA000A20EB31EC41ED51EF4E0AA0CBB1CCC1C85
:102CB000DD1CFA95D1F7D401C301E4E0880F991F18
:102CC000AA1FBB1FEA95D1F7A816B906CA06DB06EC
:102CD00008F0BCC0261437044804590438F4C40171
:102CE000B30162197309840995090AC0C401B301CB
:102CF0006219730984099509615070408040904FB2
:102D00009F7024E130E040E050E00E948F44790160
:102D10008A016091EE0A862F90E0A0E0B0E0E8160C
:102D2000F9060A071B0720F4621B6093EE0A8EC0A7
:102D3000A601950174E056954795379527957A95A4
:102D4000D1F78091750C74E1879FC0011124835BDA
:102D50009F4FAA2797FDA095BA2F280F391F4A1F0A
:102D60005B1F5F70261537054805590508F05DC0E3
:102D7000679FC0011124AC01662757FD6095762F2F
:102D800024E0440F551F661F771F2A95D1F74A0D7F
:102D90005B1D6C1D7D1D94E0220C331C441C551CD6
:102DA0009A95D1F7DB01CA0182199309A409B509E3
:102DB00006C0805C9E4FAF4FBF4FB901A8018A018A
:102DC0009B01005C1E4F2F4F3F4F883DE4E09E0764
:102DD000E0E0AE07E0E0BE0760F34093F00A5093F6
:102DE000F10A6093F20A7093F30A42525140604034
:102DF000704080E021E030E00BE714E1EE24FF2496
:102E00000E94AB0A882319F481E090E009C08B3856
:102E100029F480E090E00E947B1420C083E090E0E1
:102E20009093610C8093600C19C01092EC0A0E9480
:102E30000C4521E030E00090ED0A02C0220F331F64
:102E40000A94E2F7215028232093EE0A82E090E0D2
:102E50009093610C8093600C0E94581428960FB6D2
:102E6000F894DEBF0FBECDBFCF91DF911F910F91C0
:102E7000FF90EF90DF90CF90BF90AF909F908F909A
:102E80007F906F905F904F903F902F9008958F921A
:102E90009F92AF92BF92CF92DF92EF92FF920F93E9
:102EA0001F93DF93CF9300D000D0CDB7DEB7882E2D
:102EB00090ECA92E93E0B92EC12CD12C0090590C86
:102EC00004C0AA0CBB1CCC1CDD1C0A94D2F7E090F9
:102ED0006F0CF090700C0091710C1091720CEA0C58
:102EE000FB1C0C1D1D1D8FEF9FEFAFEFBFE0E82215
:102EF000F9220A231B23CE0101960E94370829815B
:102F00003A814B815C8184E05695479537952795AA
:102F10008A95D1F790906F0CF091700CE091710C44
:102F20007091720C60E025C06F5F643051F4E092E4
:102F30006F0CF092700C0093710C1093720C80E087
:102F400049C0D801C7018A0D9B1DAC1DBD1D9E2C1B
:102F5000FF2DE02F712F0F2EFFEFEF2EFFEFFF2E33
:102F6000FFEF0F2FFFE01F2FF02DE822F9220A2399
:102F70001B23E216F30604071507B0F23CC080914C
:102F80005E0C833020F082E002C080915E0C809362
:102F9000ED0A882019F01092EF0A04C080915F0CAE
:102FA0008093EF0A29833A834B835C830E94191430
:102FB0000E940C4521E030E00090ED0A02C0220F93
:102FC000331F0A94E2F7215028232093EE0A0E942F
:102FD000641581E00F900F900F900F90CF91DF91CB
:102FE0001F910F91FF90EF90DF90CF90BF90AF9027
:102FF0009F908F90089590926F0CF093700CE093D7
:10300000710C7093720C83E08093740C1092EC0A34
:1030100080913C0C882309F0B2CFB7CF8091600C2F
:103020009091610C8630910509F443C08730910579
:1030300038F48330910591F0059709F080C02DC0D8
:1030400088309105F1F08830910508F440C0099767
:1030500009F075C081E00E949F0961C09091EC0A5F
:103060009F5F9093EC0A8091ED0A8F5F8093ED0A49
:1030700020915B0C281710F42093ED0A9F3408F47C
:103080004EC01092740C1092610C1092600C609102
:103090005C0C70915D0C81EE17C01092740C109254
:1030A000610C1092600C60915C0C70915D0C80E082
:1030B0000BC01092740C1092610C1092600C609115
:1030C0005C0C70915D0C87E80E94BE37089590916A
:1030D000EF0A80915F0C981728F59F5F9093EF0A95
:1030E00086E10E948B0E8091ED0A8F5F8093ED0A3E
:1030F00090915B0C981710F49093ED0A1092EC0AE3
:103100000E940C4521E030E00090ED0A02C0220F41
:10311000331F0A94E2F7215028232093EE0A0E94DD
:10312000641508951092740C1092610C1092600C4A
:1031300060915C0C70915D0C89EE0E94BE37089521
:10314000282F85FD03C0982F9F7304C0982F919559
:103150009F719195E0E2F1E08491891734F03F96F8
:103160008491981714F0822F0CC0803E3CF080327E
:103170003CF487FF06C08F71806203C080E201C00B
:103180008FE18068089584E08093550C23E02093BC
:103190005E0C8FEF9FEF90934B0C80934A0C9093B3
:1031A0004E0C80934D0C8BE08093580C1092480C81
:1031B00080E098EFAFEFB7E080936B0C90936C0CCE
:1031C000A0936D0CB0936E0C8AE091E09093470C45
:1031D0008093460C8AE08093670C82E08093560CC3
:1031E00085E080935B0C20935F0C83E80E94A0181D
:1031F00080933D0C81E080934C0C10925A0C1092FD
:103200003C0C8FE08093590C8093490C089585FD08
:1032100003C0982F9F7304C0982F91959F7191952B
:10322000E0E2F1E080E02491921724F029173CF4C9
:10323000815008958F5F31968031A9F780E008951D
:1032400080914A0C90914B0C8093620190936301A2
:10325000EEE3FCE0A4E6B1E081918D938CE0E634EE
:10326000F807D1F780914D0C90914E0C809360013E
:10327000909361019091480180914C0C8295880F48
:1032800080769F79892B8093480190916F0180917E
:103290005E0C8F70907F892B80936F0190916E01EF
:1032A00080915A0C880F880F880F8870977F892B20
:1032B00080936E0190916F0180915B0C8295807F6D
:1032C0009F70892B80936F01909148018091580CD9
:1032D0008F71907E892B8093480180913D0C0E94D4
:1032E0000719909145018F70907F892B809345013C
:1032F0000895CF93DF93EB019091740C943009F40F
:1033000009C1883411F1893428F4833491F0873469
:1033100049F513C08435A9F0893519F08E3411F5BB
:1033200004C0888180935F0CF9C088818093550C1C
:10333000F5C0888180933C0CF1C088818093590C42
:10334000EDC088818093490CE9C088819981AA8168
:10335000BB8180936F0C9093700CA093710CB09311
:10336000720CDCC02091660C2F3011F481E8D7C0BC
:103370008B3009F4C1C08C3070F4823009F47BC00A
:10338000833018F48823B1F115C0833009F484C068
:10339000843081F45CC0833511F1843528F48F3496
:1033A00059F0803539F410C0873509F458C0803F92
:1033B00009F47FC084EFB3C0988190935E0C809134
:1033C0006F019F70807F53C08881998180934A0CE0
:1033D00090934B0C80936201909363019FC088810E
:1033E000998180934D0C90934E0C80936001909343
:1033F000610194C0992309F08DC080E098EFAFEF90
:10340000B7E0088004C0B695A795979587950A946C
:10341000D2F781709070892B09F47EC0283031F08A
:1034200088E00E948B0E8830D9F726E1988190932E
:10343000580C809148019F71807E982B9093480191
:10344000283009F46BC086E10E948B0E67C0992377
:1034500009F060C08881882309F460C05DC098814C
:1034600090935B0C80916F019295907F8F70982B59
:1034700090936F0153C0888180933D0C0E94A018E7
:1034800080933D0C0E940719909145018F70907FA9
:10349000892B8093450142C0888180934C0C909188
:1034A00048018295880F80769F79892B8093480107
:1034B00035C0888180933E0C898180933F0C8A813E
:1034C0008093400C8B818093410C8C818093420CC3
:1034D0008D818093430C8E818093440C8F818093E7
:1034E000450CEEE3FCE0A4E6B1E081918D938CE025
:1034F000E634F807D1F712C0888180935A0C909176
:103500006E01880F880F880F8870977F892B8093B2
:103510006E0104C086E803C088EE01C080E0DF9140
:10352000CF910895EF92FF920F931F93DF93CF9364
:103530000F92CDB7DEB7E82E81E090E065E170E054
:1035400041E050E09E012F5F3F4F0E94970780911E
:1035500039018D7F8093390180EF90E00E946D08E2
:10356000809139018E7F8093390181E090E00E9443
:103570006D088091390181608093390110E084E603
:1035800090E00E946D08809141011A3011F485E8A5
:103590004BC08F71883011F01F5FF1CF8093660CA4
:1035A0009981992309F448C0809152019F70807FCE
:1035B000982B9093520140C080914601000F111F3B
:1035C000000F111F90E08076907025E0969587950A
:1035D0002A95E1F7082B192BF39488E0F81661F788
:1035E00083E00E948B0E80914F01F0924F0180E4A6
:1035F00080934F0180E880934F018CE480934E01CB
:10360000C8010E941145EE2011F00E94C3180E94CB
:1036100020191092740C1092610C1092600C109290
:10362000570C10924F0C80E00F90CF91DF911F91BB
:103630000F91FF90EF90089580916E0180628093CA
:103640006E0180914C01806880934C018CE48093E2
:103650004E0186E00E948B0E10924E0100E010E0B9
:10366000FF24AACF1F930E94921A882311F085E8A5
:1036700035C01FB7F89480E00E949F0981E00E9446
:103680009F091FBF0AC080E59CE060E070E00E94D7
:10369000460E009711F00E947C0D8091540C8823F7
:1036A00091F788E080934F0180E480934F0184E09C
:1036B00080934F0180E880934F010E940C458093D6
:1036C0006D0180916E019770887F982B90936E01A9
:1036D00080E00E94891C0E947A1C80E01F9108955E
:1036E0000F931F93CF93DF930E94D607882309F08F
:1036F000D1C0809139018160809339018091390175
:103700008D7F809339018CE791E00E946D08809154
:1037100039018E7F8093390181E090E00E946D082D
:103720008091390181608093390110E084E690E056
:103730000E946D08809141011A3009F4ABC08F716D
:10374000883011F01F5FF2CF8093660C80915C018E
:10375000833809F09FC0A4C0CEE3DCE00E940C4592
:1037600089938CE0C634D807C9F780913E0C30911C
:103770003F0C4091400C6091410C7091420CF091D3
:10378000430CB091440C5091450C082F015091E02E
:10379000081708F090E0832F815021E0831708F08C
:1037A00020E0192F180F91E0181708F090E0292B4E
:1037B000842F815031E0841708F030E0A22FA80F49
:1037C00091E0A81708F090E0392B862F815021E076
:1037D000861708F020E0E32FE80F91E0E81708F0E3
:1037E00090E0292B872F815031E0871708F030E0D7
:1037F000622F680F91E0681708F090E0392B8F2F47
:10380000815021E08F1708F020E0432F480F91E00E
:10381000481708F090E0292B8B2F815091E08B17EF
:1038200008F090E0322F380F21E0381708F020E040
:10383000922B5195591779F43F3F69F44F3F59F452
:103840006F3F49F4EF3F39F4AF3F29F41F3F19F4BC
:103850000E3F08F081CF82E79CE10E9435068AE6A0
:103860009CE10E94300681E69CE10E94440685E6C8
:103870009CE10E943F060E948B0D8AE90E94840D04
:103880009093E50A8093E40A80E59CE00E94AA0DEB
:1038900080E001C085E8DF91CF911F910F910895DD
:1038A00081E090E060E070E048E050E02EE33CE032
:1038B0000E94970781E00E94921A882309F455CF4D
:1038C000E9CF81E08093730C089582E69CE00E942A
:1038D000540808951F931FB7F8940E94A2111FBFA8
:1038E0001F9108951F931FB7F8940E9408111FBFDE
:1038F0001F9108958091660C8F3011F082E8089531
:1039000088E00E948B0E883011F085E8089580E0F1
:103910000895882311F088EE08958091660C8F3009
:1039200011F481E808958091740C882371F4109249
:103930004F0C88E00E948B0E8830D9F78FE00E94F0
:103940008B0E8F3011F480E0089586E808959091F1
:10395000740C992321F0933011F086E80895883093
:1039600031F40E948B0E10924F0C88E008958091E4
:10397000E40A9091E50A892B29F086E10E948B0EDA
:1039800086E0089581E080934F0C86E00895CF9300
:10399000DF93DC019C9111962C9111978091760C0C
:1039A000882321F4CD010E947C0D1AC0E92FF22F4B
:1039B0009F012F5F3F4F40E05DE088E0EA01099002
:1039C000AE01E90109929E018150C1F780910F0D6E
:1039D000818783E180838CE19DE0BD010E94B10D70
:1039E000DF91CF910895DC01ED91FC91119784E175
:1039F00080836383528341838CE19DE0BD010E94FB
:103A0000B10D08950F931F93DF93CF9300D0CDB7DF
:103A1000DEB7A091A00CB091A10CED91FC91119793
:103A200084E180838BEE83830FEF1FEF128301838A
:103A30008CE19DE0BD010E94B10D1092890C1A83AA
:103A4000098380E5BE016F5F7F4F0E94593210935A
:103A5000D70C0093D60C1092E50C1092E60C109245
:103A6000E70C1092E80C1092E90C1092EA0C1092FC
:103A7000EB0C1092EC0C0E94ED300F900F90CF9158
:103A8000DF911F910F910895EF92FF920F931F9373
:103A9000E090E10CF090E20C80E061E040E020E09A
:103AA00030E000E010E00E9469298823A9F4A09189
:103AB000A00CB091A10CED91FC91119784E1808351
:103AC00081EE83838FEF9FEF928381838CE19DE072
:103AD000BD010E94B10D19C0A70160E070E084E053
:103AE000440F551F661F771F8A95D1F787E020E0A6
:103AF00030E002E01DE1EE24FF240E94AB0A88239F
:103B000021F080E090E00E94021D1F910F91FF9034
:103B1000EF900895FF920F931F93DF93CF9300D000
:103B2000CDB7DEB7F090110D0E947C0DFF20B1F5EE
:103B300083E56FE07DE00E94593220910F0D3091B6
:103B4000100D8091000D8093E50C8091010D809304
:103B5000E60C8091020D8093E70C8091030D809319
:103B6000E80C8091040D8093E90C8091050D809301
:103B7000EA0C8091060D8093EB0C8091070D8093E9
:103B8000EC0C81E08093180D1092890C8091990CB7
:103B9000833031F582E08093990C22C01092890C19
:103BA0000FEF1FEF1A83098380E5BE016F5F7F4F20
:103BB0000E9459321093D70C0093D60C1092E50C4A
:103BC0001092E60C1092E70C1092E80C1092E90C9F
:103BD0001092EA0C1092EB0C1092EC0C2FEF3FEFCE
:103BE000E091A00CF091A10CA081B18184E18C93B3
:103BF0001396FC92139712963C932E9311978CE197
:103C00009DE0BF010E94B10D0E94ED300F900F901A
:103C1000CF91DF911F910F91FF9008950F931F9304
:103C2000DF93CF93CDB7DEB72C970FB6F894DEBFF6
:103C30000FBECDBFAC01DE011196FC0180819181E8
:103C40009C01F9018CE001900D928150E1F7DA01BD
:103C50000D911C918091180D8250823020F0CA0184
:103C60000E947C0D56C082E0F8018083D801AC56DA
:103C7000BF4FFD0181938A859B8512969C938E93FD
:103C800011978C8582839D0128503040D901EEE345
:103C9000FCE088E001900D928150E1F7F90138973E
:103CA0009F01BE016E5F7F4F88E0DB010D90BD017B
:103CB000D9010D929D018150C1F780914A0C9091DC
:103CC0004B0C9293829380919B0C82938F5F809395
:103CD0009B0C83E69CEC929382938BE18293D801B8
:103CE0001C96FC93EE931B9716961C9288E79CE01B
:103CF000BA010E94B10D80919D0C90919E0CF8012B
:103D00009583848388E00E949A08882311F40E9496
:103D1000BD2D2C960FB6F894DEBF0FBECDBFCF9150
:103D2000DF911F910F910895CF92DF92EF92FF9252
:103D30001F93DF93CF93CDB7DEB72F970FB6F894CD
:103D4000DEBF0FBECDBFAC017C01DE011196FC01D0
:103D5000808191819C01F9018FE001900D92815049
:103D6000E1F74093A00C5093A10C8C81823019F4A0
:103D70008F8198851AC08F818093E50C8885809308
:103D8000E60C89858093E70C8A858093E80C8B8507
:103D90008093E90C8C858093EA0C8D858093EB0CE5
:103DA0008E858093EC0C8EEF9FEF9093D70C8093D1
:103DB000D60C80E5BE016B5F7F4F0E9459320E9496
:103DC0006930D701CD90DC9081E0F6018083F282EA
:103DD000E182EA56FF4F80838F8581839F012850BF
:103DE0003040D901EEE3FCE088E001900D92815073
:103DF000E1F7F9018FEF9FEF929382938C818230EC
:103E000051F48091D60C9091D70C9293829323E237
:103E100038EC45E111C0F9013A979F0145EE5CE0AD
:103E200088E0DA010D90AD01D9010D929D0181501C
:103E3000C1F723E23CEC4BE180914A0C90914B0C92
:103E40009293829380919B0C82938F5F80939B0CC3
:103E5000329322934293D6011C96FC93EE931B97C8
:103E600084E0BE016D5F7F4F0E945932182F80E0C1
:103E7000BE016E5F7F4F0E9459321123A9F488233F
:103E800099F48091990C833019F062E070E002C0DF
:103E900063E070E0C60141E00E94BA12882321F479
:103EA00081E08093190D12C0D701ED91FC9184E15E
:103EB000808381EE83838FEF9FEF928381838CE1F8
:103EC0009DE0B7010E94B10D0E94ED302F960FB614
:103ED000F894DEBF0FBECDBFCF91DF911F91FF9051
:103EE000EF90DF90CF900895CF93DF938BE89CE025
:103EF00060E070E00E94460EFC010097B1F0C081C6
:103F0000D1819A838983CE0161E070E040E00E9414
:103F1000BA12882321F481E08093190D06C08981AB
:103F20009A8161EE4B810E94182DDF91CF91089507
:103F30006F927F928F929F92AF92BF92CF92DF92B9
:103F4000EF92FF920F931F93DF93CF9300D000D097
:103F5000CDB7DEB78091590C8F3008F074C08091D6
:103F6000970C882321F484EF9AE00E947511612C4C
:103F70004CE3742E812C912C0090590C04C0660CDB
:103F8000771C881C991C0A94D2F7A0906F0CB090F3
:103F9000700CC090710CD090720C34E0AA0CBB1C59
:103FA000CC1CDD1C3A95D1F7A60CB71CC81CD91C3B
:103FB000A60CB71CC81CD91C85E0B601A50121E0E0
:103FC00030E008E91FE1EE24FF240E94AB0A8823B9
:103FD00079F7D601C50186199709A809B90924E01E
:103FE000B695A795979587952A95D1F789839A8352
:103FF000AB83BC8388E4BE016F5F7F4F0E94593260
:1040000080EE9CEFAFEFBFEFA80EB91ECA1EDB1EFD
:1040100086E0B601A50121E030E009EC11E2EE24D2
:10402000FF240E94AB0AA60CB71CC81CD91C88230D
:1040300079F78091970C882331F480918F0C882335
:1040400011F00E94741F0F900F900F900F90CF915E
:10405000DF911F910F91FF90EF90DF90CF90BF9075
:10406000AF909F908F907F906F900895FC0180910A
:10407000900B8730F0F4A385B48512968C9112973B
:104080008695869583708230A1F4E0918E0BF09135
:104090008F0B3297F0938F0BE0938E0B16968D91CA
:1040A0009C911797918380838091900B8F5F809371
:1040B000900B80E00895FC018091900B8730F0F424
:1040C0000384F485E02D8281869586958370833004
:1040D000A9F480918E0B90918F0B089790938F0B82
:1040E00080938E0BDC01369688E001900D92815012
:1040F000E1F78091900B8F5F8093900B80E00895A3
:10410000AF92BF92CF92DF92EF92FF920F931F93E5
:10411000DF93CF9300D000D0CDB7DEB7A82E10929A
:10412000F60A1092F50A8AE08093F40A80919C0CBA
:10413000882339F40DE0B02E1CE8C12E1BE0D12EEF
:1041400014C0482F50E0CC24DD24C41AD50A2CE832
:104150003BE0C20ED31EBDE0BB2EB80E22EA3CE00F
:10416000C601B90150E00E941C4580917C0C882357
:1041700009F442C0D0928F0BC0928E0B1092900B1C
:104180008BE590E29A83898388E79CE07E0108941E
:10419000E11CF11CB7010E944C0E0091900B109293
:1041A000900B86E390E29A83898388E79CE0B701CD
:1041B0000E944C0E2091900BE0918E0BF0918F0B92
:1041C000319710E0C801A4E0880F991FAA95E1F784
:1041D000822B8083000F111F000F111F020F111D72
:1041E000000F111F0093900BB00EE02FF0E0E09550
:1041F000F095EC0DFD1D02C0F6011292DF011E923A
:104200002091590C30E08091490C482F50E064E037
:10421000440F551F6A95E1F790919A0C80E0482B66
:10422000592B422B532B80913C0C81115061809172
:10423000180D833009F450648091760C8111506818
:10424000FD015293429380914D0C90914E0C3FEFA3
:104250008E3F930799F4FD013A9786E0B80E9F01CF
:104260004EE35CE088E0DA010D90AD01D9010D92DA
:104270009D018150C1F720E030EC04C092938293FD
:1042800020E030E880914A0C90914B0C92938293FD
:104290008091980C82938F5F8093980C8091180D79
:1042A0008250823040F48091590C8F3020F48091FC
:1042B0008F0C8111206132932293B292F093000B04
:1042C000E093FF0AAA2071F41092F60A1092F50A00
:1042D00084EF9AE062E070E040E00E94BA1281E070
:1042E0008093190D0F900F900F900F90CF91DF9149
:1042F0001F910F91FF90EF90DF90CF90BF90AF9004
:104300000895DF93CF9300D000D0CDB7DEB781E022
:104310000E948020CE0101960E94370889819A81EF
:10432000AB81BC8124E0B695A795979587952A9592
:10433000D1F720EC33E040E050E00090590C04C08D
:10434000220F331F441F551F0A94D2F7281739072D
:104350004A075B0720F081509040A040B04F821B7D
:10436000930BA40BB50BBF7089839A83AB83BC837B
:1043700088E4BE016F5F7F4F0E94593280E090E079
:104380000E94981F0F900F900F900F90CF91DF9188
:1043900008950E94693081E00E94802008950E9463
:1043A0007C0D8091590C8F3019F480E00E948020A0
:1043B0000895FC010190F081E02D6281738181817B
:1043C000448125810E945B4408950F931F938C01C3
:1043D000DC01ED91FC9181810E94B903C8010E942A
:1043E0007C0D1F910F9108950F931F938C01DC0199
:1043F000ED91FC91818162810E940C04C8010E94B0
:104400007C0D1F910F910895AF92BF92CF92DF92D2
:10441000EF920F931F935C01DC01ED91FC910481FD
:10442000158126813781818162814381E0843996BB
:104430006F010E94DF03C5010E947C0D1F910F9147
:10444000EF90DF90CF90BF90AF9008950F931F93A0
:104450008C01DC01ED91FC9181810E945A44C801DC
:104460000E947C0D1F910F9108950F931F938C0153
:10447000DC01ED91FC9181810E94F403C8010E944E
:104480007C0D1F910F9108950F931F938C01DC01F8
:10449000ED91FC9181810E945944C8010E947C0DDC
:1044A0001F910F9108950F931F938C01DC01ED91E3
:1044B000FC9121813281438154816581768187819C
:1044C00090850E945844C8010E947C0D1F910F9155
:1044D00008950F931F938C01DC01ED91FC91818174
:1044E00062813396AF010E945744C8010E947C0D3F
:1044F0001F910F910895EF92FF920F937C01DC01C1
:10450000ED91FC91218132814381548165817681D5
:104510008781908501850E945644C7010E947C0DC9
:104520000F91FF90EF9008950F931F93DF93CF9318
:10453000CDB7DEB72B970FB6F894DEBF0FBECDBF59
:104540008C01DC01ED91FC918281898383819481CE
:104550009B838A839E012C5F3F4FAF014B5F5F4F70
:1045600088E0DA010D90AD01D9010D929D018150D5
:10457000C1F78181BE016F5F7F4F0E945544C80122
:104580000E947C0D2B960FB6F894DEBF0FBECDBFF8
:10459000CF91DF911F910F9108950F931F93DF9398
:1045A000CF93CDB7DEB766970FB6F894DEBF0FBED8
:1045B000CDBF8C01DC01ED91FC91818192819B83C7
:1045C0008A83838189839E012C5F3F4FAF014C5FBB
:1045D0005F4F88E0DA010D90AD01D9010D929D0188
:1045E0008150C1F7818192819E878D8784858C87D8
:1045F0009E01215F3F4FAF01435F5F4F88E0DA01CB
:104600000D90AD01D9010D929D018150C1F7CE01F0
:104610000196BE01645F7F4F45890E94F901C80180
:104620000E947C0D66960FB6F894DEBF0FBECDBF1C
:10463000CF91DF911F910F910895CF92DF92EF926A
:10464000FF920F936C01DC01ED91FC91BF016E5F55
:104650007F4F24893589E788F08C818143890689D9
:104660000E945444C6010E947C0D0F91FF90EF9070
:10467000DF90CF900895EF92FF920F937C01DC01C1
:10468000ED91FC9121813281438154816581768154
:104690008781908501850E94DD02C7010E947C0D03
:1046A0000F91FF90EF9008950F931F938C01DC0101
:1046B000ED91FC918181928163810E945344C801F4
:1046C0000E947C0D1F910F9108950F931F938C01F1
:1046D000DC01ED91FC91818162810E945144C8010D
:1046E0000E947C0D1F910F9108950F931F938C01D1
:1046F000DC01ED91FC91818162810E94A901C801D8
:104700000E947C0D1F910F910895CF92DF92EF923E
:104710000F93DF93CF93CDB7DEB766970FB6F894BC
:10472000DEBF0FBECDBF6C01DC01ED91FC9181813C
:104730008983828193819B838A839E012C5F3F4F73
:10474000AF014C5F5F4F88E0DA010D90AD01D901F8
:104750000D929D018150C1F784858C878585968552
:104760009E878D879E01215F3F4FAF01415F5F4F65
:1047700088E0DA010D90AD01D9010D929D018150C3
:10478000C1F7228D338DCE010196BE01645F7F4F4C
:10479000418D0789E08C0E945244C6010E947C0D25
:1047A00066960FB6F894DEBF0FBECDBFCF91DF91F6
:1047B0000F91EF90DF90CF900895FC0110826181FE
:1047C00072816115710521F08CED9CE00E94B10DA4
:1047D0000895282F80910F0D9091100D96FF1BC00A
:1047E000222359F42091FE0C3091FF0C80914A0C49
:1047F00090914B0C2817390759F02091FE0C3091FD
:10480000FF0C8091DA0C9091DB0C2817390719F412
:104810008EEE0E94BF3F08950F931F93CF93DF93B7
:10482000282F80910F0D9091100D96FFB7C0222375
:1048300059F42091FE0C3091FF0C80914A0C90911C
:104840004B0C2817390761F02091FE0C3091FF0CBA
:104850008091DA0C9091DB0C2817390709F09EC083
:104860002091000D3091010D8091D60C9091D70CC4
:104870002817390709F492C09091000D8091E50C3A
:10488000981759F59091010D8091E60C981729F52C
:104890009091020D8091E70C9817F9F49091030D17
:1048A0008091E80C9817C9F49091040D8091E90C5F
:1048B000981799F49091050D8091EA0C981769F476
:1048C0009091060D8091EB0C981739F49091070D9B
:1048D0008091EC0C981709F461C08AE90E94840D5C
:1048E0008C01009709F45AC0DC014D915C9185E080
:1048F000FA01808312830183E956FF4F80839F0171
:1049000028503040F901AEE3BCE088E00D90019200
:104910008150E1F7F9013897EF01A5EEBCE088E09E
:104920000D9009928150E1F780914A0C90914B0CC7
:104930009293829380919B0C82938F5F80939B0CC8
:1049400083E69CEC9293829388E18293DA011C9631
:10495000FC93EE931B978091590C8F3069F08091F6
:10496000180D882329F48091990C833029F407C00D
:10497000813029F0823019F062E070E002C063E01B
:1049800070E0CA0141E00E94BA12882321F481E05C
:104990008093190D03C0C8010E947C0DDF91CF9157
:1049A0001F910F9108954F925F926F927F928F9215
:1049B0009F92AF92BF92CF92DF92EF92FF920F93AE
:1049C0001F93DF93CF9300D000D0CDB7DEB78C011B
:1049D000DC01ED90FC90D7011B96ED91FC911C97AA
:1049E00050815093F00CE50FF11D81818093090DEA
:1049F0001B960D90BC91A02D11966D917C911297F4
:104A00007093EE0C6093ED0C13968C91139780933A
:104A1000F10CE4E0CE2ED12CCA0EDB1E472F4295BE
:104A2000469546954370372F36953695337019F471
:104A3000F60120E049C014968D919C9115979093B2
:104A4000F40C8093F30CFD0136963230E1F41092B1
:104A5000F50C1092F60C1092F70C1092F80C1092C4
:104A6000F90C1092FA0C1092FB0C1092FC0C16969A
:104A70008D919C9117979093F60C8093F50CFD0106
:104A8000389624E021C0333011F022E01DC0169684
:104A90008C9116978093F50C81818093F60C82811E
:104AA0008093F70C83818093F80C84818093F90CB8
:104AB00085818093FA0C86818093FB0C878180939B
:104AC000FC0CFD013E962AE0442309F447C066FD34
:104AD00008C0819191919093FF0C8093FE0C2E5F02
:104AE00008C08091F30C9091F40C9093FF0C80938C
:104AF000FE0C4230C1F41092000D1092010D109284
:104B0000020D1092030D1092040D1092050D1092DB
:104B1000060D1092070D808191819093010D809375
:104B2000000D2E5F1BC04330C9F480818093000DBF
:104B300081818093010D82818093020D8381809316
:104B4000030D84818093040D85818093050D8681FA
:104B50008093060D87818093070D285FE52FE55030
:104B6000E21BE0930E0D4093FD0C3093F20C63FDBD
:104B7000DAC2A601420F511D9A01462F4770409399
:104B8000EF0C433021F4D9018C918093080DD701AB
:104B90001796AD90BD90CD90DC901A97A0920A0D1B
:104BA000B0920B0DC0920C0DD0920D0D413009F456
:104BB0004FC0413020F0433009F0B5C258C0F90170
:104BC000808191819093100D80930F0D828180934D
:104BD000110D877011F493E002C0982F9C5FF901CA
:104BE000E90FF11D80818093120D492F4F5F582FDF
:104BF000577090E08077907064E0959587956A95FE
:104C0000E1F7682F552311F4882389F0C901840F37
:104C1000911D9093140D8093130D552311F0550F92
:104C2000450F662321F0660F660F660F460F8091D1
:104C30000E0D481750F4841B8093150D240F311D61
:104C40003093170D2093160D72C21092150D6FC27E
:104C5000EE2351F0E63718F086E780930E0D30937F
:104C6000100D20930F0D63C210920E0D60C2809143
:104C7000080D8330D1F0843030F48130B1F08230CF
:104C800009F051C207C0883008F451C2883009F0D9
:104C90004AC211C0F901818192819093100D8093D5
:104CA0000F0D83818093110D42C2D90111968C9111
:104CB00080930F0D3CC2F901818192819093100D78
:104CC00080930F0D838194819093120D8093110D29
:104CD00085818093130D868197819093150D809324
:104CE000140D74FF24C280858093160D20C280911C
:104CF000EF0C833061F48091080D843011F087301F
:104D000031F48CED9CE0B8010E94B10D16C2809187
:104D1000890C813009F4F2C1813020F0843008F030
:104D200002C2AAC18091970C882309F071C19091A9
:104D3000180D933080F1933009F0F5C18091EF0C9C
:104D4000813009F4ECC1813010F1833009F0EBC1FE
:104D50008091080D843009F4B6C1853038F4813073
:104D600009F4A7C1833009F0DEC109C0863009F417
:104D7000B5C1863040F0873009F0D5C1B7C1C80150
:104D80000E94872BDAC18EEE0E94BF3FCCC180E02B
:104D90000E94E923C8C18091EF0C813009F4BFC1A2
:104DA000813020F0833009F0BEC113C180911B0D0A
:104DB000882329F0992319F080E00E940C24209187
:104DC000FE0C3091FF0C80914A0C90914B0C2817EF
:104DD000390709F0A8C18091FD0C823069F4209157
:104DE000000D3091010D8091D60C9091D70C2817B1
:104DF000390709F098C13BC0833009F094C1909104
:104E0000000D8091E50C981709F08DC19091010D6E
:104E10008091E60C981709F086C19091020D80915F
:104E2000E70C981709F07FC19091030D8091E80C71
:104E3000981709F078C19091040D8091E90C9817AA
:104E400009F071C19091050D8091EA0C981709F055
:104E50006AC19091060D8091EB0C981709F063C11F
:104E60009091070D8091EC0C981709F05CC1F70147
:104E700087819085A185B28554E0B695A7959795D1
:104E800087955A95D1F789839A83AB83BC8388E44D
:104E9000BE016F5F7F4F0E9459329091990C892F0C
:104EA0008250823008F076C0C8010E94A2358091FD
:104EB000590C8F3030F0A12C4EE1B42EC12CD12CE6
:104EC0000DC030ECA32E33E0B32EC12CD12C04C086
:104ED000AA0CBB1CCC1CDD1C8A95D2F782E00E9478
:104EE0009F092FE0422E512C9FEF692E9FEF792EC4
:104EF0009FEF892E9FE0992E09811A812B813C8199
:104F00000A0D1B1D2C1D3D1D3F7009831A832B8329
:104F10003C838091590C90E00296A20102C0440F9C
:104F2000551F8A95E2F7CA01AC01662757FD6095C7
:104F3000762F401751076207730748F4D901C8015B
:104F4000841B950BA60BB70BAC01BD010CC0D401A3
:104F5000C301841B950BA60BB70BAC01BD01400F21
:104F6000511F621F731F7F7084E0440F551F661F1F
:104F7000771F8A95D1F782E021E030E009E710E45D
:104F8000EE24FF240E94AB0A882309F0B5CF0E94CB
:104F9000414008C0913009F0C6C0C8010E94A23546
:104FA0001092990C8091180D823009F4C6C080913E
:104FB000970C882309F0C1C08091890C882309F0DF
:104FC000BCC08091D80C882309F0B7C00E94ED3096
:104FD000B4C08091080D843009F475C0853038F470
:104FE000813009F466C0833009F09DC004C0873069
:104FF00009F05AC009C0C8010E94872B8091180D82
:10500000813009F09AC05CC0923009F08CC06EC04B
:10501000833009F1843019F0823009F084C0809126
:10502000EF0C882309F07FC08091180D833019F4AC
:1050300081E00E94E92380911B0D882341F080913B
:10504000180D8150823018F481E00E940C24C801B0
:105050000E94A23572C08091EF0C833009F063C0CA
:105060008091080D883009F05EC089E00E949F0998
:10507000C8010E94E13B61C00E94FC348091EF0CAA
:10508000813009F44CC0833009F04DC08091080D87
:105090008430C9F0853030F4813059F0833009F024
:1050A00042C00BC08730F1F0883021F18630D9F54D
:1050B00015C0C8010E94C71C40C0C8010E94872BB0
:1050C0000E94C0313AC080917C0C882321F0C80135
:1050D0000E94402A32C00E940E2925C0C8010E94A9
:1050E00024322BC08091180D8230E9F4C8010E944F
:1050F000CF2123C0C8010E9404401FC08091EF0C43
:10510000833059F48091080D823069F487E00E9461
:105110009F09C8010E948A1D10C0813021F4C80176
:105120000E94E52D0AC0C8010E947C0D06C0809136
:10513000190D882309F0DBCDEACD0F900F900F9069
:105140000F90CF91DF911F910F91FF90EF90DF9023
:10515000CF90BF90AF909F908F907F906F905F9017
:105160004F900895DB01FC018681882399F4038424
:10517000F485E02D8281869586958370823051F486
:1051800040E02D913C91868197812817390719F4C9
:1051900041E001C040E0842F0895DB01FC018681DD
:1051A0008823C9F50384F485E02D82818695869550
:1051B0008370833081F520E09C918681981761F59A
:1051C00011969C9111978781981731F512969C91B1
:1051D00012978085981701F513969C9113978185F6
:1051E0009817D1F414969C91149782859817A1F47E
:1051F00015969C9115978385981771F416969C9136
:1052000016978485981741F417969C918585981771
:1052100019F421E001C020E0822F08950F931F931D
:10522000CF93DF938AE90E94840D8C01009709F4E3
:105230004BC0DC01CD91DC918CE088831A8309831B
:105240001E82FE01E856FF4F8091FD0C833089F4E9
:1052500038979F0140E05DE088E0DA010D90AD01F4
:10526000D9010D929D018150C1F721E03CE04FE052
:1052700009C08091000D9091010D9293829321E0DD
:1052800038E049E08091FE0C9091FF0C929382935C
:1052900080919B0C82938F5F80939B0C329322931F
:1052A0004293FC87EB87F8018081918161E070E097
:1052B00040E00E94BA12882321F481E08093190D06
:1052C00003C0C8010E947C0DDF91CF911F910F9107
:1052D00008956F927F929F92AF92BF92CF92DF928A
:1052E000EF92FF920F931F93CF93DF93F82E962E9A
:1052F000E42E590138018AE90E94840D6C0100975F
:1053000009F4AFC0DC010D911C91FF2021F084E075
:10531000F801808303C08BE0D8018C93F801D2821E
:10532000C182E956FF4F84E0808320914D0C30917B
:105330004E0CC9010296029710F0992069F0389737
:10534000EF01AEE3BCE088E00D9009928150E1F7F7
:1053500062E183E290EC05C0329322936CE083E239
:1053600090E8EE2061F020914A0C30914B0C6216CF
:10537000730629F06E5F3293229370E002C080645E
:1053800071E022E0E21641F4AC015860D5018D9144
:105390009C919293829328C0B3E0EB1661F4AC0128
:1053A0005C6038976A5FEF01D50188E00D90099243
:1053B0008150E1F719C02091D60C3091D70C4FEFF6
:1053C0002E3F340729F0AC015860329322930CC071
:1053D000AC015C6038976A5FEF01A5EEBCE088E045
:1053E0000D9009928150E1F73297772339F080913F
:1053F0004A0C90914B0C9183808302C07182608231
:1054000080919B0C82938F5F80939B0C529342936D
:105410006293D8011C96FC93EE931B978091590CD4
:105420008F3069F08091180D882329F48091990CB0
:10543000833029F407C0813029F0823019F062E00E
:1054400070E002C063E070E0C80141E00E94BA125F
:10545000882321F481E08093190D04C0C6010E94C5
:105460007C0D80E0DF91CF911F910F91FF90EF9025
:10547000DF90CF90BF90AF909F907F906F900895F6
:10548000EF92FF920F931F93DF93CF9300D000D042
:10549000CDB7DEB70E947C0D8091180D823008F4E4
:1054A00053C08091FD0C823019F482EB98E205C064
:1054B000833009F049C08DEC98E29A83898380E0BB
:1054C0009DE09C838B8388E79CE07E010894E11C2F
:1054D000F11CB7010E944C0EDC01009781F00D9188
:1054E0001C911197F801838594852091FE0C3091D1
:1054F000FF0CFC01848195812817390719F00E945F
:105500000E2922C081E0F8018683B283A18388E757
:105510009CE0B7010E944C0E892B41F0D8011B96EC
:10552000ED91FC911C97818180618183C80161E0CC
:1055300070E040E00E94BA12882321F481E0809359
:10554000190D02C0F80116820F900F900F900F9066
:10555000CF91DF911F910F91FF90EF900895EF92FF
:10556000FF920F931F93CF93DF937C01E801DC013F
:10557000ED91FC9186E180836183428334832383B0
:10558000CF010596423069F4158216821782108683
:105590001186128613861486888199819683858365
:1055A00007C0DC01F80188E001900D928150E1F71D
:1055B0008CE19DE0B7010E94B10DDF91CF911F9169
:1055C0000F91FF90EF9008950F931F93DF93CF9368
:1055D000CDB7DEB728970FB6F894DEBF0FBECDBFAC
:1055E000DC01ED91FC91119719821A821B821C82B9
:1055F0001D821E821F8218860384F485E02D42815D
:10560000469546954370842F8250823080F486817F
:10561000898387818A8380858B8381858C8382853A
:105620008D8383858E8384858F838585888780910C
:10563000180D833049F420914A0C30914B0C8E01A7
:105640000F5F1F4FCD0156C0823009F03FC042307E
:1056500051F4268137818091D60C9091D70C281770
:10566000390759F533C0433041F596818091E50CF7
:10567000981719F597818091E60C9817F1F49085A9
:105680008091E70C9817C9F491858091E80C9817E0
:10569000A1F492858091E90C981779F49385809113
:1056A000EA0C981751F494858091EB0C981729F423
:1056B00095858091EC0C981749F020914A0C309117
:1056C0004B0CCD018E010F5F1F4F14C080914D0C0C
:1056D00090914E0C029620914A0C30914B0C0297FF
:1056E00028F4CD0143E00EE31CE004C0CD0142E00C
:1056F0000DE41CE00E94AF2A28960FB6F894DEBF96
:105700000FBECDBFCF91DF911F910F910895CF9321
:10571000DF939C01FC01C081D181FE0185E1819371
:10572000A0E0BDE088E00D9001928150E1F780910A
:105730000F0D89878CE19DE0B9010E94B10D109297
:10574000E50C1092E60C1092E70C1092E80C109207
:10575000E90C1092EA0C1092EB0C1092EC0C8FEF0B
:105760009FEF9093D70C8093D60CDF91CF91089543
:10577000EF92FF920F931F93DF93CF93CDB7DEB7D6
:105780002E970FB6F894DEBF0FBECDBF8C01DC01A3
:10579000ED90FC90DE011196F7018EE001900D92E4
:1057A0008150E1F7F7011283018383E08083EA5699
:1057B000FF4F80838D85818338979F014EE35CE0A6
:1057C00088E0DA010D90AD01D9010D929D01815063
:1057D000C1F78A81823031F48D819E8192938293C8
:1057E00033E10FC038979F01AE014B5F5F4F88E0F8
:1057F000DA010D90AD01D9010D929D018150C1F7E3
:1058000039E180914A0C90914B0C92938293809154
:105810009B0C82938F5F80939B0C2A81922F990F10
:10582000990F80E08366906C929382933293D701B4
:105830001C96FC93EE931B9716961C928091180D64
:105840008250823008F060C08E85882309F45CC0E5
:105850008A818230D1F48D818B3409F041C08E81F0
:105860008823F1F58F818823D9F588858823C1F5B0
:1058700089858823A9F58A85882391F58B858823D6
:1058800079F58C85882361F563C0833009F060C0A9
:105890009D818091E50C981719F59E818091E60C09
:1058A0009817F1F49F818091E70C9817C9F49885B7
:1058B0008091E80C9817A1F499858091E90C9817CC
:1058C00079F49A858091EA0C981751F49B85809120
:1058D000EB0C981729F49C858091EC0C9817C1F17A
:1058E00088E79CE0B8010E94B10D80919D0C9091D9
:1058F0009E0CF7019583848388E00E949A08882390
:1059000039F50E94BD2D24C00E946930D8012D9127
:105910003C918091590C8F3019F063E070E002C027
:1059200062E070E0C90141E00E94BA12882321F4CC
:1059300081E08093190D0CC02B813C81C80161EE80
:105940004A818E010B5F1F4F0E94AF2A0E94ED30EB
:105950002E960FB6F894DEBF0FBECDBFCF91DF916C
:105960001F910F91FF90EF900895DC01ED91FC9154
:105970001197E081E43278F4F0E0EE0FFF1FE05D74
:10598000FE4F259134912115310519F0F901099542
:1059900008950E947C0D08951F938091190D88230E
:1059A00081F48091960C882361F082E99CE060E0AC
:1059B00070E00E94460E009721F00E94B52C11E085
:1059C00001C010E08091E00C882359F08CED9CE040
:1059D00060E070E00E94460E009719F00E94B52C1E
:1059E00011E0812F1F910895FC018681882329F4FD
:1059F0008481958101979583848380E00895FC01DB
:105A00008681882311F020E006C020E08481958102
:105A1000892B09F421E0822F0895FB0120E0DC01AD
:105A200013969C918081981709F421E0822F0895A4
:105A3000DC01ED91FC91119780E1808341836283C9
:105A40008CE19DE0BD010E94B10D0895EF92FF929F
:105A50000F931F93DF93CF9300D000D00F92CDB759
:105A6000DEB77C01FC0100811181F801918182E1A6
:105A7000808399838DE09DE29B838A83CE0101968A
:105A80009D838C8388E79CE0BE016E5F7F4F0E9400
:105A9000460E009729F00E947C0DF801128203C087
:105AA00087EEF80182838CE19DE0B7010E94B10D81
:105AB0000F900F900F900F900F90CF91DF911F914B
:105AC0000F91FF90EF900895FF920F931F93DF9334
:105AD000CF9300D000D0CDB7DEB784EF9CE29A839D
