:100000000C94A7000C949E050C94C6000C94C6009A
:100010000C94C6000C94C6000C94C6000C94C60048
:100020000C94C6000C94C6000C94C6000C94C60038
:100030000C94C6000C94C6000C94C6000C94C60028
:100040000C94C9050C94E7090C94C6000C94C600E6
:100050000C94B6090C94C6000C94C6000C94C6000F
:100060000C94C6000C94C6000C94C6000C94C600F8
:100070000C94C6000C94C6000C94C6000C94C600E8
:100080000C94C6000C94C6000C94C6000C94C600D8
:100090000C941B050C94C6000C9447050C94C600E8
:1000A0000C94C6000C94C6000C94C6000C94C600B8
:1000B0000C94C6000C94C6000C94C6000C94C600A8
:1000C0000C94C6000C94C6000C94C60003020201F6
:1000D000010000FFFEFDFCFBF9F7F4EFC216000083
:1000E00000007C19000000006C1C00008C1C101B20
:1000F0008D1D000000000000000000004E165E167E
:1001000000000000000000000000000000000000EF
:1001100000000000000000003C160E162D161E16F2
:1001200000000000010401010102010101010101BF
:1001300001010101040108020101010102010102A2
:100140000102010102010202010101010800112462
:100150001FBECFEFD1E2DEBFCDBF12E0A0E0B2E024
:10016000EEEFF8E400E00BBF02C007900D92A03460
:10017000B107D9F715E0A0E4B2E001C01D92A9399A
:10018000B107E1F70E9485030C947D240C940000D4
:100190000895EF92FF920F931F9380914A029091DE
:1001A0004B02029759F481E090E090934B028093C8
:1001B0004A0280E593EC0E94880619C080914002B3
:1001C00090914102892B99F481E040E856E968E971
:1001D00070E020E030E00CEF10E0EE24FF240E94FD
:1001E0008C0881E090E061E070E00E94190B1F91A3
:1001F0000F91FF90EF900895CF92DF92EF920F93BF
:100200001F93DF93CF93CDB7DEB767970FB6F89400
:10021000DEBF0FBECDBF81E090E060E070E00E94E5
:10022000190B909142024091430250914402609117
:1002300045027091460200914702E09048021091F9
:10024000490220E030E08CE0C82ED12CCC0EDD1E1F
:10025000F601E20FF31FD901A45BBD4F8C9180839F
:100260002F5F3F4F2830310599F79C834D835E8384
:100270006F8378870987EA861B878FEE9EEB9B83C7
:100280008A8383E089830E9442158C8B9D8B1E8A12
:100290001F8A83E0BE016F5F7F4F4CE0960100E054
:1002A000EE24E3940E94921E67960FB6F894DEBF88
:1002B0000FBECDBFCF91DF911F910F91EF90DF90D7
:1002C000CF9008958F929F92AF92BF92CF92DF927C
:1002D000EF920F931F93DF93CF93CDB7DEB7619764
:1002E0000FB6F894DEBF0FBECDBF8C01FB01E42E2C
:1002F000690180914A0290914B02892B09F044C018
:10030000D8018C91833009F0DAC011968D919C91BF
:1003100012978F5E9E4B09F0D2C08081823009F027
:10032000CEC0818192818F5E9E4B09F0C8C081E072
:100330000E947D07A2E4B2E0F801339688E00190C4
:100340000D928150E1F781E090E090934B02809311
:100350004A028091400290914102892B71F41982E6
:1003600081E090E060E070E00E94190B82E5BE0140
:100370006F5F7F4F0E94661EA2C082E090E0909364
:100380004102809340029BC08091400290914102C3
:10039000892B09F494C082E090E062E070E00E9452
:1003A000190B8091400290914102029751F583E030
:1003B0008F838FEE9EEB99878887809142028A8790
:1003C000809143028B87809144028C878091450203
:1003D0008D87809146028E87809147028F8780911A
:1003E0004802888B80914902898B83E0BE01695F56
:1003F0007F4F4E2D960100E0EE24E3940E94921E62
:100400005EC0F9E0FE1508F05AC000D080E092E02E
:10041000ADB7BEB712969C938E9311970E941C2085
:100420008601EE240F900F9022E0A22EB12CAC0E8C
:10043000BD1E98E0892E92E0992E00D000D000D009
:10044000EDB7FEB73196ADB7BEB71296BC92AE927D
:10045000119793828282D80117968C91848315829A
:100460000E942E200F900F900F900F90EDB7FEB7C7
:10047000B282A1820E941C20E394015010400F9090
:100480000F90F8E0EF16C9F600D000D08EE092E0B1
:10049000ADB7BEB712969C938E931197F6019185D6
:1004A00080E0208530E0822B932B14969C938E93D2
:1004B00013970E941C200F900F900F900F90619641
:1004C0000FB6F894DEBF0FBECDBFCF91DF911F9165
:1004D0000F91EF90DF90CF90BF90AF909F908F9053
:1004E0000895DF93CF930F92CDB7DEB7882399F4A9
:1004F000603FA1F4ACE4B2E0FA0188E001900D9213
:100500008150E1F784E1898380E0BE016F5F7F4F16
:100510000E94661E03C081E00E944E1E0F90CF9184
:10052000DF910895EF92FF920F931F93DF93CF9384
:1005300000D0CDB7DEB7882321F081E00E944E1EA7
:100540005FC080914A0290914B020197C9F16623E6
:1005500059F48FEE9EEB9A83898380E5BE016F5F2D
:100560007F4F0E94661E4CC0603509F049C08091E3
:10057000400290914102892B11F4198202C081E05E
:10058000898310924B0210924A0282E5BE016F5F8E
:100590007F4F0E94661E80E040E050E060E070E027
:1005A0000FEF1FEF2FEF30E00E94FE1D81E040E8CB
:1005B00056E968E970E020E030E009E013E01CC093
:1005C0008091400290914102892BD1F46235C1F4AF
:1005D00080E040E050E060E070E000E010E020E00B
:1005E00030E00E94FE1D81E040E856E968E970E0D5
:1005F00020E030E00CEF10E0EE24FF240E948C0895
:100600000F900F90CF91DF911F910F91FF90EF907E
:10061000089520914002309141022130310541F589
:1006200083E090E0909341028093400230934B022C
:1006300020934A0280E090E060E070E00E94190B95
:1006400081E090E060E070E00E94190B82E090E0B1
:1006500061E070E00E94190B00D08EE192E0EDB7EE
:10066000FEB7928381830E941C200F900F90089503
:1006700000D08AE292E0EDB7FEB7928381830E94B8
:100680001C200F900F9080E090E060E070E00E94EE
:10069000190B80E593EC0E94880680E593EC0E949C
:1006A000880680E090E061E070E00E94190B80E530
:1006B00093EC0E94880680E593EC0E94880680E017
:1006C00090E00E94780B892BF1F680E090E061E0E9
:1006D00070E00E94190B81E090E061E070E00E9400
:1006E000190B82E090E061E070E00E94190B81E05C
:1006F0000E944E1E0895882321F480EF0E94361E2A
:10070000089581E00E944E1E08954F925F926F926D
:100710007F928F929F92AF92BF92CF92DF92EF9291
:100720000F931F93DF93CF93CDB7DEB72C970FB600
:10073000F894DEBF0FBECDBF0E940B1F882311F0BF
:100740000E94D3050E94150B80E090E061E070E00C
:100750000E94190B81E090E061E070E00E94190BAB
:1007600082E090E061E070E00E94190B789481E0F3
:100770000E948605882311F00E94D30587E494E047
:100780006EE274E00E94D01F0E946F0B80E090E048
:100790000E94780B892B09F043C081E090E0909390
:1007A00041028093400281E00E944E1E52E0452E9D
:1007B000512C12E04FEE642E4EEB742E88248A9456
:1007C000982C32E0A32EB12CAC0EBD1E6E01089405
:1007D000C11CD11C0E94F51E80914A0290914B02CF
:1007E0000197C1F78091400290914102892B91F3CA
:1007F00080E090E00E94780B892B61F750924B02C9
:1008000040924A021A837C826B829E828D8283E0B0
:10081000B50141E0960100E0EE240E94921EDACF7D
:100820001092410210924002BECFDF93CF930F92FD
:10083000CDB7DEB781E0BE016F5F7F4F41E00E9420
:100840007405813019F02FEF3FEF03C08981282F05
:1008500030E0C9010F90CF91DF9108950F931F935E
:10086000DF93CF930F92CDB7DEB78E010F5F1F4F8F
:1008700081E0B80141E00E9474058823C9F38981B1
:1008800090E00F90CF91DF911F910F9108950F93FA
:100890001F93DF93CF930F92CDB7DEB789838A3052
:1008A00071F48DE089838E010F5F1F4F81E0B801E5
:1008B00041E00E947D058823C9F38AE089838E0187
:1008C0000F5F1F4F81E0B80141E00E947D05882342
:1008D000C9F380E090E00F90CF91DF911F910F91CD
:1008E00008959B01AC0160587B47814E9F4FF2E019
:1008F000660F771F881F991FFA95D1F7E3E0220F43
:10090000331F441F551FEA95D1F70E943A1F21500B
:1009100030403093CD002093CC0082E08093C8001B
:1009200088ED8093C90086E08093CA000895DC01B9
:100930008091C9008F7B8093C9002091F104809140
:10094000F204821730F0275F922F981B892F2950CD
:1009500005C02150922F981B892F2F5F482F6817B1
:1009600008F4462F342F12C09091F204E92FF0E0E2
:10097000E352FB4F8C918083993019F41092F2046A
:1009800003C09F5F9093F20431501196332361F7B7
:100990008091F504882351F4E22FF0E0E352FB4FFD
:1009A00080818093CE0081E08093F5048091C9001E
:1009B00080648093C900842F0895DC012091F6049F
:1009C000222311F480E008958091C9008F778093ED
:1009D000C9002A3058F08091F4048093F3048AE02F
:1009E0008093F6046A3020F02AE003C0261708F04E
:1009F000262F322F17C0E091F304F0E0E352FB4FB3
:100A000082858C939091F3049F5F9093F30480917F
:100A1000F60481508093F6049A3011F41092F30496
:100A200011963150332339F78091C9008068809343
:100A3000C900822F08951F920F920FB60F920BB626
:100A40000F9211248F939F93EF93FF939091F4044F
:100A50008091F6048F5F8093F6048091CE00E92F99
:100A6000F0E0E352FB4F8287993019F41092F404BE
:100A700003C09F5F9093F404FF91EF919F918F913A
:100A80000F900BBE0F900FBE0F901F9018951F92E6
:100A90000F920FB60F920BB60F9211248F93EF9314
:100AA000FF938091F104893019F41092F10403C08E
:100AB0008F5F8093F104E091F1048091F204E817D4
:100AC00039F0F0E0E352FB4F80818093CE0002C00A
:100AD0001092F504FF91EF918F910F900BBE0F9044
:100AE0000FBE0F901F901895813011F080E008958F
:100AF000CB01642F0E94DD040895813011F080E065
:100B00000895CB01642F0E9497040895813011F05D
:100B100085E8089560E875E280E090E00E94710445
:100B200080E008959093550280935402E9E6F0E046
:100B300080818360808381E08CBB08951F920F9237
:100B40000FB60F920BB60F9211242F933F934F9332
:100B50005F936F937F938F939F93AF93BF93EF9325
:100B6000FF93E0915402F09155020995FF91EF91A6
:100B7000BF91AF919F918F917F916F915F914F91B5
:100B80003F912F910F900BBE0F900FBE0F901F90B3
:100B900018951F920F920FB60F9211240F900FBE4F
:100BA0000F901F9018951EB88FEF8DB98FEF9FEFA4
:100BB0000E9488068EB180958EB9F8CFCF92DF92D1
:100BC000EF92FF920F931F93CF93DF938C017B01E2
:100BD0006A01CB01800F911F8150904110F085E890
:100BE00016C0C0E0D0E00FC0C8010E946522F60127
:100BF000EC0FFD1F6081861719F0C8010E946D225D
:100C00000F5F1F4F2196CE15DF0570F380E0DF9157
:100C1000CF911F910F91FF90EF90DF90CF900895AB
:100C2000CF92DF92EF92FF920F931F93CF93DF93B8
:100C30008B017A0169018130910531F4862F642F8F
:100C4000A9010E949F0A1DC0892B11F088EE19C0CE
:100C5000CA01860F971F8150904110F085E811C09E
:100C6000C0E0D0E00AC0CE01800F911F0E94652233
:100C7000F601EC0FFD1F80832196CE15DF0598F35A
:100C800080E0DF91CF911F910F91FF90EF90DF9067
:100C9000CF9008950E945308089580E090E020E8E6
:100CA0000FB6F89420936100809361000FBE0E94FC
:100CB000890A0E94920B0E94FA0980E00895892B0C
:100CC00011F482E401C087E4809381000895FC015F
:100CD0002091F7043091F804C901A0E0B0E0BC0114
:100CE000552744278091840090918500A0E0B0E0D2
:100CF000482B592B6A2B7B2B8091F7049091F80499
:100D00002817390729F74083518362837383089535
:100D10004FB7F8948630910518F1209184003091F6
:100D20008500280F391F80918400909185008217DB
:100D3000930740F480918400909185008217930777
:100D4000C8F30EC080918400909185002817390760
:100D5000C8F3809184009091850082179307C8F3AF
:100D60004FBF089520E090E0FC0153E0EE0FFF1F1D
:100D70005A95E1F7E80FF91FE750FB4F8481958101
:100D8000892B09F021E0822F0895DF92EF92FF92E4
:100D90000F931F93DFB6F894809158028F3F09F4A8
:100DA00053C090E0FC01A3E0EE0FFF1FAA95E1F70E
:100DB000E80FF91FE750FB4FE080F18002811381BB
:100DC0002091F7043091F804C801AA27BB272817FF
:100DD000390751F4F0928900E092880082E086BBE6
:100DE00080916F00826003C080916F008D7F80933F
:100DF0006F006091F7047091F8049B0140E050E0AF
:100E00008091840090918500A90133272227A0E0DA
:100E1000B0E0282B392B4A2B5B2B8091F704909163
:100E2000F8046817790729F72E193F09400B510B71
:100E30002F5F3F4F4F4F5F4F2F5F3F4F4F4F5F47EA
:100E400018F481E080935702DFBE1F910F91FF904D
:100E5000EF90DF90089580915702882309F44CC0E9
:100E60001092570230915602332309F445C0809105
:100E700059028F3F59F480915A028F3F39F4809183
:100E8000580280935A028093590212C0209158024E
:100E900080915A0290E0FC0143E0EE0FFF1F4A955B
:100EA000E1F7E80FF91FE750FB4F208720935A0224
:100EB0008091580290E0FC0123E0EE0FFF1F2A957D
:100EC000E1F7E80FF91FE750FB4F80858093580248
:100ED00080915A0290E0FC01B3E0EE0FFF1FBA953B
:100EE000E1F7E80FF91FE750FB4F8FEF8087315094
:100EF000309356020E94C5060895FF920F931F93E8
:100F0000182F823010F08AE8C5C0FFB6F8940E940E
:100F10002B0700915602002309F4C0C040915802EB
:100F2000242F302F842F1217F1F5212F30E01417C2
:100F300081F4F90163E0EE0FFF1F6A95E1F7E20F1C
:100F4000F31FE750FB4F8085809358020E94C5062F
:100F500018C090E0DC0153E0AA0FBB1F5A95E1F7DF
:100F6000A80FB91FA750BB4FF90143E0EE0FFF1FB9
:100F70004A95E1F7E20FF31FE750FB4F8085189683
:100F80008C93812F90E0FC0123E0EE0FFF1F2A9548
:100F9000E1F7E80FF91FE750FB4F8FEF8087015013
:100FA0000093560262C0822F90E0FC01B3E0EE0F86
:100FB000FF1FBA95E1F7E80FF91FE750FB4F508587
:100FC0003150822F09F46AC0252FADCF1217D1F509
:100FD00020915A021317B1F4121721F48FEF809366
:100FE0005A020DC0812F90E0FC01A3E0EE0FFF1F1D
:100FF000AA95E1F7E80FF91FE750FB4F8085809332
:10100000590233C0842F90E0DC01E3E0AA0FBB1F3C
:10101000EA95E1F7A80FB91FA750BB4F812F90E0C9
:10102000FC0173E0EE0FFF1F7A95E1F7E80FF91F5F
:10103000E750FB4F808518968C931217B1F44093BC
:101040005A0213C0822F90E0FC0163E0EE0FFF1FF5
:101050006A95E1F7E80FF91FE750FB4F422F208513
:101060002F3F09F0B3CF80E00FC0812F90E0FC014B
:1010700053E0EE0FFF1F5A95E1F7E80FF91FE75015
:10108000FB4F1582148281E0FFBE882311F489E8AA
:1010900001C080E01F910F91FF9008953091590297
:1010A000232F432FDDCF1F931FB7F8940E942B07E8
:1010B0001FBF1FEF25C06FB7F894822F90E0FC018F
:1010C00073E0EE0FFF1F7A95E1F7E80FF91FE75085
:1010D000FB4F208544815581868197811087158239
:1010E0001482178216822F3F09F43FEF6FBF41151C
:1010F000510551F030935A0220935902FA01099593
:1011000030915A02209159022F3FA9F630935A028A
:10111000209359021F9108952F923F924F925F9210
:101120007F928F929F92AF92BF92CF92DF92EF9277
:10113000FF920F931F93CF93DF93782E5A016B0189
:10114000490122242394281610F48AE8E2C00115EC
:10115000110509F4DBC0C82FD0E0FE0183E0EE0FDB
:10116000FF1F8A95E1F7EC0FFD1FE750FB4F8481CD
:101170009581892B11F088E8CCC06091F7047091BB
:10118000F8049B0140E050E080918400909185003C
:10119000A90133272227A0E0B0E0282B392B4A2BC6
:1011A0005B2B8091F7049091F8046817790729F771
:1011B0008114910431F061E08616910409F0A6C013
:1011C00011C0D601C50180589040A040B040805861
:1011D0009F4FAF4FBF4708F09BC0A20EB31EC41E67
:1011E000D51E10C0D601C50180589040A040B04027
:1011F000821B930BA40BB50B80589F4FAF4FBF477B
:1012000008F086C09FB6F8940E942B0750915802B0
:101210005F3F31F060915602252F452F30E054C0DA
:1012200070925802FE01A3E0EE0FFF1FAA95E1F7AE
:10123000EC0FFD1FE750FB4F508731C02F3F09F4E3
:101240003EC0822F90E0FC0173E0EE0FFF1F7A9505
:10125000E1F7E80FF91FE750FB4F80819181A281F0
:10126000B38115012601281A390A4A0A5B0AD201FC
:10127000C1018F5F9F4FAF4FBF4710F4808521C0E2
:10128000FE0133E0EE0FFF1F3A95E1F7EC0FFD1F73
:10129000E750FB4F2087521721F47092580291E0DB
:1012A00017C0842F90E0FC0123E0EE0FFF1F2A956A
:1012B000E1F7E80FF91FE750FB4F708655C08FEF3D
:1012C000242F3F5F422F282F361708F4B7CF33C0A3
:1012D000FE0183E0EE0FFF1F8A95E1F7EC0FFD1F83
:1012E000E750FB4FA082B182C282D3821583048370
:1012F000F782E682809156028F5F8093560299238F
:1013000011F00E94C5069FBE80E003C088EE01C0B8
:101310008BE8DF91CF911F910F91FF90EF90DF90BD
:10132000CF90BF90AF909F908F907F905F904F90A5
:101330003F902F900895842F90E0FC01B3E0EE0FD2
:10134000FF1FBA95E1F7E80FF91FE750FB4F7086D2
:10135000FE01A3E0EE0FFF1FAA95E1F7EC0FFD1FC2
:10136000E750FB4F8FEF808790E0B2CF1F920F9234
:101370000FB60F920BB60F9211242F933F934F93FA
:101380005F936F937F938F939F93AF93BF93EF93ED
:10139000FF938091F7049091F80401969093F804DC
:1013A0008093F7040E94C506FF91EF91BF91AF9122
:1013B0009F918F917F916F915F914F913F912F916D
:1013C0000F900BBE0F900FBE0F901F9018951F929D
:1013D0000F920FB60F9211248F938091560288239B
:1013E00019F081E0809357028F910F900FBE0F90FC
:1013F0001F90189510925602109257021092F804FE
:101400001092F7048FEF80935802809359028093D3
:101410005A02809301051092FE041092FD048093FD
:101420000A0510920705109206050E94900A089579
:101430000895CF92DF92EF92FF920F931F93DFB642
:10144000F894E090B100F09081000091800010923B
:10145000B1001092810010928000E0E06FEF7FEF0A
:1014600040E050E01FEFF1E080E2C82EA4E2B4EFCC
:1014700016BB17BB1092B200109285001092840028
:10148000F0938100F093B100C092B600B89BFECFFC
:10149000109281001092B10020918400309185005B
:1014A0002115310511F480E024C084EF253238077E
:1014B00020F4CD01821B930B03C0C9018452944FC9
:1014C0008617970718F4E0916600BC012552344F47
:1014D00020F4809166008F5F03C080916600815088
:1014E000809366004F5F5F4F4436510509F0C0CFCF
:1014F00081E0E092B100F092810000938000DFBEB5
:10150000E09366001F910F91FF90EF90DF90CF90D6
:101510000895209A219A259A229A249A2398089528
:1015200082E48093810082E086BB84E086BB88E011
:1015300086BBEFE6F0E080818160808308951F9391
:10154000DF93CF93CDB7DEB7C054D0400FB6F89439
:10155000DEBF0FBECDBF182FFE0131967E2FA3E058
:101560009E01205C3F4F8E2F871B9DB3E8982D98DE
:1015700028980000000000000000000000000000AB
:101580000000AEBD0DB407FEFDCF8F778EBD0DB44C
:1015900007FEFDCF1EBC0DB407FEFDCF8EB5289A09
:1015A0002D9A9DBB8083E217F30711F03196DBCFB4
:1015B000FE01319620E030E0DE01AF5BBF4F81914C
:1015C0002827022E2295207F2025032E322F2295B8
:1015D0002F700226269532272327220F220F220F53
:1015E0002025EA17FB0759F7232B11F085E812C0D5
:1015F000DE011196A10FB11D9A01AD0106C0FA01DD
:101600008191AF01F90181939F01842F8A1B861775
:10161000B0F380E0C05CDF4F0FB6F894DEBF0FBEC2
:10162000CDBFCF91DF911F9108958FEF8EB98DB906
:10163000089584309105E9F08530910548F48230B1
:10164000910599F08330910590F4019761F409C0F8
:101650008630910591F08630910568F0079719F46E
:101660000EC031E00DC030E00BC032E009C033E005
:1016700007C034E005C035E003C036E001C037E004
:101680006115710501F16130710541F48EB102C03F
:10169000660F771F3A95E2F7862B1FC08EB190E058
:1016A000032E02C0959587950A94E2F780FD0BC042
:1016B0002EB181E090E002C0880F991F3A95E2F7C1
:1016C000282B2EB908952EB181E090E002C0880F3A
:1016D000991F3A95E2F7809582238EB90895889AEA
:1016E000899A8A9A8B9A809881988298839808958B
:1016F0008230910549F08330910541F0019711F452
:1017000081E005C080E003C082E001C083E02FB12A
:1017100030E002C0359527958A95E2F72170307048
:10172000C901089580E58CBD81E08DBD8CB58C7FAD
:101730008CBD289A08959DB3E898806C28988EBD3A
:101740000DB407FEFDCF6EBD0DB407FEFDCF289A88
:101750009DBB08959DB3E898806828988EBD0DB410
:1017600007FEFDCF1EBC0DB407FEFDCF8EB5289A37
:101770009DBB0895FC01289880E28EBD0DB407FE44
:10178000FDCF1EBC613089F0DF01262F0DB407FEAE
:10179000FDCF8EB51EBC8D9321502230B8F762501C
:1017A000862F90E00196E80FF91F0DB407FEFDCFDC
:1017B0008EB58083289A0895FC01289880E68EBD16
:1017C0000DB407FEFDCF819161500DB407FEFDCF32
:1017D0008EBD6623C1F70DB407FEFDCF289A08958C
:1017E000FF920F931F93062FF42E0E94AA0B08233B
:1017F00010E002C015950795FA94E2F7802F1F912B
:101800000F91FF900895DF92EF92FF920F931F9335
:10181000D82EF62EE42E022F0E94AA0B10E002C052
:10182000000F111FEA94E2F76F2D6023F094F82265
:101830006F298D2D0E949B0B1F910F91FF90EF90B0
:10184000DF900895BC01009721F083ED94E00E94A1
:10185000570C089583ED94E060E070E00E94EC0C7A
:1018600008950F931F93CF93DF9383ED94E00E942D
:10187000500CC3ECD4E00BE512E01983088383ED30
:1018800094E0BE010E94570C249606561F4F84E038
:10189000C33DD80791F7DF91CF911F910F91089524
:1018A000FC01118210821382128214820895CF9358
:1018B000DF93DC01EB019FB7F89414968C91149799
:1018C000882321F411967C936E9306C01296ED91B5
:1018D000FC911397738362831396DC93CE931297D4
:1018E0001B821A8214968C9114978F5F14968C9396
:1018F0009FBFDF91CF9108959F92AF92BF92CF92F9
:10190000DF92EF92FF920F931F93CF93DF938C019F
:101910005B016A019FB6F894DC0114968C918823D0
:1019200019F4C0E0D0E04AC0F801C081D18141156E
:101930005105B1F07E0111C0D60112966D917C91D6
:101940001397ED91FC91888199810995882359F429
:101950007E018A819B819C01E901209769F72EC055
:10196000209761F17E01AB2849F5F80180819181D2
:101970002A813B81C817D90719F43183208305C018
:10198000D70113963C932E931297F801828193818D
:10199000C817D90711F4F382E282D80114968C910A
:1019A0001497815014968C9314978D919C91119754
:1019B000892B21F413961C921E9212979FBECE0182
:1019C000DF91CF911F910F91FF90EF90DF90CF901B
:1019D000BF90AF909F900895AB0160E070E00E94CF
:1019E0007C0C0895AB0161E070E00E947C0C0895CE
:1019F000CF93DF93EC010BC0CE0160E070E00E945A
:101A0000EC0C009711F41C8205C00E94220C8C8102
:101A1000882391F7DF91CF9108951F9381E06FE1C3
:101A200040E00E94F00B8830A1F48FE00E94AA0BE6
:101A300082E069E00E949B0B10E08FE00E94AA0BFD
:101A400080FD07C08EE690E00E9488061F5F13307D
:101A5000A1F71F9108950F931F93082F80912B05D5
:101A60008F3021F59FB7F89478942C9880913405A5
:101A70008823E1F39FBF109234058FE00E94AA0BE8
:101A800082EF93E10E9492058EE06CE00E949B0B36
:101A90008DE064E042E021E00E94030C083011F088
:101AA000033021F488E080932B056BC181E06FE166
:101AB00040E00E94F00B80932B05083009F450C0E1
:101AC000093050F4043009F485C0063009F48FC0A1
:101AD000033009F04DC154C00F3069F0003120F4DB
:101AE000093009F045C15CC0063109F4A9C00931CB
:101AF00009F03EC1F1C082E063E00E949B0B8DE0E3
:101B000064E042E020E00E94030C0E94B71F682FAF
:101B1000192F8DE20E949B0B8EE267E040E0212F9F
:101B20000E94030C8FE00E94AA0B89EE93E10E94B1
:101B300092058EE06FEF40E020E10E94030C000070
:101B400000000000000000000000000000002C9ACF
:101B500083E290E00E94880600932B058FE011C17C
:101B6000883009F405C182E068E00E949B0B000008
:101B70000000000000000000000000000000F8C0AD
:101B8000883009F4F5C082E063E00E949B0B0000FE
:101B90000000000000000000000000000000E8C09D
:101BA0008830E9F0893020F4863009F0E1C005C0C2
:101BB000863119F0893109F0DBC082E069E00E94CA
:101BC0009B0B00000000000000000000000000006F
:101BD0000000CEC0883019F0893021F4C9C00E94BD
:101BE0000D0DC6C082E064E00E949B0BC1C089302D
:101BF00059F08A3020F4883009F0BAC012C086311A
:101C000019F0893109F0B4C082E066E00E949B0BB4
:101C100000000000000000000000000000000000C4
:101C2000A7C00E940D0D82E066E00E949B0B0000A1
:101C3000000000000000000000000000000098C04C
:101C40008830C1F0893020F4863009F091C021C07D
:101C5000893019F0893109F08BC082E066E10E9479
:101C60009B0B0000000000000000000000000000CE
:101C700000007EC00E940D0D82E066E10E949B0B79
:101C80000000000000000000000000000000000054
:101C90006FC082E069E00E949B0B00000000000022
:101CA0000000000000000000000081E06FE140E063
:101CB0000E94F00B80932B05893009F062C082E00E
:101CC00066E10E949B0B0000000000000000000085
:101CD0000000000000004CC0883009F43BC089308F
:101CE00020F4863009F044C013C0893021F08631D9
:101CF00009F03EC00DC082E069E10E949B0B00002C
:101D0000000000000000000000000000000030C0E3
:101D100082E069E00E949B0B0000000000000000D0
:101D2000000000000000000081E06FE140E00E9440
:101D3000F00B80932B05893021F582E069E10E9448
:101D40009B0B0000000000000000000000000000ED
:101D500000000EC00E940D0D82E069E10E949B0B05
:101D60000000000000000000000000000000000073
:101D700081E06FE140E00E94F00B80932B058F31F2
:101D8000B9F31F910F91089580911C058823E1F00C
:101D9000809135058823C1F48091D8049091D904AD
:101DA000892B39F48AE90E942A0C9093D9048093F4
:101DB000D8048091D8049091D904892B29F01092ED
:101DC0001C0586E10E942B0D80912105882351F08E
:101DD0008DE195E060E070E00E94EC0C009711F05E
:101DE0000E94F90E80913505823011F40E942E1068
:101DF0000895EF92FF920F931F93CF93DF937C018F
:101E0000DC010D911C91D8011696ED91FC9117976C
:101E1000808180932D05C82FD0E02196CE0FDF1F43
:101E2000988129812F3110F02EE103C0222309F47B
:101E300021E092959695969593708FEF989FC001AB
:101E4000112430E0FC01E29FC001E39F900DF29F5E
:101E5000900D11246AE570E00E94131F6F3F710519
:101E600011F008F06FEF6883D8011296FC92EE92A1
:101E70001197C8010E94B616DF91CF911F910F9163
:101E8000FF90EF900895DF92EF92FF920F931F93D0
:101E9000DF93CF930F92CDB7DEB7E091D804F091E6
:101EA000D9043097C1F1E080F18087E00E94AA0B4D
:101EB000D82ECE01019661E00E94BA0B698167FDC0
:101EC0002AC06D5F0AE910E0061B11090E0D1F1DE7
:101ED0006150C8010E94BA0BF701178306838981FC
:101EE000080F111DF801D2826091D8047091D904B5
:101EF0008DE195E00E94570C8AE90E942A0C90938C
:101F0000D9048093D804892B31F489E00E942B0DE9
:101F100081E080931C050F90CF91DF911F910F916D
:101F2000FF90EF90DF900895882311F087E005C0BF
:101F300082E060EE45E00E94F00B8093DA0482E0DC
:101F4000809335058091D8049091D904892B39F478
:101F500089E00E942B0D81E080931C05089586E1A5
:101F60000E942B0D0895EF92FF921F93CF93DF9362
:101F70007C01EB01142F442331F08CE260EF44E04C
:101F800020912A0504C08CE260EF44E020E00E942A
:101F9000030CC230D10598F4112361F08CE26EE09D
:101FA00041E0209122050E94030C8FE260E00E9434
:101FB0009B0B16C08CE26EE041E027E00FC0609101
:101FC00026056295607F80912905682B8FE20E942B
:101FD0009B0B8CE26EE041E0209122050E94030CF5
:101FE00089E10E942B0D8931D9F7E898219759F49E
:101FF00080912D05833118F080E492E002C080E8E2
:1020000090E00E9488062C9A2C98F701608161501C
:10201000C7010E94DC0B81E080933505E89ADF91CF
:10202000CF911F91FF90EF900895FC0180913505AD
:10203000882311F086E80895F0932805E09327059A
:102040008681978190932F0580932E05009711F438
:1020500088EE08950E94B30F80E008951092350530
:102060008091DA048330B1F0843028F4882331F091
:102070008130E1F409C08530C9F412C060912705B0
:102080007091280580E017C06091270570912805A0
:1020900087E811C0609127057091280581EE0BC07B
:1020A000609127057091280589EE05C0609127058C
:1020B0007091280585E80E94551D0895282F85FDFB
:1020C00003C0982F9F7304C0982F91959F7191958D
:1020D000ECECF0E08491891734F03F9684919817E6
:1020E00014F0822F0CC0803E3CF080323CF487FF1D
:1020F00006C08F71806203C080E201C08FE18068FA
:10210000089584E08093220523E0209329058FEF32
:102110009FEF909318058093170590931B0580936C
:102120001A058BE08093240580E098EFAFEFB7E0CD
:102130008093300590933105A0933205B093330519
:10214000109216058AE091E090931505809314058E
:102150008AE080932C0582E08093230585E08093BC
:10216000260520932A0583E80E945E1080930B05C4
:1021700081E08093190510922505089585FD03C01F
:10218000982F9F7304C0982F91959F719195ECECB7
:10219000F0E080E02491921724F029173CF481505C
:1021A00008958F5F31968031A9F780E008951F93DD
:1021B000CF93DF9382E2609117050E949B0B83E22D
:1021C000609118050E949B0BCCE0D5E014E2812FB2
:1021D00069910E949B0B1F5F1C32C9F780E26091DE
:1021E0001A050E949B0B81E260911B050E949B0BCC
:1021F00088E060E645E0209119050E94030C8FE21B
:102200006FE040E0209129050E94030C8EE268E017
:1022100043E0209125050E94030C8FE260EF44E02B
:10222000209126050E94030C88E06FE140E0209198
:1022300024050E94030C80910B050E94BE10282FDC
:1022400085E06FE040E00E94030CDF91CF911F9189
:1022500008951F93CF93DF93EB018E3431F08935CE
:1022600041F4888180932A05D6C088818093220515
:10227000D2C020912B052F3011F481E8CDC08B30D6
:1022800009F4BCC08C3070F4823009F47FC0833014
:1022900018F48823D9F115C0833009F485C084303F
:1022A00081F463C0833511F1843528F48F3459F0FB
:1022B000803539F40DC0873509F461C0803F09F4D9
:1022C0007AC084EFA9C02881209329058FE269C0D4
:1022D00088819981682F809317059093180582E271
:1022E0000E949B0B83E2609118050DC08881998143
:1022F000682F80931A0590931B0580E20E949B0B28
:1023000081E260911B050E949B0B85C08091350581
:10231000882309F07CC080E098EFAFEFB7E0088039
:1023200004C0B695A795979587950A94D2F78170C2
:102330009070892B09F46DC0283011F418E006C0A4
:1023400088E00E942B0D8830D9F716E12881209370
:10235000240588E06FE140E00E94030C183009F486
:102360005AC086E10E942B0D56C080913505882306
:1023700009F04DC08881882309F44DC04AC02881E6
:10238000209326058FE260EF44E03EC08881809371
:102390000B050E945E1080930B050E94BE10282F33
:1023A00085E06FE040E030C028812093190588E087
:1023B00060E645E029C0888180930C05898180937F
:1023C0000D058A8180930E058B8180930F058C818A
:1023D000809310058D81809311058E818093120565
:1023E0008F8180931305CCE0D5E014E2812F6991B1
:1023F0000E949B0B1F5F1C32C9F70DC028812093E0
:1024000025058EE268E043E00E94030C04C086E8E4
:1024100003C088EE01C080E0DF91CF911F91089545
:10242000DF92EF92FF920F931F93DF93CF930F9260
:10243000CDB7DEB7D82E81E090E065E170E041E0F5
:1024400050E09E012F5F3F4F0E9410062C988CE7B2
:1024500091E00E9488062D9881E090E00E94880615
:102460002D9A10E084E690E00E94880681E06FE1FA
:1024700040E00E94F00B1A3011F485E838C0883033
:1024800011F01F5FEFCF80932B0529812223C1F12B
:1024900082E16FE040E00E94030C32C086E060E61B
:1024A00045E00E94F00B9801220F331F220F331FCB
:1024B000082F10E0022B132BF39488E0F81671F725
:1024C00083E00E942B0D8FE00E94AA0B81E08CBB61
:1024D000EDBAC8010E94BC1FDD2011F00E948110DE
:1024E0000E94D7101092350510921C0580E00F90C5
:1024F000CF91DF911F910F91FF90EF90DF900895A2
:1025000083E060E344E020E00E94030C83E068E0A5
:1025100043E020E00E94030C83E067E040E021E01C
:102520000E94030C8EE260E245E021E00E94030C71
:102530008CE060E847E021E00E94030C84E062E068
:1025400041E021E00E94030C8EE06CE00E949B0BB6
:102550008DE063E040E021E00E94030C8AE06FE040
:1025600040E023E00E94030C8DE068E043E021E0BE
:102570000E94030C8DE064E042E021E00E94030C25
:1025800086E00E942B0DEDB2E89800E010E0FF24F9
:1025900085CF1F93182F0E941012882361F085E8C1
:1025A0002BC08DE195E060E070E00E94EC0C00979C
:1025B00011F00E94220C80912105882391F7812F30
:1025C0000E947E1482EF93E10E94920581E08CBB11
:1025D000E89A0E94B71F682F192F8DE20E949B0B6B
:1025E0008EE267E040E0212F0E94030C80E00E9411
:1025F0002E140E941B1480E01F9108950F931F93C7
:10260000CF93DF930E944D06882309F0DCC02D9AFA
:102610002C988AE491E00E9488062D9881E090E051
:102620000E9488062D9A10E004C01F5F1A3009F43A
:10263000CAC084E690E00E9488068DE10E94AA0B41
:10264000823099F78CE10E94AA0B833071F782E007
:1026500068E00E949B0B10E084E690E00E948806F0
:1026600081E06FE140E00E94F00B1A3009F4ABC04A
:10267000883011F01F5FF0CF80932B0581E090E050
:1026800060E070E048E050E02CE035E00E94100689
:1026900081E00E941012882351F095C0CCE0D5E073
:1026A0000E94B71F899385E0C431D807C9F780918C
:1026B0000C0530910D0540910E0560910F0570914C
:1026C0001005F0911105B091120550911305082FD6
:1026D000015091E0081708F090E0832F815021E02D
:1026E000831708F020E0192F180F91E0181708F051
:1026F00090E0292B842F815031E0841708F030E0DE
:10270000A22FA80F91E0A81708F090E0392B862F90
:10271000815021E0861708F020E0E32FE80F91E0D8
:10272000E81708F090E0292B872F815031E08717B8
:1027300008F030E0622F680F91E0681708F090E031
:10274000392B8F2F815021E08F1708F020E0432F85
:10275000480F91E0481708F090E0292B8B2F81500B
:1027600091E08B1708F090E0322F380F21E03817F6
:1027700008F020E0922B5195591779F43F3F69F406
:102780004F3F59F46F3F49F4EF3F39F4AF3F29F41D
:102790001F3F19F40E3F08F081CF82EF93E10E94B2
:1027A0009205E89A0E94310C8AE90E942A0C9093C3
:1027B000D9048093D8048DE195E00E94500C0E94CA
:1027C0008A1480E001C085E8DF91CF911F910F91BD
:1027D00008958FE00E94AA0B84FF03C081E08093DC
:1027E000340508958FE00E94AA0B282F83FF0CC0A8
:1027F00080913505813029F426FF80E00E94940FF6
:1028000008950E94430F089582FF14C08DE060E890
:1028100047E00E94F00B882339F48DE063E040E04C
:1028200021E00E94030C08958DE063E040E022E087
:102830000E94030C089580912B058F3011F082E8DF
:10284000089588E00E942B0D883011F085E80895E6
:1028500081E090E00E945F0680E00895882311F0F7
:1028600088EE089580912B058F3011F481E808954A
:1028700080913505882391F410921C0588E00E9410
:102880002B0D8830D9F780E090E00E945F068FE042
:102890000E942B0D8F3011F480E0089586E8089592
:1028A000982F80913505882311F086E80895983097
:1028B00039F488E00E942B0D10921C0588E00895E1
:1028C0008091D8049091D904892B29F086E10E9447
:1028D0002B0D86E0089581E080931C0586E0089525
:1028E000FB01882311F084EF08958091DB0480833D
:1028F00080E0089580E00E94C9120895882311F0B5
:102900001092DB0485E16FE040E02091DB040E943F
:10291000030C08951092DB0485E16FE040E020E0B5
:102920000E94030C80E00895FB01882311F084EFDE
:10293000089580818093DB04992787FD9095865ABE
:102940009F4F63E070E00E94271F262F2F5F85E1D5
:102950006FE040E00E94030C80E00895EF92FF9248
:102960001F93DF93CF93CDB7DEB7C058D0400FB6DB
:10297000F894DEBF0FBECDBF182F84E060E245E0C3
:1029800020E00E94030C82E068E00E949B0B86E33B
:102990006FE00E949B0B8CE063E00E949B0B8AE03F
:1029A00067EA0E949B0B112339F481E089831A8224
:1029B000CE01019662E012C08FE7898311E07E01AB
:1029C0000894E11CF11C0E94B71FF701E10FF11DF3
:1029D00080831F5F1038B9F7C70160E80E94DC0BE5
:1029E0008CE164E50E949B0B8CE166E40E949B0BEA
:1029F00089E00E942B0D2C9A2C98C058DF4F0FB6FF
:102A0000F894DEBF0FBECDBFCF91DF911F91FF9035
:102A1000EF9008951F9388E00E942B0D8830D9F71E
:102A200085E160E847E021E00E94030C86E00E9417
:102A30002B0D8630D9F788E060E847E021E00E945E
:102A4000030C80E990E00E94880681E060E847E09E
:102A50000E94F00B8130C9F788E00E942B0D81E0C5
:102A600060E446E00E94F00B813011F010E001C0FC
:102A700014E085E160E847E020E00E94030C812F2C
:102A80001F910895FF920F931F93CF93DF93F090C0
:102A90002B058FE0F81619F488E00E942B0DE898BA
:102AA00081E160E144E020E00E94030C81E16FE0FD
:102AB00040E02FE00E94030C85E090E00E94880631
:102AC00081E160E245E00E94F00B8823A9F481E1F6
:102AD0006FE040E020E00E94030C82E090E00E9462
:102AE000880681E160E245E00E94F00B882309F04E
:102AF0005AC0C0E0D0E047C081E160E144E021E09D
:102B00000E94030C81E16FE040E02FE00E94030C83
:102B100085E090E00E94880681E160E245E00E9445
:102B2000F00B813011F001E03FC0CFEFDFEF2BC0A1
:102B300081E16FE040E0212F0E94030C82E090E0F1
:102B40000E94880681E160E245E00E94F00B882344
:102B500039F4112311F420E007C0212F215004C0C3
:102B60001F5F103129F72FE0002339F08BE4289FF5
:102B7000E0011124CA50D64F06C082E3289FE0012D
:102B80001124CC55D94F8FE00E94AA0BE89A8FE010
:102B9000F81611F40E942B0DCE01DF91CF911F91F9
:102BA0000F91FF90089500E010E0C2CF1F9386E0E0
:102BB0000E942B0D8630D9F785E160E847E021E0DF
:102BC0000E94030C87E06FEF0E949B0B80E890E06F
:102BD0000E9488068FE00E94AA0B84FFFBCF87E04B
:102BE0000E94AA0B182F8FE00E94AA0B85E160E8D3
:102BF00047E020E00E94030C88E00E942B0D19336F
:102C000010F06FEF08C08FEF189FC001112468E328
:102C100070E00E94131F862F1F9108950F931F933A
:102C20008C01DC01ED91FC91818162810E94920214
:102C3000C8010E94220C1F910F9108950F931F93BA
:102C40008C01DC01ED91FC9181810E94C800C801DA
:102C50000E94220C1F910F9108950F931F938C01D6
:102C6000DC01ED91FC9181810E947B03C8010E94EF
:102C7000220C1F910F9108950F931F938C01DC017B
:102C8000ED91FC91818162813396AF010E947102C6
:102C9000C8010E94220C1F910F9108950F931F935A
:102CA0008C01DC01ED91FC91818162810E94C9005F
:102CB000C8010E94220C1F910F910895CF92DF92BC
:102CC000EF920F93DF93CF93CDB7DEB766970FB632
:102CD000F894DEBF0FBECDBF6C01DC01ED91FC911D
:102CE00081818983828193819B838A839E012C5F6A
:102CF0003F4FAF014C5F5F4F88E0DA010D90AD01AF
:102D0000D9010D929D018150C1F784858C878585FD
:102D100096859E878D879E01215F3F4FAF01415F62
:102D20005F4F88E0DA010D90AD01D9010D929D0150
:102D30008150C1F7228D338DCE010196BE01645FB3
:102D40007F4F418D0789E08C0E946201C6010E947D
:102D5000220C66960FB6F894DEBF0FBECDBFCF91A2
:102D6000DF910F91EF90DF90CF900895FC011082DA
:102D7000618172816115710521F081E595E00E9404
:102D8000570C08950F931F93CF93DF93EC01E881C5
:102D9000F981A681B7817C9170936305FD01E70FEE
:102DA000F11D818180937C0511964D915C91129764
:102DB000509361054093600513968C91139780930F
:102DC00064058D010C5F1F4F652F629566956695B2
:102DD0006370352F36953695337019F4F80120E07D
:102DE00049C014968D919C91159790936705809397
:102DF0006605FD0136963230E1F4109268051092B6
:102E0000690510926A0510926B0510926C0510927C
:102E10006D0510926E0510926F0516968D919C911E
:102E200017979093690580936805FD01389624E013
:102E300021C0333011F022E01DC016968C911697F8
:102E400080936805818180936905828180936A05FA
:102E5000838180936B05848180936C058581809349
:102E60006D05868180936E05878180936F05FD01D6
:102E70003E962AE0662309F447C046FD08C08191CA
:102E8000919190937205809371052E5F08C0809197
:102E90006605909167059093720580937105623085
:102EA000C1F410927305109274051092750510927A
:102EB0007605109277051092780510927905109298
:102EC0007A058081918190937405809373052E5FBC
:102ED0001BC06330C9F48081809373058181809326
:102EE0007405828180937505838180937605848142
:102EF0008093770585818093780586818093790515
:102F0000878180937A05285F972F9550921B909325
:102F10007D05609370053093650543FDC3C0D801FE
:102F2000A20FB11D842F877080936205833021F436
:102F30008C9180937B0563C0813009F451C081304E
:102F400020F0833009F0AEC05AC08D919C9111974A
:102F500090937F0580937E0512968C9112978093B3
:102F60008005877011F493E002C0982F9C5FFD01EB
:102F7000E90FF11D808180938105292F2F5F382F64
:102F8000377090E08077907044E0959587954A95EA
:102F9000E1F7482F332311F4882389F0CD01820F04
:102FA000911D9093830580938205332311F0330F95
:102FB000230F442321F0440F440F440F240F80912A
:102FC0007D05281750F4821B80938405A20FB11D44
:102FD000B0938605A093850569C01092840566C0EC
:102FE000992351F0963718F086E780937D05B093CA
:102FF0007F05A0937E055AC010927D0557C0809131
:103000007B05873009F452C0883021F0843009F004
:1030100049C04CC011968D919C91129790937F0559
:1030200080937E0513968D919C91149790938105C2
:103030008093800515968C9115978093820516963E
:103040008D919C911797909384058093830554FFED
:103050002DC018968C918093850528C080916205BB
:10306000833061F480917B05843011F0873031F436
:1030700081E595E0BE010E94570C1DC0809142057C
:10308000882381F480914905882361F48091870524
:10309000882341F480916205813021F4CE010E94A1
:1030A0009F1809C0CE010E94220C05C0809188059E
:1030B0008823A1F6E3CFDF91CF911F910F9108955F
:1030C000DC01ED91FC911197E081E43278F4F0E0BD
:1030D000EE0FFF1FE452FF4F25913491211531056A
:1030E00019F0F901099508950E94220C08951F9383
:1030F00080918805882381F480914805882361F0B8
:1031000084E495E060E070E00E94EC0C009721F010
:103110000E94601811E001C010E0809155058823DD
:1031200059F081E595E060E070E00E94EC0C0097BA
:1031300019F00E94601811E0812F1F910895CF931C
:10314000DF93AC01FC019081218180917D05882372
:1031500009F466C0E92FF22F80916405808F2091D9
:10316000700521838091710590917205938382830C
:10317000822F82508230E8F41482158216821782E0
:103180001086118612861386223039F480917305D9
:10319000909174059583848316C02330A1F4EF01C8
:1031A0002496A3E7B5E088E00D9009928150E1F7FD
:1031B0000AC0138212821482158216821782108628
:1031C000118612861386208D80913605281761F5A9
:1031D000948180913905981739F5958180913A0548
:1031E000981711F5968180913B059817E9F497811E
:1031F00080913C059817C1F4908580913D05981702
:1032000099F4918580913E05981771F4928580918B
:103210003F05981749F4938580914005981721F44C
:10322000CA010E94220C55C02093360584818093E8
:103230003905858180933A05868180933B05878196
:1032400080933C05808580933D05818580933E0574
:10325000828580933F058385809340052091650595
:1032600024871786108A118A128A138A148A158A6B
:10327000168A809166059091670596878587233029
:1032800051F4EF012F96A8E6B5E088E00D90099281
:103290008150E1F70BC0223039F48091680590919C
:1032A0006905908B878702C01686158680917C05FC
:1032B000878B80917D05818F80917E0590917F0520
:1032C000938F828F81E180838AE895E0BA010E9422
:1032D000570C0E94B11ADF91CF910895DC01ED9156
:1032E000FC91119780E18083418362838AE895E0B5
:1032F000BD010E94570C0895CF92DF92EF92FF928A
:103300000F931F93DF93CF93CDB7DEB762970FB6BE
:10331000F894DEBF0FBECDBF8C01DE011196FC011B
:10332000808191819C01F90182E101900D9281508F
:10333000E1F78F8582FD11C080914205882321F439
:1033400080914905882349F09E85D801ED91FC9133
:1033500080E18083918381EEB5C0F801C080D18087
:103360008DE0D6018C938E8513968C93888945E0E9
:10337000F42EF80EE8E9F0E0E81BF109EC0DFD1D74
:103380009A81923051F437E0F32EF80E80911A05AD
:1033900090911B059293829312C0933081F43897D9
:1033A0002DE0F22EF80E9F014CE055E088E0DA01A6
:1033B0000D90AD01D9010D929D018150C1F7209171
:1033C0001705309118058C819D812817390749F41C
:1033D0008A81882331F08B81882319F040E450E002
:1033E00009C08A81882321F0B2E0FB0E3293229338
:1033F00040E050E08B81882311F1823039F46F2D49
:103400006E5F8E819F819293829312C038976F2D49
:10341000685F9F0196E0E92EF12CEC0EFD1E88E01E
:10342000D7010D907D01D9010D929D018150C1F709
:1034300082E0F82EF60E8C819D819293829380918A
:103440004B0582938F5F80934B05BA0161608F8536
:1034500080FF02C0BA0161628889873608F0706116
:103460008B81382F330F330F20E04A81942F9295B0
:10347000990F990F907C80E0282B392B262B372B26
:10348000329322933296F7FC15C03397F082D6011F
:103490001796FC93EE9316970E948C1AF6011283EE
:1034A0000183C60162E070E041E00E9415108823AC
:1034B00081F013C09E85D801ED91FC9180E180835D
:1034C000918385EE82838AE895E0B8010E94570CCB
:1034D00014C081E08093880510C09E85D801ED91CD
:1034E000FC9180E18083918381EE82838AE895E07C
:1034F000B8010E94570C0E94B11A62960FB6F89458
:10350000DEBF0FBECDBFCF91DF911F910F91FF9016
:10351000EF90DF90CF90089580918905813051F42C
:103520000E941B14853831F081E090E00E945F0614
:1035300010928905089580918905882389F480E097
:1035400090E00E945F0680E00E942E14882321F400
:1035500081E080938905089581E090E00E945F06F4
:10356000089580913705882331F480915005882390
:1035700011F40E949B1A08951F93182F109288052A
:1035800010928705109289051092490510924A05FC
:1035900010924205109236058FEF80933905809383
:1035A0003A0580933B0580933C0580933D058093CD
:1035B0003E0580933F05809340051092500588E0BA
:1035C0000E945014112351F180E098E79093570521
:1035D000809356051092410581E08093430586E073
:1035E00080933805109258051092590510925A058B
:1035F00010925B0510925C0510925D0510925E05BD
:1036000010925F058FEF9FEF90934F0580934E05CB
:103610000E94B71F80934B05109237051F910895A4
:103620000F931F93CF93DF93EC01088119810E94C0
:103630008C1AF801018180E090E00E945F0680E032
:10364000011181E00E94C912182F81E090E00E94D0
:103650005F06802F0E94BC1A0E94B11A84E495E094
:103660000E94F80C81E595E00E94F80C8AE895E04C
:103670000E94F80CE881F981118380E280838AE856
:1036800095E0BE010E94570CDF91CF911F910F91E1
:103690000895DF93CF9300D000D0CDB7DEB70E945E
:1036A0008C1A8FEF9FEF9A8389839C838B8383E5AA
:1036B000BE016F5F7F4F0E94A21B80E5BE016D5F60
:1036C0007F4F0E94A21B81E00E94BC1A0E94B11A87
:1036D0000F900F900F900F90CF91DF9108950E945F
:1036E000FE12882399F40E94190A882379F081E058
:1036F0000E94BC1A0E94B11A84E495E00E94500C0A
:1037000081E595E00E94500C80E0089585E80895D9
:10371000E82F883030F4E82FF0E0EC5DFE4F849124
:1037200008958054803228F4F0E0E451FF4F8491F2
:103730000895E03F10F480E00895F0E0E45AFF4F70
:10374000849108951F93CF93DF93182FEB018091FD
:103750008905813051F40E948C1A812FBE010E948C
:103760002911182F0E94B11A04C0812F0E9429111B
:10377000182F812FDF91CF911F910895FF920F9302
:103780001F93CF93DF93182FEB01F42E8C3409F4A1
:103790006AC08D34F0F4833409F479C0843460F461
:1037A000853038F4823008F072C0882309F46FC085
:1037B0002AC0823441F529C0873409F468C08834AE
:1037C00018F4843401F52AC08A3469F18B34D9F4B1
:1037D00043C0853558F4833508F059C08E3498F0CD
:1037E000813508F454C0823571F441C0893509F43B
:1037F0004EC08A3518F4873531F449C08A3539F01E
:10380000803F09F444C004EF55C008EE53C08881DE
:103810009981909357058093560503C088818093C2
:10382000380500E047C088818093580589818093DE
:1038300059058A8180935A058B8180935B058C8121
:1038400080935C058D8180935D058E8180935E05FC
:103850008F8180935F05E5CF8881998190934F0593
:1038600080934E05DECF888180934B05DACF688147
:10387000611161E060933705662331F00E948C1A74
:1038800086E00E945014CDCF0E94B11ACACF812F7A
:10389000BE010E942911082F813861F40E941B1477
:1038A000812FBE010E942911082F882319F481E07D
:1038B0008093DC04FF2049F08091DC04882329F008
:1038C00080E00E942E141092DC04802FDF91CF91B3
:1038D0001F910F91FF900895EF92FF920F931F9306
:1038E0007C01FC0100811181B8016E5F7F4FF801FE
:1038F000818141E00E94BE1BF801918192839FE18A
:10390000908381838AE895E0B7010E94570C1F914C
:103910000F91FF90EF900895CF93DF93AC01DC01FE
:10392000ED91FC919F012D5F3F4F81818B3409F414
:1039300072C08C3410F5843009F453C0853060F4C3
:10394000813009F491C0813008F48BC0823009F4D1
:1039500098C08330B1F598C0873009F44DC08830E5
:1039600030F4853009F440C0863059F542C08234C5
:1039700009F445C08A3429F545C0833509F461C08E
:10398000843588F48F3409F451C0803530F48C3498
:1039900009F446C08E34A9F446C0803509F449C004
:1039A000823579F44BC08A35A1F08B3528F4873500
:1039B00051F0893531F40AC08D3581F0803F09F42A
:1039C00047C094EF65C08091260560C080912A05AC
:1039D0005DC0809156059091570537C08091410593
:1039E00055C08091160552C080911405909115051F
:1039F0002CC080912C054AC08091230547C080913E
:103A0000430544C0E901A8E5B5E088E00D900992BE
:103A10008150E1F73CC080914E0590914F0515C053
:103A200080914B0533C08091220530C080912905DB
:103A30002DC0809117059091180507C0809137051A
:103A400025C080911A0590911B05948383831FC024
:103A5000E901ACE0B5E088E00D9009928150E1F712
:103A600016C08091240512C08091300590913105D7
:103A7000A0913205B091330583839483A583B683E7
:103A800006C080910B0502C080911905838390E0E8
:103A9000818182838EE1808391838AE895E0BA01F7
:103AA0000E94570CDF91CF910895282FFB011092AF
:103AB000880580818D3031F481819281622F43812C
:103AC0000E946E190E94B11A0895EF92FF920F930F
:103AD0001F9310925005809137058823C9F4809177
:103AE00089058823A9F488E00E945014883071F079
:103AF00080E040E850E060E070E020E030E005E683
:103B00001DE1EE24FF240E948C0802C00E94B11A1D
:103B10001F910F91FF90EF900895DF92EF92FF9227
:103B20000F931F93CF93DF93EC01E881F981E68037
:103B3000F78000851185E114F1040105110539F4C0
:103B400080E090E00E94651DE881F98147C0809186
:103B500042058823F1F5809149058823D1F50E941B
:103B60008C1A86E00E945014D82E81E08093500574
:103B700080E00E94B206882319F080E00E947D0751
:103B800084E0EE0CFF1C001F111F8A95D1F780E026
:103B9000B801A70120E030E005E61DE1EE24FF2496
:103BA0000E948C08882381F0E881F98181E280837A
:103BB00088EE81838AE895E0BE010E94570C80E080
:103BC00090E00E94651D12C0E881F98186E0D81658
:103BD00029F081E2808382EF818303C081E28083C8
:103BE00011828AE895E0BE010E94570CDF91CF91C7
:103BF0001F910F91FF90EF90DF9008957F928F9229
:103C00009F92AF92BF92CF92DF92EF92FF920F936B
:103C10001F93782E6A017B01480159018AE90E94AD
:103C20002A0CDC01009711F480E014C0ED91FC91A6
:103C300011978AE080837182C282D382E482F58206
:103C400086829782A086B18684E495E0BD010E94B9
:103C5000570C81E01F910F91FF90EF90DF90CF9074
:103C6000BF90AF909F908F907F9008951F93182FD3
:103C70008AE90E942A0CDC01009711F480E00CC054
:103C8000ED91FC91119788E08083118384E495E0A5
:103C9000BD010E94570C81E01F9108951F93182FBA
:103CA0008AE90E942A0CDC01009711F480E00CC024
:103CB000ED91FC91119789E08083118384E495E074
:103CC000BD010E94570C81E01F910895FF920F9350
:103CD0001F93CF93DF93182F062FF72E8AE90E94A8
:103CE0002A0CEC01009711F480E016C0812F0E948D
:103CF000881B482FE881F98186E080831183329602
:103D0000CF01602F7F2D50E00E94C71F84E495E013
:103D1000BE010E94570C81E0DF91CF911F910F915E
:103D2000FF9008958F929F92AF92BF92CF92DF92B1
:103D3000EF92FF920F931F93CF93DF93B82E6B01F7
:103D4000F42E922E832EA02E86E7841708F43FC00F
:103D50008AE90E942A0C8C010097C9F1DC01ED91DF
:103D6000FC9183E08083B182D6012C91228311964D
:103D70008D919C911297948383832250223080F4FA
:103D80001582168217821086118612861386148673
:103D9000EF012596139688E00D9009928150E1F786
:103DA000A586E686F78628E930E02F1931092E0F1F
:103DB0003F1FC901692D782D4F2D50E00E94C71F6C
:103DC00084E495E0B8010E94570C81E001C080E0D6
:103DD000DF91CF911F910F91FF90EF90DF90CF90E7
:103DE000BF90AF909F908F9008951F930E94771877
:103DF000182F8AE895E060E070E00E94EC0C0097D4
:103E000019F00E94601811E00E94C40E0E944A0638
:103E1000812F1F9108958AE895E00E94500C0E941E
:103E20006F1B08950895AA1BBB1B51E107C0AA1F71
:103E3000BB1FA617B70710F0A61BB70B881F991F4B
:103E40005A95A9F780959095BC01CD01089597FBEF
:103E5000092E07260AD077FD04D0E5DF06D0002022
:103E60001AF4709561957F4F0895F6F790958195B6
:103E70009F4F0895A1E21A2EAA1BBB1BFD010DC086
:103E8000AA1FBB1FEE1FFF1FA217B307E407F5070A
:103E900020F0A21BB30BE40BF50B661F771F881FE6
:103EA000991F1A9469F760957095809590959B017C
:103EB000AC01BD01CF010895AF92BF92CF92DF92C6
:103EC000EF92FF920F931F93CF93DF93EC01A880A3
:103ED000B980CA80DB80A114B104C104D10441F4CB
:103EE00084E2A82E89EDB82E8BE5C82E87E0D82E67
:103EF000C601B5012DE133EF41E050E00E9462249C
:103F000027EA31E440E050E00E9443247B018C0129
:103F1000C601B5012DE133EF41E050E00E9462247B
:103F2000CA01B9012CEE34EF4FEF5FEF0E9443243A
:103F30006E0D7F1D801F911F97FF04C06150704060
:103F400080409048688379838A839B839B013F7775
:103F5000C901DF91CF911F910F91FF90EF90DF90FA
:103F6000CF90BF90AF9008950E945C1F089586E3A4
:103F700092E00E945C1F0895A0E0B0E080933602BA
:103F800090933702A0933802B09339020895FB0151
:103F9000DC0102C001900D9241505040D8F70895C5
:103FA0000F931F93CF93DF938C01EB01009731F4B4
:103FB0006115710519F420E030E038C081E090E02F
:103FC0006EE070E00E947B22FC019C01009771F181
:103FD00080E88383209771F0D387C28781E8838349
:103FE00080918F0590919005892B21F4F093900595
:103FF000E0938F0501151105C9F0118700878381B2
:10400000826083838091910590919205892B71F450
:10401000F0939205E093910580919305909194051A
:10402000892B21F4F0939405E0939305C901DF9166
:10403000CF911F910F910895DF93CF93CDB7DEB746
:10404000FE01359661917191809191059091920553
:10405000AF010E945F20CF91DF9108950F931F93CE
:10406000DF93CF93CDB7DEB72E970FB6F894DEBFB0
:104070000FBECDBF0D891E8986E08C831A8309830C
:104080008FEF9FE79E838D839E01275E3F4FCE017A
:1040900001966F89788DA9010E945F202F81388554
:1040A000020F131FF80110822E960FB6F894DEBF90
:1040B0000FBECDBFCF91DF911F910F9108952F9229
:1040C0003F924F925F926F927F928F929F92AF92A8
:1040D000BF92CF92DF92EF92FF920F931F93DF93E5
:1040E000CF93CDB7DEB72B970FB6F894DEBF0FBED8
:1040F000CDBF3C012B015A01FC011782168283813E
:1041000081FD03C06FEF7FEFC6C19AE0892E1E01CB
:104110000894211C311CF3012381F20123FD8591B8
:1041200023FF81912F01882309F4B2C1853239F42C
:1041300023FD859123FF81912F01853229F490E0A1
:10414000B3010E94B923E7CF982FFF24EE249924CE
:10415000FFE1FF15D0F09B3269F09C3228F49032D9
:1041600059F0933291F40EC09D3249F0903369F4C6
:1041700041E024C052E0F52A84E0F82A28C098E003
:10418000F92A25C0E0E1FE2A22C0F7FC29C0892FC8
:1041900080538A3070F4F6FE05C0989C902C112450
:1041A000980E15C0E89CE02C1124E80EF0E2FF2ADE
:1041B0000EC09E3229F4F6FC6BC140E4F42A07C01D
:1041C0009C3619F450E8F52A02C0983649F4F201F9
:1041D00023FD959123FF91912F01992309F0B8CFE9
:1041E000892F8554833018F08052833038F444E0AE
:1041F00050E0A40EB51E5FE359830FC0933631F033
:10420000933779F0933509F056C020C0F5018081CD
:10421000898342E050E0A40EB51E610101E010E088
:1042200012C0F501C080D180F6FC03C06FEF7FEFB4
:1042300002C0692D70E042E050E0A40EB51EC60138
:104240000E94AE238C015FE7F52214C0F501C08007
:10425000D180F6FC03C06FEF7FEF02C0692D70E0E4
:1042600042E050E0A40EB51EC6010E949C238C01C2
:1042700050E8F52AF3FE07C01AC080E290E0B301CF
:104280000E94B923EA948E2D90E008171907A8F32D
:104290000EC0F601F7FC8591F7FE81916F0190E069
:1042A000B3010E94B923E110EA94015010400115B6
:1042B000110579F7EAC0943611F0993669F5F7FEE1
:1042C00008C0F501208131814281538184E090E072
:1042D0000AC0F501808191819C01442737FD4095FA
:1042E000542F82E090E0A80EB91E9FE6F92257FFF6
:1042F00009C050954095309521953F4F4F4F5F4FE6
:10430000E0E8FE2ACA01B901A1012AE030E00E94DA
:10431000E523D82ED21840C0953729F41F2D1F7ED3
:104320002AE030E01DC01F2D197F9F3661F09037C5
:1043300020F4983509F0ACC00FC0903739F09837A9
:1043400009F0A6C004C028E030E00AC0106114FDE6
:10435000146020E130E004C014FD166020E132E07A
:1043600017FF08C0F501608171818281938144E06B
:1043700050E008C0F50180819181BC0180E090E0AF
:1043800042E050E0A40EB51EA1010E94E523D82E04
:10439000D2188FE7F82EF122F6FE0BC05EEFF52261
:1043A000D91438F4F4FE07C0F2FC05C08FEEF822F1
:1043B00002C01D2D01C0192DF4FE0DC0FE01ED0D32
:1043C000F11D8081803319F499EEF92208C01F5F36
:1043D000F2FE05C003C08F2D867809F01F5F0F2DF8
:1043E000F3FC14C0F0FE0FC01E1510F09D2C0BC086
:1043F0009D2C9E0C911A1E2D06C080E290E0B30108
:104400000E94B9231F5F1E15C0F304C01E1510F4CF
:10441000E11A01C0EE2404FF0FC080E390E0B30175
:104420000E94B92302FF1DC001FD03C088E790E090
:104430000EC088E590E00BC0802F867891F001FFD8
:1044400002C08BE201C080E2F7FC8DE290E0B30194
:104450000E94B92306C080E390E0B3010E94B92313
:104460009A94D914C0F3DA94F101ED0DF11D808115
:1044700090E0B3010E94B923DD20A9F706C080E2D5
:1044800090E0B3010E94B923EA94EE20C1F743CE35
:10449000F30166817781CB012B960FB6F894DEBFCE
:1044A0000FBECDBFCF91DF911F910F91FF90EF9085
:1044B000DF90CF90BF90AF909F908F907F906F9044
:1044C0005F904F903F902F900895F999FECF92BD45
:1044D00081BDF89A992780B50895262FF999FECFC6
:1044E0001FBA92BD81BD20BD0FB6F894FA9AF99A11
:1044F0000FBE019608950F931F93CF93DF93689F8C
:104500008001699F100D789F100D1124C8010E9431
:104510009722EC01009729F060E070E0A8010E946A
:10452000A723CE01DF91CF911F910F910895CF93D3
:10453000DF93BC018230910510F462E070E0A0913D
:104540009705B0919805ED01E0E0F0E040E050E023
:1045500021C0888199818617970769F48A819B8198
:10456000309719F09383828304C0909398058093C9
:104570009705FE0134C06817790738F441155105D5
:1045800019F08417950708F4AC01FE018A819B811C
:104590009C01E9012097E9F641155105A9F1CA01ED
:1045A000861B970B049708F4BA01E0E0F0E02AC0FC
:1045B0008D919C91119784179507F9F464177507ED
:1045C00081F412968D919C911397309719F09383F3
:1045D000828304C09093980580939705FD013296DD
:1045E0004FC0CA01861B970BFD01E80FF91F6193AD
:1045F000719302978D939C9343C0FD0182819381B7
:104600009C01D9011097A1F680919505909196058E
:10461000892B41F480913C0290913D029093960544
:104620008093950540913E0250913F0241155105FE
:1046300041F44DB75EB780913A0290913B02481B1E
:10464000590B209195053091960524173507B0F444
:10465000CA01821B930B8617970780F0AB014E5F50
:104660005F4F8417950750F0420F531F50939605E4
:1046700040939505F9016193719302C0E0E0F0E089
:10468000CF01DF91CF910895CF93DF93009709F485
:1046900050C0EC0122971B821A82A0919705B0911D
:1046A0009805109709F140E050E0AC17BD0708F1FC
:1046B000BB83AA83FE0121913191E20FF31FAE1754
:1046C000BF0779F48D919C911197280F391F2E5FA8
:1046D0003F4F3983288312968D919C9113979B832A
:1046E0008A834115510571F4D0939805C0939705BD
:1046F00020C012968D919C911397AD01009711F0F7
:10470000DC01D3CFFA01D383C28321913191E20F2F
:10471000F31FCE17DF0769F488819981280F391FAD
:104720002E5F3F4FFA01318320838A819B819383DF
:104730008283DF91CF910895FC0105906150704014
:104740000110D8F7809590958E0F9F1F0895DC017A
:1047500001C06D9341505040E0F70895FC01615055
:10476000704001900110D8F7809590958E0F9F1F93
:1047700008950F931F93CF93DF938C01EB018B81EF
:1047800081FF1BC082FF0DC02E813F818C819D81E6
:104790002817390764F4E881F9810193F983E883E4
:1047A00006C0E885F985802F0995892B31F48E8123
:1047B0009F8101969F838E8302C00FEF1FEFC80178
:1047C000DF91CF911F910F910895FA01AA27283008
:1047D00051F1203181F1E8946F936E7F6E5F7F4FCE
:1047E0008F4F9F4FAF4FB1E03ED0B4E03CD0670F4A
:1047F000781F891F9A1FA11D680F791F8A1F911D9D
:10480000A11D6A0F711D811D911DA11D20D009F4EC
:1048100068943F912AE0269F11243019305D31932E
:10482000DEF6CF010895462F4770405D4193B3E017
:104830000FD0C9F7F6CF462F4F70405D4A3318F0BE
:10484000495D31FD4052419302D0A9F7EACFB4E06F
:10485000A6959795879577956795BA95C9F7009727
:104860006105710508959B01AC010A2E06945795C8
:10487000479537952795BA95C9F7620F731F841F1F
:10488000951FA01D0895629FD001739FF001829F24
:10489000E00DF11D649FE00DF11D929FF00D839FCF
:1048A000F00D749FF00D659FF00D9927729FB00D6C
:1048B000E11DF91F639FB00DE11DF91FBD01CF017F
:1048C0001124089597FB092E05260ED057FD04D01C
:1048D000D1DA0AD0001C38F45095409530952195D6
:1048E0003F4F4F4F5F4F0895F6F790958095709525
:0E48F00061957F4F8F4F9F4F0895F894FFCF33
:1048FE0066726F6D20307800252E325820003A20D7
:10490E00566363203D202575206D560D0A00524FCB
:10491E004F54204E4F44450A0D004C454146204E03
:10492E004F44450A0D0001000000200099050000CB
:00000001FF
