S01500005354425F446174615F53696E6B2E7372656359
S11300000C944E010C946F010C94F8050C94230687
S11300100C946F010C946F010C946F010C946F019C
S11300200C946F010C946F010C946F010C946F018C
S11300300C946F010C946F010C94730A0C946F016F
S11300400C94A40A0C946F010C946F010C946F012E
S11300500C946F010C946F010C946F010C946F015C
S11300600C946F010C946F010C946F010C946F014C
S11300700C946F010C946F010C946F010C946F013C
S11300800C946F010C946F010C94630C0C946F012D
S11300900C946F010C946F010C946F010C946F011C
S11300A00C946F010C946F010C946F010C946F010C
S11300B00C946F010C946F010C946F010C946F01FC
S11300C00C946F010C946F010C946F010C946F01EC
S11300D00C946F010C946F010C946F010C946F01DC
S11300E00C946F010C946F010C946F010C946F01CC
S11300F00C946F010C946F010C946F010C946F01BC
S11301000C946F010C946F010C946F010C946F01AB
S11301100C946F010C946F010C946F010C946F019B
S11301200C946F010C946F010C946F010C946F018B
S11301300C946F010C946F010C946F010C946F017B
S11301400C946F010C946F010C946F010C946F016B
S11301500C946F010C946F010C946F010C946F015B
S11301600C9475050C946F010C94A1050C946F010B
S11301700C946F010C946F010C946F010C946F013B
S11301800C946F010C946F010C946F010C946F012B
S11301900C946F010C946F010C946F010C946F011B
S11301A00C946F010C946F010C946F010C946F010B
S11301B00C946F010C946F010C946F010C946F01FB
S11301C00C946F010C946F010C946F010C946F01EB
S11301D00C946F010C946F010C946F010C946F01DB
S11301E00C946F010C946F01E7E7E7E7E7E7E8E9B0
S11301F0EACAAAAB4525030405060708090AE7E786
S1130200E7E7E7E7E8E9EACBABACAD482706070840
S1130210090A0B0CC0A1818283606141422223023E
S1130220030405060708090A0B0C0D223E1DBE1C1B
S1130230FE2A0229A2276230AD2D1B2E2E2D3E341C
S1130240EC3600008138C7300000C920D920B9201D
S11302508F20A820DB1FF41F712000000000B31FB3
S1130260641F2720391FC91F541F951F861F451F50
S1130270A41F0104010101020101010101010101A5
S1130280010104010802010101010201010201024C
S113029001010201020201010101080011241FBE33
S11302A0CFEFDFE5DEBFCDBF00E00CBF10E2A0E082
S11302B0B0E2E8EEF4E800E00BBF02C007900D9254
S11302C0A63BB107D9F716E2A6EBB0E201C01D9236
S11302D0A931B107E1F70E9430040C9472420C94E6
S11302E00000089582E090E061E070E00E94080C54
S11302F008950F931F93CF93DF938C0160E070E018
S11303000E94080CC8EED3E004C084E690E00E948A
S1130310420721978FEFCF3FD807B9F7C80161E0B3
S113032070E00E94080CC8EED3E004C084E690E0BC
S11303300E94420721978FEFCF3FD807B9F7DF918B
S1130340CF911F910F9108956F927F928F929F92F8
S1130350AF92BF92CF92DF92EF92FF920F931F93CF
S1130360DF93CF93CDB7DEB7CF5FD040CDBFDEBF35
S113037039014A3121F4D9018C918E3221F080E087
S113038090E00E9479018091982090919920892B86
S113039061F0A7EBB0E2F301359688E001900D928D
S11303A08150E1F78EE28093C3208824992454017C
S11303B074E0D72E44E050E0DA942D2D30E0FA01B9
S11303C0E21BF30BE60DF71D808190E063E0220F42
S11303D0331F6A95E1F702C0880F991F2A95E2F747
S11303E0AA2797FDA095BA2F882A992AAA2ABB2A58
S11303F0DD2011F72091C6203091C7204091C820FC
S11304005091C92082169306A406B50608F043C08D
S1130410EDB7FEB73C97EDBFFEBF31968E010F5F7F
S11304201F4FADB7BEB711960D931C93129780E082
S113043090E28283938384829582A682B782208706
S11304403187428753870E946B3EEDB7FEB73696DD
S1130450EDBFFEBF3196ADB7BEB711960D931C9399
S113046012978BE290E28283938380E091E084830D
S113047095830E946B3E0F900F900F900F90EDB7F5
S1130480FEB7018312830E94243E0F900F9081E0F7
S113049090E00E9479018092C6209092C720A09299
S11304A0C820B092C920F30181819281A381B481D3
S11304B08093BF209093C020A093C120B093C2200A
S11304C04091982050919920C30166EB70E22EE090
S11304D004E036E0E32ECC24C3940E94010F833061
S11304E020F4813008F08FC004C0833009F08FC03D
S11304F066C08DB79EB708978DBF9EBFEDB7FEB798
S113050031968E010F5F1F4FADB7BEB711960D9395
S11305101C93129781E490E2828393838482958270
S1130520A682B7820E946B3EEDB7FEB73696EDBF4A
S1130530FEBF018312830E94243E73010F900F902B
S113054080E5A82E80E2B82E00D000D0EDB7FEB72B
S11305503196ADB7BEB711960C93119712961C93B2
S1130560A282B382D7011E968C91848315820E9445
S11305706B3E0F900F900F900F90EDB7FEB7018375
S113058012830E94243ED3940894E11CF11C0F9022
S11305900F90F4E0DF16C1F6C80164E570E20E9432
S11305A0D13D0F920F92ADB7BEB711960C93119730
S11305B012961C930E94243E0F900F9028C0EDB712
S11305C0FEB73897EDBFFEBF31968E010F5F1F4F08
S11305D0ADB7BEB711960D931C9312978FE590E2B9
S11305E08283938384829582A682B7820E946B3E23
S11305F0EDB7FEB73696EDBFFEBF018312830E94AE
S1130600243E0F900F9082E090E00E9479011092B6
S113061098201092992082E090E060E070E00E94BF
S1130620080C84E040E251EA67E070E020E030E04A
S113063002E711E0EE24FF240E944909C150DF4F74
S1130640CDBFDEBFCF91DF911F910F91FF90EF904F
S1130650DF90CF90BF90AF909F908F907F906F90DE
S11306600895EF92FF920F931F937C01E091CA20AB
S1130670F091CB20309709F18091CC208217E9F4D6
S11306808091CD208317C9F48091CE208417A9F4DA
S11306908091CF20851789F48091D020861769F442
S11306A08091D120871749F48091D2208E1529F4A6
S11306B08091D3208F1509F45DC00091D42010914E
S11306C0D5200115110501F18091D6208217E1F49E
S11306D08091D7208317C1F48091D8208417A1F486
S11306E08091D920851781F48091DA20861761F4EE
S11306F08091DB20871741F48091DC208E1521F452
S11307008091DD208F15B9F1EF2B19F4A0E0B0E052
S113071004C0012B49F5A1E0B0E08D010F5F1F4F2C
S1130720FD01EE0FFF1FCD01880F991F880F991F40
S1130730880F991FE80FF91FE653FF4D00831183BB
S1130740FD01EE0FFF1FEE0FFF1FEA0FFB1FEE0F61
S1130750FF1FE453FF4D208331834283538364831B
S11307607583E682F78207C0C7010FEF1FEFEE24FF
S1130770E39403C08F01C701EE240E94B13B1F9193
S11307800F91FF90EF900895882359F485E790E244
S11307900E94363E81E090E060E070E00E94080C28
S11307A0089581E00E94293B0895AF92CF92EF9281
S11307B00F938EEC9AEF61E040E02FE00FE0EE241F
S11307C0E394CC24AA240E94793A0F91EF90CF901D
S11307D0AF900895DF93CF930F920F92CDB7DEB70A
S11307E0882349F419821A8283E5BE016F5F7F4F23
S11307F00E94A03C03C081E00E94293B0F900F900F
S1130800CF91DF9108950F93DF93CF930F92CDB7DC
S1130810DEB78823E9F4633521F481E0898381E438
S113082005C0613449F481E0898382E5BE016F5FCC
S11308307F4F0E94A03C0FC0623551F481E04EEF1F
S113084057E060E070E021E000E00E94AC3A03C0B1
S113085081E00E94293B0F90CF91DF910F91089581
S11308600E94E23C882311F00E94A6060E94020C1A
S113087080E090E060E070E00E94080C81E090E08D
S113088061E070E00E94080C82E090E061E070E0BA
S11308900E94080C789480E00E94E005882311F0FF
S11308A00E94A6068AE994E061E874E00E94D83DBB
S11308B080E090E00E9481048CE890E20E94363E41
S11308C081E00E94293B0E940A100E94CC3CFDCF8B
S11308D0DF93CF930F92CDB7DEB780E0BE016F5F99
S11308E07F4F41E00E94CE05813019F02FEF3FEF9A
S11308F003C08981282F30E0C9010F90CF91DF9187
S113090008950F931F93DF93CF930F92CDB7DEB764
S11309108E010F5F1F4F80E0B80141E00E94CE05B9
S11309208823C9F3898190E00F90CF91DF911F91C3
S11309300F9108950F931F93DF93CF930F92CDB729
S1130940DEB789838A3071F48DE089838E010F5F6D
S11309501F4F80E0B80141E00E94D7058823C9F306
S11309608AE089838E010F5F1F4F80E0B80141E068
S11309700E94D7058823C9F380E090E00F90CF91BF
S1130980DF911F910F9108959B01AC016050774F47
S1130990824C9F4FF2E0660F771F881F991FFA95CC
S11309A0D1F7E3E0220F331F441F551FEA95D1F717
S11309B00E94273D21503040E0E6F6E088E0818344
S11309C084E08283E0EAF9E0378326838CE1848340
S11309D083E085838CE383830895DC018091A309FC
S11309E0837FE0EAF9E0838320910F25809110252D
S11309F0821730F0275F922F981B892F295005C04A
S1130A002150922F981B892F2F5F482F681708F4C5
S1130A10462F342F12C090911025E92FF0E0E550B5
S1130A20FB4D8C918083993019F41092102503C0EA
S1130A309F5F9093102531501196332361F7809175
S1130A401325882351F4E22FF0E0E550FB4D80811B
S1130A508093A00981E0809313258091A3098C6081
S1130A60E0EAF9E08383842F0895DC0120911425C2
S1130A70222311F480E008958091A3098F7CE0EA99
S1130A80F9E083832A3058F0809112258093112550
S1130A908AE0809314256A3020F02AE003C02617E8
S1130AA008F0262F322F17C0E0911125F0E0E55011
S1130AB0FB4D82858C93909111259F5F9093112516
S1130AC0809114258150809314259A3011F410924A
S1130AD0112511963150332339F78091A30980638E
S1130AE0E0EAF9E08383822F08951F920F920FB6F4
S1130AF00F920BB60F9211248F939F93EF93FF9352
S1130B0090911225809114258F5F809314258091F4
S1130B10A009E92FF0E0E550FB4D8287993019F4E4
S1130B201092122503C09F5F90931225FF91EF91BD
S1130B309F918F910F900BBE0F900FBE0F901F903F
S1130B4018951F920F920FB60F920BB60F921124A5
S1130B508F93EF93FF9380910F25893019F41092AE
S1130B600F2503C08F5F80930F25E0910F2580919F
S1130B701025E81739F0F0E0E550FB4D80818093B3
S1130B80A00902C010921325FF91EF918F910F904D
S1130B900BBE0F900FBE0F901F901895882311F075
S1130BA080E00895CB01642F0E94350508958823C1
S1130BB011F080E00895CB01642F0E94ED040895A4
S1130BC0882311F085E8089560E875E280E090E0FC
S1130BD00E94C40480E008958093DE209093DF2077
S1130BE0E0E4F6E091E0928B84E0828794870895B4
S1130BF01F920F920FB60F920BB60F9211242F93E0
S1130C003F934F935F936F937F938F939F93AF9390
S1130C10BF93EF93FF93E091DE20F091DF201995CD
S1130C20FF91EF91BF91AF919F918F917F916F91C0
S1130C305F914F913F912F910F900BBE0F900FBE7C
S1130C400F901F9018951F920F920FB60F921124B8
S1130C500F900FBE0F901F9018954F925F926F9256
S1130C607F928F929F92AF92BF92CF92DF92EF9238
S1130C70FF920F931F93CF93DF939C016B015A0153
S1130C80CB01820F931F8150904110F085E84DC035
S1130C90A0E0B0E0C0ECD1E040EC51E016E0612E01
S1130CA0F8EDEF2EF12C01E010E06BEC71E0E3E3E2
S1130CB07E2E95E3892E86E3982E33C08091CF0152
S1130CC087FDFCCFFA0112823183522E2093C0019A
S1130CD06286C701FB0184BF00838091C401F501D2
S1130CE0EA0FFB1F40808415C9F08091CF0187FD76
S1130CF0FCCF8091CF0181FF06C0FA019286C70123
S1130D00FB0184BF00837A865092C00119821A8243
S1130D104C828A86C701FB0184BF00832F5F3F4F4B
S1130D201196AC15BD0550F280E0DF91CF911F9173
S1130D300F91FF90EF90DF90CF90BF90AF909F9076
S1130D408F907F906F905F904F9008951F93CF93F3
S1130D50DF93E0E2F6E014828FEF8183C0E2D6E015
S1130D601FEF8FEF9FEF0E9442071F83FACFBF92BE
S1130D70CF92DF92EF92FF920F931F93CF93DF9363
S1130D808130910531F4862F642FA9010E944A0B0A
S1130D9035C0892B11F088EE31C0CA01860F971F28
S1130DA08150904110F085E829C0A0E0B0E0C0EC8B
S1130DB0D1E096E0B92E88EDC82ED12C01E0E02ECA
S1130DC0F12C0BEC11E016C08091CF0187FDFCCF14
S1130DD01A8279836093C001BA86C601F80184BF80
S1130DE0E0828091C401F901EA0FFB1F8083119610
S1130DF06F5F7F4FA417B50738F380E0DF91CF9181
S1130E001F910F91FF90EF90DF90CF90BF900895C6
S1130E100E94100908950E94FB0A0E94160B0E946A
S1130E208C0C0E94B70A0E94EE0A0E94F50A80E028
S1130E300895892B29F488E0809300088093400862
S1130E400895FC012091152530911625C901A0E0D3
S1130E50B0E0BC01552744278091200890912108D7
S1130E60A0E0B0E0482B592B6A2B7B2B80911525F1
S1130E70909116252817390729F7408351836283F7
S1130E80738308954FB7F8948630910518F1209133
S1130E90200830912108280F391F80912008909153
S1130EA021088217930740F480912008909121082B
S1130EB082179307C8F30EC08091200890912108EF
S1130EC028173907C8F380912008909121088217C8
S1130ED09307C8F34FBF089520E090E0FC0153E06E
S1130EE0EE0FFF1F5A95E1F7E80FF91FE95EFA4D7F
S1130EF084819581892B09F021E0822F0895DF9266
S1130F00EF92FF920F931F93DFB6F8948091E22043
S1130F108F3F09F456C090E0FC01A3E0EE0FFF1FE1
S1130F20AA95E1F7E80FF91FE95EFA4DE080F18038
S1130F30028113812091152530911625C801AA2715
S1130F40BB272817390769F4E0922808F09229088A
S1130F5080910C08806180930C088091070883605D
S1130F6003C0809107088C7F809307086091152542
S1130F70709116259B0140E050E0809120089091EB
S1130F802108A90133272227A0E0B0E0282B392B20
S1130F904A2B5B2B809115259091162568177907AC
S1130FA029F72E193F09400B510B2F5F3F4F4F4F2D
S1130FB05F4F2F5F3F4F4F4F5F4718F481E080939F
S1130FC0E120DFBE1F910F91FF90EF90DF90089515
S1130FD08091E120882309F44CC01092E1203091E3
S1130FE0E020332309F445C08091E3208F3F59F476
S1130FF08091E4208F3F39F48091E2208093E420B3
S11310008093E32012C02091E2208091E42090E0BC
S1131010FC0143E0EE0FFF1F4A95E1F7E80FF91FCB
S1131020E95EFA4D20872093E4208091E22090E04D
S1131030FC0123E0EE0FFF1F2A95E1F7E80FF91FEB
S1131040E95EFA4D80858093E2208091E42090E06F
S1131050FC01B3E0EE0FFF1FBA95E1F7E80FF91FAB
S1131060E95EFA4D8FEF808731503093E0200E9483
S11310707F070895FF920F931F93182F853010F068
S11310808AE8C5C0FFB6F8940E94E8070091E02002
S1131090002309F4C0C04091E220242F842F302F74
S11310A01217F1F5212F30E0141781F4F90163E0F0
S11310B0EE0FFF1F6A95E1F7E20FF31FE95EFA4DA9
S11310C080858093E2200E947F0718C090E0DC01B5
S11310D053E0AA0FBB1F5A95E1F7A80FB91FA95EE9
S11310E0BA4DF90143E0EE0FFF1F4A95E1F7E20F15
S11310F0F31FE95EFA4D808518968C93812F90E05A
S1131100FC0123E0EE0FFF1F2A95E1F7E80FF91F1A
S1131110E95EFA4D8FEF808701500093E02062C0B2
S1131120822F90E0FC01B3E0EE0FFF1FBA95E1F7C8
S1131130E80FF91FE95EFA4D50853150822F09F40A
S11311406AC0252FADCF1217D1F52091E4201317D3
S1131150B1F4121721F48FEF8093E4200DC0812F96
S113116090E0FC01A3E0EE0FFF1FAA95E1F7E80F62
S1131170F91FE95EFA4D80858093E32033C0842F04
S113118090E0DC01E3E0AA0FBB1FEA95E1F7A80FAA
S1131190B91FA95EBA4D812F90E0FC0173E0EE0FF8
S11311A0FF1F7A95E1F7E80FF91FE95EFA4D808594
S11311B018968C931217B1F44093E42013C0822F35
S11311C090E0FC0163E0EE0FFF1F6A95E1F7E80F82
S11311D0F91FE95EFA4D422F20852F3F09F0B3CF66
S11311E080E00FC0812F90E0FC0153E0EE0FFF1F61
S11311F05A95E1F7E80FF91FE95EFA4D148215825A
S113120081E0FFBE882311F489E801C080E01F91CA
S11312100F91FF9008953091E320232F432FDDCFCA
S11312201F931FB7F8940E94E8071FBF1FEF25C044
S11312306FB7F894822F90E0FC0173E0EE0FFF1F6C
S11312407A95E1F7E80FF91FE95EFA4D20854481AC
S113125055818681978110871482158216821782A0
S11312602F3F09F43FEF6FBF4115510551F0309303
S1131270E4202093E320FA0119953091E420209191
S1131280E3202F3FA9F63093E4202093E3201F911D
S113129008952F923F924F925F927F928F929F92E6
S11312A0AF92BF92CF92DF92EF92FF920F931F9370
S11312B0CF93DF93782E5A016B01490194E0292ED4
S11312C0281610F48AE8E2C00115110509F4DBC000
S11312D0C82FD0E0FE0183E0EE0FFF1F8A95E1F7EF
S11312E0EC0FFD1FE95EFA4D84819581892B11F085
S11312F088E8CCC060911525709116259B0140E0CB
S113130050E08091200890912108A90133272227D9
S1131310A0E0B0E0282B392B4A2B5B2B80911525BC
S1131320909116256817790729F78114910431F0F3
S113133061E08616910409F0A6C011C0D601C5016A
S113134080589040A040B04080589F4FAF4FBF4757
S113135008F09BC0A20EB31EC41ED51E10C0D60139
S1131360C50180589040A040B040821B930BA40B51
S1131370B50B80589F4FAF4FBF4708F086C09FB64C
S1131380F8940E94E8075091E2205F3F31F06091A9
S1131390E020452F252F30E054C07092E220FE015A
S11313A0A3E0EE0FFF1FAA95E1F7EC0FFD1FE95E26
S11313B0FA4D508731C02F3F09F43EC0822F90E090
S11313C0FC0173E0EE0FFF1F7A95E1F7E80FF91FB8
S11313D0E95EFA4D80819181A281B38115012601D4
S11313E0281A390A4A0A5B0AD201C1018F5F9F4F4A
S11313F0AF4FBF4710F4808521C0FE0133E0EE0FEC
S1131400FF1F3A95E1F7EC0FFD1FE95EFA4D2087C7
S1131410521721F47092E22091E017C0842F90E0DB
S1131420FC0123E0EE0FFF1F2A95E1F7E80FF91FF7
S1131430E95EFA4D708655C08FEF242F3F5F422F2F
S1131440282F361708F4B7CF33C0FE0183E0EE0F20
S1131450FF1F8A95E1F7EC0FFD1FE95EFA4DA082AC
S1131460B182C282D38204831583E682F78280919B
S1131470E0208F5F8093E020992311F00E947F0782
S11314809FBE80E003C088EE01C08BE8DF91CF915E
S11314901F910F91FF90EF90DF90CF90BF90AF908E
S11314A09F908F907F905F904F903F902F900895E2
S11314B0842F90E0FC01B3E0EE0FFF1FBA95E1F733
S11314C0E80FF91FE95EFA4D7086FE01A3E0EE0F06
S11314D0FF1FAA95E1F7EC0FFD1FE95EFA4D8FEFB0
S11314E0808790E0B2CF1F920F920FB60F920BB687
S11314F00F9211242F933F934F935F936F937F9396
S11315008F939F93AF93BF93EF93FF938091152590
S113151090911625019680931525909316250E9487
S11315207F07FF91EF91BF91AF919F918F917F9131
S11315306F915F914F913F912F910F900BBE0F9040
S11315400FBE0F901F9018951F920F920FB60F9217
S113155011248F938091E020882319F081E08093F7
S1131560E1208F910F900FBE0F901F90189510924D
S1131570E0201092E12010921525109216258FEF8D
S11315808093E2208093E3208093E420EBE1F5E272
S1131590848310821182399695E2E834F907C1F701
S11315A00E94330B0895FC01809115259091162516
S11315B02091680830916908A0E0B0E0DC01992727
S11315C0882740E050E0822B932BA42BB52B8083FB
S11315D09183A283B383089581E0089584E880937E
S11315E0800181E6809381010895E0EAF0E0828140
S11315F084608283089582E080935000809151003A
S113160081FFFCCF98ED94BF84E0E0E4F0E08183B7
S113161094BF81E08093400082E0E0E5F0E08683BF
S1131620809160008160809360000895E0E4F6E0BA
S113163080818061808380818068808380818160F3
S113164080838081806280838081886080838081C0
S11316508F7B8083E0E6F6E080ED818380E2828305
S113166080E18583089588E0809300088093400892
S113167080EF80930C0880E380934C0883E0809390
S11316800608E1E4F8E080818061808389E2809348
S1131690430808956F927F929F92AF92BF92CF9228
S11316A0DF92EF92FF920F931F93DF93CF93CDB707
S11316B0DEB7C054D040CDBFDEBFD82EA62EC42E78
S11316C0B52E3E010894611C711C662DA0E4B6E0A1
S11316D0EE24E39470E1F72E00EC18E053E0952E2D
S11316E020EC38E0AE01405C5F4F962D961B709164
S11316F04906809149068C7F19968C931997169602
S1131700EC9216971696FC921697000000000000C3
S113171000000000000000000000000000000000C5
S113172000000000000000000000F8019382809196
S1131730C20887FFFCCF9F77F90193838091C20889
S113174087FFFCCFF90113828091C20887FFFCCF89
S11317508091C3081596FC9215971596EC921597EF
S113176019967C931997F30180836416750621F00A
S11317700894611C711CB9CFFE01319620E030E061
S1131780DE01AF5BBF4F81912827022E2295207F77
S11317902025032E322F22952F70022626953227DC
S11317A02327220F220F220F2025EA17FB0759F7C0
S11317B0232B11F085E814C0DE011196AD0DB11D87
S11317C08C2D9B2D9C01AD0106C0FA018191AF01C6
S11317D0F90181939F01842F8A1B8A15B0F380E05D
S11317E0C05CDF4FCDBFDEBFCF91DF911F910F9162
S11317F0FF90EF90DF90CF90BF90AF909F907F903D
S11318006F900895E0E2F6E087E08183868308958F
S11318108130910519F0029719F404C021E003C046
S113182020E001C022E06115710521F061307105ED
S1131830A9F40BC081E090E002C0880F991F2A959B
S1131840E2F7E0E2F6E08583089502C0660F771FB1
S11318502A95E2F7E0E2F6E06683089581E090E0FD
S113186002C0880F991F2A95E2F7E0E2F6E0878329
S11318700895E0E2F6E088E0828388E1838B0895AE
S1131880E0E2F6E0208530E0E3E036952795EA953E
S1131890E1F721703070C90108952FB7F89498E0EA
S11318A09093B000E0E2F6E08BE1838B81858C7F3E
S11318B0826081879287E0EAF0E08281826082839D
S11318C078942FBF08951F920F920FB60F920BB604
S11318D00F9211248F93EF93FF93E0E2F6E0828559
S11318E0877F8287E8E4F0E080818E7F8083FF91A8
S11318F0EF918F910F900BBE0F900FBE0F901F9022
S113190018950E944D0CE8E4F0E08081807F8560AA
S1131910808378948895089580E58093C00880E159
S1131920E0E4F6E085830895E0E4F6E020914906DA
S1131930909149069C7F9187806C90E19683E0ECBE
S1131940F8E083838091C20887FFFCCFE0ECF8E0E5
S113195063838091C20887FFFCCFE0E4F6E080E176
S1131960858321870895E0E4F6E02091490690916B
S113197049069C7F9187806890E19683E0ECF8E0CB
S113198083838091C20887FFFCCFE0ECF8E01382E8
S11319908091C20887FFFCCF8091C308E0E4F6E0A1
S11319A090E1958321870895CF93DF93DC0180E153
S11319B0E0E4F6E0868380E2E0ECF8E08383809163
S11319C0C20887FFFCCFE0ECF8E013826130A9F095
S11319D0FD01262FC0ECD8E08091C20887FFFCCF20
S11319E08091C3081B82819321502230A8F7625052
S11319F0862F90E00196A80FB91F8091C20887FF37
S1131A00FCCF8091C3088C9380E1E0E4F6E0858309
S1131A10DF91CF910895DC0180E1E0E4F6E0868374
S1131A2080E6E0ECF8E083838091C20887FFFCCF76
S1131A30E0ECF8E09D9161508091C20887FFFCCFF3
S1131A4093836623B9F78091C20887FFFCCF80E1B6
S1131A50E0E4F6E085830895FF920F931F93062F29
S1131A60F42E0E94B30C082310E002C015950795CC
S1131A70FA94E2F7802F1F910F91FF900895DF925F
S1131A80EF92FF920F931F93D82EF62EE42E022F7F
S1131A900E94B30C10E002C0000F111FEA94E2F799
S1131AA06F2D6023F094F8226F298D2D0E94940CE1
S1131AB01F910F91FF90EF90DF900895BC01009764
S1131AC021F089E994E20E94930D089589E994E252
S1131AD060E070E00E94280E08950F931F93CF9347
S1131AE0DF9389E994E20E948C0DC1E8D4E205EE0B
S1131AF010E20883198389E994E2BE010E94930DE0
S1131B00249606561F4F84E2C939D80791F7DF910E
S1131B10CF911F910F910895FC01108211821282BE
S1131B20138214820895CF93DF93DC01EB019FB7F6
S1131B30F89414968C911497882321F46D937C93D4
S1131B40119706C01296ED91FC91139762837383EB
S1131B501296CD93DC9313971A821B8214968C9160
S1131B6014978F5F14968C939FBFDF91CF91089544
S1131B709F92AF92BF92CF92DF92EF92FF920F9318
S1131B801F93CF93DF938C015B016A019FB6F89496
S1131B90DC0114968C91882319F4C0E0D0E04AC08B
S1131BA0F801C081D18141155105B1F07E0111C008
S1131BB0D60112966D917C911397ED91FC918881D9
S1131BC099811995882359F47E018A819B819C010E
S1131BD0E901209769F72EC0209761F17E01AB28B7
S1131BE049F5F801808191812A813B81C817D90781
S1131BF019F42083318305C0D70112962D933C93A9
S1131C001397F80182819381C817D90711F4E282EE
S1131C10F382D80114968C911497815014968C9366
S1131C2014978D919C911197892B21F412961D92F2
S1131C301C9213979FBECE01DF91CF911F910F91FC
S1131C40FF90EF90DF90CF90BF90AF909F9008955A
S1131C50AB0160E070E00E94B80D0895AB0161E053
S1131C6070E00E94B80D0895CF93DF93EC010BC090
S1131C70CE0160E070E00E94280E009711F41C82EF
S1131C8005C00E945E0D8C81882391F7DF91CF916E
S1131C90089580E28093C00008950895DC01E091E6
S1131CA0C024F091C12490E081918093C3009F5F90
S1131CB09031D1F790E08D918093C2009F5F903175
S1131CC0D1F78091C1008178E1F381E08093C10074
S1131CD00895FC0190E08091C20081939F5F903150
S1131CE0D1F708950F931F93DF93CF93CDB7DEB74A
S1131CF06097CDBFDEBF9C01062F142F81E4809333
S1131D009F242115310599F010929E2482E080933E
S1131D10AA20A0EAB4E2F90180E101900D92815079
S1131D20E1F780EA94E28093C0249093C1241123C4
S1131D3021F0113009F058C007C08091AA208130E9
S1131D4059F580EA94E224C08091AA20813021F1DF
S1131D5080919E248823D1F480919F248093C00095
S1131D6080EA94E28093C0249093C124CE0101962A
S1131D700E944E0EE0EBF4E28091C300819384E272
S1131D80E03CF807C9F781E080939E2480EB94E25D
S1131D908093C0249093C1241093AA20002311F0AF
S1131DA0023011F580E090E0023011F481E090E01F
S1131DB0880F991F880F991F282F247080919F24C2
S1131DC0282B80E090E0113011F481E090E034E0C1
S1131DD0880F991F3A95E1F78071822B80939F2495
S1131DE08093C00081E001C080E06096CDBFDEBF7B
S1131DF0CF91DF911F910F91089581E08093C224C8
S1131E0008953F924F925F926F927F928F929F922A
S1131E10AF92BF92CF92DF92EF92FF920F931F93F4
S1131E20DF93CF93CDB7DEB76297CDBFDEBF4C0152
S1131E305B013A01322ED02EFE2C8091C2248823DD
S1131E4021F00E944D0E1092C2244F2D50E09A01B1
S1131E50237030702115310511F4EE240AC02F5F70
S1131E603F4F81E090E002C0880F991F2A95E2F766
S1131E70E82E487F452B09F0B5C08114910409F47C
S1131E80B1C0A114B10409F4ADC0432C552482019E
S1131E900D0D111D8E2D90E0898B9A8B800F911F53
S1131EA08038910508F09EC08091AB20882329F0EA
S1131EB061147104F9F482E098C061147104D1F0E2
S1131EC040E130E04150E42FF0E0D301AE0FBF1FFA
S1131ED0ED53FB4D8C912081822790E0232F30E03D
S1131EE0822B932B30E0892B09F031E0442351F706
S1131EF03093AB208091AB20882379F0C30160E05C
S1131F0040E00E94720EA3ECB4E2F30180E1019080
S1131F100D928150E1F71092AB2081E0F5018083AE
S1131F20EE2061F08E2D90E002979595879523E041
S1131F30880F991F2A95E1F781608083332021F06F
S1131F40F50180818064808384E0782E7F20F50110
S1131F5060801686CC20D1F4EE2051F0D786080D8F
S1131F60191DC401B801A501232D0D2D0E94E710F0
S1131F707720D1F181E0F5018083C401840D951DA2
S1131F80B5014E2D2D2D0E940D102EC0772059F035
S1131F9081E0F5018083C401840D951DB5014E2DAA
S1131FA02D2D0E940D10EE20F9F0F5016082D786E8
S1131FB0C4017E010894E11CF11CB701A501232D85
S1131FC00D2D0E94E710832D90E08D0D911D880D3D
S1131FD0991DB70149895A890E94B43D009721F09F
S1131FE083E003C081E001C080E06296CDBFDEBF24
S1131FF0CF91DF911F910F91FF90EF90DF90CF90E1
S1132000BF90AF909F908F907F906F905F904F9014
S11320103F9008950E94490E08954F925F926F92E7
S11320207F928F929F92AF92BF92CF92DF92EF9264
S1132030FF920F931F93DF93CF93CDB7DEB76097D3
S1132040CDBFDEBF5C016B01642E122F80E090E0F7
S113205060E040E00E94720E7724EE24FF24412EBB
S113206055244E010894811C911C25C07394D601FB
S11320701F967C92C6010E944E0EC4010E94690EF6
S1132080C8010131110514F080E190E0D501F4019B
S1132090282F30E0A401420F531F04C08C9191916A
S11320A089278D93E417F507C9F7A20EB31EE0EF55
S11320B0FFEFEE0EFF1E8701040D151D101611060D
S11320C0ACF26620E9F0D6011F961C92C6010E946C
S11320D04E0E8E010F5F1F4FC8010E94690E20E053
S11320E030E00CC0F801E20FF31FD5018C91908110
S11320F08927F50181935F012F5F3F4F621691F7A6
S11321006096CDBFDEBFCF91DF911F910F91FF90FD
S1132110EF90DF90CF90BF90AF909F908F907F9083
S11321206F905F904F900895CF92DF92EF92FF925D
S11321300F931F93DF93CF93CDB7DEB76097CDBFD7
S1132140DEBF6C01F62E8C01E62E07C0C8010E948A
S11321504E0E005F1F4F80EFE80E8FE08E15B0F338
S11321600F2D0F70F2949FE0F9222F2D30E084E0C0
S1132170220F331F8A95E1F72C0D3D1D0023D9F062
S113218010E07E010894E11CF11CC701B901402F45
S113219050E00E94C13DE0E1F0E0E01BF10B97014B
S11321A0200F311FC90160E070E0AF010E94CA3DF9
S11321B0C7010E944E0E6096CDBFDEBFCF91DF9166
S11321C01F910F91FF90EF90DF90CF9008959F9211
S11321D0AF92BF92CF92DF92EF92FF920F931F9331
S11321E0DF93CF93CDB7DEB76097CDBFDEBF6C0171
S11321F05B017A01122F902EFA01078780E090E0AC
S113220060E040E00E94720EC7010E944E0E80E022
S113221090E062E040E00E94720E112301F1012F70
S11322201F3008F00EE019821A83E02EFF249E016D
S11322302D5F3F4FC901B601402F50E00E94C13DC0
S1132240602F6E5FCE0101960E949410011738F43E
S1132250612F601BC6018E0D9F1D0E949410C60144
S1132260810F911D692D0E949410C5010E94690E71
S11322706096CDBFDEBFCF91DF911F910F91FF908C
S1132280EF90DF90CF90BF90AF909F9008951F93F1
S113229081E06FE140E00E942C0D8830A1F48FE0D2
S11322A00E94B30C82E069E00E94940C10E08FE07D
S11322B00E94B30C80FD07C088EC90E00E944207A6
S11322C01F5F1330A1F71F9108950F931F93082FD9
S11322D0809164258F3009F59FB7F894789488E04D
S11322E0E0E4F6E0868380916D258823E1F39FBFC7
S11322F010926D258FE00E94B30C8EED9AE10E943E
S1132300EC058EE068E00E94940C083011F0033074
S113231021F488E080936425D9C181E06FE140E035
S11323200E942C0D80936425083009F455C00930AF
S113233050F4043009F4A2C0063009F4ACC00330F0
S113234009F0BBC161C00F3069F0003120F40930DD
S113235009F0B3C171C0063109F4D6C0093109F0DE
S1132360ACC13EC182E063E00E94940C0E94A43D93
S1132370682F192F8DE20E94940C8EE267E040E0F2
S1132380212F0E943F0D8FE00E94B30C85ED9AE14E
S11323900E94EC058EE06FEF40E020E10E943F0DCB
S11323A00000000000000000000000000000000029
S11323B00000000000000000000000000000000019
S11323C088E0E0E4F6E0858383E290E00E9442073F
S11323D0009364258FE07AC1883009F46EC182E0ED
S11323E068E00E94940C000000000000000000005F
S11323F000000000000000000000000000000000D9
S113240000000000000059C1883009F456C182E080
S113241063E00E94940C0000000000000000000033
S113242000000000000000000000000000000000A8
S113243000000000000041C1883029F1893020F4F7
S1132440863009F03AC105C0863119F0893109F0A6
S113245034C182E069E00E94940C00000000000096
S11324600000000000000000000000000000000068
S1132470000000000000000000001FC1883019F0B7
S1132480893021F41AC10E94471117C182E064E027
S11324900E94940C12C1893059F08A3020F488309B
S11324A009F00BC11AC0863119F0893109F005C150
S11324B082E066E00E94940C00000000000000002E
S11324C00000000000000000000000000000000008
S11324D00000000000000000F0C00E94471182E0EC
S11324E066E00E94940C0000000000000000000060
S11324F000000000000000000000000000000000D8
S1132500000000000000D9C0883001F1893020F4B7
S1132510863009F0D2C031C0893019F0893109F010
S1132520CCC082E066E10E94940C00000000000030
S11325300000000000000000000000000000000097
S113254000000000000000000000B7C00E94471116
S113255082E066E10E94940C00000000000000008C
S11325600000000000000000000000000000000067
S11325700000000000000000A0C082E069E00E94AA
S1132580940C0000000000000000000000000000A7
S11325900000000000000000000000000000000037
S11325A0000081E06FE140E00E942C0D80936425DF
S11325B0893009F08BC082E066E10E94940C00002F
S11325C00000000000000000000000000000000007
S11325D000000000000000000000000000006DC0CA
S11325E0883009F454C0893020F4863009F065C07D
S11325F01BC0893021F0863109F05FC015C082E02C
S113260069E10E94940C000000000000000000003A
S113261000000000000000000000000000000000B6
S113262000000000000049C082E069E00E94940CB0
S11326300000000000000000000000000000000096
S11326400000000000000000000000000000000086
S113265081E06FE140E00E942C0D80936425893075
S113266009F034C082E069E10E94940C000000008B
S11326700000000000000000000000000000000056
S113268000000000000000000000000016C00E94CE
S1132690471182E069E10E94940C000000000000F0
S11326A00000000000000000000000000000000026
S11326B00000000000000000000081E06FE140E045
S11326C00E942C0D809364258F31B9F31F910F91D3
S11326D00895809155258823E1F080916E25882303
S11326E0C1F48091D3249091D424892B39F48AE9BC
S11326F00E94660D8093D3249093D4248091D32494
S11327009091D424892B29F01092552586E10E94BA
S1132710651180915A25882351F086E595E260E0A1
S113272070E00E94280E009711F00E94A41380917B
S11327306E25823019F0853031F403C00E940B15E8
S113274008950E943B150895EF92FF920F931F93F3
S1132750CF93DF937C01DC010D911C91D801179676
S1132760ED91FC911897808180936625C82FD0E065
S11327702196CE0FDF1F98812981293210F028E29B
S113278003C0222309F421E09295969596959370BF
S11327908FEF989FC001112430E0FC01E29FC0013B
S11327A0E39F900DF29F900D112468E770E00E9462
S11327B0133D6F3F710511F008F06FEF6883D80186
S11327C01196ED92FC921297C8010E942B21DF9181
S11327D0CF911F910F91FF90EF900895DF92EF92A8
S11327E0FF920F931F93DF93CF930F92CDB7DEB772
S11327F0E091D324F091D4243097C1F1E080F180AA
S113280087E00E94B30CD82ECE01019661E00E94AD
S1132810D40C698167FD2AC06D5F0AE910E0061BCC
S113282011090E0D1F1D6150C8010E94D40CF7013F
S1132830078310878981080F111DF801D2826091E6
S1132840D3247091D42486E595E20E94930D8AE9FD
S11328500E94660D8093D3249093D424892B31F461
S113286089E00E94651181E0809355250F90CF91F6
S1132870DF911F910F91FF90EF90DF9008958823CF
S113288011F087E005C082E060EE45E00E942C0D67
S11328908093D52482E080936E258091D3249091F7
S11328A0D424892B39F489E00E94651181E0809356
S11328B05525089586E10E9465110895EF92FF92CF
S11328C00F931F93CF93DF937C01EB01042F4423D9
S11328D031F08CE260EF44E02091632504C08CE287
S11328E060EF44E020E00E943F0DC230D10598F42F
S11328F0002361F08CE26EE041E020915B250E94B0
S11329003F0D8FE260E00E94940C16C08CE26EE0F2
S113291041E027E00FC060915F256295607F809160
S11329206225682B8FE20E94940C8CE26EE041E0F9
S113293020915B250E943F0D89E10E946511893138
S1132940D9F7809149068C7FE0E4F6E081872197EE
S113295079F58091662590914F258331A0F080917F
S11329605D25992341F4882319F08FEB93E01EC071
S113297087EA97E01BC0882319F087E592E016C028
S113298087E196E013C080915D25992341F4882363
S113299019F083E091E00AC08FE292E007C0882337
S11329A019F087E990E002C087EB91E00E944207AA
S11329B000E416E088E0F80185838683C701F70107
S11329C060810E940B0D81E080936E258091490601
S11329D08360F8018187DF91CF911F910F91FF9060
S11329E0EF900895FC0180916E25882311F086E80C
S11329F00895E0936025F093612587819085809305
S1132A00672590936825009711F488EE08950E9435
S1132A105E1480E0089510926E258091D524833051
S1132A20B1F0843028F4882331F08130E1F409C016
S1132A308530C9F412C0609160257091612580E0F1
S1132A4017C0609160257091612587E811C060917D
S1132A5060257091612581EE0BC0609160257091B5
S1132A60612589EE05C0609160257091612585E836
S1132A700E947732089585E160E847E020E00E94F3
S1132A803F0D8EED9AE10E94EC058EE068E00E9415
S1132A90940C809149068360E0E4F6E0818710920B
S1132AA06E2586E10E9465119091D6249F3320F013
S1132AB08FEF8093D6240AC08FEF989FC001112412
S1132AC06EE370E00E94133D6093D6248091D62477
S1132AD00E94B63608951F93CF93DF93182F8091E9
S1132AE06E25882341F0809164258F3011F086E8AB
S1132AF060C081E85EC0C0E4D6E0809149068C7F66
S1132B0089878FE00E94B30C85E160E847E021E00B
S1132B100E943F0D8DED95E10E94EC058EE06FEF74
S1132B2040E020E10E943F0D80914906836089873F
S1132B3086E00E9465118630A1F085E160E847E0F7
S1132B4020E00E943F0D8EED9AE10E94EC058EE09C
S1132B5068E00E94940C809149068360898785E827
S1132B6028C087E06FEF0E94940C84E080936E2568
S1132B701092D62480EC93E0A0E0B0E004C0880F6B
S1132B80991FAA1FBB1F1A95D2F780549C4FAF4FB1
S1132B90BF4F23E0B695A795979587952A95D1F7CA
S1132BA08093D7249093D824A093D924B093DA2483
S1132BB080E0DF91CF911F9108958FE00E94B30CC4
S1132BC084FF29C087E00E94B30C982F8091D624FB
S1132BD0891710F49093D6248091D7249091D82407
S1132BE0A091D924B091DA240197A109B109809365
S1132BF0D7249093D824A093D924B093DA240097AF
S1132C00A105B10529F087E06FEF0E94940C0895A7
S1132C1085E080936E2508958091442585FD03C049
S1132C20982F9F7308C0982F91959F719195963F07
S1132C3014F495EF22C080914F25823059F08530ED
S1132C40A1F08823A1F480915D25882359F496305E
S1132C50FCF411C080915D25882321F494303CF06C
S1132C6093E00FC09B3094F402C096308CF4903201
S1132C7014F08FE908C097FF04C0892F8F71806A10
S1132C8002C0892F80688093442508959AE0F9CF83
S1132C9095E0F7CF1F9384E080935B2523E0209396
S1132CA062258FEF9FEF8093502590935125809359
S1132CB053259093542511E010935D2510924F25D0
S1132CC088E294E080934D2590934E2588E280938A
S1132CD0652588E080935C2585E080935F252093BB
S1132CE063258AE8809344250E940C16109352258C
S1132CF010925E251F91089585FD03C0982F9F7340
S1132D0004C0982F91959F71919580914F2585309E
S1132D1051F4892F992787FD9095E2EFF1E0E81BA4
S1132D20F90B8491089580915D25292F332727FD80
S1132D303095882331F4E8E0F2E0E21BF30B849150
S1132D400895EEE1F2E0E21BF30B84910895E09123
S1132D504F25EE2309F0C1C060E074E048E050E084
S1132D6020E230E0240F351F260F371F20934D2516
S1132D7030934E25EE2319F428E090E202C022E0BD
S1132D8098E0920F90936525EE2311F092E001C034
S1132D9098E090935C25823091F0853009F456C018
S1132DA0882311F080E008958CE068E043E020E09F
S1132DB00E943F0D86E163E040E023E010C08CE018
S1132DC068E043E021E00E943F0D86E163E040E0DB
S1132DD022E00E943F0D8CE063E040E020E00E948E
S1132DE03F0D80915D25882321F48CE064E042E06E
S1132DF009C08CE064E042E021E00E943F0D8CE0D9
S1132E0060E144E020E00E943F0D87E164E042E09D
S1132E1020E00E943F0D8FEF97E0A0E0B0E08093A8
S1132E20692590936A25A0936B25B0936C2584E162
S1132E3067E040E020E00E943F0D88E06FE140E061
S1132E4020915D250E943F0D81E008958CE068E0AB
S1132E5043E021E00E943F0D86E163E040E022E090
S1132E600E943F0D8CE063E040E020E00E943F0DB3
S1132E708CE060E144E021E00E943F0D8CE064E0DE
S1132E8042E021E00E943F0D87E164E042E020E05F
S1132E900E943F0D8FE090E0A0E0B0E080936925B0
S1132EA090936A25A0936B25B0936C2580915D2542
S1132EB0843010F010925D2584E167E040E024E066
S1132EC00E943F0D20915D25220F255F83E16FEF66
S1132ED040E00E943F0D81E0089560E071E042E02F
S1132EE050E028E030E03ECF1F93CF93DF9382E29F
S1132EF0609150250E94940C83E2609151250E94B8
S1132F00940CC5E4D5E214E2812F69910E94940CDB
S1132F101F5F1C32C9F780E2609153250E94940C14
S1132F2081E2609154250E94940C88E060E645E0BB
S1132F30209152250E943F0D8FE26FE040E02091E6
S1132F4062250E943F0D8EE268E043E020915E25F9
S1132F500E943F0D8FE260EF44E020915F250E94C4
S1132F603F0D80914F250E94A716809144250E9411
S1132F707C16682F85E00E94940CDF91CF911F91FD
S1132F800895FF920F931F93CF93DF93EB019091DA
S1132F906E25943009F417C18E3431F0893541F42B
S1132FA088818093632513C1888180935B250FC139
S1132FB0209164252F3011F481E80AC18B3009F483
S1132FC0FBC08C3070F4823009F4BEC0833018F436
S1132FD08823E9F115C0833009F4C2C0843081F438
S1132FE089C0833521F1843528F48F3459F0803534
S1132FF039F40FC0873509F4A0C0803F09F4B9C083
S113300084EFE6C02881209362258FE26FE040E0E0
S1133010ADC088819981682F809350259093512564
S113302082E20E94940C83E2609151250DC0888154
S11330309981682F809353259093542580E20E94B0
S1133040940C81E2609154250E94940CC0C0992391
S113305009F0B9C080914F252881853029F48FE08B
S113306090E0A0E0B0E004C08FEF97E0A0E0B0E013
S113307004C0B695A795979587952A95D2F780FFB2
S1133080A4C010915D25888180935D25809164257D
S1133090883011F408E006C088E00E946511883089
S11330A0D9F706E180914F2520915D25853029F4DB
S11330B0220F255F83E16FEF06C0222341F0112325
S11330C031F088E06FE140E00E943F0D0CC00E94A7
S11330D0A7160E940C16809144250E947C16682F26
S11330E085E00E94940C083009F471C086E10E94C6
S11330F065116DC0992309F066C0283011F418E0F9
S113310006C088E00E9465118830D9F716E1F8807E
S11331108F2D0E94A716082F183019F086E10E94FF
S11331206511002309F451C0F0924F250E940C163A
S1133130809144250E947C1610C0288120935F252D
S11331408FE260EF44E012C08881809344250E949E
S11331500C16809144250E947C16682F85E074CF5C
S113316028812093522588E060E645E00E943F0DC7
S11331702EC08881809345258981809346258A8144
S1133180809347258B81809348258C8180934925A2
S11331908D8180934A258E8180934B258F818093E6
S11331A04C25C5E4D5E214E2812F69910E94940C68
S11331B01F5F1C32C9F70BC0288120935E258EE265
S11331C068E043E0D3CF86E803C088EE01C080E026
S11331D0DF91CF911F910F91FF900895DF92EF92AD
S11331E0FF920F931F93DF93CF930F92CDB7DEB768
S11331F0D82E81E090E065E170E041E050E09E016E
S11332002F5F3F4F0E94B70600E416E088E0F80104
S113321086838CE791E00E944207FF24F394F8012F
S1133220F68281E090E00E944207F801F58210E006
S113323084E690E00E94420781E06FE140E00E9452
S11332402C0D1A3011F485E83AC0883011F01F5F54
S1133250EFCF8093642529812223D1F182E16FE0AD
S113326040E00E943F0D34C086E060E645E00E94E5
S11332702C0D9801220F331F220F331F082F10E04B
S1133280022B132BF394F8E0FF1671F783E00E94EE
S113329065118FE00E94B30CE0E4F6E081E08487DE
S11332A0E186C8010E94A93DDD2011F00E944A1662
S11332B00E94741710926E251092552580E00F908D
S11332C0CF91DF911F910F91FF90EF90DF900895C0
S11332D083E060E344E020E00E943F0D83E068E087
S11332E043E020E00E943F0D83E067E040E021E0FE
S11332F00E943F0D8EE260E245E021E00E943F0D16
S11333008CE060E847E021E00E943F0D84E062E049
S113331041E021E00E943F0D8EE068E00E94940CA1
S113332089E06FE040E025E00E943F0D86E00E94C6
S11333306511E0904906809149068C7FE0E4F6E04F
S1133340818700E010E0FF248FCF1F930E94EE18C6
S1133350882361F085E82DC086E595E260E070E0A1
S11333600E94280E009711F00E945E0D80915A254C
S1133370882391F78EED9AE10E94EC05E0E4F6E0F3
S113338081E0848780914906836081870E94A43DFF
S1133390682F192F8DE20E94940C8EE267E040E0C2
S11333A0212F0E943F0D80E00E94031B0E94F01A0F
S11333B080E01F910895FF920F931F93CF93DF93A3
S11333C00E940B07882309F0E9C0E0E4F6E081E0FD
S11333D0858388E086838AE491E00E94420710E0B6
S11333E0C0E4D6E0FF24F39401E00E8381E090E092
S11333F00E944207FD821A3009F4D0C084E690E0AE
S11334000E9442078CE10E94B30C873011F01F5FC9
S1133410ECCF83E067E040E021E00E943F0D82E0D2
S113342063E00E94940C10E084E690E00E9442075E
S113343081E06FE140E00E942C0D1A3009F4AEC027
S1133440883011F01F5FF0CF8093642581E090E015
S113345060E070E048E050E025E435E20E94B70601
S113346081E00E94EE18882351F098C0C5E4D5E2AB
S11334700E94A43D899385E2CD34D807C9F7809191
S11334804525309146254091472560914825709106
S11334904925F0914A25B0914B2550914C25082F90
S11334A0015091E0081708F090E0832F815021E04B
S11334B0831708F020E0192F180F91E0181708F06F
S11334C090E0292B842F815031E0841708F030E0FC
S11334D0A22FA80F91E0A81708F090E0392B862FAF
S11334E0815021E0861708F020E0E32FE80F91E0F7
S11334F0E81708F090E0292B872F815031E08717D7
S113350008F030E0622F680F91E0681708F090E04F
S1133510392B8F2F815021E08F1708F020E0432FA3
S1133520480F91E0481708F090E0292B8B2F815029
S113353091E08B1708F090E0322F380F21E0381714
S113354008F020E0922B5195591779F43F3F69F424
S11335504F3F59F46F3F49F4EF3F39F4AF3F29F43B
S11335601F3F19F40E3F08F081CF8EED9AE10E94BF
S1133570EC05809149068360E0E4F6E081870E94CF
S11335806D0D8AE90E94660D8093D3249093D42410
S113359086E595E20E948C0D80E001C085E8DF910C
S11335A0CF911F910F91FF9008958FE00E94B30C6B
S11335B084FF03C081E080936D2508958FE00E940D
S11335C0B30C282F83FF0BC080916E25813029F422
S11335D026FF80E00E943F1408950E94EE13089590
S11335E0809164258F3011F082E8089588E00E946C
S11335F06511883011F085E8089581E090E00E941B
S1133600190780E00895882311F088EE08958091C9
S113361064258F3011F481E8089580916E25882304
S113362091F41092552588E00E9465118830D9F7ED
S113363080E090E00E9419078FE00E9465118F30AE
S113364011F480E0089586E80895982F80916E25FE
S1133650882311F086E80895983039F488E00E94B0
S113366065111092552588E008958091D324909196
S1133670D424892B29F086E10E94651186E00895FF
S113368081E08093552586E00895CF93DF93DC0194
S11336909C9111962C91119780916F25882321F488
S11336A0CD010E945E0D1AC0E92FF22F9F012F5FFA
S11336B03F4F42EF55E288E0EA010990AE01E9018B
S11336C009929E018150C1F78091FD25818783E194
S11336D080838AE096E2BD010E94930DDF91CF9131
S11336E00895DC01ED91FC91119784E1808363835B
S11336F0418352838AE096E2BD010E94930D0895AE
S11337000F931F93DF93CF930F920F92CDB7DEB732
S1133710A0919325B0919425ED91FC91119784E1AA
S113372080838BEE83830FEF1FEF018312838AE084
S113373096E2BD010E94930D1092822509831A839B
S113374080E5BE016F5F7F4F0E94FF2D0093C92566
S11337501093CA251092D7251092D8251092D925F6
S11337601092DA251092DB251092DC251092DD25CB
S11337701092DE250E944E2C0F900F90CF91DF9176
S11337801F910F910895CF92DF92EF92FF920F93C2
S11337901F9380914F2590915D258823D1F440910A
S11337A0D3255091D425992341F4BA0180E090E0C7
S11337B022E330E040E050E007C0BA0180E090E04E
S11337C029E130E040E050E00E94F43C6B017C01D0
S11337D018C04091D3255091D425992341F4BA01BE
S11337E080E090E028E230E040E050E0EDCF6A0174
S11337F0EE24FF2484E0CC0CDD1CEE1CFF1C8A9517
S1133800D1F780E061E040E020E030E000E010E04B
S11338100E946E258823A9F4A0919325B091942544
S1133820ED91FC91119784E1808381EE83838FEF86
S11338309FEF818392838AE096E2BD010E94930DFB
S113384011C080E0B701A60120E030E000E81BE1F0
S1133850EE24FF240E944909882321F080E090E0AF
S11338600E94801B1F910F91FF90EF90DF90CF90EB
S11338700895FF920F931F93DF93CF930F920F92AC
S1133880CDB7DEB7F090FF250E945E0DFF20B1F5A5
S113389083E56DEF75E20E94FF2D2091FD253091A7
S11338A0FE258091F2258093D7258091F32580937E
S11338B0D8258091F4258093D9258091F52580938E
S11338C0DA258091F6258093DB258091F725809376
S11338D0DC258091F8258093DD258091F92580935E
S11338E0DE2581E0809306261092822580918D2525
S11338F0833031F582E080938D2522C01092822599
S11339000FEF1FEF09831A8380E5BE016F5F7F4FBE
S11339100E94FF2D0093C9251093CA251092D72524
S11339201092D8251092D9251092DA251092DB2511
S11339301092DC251092DD251092DE252FEF3FEF4B
S1133940E0919325F0919425A081B18184E18C9339
S11339501396FC92139711962D933C9312978AE039
S113396096E2BF010E94930D0E944E2C0F900F907F
S1133970CF91DF911F910F91FF9008950F931F93A3
S1133980DF93CF93CDB7DEB72C97CDBFDEBFAC01AD
S1133990DE011196FC01808191819C01F9018CE08A
S11339A001900D928150E1F7DA010D911C91809103
S11339B006268250823020F0CA010E945E0D56C055
S11339C082E0F8018083D801AC56BF4FFD0181939A
S11339D08A859B8511968D939C9312978C858283FF
S11339E09D0128503040D901E5E4F5E288E00190DA
S11339F00D928150E1F7F90138979F01BE016E5F86
S1133A007F4F88E0DB010D90BD01D9010D929D012E
S1133A108150C1F7809150259091512592938293C2
S1133A2080918E2582938F5F80938E2583E69CEC14
S1133A30929382938BE18293D8011796ED93FC9332
S1133A40189716961C9281E795E2BA010E94930D8D
S1133A508091902590919125F8018483958381E04C
S1133A600E946C07882311F40E9496292C96CDBFDE
S1133A70DEBFCF91DF911F910F910895CF92DF9216
S1133A80EF92FF921F93DF93CF93CDB7DEB72F97BB
S1133A90CDBFDEBFAC017C01DE011196FC0180814B
S1133AA091819C01F9018FE001900D928150E1F721
S1133AB040939325509394258C81823019F48F81FF
S1133AC098851AC08F818093D72588858093D825BF
S1133AD089858093D9258A858093DA258B8580937F
S1133AE0DB258C858093DC258D858093DD258E8573
S1133AF08093DE258EEF9FEF8093C9259093CA258E
S1133B0080E5BE016B5F7F4F0E94FF2D0E94292C30
S1133B10D701CD90DC9081E0F6018083E182F282CE
S1133B20EA56FF4F80838F8581839F012850304060
S1133B30D901E5E4F5E288E001900D928150E1F7C6
S1133B40F9018FEF9FEF929382938C81823051F42D
S1133B508091C9259091CA259293829345E123E2ED
S1133B6038EC11C0F9013A979F0147ED55E288E01E
S1133B70DA010D90AD01D9010D929D018150C1F77B
S1133B804BE123E23CEC8091502590915125929396
S1133B90829380918E2582938F5F80938E253293BA
S1133BA022934293D6011796ED93FC93189784E0E1
S1133BB0BE016D5F7F4F0E94FF2D182F80E0BE0174
S1133BC06E5F7F4F0E94FF2D112371F4882361F4EF
S1133BD0C60162E070E041E00E94F214882321F4FF
S1133BE081E08093072612C0D701ED91FC9184E116
S1133BF0808381EE83838FEF9FEF818392838AE0BA
S1133C0096E2B7010E94930D0E944E2C2F96CDBFD1
S1133C10DEBFCF91DF911F91FF90EF90DF90CF90A7
S1133C200895FC018091DD248730F0F4A781B085EC
S1133C3012968C9112978695869583708230A1F4A2
S1133C40E091DB24F091DC243297E093DB24F093C1
S1133C50DC2416968D919C91179780839183809193
S1133C60DD248F5F8093DD2480E00895FC01809142
S1133C70DD248730F0F40780F085E02D828186957D
S1133C80869583708330A9F48091DB249091DC24A1
S1133C9008978093DB249093DC24DC01369688E03B
S1133CA001900D928150E1F78091DD248F5F809324
S1133CB0DD2480E008959F92AF92BF92CF92DF926D
S1133CC0EF92FF920F931F93DF93CF9300D00F9245
S1133CD0CDB7DEB7FB01A080B180D50111966D93FD
S1133CE07C9312978AE08C9378E9C72ED12CCA0C66
S1133CF0DB1C80918F25882319F46DE0962E0EC06D
S1133D00482F50E0C41AD50A5DE0952E980E25E997
S1133D1035E2C601B90150E00E94C13D809175258C
S1133D20882309F442C0C092DB24D092DC24109290
S1133D30DD2486E39EE189839A8381E795E27E010F
S1133D400894E11CF11CB7010E942E0E0091DD24A1
S1133D501092DD2481E19EE189839A8381E795E2D3
S1133D60B7010E942E0E2091DD24E091DB24F09116
S1133D70DC24319710E0C80134E0880F991F3A958C
S1133D80E1F7822B8083000F111F000F111F020F18
S1133D90111D000F111F0093DD24900EE02FF0E0A1
S1133DA0E095F095EC0DFD1D02C0F6011292DF01C5
S1133DB01E9280910626833019F42FEF3FE402C04F
S1133DC02FEF3FE080916F2581113068FD01329320
S1133DD0229380915325909154252FEF8E3F920783
S1133DE099F4FD013A9786E0980E9F0145E455E267
S1133DF088E0DA010D90AD01D9010D929D01815049
S1133E00C1F720E030EC04C09293829320E030E8C4
S1133E1080915025909151259293829380918C2585
S1133E2082938F5F80938C25329322939292D50153
S1133E301796ED93FC931897C50162E070E040E09B
S1133E400E94F21481E0809307262496CDBFDEBF42
S1133E50CF91DF911F910F91FF90EF90DF90CF9062
S1133E60BF90AF909F900895BC0180E00E945B1EBC
S1133E700895FC010190F081E02D628173818181BC
S1133E80448125810E94F33C08950F931F938C0174
S1133E90DC01ED91FC9181810E94C403C8010E9460
S1133EA05E0D1F910F9108950F931F938C01DC01F8
S1133EB0ED91FC91818162810E940304C8010E94FA
S1133EC05E0D1F910F910895AF92BF92CF92DF9232
S1133ED0EF920F931F935C01DC01ED91FC9104813F
S1133EE0158126813781818162814381E0843996FD
S1133EF06F010E94D503C5010E945E0D1F910F91B1
S1133F00EF90DF90CF90BF90AF9008950F931F93E1
S1133F108C01DC01ED91FC9181810E94F23CC8018D
S1133F200E945E0D1F910F9108950F931F938C01B2
S1133F30DC01ED91FC9181810E94EA03C8010E9499
S1133F405E0D1F910F9108950F931F938C01DC0157
S1133F50ED91FC9181810E94F13CC8010E945E0DAB
S1133F601F910F9108950F931F938C01DC01ED9124
S1133F70FC912181328143815481658176818781DD
S1133F8090850E94F03CC8010E945E0D1F910F9124
S1133F9008950F931F938C01DC01ED91FC918181B5
S1133FA062813396AF010E94EF3CC8010E945E0D0E
S1133FB01F910F910895EF92FF920F937C01DC0102
S1133FC0ED91FC9121813281438154816581768117
S1133FD08781908501850E94EE3CC7010E945E0D99
S1133FE00F91FF90EF9008950F931F93DF93CF935A
S1133FF0CDB7DEB72B97CDBFDEBF8C01DC01ED91D1
S1134000FC9182818983838194818A839B839E012D
S11340102C5F3F4FAF014B5F5F4F88E0DA010D909B
S1134020AD01D9010D929D018150C1F78181BE017D
S11340306F5F7F4F0E94ED3CC8010E945E0D2B967E
S1134040CDBFDEBFCF91DF911F910F9108950F93E4
S11340501F93DF93CF93CDB7DEB76697CDBFDEBF97
S11340608C01DC01ED91FC91818192818A839B8397
S1134070838189839E012C5F3F4FAF014C5F5F4F6B
S113408088E0DA010D90AD01D9010D929D018150B6
S1134090C1F7818192818D879E8784858C879E015B
S11340A0215F3F4FAF01435F5F4F88E0DA010D901E
S11340B0AD01D9010D929D018150C1F7CE01019648
S11340C0BE01645F7F4F45890E947101C8010E944F
S11340D05E0D6696CDBFDEBFCF91DF911F910F912C
S11340E00895CF92DF92EF92FF920F936C01DC015F
S11340F0ED91FC91BF016E5F7F4F24893589E7887C
S1134100F08C8181438906890E94EC3CC6010E949F
S11341105E0D0F91FF90EF90DF90CF900895EF9296
S1134120FF920F937C01DC01ED91FC91218132819E
S113413043815481658176818781908501850E94C0
S11341403103C7010E945E0D0F91FF90EF90089517
S11341500F931F938C01DC01ED91FC91818192817D
S113416063810E94EB3CC8010E945E0D1F910F9178
S113417008950F931F938C01DC01ED91FC918181D3
S113418062810E94EA3CC8010E945E0D1F910F915A
S113419008950F931F938C01DC01ED91FC918181B3
S11341A062810E94E93CC8010E945E0D1F910F913B
S11341B00895CF92DF92EF920F93DF93CF93CDB711
S11341C0DEB76697CDBFDEBF6C01DC01ED91FC91DB
S11341D081818983828193818A839B839E012C5F61
S11341E03F4FAF014C5F5F4F88E0DA010D90AD01A6
S11341F0D9010D929D018150C1F784858C878585F5
S113420096858D879E879E01215F3F4FAF01415F59
S11342105F4F88E0DA010D90AD01D9010D929D0147
S11342208150C1F7228D338DCE010196BE01645FAA
S11342307F4F418D0789E08C0E94A401C6010E9432
S11342405E0D6696CDBFDEBFCF91DF910F91EF90EB
S1134250DF90CF900895FC01108261817281611515
S1134260710521F08EEC95E20E94930D0895282F9C
S11342708091FD259091FE2596FF1BC0222359F4C1
S11342802091F0253091F125809150259091512570
S11342902817390759F02091F0253091F1258091A4
S11342A0CC259091CD252817390719F48EEE0E945C
S11342B01C3908950F931F93CF93DF93282F809178
S11342C0FD259091FE2596FFA3C0222359F4209149
S11342D0F0253091F1258091502590915125281792
S11342E0390761F02091F0253091F1258091CC259A
S11342F09091CD252817390709F08AC02091F2251D
S11343003091F3258091C9259091CA252817390742
S113431009F47EC09091F2258091D725981759F51C
S11343209091F3258091D825981729F59091F4253B
S11343308091D9259817F9F49091F5258091DA2583
S11343409817C9F49091F6258091DB25981799F474
S11343509091F7258091DC25981769F49091F825C0
S11343608091DD25981739F49091F9258091DE2507
S1134370981709F44DC08AE90E94660D8C010097D4
S113438009F446C0DC012D913C9185E0F90180835C
S113439001831283E956FF4F8083AF014850504098
S11343A0FA01A5E4B5E288E00D9001928150E1F7AD
S11343B0FA013897EF01A7EDB5E288E00D90099274
S11343C08150E1F7809150259091512592938293E9
S11343D080918E2582938F5F80938E2583E69CEC5B
S11343E09293829388E18293D9011796ED93FC937B
S11343F01897C90162E070E041E00E94F21488233A
S113440021F481E08093072603C0C8010E945E0D59
S1134410DF91CF911F910F9108950F931F93CF9325
S1134420DF93EC01E881F981A781B0857C917093D9
S1134430E225FD01E70FF11D81818093FB25119693
S11344404D915C9112974093DF255093E02513968C
S11344508C9113978093E3258D010C5F1F4F652F7B
S11344606295669566956370352F369536953370EB
S113447019F4F80120E049C014968D919C91159788
S11344808093E5259093E625FD0136963230E1F4DC
S11344901092E7251092E8251092E9251092EA255A
S11344A01092EB251092EC251092ED251092EE253A
S11344B016968D919C9117978093E7259093E82504
S11344C0FD01389624E021C0333011F022E01DC0F4
S11344D016968C9116978093E72581818093E82521
S11344E082818093E92583818093EA258481809366
S11344F0EB2585818093EC2586818093ED2587814A
S11345008093EE25FD013E962AE0662309F447C018
S113451046FD08C0819191918093F0259093F125F7
S11345202E5F08C08091E5259091E6258093F025C3
S11345309093F1256230C1F41092F2251092F32584
S11345401092F4251092F5251092F6251092F72575
S11345501092F8251092F925808191818093F2259B
S11345609093F3252E5F1BC06330C9F48081809340
S1134570F22581818093F32582818093F4258381C0
S11345808093F52584818093F62585818093F72592
S113459086818093F82587818093F925285F972F5A
S11345A09550921B9093FC256093EF253093E4255E
S11345B043FDCEC1D801A20FB11D842F8770809313
S11345C0E125833021F48C918093FA2563C08130F6
S11345D009F451C0813020F0833009F0B9C15AC0C8
S11345E08D919C9111978093FD259093FE251296B1
S11345F08C9112978093FF25877011F493E002C089
S1134600982F9C5FFD01E90FF11D808180930026A6
S1134610292F2F5F382F377090E08077907044E017
S1134620959587954A95E1F7482F332311F488230C
S113463089F0CD01820F911D80930126909302266B
S1134640332311F0330F230F442321F0440F440F7D
S1134650440F240F8091FC25281750F4821B80936B
S11346600326A20FB11DA0930426B093052674C19E
S11346701092032671C1992351F0963718F086E7FA
S11346808093FC25A093FD25B093FE2565C110926F
S1134690FC2562C18091FA258330E1F0843030F446
S11346A08130C1F0823009F053C107C0883008F46A
S11346B053C1883009F04CC112C011968D919C9160
S11346C012978093FD259093FE2513968C918093E9
S11346D0FF2542C111968C918093FD253DC1119611
S11346E08D919C9112978093FD259093FE251396AE
S11346F08D919C9114978093FF2590930026159695
S11347008C9115978093012616968D919C911797FD
S1134710809302269093032654FF1EC118968C9111
S11347208093042619C18091E125833061F480913E
S1134730FA25843011F0873031F48EEC95E2BE0115
S11347400E94930D0FC180918225813009F4EBC042
S1134750813020F0843008F0FBC0A3C080918B2509
S1134760882309F06AC090910626933080F1933033
S113477009F0EEC08091E125813009F4E5C0813073
S113478010F1833009F0E4C08091FA25843009F4F3
S1134790AFC0853038F4813009F4A0C0833009F00B
S11347A0D7C009C0863009F4AEC0863040F08730E7
S11347B009F0CEC0B0C0CE010E947127D3C08EEEE6
S11347C00E941C39C5C080E00E943721C1C080917D
S11347D0E125813009F4B8C0813020F0833009F03C
S11347E0B7C00CC080910926882309F4B1C099236D
S11347F009F4AEC080E00E945A21AAC08091FA2533
S1134800843009F475C0853038F4813009F466C009
S1134810833009F09DC004C0873009F05AC009C034
S1134820CE010E94712780910626813009F09AC03A
S11348305CC0923009F08CC06EC0833009F18430C2
S113484019F0823009F084C08091E125882309F0B1
S11348507FC080910626833019F481E00E943721BD
S113486080910926882341F0809106268150823068
S113487018F481E00E945A21CE010E94253172C0B1
S11348808091E125833009F063C08091FA25883056
S113489009F05EC082E00E943A08CE010E9475359C
S11348A061C00E9496308091E125813009F44CC0AA
S11348B0833009F04DC08091FA258430C9F08530E9
S11348C030F4813059F0833009F042C00BC0873096
S11348D0F1F0883021F18630D9F515C0CE010E945F
S11348E0451B40C0CE010E9471270E946B2D3AC027
S11348F080917525882321F0CE010E94312632C093
S11349000E94132525C0CE010E94CA2D2BC0809180
S113491006268230E9F4CE010E94341F23C0CE0162
S11349200E9461391FC08091E125833059F4809140
S1134930FA25823069F480E00E943A08CE010E9490
S1134940391C10C0813021F4CE010E94CB290AC049
S1134950CE010E945E0D06C080910726882309F0CF
S1134960E2CEF1CEDF91CF911F910F910895DB013B
S1134970FC018681882399F40780F085E02D8281EB
S1134980869586958370823051F440E02D913C9158
S1134990868197812817390719F441E001C040E066
S11349A0842F0895DB01FC0186818823C9F50780E3
S11349B0F085E02D8281869586958370833081F51C
S11349C020E09C918681981761F511969C9111972E
S11349D08781981731F512969C91129780859817C4
S11349E001F513969C91139781859817D1F4149629
S11349F09C91149782859817A1F415969C9115970C
S1134A008385981771F416969C9116978485981748
S1134A1041F417969C918585981719F421E001C0FB
S1134A2020E0822F08950F931F93CF93DF938AE999
S1134A300E94660D8C01009709F44BC0DC01CD91F6
S1134A40DC918CE0888309831A831E82FE01E85678
S1134A50FF4F8091EF25833089F438979F0142EF0F
S1134A6055E288E0DA010D90AD01D9010D929D0166
S1134A708150C1F721E03CE04FE009C08091F2256C
S1134A809091F3259293829321E038E049E080915C
S1134A90F0259091F1259293829380918E258293B3
S1134AA08F5F80938E25329322934293EF83F8870E
S1134AB0F8018081918161E070E040E00E94F2148D
S1134AC0882321F481E08093072603C0C8010E9453
S1134AD05E0DDF91CF911F910F9108956F927F9298
S1134AE09F92AF92BF92CF92DF92EF92FF920F9379
S1134AF01F93CF93DF93D82E962EC42E59013801DD
S1134B008AE90E94660D7C01009709F49BC0DC01D0
S1134B100D911C91DD2021F084E0F801808303C015
S1134B208BE0D8018C93F801E182F282E956FF4FC1
S1134B3084E080832091532530915425C901029645
S1134B40029710F0992069F03897EF01A5E4B5E2D7
S1134B5088E00D9009928150E1F762E183E290ECE4
S1134B6005C0329322936CE083E290E8CC2061F09C
S1134B7020915025309151256216730629F06E5FFD
S1134B803293229370E002C0806471E022E0C21686
S1134B9041F4AC015860D5018D919C91929382931C
S1134BA028C0B3E0CB1661F4AC015C6038976A5F4F
S1134BB0EF01D50188E00D9009928150E1F719C009
S1134BC02091C9253091CA254FEF2E3F340729F093
S1134BD0AC015860329322930CC0AC015C603897EE
S1134BE06A5FEF01A7EDB5E288E00D90099281506C
S1134BF0E1F73297772339F0809150259091512530
S1134C008083918302C06082718280918E25829319
S1134C108F5F80938E25529342936293D8011796A7
S1134C20ED93FC931897C80162E070E041E00E94A4
S1134C30F214882321F481E08093072604C0C7017D
S1134C400E945E0D80E0DF91CF911F910F91FF9044
S1134C50EF90DF90CF90BF90AF909F907F906F9038
S1134C600895EF92FF920F931F93DF93CF9300D099
S1134C700F92CDB7DEB70E945E0D8091062682307A
S1134C8008F453C08091EF25823019F487EB94E245
S1134C9005C0833009F049C082ED94E289839A8388
S1134CA082EF95E28B839C8381E795E27E010894F1
S1134CB0E11CF11CB7010E942E0EDC01009781F06B
S1134CC00D911C911197F801878190852091F02511
S1134CD03091F125FC01848195812817390719F059
S1134CE00E94132522C081E0F8018683A183B28348
S1134CF081E795E2B7010E942E0E892B41F0D8017D
S1134D001796ED91FC911897818180618183C80188
S1134D1061E070E040E00E94F214882321F481E015
S1134D208093072602C0F80116822496CDBFDEBF09
S1134D30CF91DF911F910F91FF90EF900895EF9223
S1134D40FF920F931F93CF93DF937C01E801DC0163
S1134D50ED91FC9186E180836183428323833483D4
S1134D60CF010596423069F41582168217821086A7
S1134D701186128613861486888199818583968389
S1134D8007C0DC01F80188E001900D928150E1F741
S1134D908AE096E2B7010E94930DDF91CF911F91B3
S1134DA00F91FF90EF9008950F931F93DF93CF938C
S1134DB0CDB7DEB72897CDBFDEBFDC01ED91FC9106
S1134DC0119719821A821B821C821D821E821F82E5
S1134DD018860780F085E02D4281469546954370FC
S1134DE0842F8250823080F48681898387818A83EC
S1134DF080858B8381858C8382858D8383858E8357
S1134E0084858F838585888780910626833049F43D
S1134E1020915025309151258E010F5F1F4FCD01F8
S1134E2056C0823009F03FC0423051F426813781A8
S1134E308091C9259091CA252817390759F533C09F
S1134E40433041F596818091D725981719F59781BC
S1134E508091D8259817F1F490858091D9259817D9
S1134E60C9F491858091DA259817A1F492858091EF
S1134E70DB25981779F493858091DC25981751F4F4
S1134E8094858091DD25981729F495858091DE25F8
S1134E90981749F02091502530915125CD018E016C
S1134EA00F5F1F4F14C08091532590915425029693
S1134EB02091502530915125029728F4CD0143E0EB
S1134EC005E415E204C0CD0142E003E515E20E94C9
S1134ED09F262896CDBFDEBFCF91DF911F910F9102
S1134EE00895CF93DF939C01FC01C081D181FE0121
S1134EF085E18193A2EFB5E288E00D9001928150A3
S1134F00E1F78091FD2589878AE096E2B9010E9444
S1134F10930D1092D7251092D8251092D92510926E
S1134F20DA251092DB251092DC251092DD251092F3
S1134F30DE258FEF9FEF8093C9259093CA25DF91DB
S1134F40CF910895EF92FF920F931F93DF93CF9326
S1134F50CDB7DEB72E97CDBFDEBF8C01DC01ED905F
S1134F60FC90DE011196F7018EE001900D928150C4
S1134F70E1F7F7010183128383E08083EA56FF4F50
S1134F8080838D85818338979F0145E455E288E0CD
S1134F90DA010D90AD01D9010D929D018150C1F747
S1134FA08A81823031F48D819E819293829333E1A0
S1134FB00FC038979F01AE014B5F5F4F88E0DA0165
S1134FC00D90AD01D9010D929D018150C1F739E1D8
S1134FD080915025909151259293829380918E25B2
S1134FE082938F5F80938E252A81922F990F990F38
S1134FF080E08366906C929382933293D7011796E4
S1135000ED93FC93189716961C9280910626825075
S1135010823008F060C08E85882309F45CC08A81E0
S11350208230D1F48D818B3409F041C08E81882384
S1135030F1F58F818823D9F588858823C1F5898581
S11350408823A9F58A85882391F58B85882379F5AA
S11350508C85882361F55BC0833009F058C09D813D
S11350608091D725981719F59E818091D825981796
S1135070F1F49F818091D9259817C9F4988580917E
S1135080DA259817A1F499858091DB25981779F48E
S11350909A858091DC25981751F49B858091DD25B4
S11350A0981729F49C858091DE25981781F181E772
S11350B095E2B8010E94930D8091902590919125DD
S11350C0F7018483958381E00E946C078823F9F4B7
S11350D00E9496291CC00E94292CD8018D919C9174
S11350E062E070E041E00E94F214882321F481E040
S11350F0809307260CC02B813C81C80161EE4A8154
S11351008E010B5F1F4F0E949F260E944E2C2E96ED
S1135110CDBFDEBFCF91DF911F910F91FF90EF9034
S11351200895DC01ED91FC911197E081E43278F46B
S1135130F0E0EE0FFF1FE65DFD4F25913491211540
S1135140310519F0F901199508950E945E0D08952D
S11351501F9380910726882381F480918A258823D0
S113516061F086E895E260E070E00E94280E009706
S113517021F00E94912811E001C010E08091D22515
S1135180882359F08EEC95E260E070E00E94280ECE
S1135190009719F00E94912811E0812F1F91089522
S11351A0FC018681882329F4848195810197848375
S11351B0958380E00895FC018681882311F020E026
S11351C006C020E084819581892B09F421E0822F97
S11351D00895FB0120E0DC0113969C9180819817CF
S11351E009F421E0822F0895DC01ED91FC911197DF
S11351F080E18083418362838AE096E2BD010E945C
S1135200930D0895EF92FF920F931F93DF93CF9323
S1135210CDB7DEB72597CDBFDEBF7C01FC01008191
S11352201181F801918182E18083998389EE98E26A
S11352308A839B83CE0101968C839D8381E795E2CB
S1135240BE016E5F7F4F0E94280E009729F00E94D6
S11352505E0DF801128203C087EEF80182838AE0B2
S113526096E2B7010E94930D2596CDBFDEBFCF9184
S1135270DF911F910F91FF90EF900895FF920F938C
S11352801F93DF93CF9300D00F92CDB7DEB780ED9D
S113529098E289839A8381E795E28E010F5F1F4F1D
S11352A0B8010E942E0E8BED98E289839A83F02E2A
S11352B0012F10E181E795E26F2D702F0E94280ED7
S11352C0DC01009721F19C9111962C911197E92F03
S11352D0F22F8081833049F08D3061F0823051F7B4
S11352E080EFBD010E94592CE5CFCD0160EF0E94F3
S11352F0D426E0CF8381E92FF22F1083818380EFBE
S113530082838AE096E2BD010E94930DD3CF8091FF
S11353107525882311F00E9496292496CDBFDEBFFF
S1135320CF91DF911F910F91FF900895EF92FF921B
S11353300F931F9380914F2590915D25882361F4ED
S1135340992329F040E05EEE62E070E010C040E096
S11353505CED65E070E00BC0992329F040E050EE6D
S113536061E070E004C040E050EB64E070E081E094
S113537020E030E00EE319E2EE24FF240E94490904
S1135380882321F080E090E00E943E291F910F9134
S1135390FF90EF9008950F931F93DF93CF93CDB7B2
S11353A0DEB72897CDBFDEBFAC01DC019C9111961E
S11353B02C918091FC25882321F4CA010E945E0D62
S11353C013C1E92FF22F8091E325808F2091EF25DF
S11353D021838091F0259091F12582839383822FFC
S11353E08250823010F5148215821682178210863C
S11353F0118612861386223039F48091F225909119
S1135400F325848395831BC02330C9F49F012C5F4B
S11354103F4F62EF75E288E0DB010D90BD01D901D9
S11354200D929D018150C1F70AC012821382148229
S11354301582168217821086118612861386208D95
S113544080917025281761F59481809178259817AB
S113545039F5958180917925981711F59681809178
S11354607A259817E9F4978180917B259817C1F4E0
S1135470908580917C25981799F4918580917D255C
S1135480981771F4928580917E25981749F4938535
S113549080917F25981721F4CA010E945E0D5AC09D
S11354A02093702584818093782585818093792544
S11354B0868180937A25878180937B25808580935C
S11354C07C25818580937D25828580937E258385B7
S11354D080937F252091E42524871786108A118ADA
S11354E0128A138A148A158A168A8091E525909166
S11354F0E62585879687233079F49F01215F3F4F06
S113550067EE75E288E0DB010D90BD01D9010D92D3
S11355109D018150C1F70BC0223039F48091E725F9
S11355209091E8258787908B02C015861686809116
S1135530FB25878B8091FC25818F8091FD2590919F
S1135540FE25828F938F81E180838AE096E2BA01FF
S11355500E94930D8091DF2584FF46C0809106262A
S1135560833009F443C08091EF25823071F4809137
S1135570F2259091F32589839A830091F025109167
S1135580F12580E060E042E021C0833019F580918C
S1135590F22589838091F3258A838091F4258B8376
S11355A08091F5258C838091F6258D838091F72554
S11355B08E838091F8258F838091F92588870091C7
S11355C0F0251091F12580E060E043E09E012F5F1B
S11355D03F4F07C080E060E040E020E030E000E0C2
S11355E010E00E946E2502C00E944E2C2896CDBF6A
S11355F0DEBFCF91DF911F910F910895CF92DF927B
S1135600EF92FF920F931F93DF93CF93CDB7DEB743
S11356106297CDBFDEBF8C01DE011196FC01808153
S113562091819C01F90182E101900D928150E1F791
S11356308F8582FD11C080918225882321F4809179
S11356408B25882349F09E85D801ED91FC9180E15A
S11356508083918381EEAEC0F801E080F1808DE01B
S1135660D7018C938E8513968C93139716961C9260
S1135670888945E0D42ED80EE8E9F0E0E81BF1096A
S1135680EE0DFF1D9A81923051F437E0D32ED80EDF
S113569080915325909154259293829312C0933014
S11356A081F438972DE0D22ED80E9F0145E455E2BF
S11356B088E0DA010D90AD01D9010D929D01815070
S11356C0C1F720915025309151258C819D81281757
S11356D0390749F48A81882331F08B81882319F0B2
S11356E040E450E009C08A81882321F0B2E0DB0E57
S11356F03293229340E050E08B81882311F1823071
S113570039F46D2D6E5F8E819F819293829312C0C6
S113571038976D2D685F9F0196E0C92ED12CCC0E71
S1135720DD1E88E0D6010D906D01D9010D929D0119
S11357308150C1F782E0D82ED60E8C819D81929340
S1135740829380918E2582938F5F80938E25BA01F8
S113575061608F8580FF02C0BA01616288898736E3
S113576008F070618B81382F330F330F20E04A81AA
S1135770942F9295990F990F907C80E0282B392BC8
S1135780262B372B329322933296D7FC0BC03397B8
S1135790D082D7011796ED93FC9318978F8582FDDD
S11357A010C028C09E85D801ED91FC9180E18083D2
S11357B0918385EE82838AE096E2B8010E94930D7C
S11357C03CC08091062682508230A0F481E795E2A5
S11357D0B8010E94930D8091902590919125F70135
S11357E08483958381E00E946C07882331F50E94AD
S11357F0962923C00E94292CD70111960D931C933E
S11358001297C70162E070E041E00E94F21488231D
S113581021F481E08093072610C09E85D801ED9184
S1135820FC9180E18083918381EE82838AE096E219
S1135830B8010E94930D0E944E2C6296CDBFDEBF2C
S1135840CF91DF911F910F91FF90EF90DF90CF9058
S1135850089580910826813051F40E94F01A853809
S113586031F081E090E00E94190710920826089513
S113587080910826882389F480E090E00E9419072B
S113588080E00E94031B882321F481E08093082692
S1135890089581E090E00E9419070895809176258B
S11358A0882331F48091CB25882311F40E94382C6D
S11358B00895DF93CF93CDB7DEB72897CDBFDEBF72
S11358C0482F9B01DB01ED91FC910780F085E02DD1
S11358D0DE011196369688E001900D928150E1F731
S11358E0D901ED91FC918CE18083809150259091B8
S11358F051258183928393E093838091452584830A
S1135900809146258583809147258683809148250B
S1135910878380914925808780914A25818780915A
S11359204B25828780914C2583879487898185873D
S11359308A8186878B8187878C81808B8D81818BFF
S11359408E81828B8F81838B8885848B458B8AE0C3
S113595096E2B9010E94930D2896CDBFDEBFCF9188
S1135960DF9108950F931F93182F1092072610921A
S113597006261092082610928B2510928D251092DF
S11359808225109270258FEF809378258093792556
S113599080937A2580937B2580937C2580937D2535
S11359A080937E2580937F251092CB2588E00E94EA
S11359B0251B0FB7F89480E00E943A0881E00E940A
S11359C03A0882E00E943A0883E00E943A080FBF36
S11359D0112309F440C01092092680EE9AE08093C6
S11359E084259093852580E098E78093D325909330
S11359F0D4251092812510926F2510928F250E9434
S1135A00A43D80938C2584EF91E08093902590931E
S1135A10912581E08093832586E0809377251092F9
S1135A20D7251092D8251092D9251092DA251092F4
S1135A30DB251092DC251092DD251092DE258FEFF8
S1135A409FEF8093C9259093CA250E94A43D80931B
S1135A508E25109276251F910F9108950F931F9311
S1135A60CF93DF93EC01088119810E94292CF8015E
S1135A70018180E090E00E94190780E0011181E03B
S1135A800E94A519182F81E090E00E941907802F29
S1135A900E94B22C0E944E2C86E895E20E94340E9D
S1135AA08EEC95E20E94340E8AE096E20E94340E57
S1135AB081E795E20E94340EE881F981118380E246
S1135AC080838AE096E2BE010E94930DDF91CF911C
S1135AD01F910F910895DF93CF9300D00F92CDB70C
S1135AE0DEB70E94292C8FEF9FEF89839A838B83E3
S1135AF09C8383E5BE016F5F7F4F0E94FF2D80E58D
S1135B00BE016D5F7F4F0E94FF2D81E00E94B22C89
S1135B100E944E2C2496CDBFDEBFCF91DF91089515
S1135B200E94DB198823B9F40E94EC0A882399F0B7
S1135B3081E00E94B22C0E944E2C86E895E20E94DD
S1135B408C0D8EEC95E20E948C0D81E795E20E940B
S1135B508C0D80E0089585E80895FF920F931F93BC
S1135B60182FF92E409150255091512589E0612F2D
S1135B70792F20915D2500914F250E949639882325
S1135B8029F481EE612F7F2D0E94592C1F910F91D2
S1135B90FF900895CF93DF93EC01E881F9818AE1C6
S1135BA08193A2EFB5E288E00D9001928150E1F774
S1135BB08AE096E2BE010E94930DDF91CF91089591
S1135BC0E82F853419F480918F250895883030F4B6
S1135BD0E82FF0E0EE58FD4F849108958054803210
S1135BE028F4F0E0E65CFD4F84910895E03F10F462
S1135BF080E00895F0E0E655FE4F849108951F93E8
S1135C00CF93DF93182FEB0180910826813051F454
S1135C100E94292C812FBE010E94C117182F0E94B7
S1135C204E2C04C0812F0E94C117182F812FDF91A1
S1135C30CF911F9108950F931F93CF93DF938C01FE
S1135C40FC01C081D181BE016D5F7F4F89818B349E
S1135C5009F4A4C08C3478F5863009F475C0873013
S1135C6098F4823009F4D0C0833038F4882309F4DE
S1135C70BBC0813009F048C0BAC0843009F45CC0AC
S1135C80853008F05CC0C3C0853409F469C086342B
S1135C9048F4813409F461C0823409F45BC087306C
S1135CA099F555C0893409F468C08A3408F06DC088
S1135CB0863451F55FC0853509F462C08635A0F499
S1135CC08F3409F476C0803530F48C3409F46BC019
S1135CD08E34D1F46BC0823509F473C0833509F472
S1135CE073C0803589F468C08935D9F08A3528F4C1
