:100000000C94EF000C940E010C940E010C940E0154
:100010000C940E010C940E010C940E010C940E0124
:100020000C940E010C940E010C940E010C940E0114
:100030000C940E010C940E010C940E010C940E0104
:100040000C94610B0C94970F0C940E010C940E0100
:100050000C94660F0C940E010C940E010C940E017E
:100060000C940E010C940E010C940E010C940E01D4
:100070000C940E010C940E010C940E010C940E01C4
:100080000C940E010C940E010C940E010C940E01B4
:100090000C94DA0A0C940E010C94060B0C940E01CD
:1000A0000C940E010C940E010C940E010C940E0194
:1000B0000C940E010C940E010C940E010C940E0184
:1000C0000C940E010C940E010C940E016E616E00E6
:1000D000696E660003020201010000FFFEFDFCFBE9
:1000E000F9F7F4EF00407A10F35A00A0724E1809A5
:1000F0000010A5D4E80000E87648170000E40B548F
:10010000020000CA9A3B000000E1F505000080965D
:100110009800000040420F000000A086010000008F
:10012000102700000000E803000000006400000049
:1001300000000A00000000000100000000002C7612
:10014000D888DC674F0823DFC1DFAE59E1B1B7962D
:10015000E5E3E453C63AE651997696E8E6C284268A
:10016000EB898C9B62ED407C6FFCEFBC9C9F40F266
:10017000BAA56FA5F490055A2AF75C936B6CF967E2
:100180006DC11BFCE0E40D47FEF520E6B500D0EDA7
:10019000902E0300943577050080841E080000200F
:1001A0004E0A000000C80C333333330F986E1283AD
:1001B0001141EF8D2114893BE65516CFFEE6DB1881
:1001C000D1844B381BF77C1D901DA4BBE424203246
:1001D00084725E228100C9F124ECA1E53D2711243F
:1001E0001FBECFEFD1E2DEBFCDBF1AE0A0E0B2E08C
:1001F000ECE0FBE500E00BBF02C007900D92A030E1
:10020000B107D9F713E1A0E0BAE001C01D92AC3408
:10021000B107E1F70E948F040C94842D0C94000028
:10022000CF92DF92EF92FF920F931F938091DB08A2
:100230009091DC08029709F001C1E090BB0AF090B0
:10024000BC0A0091BD0A1091BE0A8091B70A909134
:10025000B80AA091B90AB091BA0AE81AF90A0A0BC9
:100260001B0B80E092E00E94672BC801B7010E943F
:10027000692220E034E244E759E40E94DB206B016C
:100280007C0100D000D000D088E192E0ADB7BEB7CD
:1002900012969C938E931197EDB7FEB7C382D482CA
:1002A000E582F6820E944E2B00D000D0EDB7FEB75B
:1002B000319682E392E0ADB7BEB712969C938E93CF
:1002C00011978091DD089091DE08A091DF08B09130
:1002D000E00882839383A483B5838091AF0A9091D1
:1002E000B00AA091B10AB091B20A86839783A08721
:1002F000B1870E944E2BEDB7FEB73A960FB6F89431
:10030000FEBF0FBEEDBF8091E108882319F100D038
:1003100000D000D083E692E0ADB7BEB712969C93B2
:100320008E9311978091A70A9091A80AA091A90A8B
:10033000B091AA0AEDB7FEB783839483A583B683F1
:100340000E944E2B8DB79EB706960FB6F8949EBFAF
:100350000FBE8DBF8091E208882319F100D000D034
:1003600000D08AE792E0ADB7BEB712969C938E9309
:1003700011978091AB0A9091AC0AA091AD0AB0910F
:10038000AE0AEDB7FEB783839483A583B6830E943C
:100390004E2B8DB79EB706960FB6F8949EBF0FBE34
:1003A0008DBF00D000D000D00DB71EB70F5F1F4F1C
:1003B0008AE992E0ADB7BEB712969C938E931197DF
:1003C0006091DD087091DE088091DF089091E0086F
:1003D00023E0660F771F881F991F2A95D1F7209178
:1003E000E30830E040E050E00E9487280E94692244
:1003F000A70196010E94DB2020E030E04AE754E4A8
:100400000E94DB20F80162837383848395830E94BA
:100410004E2B0F900F900F900F9088EB92E0ADB79E
:10042000BEB712969C938E9311970E944E2B0F90FD
:100430000F9080E090E00E94ED0948C082ED92E0CC
:100440000E94672BE0909F0AF090A00A0091A10AF9
:100450001091A20AE114F10401051105A1F06091C7
:10046000BF0A7091C00A8091C10A9091C20AA80186
:1004700097010E94BA282093BF0A3093C00A409384
:10048000C10A5093C20AEDB7FEB738970FB6F89479
:10049000FEBF0FBEEDBF31968BEE92E0ADB7BEB79B
:1004A00012969C938E931197E282F38204831583B4
:1004B0008091BF0A868317820E944E2BEDB7FEB74C
:1004C00038960FB6F894FEBF0FBEEDBF1F910F9187
:1004D000FF90EF90DF90CF900895FF920F931F93BE
:1004E000DF93CF930F92CDB7DEB7F82E80E0BE0139
:1004F0006F5F7F4F0E94F31700D000D000D00DB780
:100500001EB70F5F1F4F8FE193E0EDB7FEB79283E9
:1005100081838981F801828313826F2D70E088279F
:1005200077FD8095982F0E94B72121EE30EE40E6AE
:100530005EE30E94E11F9B01AC0160E070E086EB8E
:1005400092E40E94831F0E940B1EF80164831582AF
:100550000E944E2BF694F69400E08DB79EB7069657
:100560000FB6F8949EBF0FBE8DBF05C088E590E022
:100570000E94602B0F5F0F15C8F388E293E00E9482
:10058000672B8FEF89834091C40A5091C50A60910F
:10059000C60A7091C70A20E030E0DB01CA01022ED2
:1005A00004C0B695A795979587950A94D2F7817060
:1005B0009070892BF1F0298381E090E0A0E0B0E019
:1005C000022E04C0880F991FAA1FBB1F0A94D2F7DE
:1005D00080959095A095B09584239523A623B72365
:1005E0008093C40A9093C50AA093C60AB093C70A21
:1005F00005C02F5F3F4F2B31310579F689818F3F41
:10060000B9F480E063EC7AE00E9408191092000AC5
:1006100000D08AE293E0EDB7FEB7928381830E9417
:100620004E2B0F900F9080E090E00E94ED090AC0E1
:1006300080E0BE016F5F7F4F0E9408198091C80A59
:100640000E945B170F90CF91DF911F910F91FF9048
:1006500008958823A1F48091A30A9091A40AA091FF
:10066000A50AB091A60A0196A11DB11D8093A30A07
:100670009093A40AA093A50AB093A60A3FC0893E0E
:10068000A1F48091A70A9091A80AA091A90AB0911B
:10069000AA0A0196A11DB11D8093A70A9093A80AEA
:1006A000A093A90AB093AA0A29C0813EA1F480911F
:1006B000AB0A9091AC0AA091AD0AB091AE0A019636
:1006C000A11DB11D8093AB0A9093AC0AA093AD0A13
:1006D000B093AE0A13C08091AF0A9091B00AA09176
:1006E000B10AB091B20A0196A11DB11D8093AF0A63
:1006F0009093B00AA093B10AB093B20A8091B30A62
:100700009091B40AA091B50AB091B60A0197A109D7
:10071000B1098093B30A9093B40AA093B50AB09339
:10072000B60A0097A105B10549F48BEB9AE00E9447
:10073000170C88E00E94D31C0E9410011092010A3D
:100740000895AF92BF92CF92DF92FF920F931F93C3
:10075000DF93CF9300D000D00F92CDB7DEB78C01DE
:1007600080919F0A9091A00AA091A10AB091A20A3B
:100770000196A11DB11D80939F0A9093A00AA0939A
:10078000A10AB093A20AD8011796ED91FC9118978F
:100790003081E30FF11D21818091BF0A9091C00A41
:1007A000A091C10AB091C20A820F911DA11DB11D75
:1007B0008093BF0A9093C00AA093C10AB093C20A63
:1007C0008091DB089091DC08039709F051C000D0BC
:1007D00000D0EDB7FEB7319682E593E0ADB7BEB776
:1007E00012969C938E931197328313820E944E2B04
:1007F000FF240F900F900F900F906E010894C11C72
:10080000D11C3EE5A32E33E0B32E24C000D000D08F
:1008100000D04DB75EB74F5F5F4FEDB7FEB7D282E6
:10082000C182FA01B382A282A20FB31F8C9184838A
:1008300015820E949C2B0F900F900F900F90ADB7D8
:10084000BEB71296DC92CE9211970E944E2BF39473
:100850000F900F90F801A781B0858C9190E02F2D1B
:1008600030E08217930794F688E293E00E94672BAA
:10087000D80111968D919C9112970E94AF110F9003
:100880000F900F900F900F90CF91DF911F910F91CC
:10089000FF90DF90CF90BF90AF900895CF93DF93FC
:1008A0004091E3084B5088E990E0841B9109209126
:1008B0009D0A30919E0A280F391FF90180E002C07D
:1008C00081938F5F8417E0F3F90181E090E09293C8
:1008D00082939293829332978DEC9BEA91838083EB
:1008E000E90127970E946E2988838091E108882377
:1008F00019F081E698E802C081E498E89A938A9317
:10090000FE018091E3088293A0919D0AB0919E0A16
:100910001896FC93EE931797DF91CF9108952F923D
:100920003F924F925F926F927F928F929F92AF927F
:10093000BF92DF92EF92FF920F931F93DF93CF93BB
:10094000CDB7DEB767970FB6F894DEBF0FBECDBF49
:100950000E94011B882311F00E948C0B0E94E70F5C
:100960000E946D1080E090E060E070E00E947110E5
:10097000789481E00E94450B882311F00E948C0B33
:1009800086E09AE06DEE79E00E94D62A83E09AE054
:1009900090939E0A80939D0A81E090E09C838B83D4
:1009A0008E010D5F1F4F83E5B8010E9408198DEC81
:1009B0009BEA9C838B8380E5B8010E94081984E13F
:1009C000898380E0BE016F5F7F4F0E9408190E94FB
:1009D0004E0480E090E00E94ED09B0E68B2EB4E07A
:1009E0009B2EA1E86A2EA4E07A2EF7EB4F2EF4E0BE
:1009F0005F2EE1EE2E2EE4E03E2E7CE0A72EB12C01
:100A0000AC0EBD1E9E012A5E3F4F3F8B2E8B0E9477
:100A1000FA0B0E942A158091B30A9091B40AA09112
:100A2000B50AB091B60A0097A105B10529F18091E8
:100A3000010A882361F781E08093010AE0919D0A11
:100A4000F0919E0A0780F085E02D83818F5F83837C
:100A50008091E20820919D0A30919E0A882321F01E
:100A6000C90162E070E003C0C90160E070E040913C
:100A7000E4080E94BB16CBCF8091020A882371F054
:100A800080E090E00E94D4098F5F9F4F09F4BFCFB0
:100A90001092020A88E00E94D31C1AC08091DB08E1
:100AA0009091DC0883309105B1F480E090E00E94E1
:100AB000D4098F5F9F4F09F4AACF198281E5BE0147
:100AC0006F5F7F4F0E9408191092DC081092DB08BC
:100AD0000E9410019CCF049709F499CF8091000ADD
:100AE000882309F094CF88E293E00E94672B84E684
:100AF00093E00E94672B00D02CE933E0EDB7FEB7FE
:100B0000328321830E944E2BEBEBF3E0ADB7BEB7EF
:100B10001296FC93EE9311970E944E2BE6ECF3E0B5
:100B2000ADB7BEB71296FC93EE9311970E944E2B71
:100B3000EAECF3E0ADB7BEB71296FC93EE931197D3
:100B40000E944E2B0F900F9085ED93E00E94672B33
:100B500080E08E010F5F1F4FB8010E94F31700D095
:100B600000D0EDB7FEB7319623EE33E0ADB7BEB798
:100B700012963C932E9311978981828313820E944F
:100B80004E2B0F900F90E8EFF3E0ADB7BEB7129683
:100B9000FC93EE9311970E944E2B0F900F9084E0E0
:100BA000B8010E94F3178823B9F400D000D0EDB744
:100BB000FEB731968CE094E0ADB7BEB712969C9329
:100BC0008E9311978981828313820E944E2B0F90FE
:100BD0000F900F900F9004C083E194E00E94672B68
:100BE00082E0BE016F5F7F4F0E94F317898185FD10
:100BF00002C08F7303C081958F71819500D000D0A2
:100C000022E234E0EDB7FEB732832183992787FDD6
:100C10009095948383830E944E2B00D0ECE3F4E004
:100C2000ADB7BEB71296FC93EE9311978091DD0895
:100C30009091DE08A091DF08B091E008EDB7FEB713
:100C400083839483A583B6830E944E2B0F900F90CD
:100C5000EDB7FEB73196ADB7BEB712969C928E92A5
:100C600011978091E308828313820E944E2B0F908C
:100C70000F90EDB7FEB7728261820E944E2B0F90EB
:100C80000F908091E108882319F086E994E002C072
:100C900085EA94E00E94672B00D0ADB7BEB71296EC
:100CA0005C924E9211970E944E2B0F900F90809164
:100CB000E408882319F084ED94E002C08AED94E002
:100CC0000E94672B00D0EDB7FEB7328221820E94CE
:100CD0004E2B0F900F908091E208882319F084ED3D
:100CE00094E002C08AED94E00E94672B00D0E7EF09
:100CF000F4E0ADB7BEB71296FC93EE9311970E9445
:100D00004E2B0F900F908091DB089091DC08813082
:100D1000910569F08130910530F08230910559F0EC
:100D20000397F1F412C000D08BE295E007C000D029
:100D30008FE295E00DC000D082E395E0ADB7BEB77D
:100D400012969C938E93119707C000D085E395E08F
:100D5000EDB7FEB7928381830E944E2B0F900F90C8
:100D600088E293E00E94672B86E495E00E94672B5F
:100D700089E695E00E94672B85E995E00E94672B44
:100D80008EE390E00E94602B80E090E00E94ED09ED
:100D900090E00E949B2A8E3409F4C8C08F34C0F4BE
:100DA000863409F448C1873448F4833451F18534DA
:100DB00009F484C1813409F02ACE25C18C3409F4A8
:100DC000E4C08D3408F02CC1893409F020CE50C124
:100DD000833509F47BC2843550F4803509F444C06E
:100DE000803508F43DC1823509F011CE32C1863517
:100DF00009F436C2873509F462C0843509F007CE9C
:100E000025C1DE011596E5EEF8E083E001900D9234
:100E10008150E1F700D087EA95E0ADB7BEB71296F2
:100E20009C938E9311970E944E2B8E010B5F1F4F48
:100E30000F900F9068E0E62EF12CEC0EFD1E80E086
:100E400090E00E94ED09982F80538A3030F4F80129
:100E500091938F01EE15FF0591F7CE0105960E9443
:100E60009C296A8380E025C0DE011596E8EEF8E053
:100E700083E001900D928150E1F78E010B5F1F4FCF
:100E800058E0E52EF12CEC0EFD1E80E090E00E9473
:100E9000ED09982F80538A3030F4D8019D938D014D
:100EA000AE15BF0591F7CE0105960E947E298A8373
:100EB00084E0BE016E5F7F4F0E940819A8CD18869E
:100EC00019861A861B8600D024ED35E0EDB7FEB7F3
:100ED000328321830E944E2B8E01085F1F4F0F909B
:100EE0000F9080E090E00E94ED09982F80538A30A7
:100EF00020F09D3211F09B3231F4D8019D938D0189
:100F0000AA15BB0571F7CE0108960E947E29803E86
:100F100014F480E208C0803214F08FE104C087FF2F
:100F200002C08F7180628A8382E0C3CF8AE0F501BC
:100F300011928A95E9F700D0E9E1F6E0ADB7BEB7C6
:100F40001296FC93EE9311970E944E2B85010F9001
:100F50000F9080E090E00E94ED09982F80538A3036
:100F600040F4D8019D938D01EE89FF89AE17BF072C
:100F700081F7C5010E949C296093DD087093DE080B
:100F80008093DF089093E00842CD188619861A8670
:100F90001B8600D000D0E4E5F6E0ADB7BEB71296F0
:100FA000FC93EE9311978BE090E014969C938E93B4
:100FB00013970E944E2B8E01085F1F4F0F900F90CA
:100FC0000F900F9080E090E00E94ED09982F8053E1
:100FD0008A3030F4D8019D938D01AA15BB0591F795
:100FE000CE0108960E947E298B30910510F48BE08B
:100FF00004C08038910520F08FE78093E3080DC08E
:101000008093E3080AC08091E108882319F01092C8
:10101000E10803C081E08093E1080E944E04F7CC10
:101020008091E208882319F01092E208F0CC81E068
:101030008093E208ECCC8091E408882319F01092A8
:10104000E408E5CC81E08093E408E1CC82E090E024
:1010500002C081E090E09093DC088093DB08D7CC5D
:101060001092DC081092DB0888E00E94D31CCFCCE1
:1010700081E08A8310929F0A1092A00A1092A10A1E
:101080001092A20A1092BF0A1092C00A1092C10ACE
:101090001092C20A81E5BE016E5F7F4F0E9408195F
:1010A000882309F0B4CC83E090E09093DC0880932F
:1010B000DB088DE996E00E94672BA9CCDE0115962E
:1010C000EBEEF8E083E001900D928150E1F78CE0C7
:1010D0008B8381E0BE016D5F7F4F41E00E943C0B3E
:1010E00084ED96E00E94672B81EE96E00E94672BCC
:1010F0008EE197E00E94672B00D089E497E0EDB77E
:10110000FEB7928381830E944E2B8E010B5F1F4F8F
:10111000DD240F900F9048E0E42EF12CEC0EFD1E24
:1011200080E090E00E94ED09982F80538A3040F4CF
:10113000D8019D938D01DD24D394AE15BF0581F7B1
:10114000CE0105960E949C296093C80ADD2011F00B
:10115000603180F08BE797E00E94672B00D08AE235
:1011600093E0EDB7FEB7928381830E944E2B0F90E0
:101170000F9015C181E08093000A00D000D0EDB738
:10118000FEB7319684E997E0ADB7BEB712969C934F
:101190008E9311978091C80A828313820E944E2BEE
:1011A0000F900F900F900F9088ED97E00E94672BA3
:1011B00080E063EC7AE00E94F31781E064EC7AE06F
:1011C0000E94F3174091C40A5091C50A6091C60A63
:1011D0007091C70A20E030E0E22FDB01CA01022E45
:1011E00004C0B695A795979587950A94D2F7817014
:1011F0009070892B29F12A8321E030E040E050E013
:1012000004C0220F331F441F551FEA95D2F72095C3
:101210003095409550958091C40A9091C50AA0914F
:10122000C60AB091C70A82239323A423B5238093CF
:10123000C40A9093C50AA093C60AB093C70A05C012
:101240002F5F3F4F2B31310539F680E0BE016E5FD5
:101250007F4F0E9408198091C80A0E945B17D7CB64
:101260000E94051D9C01BFEF8F3F9B0741F400D0FA
:101270002EEE37E0EDB7FEB73283218387C000D072
:1012800000D000D0EDB7FEB7319683E298E0ADB75D
:10129000BEB712969C938E931197C90168EE73E0C6
:1012A0000E94A62873836283C90168EE73E00E94DE
:1012B000A628958384830E944E2BADB7BEB71696A1
:1012C0000FB6F894BEBF0FBEADBFA1CB8091DB08B7
:1012D0009091DC0882309105C1F500D026E438E019
:1012E000EDB7FEB7328321830E944E2B8091DD083B
:1012F0009091DE08A091DF08B091E0088093B30AD6
:101300009093B40AA093B50AB093B60A1092A70AB4
:101310001092A80A1092A90A1092AA0A1092AB0A77
:101320001092AC0A1092AD0A1092AE0A1092AF0A57
:101330001092B00A1092B10A1092B20A0F900F9058
:1013400087EB9AE00E94170C62CB019721F510926F
:10135000BF0A1092C00A1092C10A1092C20A1092DB
:101360009F0A1092A00A1092A10A1092A20A81E08C
:101370008093020A86E00E94D31C00D0E6E7F8E0E2
:10138000ADB7BEB71296FC93EE9311970E944E2B09
:101390000F900F903CCB8BEA98E00E94672B80E087
:1013A00090E00E94ED0933CBDF93CF930F92CDB73E
:1013B000DEB781E0BE016F5F7F4F41E00E94330BDB
:1013C000813019F02FEF3FEF03C08981282F30E0E3
:1013D000C9010F90CF91DF9108950F931F93DF9371
:1013E000CF930F92CDB7DEB78E010F5F1F4F81E015
:1013F000B80141E00E94330B8823C9F3898190E052
:101400000F90CF91DF911F910F9108950F931F932C
:10141000DF93CF930F92CDB7DEB789838A3071F413
:101420008DE089838E010F5F1F4F81E0B80141E09D
:101430000E943C0B8823C9F38AE089838E010F5FE9
:101440001F4F81E0B80141E00E943C0B8823C9F3A3
:1014500080E090E00F90CF91DF911F910F91089560
:101460009B01AC0160587B47814E9F4FF2E0660FB5
:10147000771F881F991FFA95D1F7E3E0220F331FDA
:10148000441F551FEA95D1F70E94BA2821503040D9
:101490003093CD002093CC0082E08093C80088ED8B
:1014A0008093C90086E08093CA000895DC01809192
:1014B000C9008F7B8093C9002091F2128091F312B2
:1014C000821730F0275F922F981B892F295005C073
:1014D0002150922F981B892F2F5F482F681708F4EF
:1014E000462F342F12C09091F312E92FF0E0E25210
:1014F000FD4E8C918083993019F41092F31203C041
:101500009F5F9093F31231501196332361F78091CE
:10151000F612882351F4E22FF0E0E252FD4E808172
:101520008093CE0081E08093F6128091C9008064A0
:101530008093C900842F0895DC012091F7122223A3
:1015400011F480E008958091C9008F778093C900DD
:101550002A3058F08091F5128093F4128AE080933B
:10156000F7126A3020F02AE003C0261708F0262F71
:10157000322F17C0E091F412F0E0E252FD4E828566
:101580008C939091F4129F5F9093F4128091F712D4
:1015900081508093F7129A3011F41092F412119640
:1015A0003150332339F78091C90080688093C90096
:1015B000822F08951F920F920FB60F920BB60F92C3
:1015C00011248F939F93EF93FF939091F512809145
:1015D000F7128F5F8093F7128091CE00E92FF0E031
:1015E000E252FD4E8287993019F41092F51203C031
:1015F0009F5F9093F512FF91EF919F918F910F90C4
:101600000BBE0F900FBE0F901F9018951F920F9258
:101610000FB60F920BB60F9211248F93EF93FF9397
:101620008091F212893019F41092F21203C08F5F88
:101630008093F212E091F2128091F312E81739F0E0
:10164000F0E0E252FD4E80818093CE0002C0109205
:10165000F612FF91EF918F910F900BBE0F900FBE7E
:101660000F901F901895813011F080E00895CB0104
:10167000642F0E949C0A0895813011F080E0089543
:10168000CB01642F0E94560A0895813011F085E83D
:10169000089560E875E280E090E00E94300A80E002
:1016A00008959093CA0A8093C90AEFE6F0E080811A
:1016B0008F7D8083E1E8F0E0808180648083B59A4B
:1016C00008951F920F920FB60F920BB60F9211242E
:1016D0002F933F934F935F936F937F938F939F933A
:1016E000AF93BF93EF93FF93E091C90AF091CA0AB9
:1016F0000995FF91EF91BF91AF919F918F917F914C
:101700006F915F914F913F912F910F900BBE0F9072
:101710000FBE0F901F9018951EB88FEF8DB98FEFE9
:101720009FEF0E94380C8EB180958EB9F8CFCF9282
:10173000DF92EF92FF920F931F93CF93DF937B0182
:101740008A016901892B11F088EE19C0CA01860F40
:10175000971F8150904110F085E811C0C0E0D0E0A3
:101760000AC0CE018E0D9F1D0E942B2CF601EC0F9E
:10177000FD1F80832196C017D10798F380E0DF9189
:10178000CF911F910F91FF90EF90DF90CF90089530
:10179000CF92DF92EF92FF920F931F93CF93DF933D
:1017A0008C017B016A01CB01800F911F8150904118
:1017B00010F085E816C0C0E0D0E00FC0C8010E945C
:1017C0002B2CF601EC0FFD1F6081861719F0C80164
:1017D0000E94332C0F5F1F4F2196CE15DF0570F34B
:1017E00080E0DF91CF911F910F91FF90EF90DF90FC
:1017F000CF9008950E94030E089580E090E020E8C5
:101800000FB6F89420936100809361000FBE0E9490
:1018100057100E9413110E94AA0F80E00895892B8F
:1018200011F482E401C087E4809381000895FC01F3
:101830002091F8123091F912C901A0E0B0E0BC018A
:10184000552744278091840090918500A0E0B0E066
:10185000482B592B6A2B7B2B8091F8129091F9120F
:101860002817390729F740835183628373830895CA
:101870004FB7F8948630910518F12091840030918B
:101880008500280F391F8091840090918500821770
:10189000930740F48091840090918500821793070C
:1018A000C8F30EC0809184009091850028173907F5
:1018B000C8F3809184009091850082179307C8F344
:1018C0004FBF089520E090E0FC0153E0EE0FFF1FB2
:1018D0005A95E1F7E80FF91FE650FD4E8481958196
:1018E000892B09F021E0822F0895DF92EF92FF9279
:1018F0000F931F93DFB6F8948091CD0A8F3F09F4C0
:1019000053C090E0FC01A3E0EE0FFF1FAA95E1F7A2
:10191000E80FF91FE650FD4EE080F180028113814F
:101920002091F8123091F912C801AA27BB27281775
:10193000390751F4F0928900E092880082E086BB7A
:1019400080916F00826003C080916F008D7F8093D3
:101950006F006091F8127091F9129B0140E050E025
:101960008091840090918500A90133272227A0E06F
:10197000B0E0282B392B4A2B5B2B8091F8129091E9
:10198000F9126817790729F72E193F09400B510BF7
:101990002F5F3F4F4F4F5F4F2F5F3F4F4F4F5F477F
:1019A00018F481E08093CC0ADFBE1F910F91FF9065
:1019B000EF90DF9008958091CC0A882309F44CC001
:1019C0001092CC0A3091CB0A332309F445C08091A0
:1019D000CE0A8F3F59F48091CF0A8F3F39F480911E
:1019E000CD0A8093CF0A8093CE0A12C02091CD0AEF
:1019F0008091CF0A90E0FC0143E0EE0FFF1F4A9573
:101A0000E1F7E80FF91FE650FD4E20872093CF0A3B
:101A10008091CD0A90E0FC0123E0EE0FFF1F2A9594
:101A2000E1F7E80FF91FE650FD4E80858093CD0A5F
:101A30008091CF0A90E0FC01B3E0EE0FFF1FBA9552
:101A4000E1F7E80FF91FE650FD4E8FEF8087315028
:101A50003093CB0A0E94750C0895FF920F931F9349
:101A6000182F833010F08AE8C5C0FFB6F8940E94A2
:101A7000DB0C0091CB0A002309F4C0C04091CD0AD1
:101A8000242F302F842F1217F1F5212F30E0141757
:101A900081F4F90163E0EE0FFF1F6A95E1F7E20FB1
:101AA000F31FE650FD4E80858093CD0A0E94750C91
:101AB00018C090E0DC0153E0AA0FBB1F5A95E1F774
:101AC000A80FB91FA650BD4EF90143E0EE0FFF1F4E
:101AD0004A95E1F7E20FF31FE650FD4E8085189618
:101AE0008C93812F90E0FC0123E0EE0FFF1F2A95DD
:101AF000E1F7E80FF91FE650FD4E8FEF80870150A8
:101B00000093CB0A62C0822F90E0FC01B3E0EE0F9D
:101B1000FF1FBA95E1F7E80FF91FE650FD4E50851B
:101B20003150822F09F46AC0252FADCF1217D1F59D
:101B30002091CF0A1317B1F4121721F48FEF80937D
:101B4000CF0A0DC0812F90E0FC01A3E0EE0FFF1F34
:101B5000AA95E1F7E80FF91FE650FD4E80858093C6
:101B6000CE0A33C0842F90E0DC01E3E0AA0FBB1F54
:101B7000EA95E1F7A80FB91FA650BD4E812F90E05E
:101B8000FC0173E0EE0FFF1F7A95E1F7E80FF91FF4
:101B9000E650FD4E808518968C931217B1F4409351
:101BA000CF0A13C0822F90E0FC0163E0EE0FFF1F0D
:101BB0006A95E1F7E80FF91FE650FD4E422F2085A8
:101BC0002F3F09F0B3CF80E00FC0812F90E0FC01E0
:101BD00053E0EE0FFF1F5A95E1F7E80FF91FE650AB
:101BE000FD4E1582148281E0FFBE882311F489E83E
:101BF00001C080E01F910F91FF9008953091CE0AAF
:101C0000232F432FDDCF1F931FB7F8940E94DB0CC7
:101C10001FBF1FEF25C06FB7F894822F90E0FC0123
:101C200073E0EE0FFF1F7A95E1F7E80FF91FE6501A
:101C3000FD4E2085448155818681978110871582CC
:101C40001482178216822F3F09F43FEF6FBF4115B0
:101C5000510551F03093CF0A2093CE0AFA0109952D
:101C60003091CF0A2091CE0A2F3FA9F63093CF0AA8
:101C70002093CE0A1F9108952F923F924F925F9228
:101C80007F928F929F92AF92BF92CF92DF92EF920C
:101C9000FF920F931F93CF93DF93782E5A016B011E
:101CA000490192E0292E281610F48AE8E2C00115B5
:101CB000110509F4DBC0C82FD0E0FE0183E0EE0F70
:101CC000FF1F8A95E1F7EC0FFD1FE650FD4E848162
:101CD0009581892B11F088E8CCC06091F812709141
:101CE000F9129B0140E050E08091840090918500C2
:101CF000A90133272227A0E0B0E0282B392B4A2B5B
:101D00005B2B8091F8129091F9126817790729F7E7
:101D10008114910431F061E08616910409F0A6C0A7
:101D200011C0D601C50180589040A040B0408058F5
:101D30009F4FAF4FBF4708F09BC0A20EB31EC41EFB
:101D4000D51E10C0D601C50180589040A040B040BB
:101D5000821B930BA40BB50B80589F4FAF4FBF470F
:101D600008F086C09FB6F8940E94DB0C5091CD0A13
:101D70005F3F31F06091CB0A452F252F30E054C0F2
:101D80007092CD0AFE01A3E0EE0FFF1FAA95E1F7C6
:101D9000EC0FFD1FE650FD4E508731C02F3F09F478
:101DA0003EC0822F90E0FC0173E0EE0FFF1F7A959A
:101DB000E1F7E80FF91FE650FD4E80819181A28185
:101DC000B38115012601281A390A4A0A5B0AD20191
:101DD000C1018F5F9F4FAF4FBF4710F4808521C077
:101DE000FE0133E0EE0FFF1F3A95E1F7EC0FFD1F08
:101DF000E650FD4E2087521721F47092CD0A91E0F3
:101E000017C0842F90E0FC0123E0EE0FFF1F2A95FE
:101E1000E1F7E80FF91FE650FD4E708655C08FEFD1
:101E2000242F3F5F422F282F361708F4B7CF33C037
:101E3000FE0183E0EE0FFF1F8A95E1F7EC0FFD1F17
:101E4000E650FD4EA082B182C282D3821583048304
:101E5000F782E6828091CB0A8F5F8093CB0A992329
:101E600011F00E94750C9FBE80E003C088EE01C097
:101E70008BE8DF91CF911F910F91FF90EF90DF9052
:101E8000CF90BF90AF909F908F907F905F904F903A
:101E90003F902F900895842F90E0FC01B3E0EE0F67
:101EA000FF1FBA95E1F7E80FF91FE650FD4E708667
:101EB000FE01A3E0EE0FFF1FAA95E1F7EC0FFD1F57
:101EC000E650FD4E8FEF808790E0B2CF1F920F92C9
:101ED0000FB60F920BB60F9211242F933F934F938F
:101EE0005F936F937F938F939F93AF93BF93EF9382
:101EF000FF938091F8129091F91201969093F91244
:101F00008093F8120E94750CFF91EF91BF91AF91F1
:101F10009F918F917F916F915F914F913F912F9101
:101F20000F900BBE0F900FBE0F901F9018951F9231
:101F30000F920FB60F9211248F938091CB0A8823B2
:101F400019F081E08093CC0A8F910F900FBE0F9013
:101F50001F9018951092CB0A1092CC0A1092F91289
:101F60001092F8128FEF8093CD0A8093CE0A80935F
:101F7000CF0A809302131092FF121092FE128093E8
:101F80000B131092081310920713809314131092DE
:101F90001113109210130E945E100895FC0180919D
:101FA000F8129091F9122091860030918700A0E0FC
:101FB000B0E0DC019927882740E050E0822B932B8A
:101FC000A42BB52B80839183A283B3830895CF92F2
:101FD000DF92EF92FF920F931F93DFB6F894E09099
:101FE000B100F0908100009180001092B100109239
:101FF000810010928000E0E06FEF7FEF40E050E062
:102000001FEFF1E0A0E2CA2EA4E2B4EF16BB17BBAB
:102010001092B2001092850010928400F09381001B
:10202000F093B100C092B600B89BFECF1092810031
:102030001092B10020918400309185002115310566
:1020400011F480E024C084EF2532380720F4CD015C
:10205000821B930B03C0C9018452944F86179707C4
:1020600018F4E0916600BC012552344F20F48091B1
:1020700066008F5F03C08091660081508093660088
:102080004F5F5F4F4436510509F0C0CF81E0E092C9
:10209000B100F092810000938000DFBEE093660003
:1020A0001F910F91FF90EF90DF90CF900895209AAD
:1020B000219A259A229A249A2398089582E480935B
:1020C000810082E086BB84E086BB88E086BBEFE6C9
:1020D000F0E080818160808308958FEF8EB98DB9A3
:1020E000089584309105E9F08530910548F48230F7
:1020F000910599F08330910590F4019761F409C03E
:102100008630910591F08630910568F0079719F4B3
:102110000EC031E00DC030E00BC032E009C033E04A
:1021200007C034E005C035E003C036E001C037E049
:102130006115710501F16130710541F48EB102C084
:10214000660F771F3A95E2F7862B1FC08EB190E09D
:10215000032E02C0959587950A94E2F780FD0BC087
:102160002EB181E090E002C0880F991F3A95E2F706
:10217000282B2EB908952EB181E090E002C0880F7F
:10218000991F3A95E2F7809582238EB90895889A2F
:10219000899A8A9A8B9A80988198829883980895D0
:1021A0008230910549F08330910541F0019711F497
:1021B00081E005C080E003C082E001C083E02FB170
:1021C00030E002C0359527958A95E2F7217030708E
:1021D000C90108951F938DE480937C0080917A005B
:1021E000866F80937A0080917A0084FFFCCF84E62A
:1021F00090E00E94380C1091780080917A0084FF62
:10220000FCCF84E690E00E94380C912F80E0209172
:10221000780010927C0010927A0030E0282B392B45
:10222000C9011F91089580E58CBD81E08DBD8CB5FD
:102230008C7F8CBD289A089520916F0090916F003B
:102240009F7D90936F00806C28988EBD0DB407FE23
:10225000FDCF6EBD0DB407FEFDCF289A20936F0011
:10226000089520916F0090916F009F7D90936F0073
:10227000806828988EBD0DB407FEFDCF1EBC0DB43E
:1022800007FEFDCF8EB5289A20936F000895FC01BC
:10229000289880E28EBD0DB407FEFDCF1EBC6130D4
:1022A00089F0DF01262F0DB407FEFDCF8EB51EBCD1
:1022B0008D9321502230B8F76250862F90E001961E
:1022C000E80FF91F0DB407FEFDCF8EB58083289A65
:1022D0000895FC01289880E68EBD0DB407FEFDCF61
:1022E000819161500DB407FEFDCF8EBD6623C1F70D
:1022F0000DB407FEFDCF289A0895FF920F931F9308
:10230000062FF42E0E943111082310E002C015950B
:102310000795FA94E2F7802F1F910F91FF9008958F
:10232000DF92EF92FF920F931F93D82EF62EE42E9A
:10233000022F0E94311110E002C0000F111FEA9419
:10234000E2F76F2D6023F094F8226F298D2D0E9403
:102350001C111F910F91FF90EF90DF900895BC0129
:10236000009721F086ED92E10E94E411089586ED38
:1023700092E160E070E00E94791208950F931F933C
:10238000CF93DF9386ED92E10E94DD11C2EAD2E1A4
:1023900000ED1AE01983088386ED92E1BE010E94E8
:1023A000E411249606561F4F82E1C63DD80791F7E7
:1023B000DF91CF911F910F910895FC01118210823E
:1023C0001382128214820895CF93DF93DC01EB0114
:1023D0009FB7F89414968C911497882321F4119642
:1023E0007C936E9306C01296ED91FC9113977383C4
:1023F00062831396DC93CE9312971B821A821496F3
:102400008C9114978F5F14968C939FBFDF91CF911F
:1024100008959F92AF92BF92CF92DF92EF92FF9278
:102420000F931F93CF93DF938C015B016A019FB6DB
:10243000F894DC0114968C91882319F4C0E0D0E064
:102440004AC0F801C081D18141155105B1F07E012A
:1024500011C0D60112966D917C911397ED91FC916C
:10246000888199810995882359F47E018A819B810D
:102470009C01E901209769F72EC0209761F17E0148
:10248000AB2849F5F801808191812A813B81C817E9
:10249000D90719F43183208305C0D70113963C93E3
:1024A0002E931297F80182819381C817D90711F4EE
:1024B000F382E282D80114968C911497815014967D
:1024C0008C9314978D919C911197892B21F41396DD
:1024D0001C921E9212979FBECE01DF91CF911F9149
:1024E0000F91FF90EF90DF90CF90BF90AF909F90B3
:1024F0000895AB0160E070E00E9409120895AB01FD
:1025000061E070E00E9409120895CF93DF93EC011F
:102510000BC0CE0160E070E00E947912009711F4C8
:102520001C8205C00E94AF118C81882391F7DF9136
:10253000CF9108950F931F93DF93CF93CDB7DEB75D
:1025400028970FB6F894DEBF0FBECDBF81E06FE1D4
:1025500040E00E947D118830D9F580916F008F7D19
:1025600080936F008EE061E00E941C118FE00E945A
:10257000311182E069E00E941C11CE0101960E9497
:10258000170C8E010B5F1F4F8FE00E94311180FDF1
:1025900014C0C8010E94170C8D819E81AF81B8853F
:1025A00029813A814B815C81821B930BA40BB50B73
:1025B00089509740A040B04038F380E286BB8EE05F
:1025C00068E00E941C1180916F00806280936F0010
:1025D00028960FB6F894DEBF0FBECDBFCF91DF9126
:1025E0001F910F9108951F93CF93DF93EC0180917A
:1025F0003613909137130F97B9F42C9881E06FE15F
:1026000040E00E947D118830C9F7C830D10519F02B
:10261000C330D10549F488E090E09093371380935C
:10262000361328E030E011C281E06FE140E00E9403
:102630007D118093361310923713C930D10509F4F8
:1026400075C0CA30D10560F4C630D10509F4FAC0AE
:10265000C830D10509F43DC0239709F0E8C149C04D
:10266000C631D10509F440C1C731D10520F42A97FC
:1026700009F0DDC176C0C931D10509F487C16A9777
:1026800009F0D5C182E063E00E941C110E946E290E
:10269000682F192F8DE20E941C118EE267E040E046
:1026A000212F0E9490110000000000000000000097
:1026B0000000000000002C9A83E290E00E94380C99
:1026C0008FE090E090933713809336132FE030E043
:1026D000BCC1883009F4ABC182E068E00E941C11E3
:1026E00000000000000000000000000000000000EA
:1026F0009EC1883009F49BC1893159F482E063E0BE
:102700000E941C112C9A82E090E00E94380C2C98B8
:102710008EC182E063E00E941C11000000000000F6
:102720000000000000000000000081C1883009F4B2
:1027300086C0893020F4863009F079C105C0863121
:1027400019F0893109F073C182E069E00E941C111F
:102750000000000000000000000000000000000079
:1027600066C1883009F46BC0893040F4823069F169
:10277000863061F0813009F05AC108C0823109F415
:102780003EC0863119F0813109F051C110916F00BE
:1027900080916F008F7D80936F0082E063E00E94E4
:1027A0001C1182E069E00E941C118FE00E9431112F
:1027B00080E286BB10936F00000000000000000064
:1027C000000000000000000032C110916F008091F5
:1027D0006F008F7D80936F0082E063E00E941C1188
:1027E00082E069E00E941C1110936F00000000005D
:1027F00000000000000000000000000018C110915F
:102800006F0080916F008F7D80936F0082E063E0A6
:102810000E941C112C9882E090E00E94380C2C9AA7
:1028200082E069E00E941C1110936F00000000001C
:10283000000000000000000000000000F8C00E943E
:102840009A12F5C0893061F08A3020F4883009F09E
:10285000EEC013C0863101F1893109F0E8C01CC017
:1028600082E066E00E941C110000000000000000F1
:102870000000000000000000DAC00E949A1282E00E
:1028800066E00E941C110000000000000000000033
:10289000000000000000CBC082E069E00E941C1133
:1028A0000000000000000000000000000000000028
:1028B00081E06FE140E00E947D11282F30E03093ED
:1028C0003713209336132930310509F0BEC082E05A
:1028D00066E00E941C1100000000000000000000E3
:1028E000000000000000A3C08830C9F0893020F447
:1028F000863009F09CC022C0893021F0893109F06E
:1029000096C01CC082E066E10E941C11000000001D
:1029100000000000000000000000000088C00E94CD
:102920009A1282E066E10E941C1100000000000083
:102930000000000000000000000079C082E069E0B3
:102940000E941C11000000000000000000000000B8
:102950000000000081E06FE140E00E947D11282F1F
:1029600030E030933713209336132930310509F0C6
:102970006CC082E066E10E941C11000000000000B3
:102980000000000000000000000051C0883009F481
:1029900040C0893020F4863009F049C013C0893026
:1029A00021F0863109F043C00DC082E069E10E9448
:1029B0001C110000000000000000000000000000EA
:1029C000000035C082E069E00E941C110000000098
:1029D00000000000000000000000000081E06FE146
:1029E00040E00E947D11282F30E030933713209370
:1029F00036132930310549F582E069E10E941C1146
:102A000000000000000000000000000000000000C6
:102A10000EC00E949A1282E069E10E941C1100001F
:102A2000000000000000000000000000000081E045
:102A30006FE140E00E947D11282F30E03093371382
:102A4000209336132F31310591F3C901DF91CF91D6
:102A50001F91089580912613882331F180914013AE
:102A600090914113892B01F58091DB129091DC123A
:102A7000892B39F48AE90E94B7119093DC12809374
:102A8000DB128091DB129091DC12892B69F010929D
:102A9000261380913513882319F086E090E002C058
:102AA00086E190E00E94F31280912B13882351F06D
:102AB00087E293E160E070E00E947912009711F0E4
:102AC0000E9494158091401390914113009731F02A
:102AD0008F708250823010F40E94D6160895982F7D
:102AE000603210F06FE103C0662309F461E0929553
:102AF0009695969593708FEF989FC0011124262F7D
:102B000030E0AC01429FC001439F900D529F900D59
:102B100011246DE570E00E94A628CB016F3F71057E
:102B200011F008F08FEF0895EF92FF920F931F932B
:102B3000CF93DF937C01FC01C081D181EF81F885C7
:102B4000808180933913282F30E089010F5F1F4F58
:102B50000E0F1F1FF801808161810E946F15F8011F
:102B60008083FA82E982CE010E94A103DF91CF9196
:102B70001F910F91FF90EF900895DF92EF92FF92D7
:102B80000F931F93DF93CF930F92CDB7DEB7E091F2
:102B9000DB12F091DC12309709F444C0E080F18040
:102BA00080913513882339F086E060E847E00E9481
:102BB0007D118823B9F187E00E943111D82ECE0112
:102BC000019661E00E944711698167FD2BC06D5F2E
:102BD0000AE910E0061B11090E0D1F1D6150C80106
:102BE0000E944711F701108707838981080F111D83
:102BF000F801D2826091DB127091DC1287E293E1DE
:102C00000E94E4118AE90E94B7119093DC1280932C
:102C1000DB12892B39F489E090E00E94F31281E005
:102C2000809326130F90CF91DF911F910F91FF900A
:102C3000EF90DF900895209140133091411322309E
:102C40003105A9F5882349F582E060EE45E00E9450
:102C50007D118330B1F0843028F4882361F0813015
:102C6000E1F403C08530C9F412C080914013909103
:102C70004113806117C0809140139091411380628D
:102C800011C0809140139091411380630BC08091DB
:102C9000401390914113806405C08091401390913E
:102CA000411380659093411380934013089523301E
:102CB000310531F483E290E0909341138093401307
:102CC00008950F931F93CF93DF938C01EB0144235F
:102CD00059F08CE260EF44E0209134130E9490118F
:102CE000C230D10528F50AC06230710538F08CE297
:102CF00060EF44E020E00E9490111AC089E090E06B
:102D00000E94F3120997D1F783E090E0909341136A
:102D1000809340132197C1F480913913833118F0C7
:102D200080E492E002C080E890E00E94380C0CC081
:102D300089E190E00E94F3124997D1F782E090E098
:102D4000909341138093401380916F008F7D809307
:102D50006F002C9A2C98F80160816150C8010E9484
:102D6000691180916F00806280936F00DF91CF9135
:102D70001F910F910895FC01809140139091411390
:102D8000892B11F086E80895F0933213E093311304
:102D90008781908590933B1380933A13009711F4A9
:102DA00088EE08950E94611680E008958091401396
:102DB000909141139C01207F30708F709070823011
:102DC000910521F0039709F059C04AC0203331051D
:102DD00039F12133310540F42031310569F02032D9
:102DE000310509F04BC012C02034310519F12035EE
:102DF000310509F043C028C01092411310924013CE
:102E0000609131137091321387E827C010924113FB
:102E100010924013609131137091321380E01DC005
:102E2000109241131092401360913113709132133C
:102E300081EE13C010924113109240136091311330
:102E40007091321389EE09C0109241131092401311
:102E5000609131137091321385E80E94290308951F
:102E60002032310559F410924113109240136091B1
:102E700031137091321380E00E9429030895EF927C
:102E8000FF920F931F9387E060E00E941C1181E086
:102E900040E950E060E070E020E030E006EB17E150
:102EA000EE24FF240E943C0E882389F71F910F9186
:102EB000FF90EF900895EF92FF920F931F93182FBA
:102EC0008091401390914113009731F0049711F0D5
:102ED00086E847C081E845C080916F008F7D809370
:102EE0006F008FE00E94311186E090E00E94F312A3
:102EF0008630910531F080916F00806280936F0081
:102F00002FC090934113809340131092DD1240EC38
:102F100053E060E070E004C0440F551F661F771F48
:102F20001A95D2F740545C4F6F4F7F4F84E0440FA7
:102F3000551F661F771F8A95D1F780E020E030E0AB
:102F400003EC17E1EE24FF240E943C0E882321F4B9
:102F50000E943F1780E005C0109241131092401369
:102F600085E81F910F91FF90EF90089587E00E94F0
:102F70003111982F8091DD12891710F49093DD1292
:102F80000E943F17089581E00E942D0D8AE090E095
:102F90000E94F3128FE00E94311180E286BB809183
:102FA0006F00806280936F00109241131092401363
:102FB00086E190E00E94F3129091DD12993320F0A7
:102FC0008FEF8093DD120AC08FEF989FC00111240C
:102FD00068E370E00E94A6286093DD128091DD1204
:102FE0000E946D020895FB018B3009F491C08C3072
:102FF000C0F4833009F458C0843038F4813009F4C7
:1030000043C0823008F04DC03CC0853009F452C046
:10301000853008F44CC0863009F456C08730D1F4AE
:1030200050C0813521F1823538F48F34C1F08035BC
:10303000C8F48E3479F410C0873509F448C0883557
:1030400018F4833539F418C0893509F443C0803F3A
:1030500009F444C084EF089580912C133DC0809101
:1030600033133AC0809121139091221327C080918D
:103070003513808311824AC08091241390912513C7
:103080001DC080912E1328C080913C1390913D1358
:10309000A0913E13B0913F1380839183A283B383A9
:1030A00035C08091151318C08091231315C08091ED
:1030B000201312C080911E1390911F13918380835F
:1030C00025C080912D1308C08091381305C08091D0
:1030D000301302C080913413808318C0809116137E
:1030E000808380911713818380911813828380914C
:1030F0001913838380911A13848380911B13858312
:1031000080911C13868380911D13878380E008952E
:1031100080912F13808380E00895282F85FD03C0C0
:10312000982F9F7304C0982F91959F719195E4ED0E
:10313000F0E08491891734F03F968491981714F049
:10314000822F0CC0803E3CF080323CF487FF06C0EA
:103150008F71806203C080E201C08FE180680895B2
:1031600084E080932C1323E0209333138FEF9FEFA1
:10317000909322138093211390932513809324130B
:103180008BE080932E1380E098EFAFEFB7E0809351
:103190003C1390933D13A0933E13B0933F131092B2
:1031A00020138AE091E090931F1380931E138AE00E
:1031B0008093381382E080932D1385E08093301341
:1031C0002093341383E80E948D188093151381E0B7
:1031D0008093231310922F1310923513089585FDB9
:1031E00003C0982F9F7304C0982F91959F7191955C
:1031F000E4EDF0E080E02491921724F029173CF4EC
:10320000815008958F5F31968031A9F780E008954D
:103210000F931F93CF93DF93EB01209140133091D5
:1032200041132630310509F412C1813569F0893521
:1032300019F08E3451F504C08881809334130BC18A
:10324000888180932C1307C12881211121E02093CC
:103250003513222399F00E94951C8091DB129091E6
:10326000DC12892B41F489E090E00E94F31281E0A6
:1032700080932613F0C086E090E092C088E090E052
:103280000E94F31210922613E6C04091361350911B
:1032900037134F30510511F481E8DEC08B3009F44B
:1032A000CDC08C3078F4823009F490C0833020F4A3
:1032B000882309F445C015C0833009F495C08430D3
:1032C00081F471C0833561F1843528F48F3459F06D
:1032D000803539F417C0873509F46DC0803F09F493
:1032E0008AC084EFB9C088818093331390913013E2
:1032F000981710F4909333138EE260EC46E020911F
:103300003313A2C088819981682F809321139093F1
:10331000221382E20E941C1183E2609122130DC0ED
:1033200088819981682F809324139093251380E2DC
:103330000E941C1181E2609125130E941C118BC018
:10334000232B09F084C080E098EFAFEFB7E008804E
:1033500004C0B695A795979587950A94D2F7817082
:103360009070892B09F475C04830510519F408E0B4
:1033700010E008C088E090E00E94F3120897D1F7AF
:1033800006E110E0288120932E1388E06FE140E0F1
:103390000E9490110830110509F45DC086E190E0AB
:1033A0000E94F31258C0232B09F051C08881882352
:1033B00009F451C04EC028812093301380913313FB
:1033C000281708F048C02093331345C088818093A4
:1033D00015130E948D18809315130E94EF18282F43
:1033E00085E06FE040E030C028812093231388E01F
:1033F00060E645E029C08881809316138981809317
:1034000017138A81809318138B81809319138C81F1
:1034100080931A138D8180931B138E8180931C13CC
:103420008F8180931D13C6E1D3E114E2812F69914E
:103430000E941C111F5F1C32C9F70DC02881209308
:103440002F138EE268E043E00E94901104C086E8EA
:1034500003C088EE01C080E0DF91CF911F910F91F2
:1034600008951F93CF93DF9382E2609121130E940E
:103470001C1183E2609122130E941C11C6E1D3E16A
:1034800014E2812F69910E941C111F5F1C32C9F741
:1034900080E2609124130E941C1181E26091251347
:1034A0000E941C11809115130E94EF18282F85E0AF
:1034B0006FE040E00E94901188E060E645E02091D6
:1034C00023130E94901188E06FE140E020912E13B9
:1034D0000E9490118EE260EC46E0209133130E942E
:1034E000901180913513882321F086E090E00E94AE
:1034F000F312DF91CF911F9108950F931F93082F1F
:103500002C9880E793E00E94380C2D9886E090E09C
:103510000E94380C2D9A10E081E06FE140E00E949B
:103520007D111F5F1B3F11F485E83BC08830A1F778
:1035300088E090E0909337138093361383E061E046
:103540000E941C118EE260E245E021E00E94901191
:1035500085E060E847E021E00E9490118EE068E09D
:103560000E941C110E946E29682F192F8DE20E9463
:103570001C118EE267E040E0212F0E94901180E054
:103580000E94AB1C0E94951C002311F00E94B018F1
:103590000E94311A10924113109240131092261378
:1035A00080E01F910F9108951F930E947D1A882338
:1035B00011F085E824C01FB7F89480E00E942D0D1B
:1035C00081E00E942D0D1FBF0AC087E293E160E0F9
:1035D00070E00E947912009711F00E94AF11809163
:1035E0002B13882391F785E79CE10E94510B80E221
:1035F00086BB80916F00806280936F0080E01F9196
:103600000895EF92FF920F931F93CF93DF930E9441
:10361000FD0B882309F061C12D9A2C9884EF91E06D
:103620000E94380C2D9886E090E00E94380C2D9A6C
:1036300010E004C01F5F1F3F09F44FC18DE10E94DD
:1036400031118230B9F78CE10E943111823091F74B
:1036500068E00E941C1110E081E06FE140E00E94F0
:103660007D11115009F439C18830B1F788E090E03C
:10367000909337138093361380E090E060E070E021
:1036800048E050E026E133E10E94970B7091161359
:10369000E09117134091181360911913F0911A13C8
:1036A000B0911B1300911C1350911D13E72EEA9447
:1036B00091E0E71608F090E08E2F815021E08E1700
:1036C00008F020E0F92EF80E91E0F81608F090E0EE
:1036D000292B842F815031E0841708F030E0122F1D
:1036E000180F91E0181708F090E0392B862F8150C1
:1036F00021E0861708F020E0A32FA80F91E0A8177B
:1037000008F090E0292B8F2F815031E08F1708F0BF
:1037100030E0622F680F91E0681708F090E0392BD5
:103720008B2F815021E08B1708F020E0432F480FAA
:1037300091E0481708F090E0292B802F815091E00C
:10374000801708F090E0322F380F21E0381708F08A
:1037500020E0922B5195591709F09BC03F3F09F08B
:1037600098C04F3F09F095C06F3F09F092C0AF3F3E
:1037700009F08FC01F3F09F08CC08FEFF81609F0D9
:1037800088C08DEF8E1508F084C00E94EA100E9458
:103790007329C6E1D3E10E946E29899383E1CE317A
:1037A000D807C9F780911613309117134091181359
:1037B0006091191370911A13F0911B13B0911C139F
:1037C00050911D13082F015091E0081708F090E068
:1037D000832F815021E0831708F020E0192F180F64
:1037E00091E0181708F090E0292B842F815031E0E8
:1037F000841708F030E0A22FA80F91E0A81708F076
:1038000090E0392B862F815021E0861708F020E0C8
:10381000E32FE80F91E0E81708F090E0292B872FBD
:10382000815031E0871708F030E0622F680F91E097
:10383000681708F090E0392B8F2F815021E08F1707
:1038400008F020E0432F480F91E0481708F090E07F
:10385000292B8B2F815091E08B1708F090E0322FAD
:10386000380F21E0381708F020E0922B51955917B6
:10387000A1F43F3F91F44F3F81F46F3F71F4EF3F6C
:1038800061F4AF3F51F41F3F41F40E3F08F081CF88
:1038900004C0872F9E2F0E94732981E00E947D1A09
:1038A0008823D9F48FE00E94311185E79CE10E94C2
:1038B000510B80916F00806280936F000E94BE1157
:1038C0008AE90E94B7119093DC128093DB1287E2A1
:1038D00093E10E94DD1180E001C085E8DF91CF9186
:1038E0001F910F91FF90EF900895CF93DF938FE09A
:1038F0000E943111C82F83FF15C080914013909111
:1039000041130297029760F486E190E00E94F3125F
:10391000C6FF02C081E001C080E00E941B1602C009
:103920000E94BD15DF91CF9108958091361390913B
:1039300037130F9711F082E8089588E090E00E9415
:10394000F312089711F085E8089581E090E00E9455
:103950000F0C80E00895882311F088EE089580917F
:103960003613909137130F9711F481E808958091E1
:10397000401390914113892BA1F41092261388E0F3
:1039800090E00E94F3120897D1F780E090E00E9447
:103990000F0C8AE190E00E94F3120F9711F480E07F
:1039A000089586E80895282F80914013909141133F
:1039B000892B11F086E80895283041F488E090E0E2
:1039C0000E94F3121092261388E008958091DB1272
:1039D0009091DC12892B69F080913513882319F0BE
:1039E00086E090E002C086E190E00E94F31286E05B
:1039F000089581E08093261386E0089584EF08956A
:103A000084EF089580E008950895EF92FF920F9358
:103A10001F93CF93DF9380916F008F7D80936F0012
:103A2000E0903613F09037138FE0E816F10421F49C
:103A300088E090E00E94F31281E160E144E020E040
:103A40000E94901181E16FE040E02FE00E94901110
:103A500081E160E245E00E947D11882389F481E1E3
:103A60006FE040E020E00E94901181E160E245E0DB
:103A70000E947D11882309F05AC0C0E0D0E03FC009
:103A800081E160E144E021E00E94901181E16FE07A
:103A900040E02FE00E94901181E160E245E00E9449
:103AA0007D11813011F001E043C0CFEFDFEF27C07F
:103AB00081E16FE040E0212F0E94901181E160E2FE
:103AC00045E00E947D11882339F4112311F420E090
:103AD00007C0212F215004C01F5F103149F72FE08C
:103AE000002339F08BE4289FE0011124CA50D64FFF
:103AF00006C082E3289FE0011124CC55D94F8FE006
:103B00000E9431118FE0E816F10421F48AE190E07F
:103B10000E94F31280916F00806280936F00CE014B
:103B2000DF91CF911F910F91FF90EF90089500E0EA
:103B300010E0BECF1F9386E090E00E94F31206973C
:103B4000D1F780916F008F7D80936F0087E060E0F8
:103B50000E941C1180E990E00E94380C87E00E94CE
:103B60003111182F8FE00E94311180E286BB8091C5
:103B70006F00806280936F0088E090E00E94F312F3
:103B8000193310F06FEF08C08FEF189FC001112498
:103B900068E370E00E94A628862F1F9108951F9366
:103BA000CF93DF9388E090E00E94F3120897D1F75B
:103BB00080916F008F7D80936F0086E090E00E947F
:103BC000F3120697D1F788E060E847E021E00E9411
:103BD000901180E990E00E94380C81E00E94311140
:103BE000C82F87FFFACF88E090E00E94F312C6FD4D
:103BF00002C010E001C014E08FE00E94311180E2A9
:103C000086BB80916F00806280936F00812FDF916F
:103C1000CF911F910895EF92FF920F931F937B0115
:103C20008C0120E030E040E05FE40E94872188239F
:103C30008CF0C801B70120E030E040E05FE40E9472
:103C4000831F0E9415229B01AC0120503040404050
:103C5000504806C0C801B7010E9415229B01AC0163
:103C6000B901CA011F910F91FF90EF900895A0E054
:103C7000B0E0EDE3FEE10C94DC28DC012B01FA015D
:103C80009C91923008F439C1EB018881823008F4AC
:103C900033C1943069F4843009F02FC111969C919E
:103CA00011978981981709F428C1AEEEB8E025C1B3
:103CB000843009F421C18230A9F4923009F01DC189
:103CC0009A01AD0188E0EA010990AE01E90109928B
:103CD0009E018150C1F7E201898111969C9189234F
:103CE000818308C1923009F407C112962D903C904F
:103CF0001397EB018A819B811496AD90BD90CD9076
:103D0000DC901797EC80FD800E811F819101281BAC
:103D1000390BB90137FF04C066277727621B730B85
:103D2000603271050CF061C0121613066CF5370194
:103D30004801062E04C096948794779467940A9459
:103D4000D2F721E030E040E050E004C0220F331F02
:103D5000441F551F6A95D2F72150304040405040D3
:103D60002E213F21402351232115310541055105C5
:103D700021F021E030E040E050E079018A01E628BE
:103D8000F728082919293CC0232BD1F1260E371E0C
:103D900035014601062E04C0969487947794679463
:103DA0000A94D2F721E030E040E050E004C0220F56
:103DB000331F441F551F6A95D2F7215030404040B1
:103DC00050402A213B214C215D212115310541051F
:103DD000510521F021E030E040E050E059016A0156
:103DE000A628B728C828D9280BC0821593052CF01F
:103DF0001C01AA24BB24650103C0EE24FF24870113
:103E000011969C91D20111968C91981709F445C096
:103E1000992339F0A80197012A193B094C095D093A
:103E200006C0A60195012E193F09400B510B57FD05
:103E300008C01182338222822483358346835783CC
:103E40001DC081E081833382228288279927DC018B
:103E5000821B930BA40BB50B84839583A683B78336
:103E60000DC0220F331F441F551F24833583468303
:103E70005783828193810197938382832481358143
:103E800046815781DA01C9010197A109B1098F5F04
:103E90009F4FAF4FBF4328F30BC0918333822282E1
:103EA000EA0CFB1C0C1D1D1DE482F58206831783A2
:103EB00083E08083248135814681578157FF1AC072
:103EC000C901AA2797FDA095BA2F81709070A070A4
:103ED000B0705695479537952795822B932BA42B39
:103EE000B52B84839583A683B783828193810196C2
:103EF00093838283DF0101C0D201CD01CDB7DEB74C
:103F0000E2E10C94F828A0E2B0E0E9E8FFE10C94CB
:103F1000E82869837A838B839C832D833E834F8338
:103F20005887E9E0EE2EF12CEC0EFD1ECE01019635
:103F3000B7010E9406248E010F5E1F4FCE01059629
:103F4000B8010E9406248A8991E089278A8BC701DB
:103F5000B801AE01475E5F4F0E94371E0E943123B9
:103F6000A096E6E00C940429A0E2B0E0EAEBFFE1C1
:103F70000C94E82869837A838B839C832D833E830A
:103F80004F835887F9E0EF2EF12CEC0EFD1ECE0189
:103F90000196B7010E9406248E010F5E1F4FCE01CD
:103FA0000596B8010E940624C701B801AE01475E1C
:103FB0005F4F0E94371E0E943123A096E6E00C94CA
:103FC0000429A0E2B0E0E7EEFFE10C94DC2869836D
:103FD0007A838B839C832D833E834F835887CE01C6
:103FE0000196BE01675F7F4F0E940624CE010596B1
:103FF000BE016F5E7F4F0E9406249985923088F043
:1040000089898230C8F0943019F4823051F404C0A8
:10401000843029F4923081F48EEE98E0C6C092305C
:1040200049F420E09A858A89981321E02A87CE01F5
:104030000996BBC0823049F420E09A858A8998139A
:1040400021E02A8BCE014196B0C02D843E844F845E
:1040500058886D887E888F88988CEE24FF2487018D
:10406000AA24BB24650140E050E060E070E0E0E09D
:10407000F0E0C10181709070892BE9F0E60CF71C2B
:10408000081D191D9A01AB012A0D3B1D4C1D5D1D1C
:1040900080E090E0A0E0B0E0E614F7040805190520
:1040A00020F481E090E0A0E0B0E0BA01A901480F5F
:1040B000591F6A1F7B1FAA0CBB1CCC1CDD1C97FE62
:1040C00008C081E090E0A0E0B0E0A82AB92ACA2A9E
:1040D000DB2A3196E032F10549F0660C771C881C2A
:1040E000991C5694479437942794C3CFFA85EA894C
:1040F0002B893C898B859C85280F391F2E5F3F4F6C
:1041000017C0CA0181709070892B61F016950795D0
:10411000F794E79480E090E0A0E0B0E8E82AF92A7C
:104120000A2B1B2B76956795579547952F5F3F4F29
:1041300077FDE7CF0CC0440F551F661F771F17FD93
:104140004160EE0CFF1C001F111F21503040403019
:1041500090E0590790E0690790E4790760F32B8FAE
:104160003C8FDB01CA018F779070A070B0708034F3
:104170009105A105B10561F447FD0AC0E114F10400
:104180000105110529F0405C5F4F6F4F7F4F40786C
:104190001A8EFE1711F081E08A8F4D8F5E8F6F8F20
:1041A00078A383E0898FCE0149960E943123A0969F
:1041B000E2E10C94F828A8E1B0E0E1EEF0E20C9422
:1041C000E42869837A838B839C832D833E834F838A
:1041D0005887B9E0EB2EF12CEC0EFD1ECE010196B6
:1041E000B7010E9406248E010F5E1F4FCE01059677
:1041F000B8010E9406242985223008F47EC039893E
:10420000323010F4B8017CC08A859A8989278A8760
:10421000243011F0223031F4231709F06EC06EEE15
:1042200078E06EC0343039F41D861E861F86188AE9
:104230001C861B8604C0323021F484E08987B701D4
:104240005FC02B853C858B899C89281B390B3C875B
:104250002B87ED84FE840F851889AD88BE88CF88B2
:10426000D88CEA14FB040C051D0540F4EE0CFF1C71
:10427000001F111F215030403C872B8720E030E089
:1042800040E050E080E090E0A0E0B0E460E070E06A
:10429000EA14FB040C051D0540F0282B392B4A2B92
:1042A0005B2BEA18FB080C091D09B695A795979595
:1042B0008795EE0CFF1C001F111F6F5F7F4F6F3142
:1042C000710531F7DA01C9018F779070A070B07075
:1042D00080349105A105B10561F427FD0AC0E11400
:1042E000F1040105110529F0205C3F4F4F4F5F4F4E
:1042F00020782D873E874F87588BBE01675F7F4FA1
:10430000CB010E9431236896EAE00C940029A8E1D1
:10431000B0E0EDE8F1E20C94E82869837A838B83BE
:104320009C832D833E834F83588789E0E82EF12CB0
:10433000EC0EFD1ECE010196B7010E9406248E01EF
:104340000F5E1F4FCE010596B8010E940624898595
:10435000823040F08989823028F0C701B8010E947C
:104360007E2401C08FEF6896E6E00C940429A8E053
:10437000B0E0EDEBF1E20C94E5289B01AC0183E0A9
:104380008983DA01C9018827B7FD83959927AA2770
:10439000BB27B82E211531054105510519F482E0DE
:1043A00089833AC08823A9F0203080E0380780E074
:1043B000480780E8580729F460E070E080E09FEC4F
:1043C00030C0EE24FF248701E21AF30A040B150B18
:1043D00002C079018A018EE1C82ED12CDC82CB8209
:1043E000ED82FE820F831887C801B7010E94E22286
:1043F00001971816190684F4082E04C0EE0CFF1C51
:10440000001F111F0A94D2F7ED82FE820F831887D6
:10441000C81AD90ADC82CB82BA82CE0101960E94E8
:1044200031232896E9E00C940129ACE0B0E0EBE1FF
:10443000F2E20C94EC2869837A838B839C83CE010F
:104440000196BE016B5F7F4F0E9406248D818230F2
:1044500061F1823050F1843021F48E81882351F152
:104460002EC02F81388537FD20C06E812F31310558
:104470001CF06623F9F023C08EE190E0821B930BC1
:1044800029853A854B855C8504C0569547953795B7
:1044900027958A95D2F76623B1F0509540953095CF
:1044A00021953F4F4F4F5F4F0EC020E030E040E07E
:1044B00050E009C02FEF3FEF4FEF5FE704C020E06F
:1044C00030E040E050E8B901CA012C96E2E00C94DB
:1044D0000829A8E0B0E0EFE6F2E20C94E4287B01C2
:1044E0008C01611571058105910519F482E08983BC
:1044F00060C083E089838EE1C82ED12CDC82CB8220
:10450000ED82FE820F831887C801B7010E94E22264
:10451000FC013197F7FF3BC0222733272E1B3F0BAF
:1045200057016801022E04C0D694C794B794A7948B
:104530000A94D2F740E050E060E070E081E090E063
:10454000A0E0B0E004C0880F991FAA1FBB1F2A95E6
:10455000D2F70197A109B1098E219F21A023B12390
:104560000097A105B10521F041E050E060E070E066
:104570004A295B296C297D294D835E836F83788767
:104580008EE190E08E1B9F0B9C838B8312C0309733
:1045900081F00E2E04C0EE0CFF1C001F111F0A94A8
:1045A000D2F7ED82FE820F831887CE1ADF0ADC82F3
:1045B000CB821A82CE0101960E9431232896EAE02E
:1045C0000C940029EF92FF920F931F937B018C01B3
:1045D00080E0E81680E0F80681E0080780E0180730
:1045E00088F48FEFE816F1040105110531F028F089
:1045F00088E090E0A0E0B0E017C080E090E0A0E0AC
:10460000B0E012C080E0E81680E0F80680E008071D
:1046100081E0180728F088E190E0A0E0B0E004C055
:1046200080E190E0A0E0B0E020E230E040E050E047
:10463000281B390B4A0B5B0B04C016950795F794A2
:10464000E7948A95D2F7F701EA50F74F8081281B4B
:10465000310941095109C9011F910F91FF90EF9054
:104660000895DF92EF92FF920F931F93FC01E48075
:10467000F58006811781D1808081823048F480E006
:1046800090E0A0E1B0E0E82AF92A0A2B1B2BA5C094
:10469000843009F49FC0823021F4EE24FF24870186
:1046A00005C0E114F1040105110519F4E0E0F0E0A2
:1046B00096C0628173819FEF623879070CF05BC00E
:1046C00022E83FEF261B370B2A3131052CF020E082
:1046D00030E040E050E02AC0B801A701022E04C03B
:1046E00076956795579547950A94D2F781E090E0C3
:1046F000A0E0B0E004C0880F991FAA1FBB1F2A9535
:10470000D2F70197A109B1098E219F21A023B123DE
:104710000097A105B10521F081E090E0A0E0B0E0B4
:104720009A01AB01282B392B4A2B5B2BDA01C901EB
:104730008F779070A070B07080349105A105B1059D
:1047400039F427FF09C0205C3F4F4F4F5F4F04C033
:10475000215C3F4F4F4F5F4FE0E0F0E02030A0E0A2
:104760003A07A0E04A07A0E45A0710F0E1E0F0E0C1
:1047700079018A0127C06038710564F5FB01E158B1
:10478000FF4FD801C7018F779070A070B070803450
:104790009105A105B10539F4E7FE0DC080E490E074
:1047A000A0E0B0E004C08FE390E0A0E0B0E0E80E4D
:1047B000F91E0A1F1B1F17FF05C016950795F794D2
:1047C000E794319687E016950795F794E7948A95D4
:1047D000D1F705C0EE24FF248701EFEFF0E06E2F44
:1047E000679566276795902F9F77D794DD24D79498
:1047F0008E2F8695492F462B582F5D29B701CA0168
:104800001F910F91FF90EF90DF900895FC01DB0165
:10481000408151812281622F6F7770E0221F222711
:10482000221F9381892F880F822B282F30E0991F18
:104830009927991F11969C93119721153105A9F578
:10484000411551056105710511F482E037C082E818
:104850009FEF13969C938E9312979A01AB0167E09A
:10486000220F331F441F551F6A95D1F783E08C93A5
:104870000DC0220F331F441F551F12968D919C911E
:104880001397019713969C938E931297203080E094
:10489000380780E0480780E4580758F314962D93B2
:1048A0003D934D935C93179708952F3F310579F40D
:1048B000411551056105710519F484E08C93089543
:1048C00064FF03C081E08C9312C01C9210C02F576C
:1048D000304013963C932E93129783E08C9387E09D
:1048E000440F551F661F771F8A95D1F77064149681
:1048F0004D935D936D937C93179708951F93DC01FF
:10490000FB019C91923008F447C08081823008F40A
:1049100043C0943051F411961C91843099F58181F3
:10492000682F70E0611B71093FC0843021F0923024
:1049300031F48230B9F18181882389F12DC011963B
:104940001C9111978230F1F081811817D9F41296D9
:104950002D913C911397828193818217930794F054
:1049600028173907BCF014968D919D910D90BC913C
:10497000A02D2481358146815781281739074A07A0
:104980005B0718F4112341F00AC082179307A407AC
:10499000B50740F4112319F061E070E005C06FEF36
:1049A0007FEF02C060E070E0CB011F9108952F926D
:1049B0003F924F925F926F927F928F929F92AF92AF
:1049C000BF92CF92DF92EF92FF920F931F93DF93EC
:1049D000CF93CDB7DEB761970FB6F894DEBF0FBEA9
:1049E000CDBF3C017F876E876A01FC01178216826A
:1049F000838181FD03C06FEF7FEF6FC39E012F5F47
:104A00003F4F398B288BF3012381EE85FF8523FDF2
:104A1000859123FF8191FF87EE87882309F45AC38C
:104A2000853251F4EE85FF8523FD859123FF819129
:104A3000FF87EE87853229F490E0B3010E94222B94
:104A4000E2CF982F10E0882499241032B0F49B32E2
:104A500069F09C3228F4903251F0933271F40BC01B
:104A60009D3239F0903349F4116028C0126014600F
:104A700025C0186023C0106121C017FD2AC0892FEE
:104A800080538A3078F416FF06C0FAE09F9E902C7F
:104A90001124980E13C03AE0839E802C1124880EB6
:104AA00010620CC09E3221F416FD14C3106406C0BF
:104AB0009C3611F4106802C0983659F4EE85FF85D3
:104AC00023FD959123FF9191FF87EE87992309F0AC
:104AD000BCCF892F8554833020F4812F8061905E74
:104AE00007C0892F8556833008F09FC1812F8F7EA4
:104AF00086FD02C076E0972E6FE3F62EF8229536FB
:104B000019F4F0E4FF2A07C0963619F420E8F22AD7
:104B100002C091109A94F7FE0AC03BE3391518F4CD
:104B20005CE3B52E02C0B92CB39427E009C047E07E
:104B3000491520F4BB2447E0942EF7CF292DBB2440
:104B4000C60104969D878C87F60160817181828100
:104B50009381AE014F5F5F4F0B2D0E94C3296C0103
:104B60000981202E332400FF04C003FD02C01DE292
:104B700009C0F1FE02C01BE205C0F2FC02C010E059
:104B800001C010E2C1018C709070892BB9F1112322
:104B900011F483E001C084E0881510F088240AC075
:104BA000881AF3FC07C080E290E0B3010E94222B38
:104BB0008A94C9F7112329F0812F90E0B3010E9454
:104BC000222B23FE03C00CEC10E00EC000ED10E021
:104BD0000BC0E114F10409F0805290E0B3010E948F
:104BE000222B0F5F1F4F05C0EF2CFF24F0E1EF22B7
:104BF000FF24F8018491882361F714C1F7FE12C0E5
:104C0000BC0C24FE04C08A81813309F4BA941B14BD
:104C10001CF0BB24B3942DC0F8E0FB1550F538E030
:104C2000B32E27C0F6FC25C0892D90E08C159D057C
:104C30004CF02CEFC2162FEFD20624F030E8F32A06
:104C400001C09A94992049F0E2E0F0E0EC0FFD1FDA
:104C5000E90DF11D80818033A1F3F7FE0AC0B92C64
:104C6000B394892D90E0C816D90614F0992401C098
:104C70009C18F7FC03C025E030E009C01C141D049B
:104C80001CF021E030E003C096012F5F3F4F11235D
:104C900011F02F5F3F4F992029F0892D90E0019668
:104CA000280F391F882D90E02817390714F0882421
:104CB00001C0821A4F2C5524C20189709070892B33
:104CC00039F008C080E290E0B3010E94222B8A9460
:104CD0008820C1F7112329F0812F90E0B3010E94B1
:104CE000222B43FE07C008C080E390E0B3010E947E
:104CF000222B8A948820C1F7F7FE46C08601D7FE92
:104D000002C000E010E076010894E11CF11CE01AFA
:104D1000F10A41E050E04C0F5D1FE40EF51E260144
:104D20004B185108892D90E0AA24BB24A81AB90A6F
:104D30005FEF0F3F150729F48EE290E0B3010E9468
:104D4000222BC016D10634F0401651061CF4F70190
:104D5000808101C080E3015010400894E11CF11CE7
:104D60000A151B052CF090E0B3010E94222BE0CF26
:104D70000C151D0539F49A81963318F4953311F406
:104D800024FE81E390E04BC08A81813309F00F7EDD
:104D900090E0B3010E94222B9920A1F08EE290E0D6
:104DA000B3010E94222B12E0E1E0F0E0EC0FFD1FC6
:104DB000E10FF11D1F5F808190E0B3010E94222B63
:104DC0009A9491F744FC03C085E690E002C085E424
:104DD00090E0B3010E94222BD7FC05C0C114D1047E
:104DE00041F404FF06C0D094C194D108D3948DE25D
:104DF00001C08BE290E0B3010E94222B80E305C04A
:104E00008F5F26EF3FEFC20ED31E3AE0C316D104E8
:104E1000BCF790E0B3010E94222BC601C096B301FB
:104E20000E94222BCC84DD8452C1933631F093371B
:104E300099F0933509F059C023C0F6018081898328
:104E40005E010894A11CB11C22E030E0C20ED31E0A
:104E500021E0E22EF12C12C0F601A080B18016FDF7
:104E600003C06FEF7FEF02C0692D70E022E030E0F9
:104E7000C20ED31EC5010E94AE2A7C011F7713C04B
:104E8000F601A080B18016FD03C06FEF7FEF02C076
:104E9000692D70E022E030E0C20ED31EC5010E94F1
:104EA000A32A7C01106813FF07C01BC080E290E0BA
:104EB000B3010E94222B8A94882D90E0E816F9060F
:104EC000A8F30FC0F50117FD859117FF81915F01D0
:104ED00090E0B3010E94222B81108A940894E1088B
:104EE000F108E114F10471F7F2C0943611F099362B
:104EF00089F517FF08C0F601208131814281538175
:104F000084E090E00AC0F601808191819C014427F1
:104F100037FD4095542F82E090E0C80ED91E9FE6E1
:104F2000F92EF12257FF09C05095409530952195F3
:104F30003F4F4F4F5F4F90E8F92ACA01B901AE01C8
:104F40004F5F5F4F2AE030E00E94CD2BE82EE889CA
:104F5000EE1A41C0953721F41F7E2AE030E01CC0D4
:104F6000197F9F3661F0903720F4983509F0B2C070
:104F70000FC0903739F0983709F0ACC004C028E072
:104F800030E00AC0106114FD146020E130E004C07C
:104F900014FD166020E132E017FF08C0F6016081C1
:104FA00071818281938144E050E008C0F6018081E4
:104FB0009181BC0180E090E042E050E0C40ED51E3B
:104FC000AE014F5F5F4F0E94CD2BE82E5889E51A46
:104FD0008FE7F82EF122F6FE0BC08EEFF822E914CF
:104FE00038F4F4FE07C0F2FC05C09FEEF92202C0BF
:104FF0001E2D01C0192DF4FE0DC0FE01EE0DF11D98
:105000008081803319F4E9EEFE2208C01F5FF2FEB2
:1050100005C003C08F2D867809F01F5F0F2DF3FCAC
:1050200014C0F0FE0FC0181510F09E2C0BC09E2C63
:10503000980C911A182D06C080E290E0B3010E94EE
:10504000222B1F5F1815C0F304C0181510F4811A25
:1050500001C0882404FF0FC080E390E0B3010E94E8
:10506000222B02FF1DC001FD03C088E790E00EC0A7
:1050700088E590E00BC0802F867891F001FF02C098
:105080008BE201C080E2F7FC8DE290E0B3010E9468
:10509000222B06C080E390E0B3010E94222B9A9459
:1050A000E914C0F3EA94E1E0F0E0EC0FFD1FEE0D2F
:1050B000F11D808190E0B3010E94222BEE2091F738
:1050C00006C080E290E0B3010E94222B8A948820DF
:1050D000C1F799CCF30166817781CB0161960FB658
:1050E000F894DEBF0FBECDBFCF91DF911F910F911E
:1050F000FF90EF90DF90CF90BF90AF909F908F90F8
:105100007F906F905F904F903F902F900895629F97
:10511000D001739FF001829FE00DF11D649FE00DAF
:10512000F11D929FF00D839FF00D749FF00D659F10
:10513000F00D9927729FB00DE11DF91F639FB00D0F
:10514000E11DF91FBD01CF0111240895AA1BBB1B4E
:1051500051E107C0AA1FBB1FA617B70710F0A61B77
:10516000B70B881F991F5A95A9F780959095BC0198
:10517000CD010895A1E21A2EAA1BBB1BFD010DC093
:10518000AA1FBB1FEE1FFF1FA217B307E407F507F7
:1051900020F0A21BB30BE40BF50B661F771F881FD3
:1051A000991F1A9469F760957095809590959B0169
:1051B000AC01BD01CF0108952F923F924F925F92B3
:1051C0006F927F928F929F92AF92BF92CF92DF9217
:1051D000EF92FF920F931F93CF93DF93CDB7DEB77C
:1051E000CA1BDB0B0FB6F894DEBF0FBECDBF099410
:1051F0002A88398848885F846E847D848C849B8467
:10520000AA84B984C884DF80EE80FD800C811B8174
:10521000AA81B981CE0FD11D0FB6F894DEBF0FBEA3
:10522000CDBFED010895AF92BF92CF92DF92EF9282
:10523000FF920F931F93CF93DF93EC01A880B98067
:10524000CA80DB80A114B104C104D10441F484E21A
:10525000A82E89EDB82E8BE5C82E87E0D82EC60182
:10526000B5012DE133EF41E050E00E94692D27EABE
:1052700031E440E050E00E9487287B018C01C601A8
:10528000B5012DE133EF41E050E00E94692DCA01E4
:10529000B9012CEE34EF4FEF5FEF0E9487286E0DBF
:1052A0007F1D801F911F97FF04C061507040804098
:1052B0009048688379838A839B839B013F77C901E8
:1052C000DF91CF911F910F91FF90EF90DF90CF90E2
:1052D000BF90AF9008950E941329089586EF99E03A
:1052E0000E9413290895A0E0B0E08093F6099093FE
:1052F000F709A093F809B093F9090895FC018827EC
:105300009927E89421912032E9F3293010F02E30CA
:10531000C8F32B3241F02D3239F4689404C00E9456
:10532000CE2A820F911D219120532A30C0F31EF402
:10533000909581959F4F08951F93FC019927882789
:10534000BC01E89411911032E9F3193010F01E30CD
:10535000C8F31B3251F01D3249F4689406C00E9414
:10536000B92A610F711D811D911D119110531A30C1
:10537000B0F33EF490958095709561957F4F8F4F77
:105380009F4F1F910895283008F027E03327DA0156
:10539000990F311D87FD916000966105710539F403
:1053A00032602E5F3D9330E32A95E1F708959F3FE9
:1053B00030F080387105610509F03C5F3C5F3D933A
:1053C000913008F08068911DDF93CF931F930F9366
:1053D000FF92EF92192F987F9695E92F96959695C3
:1053E000E90FFF27E25CFE4F99273327EE24FF24C5
:1053F000A701E70105900894079428F4360FE71EEB
:10540000F81E491F511D660F771F881F991F0694AC
:10541000A1F70590079428F4E70EF81E491F561FC0
:10542000C11D770F881F991F661F0694A1F705906D
:10543000079428F4F80E491F561FC71FD11D880F67
:10544000991F661F771F0694A1F70590079420F413
:10545000490F561FC71FD81F990F661F771F881F38
:105460000694A9F784911095177041F0D695C795C9
:1054700057954795F794E7941A95C1F7E4EEF0E055
:1054800068941590159135916591959105907FE2FD
:105490007395E118F10A430B560BC90BD009C0F7FD
:1054A000E10CF11E431F561FC91FD01D7EF470333F
:1054B00011F48A95E6CFE894015030F0080F0AF411
:1054C0000027021708F4202F2395022F7A3328F0A3
:1054D00079E37D932A95E9F710C07D932A9589F6A3
:1054E000069497956795379517951794E118F10AE3
:1054F000430B560BC90BD00998F023957E917395F9
:105500007A3308F070E37C932013B8F77E917061D2
:105510007D9330F0839571E37D9370E32A95E1F7F5
:105520001124EF90FF900F911F91CF91DF91992758
:1055300087FD909508959111089581568A5108F438
:10554000805285580895FC0105906150704001100B
:10555000D8F7809590958E0F9F1F0895FC0161509C
:10556000704001900110D8F7809590958E0F9F1F85
:105570000895592F482F372F262F660F771F881F22
:10558000991F660F771F881F991F620F731F841F53
:10559000951F660F771F881F991F08957AE0979FC0
:1055A000902D879F802D910D112408950F931F93A7
:1055B000CF93DF938C01EB01009731F461157105F6
:1055C00019F420E030E038C081E090E06EE070E057
:1055D0000E94412CFC019C01009771F180E88383BB
:1055E000209771F0D387C28781E88383809142132B
:1055F00090914313892B21F4F0934313E0934213CA
:1056000001151105C9F011870087838182608383AA
:105610008091441390914513892B71F4F0934513B5
:10562000E09344138091461390914713892B21F402
:10563000F0934713E0934613C901DF91CF911F9177
:105640000F9108950F931F93CF93DF938C01EB017C
:105650008B8181FF1BC082FF0DC02E813F818C8119
:105660009D812817390764F4E881F9810193F98352
:10567000E88306C0E885F985802F0995892B31F4E8
:105680008E819F8101969F838E8302C00FEF1FEF53
:10569000C801DF91CF911F910F910895DF93CF93B0
:1056A000CDB7DEB7FE0135966191719180914413BB
:1056B00090914513AF010E94D724CF91DF910895B7
:1056C00060914413709145130E94222B08950F930B
:1056D0001F93CF93DF938C01E0914413F091451316
:1056E000838181FF21C0C0E0D0E00DC0E091441370
:1056F000F091451320853185BF01F9010995892B6A
:1057000011F0CFEFDFEFF80181918F01882371F75E
:10571000E0914413F0914513208531858AE0BF0163
:10572000F9010995892B11F0CFEFDFEFCE01DF9161
:10573000CF911F910F9108950F931F93DF93CF93F4
:10574000CDB7DEB72E970FB6F894DEBF0FBECDBF34
:105750000D891E8986E08C831A8309838FEF9FE76A
:105760009E838D839E01275E3F4FCE0101966F89F8
:10577000788DA9010E94D7242F813885020F131F2D
:10578000F80110822E960FB6F894DEBF0FBECDBF83
:10579000CF91DF911F910F910895FA01AA27283028
:1057A00051F1203181F1E8946F936E7F6E5F7F4FEE
:1057B0008F4F9F4FAF4FB1E03ED0B4E03CD0670F6A
:1057C000781F891F9A1FA11D680F791F8A1F911DBD
:1057D000A11D6A0F711D811D911DA11D20D009F40D
:1057E00068943F912AE0269F11243019305D31934F
:1057F000DEF6CF010895462F4770405D4193B3E038
:105800000FD0C9F7F6CF462F4F70405D4A3318F0DE
:10581000495D31FD4052419302D0A9F7EACFB4E08F
:10582000A6959795879577956795BA95C9F7009747
:105830006105710508959B01AC010A2E06945795E8
:10584000479537952795BA95C9F7620F731F841F3F
:10585000951FA01D0895F999FECF92BD81BDF89ABC
:10586000992780B50895262FF999FECF1FBA92BDCA
:1058700081BD20BD0FB6F894FA9AF99A0FBE019631
:1058800008950F931F93CF93DF93689F8001699FC3
:10589000100D789F100D1124C8010E945D2CEC01A1
:1058A000009729F060E070E0A8010E94622DCE010F
:1058B000DF91CF911F910F910895CF93DF93BC019A
:1058C0008230910510F462E070E0A0914A13B0912B
:1058D0004B13ED01E0E0F0E040E050E021C08881B2
:1058E00099818617970769F48A819B81309719F00F
:1058F0009383828304C090934B1380934A13FE01D9
:1059000034C06817790738F44115510519F0841728
:10591000950708F4AC01FE018A819B819C01E90195
:105920002097E9F641155105A9F1CA01861B970B8D
:10593000049708F4BA01E0E0F0E02AC08D919C9150
:10594000119784179507F9F46417750781F4129677
:105950008D919C911397309719F09383828304C0A3
:1059600090934B1380934A13FD0132964FC0CA01A6
:10597000861B970BFD01E80FF91F61937193029746
:105980008D939C9343C0FD01828193819C01D90139
:105990001097A1F68091481390914913892B41F4F7
:1059A0008091FC099091FD099093491380934813CD
:1059B0004091FE095091FF094115510541F44DB741
:1059C0005EB78091FA099091FB09481B590B209111
:1059D00048133091491324173507B0F4CA01821BCC
:1059E000930B8617970780F0AB014E5F5F4F8417CC
:1059F000950750F0420F531F50934913409348139B
:105A0000F9016193719302C0E0E0F0E0CF01DF9112
:105A1000CF910895CF93DF93009709F450C0EC0124
:105A200022971B821A82A0914A13B0914B131097B0
:105A300009F140E050E0AC17BD0708F1BB83AA8331
:105A4000FE0121913191E20FF31FAE17BF0779F4E8
:105A50008D919C911197280F391F2E5F3F4F3983ED
:105A6000288312968D919C9113979B838A8341156D
:105A7000510571F4D0934B13C0934A1320C0129672
:105A80008D919C911397AD01009711F0DC01D3CF5C
:105A9000FA01D383C28321913191E20FF31FCE1714
:105AA000DF0769F488819981280F391F2E5F3F4FE6
:105AB000FA01318320838A819B8193838283DF91E2
:105AC000CF910895DC0101C06D9341505040E0F743
:105AD000089597FB092E05260ED057FD04D04ADB0A
