:100000000C94D1000C94F0000C94F0000C94F000CF
:100010000C94F0000C94F0000C94F0000C94F000A0
:100020000C94F0000C94F0000C94F0000C94F00090
:100030000C94F0000C94F0000C94F0000C94F00080
:100040000C94F0000C94F0000C94F0000C94F00070
:100050000C94F0000C94F0000C94F0000C94F00060
:100060000C94F0000C94F0000C94F0000C94F00050
:100070000C94F0000C94F0000C94F0000C94F00040
:100080000C94F0000C94F0000C94F0000C94F00030
:100090000C94F0000C94F0000C94F0000C94F00020
:1000A0000C94F0000C94F0000C94F0000C94F00010
:1000B0000C94F0000C94F0000C94F0000C94F00000
:1000C0000C94F0000C94F0000C94F0000C94F000F0
:1000D0000C94F0000C94F0000C94F0000C94F000E0
:1000E0000C94F0000C94B5060C94BF060C94AB066F
:1000F0000C942A060C9455060C94C9060C94FF0522
:100100000C9480060C94C10B0C94EA0B0C94F00038
:100110000C94F0000C94F0000C94DD060C94D306C3
:1001200003020201010000FFFEFDFCFBF9F7F4EF02
:10013000621D7A18F41750266424FE22AD2B0C2978
:100140007A298C284E2FD73100004833122C00001A
:10015000181C281C081CDE1BF71B1E1B371BC01B92
:1001600000000000F61AA71A701B7C1A0C1B971AC5
:10017000D81AC91A881AE71A0104010101020101FB
:100180000101010101010101040108020101010154
:100190000201010201020101020102020101010149
:1001A000080011241FBECFEFD1E4DEBFCDBF13E0A6
:1001B000A0E0B2E0EAE9FAE700E00BBF02C0079076
:1001C0000D92A830B107D9F718E0A8E0B3E001C05C
:1001D0001D92AB34B107E1F70E94F8030C944B3D3C
:1001E0000C94000081E090E061E070E00E940D0C52
:1001F0000895EF92FF920F931F93662399F481E085
:1002000090E060E070E00E940D0C85E040E251EA71
:1002100067E070E020E030E002EF10E0EE24FF2421
:100220000E94400A1F910F91FF90EF900895EF9266
:10023000FF920F931F9380E090E062E070E00E94D5
:100240000D0C85E040E251EA67E070E020E030E02C
:1002500007E111E0EE24FF240E94400A1F910F9154
:10026000FF90EF900895DF93CF930F92CDB7DEB755
:10027000442341F481E1898384E0BE016F5F7F4FB5
:100280000E946D370F90CF91DF910895DF93CF9348
:100290000F92CDB7DEB76623E1F485E00E94340902
:1002A00080E090E060E070E00E940D0C80E092E061
:1002B0000E94A53882E090E09093090380930803A0
:1002C00081E1898384E0BE016F5F7F4F0E946D37BB
:1002D00003C081E00E94F6350F90CF91DF91089521
:1002E0008823A1F485E00E94340980E090E060E07A
:1002F00070E00E940D0C81E090E0909309038093E0
:10030000080388E292E00E94A538089581E00E94E7
:10031000F6350895EF92FF920F931F93DF93CF93DB
:10032000CDB7DEB7CF5FD0400FB6F894DEBF0FBEBB
:10033000CDBF80912A0390912B03A0912C03B09103
:100340002D030196A11DB11D80932A0390932B03C9
:10035000A0932C03B0932D032DB73EB72850304007
:100360000FB6F8943EBF0FBE2DBF4DB75EB74F5FBF
:100370005F4F8E010F5F1F4FEDB7FEB712830183F2
:100380002AE432E0FA013383228384839583A683AF
:10039000B7830E94DA382DB73EB72A5F3F4F0FB6BA
:1003A000F8943EBF0FBE2DBFEDB7FEB71283018399
:1003B0000E9493380F900F9081E090E060E070E031
:1003C0000E940D0C85E040E251EA67E070E020E019
:1003D00030E002EF10E0EE24FF240E94400AC150FA
:1003E000DF4F0FB6F894DEBF0FBECDBFCF91DF91C8
:1003F0001F910F91FF90EF900895EF92FF920F934E
:100400001F937C01E0911603F0911703309709F1D7
:10041000809118038217E9F4809119038317C9F4B6
:1004200080911A038417A9F480911B03851789F41E
:1004300080911C03861769F480911D03871749F486
:1004400080911E038E1529F480911F038F1509F4E6
:100450005DC000912003109121030115110501F1E8
:10046000809122038217E1F4809123038317C1F462
:10047000809124038417A1F480912503851781F4CA
:1004800080912603861761F480912703871741F432
:10049000809128038E1521F4809129038F15B9F1DD
:1004A000EF2B19F4A0E0B0E004C0012B49F5A1E066
:1004B000B0E08D010F5F1F4FFD01EE0FFF1FCD015B
:1004C000880F991F880F991F880F991FE80FF91F30
:1004D000EA5EFC4F11830083FD01EE0FFF1FEE0F5C
:1004E000FF1FEA0FFB1FEE0FFF1FE85EFC4F20838C
:1004F00031834283538364837583E682F78207C026
:10050000C7010FEF1FEFEE24E39403C08F01C70173
:10051000EE240E947E361F910F91FF90EF90089578
:10052000AF92CF92EF92FF920F931F93DF93CF93EF
:100530000F92CDB7DEB7882309F03FC0633521F4B1
:1005400081E0898381E405C0613449F481E08983D5
:1005500082E5BE016F5F7F4F0E946D3731C062350B
:1005600069F48EEB9AEB64E140E02FE00FE0EE24BB
:10057000E394CC24AA240E94463522C06430E9F4D6
:100580008091080390910903029791F48FE592E01E
:100590000E94A53884E040E854E86EE170E020E075
:1005A00030E00AEE12E0EE24FF240E94400A08C068
:1005B0008CE792E00E94A53803C081E00E94F635E6
:1005C0000F90CF91DF911F910F91FF90EF90CF90FF
:1005D000AF900895EF92FF920F931F93DF93CF9305
:1005E000CDB7DEB7CB50D1400FB6F894DEBF0FBE0B
:1005F000CDBF82E08A838EEB9AEB9C838B838091C4
:100600000B0390910C039E838D830E942E38898367
:1006100020910A032F5F20930A0300D000D000D05E
:10062000EDB7FEB731968E01035F1F4FADB7BEB772
:1006300012961C930E9311978EE992E09383828316
:10064000248315820E94DA380F900F900F900F903C
:10065000EDB7FEB7128301830E9493380F900F907D
:1006600082E0BE016E5F7F4F41E09E012F5F3F4FF2
:1006700000910A03EE24E3940E940A3784E040E8E4
:1006800054E86EE170E020E030E00AEE12E0EE2483
:10069000FF240E94400AC55FDE4F0FB6F894DEBF0C
:1006A0000FBECDBFCF91DF911F910F91FF90EF90C3
:1006B0000895CF92DF92EF920F93DF93CF9300D004
:1006C000CDB7DEB7409115034F5F409315038823E4
:1006D00009F03EC020E037C0F6018385843171F512
:1006E0008485882359F5818192818E5B9A4B31F5FF
:1006F000F6018585968597FF21C08081823039F487
:100700008381948190930C0380930B030BC08330FF
:10071000D1F5ADE0B3E0F601339688E001900D929B
:100720008150E1F782EB92E00E94A538F6018385C3
:100730006485A60120E80E94BB3628C081E190E0D4
:10074000C80ED91E2F5F2E1538F2433098F404C01E
:100750008A3EC9F4433050F481E040E050E060E16B
:1007600070E024E000E00E94793510C080EC92E057
:100770000E94A53819821A8283E5BE016F5F7F4F00
:100780000E946D3703C081E00E94F6350F900F90F4
:10079000CF91DF910F91EF90DF90CF900895EF927E
:1007A000FF920F931F938823D9F48AED92E00E9461
:1007B000A53881E040E050E060E170E024E000E036
:1007C0000E94793585E040E251EA67E070E020E080
:1007D00030E007E111E0EE24FF240E94400A03C04C
:1007E00081E00E94F6351F910F91FF90EF900895E0
:1007F0000E94AF37882311F00E94E7060E945B0C2D
:1008000080E090E060E070E00E940D0C80E090E0FD
:1008100061E070E00E940D0C81E090E061E070E02A
:100820000E940D0C789482E00E94E305882311F069
:100830000E94E70685E694E069E474E00E94473888
:1008400080E090E00E9449048CEE92E00E94A5387E
:1008500081E00E94F6350E949937FDCFDF93CF9358
:100860000F92CDB7DEB70E94660782E0BE016F5FD0
:100870007F4F41E00E94D105813019F02FEF3FEF0B
:1008800003C08981282F30E0C9010F90CF91DF91FB
:1008900008950F931F93DF93CF930F92CDB7DEB7D9
:1008A0008E010F5F1F4F02C00E94660782E0B801F1
:1008B00041E00E94D1058823B9F3898190E00F902F
:1008C000CF91DF911F910F9108950F931F93DF93A5
:1008D000CF930F92CDB7DEB789838A30A9F48DE02C
:1008E00089838E010F5F1F4F02C00E94660782E05E
:1008F000B80141E00E94DA058823B9F38AE08983D0
:1009000003C00E94660703C08E010F5F1F4F82E085
:10091000B80141E00E94DA05882399F380E090E075
:100920000F90CF91DF911F910F910895759A6D9A55
:10093000749A6C9A6F986E989A9AA29A8FEF84B96B
:1009400082E285B900000000A29814B815B802C070
:100950007598759A679BFCCF5E98569A5F98579AE0
:100960000895DC0180912E03882311F080E0089522
:100970009091300380912F03981710F0875F01C08A
:100980008150891B282F681708F4262F8091330384
:10099000820F80933303322F0DC0E92FF0E0E55D25
:1009A000F84F8C918083993011F490E001C09F5FE3
:1009B00031501196332389F790933003822F089595
:1009C000DC0190913403992311F480E008959A306A
:1009D00058F080913203809331038AE0809334038E
:1009E0006A3020F09AE003C0961708F0962F209105
:1009F000310340913403392F0CC0E22FF0E0EB5C5F
:100A0000F84F80818C932F5F2A3009F420E01196F3
:100A10003150332391F720933103491B4093340322
:100A2000892F08950F931F93DF93CF9300D000D0A9
:100A3000CDB7DEB76CB167FD1DC0809134038A303D
:100A4000C8F48F5F8093340314B815B8759800000C
:100A500000009091320383B1E92FF0E0EB5CF84F96
:100A60008083759A993019F41092320303C09F5F06
:100A700090933203B0913303BB2309F056C088C072
:100A800061157105D1F4AA2329F020E030E040E09F
:100A900050E0A0E004B9E92FF0E0E55DF84F808177
:100AA00085B97498749A14B815B8993011F490E017
:100AB00001C09F5F1150B15049C02093350330935E
:100AC00036034093370350933803A0932E0390933B
:100AD0002F03B0933303AA2309F05AC0211531051F
:100AE0004105510529F485E393E00E94CC0750C0ED
:100AF000CE0101960E94CC0789819A81AB81BC818D
:100B000020913503309136034091370350913803DB
:100B1000821B930BA40BB50B89589341A040B040A6
:100B2000B8F181E080932E0333C0209135033091DA
:100B300036034091370350913803A0912E039091D2
:100B40002F031FEF70E0607470700FEFBB2379F418
:100B50002093350330933603409337035093380383
:100B6000A0932E0390932F031092330311C01123EF
:100B700009F086CF20933503309336034093370333
:100B800050933803A0932E0390932F03B093330315
:100B90000F900F900F900F90CF91DF911F910F91B9
:100BA0000895823011F080E00895CB01642F0E94F7
:100BB000E0040895823011F080E00895CB01642FA5
:100BC0000E94B1040895823011F085E808950E94D2
:100BD000960480E0089590933A0380933903089532
:100BE00090933C0380933B03089590933E0380933E
:100BF0003D0308959093400380933F0308951F920F
:100C00000F920FB60F920BB60F9211242F933F93B2
:100C10004F935F936F937F938F939F93AF93BF9304
:100C2000EF93FF93E0913903F0913A030995FF9117
:100C3000EF91BF91AF919F918F917F916F915F9154
:100C40004F913F912F910F900BBE0F900FBE0F90C1
:100C50001F9018951F920F920FB60F920BB60F921E
:100C600011242F933F934F935F936F937F938F93B1
:100C70009F93AF93BF93EF93FF93E0913B03F0916A
:100C80003C030995FF91EF91BF91AF919F918F9197
:100C90007F916F915F914F913F912F910F900BBE7C
:100CA0000F900FBE0F901F9018951F920F920FB6C6
:100CB0000F920BB60F9211242F933F934F935F9394
:100CC0006F937F938F939F93AF93BF93EF93FF9314
:100CD000E0913D03F0913E030995FF91EF91BF91A3
:100CE000AF919F918F917F916F915F914F913F91C4
:100CF0002F910F900BBE0F900FBE0F901F90189565
:100D00001F920F920FB60F920BB60F9211242F93D2
:100D10003F934F935F936F937F938F939F93AF9383
:100D2000BF93EF93FF93E0913F03F0914003099548
:100D3000FF91EF91BF91AF919F918F917F916F91B3
:100D40005F914F913F912F910F900BBE0F900FBE6F
:100D50000F901F9018951F920F920FB60F921124AB
:100D60000F900FBE0F901F9018951F920F920FB605
:100D70000F9211240F900FBE0F901F9018951F9285
:100D80000F920FB60F9211240F900FBE0F901F906D
:100D900018951F920F920FB60F9211240F900FBE4D
:100DA0000F901F9018951F920F920FB60F9211245B
:100DB0000F900FBE0F901F9018951F920F920FB6B5
:100DC0000F9211240F900FBE0F901F9018950E9444
:100DD0005B0C8FEF9FEF0E94020880E090E062E0E2
:100DE00070E00E940D0C81E090E062E070E00E94F3
:100DF0000D0CEFCFCF92DF92EF92FF920F931F93E4
:100E0000CF93DF938C017B016A01CB01800F911F8F
:100E10008150904110F085E816C0C0E0D0E00FC0CE
:100E2000C8010E94113BF601EC0FFD1F608186177F
:100E300019F0C8010E94193B0F5F1F4F2196CE1574
:100E4000DF0570F380E0DF91CF911F910F91FF904C
:100E5000EF90DF90CF900895CF92DF92EF92FF92C4
:100E60000F931F93CF93DF938B017A016901813038
:100E7000910531F4862F642FA9010E947E0C1DC0BC
:100E8000892B11F088EE19C0CA01860F971F815077
:100E9000904110F085E811C0C0E0D0E00AC0CE015A
:100EA000800F911F0E94113BF601EC0FFD1F808304
:100EB0002196CE15DF0598F380E0DF91CF911F9149
:100EC0000F91FF90EF90DF90CF9008950E940A0A53
:100ED0000E94120508950E947C070E947B0C0E94CC
:100EE0009D07A89588E10FB6F89480936000109252
:100EF00060000FBE80E008959FB7F894E0E0F0E056
:100F000089E08093570084919FBF8F70823011F0E9
:100F100090E001C09FE080E80FB6F89480936100F4
:100F2000909361000FBE80E180933501809334017E
:100F300080933301809332010895109241031092FF
:100F400075078FEF8093420380934303809344039C
:100F5000E3E4F7E09FEF948311821082399687E0F3
:100F6000E937F807C1F780E28093B60088EA8093FA
:100F7000DC008FE08093F4009093F3009093F200F4
:100F80009093F10082E08093E0008091DF00826026
:100F90008093DF0008950895FC018091DE0080FDBC
:100FA000FCCF2091E100822F2091E200922F20912E
:100FB000E300A22F2091E400B22F24E0880F991FB4
:100FC000AA1FBB1F2A95D1F780839183A283B38385
:100FD0000895FC012091E900822F2091EA00922FD0
:100FE0002091EB00A22F2091EC00B22F34E0880F6B
:100FF000991FAA1FBB1F3A95D1F780839183A283C3
:10100000B3830895AC018436910518F060E070E078
:101010001EC07FB7F89461E01AC057FD02C09A0164
:1010200002C02FEF3FE7C901880F991F9095819566
:101030009F4F9093250180932401FABBE0932101F7
:10104000D09BFECF421B530B1092210102C0F1E056
:10105000E2E04115510509F761117FBF089520E0D5
:1010600090E0FC01B3E0EE0FFF1FBA95E1F7E80F47
:10107000F91FE15CF84F84819581892B09F021E00B
:10108000822F0895AF92BF92CF92DF92EF92FF929C
:101090000F931F938091420390E0FC0113E0EE0F49
:1010A000FF1F1A95E1F7E80FF91FE15CF84FA080E8
:1010B000B180C280D38080914103882309F46BC042
:1010C000D092F800C092F700B092F600A092F5001E
:1010D0008091DF0080FD08C081E08093E000809176
:1010E000DF0081608093DF002091E100822F20915A
:1010F000E200922F2091E300A22F2091E400B22F72
:101100009C01AD012F5F3F4F4F4F5F4FDA01C90187
:101110008A259B25AC25BD2580709070A070B87F76
:101120000097A105B10531F4A216B306C406D50691
:10113000C0F109C0D601C501B7705770281739072B
:101140004A075B0770F180915D01883068F5E09097
:101150004503F0904603009147031091480308941B
:10116000E11CF11C011D111DEA14FB040C051D05F9
:10117000D9F48091E100282F8091E200382F8091EE
:10118000E300482F8091E400582F2E153F054007BB
:10119000510779F706C08091DF008E7F8093DF00D2
:1011A00003C081E0809375071F910F91FF90EF902E
:1011B000DF90CF90BF90AF9008951F931FB7F89422
:1011C00080917507882309F44CC0109275073091FF
:1011D0004103332309F445C0809143038F3F59F401
:1011E000809144038F3F39F48091420380934403FC
:1011F0008093430312C0209142038091440390E006
:10120000FC0153E0EE0FFF1F5A95E1F7E80FF91FBD
:10121000E15CF84F2087209344038091420390E0E3
:10122000FC0143E0EE0FFF1F4A95E1F7E80FF91FBD
:10123000E15CF84F8085809342038091440390E005
:10124000FC0123E0EE0FFF1F2A95E1F7E80FF91FDD
:10125000E15CF84F8FEF80873150309341030E945B
:1012600042081FBF1F910895FF920F931F93182FDD
:10127000863010F08AE8C5C0FFB6F8940E94DD08F9
:1012800000914103002309F4C0C040914203242F80
:10129000842F302F1217F1F5212F30E0141781F42D
:1012A000F901A3E0EE0FFF1FAA95E1F7E20FF31F8C
:1012B000E15CF84F8085809342030E94420818C089
:1012C00090E0DC01E3E0AA0FBB1FEA95E1F7A80F6D
:1012D000B91FA15CB84FF90173E0EE0FFF1F7A95BB
:1012E000E1F7E20FF31FE15CF84F808518968C93CD
:1012F000812F90E0FC0163E0EE0FFF1F6A95E1F79C
:10130000E80FF91FE15CF84F8FEF808701500093E1
:10131000410362C0822F90E0FC0153E0EE0FFF1FFB
:101320005A95E1F7E80FF91FE15CF84F508531500D
:10133000822F09F46AC0252FADCF1217D1F5209165
:1013400044031317B1F4121721F48FEF8093440371
:101350000DC0812F90E0FC0143E0EE0FFF1F4A9586
:10136000E1F7E80FF91FE15CF84F808580934303B4
:1013700033C0842F90E0DC0133E0AA0FBB1F3A9505
:10138000E1F7A80FB91FA15CB84F812F90E0FC01D5
:1013900003E0EE0FFF1F0A95E1F7E80FF91FE15C8C
:1013A000F84F808518968C931217B1F4409344033C
:1013B00013C0822F90E0FC0173E0EE0FFF1F7A95BF
:1013C000E1F7E80FF91FE15CF84F422F20852F3F2E
:1013D00009F0B3CF80E00FC0812F90E0FC0163E003
:1013E000EE0FFF1F6A95E1F7E80FF91FE15CF84F78
:1013F0001582148281E0FFBE882311F489E801C0C0
:1014000080E01F910F91FF90089530914303232FA7
:10141000432FDDCF1F930E94DD081FEF25C06FB75C
:10142000F894822F90E0FC01B3E0EE0FFF1FBA9515
:10143000E1F7E80FF91FE15CF84F20854481558101
:1014400086819781108715821482178216822F3F1A
:1014500009F43FEF6FBF4115510551F0309344033C
:1014600020934303FA0109953091440320914303EB
:101470002F3FA9F630934403209343031F9108950F
:101480002F923F924F925F926F927F928F929F9294
:10149000AF92BF92CF92DF92EF92FF920F931F9382
:1014A000DF93CF9300D000D00F92CDB7DEB7582E88
:1014B0001801FB82EA8205E0081710F48AE820C1CF
:1014C0002114310409F419C190E09D838C83FC013F
:1014D000A3E0EE0FFF1FAA95E1F7E80FF91FE15C0B
:1014E000F84F84819581892B11F088E809C1E4E0E7
:1014F0007695679557954795EA95D1F7211531056A
:1015000029F02130310509F0F8C026C0DB01CA01FD
:101510000897A109B109885F9F4FAF4FB74008F006
:10152000EEC02091E100822F2091E200922F2091C5
:10153000E300A22F2091E400B22F7A018B01E80E84
:10154000F91E0A1F1B1F8FEF9FEFAFEFBFE0E822CE
:10155000F9220A231B2320C02091E100822F209131
:10156000E200922F2091E300A22F2091E400B22FFD
:101570008A019B01081B190B2A0B3B0BD901C801DF
:10158000BF700897A109B109885F9F4FAF4FB7405F
:1015900008F0B5C07A018B012FB72983F8946FEF5B
:1015A000862E6FEF962E6FEFA62E6FE0B62E8E2052
:1015B0009F20A022B1220E94DD08609042033FEFED
:1015C000631671F040904103C62CD62C77248FEF20
:1015D0009FEFAFEFB7E0E822F9220A231B2367C091
:1015E00050924203EC81FD8153E0EE0FFF1F5A95AC
:1015F000E1F7AC81BD81EA0FFB1FE15CF84F60862B
:101600005AC0BFEFDB1609F44DC06D2D70E0FB0131
:1016100043E0EE0FFF1F4A95E1F7E60FF71FE15C8D
:10162000F84F2081318142815381D501C401822745
:101630009327A427B52780709070A070B87F00977B
:10164000A105B10539F4281539054A055B0508F4EB
:101650006FC007C05770E216F3060407150708F4B9
:1016600067C0EC81FD8133E0EE0FFF1F3A95E1F793
:101670000C811D81E00FF11FE15CF84FD0866D14E5
:1016800019F45092420317C08C2D90E0FC0123E026
:10169000EE0FFF1F2A95E1F7E80FF91FE15CF84F05
:1016A000508609C08FEFDC2C7394CD2CD82E741487
:1016B00008F4A7CF49C0EC81FD8193E0EE0FFF1F36
:1016C0009A95E1F72C813D81E20FF31FE15CF84F21
:1016D00080829182A282B382358224828A819B8118
:1016E00097838683809141038F5F809341030E949B
:1016F000420899819FBF80E003C088EE01C08BE85B
:101700000F900F900F900F900F90CF91DF911F913E
:101710000F91FF90EF90DF90CF90BF90AF909F9090
:101720008F907F906F905F904F903F902F90089593
:10173000FB0183E0EE0FFF1F8A95E1F7E60FF71F2D
:10174000E15CF84F8085B0CF8C2D90E0FC0103E088
:10175000EE0FFF1F0A95E1F7E80FF91FE15CF84F64
:101760005086EC81FD8113E0EE0FFF1F1A95E1F723
:10177000AC81BD81EA0FFB1FE15CF84F8FEF8087E2
:101780009ACF1F920F920FB60F9211242F933F936F
:101790008F939F938091E1009091E2002091E3006C
:1017A0003091E400809345039093460320934703D0
:1017B0003093480380914103882319F081E080939E
:1017C00075079F918F913F912F910F900FBE0F90B2
:1017D0001F9018951F920F920FB60F9211248F939E
:1017E0008FEF8093E4008093E3008093E200809386
:1017F000E1008F910F900FBE0F901F90189581E020
:1018000008955E9A569A5F98579A6C9A7498749A4B
:101810005E98569A5F98579A089545B1209A219AF2
:10182000019711F431E001C030E06115710531F02C
:101830002091490361307105A1F40AC081E090E074
:1018400002C0880F991F3A95E2F72091490326C0FC
:1018500002C0660F771F3A95E2F7862F80952823FE
:101860001EC0822F90E0032E02C0959587950A94A2
:10187000E2F780FF0CC081E090E002C0880F991F62
:101880003A95E2F780958223809349030AC081E06C
:1018900090E002C0880F991F3A95E2F7282B209319
:1018A000490380914903809583704C7F842B85B9CF
:1018B0000E94010C089510924903209A219A289AB7
:1018C000299A0E94010C089508955E9A569A5F988D
:1018D000579A75986D9A289A209823B1759A209AEC
:1018E0005E98569A5F98579A30E02095309521700F
:1018F0003070C9010895A59A9D9A0895EF92FF92BC
:101900000F931F93DF93CF93CDB7DEB7C054D04072
:101910000FB6F894DEBF0FBECDBFF82EE62E142F03
:10192000052F749A759A6C9A6D9A5E9A5F9A569A78
:10193000579AA2989A9AA5989D9A14B815B887E0D4
:1019400084B983E58CBDFE0131964E2F93E09E0154
:10195000205C3F4F8E2F841BA598000000000000E4
:101960000000000000000000000000000000000077
:10197000000000000000000000009EBD0DB407FE46
:10198000FDCF8F778EBD0DB407FEFDCF1EBC0DB40D
:1019900007FEFDCF8EB5A59A8083E217F30711F0FD
:1019A0003196D8CF1CBC20980E949604FE01319637
:1019B00020E030E0AE014F5B5F4F81912827022E7F
:1019C0002295207F2025032E322F22952F7002266C
:1019D000269532272327220F220F220F2025E417D6
:1019E000F50759F7232B11F085E80DC09E012F5FF5
:1019F0003F4F2F0D311D812F902FB9014E2D50E0FB
:101A00000E943E3880E0C05CDF4F0FB6F894DEBF26
:101A10000FBECDBFCF91DF911F910F91FF90EF903F
:101A20000895BC01009721F08EEF96E00E94460DCC
:101A300008958EEF96E060E070E00E94DB0D08955F
:101A40000F931F93CF93DF938EEF96E00E943F0D8D
:101A5000C6EED6E00AE413E0198308838EEF96E021
:101A6000BE010E94460D249606561F4F86E0CE3FCB
:101A7000D80791F7DF91CF911F910F910895FC0145
:101A8000118210821382128214820895CF93DF9301
:101A9000DC01EB019FB7F89414968C91149788237E
:101AA00021F411967C936E9306C01296ED91FC91F1
:101AB0001397738362831396DC93CE9312971B82E2
:101AC0001A8214968C9114978F5F14968C939FBFF3
:101AD000DF91CF9108959F92AF92BF92CF92DF9204
:101AE000EF92FF920F931F93CF93DF938C015B01D3
:101AF0006A019FB6F894DC0114968C91882319F43E
:101B0000C0E0D0E04AC0F801C081D1814115510543
:101B1000B1F07E0111C0D60112966D917C911397A0
:101B2000ED91FC91888199810995882359F47E0172
:101B30008A819B819C01E901209769F72EC020973B
:101B400061F17E01AB2849F5F801808191812A81FC
:101B50003B81C817D90719F43183208305C0D70109
:101B600013963C932E931297F80182819381C817A4
:101B7000D90711F4F382E282D80114968C9114975C
:101B8000815014968C9314978D919C911197892B69
:101B900021F413961C921E9212979FBECE01DF91E4
:101BA000CF911F910F91FF90EF90DF90CF90BF905A
:101BB000AF909F900895AB0160E070E00E946B0DC4
:101BC0000895AB0161E070E00E946B0D0895CF9322
:101BD000DF93EC010BC0CE0160E070E00E94DB0DF2
:101BE000009711F41C8205C00E94110D8C8188237E
:101BF00091F7DF91CF910895809141018F718830E5
:101C0000F1F481E080934F0189E08093420180915B
:101C10004F0180FD14C08EE690E00E940208809182
:101C20004F0180FD0CC08EE690E00E94020880917A
:101C30004F0180FD04C08EE690E00E9402080895E6
:101C40001F93182F809196078F30D1F49FB7F89487
:101C50007894809139018D7F8093390180919F071D
:101C60008823E1F39FBF10929F0780914F018CE47E
:101C700080934E01183011F0133011F488E0AFC199
:101C8000809141018F7180939607183009F44BC001
:101C9000193050F4143009F493C0163009F49BC085
:101CA000133009F097C155C01F3069F0103120F48E
:101CB000193009F08FC163C0163109F4C2C019315F
:101CC00009F088C122C183E0809342010E942E382E
:101CD00080936D0180916E019770887F982B90930F
:101CE0006E0180914F0180E880934E01000000005A
:101CF00000000000000000000000000000000000E4
:101D00000000000000000000000000008091390188
:101D100082608093390183E290E00E940208109370
:101D200096078FE05EC1883009F454C110934201D8
:101D300000000000000000000000000000000000A3
:101D40000000000000000000000000000000000093
:101D500041C1883009F43EC11093420100000000E7
:101D60000000000000000000000000000000000073
:101D70000000000000000000000000002BC18830BF
:101D800021F1893020F4863009F024C105C0863164
:101D900019F0893109F01EC189E0809342010000E9
:101DA0000000000000000000000000000000000033
:101DB00000000000000000000000000000000AC158
:101DC000883019F0893021F405C10E94FC0D02C150
:101DD00010934201FFC0893059F08A3020F48830D6
:101DE00009F0F8C019C0863119F0893109F0F2C044
:101DF00086E0809342010000000000000000000027
:101E000000000000000000000000000000000000D2
:101E1000000000000000DEC00E94FC0D1093420193
:101E200000000000000000000000000000000000B2
:101E300000000000000000000000000000000000A2
:101E4000C9C08830F9F0893020F4863009F0C2C06A
:101E50002EC0893019F0893109F0BCC086E1809329
:101E6000420100000000000000000000000000002F
:101E70000000000000000000000000000000000062
:101E80000000A8C00E94FC0D109342010000000059
:101E90000000000000000000000000000000000042
:101EA00000000000000000000000000093C089E076
:101EB00080934201000000000000000000000000CC
:101EC0000000000000000000000000000000000012
:101ED00000000000809141018F7180939607893046
:101EE00009F07FC0109342010000000000000000D4
:101EF00000000000000000000000000000000000E2
:101F0000000000000000000065C0883009F44EC0E9
:101F1000893020F4863009F05DC019C0893021F085
:101F2000863109F057C013C0109342010000000031
:101F300000000000000000000000000000000000A1
:101F400000000000000000000000000043C089E025
:101F5000809342010000000000000000000000002B
:101F60000000000000000000000000000000000071
:101F700000000000809141018F71809396078930A5
:101F800009F02FC089E180934201000000000000A9
:101F90000000000000000000000000000000000041
:101FA0000000000000000000000014C00E94FC0DB2
:101FB000109342010000000000000000000000003B
:101FC0000000000000000000000000000000000011
:101FD00000000000809141018F718F31D9F380930F
:101FE00096071F910895809187078823E1F08091DB
:101FF000A0078823C1F48091030790910407892BDF
:1020000039F48AE90E94190D90930407809303071D
:102010008091030790910407892B29F0109287077C
:1020200086E10E94200E80918C07882351F088E879
:1020300097E060E070E00E94DB0D009711F00E94D5
:102040002E108091A007823019F0853031F403C042
:102050000E94911108950E94E8110895EF92FF9255
:102060000F931F93CF93DF937C01DC010D911C91A3
:10207000D8011796ED91FC9118978081809398076D
:10208000C82FD0E02196CE0FDF1F98812981809143
:102090008107882311F52D3310F02CE303C0222390
:1020A00009F421E092959695969593708FEF989FFD
:1020B000C001112430E0FC01E29FC001E39F900DBC
:1020C000F29F900D112464EB70E00E94BF376F3FC8
:1020D000710509F038F4262F06C02D3318F4220FAD
:1020E000220F01C02FEF2883D8011296FC92EE92A6
:1020F0001197C8010E94801CDF91CF911F910F9111
:10210000FF90EF900895CF92DF92EF92FF920F939E
:102110001F93CF93DF93E0910307F091040730976B
:1021200009F449C0C081D181C0904701D0907B01A2
:10213000D7FC41C082E0D80E0AE910E00D19110960
:10214000EEEFDE0E0C0F1D1FED2CFF2497012F5F0D
:102150003F4FC80160E871E0A9010E943E38F801D4
:10216000D292F887EF83EE0EFF1EF701C2828091B4
:102170004C018F7780934C0180914C018068809353
:102180004C01609103077091040788E897E00E9472
:10219000460D8AE90E94190D909304078093030766
:1021A000892B31F489E00E94200E81E0809387071B
:1021B00080E480934F01DF91CF911F910F91FF90A9
:1021C000EF90DF90CF9008951F931091A0071130EA
:1021D000C9F48091420182958695877080930507A6
:1021E00082E08093A0078091030790910407892BD8
:1021F00031F489E00E94200E1093870703C086E126
:102200000E94200E1F9108950F931F93CF93DF9389
:10221000EC018B01442349F090916C01809195076A
:102220008295807F9F70892B03C080916C018F7095
:1022300080936C010230110598F4442369F0909169
:102240006C0180918D07880F8E70917F892B809310
:102250006C0110926F0117C080916C018E6011C0EB
:10226000809191078295807F90919407892B80932C
:102270006F0190916C0180918D07880F8E70917F16
:10228000892B80936C0189E10E94200E8931D9F756
:102290000130110551F480919807833118F080E4E2
:1022A00092E005C080E890E002C089E090E00E94E2
:1022B00002081FB7F8948091390182608093390138
:1022C000809139018D7F80933901288130E0215040
:1022D000304080E891E0BE01A9010E943E3881E0D3
:1022E0008093A0071FBFDF91CF911F910F91089599
:1022F000FC018091A007882311F086E80895F093EF
:102300009307E09392078781908590939A07809333
:102310009907009711F488EE08950E94041180E057
:1023200008951092A007809105078330B1F08430A2
:1023300028F4882331F08130E1F409C08530C9F4F4
:1023400012C0609192077091930780E017C060916E
:1023500092077091930787E811C06091920770917E
:10236000930781EE0BC0609192077091930789EEFD
:1023700005C0609192077091930785E80E94CE2D69
:1023800008959091470180910607891710F4909362
:1023900006078091070790910807A0910907B0915F
:1023A0000A070197A109B1098093070790930807CD
:1023B000A0930907B0930A070097A105B10521F082
:1023C0008FEF80934701089585E08093A0070895DB
:1023D000809155018F77809355018CE480934E0155
:1023E0001092A00786E10E94200E90910607983374
:1023F00020F08FEF809306070AC08FEF989FC001EF
:10240000112467E370E00E94BF3760930607809154
:1024100006070E94A13108950F931F93082F809102
:10242000A007882341F0809196078F3011F086E84D
:1024300046C081E844C08091550180688093550171
:1024400010E110934F0181EC91E10E94F50510938A
:102450004E0186E00E94200E863051F08091550199
:102460008F77809355018CE480934E0185E827C0D7
:1024700084E08093A0071092060780EC93E0A0E030
:10248000B0E004C0880F991FAA1FBB1F0A95D2F79E
:1024900080549C4FAF4FBF4F23E0B695A7959795BB
:1024A00087952A95D1F78093070790930807A09303
:1024B0000907B0930A078FEF8093470180E01F91CF
:1024C0000F910895282F85FD03C0982F9F7304C096
:1024D000982F91959F719195E0E2F1E08491891791
:1024E00034F03F968491981714F0822F0CC0803EF0
:1024F0003CF080323CF487FF06C08F71806203C0DD
:1025000080E201C08FE18068089584E080938D07A8
:1025100023E0209394078FEF9FEF9093830780939E
:10252000820790938607809385078BE080938F07BF
:102530001092810780E098EFAFEFB7E080939B07A0
:1025400090939C07A0939D07B0939E078AE091E02B
:102550009093800780937F078AE08093970782E0BB
:1025600080938E0785E0809391072093950783E8F9
:102570000E9462128093760781E080938407109214
:102580009007089585FD03C0982F9F7304C0982F6E
:1025900091959F719195E0E2F1E080E0249192178E
:1025A00024F029173CF4815008958F5F31968031D3
:1025B000A9F780E00895282F8AE091E090938007A2
:1025C00080937F078AE08093970782E080938E074D
:1025D0002230A1F0233018F4222339F004C0203136
:1025E00091F0213111F180E0089580914C018C7FB0
:1025F00080934C01809157018B7F0EC080914C01DC
:102600008C7F816004C080914C018C7F82608093BC
:102610004C0180915701846080935701809155014E
:10262000807F8093550181E0089580914C01836003
:1026300080934C0180915701846080935701809171
:102640005501807F81608093550181E008958091DC
:102650008207909183078093620190936301E7E77B
:10266000F7E0A4E6B1E081918D9387E0EF37F807BA
:10267000D1F78091850790918607809360019093B0
:10268000610190914801809184078295880F80763E
:102690009F79892B8093480190916F0180919407D5
:1026A0008F70907F892B80936F0190916E01809144
:1026B0009007880F880F880F8870977F892B8093E9
:1026C0006E0190916F01809191078295807F9F703C
:1026D000892B80936F01809181070E94DB1290917A
:1026E000480180918F078F71907E892B80934801DC
:1026F000809176070E94C212909145018F70907F61
:10270000892B809345010895FF920F931F93CF93D8
:10271000DF93EB019091A007943009F4F9C08E3457
:1027200031F0893541F4888180939507F5C088811F
:1027300080938D07F1C0209196072F3011F481E826
:10274000ECC08B3009F4D6C08C3070F4823009F4C0
:1027500090C0833018F48823B1F115C0833009F498
:1027600099C0843081F45CC0833511F1843528F43C
:102770008F3459F0803539F410C0873509F46DC0B5
:10278000803F09F494C084EFC8C098819093940767
:1027900080916F019F70807F68C08881998180934C
:1027A0008207909383078093620190936301B4C082
:1027B0008881998180938507909386078093600133
:1027C00090936101A9C0992309F0A2C080E098EF1D
:1027D000AFEFB7E0088004C0B695A79597958795A9
:1027E0000A94D2F781709070892B09F493C0283035
:1027F00031F088E00E94200E8830D9F726E19881D8
:1028000090938F07809148019F71807E982B9093C1
:102810004801283009F480C086E10E94200E7CC067
:10282000992309F075C0283011F418E006C088E03B
:102830000E94200E8830D9F716E1F8808F2D0E9473
:10284000DB12082F183019F086E10E94200E0023B9
:1028500009F460C0F09281075FC09881909391075E
:1028600080916F019295907F8F70982B90936F015C
:1028700053C08881809376070E9462128093760706
:102880000E94C212909145018F70907F892B809396
:10289000450142C0888180938407909148018295C8
:1028A000880F80769F79892B8093480135C0888175
:1028B000809377078981809378078A81809379074D
:1028C0008B8180937A078C8180937B078D818093A5
:1028D0007C078E8180937D078F8180937E07E7E759
:1028E000F7E0A4E6B1E081918D9387E0EF37F80738
:1028F000D1F712C088818093900790916E01880F64
:10290000880F880F8870977F892B80936E0104C091
:1029100086E803C088EE01C080E0DF91CF911F916F
:102920000F91FF900895EF92FF920F931F93DF9303
:10293000CF930F92CDB7DEB7E82E81E090E065E14E
:1029400070E041E050E09E012F5F3F4F0E942C0756
:10295000809139018D7F8093390180EF90E00E9452
:102960000208809139018E7F8093390181E090E0E7
:102970000E9402088091390181608093390110E042
:1029800084E690E00E940208809141011A3011F41F
:1029900085E845C08F71883011F01F5FF1CF8093BB
:1029A00096079981992309F442C0809152019F7042
:1029B000807F982B909352013AC080914601000F7E
:1029C000111F000F111F90E08076907025E0969502
:1029D00087952A95E1F7082B192BF39488E0F816D0
:1029E00061F783E00E94200E80914F01F0924F0129
:1029F00080E480934F0180E880934F018CE48093C2
:102A00004E01C8010E943338EE2011F00E94851259
:102A10000E9427131092A0071092870780E00F9062
:102A2000CF91DF911F910F91FF90EF9008958091CA
:102A30006E01806280936E0180914C01806880936A
:102A40004C018CE480934E0186E00E94200E10928F
:102A50004E0100E010E0FF24B0CF0E9493148823C1
:102A600061F085E8089588E897E060E070E00E94F2
:102A7000DB0D009711F00E94110D80918C078823C7
:102A800091F788E080934F0180E480934F0184E0C8
:102A900080934F0180E880934F010E942E388093ED
:102AA0006D0180916E019770887F982B90936E01D5
:102AB00080E00E946F160E94601680E008950F93D8
:102AC0001F93CF93DF930E946B07882309F0CDC03B
:102AD00080913901816080933901809139018D7F26
:102AE000809339018CE791E00E94020880913901BE
:102AF0008E7F8093390181E090E00E9402088091EE
:102B0000390181608093390110E084E690E00E94F1
:102B10000208809141011A3009F4A7C08F718830F2
:102B200011F01F5FF2CF8093960780915C0183388C
:102B300009F09BC0A0C0C7E7D7E00E942E38899358
:102B400087E0CF37D807C9F78091770730917807AA
:102B50004091790760917A0770917B07F0917C072B
:102B6000B0917D0750917E07082F015091E0081722
:102B700008F090E0832F815021E0831708F020E0D7
:102B8000192F180F91E0181708F090E0292B842FC7
:102B9000815031E0841708F030E0A22FA80F91E0B7
:102BA000A81708F090E0392B862F815021E0861776
:102BB00008F020E0E32FE80F91E0E81708F090E03C
:102BC000292B872F815031E0871708F030E0622FE2
:102BD000680F91E0681708F090E0392B8F2F815033
:102BE00021E08F1708F020E0432F480F91E04817AD
:102BF00008F090E0292B8B2F815091E08B1708F083
:102C000090E0322F380F21E0381708F020E0922BA7
:102C10005195591779F43F3F69F44F3F59F46F3F8D
:102C200049F4EF3F39F4AF3F29F41F3F19F40E3F49
:102C300008F081CF88E596E10E94F00580E596E1F5
:102C40000E94EB058CE496E10E94FA050E94200D9B
:102C50008AE90E94190D909304078093030788E87E
:102C600097E00E943F0D80E001C085E8DF91CF91A1
:102C70001F910F91089581E090E060E070E048E0DE
:102C800050E027E737E00E942C0781E00E94931470
:102C9000882309F459CFE9CF81E080939F070895F5
:102CA0001F931FB7F8940E94E4101FBF1F9108954F
:102CB0001F931FB7F8940E9483101FBF1F910895A0
:102CC000809196078F3011F082E8089588E00E9485
:102CD000200E883011F085E8089580E0089588235B
:102CE00011F088EE0895809196078F3011F481E8F5
:102CF00008958091A007882371F41092870788E0D7
:102D00000E94200E8830D9F78FE00E94200E8F306D
:102D100011F480E0089586E80895982F8091A00727
:102D2000882311F086E80895983039F488E00E94ED
:102D3000200E1092870788E00895809103079091F4
:102D40000407892B29F086E10E94200E86E0089571
:102D500081E08093870786E00895CF93DF93DC01BD
:102D60009C9111962C9111978091A107882321F4B1
:102D7000CD010E94110D1AC0E92FF22F9F012F5F84
:102D80003F4F44E258E088E0EA010990AE01E901D2
:102D900009929E018150C1F780912F08818783E1BC
:102DA00080838CE398E0BD010E94460DDF91CF91B6
:102DB0000895DC01ED91FC91119784E18083638398
:102DC000528341838CE398E0BD010E94460D089533
:102DD0000F931F93DF93CF9300D0CDB7DEB7A091B1
:102DE000C507B091C607ED91FC91119784E18083EE
:102DF0008BEE83830FEF1FEF128301838CE398E048
:102E0000BD010E94460D1092B4071A83098380E524
:102E1000BE016F5F7F4F0E945E291093FC070093F5
:102E2000FB071092090810920A0810920B081092E2
:102E30000C0810920D0810920E0810920F081092B4
:102E400010080E94A6270F900F90CF91DF911F913D
:102E50000F910895EF92FF920F931F93E090050852
:102E6000F090060880E061E040E020E030E000E023
:102E700010E00E94C3208823A9F4A091C507B09157
:102E8000C607ED91FC91119784E1808381EE8383E5
:102E90008FEF9FEF928381838CE398E0BD010E94C6
:102EA000460D19C0A70160E070E084E0440F551F93
:102EB000661F771F8A95D1F780E020E030E008EEAA
:102EC00016E1EE24FF240E94400A882321F080E0CE
:102ED00090E00E94E8161F910F91FF90EF900895E7
:102EE000FF920F931F93DF93CF9300D0CDB7DEB740
:102EF000F09031080E94110DFF20B1F583E56FE2DB
:102F000078E00E945E2920912F083091300880914E
:102F10002408809309088091250880930A088091ED
:102F2000260880930B088091270880930C088091D5
:102F3000280880930D088091290880930E088091BD
:102F40002A0880930F0880912B088093100881E055
:102F5000809338081092B4078091BF07833031F511
:102F600082E08093BF0722C01092B4070FEF1FEFDB
:102F70001A83098380E5BE016F5F7F4F0E945E293F
:102F80001093FC070093FB071092090810920A089F
:102F900010920B0810920C0810920D0810920E0857
:102FA00010920F08109210082FEF3FEFE091C50725
:102FB000F091C607A081B18184E18C931396FC92B5
:102FC000139712963C932E9311978CE398E0BF01D0
:102FD0000E94460D0E94A6270F900F90CF91DF917F
:102FE0001F910F91FF9008950F931F93DF93CF933D
:102FF000CDB7DEB72C970FB6F894DEBF0FBECDBFAE
:10300000AC01DE011196FC01808191819C01F901E6
:103010008CE001900D928150E1F7DA010D911C9145
:10302000809138088250823020F0CA010E94110D30
:1030300056C082E0F8018083D801AC56BF4FFD0135
:1030400081938A859B8512969C938E9311978C858C
:1030500082839D0128503040D901E7E7F7E088E0FE
:1030600001900D928150E1F7F90138979F01BE015F
:103070006E5F7F4F88E0DB010D90BD01D9010D929D
:103080009D018150C1F780918207909183079293AF
:1030900082938091C00782938F5F8093C00783E6FD
:1030A0009CEC929382938BE18293D8011896FC93C7
:1030B000EE93179716961C9283EA97E0BA010E9446
:1030C000460D8091C2079091C307F80195838483D0
:1030D00081E00E942F08882311F40E94FB242C9683
:1030E0000FB6F894DEBF0FBECDBFCF91DF911F9119
:1030F0000F910895CF92DF92EF92FF921F93DF938B
:10310000CF93CDB7DEB72F970FB6F894DEBF0FBEC3
:10311000CDBFAC017C01DE011196FC018081918163
:103120009C01F9018FE001900D928150E1F74093ED
:10313000C5075093C6078C81823019F48F8198851A
:103140001AC08F8180930908888580930A08898531
:1031500080930B088A8580930C088B8580930D08DB
:103160008C8580930E088D8580930F088E858093C3
:1031700010088EEF9FEF9093FC078093FB0780E58C
:10318000BE016B5F7F4F0E945E290E948127D7019D
:10319000CD90DC9081E0F6018083F282E182EA56F4
:1031A000FF4F80838F8581839F0128503040D90154
:1031B000E7E7F7E088E001900D928150E1F7F9012F
:1031C0008FEF9FEF929382938C81823051F48091A4
:1031D000FB079091FC079293829345E123E238EC40
:1031E00011C0F9013A979F0149E058E088E0DA01FF
:1031F0000D90AD01D9010D929D018150C1F74BE1B8
:1032000023E23CEC80918207909183079293829312
:103210008091C00782938F5F8093C007329322937F
:103220004293D6011896FC93EE93179784E0BE0163
:103230006D5F7F4F0E945E29182F80E0BE016E5F98
:103240007F4F0E945E29112371F4882361F4C60127
:1032500062E070E041E00E947811882321F481E06F
:103260008093390812C0D701ED91FC9184E18083ED
:1032700081EE83838FEF9FEF928381838CE398E0CD
:10328000B7010E94460D0E94A6272F960FB6F8940C
:10329000DEBF0FBECDBFCF91DF911F91FF90EF90AA
:1032A000DF90CF900895FC0180910D078730F0F4F6
:1032B000A781B08512968C9112978695869583701A
:1032C0008230A1F4E0910B07F0910C073297F09354
:1032D0000C07E0930B0716968D919C91179791839D
:1032E000808380910D078F5F80930D0780E00895A4
:1032F000FC0180910D078730F0F40780F085E02D08
:1033000082818695869583708330A9F480910B071E
:1033100090910C07089790930C0780930B07DC01A2
:10332000369688E001900D928150E1F780910D076B
:103330008F5F80930D0780E008959F92AF92BF92B8
:10334000CF92DF92EF92FF920F931F93DF93CF9371
:1033500000D000D0CDB7DEB7FB01A080B180D50191
:1033600012967C936E9311978AE08C9378E9C72E1E
:10337000D12CCA0CDB1C8091C107882319F46DE0A5
:10338000962E0EC0482F50E0C41AD50A5DE0952E47
:10339000980E27EC37E0C601B90150E00E943E3894
:1033A0008091A707882309F442C0D0920C07C092ED
:1033B0000B0710920D0788E799E19A83898383EAC6
:1033C00097E07E010894E11CF11CB7010E94E10D19
:1033D00000910D0710920D0783E599E19A83898387
:1033E00083EA97E0B7010E94E10D20910D07E0917B
:1033F0000B07F0910C07319710E0C80134E0880FFB
:10340000991F3A95E1F7822B8083000F111F000F5F
:10341000111F020F111D000F111F00930D07900EB9
:10342000E02FF0E0E095F095EC0DFD1D02C0F601F7
:103430001292DF011E9280913808833019F42FEF29
:103440003FE402C02FEF3FE08091A1078111306877
:10345000FD013293229380918507909186072FEF8B
:103460008E3F920799F4FD013A9786E0980E9F01EE
:1034700047E757E088E0DA010D90AD01D9010D92E0
:103480009D018150C1F720E030EC04C092938293FB
:1034900020E030E880918207909183079293829395
:1034A0008091BE0782938F5F8093BE0732932293F1
:1034B0009292D5011896FC93EE931797C50162E09E
:1034C00070E040E00E94781181E0809339080F900D
:1034D0000F900F900F90CF91DF911F910F91FF9060
:1034E000EF90DF90CF90BF90AF909F900895BC0178
:1034F00080E00E949D190895FC010190F081E02D6B
:10350000628173818181448125810E94BE37089543
:103510000F931F938C01DC01ED91FC9181810E943E
:103520007001C8010E94110D1F910F9108950F9312
:103530001F938C01DC01ED91FC91818162810E94DD
:103540009002C8010E94110D1F910F910895AF9232
:10355000BF92CF92DF92EF920F931F935C01DC0139
:10356000ED91FC91048115812681378181816281F1
:103570004381E08439966F010E945903C5010E947E
:10358000110D1F910F91EF90DF90CF90BF90AF90F2
:1035900008950F931F938C01DC01ED91FC918181C3
:1035A0000E94BD37C8010E94110D1F910F9108950F
:1035B0000F931F938C01DC01ED91FC9181810E949E
:1035C000CF03C8010E94110D1F910F9108950F9311
:1035D0001F938C01DC01ED91FC9181810E94BC372D
:1035E000C8010E94110D1F910F9108950F931F9311
:1035F0008C01DC01ED91FC91218132814381548168
:1036000065817681878190850E94BB37C8010E94C1
:10361000110D1F910F9108950F931F938C01DC01E1
:10362000ED91FC91818162813396AF010E94BA379E
:10363000C8010E94110D1F910F910895EF92FF9202
:103640000F937C01DC01ED91FC912181328143815A
:103650005481658176818781908501850E94B93783
:10366000C7010E94110D0F91FF90EF9008950F93E5
:103670001F93DF93CF93CDB7DEB72B970FB6F89498
:10368000DEBF0FBECDBF8C01DC01ED91FC918281CC
:103690008983838194819B838A839E012C5F3F4F22
:1036A000AF014B5F5F4F88E0DA010D90AD01D901AA
:1036B0000D929D018150C1F78181BE016F5F7F4FE7
:1036C0000E94B837C8010E94110D2B960FB6F894CE
:1036D000DEBF0FBECDBFCF91DF911F910F91089537
:1036E0000F931F93DF93CF93CDB7DEB766970FB6D7
:1036F000F894DEBF0FBECDBF8C01DC01ED91FC91D3
:10370000818192819B838A83838189839E012C5F3F
:103710003F4FAF014C5F5F4F88E0DA010D90AD0184
:10372000D9010D929D018150C1F7818192819E87BF
:103730008D8784858C879E01215F3F4FAF01435F5A
:103740005F4F88E0DA010D90AD01D9010D929D0126
:103750008150C1F7CE010196BE01645F7F4F45895C
:103760000E943301C8010E94110D66960FB6F894AD
:10377000DEBF0FBECDBFCF91DF911F910F91089596
:10378000CF92DF92EF92FF920F936C01DC01ED91EB
:10379000FC91BF016E5F7F4F24893589E788F08CEB
:1037A0008181438906890E94B737C6010E94110DA5
:1037B0000F91FF90EF90DF90CF900895EF92FF92DE
:1037C0000F937C01DC01ED91FC91218132814381D9
:1037D0005481658176818781908501850E94FD01F4
:1037E000C7010E94110D0F91FF90EF9008950F9364
:1037F0001F938C01DC01ED91FC91818192816381A9
:103800000E944601C8010E94110D1F910F91089559
:103810000F931F938C01DC01ED91FC9181816281FA
:103820000E94B637C8010E94110D1F910F91089593
:103830000F931F938C01DC01ED91FC9181816281DA
:103840000E94F900C8010E94110D1F910F91089567
:10385000CF92DF92EF920F93DF93CF93CDB7DEB786
:1038600066970FB6F894DEBF0FBECDBF6C01DC01CA
:10387000ED91FC9181818983828193819B838A83ED
:103880009E012C5F3F4FAF014C5F5F4F88E0DA0134
:103890000D90AD01D9010D929D018150C1F7848534
:1038A0008C87858596859E878D879E01215F3F4FFA
:1038B000AF01415F5F4F88E0DA010D90AD01D901A2
:1038C0000D929D018150C1F7228D338DCE0101965D
:1038D000BE01645F7F4F418D0789E08C0E948A01A1
:1038E000C6010E94110D66960FB6F894DEBF0FBE9A
:1038F000CDBFCF91DF910F91EF90DF90CF900895E2
:10390000FC011082618172816115710521F080E0F6
:1039100098E00E94460D0895282F80912F089091DD
:10392000300896FF1BC0222359F4209122083091C1
:10393000230880918207909183072817390759F04F
:1039400020912208309123088091FE079091FF0773
:103950002817390719F48EEE0E94E33308950F9368
:103960001F93CF93DF93282F80912F0890913008D9
:1039700096FFA3C0222359F42091220830912308F6
:1039800080918207909183072817390761F0209171
:103990002208309123088091FE079091FF07281795
:1039A000390709F08AC020912408309125088091B8
:1039B000FB079091FC072817390709F47EC0909106
:1039C000240880910908981759F59091250880914D
:1039D0000A08981729F59091260880910B089817E6
:1039E000F9F49091270880910C089817C9F49091E8
:1039F000280880910D08981799F4909129088091D2
:103A00000E08981769F490912A0880910F0898176A
:103A100039F490912B0880911008981709F44DC043
:103A20008AE90E94190D8C01009709F446C0DC0157
:103A30002D913C9185E0F901808312830183E95641
:103A4000FF4F8083AF0148505040FA01A7E7B7E02D
:103A500088E00D9001928150E1F7FA013897EF016B
:103A6000A9E0B8E088E00D9009928150E1F78091DB
:103A7000820790918307929382938091C0078293EB
:103A80008F5F8093C00783E69CEC9293829388E1DA
:103A90008293D9011896FC93EE931797C90162E0BF
:103AA00070E041E00E947811882321F481E0809346
:103AB000390803C0C8010E94110DDF91CF911F91F9
:103AC0000F9108950F931F93CF93DF93EC01E8813B
:103AD000F981A781B0857C9170931408FD01E70FEF
:103AE000F11D818180932D0811964D915C91129763
:103AF000509312084093110813968C91139780935A
:103B000015088D010C5F1F4F652F629566956695B0
:103B10006370352F36953695337019F4F80120E02F
:103B200049C014968D919C91159790931808809395
:103B30001708FD0136963230E1F410921908109200
:103B40001A0810921B0810921C0810921D0810925F
:103B50001E0810921F081092200816968D919C91B5
:103B6000179790931A0880931908FD01389624E05E
:103B700021C0333011F022E01DC016968C911697AB
:103B800080931908818180931A08828180931B0891
:103B9000838180931C08848180931D088581809394
:103BA0001E08868180931F08878180932008FD016D
:103BB0003E962AE0662309F447C046FD08C081917D
:103BC000919190932308809322082E5F08C08091E2
:103BD0001708909118089093230880932208623068
:103BE000C1F4109224081092250810922608109211
:103BF0002708109228081092290810922A0810927B
:103C00002B088081918190932508809324082E5F52
:103C10001BC06330C9F48081809324088181809324
:103C200025088281809326088381809327088481D8
:103C300080932808858180932908868180932A08AB
:103C4000878180932B08285F972F9550921B909324
:103C50002E08609321083093160843FDCEC1D80189
:103C6000A20FB11D842F877080931308833021F435
:103C70008C9180932C0863C0813009F451C081304D
:103C800020F0833009F0B9C15AC08D919C911197F1
:103C90009093300880932F0812968C9112978093FE
:103CA0003108877011F493E002C0982F9C5FFD01EA
:103CB000E90FF11D808180933208292F2F5F382F63
:103CC000377090E08077907044E0959587954A959D
:103CD000E1F7482F332311F4882389F0CD01820FB7
:103CE000911D9093340880933308332311F0330FE0
:103CF000230F442321F0440F440F440F240F8091DD
:103D00002E08281750F4821B80933508A20FB11D8E
:103D1000B0933708A093360874C11092350871C16A
:103D2000992351F0963718F086E780932E08B093C8
:103D30003008A0932F0865C110922E0862C18091AF
:103D40002C088330E1F0843030F48130C1F08230CF
:103D500009F053C107C0883008F453C1883009F016
:103D60004CC112C011968D919C911297909330087E
:103D700080932F0813968C918093310842C111963D
:103D80008C9180932F083DC111968D919C91129733
:103D90009093300880932F0813968D919C911497DF
:103DA000909332088093310815968C9115978093E3
:103DB000330816968D919C911797909335088093B0
:103DC000340854FF1EC118968C918093360819C18F
:103DD00080911308833061F480912C08843011F0B5
:103DE000873031F480E098E0BE010E94460D0FC19B
:103DF0008091B407813009F4EBC0813020F0843029
:103E000008F0FBC0A3C08091BD07882309F06AC0F9
:103E100090913808933080F1933009F0EEC0809192
:103E20001308813009F4E5C0813010F1833009F0C6
:103E3000E4C080912C08843009F4AFC0853038F498
:103E4000813009F4A0C0833009F0D7C009C08630A2
:103E500009F4AEC0863040F0873009F0CEC0B0C063
:103E6000CE010E94CD22D3C08EEE0E94E333C5C0A6
:103E700080E00E948C1CC1C080911308813009F43D
:103E8000B8C0813020F0833009F0B7C00CC08091F9
:103E90003B08882309F4B1C0992309F4AEC080E03F
:103EA0000E94AF1CAAC080912C08843009F475C010
:103EB000853038F4813009F466C0833009F09DC044
:103EC00004C0873009F05AC009C0CE010E94CD223B
:103ED00080913808813009F09AC05CC0923009F0B6
:103EE0008CC06EC0833009F1843019F0823009F043
:103EF00084C080911308882309F07FC0809138081E
:103F0000833019F481E00E948C1C80913B08882347
:103F100041F0809138088150823018F481E00E948D
:103F2000AF1CCE010E94762C72C0809113088330A2
:103F300009F063C080912C08883009F05EC082E0EF
:103F40000E943409CE010E94603061C00E94E12BC2
:103F500080911308813009F44CC0833009F04DC0C2
:103F600080912C088430C9F0853030F4813059F0CC
:103F7000833009F042C00BC08730F1F0883021F166
:103F80008630D9F515C0CE010E94AD1640C0CE01D5
:103F90000E94CD220E94C9283AC08091A707882399
:103FA00021F0CE010E94862132C00E94682025C0E7
:103FB000CE010E9429292BC0809138088230E9F473
:103FC000CE010E94771A23C0CE010E9428341FC060
:103FD00080911308833059F480912C08823069F461
:103FE00080E00E943409CE010E94701710C0813019
:103FF00021F4CE010E9417250AC0CE010E94110DA6
:1040000006C080913908882309F0E2CEF1CEDF9115
:10401000CF911F910F910895DB01FC0186818823C8
:1040200099F40780F085E02D8281869586958370CE
:10403000823051F440E02D913C9186819781281780
:10404000390719F441E001C040E0842F0895DB01F5
:10405000FC0186818823C9F50780F085E02D8281E7
:10406000869586958370833081F520E09C918681CA
:10407000981761F511969C9111978781981731F5E2
:1040800012969C9112978085981701F513969C9132
:10409000139781859817D1F414969C911497828573
:1040A0009817A1F415969C9115978385981771F42C
:1040B00016969C9116978485981741F417969C91B3
:1040C0008585981719F421E001C020E0822F08951A
:1040D0000F931F93CF93DF938AE90E94190D8C01F0
:1040E000009709F44BC0DC01CD91DC918CE0888312
:1040F0001A8309831E82FE01E856FF4F8091210832
:10410000833089F438979F0144E258E088E0DA016F
:104110000D90AD01D9010D929D018150C1F721E0B3
:104120003CE04FE009C080912408909125089293CB
:10413000829321E038E049E08091220890912308A1
:10414000929382938091C00782938F5F8093C00780
:10415000329322934293F887EF83F8018081918113
:1041600061E070E040E00E947811882321F481E052
:104170008093390803C0C8010E94110DDF91CF91CF
:104180001F910F9108956F927F929F92AF92BF926D
:10419000CF92DF92EF92FF920F931F93CF93DF9313
:1041A000D82E962EC42E590138018AE90E94190D85
:1041B0007C01009709F49BC0DC010D911C91DD206E
:1041C00021F084E0F801808303C08BE0D8018C9358
:1041D000F801F282E182E956FF4F84E0808320916A
:1041E000850730918607C9010296029710F0992041
:1041F00069F03897EF01A7E7B7E088E00D900992E2
:104200008150E1F762E183E290EC05C032932293A2
:104210006CE083E290E8CC2061F02091820730913D
:1042200083076216730629F06E5F3293229370E063
:1042300002C0806471E022E0C21641F4AC01586013
:10424000D5018D919C919293829328C0B3E0CB16B7
:1042500061F4AC015C6038976A5FEF01D50188E0DA
:104260000D9009928150E1F719C02091FB07309120
:10427000FC074FEF2E3F340729F0AC015860329312
:1042800022930CC0AC015C6038976A5FEF01A9E033
:10429000B8E088E00D9009928150E1F732977723DA
:1042A00039F080918207909183079183808302C0C7
:1042B000718260828091C00782938F5F8093C00774
:1042C000529342936293D8011896FC93EE931797FA
:1042D000C80162E070E041E00E947811882321F477
:1042E00081E08093390804C0C7010E94110D80E06D
:1042F000DF91CF911F910F91FF90EF90DF90CF90C2
:10430000BF90AF909F907F906F900895EF92FF9233
:104310000F931F93DF93CF9300D000D0CDB7DEB7BC
:104320000E94110D80913808823008F453C08091AA
:104330002108823019F48CE090E205C0833009F046
:1043400049C087E290E29A83898384E298E09C8363
:104350008B8383EA97E07E010894E11CF11CB7018E
:104360000E94E10DDC01009781F00D911C911197E5
:10437000F801878190852091220830912308FC0163
:10438000848195812817390719F00E94682022C07E
:1043900081E0F8018683B283A18383EA97E0B701C5
:1043A0000E94E10D892B41F0D8011796ED91FC9107
:1043B0001897818180618183C80161E070E040E0ED
:1043C0000E947811882321F481E08093390802C08B
:1043D000F80116820F900F900F900F90CF91DF9100
:1043E0001F910F91FF90EF900895EF92FF920F931E
:1043F0001F93CF93DF937C01E801DC01ED91FC91E9
:1044000086E180836183428334832383CF010596D1
:10441000423069F415821682178210861186128640
:1044200013861486888199819683858307C0DC0171
:10443000F80188E001900D928150E1F78CE398E05B
:10444000B7010E94460DDF91CF911F910F91FF9010
:10445000EF9008950F931F93DF93CF93CDB7DEB7FF
:1044600028970FB6F894DEBF0FBECDBFDC01ED91EB
:10447000FC91119719821A821B821C821D821E8256
:104480001F8218860780F085E02D4281469546956B
:104490004370842F8250823080F4868189838781A3
:1044A0008A8380858B8381858C8382858D838385B8
:1044B0008E8384858F8385858887809138088330B3
:1044C00049F420918207309183078E010F5F1F4FBF
:1044D000CD0156C0823009F03FC0423051F42681F0
:1044E00037818091FB079091FC072817390759F510
:1044F00033C0433041F5968180910908981719F52A
:10450000978180910A089817F1F4908580910B08A3
:104510009817C9F4918580910C089817A1F4928599
:1045200080910D08981779F4938580910E0898175B
:1045300051F4948580910F08981729F495858091FE
:104540001008981749F02091820730918307CD0118
:104550008E010F5F1F4F14C08091850790918607D1
:1045600002962091820730918307029728F4CD01AB
:1045700043E007E717E004C0CD0142E005E817E09B
:104580000E94F52128960FB6F894DEBF0FBECDBF6E
:10459000CF91DF911F910F910895CF93DF939C01ED
:1045A000FC01C081D181FE0185E18193A4E2B8E0E4
:1045B00088E00D9001928150E1F780912F08898762
:1045C0008CE398E0B9010E94460D10920908109200
:1045D0000A0810920B0810920C0810920D08109205
:1045E0000E0810920F08109210088FEF9FEF909313
:1045F000FC078093FB07DF91CF910895EF92FF9224
:104600000F931F93DF93CF93CDB7DEB72E970FB6DF
:10461000F894DEBF0FBECDBF8C01DC01ED90FC90A5
:10462000DE011196F7018EE001900D928150E1F7C5
:10463000F7011283018383E08083EA56FF4F808372
:104640008D85818338979F0147E757E088E0DA013D
:104650000D90AD01D9010D929D018150C1F78A8164
:10466000823031F48D819E819293829333E10FC029
:1046700038979F01AE014B5F5F4F88E0DA010D90E4
:10468000AD01D9010D929D018150C1F739E18091B1
:10469000820790918307929382938091C0078293BF
:1046A0008F5F8093C0072A81922F990F990F80E026
:1046B0008366906C929382933293D7011896FC9301
:1046C000EE93179716961C9280913808825082308C
:1046D00008F060C08E85882309F45CC08A8182302E
:1046E000D1F48D818B3409F041C08E818823F1F59E
:1046F0008F818823D9F588858823C1F5898588230A
:10470000A9F58A85882391F58B85882379F58C8591
:10471000882361F55BC0833009F058C09D8180918A
:104720000908981719F59E8180910A089817F1F4E5
:104730009F8180910B089817C9F4988580910C0887
:104740009817A1F4998580910D08981779F49A85A6
:1047500080910E08981751F49B8580910F08981747
:1047600029F49C8580911008981781F183EA97E0DD
:10477000B8010E94460D8091C2079091C307F701CE
:104780009583848381E00E942F088823F9F40E9496
:10479000FB241CC00E948127D8018D919C9162E06E
:1047A00070E041E00E947811882321F481E0809339
:1047B00039080CC02B813C81C80161EE4A818E0111
:1047C0000B5F1F4F0E94F5210E94A6272E960FB661
:1047D000F894DEBF0FBECDBFCF91DF911F910F9137
:1047E000FF90EF900895DC01ED91FC911197E0812D
:1047F000E43278F4F0E0EE0FFF1FE05DFE4F25910C
:1048000034912115310519F0F901099508950E9497
:10481000110D08951F9380913908882381F48091A8
:10482000BC07882361F088EB97E060E070E00E94AD
:10483000DB0D009721F00E94F32311E001C010E08E
:1048400080910408882359F080E098E060E070E0EF
:104850000E94DB0D009719F00E94F32311E0812FD5
:104860001F910895FC018681882329F48481958114
:1048700001979583848380E00895FC0186818823D5
:1048800011F020E006C020E084819581892B09F495
:1048900021E0822F0895FB0120E0DC0113969C911A
:1048A0008081981709F421E0822F0895DC01ED91B1
:1048B000FC91119780E18083418362838CE398E0CF
:1048C000BD010E94460D0895EF92FF920F931F9332
:1048D000DF93CF9300D000D00F92CDB7DEB77C012D
:1048E000FC0100811181F801918182E1808399832B
:1048F0008BE494E29B838A83CE0101969D838C8313
:1049000083EA97E0BE016E5F7F4F0E94DB0D009748
:1049100029F00E94110DF801128203C087EEF80100
:1049200082838CE398E0B7010E94460D0F900F90B0
:104930000F900F900F90CF91DF911F910F91FF90EB
:10494000EF900895FF920F931F93DF93CF9300D0C2
:1049500000D0CDB7DEB782E394E29A83898383EAFD
:1049600097E08E010F5F1F4FB8010E94E10D8DE3AC
:1049700094E29A838983F02E012F10E183EA97E075
:104980006F2D702F0E94DB0DDC01009721F19C91AF
:1049900011962C911197E92FF22F8081833049F0E5
:1049A0008D3061F0823051F780EFBD010E94B12758
:1049B000E5CFCD0160EF0E942A22E0CF8381E92F6D
:1049C000F22F1083818380EF82838CE398E0BD0116
:1049D0000E94460DD3CF8091A707882311F00E9433
:1049E000FB240F900F900F900F90CF91DF911F91AC
:1049F0000F91FF900895EF92FF920F931F9381E024
:104A000040E050EE61E070E020E030E002EA14E2C5
:104A1000EE24FF240E94400A882321F080E090E0E9
:104A20000E94A2241F910F91FF90EF9008950F9381
:104A30001F93DF93CF93CDB7DEB728970FB6F894C7
:104A4000DEBF0FBECDBFAC01DC019C9111962C9155
:104A500080912E08882321F4CA010E94110D13C1F0
:104A6000E92FF22F80911508808F20912108218352
:104A7000809122089091230893838283822F825011
:104A8000823010F5148215821682178210861186E4
:104A900012861386223039F48091240890912508DB
:104AA000958384831BC02330C9F49F012C5F3F4F43
:104AB00064E278E088E0DB010D90BD01D9010D9240
:104AC0009D018150C1F70AC013821282148215829F
:104AD000168217821086118612861386208D809189
:104AE000A207281761F594818091AA07981739F5D4
:104AF00095818091AB07981711F596818091AC074D
:104B00009817E9F497818091AD079817C1F49085C3
:104B10008091AE07981799F491858091AF07981707
:104B200071F492858091B007981749F4938580912C
:104B3000B107981721F4CA010E94110D5AC02093A1
:104B4000A20784818093AA0785818093AB07868121
:104B50008093AC0787818093AD0780858093AE07F3
:104B600081858093AF0782858093B007838580938A
:104B7000B1072091160824871786108A118A128A95
:104B8000138A148A158A168A80911708909118083A
:104B900096878587233079F49F01215F3F4F69E134
:104BA00078E088E0DB010D90BD01D9010D929D01F7
:104BB0008150C1F70BC0223039F4809119089091CF
:104BC0001A08908B878702C01686158680912D085B
:104BD000878B80912E08818F80912F0890913008CB
:104BE000938F828F81E180838CE398E0BA010E94E9
:104BF000460D8091110884FF46C0809138088330AB
:104C000009F443C080912108823071F48091240816
:104C1000909125089A838983009122081091230896
:104C200080E060E042E021C0833019F580912408E3
:104C30008983809125088A83809126088B838091BF
:104C400027088C83809128088D83809129088E8382
:104C500080912A088F8380912B08888700912208F1
:104C60001091230880E060E043E09E012F5F3F4FFA
:104C700007C080E060E040E020E030E000E010E0CD
:104C80000E94C32002C00E94A62728960FB6F8945F
:104C9000DEBF0FBECDBFCF91DF911F910F91089561
:104CA000CF92DF92EF92FF920F931F93DF93CF93F8
:104CB000CDB7DEB762970FB6F894DEBF0FBECDBF9B
:104CC0008C01DE011196FC01808191819C01F9012A
:104CD00082E101900D928150E1F78F8582FD11C034
:104CE0008091B407882321F48091BD07882349F07F
:104CF0009E85D801ED91FC9180E18083918381EEC6
:104D0000AEC0F801E080F1808DE0D7018C938E85F4
:104D100013968C93139716961C92888945E0D42E8F
:104D2000D80EE8E9F0E0E81BF109EE0DFF1D9A81CD
:104D3000923051F437E0D32ED80E809185079091B0
:104D400086079293829312C0933081F438972DE0B6
:104D5000D22ED80E9F0147E757E088E0DA010D9088
:104D6000AD01D9010D929D018150C1F720918207BB
:104D7000309183078C819D812817390749F48A81F6
:104D8000882331F08B81882319F040E450E009C07A
:104D90008A81882321F0B2E0DB0E3293229340E037
:104DA00050E08B81882311F1823039F46D2D6E5FD4
:104DB0008E819F819293829312C038976D2D685F88
:104DC0009F0196E0C92ED12CCC0EDD1E88E0D601C5
:104DD0000D906D01D9010D929D018150C1F782E0C6
:104DE000D82ED60E8C819D81929382938091C0079C
:104DF00082938F5F8093C007BA0161608F8580FFC7
:104E000002C0BA0161628889873608F070618B81BF
:104E1000382F330F330F20E04A81942F9295990F4A
:104E2000990F907C80E0282B392B262B372B32933F
:104E300022933296D7FC0BC03397D082D7011896B5
:104E4000FC93EE9317978F8582FD10C028C09E8536
:104E5000D801ED91FC9180E18083918385EE82837E
:104E60008CE398E0B8010E94460D3CC08091380860
:104E700082508230A0F483EA97E0B8010E94460D88
:104E80008091C2079091C307F7019583848381E0E5
:104E90000E942F08882331F50E94FB2423C00E9422
:104EA0008127D70112961C930E931197C70162E0D8
:104EB00070E041E00E947811882321F481E0809322
:104EC000390810C09E85D801ED91FC9180E1808366
:104ED000918381EE82838CE398E0B8010E94460DB5
:104EE0000E94A62762960FB6F894DEBF0FBECDBF14
:104EF000CF91DF911F910F91FF90EF90DF90CF90B6
:104F0000089580913A08813051F40E9460168538E6
:104F100031F081E090E00E94CB0710923A080895AA
:104F200080913A08882389F480E090E00E94CB07C2
:104F300080E00E946F16882321F481E080933A0874
:104F4000089581E090E00E94CB0708958091A80722
:104F5000882331F48091FD07882311F40E94902763
:104F60000895DF93CF93CDB7DEB728970FB6F894A7
:104F7000DEBF0FBECDBF482F9B01DB01ED91FC9141
:104F80000780F085E02DDE011196369688E00190CD
:104F90000D928150E1F7D901ED91FC918CE1808374
:104FA00080918207909183079283818393E093831A
:104FB0008091770784838091780785838091790732
:104FC000868380917A07878380917B078087809191
:104FD0007C07818780917D07828780917E07838708
:104FE0009487898185878A8186878B8187878C8151
:104FF000808B8D81818B8E81828B8F81838B888545
:10500000848B458B8CE398E0B9010E94460D28966D
:105010000FB6F894DEBF0FBECDBFCF91DF910895DC
:105020000F931F93182F109239081092380810927E
:105030003A081092BD071092BF071092B407109261
:10504000A2078FEF8093AA078093AB078093AC07EA
:105050008093AD078093AE078093AF078093B0072E
:105060008093B1071092FD0788E00E948D160FB75C
:10507000F89480E00E94340981E00E94340982E0C3
:105080000E94340983E00E9434090FBF112309F400
:1050900040C010923B0882EC97E09093B707809352
:1050A000B60780E098E79093060880930508109271
:1050B000B3071092A1071092C1070E942E38809367
:1050C000BE0784EF91E09093C3078093C20781E00D
:1050D0008093B50786E08093A90710920908109283
:1050E0000A0810920B0810920C0810920D081092EA
:1050F0000E0810920F08109210088FEF9FEF9093F8
:10510000FC078093FB070E942E388093C007109203
:10511000A8071F910F9108950F931F93CF93DF93CB
:10512000EC01088119810E948127F801018180E04A
:1051300090E00E94CB0780E0011181E00E942D15D4
:10514000182F81E090E00E94CB07802F0E9410284A
:105150000E94A62788EB97E00E94E70D80E098E088
:105160000E94E70D8CE398E00E94E70D83EA97E048
:105170000E94E70DE881F981118380E280838CE34E
:1051800098E0BE010E94460DDF91CF911F910F91D3
:105190000895DF93CF9300D000D0CDB7DEB70E9443
:1051A00081278FEF9FEF9A8389839C838B8383E58D
:1051B000BE016F5F7F4F0E945E2980E5BE016D5F7B
:1051C0007F4F0E945E2981E00E9410280E94A6273E
:1051D0000F900F900F900F90CF91DF9108950E9444
:1051E0005F158823B9F40E94FF0B882399F081E0B2
:1051F0000E9410280E94A62788EB97E00E943F0D8E
:1052000080E098E00E943F0D83EA97E00E943F0D06
:1052100080E0089585E80895FF920F931F93182F5B
:10522000F92E409182075091830789E0612F792FF1
:1052300020918F07009181070E945D34882329F413
:1052400081EE612F7F2D0E94B1271F910F91FF905A
:105250000895CF93DF93EC01E881F9818AE181938E
:10526000A4E2B8E088E00D9001928150E1F78CE370
:1052700098E0BE010E94460DDF91CF910895E82F7E
:10528000853419F48091C1070895883030F4E82FEF
:10529000F0E0E858FE4F849108958054803228F45D
:1052A000F0E0E05CFE4F84910895E03F10F480E070
:1052B0000895F0E0E055FF4F849108951F93CF9338
:1052C000DF93182FEB0180913A08813051F40E944E
:1052D0008127812FBE010E948413182F0E94A627C8
:1052E00004C0812F0E948413182F812FDF91CF914A
:1052F0001F9108950F931F93CF93DF938C01FC01AF
:10530000C081D181BE016D5F7F4F89818B3409F4EB
:10531000A4C08C3478F5863009F475C0873098F4D1
:10532000823009F4D0C0833038F4882309F4BBC03C
:10533000813009F048C0BAC0843009F45CC08530BF
:1053400008F05CC0C3C0853409F469C0863448F4F1
:10535000813409F461C0823409F45BC0873099F567
:1053600055C0893409F468C08A3408F06DC08634A9
:1053700051F55FC0853509F462C08635A0F48F34DD
:1053800009F476C0803530F48C3409F46BC08E3467
:10539000D1F46BC0823509F473C0833509F473C04E
:1053A000803589F468C08935D9F08A3528F4873585
:1053B00079F0883580F409C08D35D1F0803F09F44B
:1053C00069C08A3581F094EF85C080913B0880C028
:1053D000809191077DC08091B6079091B70757C023
:1053E0008091950775C080910508909106084FC07F
:1053F0008091B3076DC0809181076AC080917F075B
:105400009091800744C08091970762C080918E0779
:105410005FC08091B5075CC08091A10759C04091E1
:10542000C10727EC37E0CB01B90150E00E943E38BC
:1054300050C08091C1074CC08091BE0749C0809187
:10544000C2079091C30723C0DB01E9E0F8E088E0E0
:1054500001900D928150E1F73CC08091FB07909143
:10546000FC0715C08091C00733C080918D0730C004
:10547000809194072DC0809182079091830707C087
:105480008091A80725C080918507909186079C830D
:105490008B831FC0DB01E7E7F7E088E001900D9206
:1054A0008150E1F716C080918F0712C080919B0751
:1054B00090919C07A0919D07B0919E078B839C8340
:1054C000AD83BE8306C08091760702C080918407B9
:1054D0008B8390E089818A838EE1888399838CE332
:1054E00098E0B8010E94460DDF91CF911F910F9176
:1054F0000895FF920F931F93CF93DF93182FEB0123
:10550000F42E8B3409F49BC08C3440F5833409F4B9
:10551000B1C0843478F4853038F4823008F0AAC001
:10552000882309F4A7C03EC0813409F453C08234F3
:10553000C9F548C0863409F45AC0873430F484343D
:1055400009F444C0853471F549C0893409F453C065
:105550008A3408F05BC0873429F58CC0853509F49E
:105560004EC0863570F4813530F48E3408F082C038
:105570008C34C1F46BC0823509F46CC0823590F074
:1055800079C08835A9F0893528F4863569F08735E2
:1055900049F470C08A3579F08A3508F46BC0803FD1
:1055A00009F468C004EFC7C0888180933B08C2C07B
:1055B00088819981BBC088819981909306088093E6
:1055C0000508B8C088818093B507B4C088818093EE
:1055D000A907B0C088818093A107ACC027EC37E051
:1055E0004091C107C90150E00E943E38A3C08881A4
:1055F0008093C1079FC088818093BE079BC088812C
:1056000099819093C3078093C20794C08881809347
:105610000908898180930A088A8180930B088B810D
:1056200080930C088C8180930D088D8180930E08E7
:105630008E8180930F088F81809310087BC08881B2
:1056400099819093FC078093FB0774C088818093B5
:10565000C00770C06881611161E06093A80766238C
:1056600031F00E94812786E00E948D1663C00E945F
:10567000A62760C0812FBE010E948413082F8138A5
:1056800071F40E946016812FBE010E948413082FBE
:10569000882309F050C081E080930E0703C088235F
:1056A00009F049C080918D07282F30E08091910743
:1056B000482F50E060919407CA01861B9109281772
:1056C00039070CF4C901A82F281B310981E090E0AB
:1056D00002C0880F991F4A95E2F70197289FA00101
:1056E000299F500D389F500D112420E030E070E0CC
:1056F000E1E0F0E00DC0C901860F971FEF0102C085
:10570000CC0FDD1F8A95E2F74C0F5D1F2F5F3F4FD7
:105710002A1788F384E190E09C01429FC001439FD7
:10572000900D529F900D1124865F9E4F9093B70766
:105730008093B60700E0FF2049F080910E07882390
:1057400029F080E00E946F1610920E07802FDF91E3
:10575000CF911F910F91FF900895EF92FF920F93B9
:105760001F937C01FC0100811181B8016E5F7F4FA6
:10577000F801818141E00E94792AF80191819283A8
:105780009FE1908381838CE398E0B7010E94460DEE
:105790001F910F91FF90EF900895CF93DF93EC014D
:1057A000E881F98183E280836183662311F00E949E
:1057B000A6278CE398E0BE010E94460DDF91CF91B1
:1057C0000895809113088823E1F080E00E94340955
:1057D00080911308813031F480912E08882311F0D4
:1057E00060E001C06BEE8091B407823031F48091AB
:1057F000C5079091C6070E94CD2B109239081092D0
:10580000B40708958091B407823039F48091C507B8
:105810009091C6076BEE0E94CD2B1092B4071092A8
:1058200039080895CF92DF92EF92FF920F931F9362
:10583000DF93CF93CDB7DEB728970FB6F894DEBFCE
:105840000FBECDBFD82EC92E8091B4078823D1F5C5
:10585000809138088330B1F18091BD07882391F59C
:105860000E948127ED2CFC2CD701ED91FC918181C8
:105870009F012C5F3F4F823031F4848195819A8360
:10588000898342E00DC0AE014F5F5F4F88E0D901D0
:105890000D909D01DA010D92AD018150C1F743E0F9
:1058A0000281138181E060E09E012F5F3F4F0E94E3
:1058B000C320882329F0D092C507C092C60707C02D
:1058C000C70102C08D2D9C2D61EE0E94CD2B289624
:1058D0000FB6F894DEBF0FBECDBFCF91DF911F9101
:1058E0000F91FF90EF90DF90CF9008955F926F92AD
:1058F0007F928F929F92AF92BF92CF92DF92EF9260
:10590000FF920F931F93DF93CF93CDB7DEB76197CD
:105910000FB6F894DEBF0FBECDBFBC014091BD07EE
:10592000423011F0443069F48091B507882349F082
:10593000E091C507F091C60720813181D901199600
:1059400004C0A0E0B0E020E030E05091210859838D
:1059500000912208109123081B830A83523069F4B6
:105960001E821F82188619861A861B86809124083B
:10597000909125089D838C8318C0809124088C8386
:10598000809125088D83809126088E838091270839
:105990008F83809128088887809129088987809142
:1059A0002A088A8780912B088B8790908F079C8686
:1059B000B0908107BD8680912F08909130089F8715
:1059C0008E87188A8091310887FF02C081E0888B1A
:1059D00080912D08898B423019F0443009F06FC056
:1059E0008091B507882309F46AC0F901F084EC813D
:1059F000FD815C806D807E808F80A884C984DA847C
:105A0000EB8440E049C011968D919C911297081744
:105A1000190709F03FC08C915817E1F51B968C913E
:105A20001B979816B9F51C968C911C97B81691F592
:105A3000523041F413968D919C911497E817F90711
:105A400049F53DC013968C911397851519F5149659
:105A50008C9114978615F1F415968C9115978715EE
:105A6000C9F416968C9116978815A1F417968C9107
:105A700017978A1579F418968C9118978C1551F40C
:105A800019968C9119978D1529F41A968C911A975D
:105A90008E15A9F04F5F51964F1508F4B4CF59C039
:105AA000FD01DE01119681E10D9001928150E1F737
:105AB000D90118968C9118978F5F18968C939091B6
:105AC000320880913508882321F48091B507882316
:105AD000E1F5DB01ED91FC9187E180838091150870
