:100000000C9435010C9456010C94D1030C945601B8
:100010000C9456010C9456010C9456010C94560104
:100020000C9456010C9456010C9456010C945601F4
:100030000C9456010C9456010C9442080C945601F1
:100040000C9473080C9456010C9456010C945601B0
:100050000C9456010C9456010C9456010C945601C4
:100060000C9456010C9456010C9456010C945601B4
:100070000C9456010C9456010C9456010C945601A4
:100080000C9456010C9456010C9481090C94560161
:100090000C9456010C9456010C9456010C94560184
:1000A0000C9456010C9456010C9456010C94560174
:1000B0000C9456010C9456010C9456010C94560164
:1000C0000C9456010C9456010C9456010C94560154
:1000D0000C9456010C9456010C9456010C94560144
:1000E0000C9456010C9456010C9456010C94560134
:1000F0000C9456010C9456010C9456010C94560124
:100100000C9456010C9456010C9456010C94560113
:100110000C9456010C9456010C9456010C94560103
:100120000C9456010C9456010C9456010C945601F3
:100130000C9456010C9456010C9456010C945601E3
:100140000C9456010C9456010C9456010C945601D3
:100150000C9456010C9456010C9456010C945601C3
:100160000C944E030C9456010C947A030C94560193
:100170000C9456010C9456010C9456010C945601A3
:100180000C9456010C9456010C9456010C94560193
:100190000C9456010C9456010C9456010C94560183
:1001A0000C9456010C9456010C9456010C94560173
:1001B0000C9456010C9456010C9456010C94560163
:1001C0000C9456010C9456010C9456010C94560153
:1001D0000C9456010C9456010C9456010C94560143
:1001E0000C9456010C94560103020201010000FF19
:1001F000FEFDFCFBF9F7F4EF531967160000CE1E65
:100200000000D01C2622000046227220F3258F28F1
:1002100000000000622300003218421800000000B5
:100220002118B717D0170318000000000000561758
:1002300000003A17A517461787177817000096177A
:10024000010401010102010101010101010101019A
:100250000401080201010101020101020102010180
:100260000201020201010101080011241FBECFEFAB
:10027000DFE5DEBFCDBF00E00CBF10E2A0E0B0E2E2
:10028000EEE2FAE500E00BBF02C007900D92A43049
:10029000B107D9F713E2A4E0B0E201C01D92A13882
:1002A000B107E1F70E947C020C94152D0C9400001C
:1002B00082E090E061E070E00E941F090895EF92F3
:1002C000FF920F931F93662399F482E090E060E021
:1002D00070E00E941F0984E040E251EA67E070E0AC
:1002E00020E030E008E511E0EE24FF240E9418072A
:1002F0001F910F91FF90EF900895EF92FF920F934F
:100300001F9381E090E062E070E00E941F0984E0AA
:1003100040E251EA67E070E020E030E00DE711E0F4
:10032000EE24FF240E9418071F910F91FF90EF9079
:100330000895EF92FF920F931F936623B9F484E020
:100340000E94090681E090E060E070E00E941F09D1
:1003500083E040E854E86EE170E020E030E00EEB2E
:1003600011E0EE24FF240E94180703C081E00E94E0
:10037000F92A1F910F91FF90EF900895EF92FF924D
:100380000F931F93DF93CF93CDB7DEB72C97CDBFDD
:10039000DEBF82E08A838EEB9AEB8B839C83809115
:1003A0000520909106208D839E830E94C22C898314
:1003B000009104200F5F0093042082E0BE016E5F75
:1003C0007F4F41E09E012F5F3F4FEE24E3940E9458
:1003D0007B2B83E040E854E86EE170E020E030E001
:1003E0000EEB11E0EE24FF240E9418072C96CDBFDF
:1003F000DEBFCF91DF911F910F91FF90EF90089595
:10040000CF92DF92EF920F93CF93DF938823C9F5BA
:10041000F60120E02DC08385843141F58485882351
:1004200029F5818192818E5B9A4B01F585859685B0
:1004300097FF1CC08081823039F48381948180933E
:100440000520909306200BC0833039F5C7E0D0E239
:10045000DF01139688E00D9009928150E1F78385C2
:100460006485AF0120E80E94442B1AC071962F5F6B
:100470002E1588F281E040E058EF6FEF77E025E03D
:1004800008C08A3E51F481E040E058EF6FEF77E01A
:1004900026E000E00E947C2A03C081E00E94F92A45
:1004A000DF91CF910F91EF90DF90CF900895EF9271
:1004B000FF920F931F938823B9F481E040E058EF37
:1004C0006FEF77E025E000E00E947C2A84E040E2C4
:1004D00051EA67E070E020E030E00DE711E0EE2443
:1004E000FF240E94180703C081E00E94F92A1F918F
:1004F0000F91FF90EF9008950E94202C882311F017
:100500000E94C2040E94190980E090E060E070E05F
:100510000E941F0981E090E061E070E00E941F09E5
:1005200082E090E061E070E00E941F09789481E031
:100530000E94F92A0E940A2CFDCF9B01AC01605059
:10054000774F824C9F4FF2E0660F771F881F991FED
:10055000FA95D1F7E3E0220F331F441F551FEA95A8
:10056000D1F70E94452C21503040E0E6F6E088E0CB
:10057000818384E08283E0EAF9E0378326838CE19B
:10058000848383E085838CE383830895DC018091F9
:10059000A309837FE0EAF9E083832091BC22809164
:1005A000BD22821730F0275F922F981B892F295088
:1005B00005C02150922F981B892F2F5F482F681755
:1005C00008F4462F342F12C09091BD22E92FF0E09D
:1005D000E855FD4D8C918083993019F41092BD221D
:1005E00003C09F5F9093BD2231501196332361F772
:1005F0008091C022882351F4E22FF0E0E855FD4DB0
:1006000080818093A00981E08093C0228091A3091A
:100610008C60E0EAF9E08383842F0895DC01209167
:10062000C122222311F480E008958091A3098F7CD8
:10063000E0EAF9E083832A3058F08091BF2280936A
:10064000BE228AE08093C1226A3020F02AE003C0F3
:10065000261708F0262F322F17C0E091BE22F0E0B7
:10066000E855FD4D82858C939091BE229F5F9093BB
:10067000BE228091C12281508093C1229A3011F410
:100680001092BE2211963150332339F78091A3097D
:100690008063E0EAF9E08383822F08951F920F922E
:1006A0000FB60F920BB60F9211248F939F93EF9377
:1006B000FF939091BF228091C1228F5F8093C122CE
:1006C0008091A009E92FF0E0E855FD4D828799302F
:1006D00019F41092BF2203C09F5F9093BF22FF9135
:1006E000EF919F918F910F900BBE0F900FBE0F90C7
:1006F0001F9018951F920F920FB60F920BB60F9284
:1007000011248F93EF93FF938091BC22893019F4C9
:100710001092BC2203C08F5F8093BC22E091BC2268
:100720008091BD22E81739F0F0E0E855FD4D808159
:100730008093A00902C01092C022FF91EF918F9187
:100740000F900BBE0F900FBE0F901F90189588232F
:1007500011F080E00895CB01642F0E940E030895EC
:10076000882311F080E00895CB01642F0E94C60217
:100770000895882311F085E8089560E875E280E027
:1007800090E00E949D0280E0089580930F20909356
:100790001020E0E4F6E091E0918B82E0828794877C
:1007A00008951F920F920FB60F920BB60F9211245D
:1007B0002F933F934F935F936F937F938F939F9369
:1007C000AF93BF93EF93FF93ECE4F8E080818061F7
:1007D0008083E0910F20F09110201995FF91EF9107
:1007E000BF91AF919F918F917F916F915F914F9149
:1007F0003F912F910F900BBE0F900FBE0F901F9047
:100800001895BF92CF92DF92EF92FF920F931F93B2
:10081000CF93DF93892B11F088EE31C0CA01860F88
:10082000971F8150904110F085E829C0A0E0B0E00A
:10083000C0ECD1E0E6E0BE2E98EDC92ED12C81E0CF
:10084000E82EF12C0BEC11E016C08091CF0187FD52
:10085000FCCF1A8279836093C001BA86C601F80181
:1008600084BFE0828091C401F901EA0FFB1F8083FD
:1008700011966F5F7F4FA417B50738F380E0DF91C3
:10088000CF911F910F91FF90EF90DF90CF90BF908D
:1008900008954F925F926F927F928F929F92AF9244
:1008A000BF92CF92DF92EF92FF920F931F93CF935D
:1008B000DF939C016B015A01CB01820F931F815082
:1008C000904110F085E84DC0A0E0B0E0C0ECD1E070
:1008D00040EC51E076E0672E68EDE62EF12C01E069
:1008E00010E06BEC71E093E3792E85E3882EF6E35C
:1008F0009F2E33C08091CF0187FDFCCFFA01128279
:100900003183522E2093C0016286C701FB0184BF50
:1009100000838091C401F501EA0FFB1F408084151C
:10092000C9F08091CF0187FDFCCF8091CF0181FF7D
:1009300006C0FA019286C701FB0184BF00837A8654
:100940005092C00119821A824C828A86C701FB012B
:1009500084BF00832F5F3F4F1196AC15BD0550F249
:1009600080E0DF91CF911F910F91FF90EF90DF908A
:10097000CF90BF90AF909F908F907F906F905F903F
:100980004F9008951F93CF93DF93E0E2F6E0148237
:100990008FEF8183C0E2D6E01FEF8FEF9FEF0E94C1
:1009A00011051F83FACF0E94DF0608950E94CA082E
:1009B0000E94E5080E940E0A82E0E0E6F6E08183EC
:1009C0000E9486080E94BD080E94C40880E0089525
:1009D000892B29F488E080930008809340080895CB
:1009E000FC012091C2223091C322C901A0E0B0E0F5
:1009F000BC01552744278091200890912108A0E050
:100A0000B0E0482B592B6A2B7B2B8091C22290910E
:100A1000C3222817390729F74083518362837383E0
:100A200008954FB7F8948630910518F12091200869
:100A300030912108280F391F8091200890912108BA
:100A40008217930740F48091200890912108821723
:100A50009307C8F30EC080912008909121082817B1
:100A60003907C8F3809120089091210882179307D5
:100A7000C8F34FBF089520E090E0FC0153E0EE0F73
:100A8000FF1F5A95E1F7E80FF91FEC53FD4D8481E4
:100A90009581892B09F021E0822F0895DF92EF9252
:100AA000FF920F931F93DFB6F894809113208F3F2E
:100AB00009F456C090E0FC01A3E0EE0FFF1FAA95D9
:100AC000E1F7E80FF91FEC53FD4DE080F180028162
:100AD00013812091C2223091C322C801AA27BB27CB
:100AE0002817390769F4E0922808F09229088091C4
:100AF0000C08806180930C0880910708836003C014
:100B0000809107088C7F809307086091C2227091C2
:100B1000C3229B0140E050E0809120089091210881
:100B2000A90133272227A0E0B0E0282B392B4A2B3C
:100B30005B2B8091C2229091C3226817790729F715
:100B40002E193F09400B510B2F5F3F4F4F4F5F4F07
:100B50002F5F3F4F4F4F5F4718F481E08093122083
:100B6000DFBE1F910F91FF90EF90DF90089580916D
:100B70001220882309F44CC01092122030911120C9
:100B8000332309F445C0809114208F3F59F480919C
:100B900015208F3F39F48091132080931520809386
:100BA000142012C0209113208091152090E0FC01A8
:100BB00043E0EE0FFF1F4A95E1F7E80FF91FEC53F2
:100BC000FD4D2087209315208091132090E0FC019B
:100BD00023E0EE0FFF1F2A95E1F7E80FF91FEC5312
:100BE000FD4D8085809313208091152090E0FC01BD
:100BF000B3E0EE0FFF1FBA95E1F7E80FF91FEC53D2
:100C0000FD4D8FEF80873150309311200E944E05AB
:100C10000895FF920F931F93182F853010F08AE8E4
:100C2000C5C0FFB6F8940E94B705009111200023BB
:100C300009F4C0C040911320842F242F302F1217A5
:100C4000F1F5212F30E0141781F4F90163E0EE0F84
:100C5000FF1F6A95E1F7E20FF31FEC53FD4D80850E
:100C6000809313200E944E0518C090E0DC0153E0F1
:100C7000AA0FBB1F5A95E1F7A80FB91FAC53BD4D82
:100C8000F90143E0EE0FFF1F4A95E1F7E20FF31F72
:100C9000EC53FD4D808518968C93812F90E0FC01DC
:100CA00023E0EE0FFF1F2A95E1F7E80FF91FEC5341
:100CB000FD4D8FEF808701500093112062C0822F7D
:100CC00090E0FC01B3E0EE0FFF1FBA95E1F7E80FEB
:100CD000F91FEC53FD4D50853150822F09F46AC045
:100CE000252FADCF1217D1F5209115201317B1F490
:100CF000121721F48FEF809315200DC0812F90E003
:100D0000FC01A3E0EE0FFF1FAA95E1F7E80FF91F22
:100D1000EC53FD4D80858093142033C0842F90E0E8
:100D2000DC01E3E0AA0FBB1FEA95E1F7A80FB91FAA
:100D3000AC53BD4D812F90E0FC0173E0EE0FFF1F1F
:100D40007A95E1F7E80FF91FEC53FD4D8085189671
:100D50008C931217B1F44093152013C0822F90E0AA
:100D6000FC0163E0EE0FFF1F6A95E1F7E80FF91F42
:100D7000EC53FD4D422F20852F3F09F0B3CF80E08B
:100D80000FC0812F90E0FC0153E0EE0FFF1F5A953A
:100D9000E1F7E80FF91FEC53FD4D1482158281E055
:100DA000FFBE882311F489E801C080E01F910F91F4
:100DB000FF90089530911420432F232FDDCF1F93F0
:100DC0001FB7F8940E94B7051FBF1FEF25C06FB76C
:100DD000F894822F90E0FC0173E0EE0FFF1F7A95EC
:100DE000E1F7E80FF91FEC53FD4D20854481558153
:100DF00086819781108714821582168217822F3F71
:100E000009F43FEF6FBF4115510551F030931520A4
:100E100020931420FA011995309115202091142067
:100E20002F3FA9F630931520209314201F91089589
:100E30002F923F924F925F927F928F929F92AF92AA
:100E4000BF92CF92DF92EF92FF920F931F93CF93B7
:100E5000DF93782E5A016B01490194E0292E281660
:100E600010F48AE8E2C00115110509F4DBC0C82FAF
:100E7000D0E0FE0183E0EE0FFF1F8A95E1F7EC0F53
:100E8000FD1FEC53FD4D84819581892B11F088E87D
:100E9000CCC06091C2227091C3229B0140E050E01F
:100EA0008091200890912108A90133272227A0E0F2
:100EB000B0E0282B392B4A2B5B2B8091C2229091DA
:100EC000C3226817790729F78114910431F061E092
:100ED0008616910409F0A6C011C0D601C50180583C
:100EE0009040A040B04080589F4FAF4FBF4708F0A0
:100EF0009BC0A20EB31EC41ED51E10C0D601C501D4
:100F000080589040A040B040821B930BA40BB50BBF
:100F100080589F4FAF4FBF4708F086C09FB6F894E8
:100F20000E94B705509113205F3F31F0609111206E
:100F3000452F252F30E054C070921320FE01A3E00E
:100F4000EE0FFF1FAA95E1F7EC0FFD1FEC53FD4DCF
:100F5000508731C02F3F09F43EC0822F90E0FC0142
:100F600073E0EE0FFF1F7A95E1F7E80FF91FEC53DE
:100F7000FD4D80819181A281B38115012601281A3E
:100F8000390A4A0A5B0AD201C1018F5F9F4FAF4FF6
:100F9000BF4710F4808521C0FE0133E0EE0FFF1F34
:100FA0003A95E1F7EC0FFD1FEC53FD4D20875217EA
:100FB00021F47092132091E017C0842F90E0FC017F
:100FC00023E0EE0FFF1F2A95E1F7E80FF91FEC531E
:100FD000FD4D708655C08FEF242F3F5F422F282F85
:100FE000361708F4B7CF33C0FE0183E0EE0FFF1FC2
:100FF0008A95E1F7EC0FFD1FEC53FD4DA082B18205
:10100000C282D38204831583E682F7828091112005
:101010008F5F80931120992311F00E944E059FBE8F
:1010200080E003C088EE01C08BE8DF91CF911F9173
:101030000F91FF90EF90DF90CF90BF90AF909F9077
:101040008F907F905F904F903F902F900895842FC6
:1010500090E0FC01B3E0EE0FFF1FBA95E1F7E80F57
:10106000F91FEC53FD4D7086FE01A3E0EE0FFF1F4C
:10107000AA95E1F7EC0FFD1FEC53FD4D8FEF808734
:1010800090E0B2CF1F920F920FB60F920BB60F9255
:1010900011242F933F934F935F936F937F938F937D
:1010A0009F93AF93BF93EF93FF938091C222909150
:1010B000C32201968093C2229093C3220E944E05C0
:1010C000FF91EF91BF91AF919F918F917F916F9120
:1010D0005F914F913F912F910F900BBE0F900FBEDC
:1010E0000F901F9018951F920F920FB60F92112418
:1010F0008F9380911120882319F081E08093122032
:101100008F910F900FBE0F901F9018951092112085
:10111000109212201092C2221092C3228FEF80935D
:1011200013208093142080931520E8ECF2E284834E
:1011300010821182399692E2E53FF907C1F70E94C9
:1011400002090895FC018091C2229091C32220914E
:10115000680830916908A0E0B0E0DC019927882791
:1011600040E050E0822B932BA42BB52B80839183FE
:10117000A283B383089581E0089584E88093800179
:1011800081E6809381010895E0EAF0E08281846045
:101190008283089582E0809350008091510081FF06
:1011A000FCCF98ED94BF84E0E0E4F0E0818394BF4D
:1011B00081E08093400082E0E0E5F0E0868380916A
:1011C00060008160809360000895E0E4F6E0808133
:1011D000806180838081806880838081816080835A
:1011E00080818062808380818860808380818F7B22
:1011F0008083E0E6F6E080ED818380E2828380E117
:101200008583089588E0809300088093400880EFEC
:1012100080930C0880E380934C0883E08093060859
:10122000E1E4F8E080818061808389E28093430873
:101230000895E0E2F6E087E08183868308958130B7
:10124000910519F0029719F404C021E003C020E0D1
:1012500001C022E06115710521F061307105A9F42A
:101260000BC081E090E002C0880F991F2A95E2F739
:10127000E0E2F6E08583089502C0660F771F2A95A5
:10128000E2F7E0E2F6E06683089581E090E002C0D4
:10129000880F991F2A95E2F7E0E2F6E08783089528
:1012A000E0E2F6E088E0828388E1838B0895E0E263
:1012B000F6E0208530E053E0369527955A95E1F722
:1012C00021703070C9010895FC0181E0838324817D
:1012D0003581C90108952FB7F89498E09093B00034
:1012E000E0E2F6E08BE1838B81858C7F82608187F1
:1012F0009287E0EAF0E082818260828378942FBF57
:1013000008951F920F920FB60F920BB60F921124F1
:101310008F93EF93FF93E0E2F6E08285877F8287E9
:10132000E8E4F0E080818E7F8083FF91EF918F91E0
:101330000F900BBE0F900FBE0F901F9018950E943C
:101340006B09E8E4F0E08081807F85608083789499
:1013500088950895FF920F931F938C01FC01F480F0
:10136000148280E490E00E941105F801F4821F913C
:101370000F91FF9008950F931F9300E012E080916A
:101380000102897E8061F801818380910402887F57
:1013900083608483809102028F7C8061828380914C
:1013A0002002807E816080A382E181A3809100027F
:1013B00081608093000280E092E00E94AA098091FF
:1013C00001028860F801818320E030E040E050E0D5
:1013D000E0E2F2E061E08091230280FFFCCF6383D2
:1013E0008091240290912502220F331F817090E09A
:1013F000282B392B4F5F5F4F4031510561F78091AA
:101400000102877FE0E0F2E08183809100028E7F1D
:1014100080930002C9011F910F91089580E5809388
:10142000C00880E1E0E4F6E085830895E0E4F6E0BA
:1014300020914906909149069C7F9187806C90E1AC
:101440009683E0ECF8E083838091C20887FFFCCFAD
:10145000E0ECF8E063838091C20887FFFCCFE0E412
:10146000F6E080E1858321870895E0E4F6E02091AD
:101470004906909149069C7F9187806890E1968308
:10148000E0ECF8E083838091C20887FFFCCFE0ECBA
:10149000F8E013828091C20887FFFCCF8091C308D7
:1014A000E0E4F6E090E1958321870895CF93DF9300
:1014B000DC0180E1E0E4F6E0868380E2E0ECF8E045
:1014C00083838091C20887FFFCCFE0ECF8E01382B1
:1014D0006130A9F0FD01262FC0ECD8E08091C20850
:1014E00087FFFCCF8091C3081B828193215022305B
:1014F000A8F76250862F90E00196A80FB91F80913F
:10150000C20887FFFCCF8091C3088C9380E1E0E4A0
:10151000F6E08583DF91CF910895DC0180E1E0E47E
:10152000F6E0868380E6E0ECF8E083838091C208F1
:1015300087FFFCCFE0ECF8E09D9161508091C208FC
:1015400087FFFCCF93836623B9F78091C20887FF9A
:10155000FCCF80E1E0E4F6E085830895FF920F93ED
:101560001F93062FF42E0E94350A082310E002C0B4
:1015700015950795FA94E2F7802F1F910F91FF9030
:101580000895DF92EF92FF920F931F93D82EF62EBD
:10159000E42E022F0E94350A10E002C0000F111F36
:1015A000EA94E2F76F2D6023F094F8226F298D2DD5
:1015B0000E94160A1F910F91FF90EF90DF900895FF
:1015C000BC01009721F08EE892E20E94150B08956D
:1015D0008EE892E260E070E00E94AA0B08950F93FB
:1015E0001F93CF93DF938EE892E20E940E0BCEE71B
:1015F000D2E206E110E2088319838EE892E2BE018E
:101600000E94150B249606561F4F82E2CE38D8074B
:1016100091F7DF91CF911F910F910895FC011082F6
:1016200011821282138214820895CF93DF93DC011A
:10163000EB019FB7F89414968C911497882321F4AA
:101640006D937C93119706C01296ED91FC911397C0
:10165000628373831296CD93DC9313971A821B8255
:1016600014968C9114978F5F14968C939FBFDF9183
:10167000CF9108959F92AF92BF92CF92DF92EF9257
:10168000FF920F931F93CF93DF938C015B016A014D
:101690009FB6F894DC0114968C91882319F4C0E06D
:1016A000D0E04AC0F801C081D18141155105B1F0A7
:1016B0007E0111C0D60112966D917C911397ED9128
:1016C000FC91888199811995882359F47E018A813A
:1016D0009B819C01E901209769F72EC0209761F159
:1016E0007E01AB2849F5F801808191812A813B81F7
:1016F000C817D90719F42083318305C0D701129682
:101700002D933C931397F80182819381C817D907D1
:1017100011F4E282F382D80114968C9114978150CF
:1017200014968C9314978D919C911197892B21F489
:1017300012961D921C9213979FBECE01DF91CF91FE
:101740001F910F91FF90EF90DF90CF90BF90AF90DF
:101750009F900895AB0160E070E00E943A0B0895FD
:10176000AB0161E070E00E943A0B0895CF93DF93E4
:10177000EC010BC0CE0160E070E00E94AA0B009764
:1017800011F41C8205C00E94E00A8C81882391F725
:10179000DF91CF9108950F931F93DF93CF93CDB730
:1017A000DEB72897CDBFDEBF81E06FE140E00E9449
:1017B000AE0A883009F03FC0809149068C7FE0E492
:1017C000F6E081878EE061E00E94160A8FE00E94B9
:1017D000350A82E069E00E94160ACE0101960E9455
:1017E000F0048E010B5F1F4F8FE00E94350A80FDD1
:1017F00014C0C8010E94F0048D819E81AF81B8851C
:1018000029813A814B815C81821B930BA40BB50B20
:1018100089509740A040B04038F300E416E081E0E2
:10182000F80184878EE068E00E94160A80914906DC
:101830008360F80181872896CDBFDEBFCF91DF910D
:101840001F910F910895EF92FF920F931F938C01B8
:1018500080911123909112230F97D1F488E0E0E456
:10186000F6E0868381E06FE140E00E94AE0A8830B6
:10187000C9F70830110519F00330110549F488E063
:1018800090E0809311239093122328E030E0C2C2AD
:1018900081E06FE140E00E94AE0A80931123109234
:1018A00012230930110509F499C00A30110568F4B2
:1018B0000630110509F449C10830110509F44BC07F
:1018C0000330110509F098C25EC00631110509F414
:1018D000AFC10731110528F40A30110509F08CC297
:1018E000A0C00931110509F415C20A31110509F02A
:1018F00083C282E063E00E94160A0E94C22C682F15
:10190000192F8DE20E94160A8EE267E040E0212F37
:101910000E94C10A0000000000000000000000005A
:1019200000000000000000000000000000000000B7
:101930000000000088E0E0E4F6E0858383E290E0C8
:101940000E9411058FE090E0809311239093122361
:101950002FE030E05FC2883009F44EC282E068E0D8
:101960000E94160A000000000000000000000000B5
:101970000000000000000000000000000000000067
:101980000000000039C2883009F436C2893189F478
:1019900082E063E00E94160A00E416E098E0F92E67
:1019A000F801F58282E090E00E941105F801F682CC
:1019B00023C282E063E00E94160A000000000000DB
:1019C0000000000000000000000000000000000017
:1019D000000000000000000000000EC2883009F482
:1019E000B1C0893020F4863009F006C205C08631C6
:1019F00019F0893109F000C282E069E00E94160AFC
:101A000000000000000000000000000000000000D6
:101A100000000000000000000000000000000000C6
:101A2000EBC1883009F48EC0893048F4823009F463
:101A300037C0863061F0813009F0DEC108C08231E4
:101A400009F452C0863119F0813109F0D5C100E4A2
:101A500016E0F0904906809149068C7FF801818755
:101A600082E063E00E94160A82E069E00E94160AA2
:101A70008FE00E94350A81E0F8018487F18600003A
:101A80000000000000000000000000000000000056
:101A90000000000000000000000000000000ACC1D9
:101AA00000E416E0F0904906809149068C7FF80129
:101AB000818782E063E00E94160A82E069E00E946A
:101AC000160AF801F1860000000000000000000086
:101AD0000000000000000000000000000000000006
:101AE00000000000000088C100E416E0E090490614
:101AF000809149068C7FF801818782E063E00E9433
:101B0000160A88E0F82EF801F68282E090E00E9442
:101B10001105F801F58282E069E00E94160AF801D9
:101B2000E18600000000000000000000000000004E
:101B300000000000000000000000000000000000A5
:101B400000005AC10E94CB0B57C1893069F08A301E
:101B500020F4883009F050C11CC0863109F430C02F
:101B6000893109F049C12CC082E066E00E94160A62
:101B70000000000000000000000000000000000065
:101B80000000000000000000000000000000000055
:101B900033C10E94CB0B82E066E00E94160A00006F
:101BA0000000000000000000000000000000000035
:101BB00000000000000000000000000000001CC148
:101BC00082E069E00E94160A0000000000000000A8
:101BD0000000000000000000000000000000000005
:101BE000000000000000000081E06FE140E00E9482
:101BF000AE0A282F30E0209311233093122329308E
:101C0000310509F007C182E066E00E94160A000073
:101C100000000000000000000000000000000000C4
:101C20000000000000000000000000000000E4C010
:101C3000883009F1893020F4863009F0DDC032C0E7
:101C4000893021F0893109F0D7C02CC082E066E1EB
:101C50000E94160A000000000000000000000000C2
:101C60000000000000000000000000000000000074
:101C700000000000C1C00E94CB0B82E066E10E9420
:101C8000160A000000000000000000000000000034
:101C90000000000000000000000000000000000044
:101CA0000000AAC082E069E00E94160A000000005D
:101CB0000000000000000000000000000000000024
:101CC00000000000000000000000000081E06FE163
:101CD00040E00E94AE0A282F30E020931123309379
:101CE00012232930310509F095C082E066E10E9497
:101CF000160A0000000000000000000000000000C4
:101D000000000000000000000000000000000000D3
:101D1000000072C0883009F459C0893020F4863040
:101D200009F06AC01BC0893021F0863109F064C017
:101D300015C082E069E10E94160A00000000000060
:101D40000000000000000000000000000000000093
:101D5000000000000000000000004EC082E069E0CA
:101D60000E94160A000000000000000000000000B1
:101D70000000000000000000000000000000000063
:101D80000000000081E06FE140E00E94AE0A282FD1
:101D900030E020931123309312232930310509F0CC
:101DA00039C082E069E10E94160A000000000000CC
:101DB0000000000000000000000000000000000023
:101DC0000000000000000000000016C00E94CB0BC5
:101DD00082E069E10E94160A000000000000000095
:101DE00000000000000000000000000000000000F3
:101DF000000000000000000081E06FE140E00E9470
:101E0000AE0A282F30E020931123309312232F3174
:101E1000310591F3C9011F910F91FF90EF90089543
:101E2000809102238823F9F080911B2390911C2339
:101E3000892BC9F48091932290919422892B39F4B3
:101E40008AE90E94E80A80939322909394228091D9
:101E5000932290919422892B31F01092022386E1F3
:101E600090E00E94230C80910723882351F083E0A7
:101E700093E260E070E00E94AA0B009711F00E94CC
:101E80004E0F80911B2390911C23009731F08F708F
:101E90008250823010F40E94AC100895EF92FF92AD
:101EA0000F931F93CF93DF937C01DC010D911C9165
:101EB000D8011696ED91FC91179780818093142399
:101EC000C82FD0E02196CE0FDF1F988129812032C4
:101ED00010F02FE103C0222309F421E0929596959A
:101EE000969593708FEF989FC001112430E0FC010C
:101EF000E29FC001E39F900DF29F900D11246DE5CC
:101F000070E00E94312C6F3F710511F008F06FEF07
:101F10006883D8011196ED92FC921297C8010E9435
:101F20009418DF91CF911F910F91FF90EF9008953A
:101F3000DF92EF92FF920F931F93DF93CF930F9255
:101F4000CDB7DEB7E0919322F09194223097C9F19A
:101F5000E080F18087E00E94350AD82ECE010196FC
:101F600061E00E94560A698167FD2BC06D5F0AE936
:101F700010E0061B11090E0D1F1D6150C8010E94C3
:101F8000560AF701068317838981080F111DF8018E
:101F9000D282609193227091942283E093E20E9416
:101FA000150B8AE90E94E80A809393229093942269
:101FB000892B39F489E090E00E94230C81E0809322
:101FC00002230F90CF91DF911F910F91FF90EF901F
:101FD000DF90089520911B2330911C23223031057E
:101FE000A9F5882349F582E060EE45E00E94AE0A3B
:101FF0008330B1F0843028F4882361F08130E1F43B
:1020000003C08530C9F412C080911B2390911C231A
:10201000806117C080911B2390911C23806211C0A6
:1020200080911B2390911C2380630BC080911B2304
:1020300090911C23806405C080911B2390911C23E8
:10204000806580931B2390931C23089523303105D2
:1020500031F483E290E080931B2390931C23089536
:10206000EF92FF920F931F93CF93DF937C01EB01CD
:10207000442359F08CE260EF44E0209110230E9449
:10208000C10AC230D10528F50AC06230710538F0A6
:102090008CE260EF44E020E00E94C10A1AC089E0AF
:1020A00090E00E94230C0997D1F783E090E08093A1
:1020B0001B2390931C232197C1F480911423833117
:1020C00018F080E492E002C080E890E00E941105E0
:1020D0000CC089E190E00E94230C4997D1F782E07F
:1020E00090E080931B2390931C2300E416E08091E2
:1020F00049068C7FF801818788E085838683F70114
:1021000060816150C7010E948D0A809149068360F9
:10211000F8018187DF91CF911F910F91FF90EF9090
:102120000895FC0180911B2390911C23892B11F0B1
:1021300086E80895E0930D23F0930E23868197811E
:102140008093152390931623009711F488EE089539
:102150000E94301080E0089580911B2390911C23F1
:102160009C01207F30708F7090708230910521F03B
:10217000039709F059C04AC02033310539F12133A2
:10218000310540F42031310569F02032310509F084
:102190004BC012C02034310519F12035310509F04A
:1021A00043C028C010921B2310921C2360910D2362
:1021B00070910E2387E827C010921B2310921C23D6
:1021C00060910D2370910E2380E01DC010921B239F
:1021D00010921C2360910D2370910E2381EE13C089
:1021E00010921B2310921C2360910D2370910E23DB
:1021F00089EE09C010921B2310921C2360910D23BD
:1022000070910E2385E80E9404250895203231053F
:1022100059F410921B2310921C2360910D2370918E
:102220000E2380E00E9404250895282F85FD03C019
:10223000982F9F7304C0982F91959F719195E8EE08
:10224000F1E08491891734F03F968491981714F047
:10225000822F0CC0803E3CF080323CF487FF06C0E9
:102260008F71806203C080E201C08FE180680895B1
:1022700084E08093082323E020930F238FEF9FEFC8
:102280008093FD229093FE2280930023909301235C
:102290008BE080930A2380E098EFAFEFB7E0809364
:1022A000172390931823A0931923B0931A23109205
:1022B000FC228AE091E08093FA229093FB228AE04C
:1022C0008093132382E08093092385E080930C237D
:1022D0002093102383E80E9415118093F12281E05E
:1022E0008093FF2210920B23089585FD03C0982F41
:1022F0009F7304C0982F91959F719195E8EEF1E03E
:1023000080E02491921724F029173CF4815008951D
:102310008F5F31968031A9F780E008951F93CF93A6
:10232000DF9382E26091FD220E94160A83E26091AF
:10233000FE220E94160AC2EFD2E214E2812F6991B6
:102340000E94160A1F5F1C32C9F780E260910023C9
:102350000E94160A81E2609101230E94160A809170
:10236000F1220E947511282F85E06FE040E00E9465
:10237000C10A88E060E645E02091FF220E94C10A80
:1023800088E06FE140E020910A230E94C10A8EE2BA
:1023900060EC46E020910F230E94C10ADF91CF91AB
:1023A0001F9108950F931F93CF93DF93EB018E340A
:1023B00031F0893541F4888180931023E2C088810F
:1023C00080930823DEC020911123309112232F30F7
:1023D000310511F481E8D6C08B3009F4C5C08C30CA
:1023E00070F4823009F488C0833018F48823E9F14E
:1023F00015C0833009F48EC0843081F46DC08335FC
:1024000021F1843528F48F3459F0803539F40FC028
:10241000873509F46DC0803F09F483C084EFB2C0F2
:10242000288120930F238EE260EC46E0A3C08881D0
:102430009981682F8093FD229093FE2282E20E9470
:10244000160A83E26091FE220DC088819981682F6F
:10245000809300239093012380E20E94160A81E278
:10246000609101230E94160A8CC080911B239091D9
:102470001C23892B09F081C080E098EFAFEFB7E013
:10248000088004C0B695A795979587950A94D2F7CA
:1024900081709070892B09F472C02830310519F4CD
:1024A00008E010E008C088E090E00E94230C089744
:1024B000D1F706E110E0288120930A2388E06FE13C
:1024C00040E00E94C10A0830110509F45AC086E1B3
:1024D00090E00E94230C55C080911B2390911C23F7
:1024E000892B09F04AC08881882309F44AC047C073
:1024F000888180930C2345C088818093F1220E94BB
:1025000015118093F1220E947511282F85E06FE04C
:1025100040E030C028812093FF2288E060E645E05B
:1025200029C088818093F22289818093F3228A8155
:102530008093F4228B818093F5228C818093F62204
:102540008D818093F7228E818093F8228F818093F2
:10255000F922C2EFD2E214E2812F69910E94160A99
:102560001F5F1C32C9F70DC0288120930B238EE218
:1025700068E043E00E94C10A04C086E803C088EE18
:1025800001C080E0DF91CF911F910F910895EF92EC
:10259000FF920F931F93E82E00E416E088E0F80105
:1025A000868380E793E00E941105FF24F394F801ED
:1025B000F68286E090E00E941105F801F58210E0B5
:1025C00081E06FE140E00E94AE0A1F5F1B3F11F403
:1025D00085E83BC08830A1F788E090E08093112324
:1025E0009093122383E061E00E94160A8EE260E27B
:1025F00045E021E00E94C10A85E060E847E021E073
:102600000E94C10A8EE068E00E94160A0E94C22C55
:10261000682F192F8DE20E94160A8EE267E040E0D3
:10262000212F0E94C10A80E00E94FE140E94E8143B
:10263000EE2011F00E9438110E948E1110921B237F
:1026400010921C231092022380E01F910F91FF90A3
:10265000EF9008950E94C712882361F085E80895DD
:1026600083E093E260E070E00E94AA0B009711F013
:102670000E94E00A80910723882391F788EC94E177
:102680000E94C503E0E4F6E081E08487809149067A
:102690008360818780E00895EF92FF920F931F93EC
:1026A000CF93DF930E94D604882309F069C100E428
:1026B00016E0FF24F394F801F58288E0868384EF26
:1026C00091E00E941105F801F68286E090E00E94F8
:1026D0001105F801F58200E004C00F5F0F3F09F417
:1026E0004FC18DE10E94350A8230B9F78CE10E941A
:1026F000350A823091F768E00E94160A00E081E016
:102700006FE140E00E94AE0A015009F439C18830FF
:10271000B1F788E090E0809311239093122380E03A
:1027200090E060E070E048E050E022EF32E20E948A
:1027300001047091F222E091F3224091F422609121
:10274000F522F091F622B091F722F090F822509104
:10275000F922E72EEA9491E0E71608F090E08E2F38
:10276000815021E08E1708F020E0192F180F91E01A
:10277000181708F090E0292B842F815031E084173E
:1027800008F030E0022F080F91E0081708F090E001
:10279000392B862F815021E0861708F020E0A32FE7
:1027A000A80F91E0A81708F090E0292B8F2F8150F7
:1027B00031E08F1708F030E0622F680F91E0681762
:1027C00008F090E0392B8B2F815021E08B1708F017
:1027D00020E0432F480F91E0481708F090E0292BA4
:1027E0008F2D815091E08F1508F090E0322F380F37
:1027F00021E0381708F020E0922B5195591709F085
:102800009AC03F3F09F097C04F3F09F094C06F3F17
:1028100009F091C0AF3F09F08EC00F3F09F08BC0A7
:102820001F3F09F088C0FDEFFE1508F084C00E942C
:10283000BB090E94C72CC2EFD2E20E94C22C89932E
:1028400082E2CA3FD807C9F78091F2223091F32281
:102850004091F4226091F5227091F622F091F722D6
:10286000B091F8225091F922082F015091E00817F9
:1028700008F090E0832F815021E0831708F020E0DA
:10288000192F180F91E0181708F090E0292B842FCA
:10289000815031E0841708F030E0A22FA80F91E0BA
:1028A000A81708F090E0392B862F815021E0861779
:1028B00008F020E0E32FE80F91E0E81708F090E03F
:1028C000292B872F815031E0871708F030E0622FE5
:1028D000680F91E0681708F090E0392B8F2F815036
:1028E00021E08F1708F020E0432F480F91E04817B0
:1028F00008F090E0292B8B2F815091E08B1708F086
:1029000090E0322F380F21E0381708F020E0922BAA
:1029100051955917A1F43F3F91F44F3F81F46F3F18
:1029200071F4EF3F61F4AF3F51F41F3F41F40E3FAC
:1029300008F081CF04C0872F9E2F0E94C72C81E012
:102940000E94C7128823E1F48FE00E94350A88ECC8
:1029500094E10E94C503809149068360E0E4F6E0BB
:1029600081870E94EF0A8AE90E94E80A80939322F5
:102970009093942283E093E20E940E0B80E001C0CA
:1029800085E8DF91CF911F910F91FF90EF9008950F
:10299000CF93DF938FE00E94350AC82F83FF15C0C5
:1029A00080911B2390911C230297029760F486E18B
:1029B00090E00E94230CC6FF02C081E001C080E0CD
:1029C0000E94EA0F02C00E94980FDF91CF910895F4
:1029D00080911123909112230F9711F082E80895AE
:1029E00088E090E00E94230C089711F085E8089594
:1029F00081E090E00E94E80480E00895882311F0CF
:102A000088EE089580911123909112230F9711F46D
:102A100081E8089580911B2390911C23892BA1F4B8
:102A20001092022388E090E00E94230C0897D1F7CF
:102A300080E090E00E94E8048AE190E00E94230C8C
:102A40000F9711F480E0089586E80895282F80916B
:102A50001B2390911C23892B11F086E808952830C0
:102A600041F488E090E00E94230C1092022388E059
:102A700008958091932290919422892B31F086E1E0
:102A800090E00E94230C86E0089581E08093022369
:102A900086E00895DC01ED91FC91119784E180833B
:102AA0006383418352838CE793E2BD010E94150B3F
:102AB00008950F931F93DF93CF930F920F92CDB78B
:102AC000DEB7A0913923B0913A23ED91FC91119793
:102AD00084E180838BEE83830FEF1FEF01831283EA
:102AE0008CE793E2BD010E94150B10922A23098303
:102AF0001A8380E5BE016F5F7F4F0E940321009320
:102B00003B2310933C231092492310924A231092A6
:102B10004B2310924C2310924D2310924E2310926F
:102B20004F23109250230E94FD1F0F900F90CF91C2
:102B3000DF911F910F910895EF92FF920F931F93D2
:102B4000E0904523F090462380E061E040E020E003
:102B500030E000E010E00E948B1B8823A9F4A091D4
:102B60003923B0913A23ED91FC91119784E1808350
:102B700081EE83838FEF9FEF818392838CE793E2D3
:102B8000BD010E94150B19C0A70160E070E084E050
:102B9000440F551F661F771F8A95D1F780E020E00C
:102BA00030E009E515E1EE24FF240E941807882390
:102BB00021F080E090E00E9459151F910F91FF9045
:102BC000EF900895FF920F931F93DF93CF930F928F
:102BD0000F92CDB7DEB7F09071230E94E00AFF207C
:102BE000B1F583E56FE673E20E94032120916F2324
:102BF00030917023809164238093492380916523D1
:102C000080934A238091662380934B23809167238E
:102C100080934C238091682380934D238091692376
:102C200080934E2380916A2380934F2380916B235E
:102C30008093502381E08093782310922A238091FF
:102C40003423833031F582E08093342322C0109204
:102C50002A230FEF1FEF09831A8380E5BE016F5F00
:102C60007F4F0E94032100933B2310933C2310923B
:102C7000492310924A2310924B2310924C23109216
:102C80004D2310924E2310924F23109250232FEF7A
:102C90003FEFE0913923F0913A23A081B18184E1A3
:102CA0008C931396FC92139711962D933C93129745
:102CB0008CE793E2BF010E94150B0E94FD1F0F904D
:102CC0000F90CF91DF911F910F91FF900895CF92B8
:102CD000DF92EF92FF921F93DF93CF93CDB7DEB7D2
:102CE0002F97CDBFDEBFAC017C01DE011196FC0148
:102CF000808191819C01F9018FE001900D928150BA
:102D0000E1F74093392350933A238C81823019F4B0
:102D10008F8198851AC08F818093492388858093FD
:102D20004A23898580934B238A8580934C238B8506
:102D300080934D238C8580934E238D8580934F23E4
:102D40008E85809350238EEF9FEF80933B2390934B
:102D50003C2380E5BE016B5F7F4F0E9403210E94F0
:102D6000D81FD701CD90DC9081E0F6018083E1820D
:102D7000F282EA56FF4F80838F8581839F0128501E
:102D80003040D901E2EFF2E288E001900D928150EB
:102D9000E1F7F9018FEF9FEF929382938C8182305C
:102DA00051F480913B2390913C239293829345E18F
:102DB00023E238EC11C0F9013A979F0149E453E24C
:102DC00088E0DA010D90AD01D9010D929D0181508D
:102DD000C1F74BE123E23CEC8091FD229091FE2271
:102DE000929382938091352382938F5F80933523D2
:102DF000329322934293D6011696ED93FC93179744
:102E000084E0BE016D5F7F4F0E940321182F80E098
:102E1000BE016E5F7F4F0E940321112371F488234E
:102E200061F4C60162E070E041E00E9491108823E5
:102E300021F481E08093792312C0D701ED91FC91B8
:102E400084E1808381EE83838FEF9FEF8183928380
:102E50008CE793E2B7010E94150B0E94FD1F2F968D
:102E6000CDBFDEBFCF91DF911F91FF90EF90DF903C
:102E7000CF900895FC010190F081E02D6281738173
:102E80008181448125810E94302C08950F931F93E6
:102E90008C01DC01ED91FC91818162810E942C2CDE
:102EA000C8010E94E00A1F910F910895AF92BF924E
:102EB000CF92DF92EF920F931F935C01DC01ED91B3
:102EC000FC91048115812681378181816281438152
:102ED000E08439966F010E940002C5010E94E00A59
:102EE0001F910F91EF90DF90CF90BF90AF9008951A
:102EF0000F931F938C01DC01ED91FC9181810E9465
:102F00002F2CC8010E94E00A1F910F9108950F9382
:102F10001F938C01DC01ED91FC9181810E9457028D
:102F2000C8010E94E00A1F910F9108950F931F930B
:102F30008C01DC01ED91FC9181810E942E2CC80155
:102F40000E94E00A1F910F9108950F931F938C0127
:102F5000DC01ED91FC91818162813396AF010E9489
:102F60002B2CC8010E94E00A1F910F910895EF9247
:102F7000FF920F937C01DC01ED91FC912181328164
:102F800043815481658176818781908501850E9486
:102F90002A2CC7010E94E00A0F91FF90EF9008953C
:102FA0000F931F93DF93CF93CDB7DEB72B97CDBF92
:102FB000DEBF8C01DC01ED91FC91828189838381EC
:102FC00094818A839B839E012C5F3F4FAF014B5FAF
:102FD0005F4F88E0DA010D90AD01D9010D929D019E
:102FE0008150C1F78181BE016F5F7F4F0E94292C04
:102FF000C8010E94E00A2B96CDBFDEBFCF91DF91C2
:103000001F910F910895CF92DF92EF92FF920F934D
:103010006C01DC01ED91FC91BF016E5F7F4F248953
:103020003589E788F08C8181438906890E94282CA4
:10303000C6010E94E00A0F91FF90EF90DF90CF90C1
:1030400008950F931F938C01DC01ED91FC91818118
:10305000928163810E949901C8010E94E00A1F9138
:103060000F9108950F931F938C01DC01ED91FC915A
:10307000818162810E945F01C8010E94E00A1F9164
:103080000F910895CF92DF92EF920F93DF93CF933A
:10309000CDB7DEB76697CDBFDEBF6C01DC01ED9129
:1030A000FC9181818983828193818A839B839E01A4
:1030B0002C5F3F4FAF014C5F5F4F88E0DA010D900E
:1030C000AD01D9010D929D018150C1F784858C8796
:1030D000858596858D879E879E01215F3F4FAF0135
:1030E000415F5F4F88E0DA010D90AD01D9010D928B
:1030F0009D018150C1F7228D338DCE010196BE0115
:10310000645F7F4F418D0789E08C0E94272CC601A8
:103110000E94E00A6696CDBFDEBFCF91DF910F918E
:10312000EF90DF90CF900895FC0110826181728151
:103130006115710521F080E493E20E94150B08955A
:103140000F931F93CF93DF93282F80916F2390913C
:10315000702396FFA3C0222359F42091622330915B
:1031600063238091FD229091FE222817390761F098
:10317000209162233091632380913E2390913F23DD
:103180002817390709F08AC02091642330916523FC
:1031900080913B2390913C232817390709F47EC086
:1031A0009091642380914923981759F59091652354
:1031B00080914A23981729F59091662380914B239B
:1031C0009817F9F49091672380914C239817C9F4CC
:1031D0009091682380914D23981799F490916923D9
:1031E00080914E23981769F490916A2380914F2320
:1031F000981739F490916B2380915023981709F414
:103200004DC08AE90E94E80A8C01009709F446C083
:10321000DC012D913C9185E0F901808301831283CB
:10322000E956FF4F8083AF0148505040FA01A2EFAA
:10323000B2E288E00D9001928150E1F7FA013897EF
:10324000EF01A9E4B3E288E00D9009928150E1F723
:103250008091FD229091FE2292938293809135235A
:1032600082938F5F8093352383E69CEC92938293C5
:1032700088E18293D9011696ED93FC931797C901C3
:1032800062E070E041E00E949110882321F481E027
:103290008093792303C0C8010E94E00ADF91CF9197
:1032A0001F910F9108950F931F93CF93DF93EC011C
:1032B000E881F981A681B7817C9170935423FD0147
:1032C000E70FF11D818180936D2311964D915C91E3
:1032D0001297409351235093522313968C91139736
:1032E000809355238D010C5F1F4F652F6295669566
:1032F00066956370352F36953695337019F4F8015D
:1033000020E049C014968D919C9115978093572386
:1033100090935823FD0136963230E1F410925923F0
:1033200010925A2310925B2310925C2310925D231B
:1033300010925E2310925F231092602316968D9157
:103340009C9117978093592390935A23FD013896A7
:1033500024E021C0333011F022E01DC016968C917C
:10336000169780935923818180935A238281809379
:103370005B23838180935C23848180935D2385819B
:1033800080935E23868180935F238781809360236F
:10339000FD013E962AE0662309F447C046FD08C0B9
:1033A0008191919180936223909363232E5F08C053
:1033B00080915723909158238093622390936323A5
:1033C0006230C1F410926423109265231092662338
:1033D00010926723109268231092692310926A2337
:1033E00010926B2380819181809364239093652355
:1033F0002E5F1BC06330C9F4808180936423818178
:1034000080936523828180936623838180936723E1
:10341000848180936823858180936923868180934A
:103420006A23878180936B23285F972F9550921B87
:1034300090936E23609361233093562343FD5CC1C8
:10344000D801A20FB11D842F87708093532383303E
:1034500021F48C9180936C2363C0813009F451C0B6
:10346000813020F0833009F047C15AC08D919C9182
:10347000119780936F239093702312968C911297DB
:1034800080937123877011F493E002C0982F9C5FA2
:10349000FD01E90FF11D808180937223292F2F5F99
:1034A000382F377090E08077907044E0959587953D
:1034B0004A95E1F7482F332311F4882389F0CD0191
:1034C000820F911D8093732390937423332311F003
:1034D000330F230F442321F0440F440F440F240FD4
:1034E00080916E23281750F4821B80937523A20FBE
:1034F000B11DA0937623B093772302C11092752358
:10350000FFC0992351F0963718F086E780936E2319
:10351000A0936F23B0937023F3C010926E23F0C07A
:1035200080916C23843009F4EBC0853030F4823014
:1035300059F0833009F0E0C014C0873009F4E0C0CE
:10354000883009F0D9C012C011968D919C911297C4
:1035500080936F239093702313968C9180937123A3
:10356000CFC011968C9180936F23CAC011968D9114
:103570009C91129780936F239093702313968D9153
:103580009C911497809371239093722315968C913C
:1035900015978093732316968D919C91179780931E
:1035A00074239093752354FFABC018968C9180932D
:1035B0007623A6C080915323833061F480916C23DD
:1035C000843011F0873031F480E493E2BE010E9430
:1035D000150B9CC080912A23813009F478C081307A
:1035E00020F0843008F088C059C0809133238823AC
:1035F00051F590917823923008F07EC0809153234A
:10360000813009F475C0813020F0833009F074C036
:103610000CC080917B23882309F46EC0992309F4A0
:103620006BC080E00E94A01867C080916C2383303B
:1036300009F040C0CE010E949F1C80917823813008
:1036400009F064C03DC08330D1F0843019F082307D
:1036500009F052C080915323882309F04DC0809116
:103660007B23882341F0809178238150823018F4A5
:1036700081E00E94A018CE010E94BC2347C0809127
:1036800053238330C9F580916C238830A9F581E0FC
:103690000E940906CE010E94392738C00E943123BA
:1036A00080915323813021F1833031F580916C2357
:1036B000833019F0883001F506C0CE010E949F1CAE
:1036C0000E94AB2023C0CE010E94142A1FC080910B
:1036D0005323833059F480916C23823069F480E065
:1036E0000E940906CE010E94E21510C0813021F42B
:1036F000CE010E94A01D0AC0CE010E94E00A06C0B1
:1037000080917923882309F055CF64CFDF91CF9141
:103710001F910F9108956F927F929F92AF92BF92E7
:10372000CF92DF92EF92FF920F931F93CF93DF938D
:10373000D82E962EC42E590138018AE90E94E80A33
:103740007C01009709F49BC0DC010D911C91DD20E8
:1037500021F084E0F801808303C08BE0D8018C93D2
:10376000F801E182F282E956FF4F84E080832091E4
:10377000002330910123C9010296029710F099208D
:1037800069F03897EF01A2EFB2E288E00D9009925C
:103790008150E1F762E183E290EC05C0329322931D
:1037A0006CE083E290E8CC2061F02091FD22309122
:1037B000FE226216730629F06E5F3293229370E048
:1037C00002C0806471E022E0C21641F4AC0158608E
:1037D000D5018D919C919293829328C0B3E0CB1632
:1037E00061F4AC015C6038976A5FEF01D50188E055
:1037F0000D9009928150E1F719C020913B2330913F
:103800003C234FEF2E3F340729F0AC015860329330
:1038100022930CC0AC015C6038976A5FEF01A9E4A9
:10382000B3E288E00D9009928150E1F73297772357
:1038300039F08091FD229091FE228083918302C015
:10384000608271828091352382938F5F80933523CC
:10385000529342936293D8011696ED93FC93179777
:10386000C80162E070E041E00E949110882321F4D9
:1038700081E08093792304C0C7010E94E00A80E0C0
:10388000DF91CF911F910F91FF90EF90DF90CF903C
:10389000BF90AF909F907F906F900895EF92FF92AE
:1038A0000F931F93CF93DF937C01E801DC01ED912F
:1038B000FC9186E180836183428323833483CF013B
:1038C0000596423069F41582168217821086118699
:1038D000128613861486888199818583968307C012
:1038E000DC01F80188E001900D928150E1F78CE74E
:1038F00093E2B7010E94150BDF91CF911F910F91B9
:10390000FF90EF9008950F931F93AC0180910023D7
:103910009091012302962091FD223091FE22029780
:1039200028F4CA0143E002EF12E204C0CA0142E0F7
:1039300000E013E20E944E1C1F910F910895CF9357
:10394000DF939C01FC01C081D181FE0185E181935F
:10395000A4E6B3E288E00D9001928150E1F78091F6
:103960006F2389878CE793E2B9010E94150B1092AF
:10397000492310924A2310924B2310924C23109209
:103980004D2310924E2310924F23109250238FEF0D
:103990009FEF80933B2390933C23DF91CF91089539
:1039A0000F931F93DF93CF93CDB7DEB72E97CDBF85
:1039B000DEBF8C01DC014D915C91DE011196FA01B4
:1039C0008EE001900D928150E1F7FA01018312839C
:1039D00083E08083EA56FF4F80838D85818338970B
:1039E0009F0162EF72E288E0DB010D90BD01D90119
:1039F0000D929D018150C1F78A81823031F48D8111
:103A00009E819293829333E10FC038979F01BE014C
:103A10006B5F7F4F88E0DB010D90BD01D9010D92F6
:103A20009D018150C1F739E18091FD229091FE22E4
:103A3000929382938091352382938F5F8093352375
:103A40002A81922F990F990F80E08366906C929350
:103A500082933293DA011696ED93FC9317970E94A6
:103A6000D81FF8018081918162E070E041E00E94FE
:103A70009110882321F481E0809379230CC02B815D
:103A80003C81C80161EE4A818E010B5F1F4F0E948D
:103A90004E1C0E94FD1F2E96CDBFDEBFCF91DF9141
:103AA0001F910F910895DC01ED91FC911197E08138
:103AB000E43278F4F0E0EE0FFF1FE850FE4F25915E
:103AC00034912115310519F0F901199508950E94D5
:103AD000E00A08951F9380917923882381F48091CF
:103AE0003223882361F08EE293E260E070E00E946E
:103AF000AA0B009721F00E94531D11E001C010E0B5
:103B000080914423882359F080E493E260E070E0E0
:103B10000E94AA0B009719F00E94531D11E0812FFB
:103B20001F910895DC01ED91FC91119780E1808354
:103B3000418362838CE793E2BD010E94150B0895D7
:103B40000F931F93DF93CF93CDB7DEB72897CDBFE9
:103B5000DEBFAC01DC019C9111962C9180916E230B
:103B6000882321F4CA010E94E00A0EC1E92FF22F36
:103B700080915523808F209161232183809162233E
:103B80009091632382839383822F8250823010F539
:103B90001482158216821782108611861286138669
:103BA000223039F480916423909165238483958336
:103BB0001BC02330C9F49F012C5F3F4F64E673E2C2
:103BC00088E0DB010D90BD01D9010D929D0181506E
:103BD000C1F70AC0128213821482158216821782DC
:103BE0001086118612861386208D80911D2328173A
:103BF00061F5948180912023981739F59581809102
:103C00002123981711F59681809122239817E9F4C2
:103C10009781809123239817C1F490858091242364
:103C2000981799F4918580912523981771F49285BE
:103C300080912623981749F493858091272398171C
:103C400021F4CA010E94E00A5AC020931D238481F6
:103C50008093202385818093212386818093222352
:103C6000878180932323808580932423818580937B
:103C70002523828580932623838580932723209183
:103C8000562324871786108A118A128A138A148A67
:103C9000158A168A80915723909158238587968795
:103CA000233079F49F01215F3F4F69E573E288E09B
:103CB000DB010D90BD01D9010D929D018150C1F72D
:103CC0000BC0223039F48091592390915A23878771
:103CD000908B02C01586168680916D23878B80910C
:103CE0006E23818F80916F2390917023828F938FA9
:103CF00081E180838CE793E2BA010E94150B8091E9
:103D0000512384FF41C080916123823071F48091FE
:103D100064239091652389839A8300916223109193
:103D2000632380E060E042E021C0833019F5809198
:103D300064238983809165238A83809166238B83A2
:103D4000809167238C83809168238D838091692380
:103D50008E8380916A238F8380916B238887009163
:103D600062231091632380E060E043E09E012F5FB7
:103D70003F4F07C080E060E040E020E030E000E03E
:103D800010E00E948B1B02C00E94FD1F2896CDBF31
:103D9000DEBFCF91DF911F910F910895CF92DF92F7
:103DA000EF92FF920F931F93DF93CF93CDB7DEB7C0
:103DB0006297CDBFDEBF8C01DE011196FC018081D0
:103DC00091819C01F90182E101900D928150E1F70E
:103DD0008F8582FD11C080912A23882321F4809150
:103DE0003323882349F09E85D801ED91FC9180E131
:103DF0008083918381EEB5C0F801C080D1808DE0D1
:103E0000D6018C938E8513968C93888945E0F42E89
:103E1000F80EE8E9F0E0E81BF109EC0DFD1D9A81D0
:103E2000923051F437E0F32EF80E809100239091F8
:103E300001239293829312C0933081F438972DE03E
:103E4000F22EF80E9F0142EF52E288E0DA010D9067
:103E5000AD01D9010D929D018150C1F72091FD2244
:103E60003091FE228C819D812817390749F48A817F
:103E7000882331F08B81882319F040E450E009C099
:103E80008A81882321F0B2E0FB0E3293229340E036
:103E900050E08B81882311F1823039F46F2D6E5FF1
:103EA0008E819F819293829312C038976F2D685FA5
:103EB0009F0196E0E92EF12CEC0EFD1E88E0D70163
:103EC0000D907D01D9010D929D018150C1F782E0D5
:103ED000F82EF60E8C819D819293829380913523EA
:103EE00082938F5F80933523BA0161608F8580FF55
:103EF00002C0BA0161628889873608F070618B81DF
:103F0000382F330F330F20E04A81942F9295990F69
:103F1000990F907C80E0282B392B262B372B32935E
:103F200022933296F7FC15C03397F082D60116968D
:103F3000ED93FC9317970E94D81FF601018312831B
:103F4000C60162E070E041E00E949110882381F098
:103F500013C09E85D801ED91FC9180E1808391830F
:103F600085EE82838CE793E2B8010E94150B14C0A2
:103F700081E08093792310C09E85D801ED91FC915A
:103F800080E18083918381EE82838CE793E2B801A4
:103F90000E94150B0E94FD1F6296CDBFDEBFCF9120
:103FA000DF911F910F91FF90EF90DF90CF900895D8
:103FB00080917A23813051F40E94E814853831F0E1
:103FC00081E090E00E94E80410927A2308958091A5
:103FD0007A23882389F480E090E00E94E80480E05E
:103FE0000E94FE14882321F481E080937A230895AF
:103FF00081E090E00E94E804089580911E238823C8
:1040000031F480913D23882311F40E94E71F089525
:104010000F931F93182F10927923109278231092E8
:104020007A23109233231092342310922A23109271
:104030001D238FEF809320238093212380932223BD
:104040008093232380932423809325238093262306
:104050008093272310923D2388E00E9426150FB7F6
:10406000F89480E00E94090681E00E94090682E03F
:104070000E9409060FBF112391F110927B2382EC5D
:1040800097E080932C2390932D2380E098E78093F2
:104090004523909346231092292381E080932B237C
:1040A00086E080931F231092492310924A23109296
:1040B0004B2310924C2310924D2310924E231092BA
:1040C0004F23109250238FEF9FEF80933B239093C9
:1040D0003C230E94C22C8093352310921E231F91F3
:1040E0000F9108950F931F93CF93DF93EC010881F5
:1040F00019810E94D81FF801018180E090E00E94A0
:10410000E80480E0011181E00E942A13182F81E069
:1041100090E00E94E804802F0E9408200E94FD1F6A
:104120008EE293E20E94B60B80E493E20E94B60B0B
:104130008CE793E20E94B60BE881F981118380E25B
:1041400080838CE793E2BE010E94150BDF91CF9133
:104150001F910F910895DF93CF9300D00F92CDB7A9
:10416000DEB70E94D81F8FEF9FEF89839A838B83DE
:104170009C8383E5BE016F5F7F4F0E94032180E532
:10418000BE016D5F7F4F0E94032181E00E940820E5
:104190000E94FD1F2496CDBFDEBFCF91DF91089511
:1041A0000E944C13882399F40E94BB08882379F05D
:1041B00081E00E9408200E94FD1F8EE293E20E948F
:1041C0000E0B80E493E20E940E0B80E0089585E8D8
:1041D0000895E82F883030F4E82FF0E0E05CFD4FE0
:1041E000849108958054803228F4F0E0E85FFD4F18
:1041F00084910895E03F10F480E00895F0E0E858DD
:10420000FE4F849108951F93CF93DF93182FEB01F6
:1042100080917A23813051F40E94D81F812FBE01F2
:104220000E94D211182F0E94FD1F04C0812F0E94EE
:10423000D211182F812FDF91CF911F910895FF92F6
:104240000F931F93CF93DF93182FEB01F42E81353B
:1042500020F58E3408F087C0833409F484C0843498
:1042600060F4853038F4823008F07DC0882309F48A
:104270007AC02DC0823459F53AC08A3409F43FC05F
:104280008B3428F48434B9F1873409F56CC08B344D
:1042900009F44EC08C34D9F452C0873509F463C098
:1042A000883558F4853530F4833508F05CC08235A4
:1042B00071F449C0863559F40CC0893509F453C0EE
:1042C000893558F08A3561F0803F09F44CC004EF1D
:1042D000ABC0888180937B23A6C0888199819FC0D1
:1042E0008881998180934523909346239CC088813F
:1042F00080932B2398C0888180931F2394C088814A
:1043000080934923898180934A238A8180934B2318
:104310008B8180934C238C8180934D238D8180935E
:104320004E238E8180934F238F81809350237BC0B7
:104330008881998180933B2390933C2374C088812A
:104340008093352370C06881611161E060931E2302
:10435000662331F00E94D81F86E00E94261563C0B4
:104360000E94FD1F60C0812FBE010E94D211082F44
:10437000813871F40E94E814812FBE010E94D2118D
:10438000082F882309F050C081E08093952203C054
:10439000882309F049C080910823282F30E08091BC
:1043A0000C23482F50E060910F23CA01861B91090E
:1043B000281739070CF4C901A82F281B310981E0FF
:1043C00090E002C0880F991F4A95E2F70197289F55
:1043D000A001299F500D389F500D112420E030E09E
:1043E00070E0E1E0F0E00DC0C901860F971FEF011A
:1043F00002C0CC0FDD1F8A95E2F74C0F5D1F2F5FC7
:104400003F4F2A1788F384E190E09C01429FC0014E
:10441000439F900D529F900D1124865F9E4F809375
:104420002C2390932D2300E0FF2049F080919522CA
:10443000882329F080E00E94FE1410929522802F9C
:10444000DF91CF911F910F91FF900895EF92FF920E
:104450000F931F937C01FC0100811181B8016E5FF5
:104460007F4FF801818141E00E941F21F801918175
:1044700092839FE1908381838CE793E2B7010E944E
:10448000150B1F910F91FF90EF900895CF93DF933D
:10449000AC01DC01ED91FC919F012D5F3F4F8181CB
:1044A0008C3409F485C08D3438F5853009F464C046
:1044B000863088F4823009F4ACC0833030F488232D
:1044C00009F497C08130E9F597C0833009F4A4C09E
:1044D0008430B9F54EC0823409F459C0833430F4C5
:1044E000863009F44EC0873061F54EC08A3409F435
:1044F00051C08B3431F557C0863529F1873588F4A2
:10450000803509F45EC0813530F48E3409F453C02F
:104510008F34B9F453C0823509F458C0833589F417
:1045200058C08935D9F08A3528F4873579F088352F
:1045300041F40FC08D35D1F0803F09F451C08A3568
:1045400081F094EF6DC080917B2368C080910C2333
:1045500065C080912C2390912D233FC08091102322
:104560005DC0809145239091462337C080912923D7
:1045700055C08091FC2252C08091FA229091FB227A
:104580002CC0809113234AC08091092347C0809199
:104590002B2344C0E901A9E4B3E288E00D9009921D
:1045A0008150E1F73CC080913B2390913C2315C0A2
:1045B0008091352333C08091082330C080910F2330
:1045C0002DC08091FD229091FE2207C080911E2374
:1045D00025C08091002390910123838394831FC081
:1045E000E901A2EFB2E288E00D9009928150E1F773
:1045F00016C080910A2312C080911723909118232E
:10460000A0911923B0911A2383839483A583B68341
:1046100006C08091F12202C08091FF22838390E046
:10462000818182838EE1808391838CE793E2BA015A
:104630000E94150BDF91CF910895CF93DF93EC018A
:10464000E881F98183E280836183662311F00E940F
:10465000FD1F8CE793E2BE010E94150BDF91CF9105
:104660000895809153238823E1F080E00E94090699
:1046700080915323813031F480916E23882311F08F
:1046800060E001C06BEE80912A23823031F480918A
:10469000392390913A230E941D231092792310927E
:1046A0002A23089580912A23823039F48091392376
:1046B00090913A236BEE0E941D2310922A231092B0
:1046C00079230895CF92DF92EF92FF920F931F9379
:1046D000DF93CF93CDB7DEB72897CDBFDEBFD82EFF
:1046E000C92E80912A238823B1F580913323882312
:1046F00091F50E94D81FED2CFC2CD701ED91FC9177
:1047000081819F012C5F3F4F823031F484819581FC
:1047100089839A8342E00DC0AE014F5F5F4F88E00E
:10472000D9010D909D01DA010D92AD018150C1F7C3
:1047300043E00281138181E060E09E012F5F3F4FE3
:104740000E948B1B882329F0D0923923C0923A23F0
:1047500007C0C70102C08D2D9C2D61EE0E941D2354
:104760002896CDBFDEBFCF91DF911F910F91FF90B3
:10477000EF90DF90CF9008955F926F927F928F922B
:104780009F92AF92BF92CF92DF92EF92FF920F93E0
:104790001F93DF93CF93CDB7DEB76197CDBFDEBF59
:1047A000BC0140913323423011F0443069F48091D0
:1047B0002B23882349F0E0913923F0913A2320817B
:1047C0003181D901199604C0A0E0B0E020E030E0CA
:1047D00050916123598300916223109163230A83CE
:1047E0001B83523069F41E821F82188619861A862E
:1047F0001B8680916423909165238C839D8318C0D0
:10480000809164238C83809165238D8380916623BE
:104810008E83809167238F8380916823888780911E
:104820006923898780916A238A8780916B238B878C
:1048300090900A239C86B090FC22BD8680916F23C5
:10484000909170238E879F87188A8091712387FFAC
:1048500002C081E0888B80916D23898B423019F0F2
:10486000443009F06FC080912B23882309F46AC07B
:10487000F901F084EC81FD815C806D807E808F8009
:10488000A884C984DA84EB8440E049C011968D91F4
:104890009C9112970817190709F03FC08C9158177F
:1048A000E1F51B968C911B979816B9F51C968C9187
:1048B0001C97B81691F5523041F413968D919C9146
:1048C0001497E817F90749F53DC013968C91139793
:1048D000851519F514968C9114978615F1F4159693
:1048E0008C9115978715C9F416968C911697881593
:1048F000A1F417968C9117978A1579F418968C91D4
:1049000018978C1551F419968C9119978D1529F4D7
:104910001A968C911A978E15A9F04F5F51964F15E4
:1049200008F4B4CF59C0FD01DE01119681E10D906C
:1049300001928150E1F7D90118968C9118978F5FF9
:1049400018968C939091722380917523882321F47B
:1049500080912B238823E1F5DB01ED91FC9187E128
:1049600080838091552381839F012E5F3F4FAE014D
:104970004F5F5F4F81E1DA010D90AD01D9010D92DA
:104980009D018150C1F780917223838B892F87709D
:1049900059F4892F90E08077907024E09595879561
:1049A0002A95E1F7882331F0809173239091742345
:1049B000848B958B80917523868B80917623909143
:1049C0007723878B908F8CE793E20E94150B09C0A9
:1049D000CB010E94E00A05C0E4E0EF1508F4B2CF75
:1049E000A2CF6196CDBFDEBFCF91DF911F910F9116
:1049F000FF90EF90DF90CF90BF90AF909F908F90FF
:104A00007F906F905F900895EF92FF920F931F93A6
:104A1000CF93DF93182FEB011092792380913323EA
:104A2000823021F48881873051F405C0833039F415
:104A30008881863021F4812F0E947429A5C0888145
:104A4000843009F451C0853030F4813009F183306D
:104A500009F098C010C08B3009F446C08D3021F0A9
:104A6000853009F08FC087C089819A81612F4B8181
:104A70000E94921D87C089819A81612F0E94831CA8
:104A800080917823813009F07DC00E94AB207AC0EC
:104A9000193E11F0113E41F489819A81612F4FEF47
:104AA0005FEF0E944A156EC080932A2340914523F0
:104AB0005091462360E070E094E0440F551F661F5C
:104AC000771F9A95D1F780E020E030E00CE915E1FE
:104AD000EE24FF240E941807882309F455C080E0C3
:104AE00090E00E949C1550C089819A810E94E00A42
:104AF00080912A23813009F447C088818430A1F451
:104B0000173881F0E0913923F0913A23A081B181E7
:104B100083E28C9311961C938CE793E2BF010E9471
:104B2000150B30C082E005C0193E61F1113E51F114
:104B300083E080932A2340912C2350912D2360E021
:104B400070E084E0440F551F661F771F8A95D1F7E8
:104B500080E020E030E002E513E2EE24FF240E9432
:104B6000180791E090937923882371F080E090E01A
:104B70000E94522309C089819A810E94E00A8EEE28
:104B80000E94CF290E94FD1FDF91CF911F910F91AD
:104B9000FF90EF900895EF92FF920F931F93109262
:104BA0003D2380911E238823C9F480917A23882392
:104BB000A9F488E00E942615883071F082E040E870
:104BC00050E060E070E020E030E00BEC15E2EE2415
:104BD000FF240E94180702C00E94FD1F1F910F9121
:104BE000FF90EF900895DF92EF92FF920F931F9343
:104BF000CF93DF93EC01E881F981E680F7800085AF
:104C00001185E114F1040105110539F480E090E00B
:104C10000E94CB25E881F98147C080912A2388230F
:104C2000F1F5809133238823D1F50E94D81F86E0C7
:104C30000E942615D82E81E080933D2382E00E94B9
:104C40003B05882319F082E00E94090684E0EE0CFF
:104C5000FF1C001F111F8A95D1F782E0B801A70140
:104C600020E030E00BEC15E2EE24FF240E94180750
:104C7000882381F0E881F98181E2808388EE818355
:104C80008CE793E2BE010E94150B80E090E00E9449
:104C9000CB2512C0E881F98186E0D81629F081E29F
:104CA000808382EF818303C081E2808311828CE75D
:104CB00093E2BE010E94150BDF91CF911F910F91DE
:104CC000FF90EF90DF900895BC018CE793E20E9483
:104CD000150B8091282380939C2284E06CE972E27A
:104CE0000E9403218091382380939B2280E06BE90E
:104CF00072E20E940321109233230E94FD1F089547
:104D0000CF93DF93E0914723F0914823C081D18175
:104D1000DE01A956BF4FE983FA83882339F087E083
:104D200088838C934AE023E038E013C086E08883D0
:104D30008C9318979D0142EF52E288E0FA010190AE
:104D4000AF01F90101929F018150C1F742E123E4D3
:104D500038ECFD018FEF9FEF92938293329780831F
:104D600091831597809135238C938F5F80933523A2
:104D70003E932E93FD014293EE83FF83CE0160E0CC
:104D800070E040E00E949110882311F080E003C0A1
:104D900081E080937923DF91CF910895EF92FF9284
:104DA0000F931F93DF93CF930F92CDB7DEB7909100
:104DB0003323933009F443C0943041F0923009F02A
:104DC00050C0882309F048C081E03BC0882309F027
:104DD00043C086E00E942615863021F540EC53E062
:104DE00060E070E000909D2204C0440F551F661FD4
:104DF000771F0A94D2F740545C4F6F4F7F4F84E087
:104E0000440F551F661F771F8A95D1F781E020E078
:104E100030E00BE518E2EE24FF240E9418078823F7
:104E200001F113C080919B228F5F80939B22609140
:104E3000392370913A2382E00E94912712C088237F
:104E400059F40E948026882361F481E08983CE0191
:104E500001960E945B2805C080919B228F5F809302
:104E60009B220F90CF91DF911F910F91FF90EF90B8
:104E700008950F931F938C018091472390914823AD
:104E80000E94E00A1092472310924823A0913923F0
:104E9000B0913A23ED91FC9111978BE180831182BF
:104EA00083E08283148215821682178210868CE733
:104EB00093E2BD010E94150B109233230E94FD1F47
:104EC000C8010E94E00A80E56FE673E20E940321B8
:104ED00080917423909175238F5F9F4F29F083E514
:104EE00064E773E20E940321809171239091722301
:104EF00080933B2390933C238091512390915223A4
:104F000094FF05C084E066E773E20E94032180E01D
:104F100063E773E20E9403210E94CE261F910F9146
:104F20000895EF92FF921F93CF93DF93182F7B0189
:104F3000FB01C081D18184E06CE972E20E9403210F
:104F40004091332350912B2320919B2255C0423016
:104F500011F0443031F4552321F08885853008F074
:104F60004EC0133021F48885882309F087C0322F82
:104F70003F5F8C819D81AE81BF81022E04C0B695BA
:104F8000A795979587950A94D2F781709070892B91
:104F900091F120939B22113011F482E003C0123072
:104FA00021F484E08093332304C0133011F4109370
:104FB000332380E06BE972E20E940321182F8823DB
:104FC000B1F080914723909148230E94E00A10920B
:104FD0004723109248230E94FD1F8AEE898318867A
:104FE0008CE793E2B7010E94150B10923323812FB7
:104FF0000E94CE265AC0232F2B3108F4A8CF20932D
:105000009B22123041F11330D9F1113009F04DC01B
:1050100080914723909148230E94E00A10924723F1
:105020001092482380912B23882339F0888585307E
:1050300010F08AEF05C0882311F0198202C08AEEB1
:10504000898380E56EE373E20E9403218091392316
:1050500090913A2328C0552339F08885853010F087
:105060008AEF05C0882311F0198202C08AEE898375
:1050700080E56EE373E20E94032114C020939B221B
:1050800080914723909148230E94E00A1092472381
:10509000109248238885882311F0198202C08AEE75
:1050A00089831886C7010E946426DF91CF911F91E2
:1050B000FF90EF900895CF93DF93C0913923D09163
:1050C0003A2398812981809133238250833020F5BF
:1050D000E92FF22F21E030E040E050E000909B22E9
:1050E00004C0220F331F441F551F0A94D2F7209586
:1050F00030954095509584819581A681B781822312
:105100009323A423B52384839583A683B7838091B7
:105110009622BE010E949127DF91CF910895CF92F0
:10512000DF92EF92FF920F931F93DF93CF930F9233
:105130000F92CDB7DEB7D82EC92E082F192FD80160
:10514000ED91FC9180910A23809338238091FC2279
:1051500080932823868180939D228181809396224B
:1051600082819381A481B581809397229093982224
:10517000A0939922B0939A22278120939C22D092C7
:105180003923C0923A238BE18083809196228283D7
:105190008091972290919822A0919922B0919A2281
:1051A00084839583A683B783238310861186809199
:1051B0002A23882341F480913323882321F480918A
:1051C0009622882341F488EE81838CE793E2B8012C
:1051D0000E94150B7EC00E94D81FF801E080F1806C
:1051E0008BE080939B2280919622813008F466C0E8
:1051F000833020F0833009F061C04BC08FEF9FEF08
:1052000089839A838091FD229091FE2280933E2390
:1052100090933F2380E5BE016F5F7F4F0E94032183
:1052200080919622813021F4D0924723C092482366
:105230008AE90E94E80A8093392390933A230097E1
:10524000E9F180919622823019F4C8010E94E00AA7
:105250002091392330913A23D901ED91FC918BE1D2
:10526000808380919622828380919C228383809187
:10527000972290919822A0919922B0919A228483AA
:105280009583A683B7831086118680919622B901F3
:1052900012C08AE90E94E80A80934723909348232A
:1052A000009721F488EEF70181830CC060913923C7
:1052B00070913A2383E00E9491270BC088EED701BA
:1052C00011968C938CE793E2B8010E94150B0E9413
:1052D000FD1F0F900F90CF91DF911F910F91FF90C5
:1052E000EF90DF90CF900895EF92FF920F931F936E
:1052F000DF93CF930F92CDB7DEB7909135239F5FA9
:10530000909335238823B1F580913323823091F433
:1053100040EC53E060E070E000909D2204C0440F38
:10532000551F661F771F0A94D2F740545C4F6F4F8A
:105330007F4F07C08091452390914623AC0160E0E8
:1053400070E094E0440F551F661F771F9A95D1F7C0
:1053500081E020E030E00BE518E2EE24FF240E941B
:1053600018078823A1F081E08983CE0101960E946D
:105370005B280DC080919B228F5F80939B22609160
:10538000392370913A23809196220E9491270F90A1
:10539000CF91DF911F910F91FF90EF90089522EA36
:1053A00032E220939E2230939F229DE19093A2228D
:1053B0008093A32280913323882379F080913E2328
:1053C00090913F238093A4229093A522809138232B
:1053D0008093A622809128230EC08091FD22909177
:1053E000FE228093A4229093A52280910A23809389
:1053F000A6228091FC228093A7228CE793E26EE99B
:1054000072E20E94150B80917823823050F48091D3
:105410003323882331F480912A23882311F40E94B6
:10542000FD1F1092342308950F931F938C018FEE6C
:105430000E94CF29C8010E94E00A80E56FE673E26E
:105440000E94032180917423909175238F5F9F4F59
:1054500029F083E564E773E20E94032180917123C0
:105460009091722380933B2390933C23809151230E
:105470009091522394FF05C084E066E773E20E9496
:10548000032180E063E773E20E9403211F910F91E3
:105490000895CF93DF93EC018AE90E94E80ABC01EA
:1054A000009711F480E025C0DC01ED91FC918EE0C5
:1054B00080838881818389819A8182839383888193
:1054C0009F012C5F3F4FAE014D5F5F4F823029F44B
:1054D0008B819C818483958307C0D901FA0188E080
:1054E00001900D928150E1F78EE293E20E94150B3C
:1054F00081E0DF91CF910895BF92CF92DF92EF923A
:10550000FF920F931F93182F6A017B01B22E8AE935
:105510000E94E80ADC01009711F480E012C0ED91CE
:10552000FC9111978BE080831183C282D382E48245
:10553000F582B68207838EE293E2BD010E94150BCD
:1055400081E01F910F91FF90EF90DF90CF90BF907F
:1055500008957F928F929F92AF92BF92CF92DF92E7
:10556000EF92FF920F931F93782E6A017B014801FF
:1055700059018AE90E94E80ADC01009711F480E0F1
:1055800014C0ED91FC9111978AE080837182C282F0
:10559000D382E482F58286829782A086B1868EE2EB
:1055A00093E2BD010E94150B81E01F910F91FF90C6
:1055B000EF90DF90CF90BF90AF909F908F907F90B3
:1055C00008951F93182F8AE90E94E80ADC010097CA
:1055D00011F480E00CC0ED91FC91119788E080837C
:1055E00011838EE293E2BD010E94150B81E01F91B1
:1055F00008951F93182F8AE90E94E80ADC0100979A
:1056000011F480E00CC0ED91FC91119789E080834A
:1056100011838EE293E2BD010E94150B81E01F9180
:1056200008950F931F93CF93DF93EC01162F042F50
:105630008AE90E94E80A9C01009711F480E01FC0EB
:10564000DC01ED91FC9185E0808314878881818362
:1056500089819A8182839383AF014C5F5F4FDE0122
:10566000139688E00D90EA010992AE018150D1F7BE
:1056700005878EE293E2B9010E94150B81E0DF916C
:10568000CF911F910F910895FF920F931F93CF9386
:10569000DF93182FF62EEA01022F8AE90E94E80A0A
:1056A0009C01009711F480E020C0DC01ED91FC9199
:1056B00081E0808311838881838389819A818483B7
:1056C0009583AF014A5F5F4FDE01139688E00D902E
:1056D000EA010992AE018150D1F70687F2828EE28B
:1056E00093E2B9010E94150B81E0DF91CF911F91E8
:1056F0000F91FF9008958F929F92AF92BF92CF9299
:10570000DF92EF92FF920F931F93CF93DF93B82E08
:105710006B01F42E922E832EA02E86E7841708F4B8
:105720003FC08AE90E94E80A8C010097C9F1DC01B8
:10573000ED91FC9183E08083B182D6012C9122838C
:1057400011968D919C9112978383948322502230DD
:1057500080F41582168217821086118612861386AF
:105760001486EF012596139688E00D9009928150DA
:10577000E1F7A586E686F78628E930E02F1931099A
:105780002E0F3F1FC901692D782D4F2D50E00E942B
:10579000D22C8EE293E2B8010E94150B81E001C089
:1057A00080E0DF91CF911F910F91FF90EF90DF90FC
:1057B000CF90BF90AF909F908F900895FF920F93DE
:1057C0001F93CF93DF93182F062FF72E8AE90E949D
:1057D000E80AEC01009711F480E016C0812F0E94C6
:1057E000E920482FE881F98186E080831183329691
:1057F000CF01602F7F2D50E00E94D22C8EE293E2E9
:10580000BE010E94150B81E0DF91CF911F910F9196
:10581000FF9008951F930E946A1D182F8CE793E252
:1058200060E070E00E94AA0B009719F00E94531DDF
:1058300011E00E94100F0E94D304812F1F91089540
:105840008CE793E20E940E0B0E94D02008950895E9
:105850000895089508950895089508950895089560
:105860000895AA1BBB1B51E107C0AA1FBB1FA617A7
:10587000B70710F0A61BB70B881F991F5A95A9F7F9
:1058800080959095BC01CD010895A1E21A2EAA1B26
:10589000BB1BFD010DC0AA1FBB1FEE1FFF1FA217E0
:1058A000B307E407F50720F0A21BB30BE40BF50BDD
:1058B000661F771F881F991F1A9469F76095709566
:1058C000809590959B01AC01BD01CF010895AF92E9
:1058D000BF92CF92DF92EF92FF920F931F93CF93DD
:1058E000DF93EC01A880B980CA80DB80A114B104E9
:1058F000C104D10441F484E2A82E89EDB82E8BE5D1
:10590000C82E87E0D82EC601B5012DE133EF41E066
:1059100050E00E94FA2C27EA31E440E050E00E9477
:10592000DB2C7B018C01C601B5012DE133EF41E099
:1059300050E00E94FA2CCA01B9012CEE34EF4FEF6F
:105940005FEF0E94DB2C6E0D7F1D801F911F97FF64
:1059500004C06150704080409048688379838A8396
:105960009B839B013F77C901DF91CF911F910F91DD
:10597000FF90EF90DF90CF90BF90AF9008950E947E
:10598000672C089580E090E20E94672C0895A0E0C3
:10599000B0E08093002090930120A0930220B09368
:1059A00003200895FB01DC0102C001900D924150DB
:1059B0005040D8F70895629FD001739FF001829FF5
:1059C000E00DF11D649FE00DF11D929FF00D839F8E
:1059D000F00D749FF00D659FF00D9927729FB00D2B
:1059E000E11DF91F639FB00DE11DF91FBD01CF013E
:1059F0001124089597FB092E05260ED057FD04D0DB
:105A000044DF0AD0001C38F450954095309521951C
:105A10003F4F4F4F5F4F0895F6F7909580957095E3
:0E5A200061957F4F8F4F9F4F0895F894FFCFF1
:045A2E000100000073
:00000001FF
