:100000000C94D1000C94F0000C94F0000C94F000CF
:100010000C94F0000C94F0000C947E0A0C94F00008
:100020000C94F0000C94F0000C94F0000C94F00090
:100030000C94F0000C94F0000C94F0000C94F00080
:100040000C94F0000C94F0000C94F0000C94F00070
:100050000C94F0000C94F0000C94F0000C94F00060
:100060000C94F0000C94F0000C94F0000C94F00050
:100070000C94F0000C94F0000C94F0000C94F00040
:100080000C94F0000C94F0000C94F0000C94F00030
:100090000C94A6030C94F0000C94D2030C94F00082
:1000A0000C94F0000C94F0000C94F0000C94F00010
:1000B0000C94F0000C94F0000C94F0000C94F00000
:1000C0000C94F0000C94F0000C94F0000C94F000F0
:1000D0000C94F0000C94F0000C94F0000C94F000E0
:1000E0000C94F0000C94E7040C94F1040C94DD04DF
:1000F0000C945C040C9487040C94FB040C94310461
:100100000C94B2040C94DE090C94070A0C94F000D1
:100110000C94F0000C94F0000C940F050C94050561
:1001200003020201010000FFFEFDFCFBF9F7F4EF02
:10013000FF1601140000861C00007C1AE51F000059
:100140000520301EBE235A26000000002121000099
:10015000D815E81500000000C71557157015A9152A
:10016000000000000000F6140000DA144515E61443
:1001700027151815000036150104010101020101BF
:100180000101010101010101040108020101010154
:100190000201010201020101020102020101010149
:1001A000080011241FBECFEFD1E4DEBFCDBF12E0A7
:1001B000A0E0B2E0E0E1FFE500E00BBF02C0079085
:1001C0000D92A43AB107D9F716E0A4EAB2E001C053
:1001D0001D92AE32B107E1F70E9466020C94862FA1
:1001E0000C940000EF92FF920F931F9383E040E482
:1001F0005BE46CE470E020E030E008E011E0EE2425
:10020000FF240E945D081F910F91FF90EF900895C9
:10021000DF93CF93CDB7DEB72B970FB6F894DEBF41
:100220000FBECDBF82E089838EEB9AEB9B838A83DE
:100230008091A4029091A5029D838C8380E092E03E
:100240000E94022BCE0101960E9413282B960FB616
:10025000F894DEBF0FBECDBFCF91DF910895EF922E
:10026000FF920F931F93DF93CF93CDB7DEB7CF5F8E
:10027000D0400FB6F894DEBF0FBECDBF8091A6026E
:100280009091A702A091A802B091A9020196A11D88
:10029000B11D8093A6029093A702A093A802B093E9
:1002A000A9022DB73EB7285030400FB6F8943EBF94
:1002B0000FBE2DBF4DB75EB74F5F5F4F8E010F5F13
:1002C0001F4FEDB7FEB71283018321E132E0FA013F
:1002D0003383228384839583A683B7830E94372B3D
:1002E0002DB73EB72A5F3F4F0FB6F8943EBF0FBE03
:1002F0002DBFEDB7FEB7128301830E94F02A0F9045
:100300000F9082E090E060E070E00E94250A84E0B7
:1003100040E251EA67E070E020E030E002EA11E0FC
:10032000EE24FF240E945D08C150DF4F0FB6F89401
:10033000DEBF0FBECDBFCF91DF911F910F91FF9018
:10034000EF90089582E090E061E070E00E94250A5D
:100350000895EF92FF920F931F9381E090E062E087
:1003600070E00E94250A84E040E251EA67E070E014
:1003700020E030E009EA11E0EE24FF240E945D084D
:100380001F910F91FF90EF900895EF92FF920F93BE
:100390001F936623D9F486E292E00E94022B84E048
:1003A0000E94510781E090E060E070E00E94250A21
:1003B00083E040E45BE46CE470E020E030E008E0DF
:1003C00011E0EE24FF240E945D0803C081E00E943A
:1003D000C3281F910F91FF90EF900895CF92DF9265
:1003E000EF920F93CF93DF93882389F5E60120E006
:1003F00025C08B85843101F58C858823E9F48981BA
:100400009A818E5B9A4BC1F48D859E8597FF14C0AF
:100410008881823041F58B819C819093A5028093E5
:10042000A4028EE492E00E94022B8B856C85AE01C3
:1004300020E80E940E291AC061962F5F2E15C8F27F
:1004400081E040E058EF6FEF77E025E008C08A3E9A
:1004500051F481E040E058EF6FEF77E026E000E0F4
:100460000E94462803C081E00E94C328DF91CF91FB
:100470000F91EF90DF90CF900895EF92FF920F933E
:100480001F938823D9F48CE592E00E94022B81E02F
:1004900040E058EF6FEF77E025E000E00E9446284B
:1004A00084E040E251EA67E070E020E030E009EAF1
:1004B00011E0EE24FF240E945D0803C081E00E9449
:1004C000C3281F910F91FF90EF9008950E94EA2991
:1004D000882311F00E9419050E941E0A80E090E016
:1004E00060E070E00E94250A81E090E061E070E049
:1004F0000E94250A82E090E061E070E00E94250AF7
:10050000789481E00E941104882311F00E9419055B
:1005100082ED92E069EB72E00E94A42A80E090E014
:100520000E94B9028EE692E00E94022B80E992E0DE
:100530000E94022B81E00E94C3280E94D429FDCF93
:10054000DF93CF930F92CDB7DEB781E0BE016F5F2F
:100550007F4F41E00E94FF03813019F02FEF3FEF02
:1005600003C08981282F30E0C9010F90CF91DF911E
:1005700008950F931F93DF93CF930F92CDB7DEB7FC
:100580008E010F5F1F4F81E0B80141E00E94FF0321
:100590008823C9F3898190E00F90CF91DF911F915B
:1005A0000F9108950F931F93DF93CF930F92CDB7C1
:1005B000DEB789838A3071F48DE089838E010F5F05
:1005C0001F4F81E0B80141E00E9408048823C9F36D
:1005D0008AE089838E010F5F1F4F81E0B80141E0FF
:1005E0000E9408048823C9F380E090E00F90CF9127
:1005F000DF911F910F9108959B01AC016050774FDF
:10060000824C9F4FF2E0660F771F881F991FFA9563
:10061000D1F7E3E0220F331F441F551FEA95D1F7AE
:100620000E940E2A215030403093CD002093CC0000
:1006300082E08093C80086E08093CA0088ED8093B2
:10064000C9000895DC018091C9008F7B8093C900A7
:100650002091610580916205821730F0275F922F0B
:10066000981B892F295005C02150922F981B892F44
:100670002F5F482F681708F4462F342F12C090912F
:100680006205E92FF0E0E35BFA4F8C9180839930AB
:1006900019F41092620503C09F5F90936205315078
:1006A0001196332361F780916505882351F4E22F79
:1006B000F0E0E35BFA4F80818093CE0081E080938D
:1006C00065058091C90080648093C900842F0895D6
:1006D000DC0120916605222311F480E008958091C9
:1006E000C9008F778093C9002A3058F08091640543
:1006F000809363058AE0809366056A3020F02AE0E3
:1007000003C0261708F0262F322F17C0E09163058B
:10071000F0E0E35BFA4F82858C93909163059F5FD5
:1007200090936305809166058150809366059A30A9
:1007300011F41092630511963150332339F78091EB
:10074000C90080688093C900822F08951F920F927C
:100750000FB60F920BB60F9211248F939F93EF93C6
:10076000FF9390916405809166058F5F8093660585
:100770008091CE00E92FF0E0E35BFA4F8287993059
:1007800019F41092640503C09F5F90936405FF9174
:10079000EF919F918F910F900BBE0F900FBE0F9016
:1007A0001F9018951F920F920FB60F920BB60F92D3
:1007B00011248F93EF93FF9380916105893019F491
:1007C0001092610503C08F5F80936105E091610520
:1007D00080916205E81739F0F0E0E35BFA4F808121
:1007E0008093CE0002C010926505FF91EF918F912A
:1007F0000F900BBE0F900FBE0F901F901895813079
:1008000011F080E00895CB01642F0E9468030895E1
:10081000813011F080E00895CB01642F0E94220303
:100820000895813011F085E8089560E875E280E070
:1008300090E00E94FC0280E008959093AB028093C8
:10084000AA0208959093AD028093AC02089590930C
:10085000AF028093AE0208959093B1028093B002EC
:1008600008951F920F920FB60F920BB60F9211249C
:100870002F933F934F935F936F937F938F939F93A8
:10088000AF93BF93EF93FF93E091AA02F091AB0275
:100890000995FF91EF91BF91AF919F918F917F91BA
:1008A0006F915F914F913F912F910F900BBE0F90E1
:1008B0000FBE0F901F9018951F920F920FB60F92B8
:1008C0000BB60F9211242F933F934F935F936F9327
:1008D0007F938F939F93AF93BF93EF93FF93E09199
:1008E000AC02F091AD020995FF91EF91BF91AF91EC
:1008F0009F918F917F916F915F914F913F912F9138
:100900000F900BBE0F900FBE0F901F9018951F9267
:100910000F920FB60F920BB60F9211242F933F93A5
:100920004F935F936F937F938F939F93AF93BF93F7
:10093000EF93FF93E091AE02F091AF020995FF9122
:10094000EF91BF91AF919F918F917F916F915F9147
:100950004F913F912F910F900BBE0F900FBE0F90B4
:100960001F9018951F920F920FB60F920BB60F9211
:1009700011242F933F934F935F936F937F938F93A4
:100980009F93AF93BF93EF93FF93E091B002F091E9
:10099000B1020995FF91EF91BF91AF919F918F9116
:1009A0007F916F915F914F913F912F910F900BBE6F
:1009B0000F900FBE0F901F9018951F920F920FB6B9
:1009C0000F9211240F900FBE0F901F9018951F9239
:1009D0000F920FB60F9211240F900FBE0F901F9021
:1009E00018951F920F920FB60F9211240F900FBE01
:1009F0000F901F9018951F920F920FB60F9211240F
:100A00000F900FBE0F901F9018951F920F920FB668
:100A10000F9211240F900FBE0F901F9018951F92E8
:100A20000F920FB60F9211240F900FBE0F901F90D0
:100A300018951EB88FEF8DB98FEF9FEF0E941F069C
:100A40008EB180958EB9F8CFCF92DF92EF92FF9260
:100A50000F931F93CF93DF937B018A016901892B49
:100A600011F088EE19C0CA01860F971F815090417E
:100A700010F085E811C0C0E0D0E00AC0CE018E0DB4
:100A80009F1D0E946E2DF601EC0FFD1F80832196A5
:100A9000C017D10798F380E0DF91CF911F910F919C
:100AA000FF90EF90DF90CF900895CF92DF92EF927A
:100AB000FF920F931F93CF93DF938C017B016A0109
:100AC000CB01800F911F8150904110F085E816C036
:100AD000C0E0D0E00FC0C8010E946E2DF601EC0FFF
:100AE000FD1F6081861719F0C8010E94762D0F5FE7
:100AF0001F4F2196CE15DF0570F380E0DF91CF9177
:100B00001F910F91FF90EF90DF90CF9008950E947A
:100B1000270808950E9499050E94BA05A89588E1C2
:100B20000FB6F89480936000109260000FBE80E0D2
:100B300008959FB7F894E0E0F0E089E080935700D3
:100B400084919FBF8F70823011F090E001C09FE0D0
:100B500080E80FB6F89480936100909361000FBE17
:100B600080E1809335018093340180933301809339
:100B7000320108951092B202109294058FEF809383
:100B8000B3028093B4028093B502EBE6F5E09FEFE9
:100B9000948311821082399685E0E839F807C1F70D
:100BA00080E28093B60088EA8093DC008FE0809337
:100BB000F4009093F3009093F2009093F10082E0A0
:100BC0008093E0008091DF0082608093DF000895D1
:100BD0000895FC018091DE0080FDFCCF2091E100B2
:100BE000822F2091E200922F2091E300A22F2091EA
:100BF000E400B22F24E0880F991FAA1FBB1F2A957B
:100C0000D1F780839183A283B3830895FC0120915F
:100C1000E900822F2091EA00922F2091EB00A22F71
:100C20002091EC00B22F34E0880F991FAA1FBB1F40
:100C30003A95D1F780839183A283B3830895AC0161
:100C40008436910518F060E070E01EC07FB7F8941C
:100C500061E01AC057FD02C09A0102C02FEF3FE7C2
:100C6000C901880F991F909581959F4F90932501F9
:100C700080932401FABBE0932101D09BFECF421B5D
:100C8000530B1092210102C0F1E0E2E04115510541
:100C900009F761117FBF089520E090E0FC01B3E007
:100CA000EE0FFF1FBA95E1F7E80FF91FE959FA4F68
:100CB00084819581892B09F021E0822F0895AF92DC
:100CC000BF92CF92DF92EF92FF920F931F9380918A
:100CD000B30290E0FC0113E0EE0FFF1F1A95E1F75D
:100CE000E80FF91FE959FA4FA080B180C280D38084
:100CF0008091B202882309F46BC0D092F800C092B0
:100D0000F700B092F600A092F5008091DF0080FD20
:100D100008C081E08093E0008091DF0081608093D3
:100D2000DF002091E100822F2091E200922F20919C
:100D3000E300A22F2091E400B22F9C01AD012F5FB0
:100D40003F4F4F4F5F4FDA01C9018A259B25AC25E4
:100D5000BD2580709070A070B87F0097A105B10587
:100D600031F4A216B306C406D506C0F109C0D601F7
:100D7000C501B7705770281739074A075B0770F12C
:100D800080915D01883068F5E090B602F090B7027E
:100D90000091B8021091B9020894E11CF11C011DE8
:100DA000111DEA14FB040C051D05D9F48091E10026
:100DB000282F8091E200382F8091E300482F809106
:100DC000E400582F2E153F054007510779F706C05C
:100DD0008091DF008E7F8093DF0003C081E08093ED
:100DE00094051F910F91FF90EF90DF90CF90BF90EF
:100DF000AF9008951F931FB7F894809194058823AE
:100E000009F44CC0109294053091B202332309F4D6
:100E100045C08091B4028F3F59F48091B5028F3F55
:100E200039F48091B3028093B5028093B40212C06A
:100E30002091B3028091B50290E0FC0153E0EE0FE7
:100E4000FF1F5A95E1F7E80FF91FE959FA4F20877C
:100E50002093B5028091B30290E0FC0143E0EE0FD5
:100E6000FF1F4A95E1F7E80FF91FE959FA4F80850E
:100E70008093B3028091B50290E0FC0123E0EE0F75
:100E8000FF1F2A95E1F7E80FF91FE959FA4F8FEF95
:100E9000808731503093B2020E945F061FBF1F91BE
:100EA0000895FF920F931F93182F853010F08AE852
:100EB000C5C0FFB6F8940E94FA060091B202002362
:100EC00009F4C0C04091B302242F842F302F121791
:100ED000F1F5212F30E0141781F4F901A3E0EE0FB2
:100EE000FF1FAA95E1F7E20FF31FE959FA4F80853A
:100EF0008093B3020E945F0618C090E0DC01E3E03B
:100F0000AA0FBB1FEA95E1F7A80FB91FA959BA4F5D
:100F1000F90173E0EE0FFF1F7A95E1F7E20FF31F7F
:100F2000E959FA4F808518968C93812F90E0FC0147
:100F300063E0EE0FFF1F6A95E1F7E80FF91FE9592B
:100F4000FA4F8FEF808701500093B20262C0822F68
:100F500090E0FC0153E0EE0FFF1F5A95E1F7E80F18
:100F6000F91FE959FA4F50853150822F09F46AC0B0
:100F7000252FADCF1217D1F52091B5021317B1F47B
:100F8000121721F48FEF8093B5020DC0812F90E0EE
:100F9000FC0143E0EE0FFF1F4A95E1F7E80FF91F50
:100FA000E959FA4F80858093B40233C0842F90E0D2
:100FB000DC0133E0AA0FBB1F3A95E1F7A80FB91F78
:100FC000A959BA4F812F90E0FC0103E0EE0FFF1FFB
:100FD0000A95E1F7E80FF91FE959FA4F808518964D
:100FE0008C931217B1F44093B50213C0822F90E096
:100FF000FC0173E0EE0FFF1F7A95E1F7E80FF91F90
:10100000E959FA4F422F20852F3F09F0B3CF80E0F6
:101010000FC0812F90E0FC0163E0EE0FFF1F6A9587
:10102000E1F7E80FF91FE959FA4F1582148281E0C0
:10103000FFBE882311F489E801C080E01F910F9161
:10104000FF9008953091B402232F432FDDCF1F93DB
:101050000E94FA061FEF25C06FB7F894822F90E028
:10106000FC01B3E0EE0FFF1FBA95E1F7E80FF91F9F
:10107000E959FA4F208544815581868197811087EF
:1010800015821482178216822F3F09F43FEF6FBF3B
:101090004115510551F03093B5022093B402FA0185
:1010A00009953091B5022091B4022F3FA9F63093F3
:1010B000B5022093B4021F9108952F923F924F9250
:1010C0005F926F927F928F929F92AF92BF92CF92D8
:1010D000DF92EF92FF920F931F93DF93CF9300D095
:1010E00000D00F92CDB7DEB7582E1801FB82EA82EE
:1010F00004E0081710F48AE820C12114310409F42F
:1011000019C190E09D838C83FC01A3E0EE0FFF1FCB
:10111000AA95E1F7E80FF91FE959FA4F8481958103
:10112000892B11F088E809C1E4E076956795579519
:101130004795EA95D1F72115310529F02130310580
:1011400009F0F8C026C0DB01CA010897A109B1095E
:10115000885F9F4FAF4FB74008F0EEC02091E1008D
:10116000822F2091E200922F2091E300A22F209164
:10117000E400B22F7A018B01E80EF91E0A1F1B1F33
:101180008FEF9FEFAFEFBFE0E822F9220A231B2386
:1011900020C02091E100822F2091E200922F209127
:1011A000E300A22F2091E400B22F8A019B01081BCB
:1011B000190B2A0B3B0BD901C801BF700897A10975
:1011C000B109885F9F4FAF4FB74008F0B5C07A01B3
:1011D0008B012FB72983F8946FEF862E6FEF962E31
:1011E0006FEFA62E6FE0B62E8E209F20A022B12298
:1011F0000E94FA066090B3023FEF631671F04090D0
:10120000B202C62CD62C77248FEF9FEFAFEFB7E05A
:10121000E822F9220A231B2367C05092B302EC8113
:10122000FD8153E0EE0FFF1F5A95E1F7AC81BD81C0
:10123000EA0FFB1FE959FA4F60865AC0BFEFDB1671
:1012400009F44DC06D2D70E0FB0143E0EE0FFF1F70
:101250004A95E1F7E60FF71FE959FA4F20813181EE
:1012600042815381D501C40182279327A427B52742
:1012700080709070A070B87F0097A105B10539F417
:10128000281539054A055B0508F46FC007C057707B
:10129000E216F3060407150708F467C0EC81FD8128
:1012A00033E0EE0FFF1F3A95E1F70C811D81E00F4F
:1012B000F11FE959FA4FD0866D1419F45092B30218
:1012C00017C08C2D90E0FC0123E0EE0FFF1F2A9544
:1012D000E1F7E80FF91FE959FA4F508609C08FEF7F
:1012E000DC2C7394CD2CD82E741408F4A7CF49C0ED
:1012F000EC81FD8193E0EE0FFF1F9A95E1F72C81C1
:101300003D81E20FF31FE959FA4F80829182A28258
:10131000B382358224828A819B81978386838091E0
:10132000B2028F5F8093B2020E945F0699819FBFD5
:1013300080E003C088EE01C08BE80F900F900F9003
:101340000F900F90CF91DF911F910F91FF90EF9031
:10135000DF90CF90BF90AF909F908F907F906F90D5
:101360005F904F903F902F900895FB0183E0EE0F28
:10137000FF1F8A95E1F7E60FF71FE959FA4F8085BD
:10138000B0CF8C2D90E0FC0103E0EE0FFF1F0A951B
:10139000E1F7E80FF91FE959FA4F5086EC81FD811A
:1013A00013E0EE0FFF1F1A95E1F7AC81BD81EA0F44
:1013B000FB1FE959FA4F8FEF80879ACF1F920F9248
:1013C0000FB60F9211242F933F938F939F93809189
:1013D000E1009091E2002091E3003091E4008093DD
:1013E000B6029093B7022093B8023093B90280916D
:1013F000B202882319F081E0809394059F918F9128
:101400003F912F910F900FBE0F901F9018951F9234
:101410000F920FB60F9211248F938FEF8093E400F9
:101420008093E3008093E2008093E1008F910F901E
:101430000FBE0F901F90189581E00895729A6A9AD6
:10144000739A6B9A749A6C9A08958130910599F009
:10145000029721F16130710549F06130710520F08A
:101460006230710569F504C072980895729A089502
:101470008EB194E010C06130710549F061307105A2
:1014800020F062307105E1F404C073980895739AF6
:1014900008958EB198E089278EB90895613071055D
:1014A00049F06130710520F06230710549F404C0E3
:1014B00074980895749A08958EB190E189278EB931
:1014C0000895759A6D9808952CB130E085E03695B1
:1014D00027958A95E1F721703070C901089590E24F
:1014E0009CBBED9A93B7917F982B93BF83B7816094
:1014F00083BF889583B78E7F83BF08951F920F9215
:101500000FB60F921124ED980F900FBE0F901F9001
:101510001895BC01009721F082E395E00E94BE0A75
:10152000089582E395E060E070E00E94530B089517
:101530000F931F93CF93DF9382E395E00E94B70A46
:10154000C2E2D5E00AEB12E01983088382E395E05A
:10155000BE010E94BE0A249606561F4F85E0C23384
:10156000D80791F7DF91CF911F910F910895FC015A
:10157000118210821382128214820895CF93DF9316
:10158000DC01EB019FB7F89414968C911497882393
:1015900021F411967C936E9306C01296ED91FC9106
:1015A0001397738362831396DC93CE9312971B82F7
:1015B0001A8214968C9114978F5F14968C939FBF08
:1015C000DF91CF9108959F92AF92BF92CF92DF9219
:1015D000EF92FF920F931F93CF93DF938C015B01E8
:1015E0006A019FB6F894DC0114968C91882319F453
:1015F000C0E0D0E04AC0F801C081D1814115510559
:10160000B1F07E0111C0D60112966D917C911397B5
:10161000ED91FC91888199810995882359F47E0187
:101620008A819B819C01E901209769F72EC0209750
:1016300061F17E01AB2849F5F801808191812A8111
:101640003B81C817D90719F43183208305C0D7011E
:1016500013963C932E931297F80182819381C817B9
:10166000D90711F4F382E282D80114968C91149771
:10167000815014968C9314978D919C911197892B7E
:1016800021F413961C921E9212979FBECE01DF91F9
:10169000CF911F910F91FF90EF90DF90CF90BF906F
:1016A000AF909F900895AB0160E070E00E94E30A64
:1016B0000895AB0161E070E00E94E30A0895CF93C2
:1016C000DF93EC010BC0CE0160E070E00E94530B91
:1016D000009711F41C8205C00E94890A8C8188231E
:1016E00091F7DF91CF910895809141018F718830FA
:1016F000F1F481E080934F0189E080934201809171
:101700004F0180FD14C08EE690E00E941F0680917C
:101710004F0180FD0CC08EE690E00E941F06809174
:101720004F0180FD04C08EE690E00E941F060895E0
:101730001F93182F8091B5058F30D1F49FB7F8947F
:101740007894809139018D7F809339018091BE0515
:101750008823E1F39FBF1092BE0580914F018CE476
:1017600080934E01183011F0133011F488E0AFC1AE
:10177000809141018F718093B505183009F44BC0F9
:10178000193050F4143009F493C0163009F49BC09A
:10179000133009F097C155C01F3069F0103120F4A3
:1017A000193009F08FC163C0163109F4C2C0193174
:1017B00009F088C122C183E0809342010E948B2AF4
:1017C00080936D0180916E019770887F982B909324
:1017D0006E0180914F0180E880934E01000000006F
:1017E00000000000000000000000000000000000F9
:1017F000000000000000000000000000809139019E
:1018000082608093390183E290E00E941F0610936A
:10181000B5058FE05EC1883009F454C110934201D0
:1018200000000000000000000000000000000000B8
:1018300000000000000000000000000000000000A8
:1018400041C1883009F43EC11093420100000000FC
:101850000000000000000000000000000000000088
:101860000000000000000000000000002BC18830D4
:1018700021F1893020F4863009F024C105C0863179
:1018800019F0893109F01EC189E0809342010000FE
:101890000000000000000000000000000000000048
:1018A00000000000000000000000000000000AC16D
:1018B000883019F0893021F405C10E94740B02C1EF
:1018C00010934201FFC0893059F08A3020F48830EB
:1018D00009F0F8C019C0863119F0893109F0F2C059
:1018E00086E080934201000000000000000000003C
:1018F00000000000000000000000000000000000E8
:10190000000000000000DEC00E94740B1093420132
:1019100000000000000000000000000000000000C7
:1019200000000000000000000000000000000000B7
:10193000C9C08830F9F0893020F4863009F0C2C07F
:101940002EC0893019F0893109F0BCC086E180933E
:101950004201000000000000000000000000000044
:101960000000000000000000000000000000000077
:101970000000A8C00E94740B1093420100000000F8
:101980000000000000000000000000000000000057
:1019900000000000000000000000000093C089E08B
:1019A00080934201000000000000000000000000E1
:1019B0000000000000000000000000000000000027
:1019C00000000000809141018F718093B50589303E
:1019D00009F07FC0109342010000000000000000E9
:1019E00000000000000000000000000000000000F7
:1019F000000000000000000065C0883009F44EC0FF
:101A0000893020F4863009F05DC019C0893021F09A
:101A1000863109F057C013C0109342010000000046
:101A200000000000000000000000000000000000B6
:101A300000000000000000000000000043C089E03A
:101A40008093420100000000000000000000000040
:101A50000000000000000000000000000000000086
:101A600000000000809141018F718093B50589309D
:101A700009F02FC089E180934201000000000000BE
:101A80000000000000000000000000000000000056
:101A90000000000000000000000014C00E94740B51
:101AA0001093420100000000000000000000000050
:101AB0000000000000000000000000000000000026
:101AC00000000000809141018F718F31D9F3809324
:101AD000B5051F9108958091A6058823E1F08091B6
:101AE000BF058823C1F48091370590913805892B73
:101AF00039F48AE90E94910A90933805809337055A
:101B00008091370590913805892B29F01092A60510
:101B100086E10E94980B8091AB05882351F087EAFB
:101B200095E060E070E00E94530B009711F00E9476
:101B3000A00D8091BF05823011F40E94F80E089527
:101B4000EF92FF920F931F93CF93DF937C01DC0101
:101B50000D911C91D8011696ED91FC9117978081FB
:101B60008093B705C82FD0E02196CE0FDF1F988154
:101B700029812D3310F02CE303C0222309F421E046
:101B800092959695969593708FEF989FC00111242A
:101B900030E0FC01E29FC001E39F900DF29F900DA9
:101BA000112464EB70E00E94FA296F3F710511F077
:101BB00008F06FEF6883D8011296FC92EE921197AD
:101BC000C8010E944016DF91CF911F910F91FF90A5
:101BD000EF900895CF92DF92EF92FF920F931F93B1
:101BE000CF93DF93E0913705F0913805309709F4F2
:101BF00049C0C081D181C0904701D0907B01D7FC02
:101C000041C082E0D80E0AE910E00D191109EEEF8B
:101C1000DE0E0C0F1D1FED2CFF2497012F5F3F4F91
:101C2000C80160E871E0A9010E949B2AF801D292E4
:101C3000FF83EE83EE0EFF1EF701C28280914C01FE
:101C40008F7780934C0180914C01806880934C0188
:101C5000609137057091380587EA95E00E94BE0AC9
:101C60008AE90E94910A9093380580933705892B61
:101C700031F489E00E94980B81E08093A60580E40E
:101C800080934F01DF91CF911F910F91FF90EF90C3
:101C9000DF90CF9008951F931091BF051130C9F4C4
:101CA000809142018295869587708093390582E004
:101CB0008093BF058091370590913805892B31F4C9
:101CC00089E00E94980B1093A60503C086E10E944C
:101CD000980B1F9108950F931F93CF93DF93EC01FF
:101CE0008B01442349F090916C018091B405829559
:101CF000807F9F70892B03C080916C018F708093CF
:101D00006C010230110598F4442369F090916C0144
:101D10008091AC05880F8E70917F892B80936C0128
:101D200010926F0117C080916C018E6011C080917C
:101D3000B0058295807F9091B305892B80936F01C8
:101D400090916C018091AC05880F8E70917F892BEA
:101D500080936C0189E10E94980B8931D9F7013099
:101D6000110551F48091B705833118F080E492E0B9
:101D700005C080E890E002C089E090E00E941F0664
:101D80001FB7F89480913901826080933901809166
:101D900039018D7F80933901288130E02150304016
:101DA00080E891E0BE01A9010E949B2A81E0809316
:101DB000BF051FBFDF91CF911F910F910895FC01C7
:101DC0008091BF05882311F086E80895F093B2054D
:101DD000E093B105868197819093B9058093B8050A
:101DE000009711F488EE08950E946B0E80E008952C
:101DF0001092BF05809139058330B1F0843028F40A
:101E0000882331F08130E1F409C08530C9F412C073
:101E10006091B1057091B20580E017C06091B10585
:101E20007091B20587E811C06091B1057091B2055B
:101E300081EE0BC06091B1057091B20589EE05C0CD
:101E40006091B1057091B20585E80E94CF22089596
:101E5000282F85FD03C0982F9F7304C0982F91955C
:101E60009F719195E0E2F1E08491891734F03F96FB
:101E70008491981714F0822F0CC0803E3CF0803281
:101E80003CF487FF06C08F71806203C080E201C00E
:101E90008FE18068089584E08093AC0523E020936F
:101EA000B3058FEF9FEF9093A2058093A1059093C8
:101EB000A5058093A4058BE08093AE051092A00544
:101EC00080E098EFAFEFB7E08093BA059093BB0541
:101ED000A093BC05B093BD058AE091E090939F0567
:101EE00080939E058AE08093B60582E08093AD05DD
:101EF00085E08093B0052093B40583E80E94280F05
:101F00008093950581E08093A3051092AF05089515
:101F100085FD03C0982F9F7304C0982F91959F71E2
:101F20009195E0E2F1E080E02491921724F02917E6
:101F30003CF4815008958F5F31968031A9F780E09D
:101F400008958091A1059091A205809362019093DC
:101F50006301E6E9F5E0A4E6B1E081918D9385E0C7
:101F6000EE39F807D1F78091A4059091A5058093EB
:101F7000600190936101909148018091A305829541
:101F8000880F80769F79892B8093480190916F010B
:101F90008091B3058F70907F892B80936F01909112
:101FA0006E018091AF05880F880F880F8870977F2A
:101FB000892B80936E0190916F018091B00582957D
:101FC000807F9F70892B80936F0190914801809151
:101FD000AE058F71907E892B809348018091950585
:101FE0000E94880F909145018F70907F892B80937C
:101FF00045010895CF93DF93EB018E3431F089359D
:1020000041F488818093B405E4C088818093AC0555
:10201000E0C02091B5052F3011F481E8DBC08B3092
:1020200009F4C5C08C3070F4823009F47FC083306D
:1020300018F48823B1F115C0833009F488C08430C6
:1020400081F45EC0833511F1843528F48F3459F062
:10205000803539F410C0873509F45CC0803F09F43D
:1020600083C084EFB7C098819093B30580916F01CE
:102070009F70807F57C0888199818093A10590933C
:10208000A2058093620190936301A3C08881998126
:102090008093A4059093A5058093600190936101BE
:1020A00098C08091BF05882309F08FC080E098EF29
:1020B000AFEFB7E0088004C0B695A79597958795D0
:1020C0000A94D2F781709070892B09F480C028306F
:1020D00031F088E00E94980B8830D9F726E198818A
:1020E0009093AE05809148019F71807E982B9093CC
:1020F0004801283009F46DC086E10E94980B69C040
:102100008091BF05882309F060C08881882309F485
:1021100060C05DC098819093B00580916F019295E9
:10212000907F8F70982B90936F0153C0888180931C
:1021300095050E94280F809395050E94880F909125
:1021400045018F70907F892B8093450142C0888123
:102150008093A305909148018295880F80769F799E
:10216000892B8093480135C08881809396058981A9
:10217000809397058A81809398058B818093990538
:102180008C8180939A058D8180939B058E818093AD
:102190009C058F8180939D05E6E9F5E0A4E6B1E01A
:1021A00081918D9385E0EE39F807D1F712C08881CF
:1021B0008093AF0590916E01880F880F880F88700B
:1021C000977F892B80936E0104C086E803C088EE58
:1021D00001C080E0DF91CF9108950F931F93CF93BB
:1021E000DF93082F809139018D7F8093390180EF33
:1021F00090E00E941F06809139018E7F8093390103
:1022000081E090E00E941F068091390181608093F7
:10221000390110E084E690E00E941F0680914101A0
:102220001A3011F485E84DC08F71883011F01F5FAE
:10223000F1CF8093B50580916E01806280936E012D
:1022400080914C01806880934C018CE480934E0116
:1022500086E00E94980B10924E01C0E0D0E010E0A2
:1022600080914601CC0FDD1FCC0FDD1F90E0807602
:10227000907025E0969587952A95E1F7C82BD92B84
:102280001F5F183069F783E00E94980B80914F011F
:1022900010934F0180E480934F0180E880934F01B9
:1022A0008CE480934E01CE010E94902A002311F00D
:1022B0000E944B0F0E94A10F1092BF051092A6051D
:1022C00080E0DF91CF911F910F9108950E94ED1052
:1022D000882361F085E8089587EA95E060E070E082
:1022E0000E94530B009711F00E94890A8091AB0560
:1022F000882391F788E080934F0180E480934F0119
:1023000084E080934F0180E880934F010E948B2AE4
:1023100080936D0180916E019770887F982B9093C8
:102320006E0180E00E94A8120E94991280E0089538
:102330000F931F93CF93DF930E948A05882309F0A0
:10234000CDC080913901816080933901809139013C
:102350008D7F809339018CE791E00E941F06809168
:1023600039018E7F8093390181E090E00E941F0641
:102370008091390181608093390110E084E690E01A
:102380000E941F06809141011A3009F4A7C08F7185
:10239000883011F01F5FF2CF8093B50580915C010A
:1023A000833809F09BC0A0C0C6E9D5E00E948B2A03
:1023B000899385E0CE39D807C9F780919605309189
:1023C0009705409198056091990570919A05F09153
:1023D0009B05B0919C0550919D05082F015091E0FF
:1023E000081708F090E0832F815021E0831708F050
:1023F00020E0192F180F91E0181708F090E0292B12
:10240000842F815031E0841708F030E0A22FA80F0C
:1024100091E0A81708F090E0392B862F815021E039
:10242000861708F020E0E32FE80F91E0E81708F0A6
:1024300090E0292B872F815031E0871708F030E09A
:10244000622F680F91E0681708F090E0392B8F2F0A
:10245000815021E08F1708F020E0432F480F91E0D2
:10246000481708F090E0292B8B2F815091E08B17B3
:1024700008F090E0322F380F21E0381708F020E004
:10248000922B5195591779F43F3F69F44F3F59F416
:102490006F3F49F4EF3F39F4AF3F29F41F3F19F480
:1024A0000E3F08F081CF81E992E10E94220489E881
:1024B00092E10E941D0485E892E10E942C040E9492
:1024C000980A8AE90E94910A90933805809337050B
:1024D00087EA95E00E94B70A80E001C085E8DF91B5
:1024E000CF911F910F91089580E090E060E070E03F
:1024F00048E050E026E935E00E94240581E00E9492
:10250000ED10882309F459CFE9CF81E08093BE050F
:1025100008951F931FB7F8940E944B0E1FBF1F9181
:1025200008951F931FB7F8940E94EA0D1FBF1F91D3
:1025300008958091B5058F3011F082E8089588E004
:102540000E94980B883011F085E8089580E0089586
:10255000882311F088EE08958091B5058F3011F42D
:1025600081E808958091BF05882371F41092A60533
:1025700088E00E94980B8830D9F78FE00E94980B72
:102580008F3011F480E0089586E80895982F8091A7
:10259000BF05882311F086E80895983039F488E063
:1025A0000E94980B1092A60588E008958091370547
:1025B00090913805892B29F086E10E94980B86E0DE
:1025C000089581E08093A60586E00895DC01ED91F1
:1025D000FC91119784E180836383528341838FE16F
:1025E00096E0BD010E94BE0A08950F931F93DF93EA
:1025F000CF9300D0CDB7DEB7A091DC05B091DD055B
:10260000ED91FC91119784E180838BEE83830FEF32
:102610001FEF128301838FE196E0BD010E94BE0A85
:102620001092CD051A83098380E5BE016F5F7F4F4D
:102630000E94C21E1093DF050093DE051092EC0588
:102640001092ED051092EE051092EF051092F00534
:102650001092F1051092F2051092F3050E94BB1D35
:102660000F900F90CF91DF911F910F910895EF92EE
:10267000FF920F931F93E090E805F090E90580E04A
:1026800061E040E020E030E000E010E00E94371917
:102690008823A9F4A091DC05B091DD05ED91FC91B2
:1026A000119784E1808381EE83838FEF9FEF928384
:1026B00081838FE196E0BD010E94BE0A19C0A70187
:1026C00060E070E084E0440F551F661F771F8A9515
:1026D000D1F780E020E030E005EF12E1EE24FF24A6
:1026E0000E945D08882321F080E090E00E94F512AE
:1026F0001F910F91FF90EF900895FF920F931F93FA
:10270000DF93CF9300D0CDB7DEB7F09014060E94D0
:10271000890AFF20B1F583E562E176E00E94C21EDE
:102720002091120630911306809107068093EC05E4
:10273000809108068093ED05809109068093EE054F
:1027400080910A068093EF0580910B068093F00537
:1027500080910C068093F10580910D068093F2051F
:1027600080910E068093F30581E080931B06109202
:10277000CD058091D705833031F582E08093D70570
:1027800022C01092CD050FEF1FEF1A83098380E559
:10279000BE016F5F7F4F0E94C21E1093DF05009342
:1027A000DE051092EC051092ED051092EE051092E8
:1027B000EF051092F0051092F1051092F2051092BB
:1027C000F3052FEF3FEFE091DC05F091DD05A081EF
:1027D000B18184E18C931396FC92139712963C93EB
:1027E0002E9311978FE196E0BF010E94BE0A0E94CE
:1027F000BB1D0F900F90CF91DF911F910F91FF9014
:102800000895CF92DF92EF92FF921F93DF93CF93C1
:10281000CDB7DEB72F970FB6F894DEBF0FBECDBF92
:10282000AC017C01DE011196FC01808191819C014B
:10283000F9018FE001900D928150E1F74093DC05A2
:102840005093DD058C81823019F48F8198851AC0F0
:102850008F818093EC0588858093ED058985809331
:10286000EE058A858093EF058B858093F0058C8536
:102870008093F1058D858093F2058E858093F30515
:102880008EEF9FEF9093DF058093DE0580E5BE011C
:102890006B5F7F4F0E94C21E0E94961DD701CD9094
:1028A000DC9081E0F6018083F282E182EA56FF4FFC
:1028B00080838F8581839F0128503040D901E6E9CC
:1028C000F5E088E001900D928150E1F7F9018FEF7A
:1028D0009FEF929382938C81823051F48091DE0538
:1028E0009091DF059293829345E123E238EC11C089
:1028F000F9013A979F014CEE55E088E0DA010D901E
:10290000AD01D9010D929D018150C1F74BE123E248
:102910003CEC8091A1059091A205929382938091C5
:10292000D80582938F5F8093D80532932293429388
:10293000D6011796FC93EE93169784E0BE016D5F67
:102940007F4F0E94C21E182F80E0BE016E5F7F4F36
:102950000E94C21E112371F4882361F4C60162E053
:1029600070E041E00E94DF0E882321F481E0809333
:102970001C0612C0D701ED91FC9184E1808381EEA9
:1029800083838FEF9FEF928381838FE196E0B7017E
:102990000E94BE0A0E94BB1D2F960FB6F894DEBFA0
:1029A0000FBECDBFCF91DF911F91FF90EF90DF90D1
:1029B000CF900895FC010190F081E02D6281738138
:1029C0008181448125810E94F92908950F931F93E5
:1029D0008C01DC01ED91FC91818162810E94F629DC
:1029E000C8010E94890A1F910F910895AF92BF926A
:1029F000CF92DF92EF920F931F935C01DC01ED9178
:102A0000FC91048115812681378181816281438116
:102A1000E08439966F010E94EE01C5010E94890A87
:102A20001F910F91EF90DF90CF90BF90AF900895DE
:102A30000F931F938C01DC01ED91FC9181810E9429
:102A4000F829C8010E94890A1F910F9108950F93D8
:102A50001F938C01DC01ED91FC9181810E943D026C
:102A6000C8010E94890A1F910F9108950F931F9327
:102A70008C01DC01ED91FC9181810E94F200C80182
:102A80000E94890A1F910F9108950F931F938C0143
:102A9000DC01ED91FC91818162813396AF010E944E
:102AA000F529C8010E94890A1F910F910895EF929C
:102AB000FF920F937C01DC01ED91FC912181328129
:102AC00043815481658176818781908501850E944B
:102AD000F429C7010E94890A0F91FF90EF90089591
:102AE0000F931F93DF93CF93CDB7DEB72B970FB61E
:102AF000F894DEBF0FBECDBF8C01DC01ED91FC91DF
:102B000082818983838194819B838A839E012C5F48
:102B10003F4FAF014B5F5F4F88E0DA010D90AD0191
:102B2000D9010D929D018150C1F78181BE016F5F76
:102B30007F4F0E94F329C8010E94890A2B960FB685
:102B4000F894DEBF0FBECDBFCF91DF911F910F91E3
:102B50000895CF92DF92EF92FF920F936C01DC0108
:102B6000ED91FC91BF016E5F7F4F24893589E78825
:102B7000F08C8181438906890E94F229C6010E9456
:102B8000890A0F91FF90EF90DF90CF9008950F93F7
:102B90001F938C01DC01ED91FC9181819281638115
:102BA0000E94C501C8010E94890A1F910F910895D2
:102BB0000F931F938C01DC01ED91FC918181628167
:102BC0000E94F129C8010E94890A1F910F9108955E
:102BD000CF92DF92EF920F93DF93CF93CDB7DEB713
:102BE00066970FB6F894DEBF0FBECDBF6C01DC0157
:102BF000ED91FC9181818983828193819B838A837A
:102C00009E012C5F3F4FAF014C5F5F4F88E0DA01C0
:102C10000D90AD01D9010D929D018150C1F78485C0
:102C20008C87858596859E878D879E01215F3F4F86
:102C3000AF01415F5F4F88E0DA010D90AD01D9012E
:102C40000D929D018150C1F7228D338DCE010196E9
:102C5000BE01645F7F4F418D0789E08C0E942F0188
:102C6000C6010E94890A66960FB6F894DEBF0FBEB1
:102C7000CDBFCF91DF910F91EF90DF90CF9008956E
:102C8000FC011082618172816115710521F083EE72
:102C900095E00E94BE0A08950F931F93CF93DF9390
:102CA000282F809112069091130696FFA3C022232D
:102CB00059F420910506309106068091A105909166
:102CC000A2052817390761F0209105063091060604
:102CD0008091E1059091E2052817390709F08AC033
:102CE00020910706309108068091DE059091DF055E
:102CF0002817390709F47EC0909107068091EC05EA
:102D0000981759F5909108068091ED05981729F5C7
:102D1000909109068091EE059817F9F490910A06B2
:102D20008091EF059817C9F490910B068091F005FA
:102D3000981799F490910C068091F105981769F411
:102D400090910D068091F205981739F490910E0636
:102D50008091F305981709F44DC08AE90E94910A01
:102D60008C01009709F446C0DC012D913C9185E06F
:102D7000F901808312830183E956FF4F8083AF01FD
:102D800048505040FA01A6E9B5E088E00D90019264
:102D90008150E1F7FA013897EF01ACEEB5E088E039
:102DA0000D9009928150E1F78091A1059091A205C3
:102DB000929382938091D80582938F5F8093D805F8
:102DC00083E69CEC9293829388E18293D9011796D3
:102DD000FC93EE931697C90162E070E041E00E9417
:102DE000DF0E882321F481E080931C0603C0C80114
:102DF0000E94890ADF91CF911F910F9108950F933F
:102E00001F93CF93DF93EC01E881F981A681B7810D
:102E10007C917093F705FD01E70FF11D818180938F
:102E2000100611964D915C9112975093F5054093C1
:102E3000F40513968C9113978093F8058D010C5F20
:102E40001F4F652F6295669566956370352F369591
:102E50003695337019F4F80120E049C014968D912D
:102E60009C9115979093FB058093FA05FD0136968A
:102E70003230E1F41092FC051092FD051092FE052F
:102E80001092FF05109200061092010610920206A1
:102E90001092030616968D919C9117979093FD05BD
:102EA0008093FC05FD01389624E021C0333011F0F9
:102EB00022E01DC016968C9116978093FC058181A7
:102EC0008093FD0582818093FE0583818093FF05B9
:102ED000848180930006858180930106868180939A
:102EE0000206878180930306FD013E962AE0662351
:102EF00009F447C046FD08C0819191919093060660
:102F0000809305062E5F08C08091FA059091FB051D
:102F100090930606809305066230C1F4109207066E
:102F2000109208061092090610920A0610920B06DB
:102F300010920C0610920D0610920E06808191815F
:102F400090930806809307062E5F1BC06330C9F478
:102F50008081809307068181809308068281809317
:102F60000906838180930A06848180930B068581FC
:102F700080930C06868180930D06878180930E06D0
:102F8000285F972F9550921B90931106609304062B
:102F90003093F90543FD5CC1D801A20FB11D842F08
:102FA00087708093F605833021F48C9180930F060F
:102FB00063C0813009F451C0813020F0833009F0C2
:102FC00047C15AC08D919C9111979093130680939D
:102FD000120612968C91129780931406877011F442
:102FE00093E002C0982F9C5FFD01E90FF11D8081E5
:102FF00080931506292F2F5F382F377090E0807748
:10300000907044E0959587954A95E1F7482F3323D2
:1030100011F4882389F0CD01820F911D909317063A
:1030200080931606332311F0330F230F442321F02E
:10303000440F440F440F240F80911106281750F4B9
:10304000821B80931806A20FB11DB0931A06A0939D
:10305000190602C110921806FFC0992351F0963745
:1030600018F086E780931106B0931306A09312061A
:10307000F3C010921106F0C080910F06843009F45D
:10308000EBC0853030F4823059F0833009F0E0C075
:1030900014C0873009F4E0C0883009F0D9C012C0EC
:1030A00011968D919C91129790931306809312061E
:1030B00013968C9180931406CFC011968C918093B7
:1030C0001206CAC011968D919C9112979093130687
:1030D0008093120613968D919C91149790931506E8
:1030E0008093140615968C91159780931606169664
:1030F0008D919C911797909318068093170654FF13
:10310000ABC018968C9180931906A6C08091F605E5
:10311000833061F480910F06843011F0873031F4F0
:1031200083EE95E0BE010E94BE0A9CC08091CD0551
:10313000813009F478C0813020F0843008F088C0F4
:1031400059C08091D605882351F590911B06923085
:1031500008F07EC08091F605813009F475C0813099
:1031600020F0833009F074C00CC080911E068823C3
:1031700009F46EC0992309F46BC080E00E944C16DC
:1031800067C080910F06833009F040C0CE010E94D5
:103190004B1A80911B06813009F064C03DC083301A
:1031A000D1F0843019F0823009F052C08091F605D8
:1031B000882309F04DC080911E06882341F080913C
:1031C0001B068150823018F481E00E944C16CE011B
:1031D0000E94812147C08091F6058330C9F5809116
:1031E0000F068830A9F581E00E945107CE010E94A8
:1031F000042538C00E94F0208091F605813021F12D
:10320000833031F580910F06833019F0883001F555
:1032100006C0CE010E944B1A0E94691E23C0CE0137
:103220000E94DE271FC08091F605833059F48091FB
:103230000F06823069F480E00E945107CE010E949F
:103240007D1310C0813021F4CE010E94521B0AC0B0
:10325000CE010E94890A06C080911C06882309F0CD
:1032600055CF64CFDF91CF911F910F9108956F9249
:103270007F929F92AF92BF92CF92DF92EF92FF9296
:103280000F931F93CF93DF93D82E962EC42E590100
:1032900038018AE90E94910A7C01009709F49BC0D9
:1032A000DC010D911C91DD2021F084E0F801808388
:1032B00003C08BE0D8018C93F801F282E182E956D9
:1032C000FF4F84E080832091A4053091A505C901BA
:1032D0000296029710F0992069F03897EF01A6E95D
:1032E000B5E088E00D9009928150E1F762E183E258
:1032F00090EC05C0329322936CE083E290E8CC20FE
:1033000061F02091A1053091A2056216730629F0A3
:103310006E5F3293229370E002C0806471E022E01D
:10332000C21641F4AC015860D5018D919C919293E5
:10333000829328C0B3E0CB1661F4AC015C6038978F
:103340006A5FEF01D50188E00D9009928150E1F7A5
:1033500019C02091DE053091DF054FEF2E3F340775
:1033600029F0AC015860329322930CC0AC015C6030
:1033700038976A5FEF01ACEEB5E088E00D900992F6
:103380008150E1F73297772339F08091A105909130
:10339000A2059183808302C0718260828091D805EA
:1033A00082938F5F8093D805529342936293D801A2
:1033B0001796FC93EE931697C80162E070E041E027
:1033C0000E94DF0E882321F481E080931C0604C054
:1033D000C7010E94890A80E0DF91CF911F910F9170
:1033E000FF90EF90DF90CF90BF90AF909F907F9035
:1033F0006F900895EF92FF920F931F93CF93DF93F7
:103400007C01E801DC01ED91FC9186E18083618320
:10341000428334832383CF010596423069F41582B9
:10342000168217821086118612861386148688816A
:1034300099819683858307C0DC01F80188E00190BB
:103440000D928150E1F78FE196E0B7010E94BE0A2C
:10345000DF91CF911F910F91FF90EF9008950F93FF
:103460001F93AC018091A4059091A505029620912F
:10347000A1053091A205029728F4CA0143E006E9AC
:1034800015E004C0CA0142E004EA15E00E94FA19FE
:103490001F910F910895CF93DF939C01FC01C08190
:1034A000D181FE0185E18193A7E0B6E088E00D902F
:1034B00001928150E1F78091120689878FE196E0B1
:1034C000B9010E94BE0A1092EC051092ED0510920F
:1034D000EE051092EF051092F0051092F105109292
:1034E000F2051092F3058FEF9FEF9093DF05809325
:1034F000DE05DF91CF9108950F931F93DF93CF9354
:10350000CDB7DEB72E970FB6F894DEBF0FBECDBF96
:103510008C01DC014D915C91DE011196FA018EE087
:1035200001900D928150E1F7FA011283018383E04B
:103530008083EA56FF4F80838D85818338979F0172
:1035400066E975E088E0DB010D90BD01D9010D92BF
:103550009D018150C1F78A81823031F48D819E8135
:103560009293829333E10FC038979F01BE016B5F46
:103570007F4F88E0DB010D90BD01D9010D929D01C7
:103580008150C1F739E18091A1059091A2059293F4
:1035900082938091D80582938F5F8093D8052A818A
:1035A000922F990F990F80E08366906C929382938B
:1035B0003293DA011796FC93EE9316970E94961DAC
:1035C000F8018081918162E070E041E00E94DF0EAD
:1035D000882321F481E080931C060CC02B813C8160
:1035E000C80161EE4A818E010B5F1F4F0E94FA19DC
:1035F0000E94BB1D2E960FB6F894DEBF0FBECDBF46
:10360000CF91DF911F910F910895DC01ED91FC9115
:103610001197E081E43278F4F0E0EE0FFF1FE05DF7
:10362000FE4F259134912115310519F0F9010995C5
:1036300008950E94890A08951F9380911C0688238B
:1036400081F48091D505882361F081ED95E060E0FB
:1036500070E00E94530B009721F00E94051B11E0BF
:1036600001C010E08091E705882359F083EE95E0D2
:1036700060E070E00E94530B009719F00E94051B58
:1036800011E0812F1F910895DC01ED91FC911197BC
:1036900080E18083418362838FE196E0BD010E94D7
:1036A000BE0A08950F931F93DF93CF93CDB7DEB774
:1036B00028970FB6F894DEBF0FBECDBFAC01DC017A
:1036C0009C9111962C9180911106882321F4CA01B6
:1036D0000E94890A0EC1E92FF22F8091F805808F90
:1036E000209104062183809105069091060693831C
:1036F0008283822F8250823010F5148215821682C6
:1037000017821086118612861386223039F4809132
:10371000070690910806958384831BC02330C9F463
:103720009F012C5F3F4F67E076E088E0DB010D9062
:10373000BD01D9010D929D018150C1F70AC01382CC
:1037400012821482158216821782108611861286C2
:103750001386208D8091C005281761F59481809192
:10376000C305981739F595818091C405981711F50F
:1037700096818091C5059817E9F497818091C605D7
:103780009817C1F490858091C705981799F4918591
:103790008091C805981771F492858091C905981792
:1037A00049F493858091CA05981721F4CA010E94B3
:1037B000890A5AC02093C00584818093C3058581FE
:1037C0008093C40586818093C50587818093C60553
:1037D00080858093C70581858093C8058285809305
:1037E000C90583858093CA052091F905248717862A
:1037F000108A118A128A138A148A158A168A80916D
:10380000FA059091FB0596878587233079F49F010F
:10381000215F3F4F6CEF75E088E0DB010D90BD014B
:10382000D9010D929D018150C1F70BC0223039F4AE
:103830008091FC059091FD05908B878702C01686CC
:10384000158680911006878B80911106818F80915B
:10385000120690911306938F828F81E180838FE10E
:1038600096E0BA010E94BE0A8091F40584FF41C02F
:1038700080910406823071F48091070690910806C9
:103880009A838983009105061091060680E060E026
:1038900042E021C0833019F5809107068983809129
:1038A00008068A83809109068B8380910A068C839F
:1038B00080910B068D8380910C068E8380910D067E
:1038C0008F8380910E068887009105061091060669
:1038D00080E060E043E09E012F5F3F4F07C080E043
:1038E00060E040E020E030E000E010E00E943719A6
:1038F00002C00E94BB1D28960FB6F894DEBF0FBE13
:10390000CDBFCF91DF911F910F910895CF92DF929C
:10391000EF92FF920F931F93DF93CF93CDB7DEB754
:1039200062970FB6F894DEBF0FBECDBF8C01DE01EB
:103930001196FC01808191819C01F90182E1019045
:103940000D928150E1F78F8582FD11C08091CD05E8
:10395000882321F48091D605882349F09E85D801DB
:10396000ED91FC9180E18083918381EEB5C0F801F7
:10397000C080D1808DE0D6018C938E8513968C9378
:10398000888945E0F42EF80EE8E9F0E0E81BF1093B
:10399000EC0DFD1D9A81923051F437E0F32EF80EB4
:1039A0008091A4059091A5059293829312C09330C3
:1039B00081F438972DE0F22EF80E9F0146E955E08C
:1039C00088E0DA010D90AD01D9010D929D01815081
:1039D000C1F72091A1053091A2058C819D81281706
:1039E000390749F48A81882331F08B81882319F0C3
:1039F00040E450E009C08A81882321F0B2E0FB0E48
:103A00003293229340E050E08B81882311F1823081
:103A100039F46F2D6E5F8E819F819293829312C0D5
:103A200038976F2D685F9F0196E0E92EF12CEC0E20
:103A3000FD1E88E0D7010D907D01D9010D929D01F9
:103A40008150C1F782E0F82EF60E8C819D81929311
:103A500082938091D80582938F5F8093D805BA01B5
:103A600061608F8580FF02C0BA01616288898736F4
:103A700008F070618B81382F330F330F20E04A81BB
:103A8000942F9295990F990F907C80E0282B392BD9
:103A9000262B372B329322933296F7FC15C033979F
:103AA000F082D6011796FC93EE9316970E94961D0E
:103AB000F60112830183C60162E070E041E00E94DA
:103AC000DF0E882381F013C09E85D801ED91FC9113
:103AD00080E18083918385EE82838FE196E0B80157
:103AE0000E94BE0A14C081E080931C0610C09E850F
:103AF000D801ED91FC9180E18083918381EE8283F6
:103B00008FE196E0B8010E94BE0A0E94BB1D62963A
:103B10000FB6F894DEBF0FBECDBFCF91DF911F91DE
:103B20000F91FF90EF90DF90CF90089580911D0648
:103B3000813051F40E949912853831F081E090E093
:103B40000E94E80510921D06089580911D068823A5
:103B500089F480E090E00E94E80580E00E94A812CD
:103B6000882321F481E080931D06089581E090E090
:103B70000E94E80508958091C105882331F4809161
:103B8000E005882311F40E94A51D08950F931F934B
:103B9000182F10921C0610921B0610921D061092F0
:103BA000D6051092D7051092CD051092C0058FEF63
:103BB0008093C3058093C4058093C5058093C60593
:103BC0008093C7058093C8058093C9058093CA0573
:103BD0001092E00588E00E94C6120FB7F89480E0CA
:103BE0000E94510781E00E94510782E00E94510724
:103BF0000FBF112391F110921E0682EC97E0909373
:103C0000D0058093CF0580E098E79093E9058093F5
:103C1000E8051092CC0581E08093CE0586E0809384
:103C2000C2051092EC051092ED051092EE0510926F
:103C3000EF051092F0051092F1051092F205109226
:103C4000F3058FEF9FEF9093DF058093DE050E94D1
:103C50008B2A8093D8051092C1051F910F9108956A
:103C60000F931F93CF93DF93EC01088119810E947A
:103C7000961DF801018180E090E00E94E80580E057
:103C8000011181E00E946611182F81E090E00E94EE
:103C9000E805802F0E94C61D0E94BB1D81ED95E0A6
:103CA0000E945F0B83EE95E00E945F0B8FE196E030
:103CB0000E945F0BE881F981118380E280838FE1AC
:103CC00096E0BE010E94BE0ADF91CF911F910F9135
:103CD0000895DF93CF9300D000D0CDB7DEB70E9418
:103CE000961D8FEF9FEF9A8389839C838B8383E557
:103CF000BE016F5F7F4F0E94C21E80E5BE016D5FF7
:103D00007F4F0E94C21E81E00E94C61D0E94BB1D03
:103D10000F900F900F900F90CF91DF9108950E9418
:103D20009811882399F40E941C0A882379F081E075
:103D30000E94C61D0E94BB1D81ED95E00E94B70A3E
:103D400083EE95E00E94B70A80E0089585E8089523
:103D5000E82F883030F4E82FF0E0E858FE4F8491E7
:103D600008958054803228F4F0E0E05CFE4F8491A6
:103D70000895E03F10F480E00895F0E0E055FF4F33
:103D8000849108951F93CF93DF93182FEB018091B7
:103D90001D06813051F40E94961D812FBE010E94A4
:103DA000FA0F182F0E94BB1D04C0812F0E94FA0F2A
:103DB000182F812FDF91CF911F910895FF920F93BC
:103DC0001F93CF93DF93182FEB01F42E813520F54D
:103DD0008E3408F087C0833409F484C0843460F4DE
:103DE000853038F4823008F07DC0882309F47AC029
:103DF0002DC0823459F53AC08A3409F43FC08B345F
:103E000028F48434B9F1873409F56CC08B3409F493
:103E10004EC08C34D9F452C0873509F463C088355C
:103E200058F4853530F4833508F05CC0823571F480
:103E300049C0863559F40CC0893509F453C0893519
:103E400058F08A3561F0803F09F44CC004EFABC0F4
:103E5000888180931E06A6C0888199819FC0888131
:103E600099819093E9058093E8059CC088818093AF
:103E7000CE0598C088818093C20594C088818093C4
:103E8000EC0589818093ED058A818093EE058B8115
:103E90008093EF058C818093F0058D818093F105EF
:103EA0008E818093F2058F818093F3057BC088819A
:103EB00099819093DF058093DE0574C0888180939B
:103EC000D80570C06881611161E06093C105662307
:103ED00031F00E94961D86E00E94C61263C00E94C7
:103EE000BB1D60C0812FBE010E94FA0F082F8138D0
:103EF00071F40E949912812FBE010E94FA0F082FBF
:103F0000882309F050C081E080933A0503C08823DC
:103F100009F049C08091AC05282F30E08091B005B0
:103F2000482F50E06091B305CA01861B91092817FC
:103F300039070CF4C901A82F281B310981E090E052
:103F400002C0880F991F4A95E2F70197289FA001A8
:103F5000299F500D389F500D112420E030E070E073
:103F6000E1E0F0E00DC0C901860F971FEF0102C02C
:103F7000CC0FDD1F8A95E2F74C0F5D1F2F5F3F4F7F
:103F80002A1788F384E190E09C01429FC001439F7F
:103F9000900D529F900D1124865F9E4F9093D005F7
:103FA0008093CF0500E0FF2049F080913A058823F7
:103FB00029F080E00E94A81210923A05802FDF912C
:103FC000CF911F910F91FF900895EF92FF920F9361
:103FD0001F937C01FC0100811181B8016E5F7F4F4E
:103FE000F801818141E00E94DE1EF80191819283F7
:103FF0009FE1908381838FE196E0B7010E94BE0A22
:104000001F910F91FF90EF900895CF93DF93AC0134
:10401000DC01ED91FC919F012D5F3F4F81818C343C
:1040200009F485C08D3438F5853009F464C08630D4
:1040300088F4823009F4ACC0833030F4882309F46A
:1040400097C08130E9F597C0833009F4A4C084306B
:10405000B9F54EC0823409F459C0833430F4863047
:1040600009F44EC0873061F54EC08A3409F451C05E
:104070008B3431F557C0863529F1873588F4803582
:1040800009F45EC0813530F48E3409F453C08F34A6
:10409000B9F453C0823509F458C0833589F458C047
:1040A0008935D9F08A3528F4873579F0883541F497
:1040B0000FC08D35D1F0803F09F451C08A3581F0B1
:1040C00094EF6DC080911E0668C08091B00565C0F8
:1040D0008091CF059091D0053FC08091B4055DC01F
:1040E0008091E8059091E90537C08091CC0555C0D5
:1040F0008091A00552C080919E0590919F052CC093
:104100008091B6054AC08091AD0547C08091CE052B
:1041100044C0E901ACEEB5E088E00D900992815011
:10412000E1F73CC08091DE059091DF0515C08091DC
:10413000D80533C08091AC0530C08091B3052DC047
:104140008091A1059091A20507C08091C10525C06D
:104150008091A4059091A505948383831FC0E901F4
:10416000A6E9B5E088E00D9009928150E1F716C00C
:104170008091AE0512C08091BA059091BB05A091C7
:10418000BC05B091BD0583839483A583B68306C027
:104190008091950502C08091A305838390E0818181
:1041A00082838EE1808391838FE196E0BA010E9441
:1041B000BE0ADF91CF910895CF93DF93EC01E881A0
:1041C000F98183E280836183662311F00E94BB1D25
:1041D0008FE196E0BE010E94BE0ADF91CF91089563
:1041E0008091F6058823E1F080E00E9451078091DC
:1041F000F605813031F480911106882311F060E0DA
:1042000001C06BEE8091CD05823031F48091DC05E8
:104210009091DD050E94DC2010921C061092CD05C5
:1042200008958091CD05823039F48091DC0590911C
:10423000DD056BEE0E94DC201092CD0510921C066D
:104240000895CF92DF92EF92FF920F931F93DF9327
:10425000CF93CDB7DEB728970FB6F894DEBF0FBE69
:10426000CDBFD82EC92E8091CD058823B1F5809180
:10427000D605882391F50E94961DED2CFC2CD701C4
:10428000ED91FC9181819F012C5F3F4F823031F491
:10429000848195819A83898342E00DC0AE014F5F8E
:1042A0005F4F88E0D9010D909D01DA010D92AD01BB
:1042B0008150C1F743E00281138181E060E09E01FB
:1042C0002F5F3F4F0E943719882329F0D092DC05D9
:1042D000C092DD0507C0C70102C08D2D9C2D61EE87
:1042E0000E94DC2028960FB6F894DEBF0FBECDBF2B
:1042F000CF91DF911F910F91FF90EF90DF90CF90C2
:1043000008955F926F927F928F929F92AF92BF9229
:10431000CF92DF92EF92FF920F931F93DF93CF9391
:10432000CDB7DEB761970FB6F894DEBF0FBECDBF35
:10433000BC014091D605423011F0443069F48091BF
:10434000CE05882349F0E091DC05F091DD05208160
:104350003181D901199604C0A0E0B0E020E030E03E
:1043600050910406598300910506109106061B839F
:104370000A83523069F41E821F82188619861A86B3
:104380001B8680910706909108069D838C8318C038
:10439000809107068C83809108068D8380910906A1
:1043A0008E8380910A068F8380910B068887809187
:1043B0000C06898780910D068A8780910E068B876F
:1043C0009090AE059C86B090A005BD8680911206A7
:1043D000909113069F878E87188A8091140687FF15
:1043E00002C081E0888B80911006898B423019F0E1
:1043F000443009F06FC08091CE05882309F46AC06B
:10440000F901F084EC81FD815C806D807E808F807D
:10441000A884C984DA84EB8440E049C011968D9168
:104420009C9112970817190709F03FC08C915817F3
:10443000E1F51B968C911B979816B9F51C968C91FB
:104440001C97B81691F5523041F413968D919C91BA
:104450001497E817F90749F53DC013968C91139707
:10446000851519F514968C9114978615F1F4159607
:104470008C9115978715C9F416968C911697881507
:10448000A1F417968C9117978A1579F418968C9148
:1044900018978C1551F419968C9119978D1529F44C
:1044A0001A968C911A978E15A9F04F5F51964F1559
:1044B00008F4B4CF59C0FD01DE01119681E10D90E1
:1044C00001928150E1F7D90118968C9118978F5F6E
:1044D00018968C939091150680911806882321F4E4
:1044E0008091CE058823E1F5DB01ED91FC9187E118
:1044F00080838091F80581839F012E5F3F4FAE013D
:104500004F5F5F4F81E1DA010D90AD01D9010D924E
:104510009D018150C1F780911506838B892F87708B
:1045200059F4892F90E08077907024E095958795D5
:104530002A95E1F7882331F08091160690911706AD
:10454000958B848B80911806868B809119069091AB
:104550001A06908F878B8FE196E00E94BE0A09C0F1
:10456000CB010E94890A05C0E4E0EF1508F4B2CF40
:10457000A2CF61960FB6F894DEBF0FBECDBFCF912C
:10458000DF911F910F91FF90EF90DF90CF90BF9040
:10459000AF909F908F907F906F905F900895EF9273
:1045A000FF920F931F93CF93DF93182FEB0110927D
:1045B0001C068091D605823021F48881873051F421
:1045C00005C0833039F48881863021F4812F0E9420
:1045D0003E27A5C08881843009F451C0853030F46D
:1045E000813009F1833009F098C010C08B3009F494
:1045F00046C08D3021F0853009F08FC087C0898199
:104600009A81612F4B810E94441B87C089819A81C6
:10461000612F0E942F1A80911B06813009F07DC006
:104620000E94691E7AC0193E11F0113E41F4898141
:104630009A81612F4FEF5FEF0E94E6126EC0809368
:10464000CD054091E8055091E90560E070E094E007
:10465000440F551F661F771F9A95D1F780E020E021
:1046600030E007E313E1EE24FF240E945D08882375
:1046700009F455C080E090E00E94371350C0898152
:104680009A810E94890A8091CD05813009F447C042
:1046900088818430A1F4173881F0E091DC05F09135
:1046A000DD05A081B18183E28C9311961C938FE18B
:1046B00096E0BF010E94BE0A30C082E005C0193EEC
:1046C00061F1113E51F183E08093CD054091CF051A
:1046D0005091D00560E070E084E0440F551F661FE4
:1046E000771F8A95D1F780E020E030E001E111E208
:1046F000EE24FF240E945D0891E090931C0688231D
:1047000071F080E090E00E94112109C089819A81B6
:104710000E94890A8EEE0E9499270E94BB1DDF919C
:10472000CF911F910F91FF90EF900895EF92FF921C
:104730000F931F931092E0058091C1058823C9F45F
:1047400080911D068823A9F488E00E94C612883053
:1047500071F082E040E850E060E070E020E030E09E
:1047600006E913E2EE24FF240E945D0802C00E94C5
:10477000BB1D1F910F91FF90EF900895DF92EF9274
:10478000FF920F931F93CF93DF93EC01E881F981A0
:10479000E680F78000851185E114F104010511051B
:1047A00039F480E090E00E949623E881F98147C0C7
:1047B0008091CD058823F1F58091D6058823D1F528
:1047C0000E94961D86E00E94C612D82E81E080933A
:1047D000E00582E00E944C06882319F082E00E94E6
:1047E000510784E0EE0CFF1C001F111F8A95D1F7C2
:1047F00082E0B801A70120E030E006E913E2EE24F0
:10480000FF240E945D08882381F0E881F98181E21C
:10481000808388EE81838FE196E0BE010E94BE0A0C
:1048200080E090E00E94962312C0E881F98186E042
:10483000D81629F081E2808382EF818303C081E270
:10484000808311828FE196E0BE010E94BE0ADF9153
:10485000CF911F910F91FF90EF90DF900895BC01D1
:104860008FE196E00E94BE0A8091CB0580934105BE
:1048700084E061E475E00E94C21E8091DB058093B4
:10488000400580E060E475E00E94C21E1092D605EB
:104890000E94BB1D0895CF93DF93E091EA05F0914C
:1048A000EB05C081D181DE01A956BF4FFA83E983B0
:1048B000882339F087E088838C934AE023E038E04E
:1048C00013C086E088838C9318979D0146E955E0D4
:1048D00088E0FA010190AF01F90101929F01815036
:1048E000C1F742E123E438ECFD018FEF9FEF929393
:1048F000829332979183808315978091D8058C930A
:104900008F5F8093D8053E932E93FD014293FF83E2
:10491000EE83CE0162E070E040E00E94DF0E88236B
:1049200011F080E003C081E080931C06DF91CF91FD
:104930000895EF92FF920F931F93DF93CF930F92FF
:10494000CDB7DEB79091D605933009F443C09430CB
:1049500041F0923009F050C0882309F048C081E04E
:104960003BC0882309F043C086E00E94C61286300F
:1049700021F540EC53E060E070E00090420504C097
:10498000440F551F661F771F0A94D2F740545C4F9F
:104990006F4F7F4F84E0440F551F661F771F8A9526
:1049A000D1F781E020E030E006E216E2EE24FF24B9
:1049B0000E945D08882301F113C0809140058F5F3C
:1049C000809340056091DC057091DD0582E00E94D6
:1049D0005C2512C0882359F40E944B24882361F47B
:1049E00081E08983CE0101960E94262605C0809130
:1049F00040058F5F809340050F90CF91DF911F910D
:104A00000F91FF90EF9008950F931F938C01809169
:104A1000EA059091EB050E94890A1092EB0510922D
:104A2000EA05A091DC05B091DD05ED91FC911197AF
:104A30008BE18083118283E0828314821582168247
:104A4000178210868FE196E0BD010E94BE0A109287
:104A5000D6050E94BB1DC8010E94890A80E562E15B
:104A600076E00E94C21E80911706909118068F5F13
:104A70009F4F29F083E567E176E00E94C21E809196
:104A80001406909115069093DF058093DE058091C2
:104A9000F4059091F50594FF05C084E069E176E0A6
:104AA0000E94C21E80E066E176E00E94C21E0E9463
:104AB00099241F910F910895EF92FF921F93CF9326
:104AC000DF93182F7B01FB01C081D18184E061E479
:104AD00075E00E94C21E4091D6055091CE052091EE
:104AE000400555C0423011F0443031F4552321F0D7
:104AF0008885853008F04EC0133021F488858823DE
:104B000009F087C0322F3F5F8C819D81AE81BF81CC
:104B1000022E04C0B695A795979587950A94D2F76B
:104B200081709070892B91F120934005113011F420
:104B300082E003C0123021F484E08093D60504C0E3
:104B4000133011F41093D60580E060E475E00E9404
:104B5000C21E182F8823B1F08091EA059091EB05D1
:104B60000E94890A1092EB051092EA050E94BB1D73
:104B70008AEE898318868FE196E0B7010E94BE0A0B
:104B80001092D605812F0E9499245AC0232F2B31D1
:104B900008F4A8CF20934005123041F11330D9F129
:104BA000113009F04DC08091EA059091EB050E940B
:104BB000890A1092EB051092EA058091CE058823B0
:104BC00039F08885853010F08AEF05C0882311F010
:104BD000198202C08AEE898380E561EE75E00E9449
:104BE000C21E8091DC059091DD0528C0552339F067
:104BF0008885853010F08AEF05C0882311F019826E
:104C000002C08AEE898380E561EE75E00E94C21ED3
:104C100014C0209340058091EA059091EB050E9415
:104C2000890A1092EB051092EA058885882311F015
:104C3000198202C08AEE89831886C7010E942F2438
:104C4000DF91CF911F91FF90EF900895CF93DF9365
:104C5000C091DC05D091DD05988129818091D60530
:104C60008250833020F5E92FF22F21E030E040E040
:104C700050E00090400504C0220F331F441F551F11
:104C80000A94D2F72095309540955095848195816E
:104C9000A681B78182239323A423B523848395839C
:104CA000A683B78380913B05BE010E945C25DF91FE
:104CB000CF910895CF92DF92EF92FF920F931F93BF
:104CC000DF93CF9300D0CDB7DEB7D82EC92E082FF3
:104CD000192FD801ED91FC918091AE058093DB05F1
:104CE0008091A0058093CB058681809342058181C8
:104CF00080933B0582819381A481B58180933C059B
:104D000090933D05A0933E05B0933F0527812093E6
:104D10004105D092DC05C092DD058BE18083809156
:104D20003B05828380913C0590913D05A0913E0515
:104D3000B0913F0584839583A683B7832383108630
:104D400011868091CD05882341F48091D605882372
:104D500021F480913B05882341F488EE81838FE123
:104D600096E0B8010E94BE0A7EC00E94961DF8011E
:104D7000E080F1808BE08093400580913B0581309D
:104D800008F466C0833020F0833009F061C04BC066
:104D90008FEF9FEF9A8389838091A1059091A2055F
:104DA0009093E2058093E10580E5BE016F5F7F4F40
:104DB0000E94C21E80913B05813021F4D092EA0509
:104DC000C092EB058AE90E94910A9093DD058093D9
:104DD000DC050097E9F180913B05823019F4C801A8
:104DE0000E94890A2091DC053091DD05D901ED9101
:104DF000FC918BE1808380913B058283809141050A
:104E0000838380913C0590913D05A0913E05B09132
:104E10003F0584839583A683B7831086118680918E
:104E20003B05B90112C08AE90E94910A9093EB05F3
:104E30008093EA05009721F488EEF70181830CC086
:104E40006091DC057091DD0583E00E945C250BC05C
:104E500088EED70111968C938FE196E0B8010E94FD
:104E6000BE0A0E94BB1D0F900F90CF91DF911F9142
:104E70000F91FF90EF90DF90CF900895EF92FF9207
:104E80000F931F93DF93CF930F92CDB7DEB790911F
:104E9000D8059F5F9093D8058823B1F58091D605FA
:104EA000823091F440EC53E060E070E00090420505
:104EB00004C0440F551F661F771F0A94D2F7405451
:104EC0005C4F6F4F7F4F07C08091E8059091E905D7
:104ED000AC0160E070E094E0440F551F661F771F3F
:104EE0009A95D1F781E020E030E006E216E2EE2468
:104EF000FF240E945D088823A1F081E08983CE0110
:104F000001960E9426260DC0809140058F5F8093F8
:104F100040056091DC057091DD0580913B050E94A4
:104F20005C250F90CF91DF911F910F91FF90EF9033
:104F3000089527E435E030934405209343059DE12F
:104F400090934705809348058091D605882379F092
:104F50008091E1059091E20590934A05809349057F
:104F60008091DB0580934B058091CB050EC080912D
:104F7000A1059091A20590934A05809349058091DF
:104F8000AE0580934B058091A00580934C058FE181
:104F900096E063E475E00E94BE0A80911B068230B1
:104FA00050F48091D605882331F48091CD05882373
:104FB00011F40E94BB1D1092D70508950F931F9303
:104FC0008C018FEE0E949927C8010E94890A80E512
:104FD00062E176E00E94C21E809117069091180649
:104FE0008F5F9F4F29F083E567E176E00E94C21E44
:104FF00080911406909115069093DF058093DE054D
:105000008091F4059091F50594FF05C084E069E175
:1050100076E00E94C21E80E066E176E00E94C21E39
:105020001F910F910895CF93DF93EC018AE90E94BD
:10503000910ABC01009711F480E025C0DC01ED91DC
:10504000FC918EE080838881818389819A8193831A
:10505000828388819F012C5F3F4FAE014D5F5F4F80
:10506000823029F48B819C819583848307C0D90188
:10507000FA0188E001900D928150E1F781ED95E011
:105080000E94BE0A81E0DF91CF910895BF92CF9236
:10509000DF92EF92FF920F931F93182F6A017B010B
:1050A000B22E8AE90E94910ADC01009711F480E097
:1050B00012C0ED91FC9111978BE080831183C28225
:1050C000D382E482F582B682078381ED95E0BD014B
:1050D0000E94BE0A81E01F910F91FF90EF90DF9038
:1050E000CF90BF9008957F928F929F92AF92BF9280
:1050F000CF92DF92EF92FF920F931F93782E6A0167
:105100007B01480159018AE90E94910ADC0100975C
:1051100011F480E014C0ED91FC9111978AE0808336
:105120007182C282D382E482F58286829782A086CF
:10513000B18681ED95E0BD010E94BE0A81E01F911C
:105140000F91FF90EF90DF90CF90BF90AF909F9026
:105150008F907F9008951F93182F8AE90E94910ADB
:10516000DC01009711F480E00CC0ED91FC911197E7
:1051700088E08083118381ED95E0BD010E94BE0A25
:1051800081E01F9108951F93182F8AE90E94910AC8
:10519000DC01009711F480E00CC0ED91FC911197B7
:1051A00089E08083118381ED95E0BD010E94BE0AF4
:1051B00081E01F9108950F931F93CF93DF93EC012C
:1051C000162F042F8AE90E94910A9C01009711F47E
:1051D00080E01FC0DC01ED91FC9185E080831487A5
:1051E0008881818389819A8193838283AF014C5F17
:1051F0005F4FDE01139688E00D90EA010992AE013F
:105200008150D1F7058781ED95E0B9010E94BE0A72
:1052100081E0DF91CF911F910F910895FF920F933D
:105220001F93CF93DF93182FF62EEA01022F8AE9FE
:105230000E94910A9C01009711F480E020C0DC01DB
:10524000ED91FC9181E08083118388818383898142
:105250009A8195838483AF014A5F5F4FDE01139685
:1052600088E00D90EA010992AE018150D1F70687DE
:10527000F28281ED95E0B9010E94BE0A81E0DF91E2
:10528000CF911F910F91FF9008958F929F92AF92AF
:10529000BF92CF92DF92EF92FF920F931F93CF9323
:1052A000DF93B82E6B01F42E922E832EA02E86E76C
:1052B000841708F43FC08AE90E94910A8C01009784
:1052C000C9F1DC01ED91FC9183E08083B182D601CC
:1052D0002C91228311968D919C91129794838383B4
:1052E0002250223080F41582168217821086118691
:1052F000128613861486EF012596139688E00D908A
:1053000009928150E1F7A586E686F78628E930E024
:105310002F1931092E0F3F1FC901692D782D4F2DEF
:1053200050E00E949B2A81ED95E0B8010E94BE0AE0
:1053300081E001C080E0DF91CF911F910F91FF903C
:10534000EF90DF90CF90BF90AF909F908F90089597
:10535000FF920F931F93CF93DF93182F062FF72EF3
:105360008AE90E94910AEC01009711F480E016C0CE
:10537000812F0E94A81E482FE881F98186E0808352
:1053800011833296CF01602F7F2D50E00E949B2A1F
:1053900081ED95E0BE010E94BE0A81E0DF91CF91D0
:1053A0001F910F91FF9008951F930E941C1B182FAF
:1053B0008FE196E060E070E00E94530B009719F0D7
:1053C0000E94051B11E00E946B0D0E948705812F32
:1053D0001F9108958FE196E00E94B70A0E948F1EE8
:1053E00008950895089508950895089508950895D5
:1053F00008950895AA1BBB1B51E107C0AA1FBB1F3C
:10540000A617B70710F0A61BB70B881F991F5A9550
:10541000A9F780959095BC01CD010895A1E21A2EBF
:10542000AA1BBB1BFD010DC0AA1FBB1FEE1FFF1F48
:10543000A217B307E407F50720F0A21BB30BE40B98
:10544000F50B661F771F881F991F1A9469F76095DF
:105450007095809590959B01AC01BD01CF01089599
:10546000AF92BF92CF92DF92EF92FF920F931F9372
:10547000CF93DF93EC01A880B980CA80DB80A114B0
:10548000B104C104D10441F484E2A82E89EDB82E00
:105490008BE5C82E87E0D82EC601B5012DE133EF8C
:1054A00041E050E00E946B2F27EA31E440E050E0F9
:1054B0000E944C2F7B018C01C601B5012DE133EF19
:1054C00041E050E00E946B2FCA01B9012CEE34EF8D
:1054D0004FEF5FEF0E944C2F6E0D7F1D801F911FBD
:1054E00097FF04C061507040804090486883798382
:1054F0008A839B839B013F77C901DF91CF911F91E5
:105500000F91FF90EF90DF90CF90BF90AF900895F4
:105510000E94302A089589E992E00E94302A089575
:10552000A0E0B0E08093990290939A02A0939B022E
:10553000B0939C020895FB01DC0102C001900D9222
:1055400041505040D8F708950F931F93CF93DF93A6
:105550008C01EB01009731F46115710519F420E01D
:1055600030E038C081E090E06EE070E00E94842D71
:10557000FC019C01009771F180E88383209771F012
:10558000D387C28781E88383809124069091250682
:10559000892B21F4F0932506E093240601151105CB
:1055A000C9F01187008783818260838380912606FA
:1055B00090912706892B71F4F0932706E093260635
:1055C0008091280690912906892B21F4F0932906D1
:1055D000E0932806C901DF91CF911F910F910895A3
:1055E000DF93CF93CDB7DEB7FE0135966191719110
:1055F0008091260690912706AF010E94682BCF91DB
:10560000DF9108950F931F93CF93DF938C01E09167
:105610002606F0912706838181FF21C0C0E0D0E0FB
:105620000DC0E0912606F091270620853185BF0147
:10563000F9010995892B11F0CFEFDFEFF801819186
:105640008F01882371F7E0912606F09127062085C7
:1056500031858AE0BF01F9010995892B11F0CFEF5F
:10566000DFEFCE01DF91CF911F910F9108950F933E
:105670001F93DF93CF93CDB7DEB72E970FB6F89475
:10568000DEBF0FBECDBF0D891E8986E08C831A83D5
:1056900009838FEF9FE79E838D839E01275E3F4F97
:1056A000CE0101966F89788DA9010E94682B2F8108
:1056B0003885020F131FF80110822E960FB6F8944A
:1056C000DEBF0FBECDBFCF91DF911F910F91089527
:1056D0002F923F924F925F926F927F928F929F9202
:1056E000AF92BF92CF92DF92EF92FF920F931F93F0
:1056F000DF93CF93CDB7DEB72B970FB6F894DEBF0D
:105700000FBECDBF3C012B015A01FC01178216824E
:10571000838181FD03C06FEF7FEFC6C19AE0892EC0
:105720001E010894211C311CF3012381F20123FD89
:10573000859123FF81912F01882309F4B2C185321D
:1057400039F423FD859123FF81912F01853229F4BE
:1057500090E0B3010E94C22EE7CF982FFF24EE24E1
:105760009924FFE1FF15D0F09B3269F09C3228F4B8
:10577000903259F0933291F40EC09D3249F090333B
:1057800069F441E024C052E0F52A84E0F82A28C0F8
:1057900098E0F92A25C0E0E1FE2A22C0F7FC29C0E2
:1057A000892F80538A3070F4F6FE05C0989C902CA7
:1057B0001124980E15C0E89CE02C1124E80EF0E2AC
:1057C000FF2A0EC09E3229F4F6FC6BC140E4F42A95
:1057D00007C09C3619F450E8F52A02C0983649F4FF
:1057E000F20123FD959123FF91912F01992309F057
:1057F000B8CF892F8554833018F08052833038F425
:1058000044E050E0A40EB51E5FE359830FC0933609
:1058100031F0933779F0933509F056C020C0F50187
:105820008081898342E050E0A40EB51E610101E051
:1058300010E012C0F501C080D180F6FC03C06FEF0C
:105840007FEF02C0692D70E042E050E0A40EB51E6B
:10585000C6010E94B72E8C015FE7F52214C0F50146
:10586000C080D180F6FC03C06FEF7FEF02C0692DCE
:1058700070E042E050E0A40EB51EC6010E94A52EC5
:105880008C0150E8F52AF3FE07C01AC080E290E0D0
:10589000B3010E94C22EEA948E2D90E008171907DA
:1058A000A8F30EC0F601F7FC8591F7FE81916F0118
:1058B00090E0B3010E94C22EE110EA940150104022
:1058C0000115110579F7EAC0943611F0993669F59A
:1058D000F7FE08C0F501208131814281538184E0C7
:1058E00090E00AC0F501808191819C01442737FD39
:1058F0004095542F82E090E0A80EB91E9FE6F92251
:1059000057FF09C050954095309521953F4F4F4F17
:105910005F4FE0E8FE2ACA01B901A1012AE030E0A8
:105920000E94EE2ED82ED21840C0953729F41F2D94
:105930001F7E2AE030E01DC01F2D197F9F3661F0C9
:10594000903720F4983509F0ACC00FC0903739F08B
:10595000983709F0A6C004C028E030E00AC0106102
:1059600014FD146020E130E004C014FD166020E155
:1059700032E017FF08C0F501608171818281938157
:1059800044E050E008C0F50180819181BC0180E0D5
:1059900090E042E050E0A40EB51EA1010E94EE2E60
:1059A000D82ED2188FE7F82EF122F6FE0BC05EEF4C
:1059B000F522D91438F4F4FE07C0F2FC05C08FEECE
:1059C000F82202C01D2D01C0192DF4FE0DC0FE01EC
:1059D000ED0DF11D8081803319F499EEF92208C094
:1059E0001F5FF2FE05C003C08F2D867809F01F5F90
:1059F0000F2DF3FC14C0F0FE0FC01E1510F09D2CEF
:105A00000BC09D2C9E0C911A1E2D06C080E290E0CA
:105A1000B3010E94C22E1F5F1E15C0F304C01E15E5
:105A200010F4E11A01C0EE2404FF0FC080E390E0FF
:105A3000B3010E94C22E02FF1DC001FD03C088E712
:105A400090E00EC088E590E00BC0802F867891F042
:105A500001FF02C08BE201C080E2F7FC8DE290E022
:105A6000B3010E94C22E06C080E390E0B3010E9401
:105A7000C22E9A94D914C0F3DA94F101ED0DF11D00
:105A8000808190E0B3010E94C22EDD20A9F706C0FC
:105A900080E290E0B3010E94C22EEA94EE20C1F7AA
:105AA00043CEF30166817781CB012B960FB6F89434
:105AB000DEBF0FBECDBFCF91DF911F910F91FF9041
:105AC000EF90DF90CF90BF90AF909F908F907F909E
:105AD0006F905F904F903F902F900895F999FECF6F
