:100000000C9454010C947A010C94C8020C94FE02D6
:100010000C947A010C947A010C947A010C947A0174
:100020000C947A010C947A010C940D030C947A01CF
:100030000C947A010C947A010C9462070C947A0166
:100040000C949E070C947A010C947A010C947A011A
:100050000C947A010C947A010C947A010C947A0134
:100060000C947A010C947A010C947A010C947A0124
:100070000C947A010C947A010C947A010C947A0114
:100080000C947A010C947A010C947A010C947A0104
:100090000C947A010C947A010C947A010C947A01F4
:1000A0000C947A010C947A010C947A010C947A01E4
:1000B0000C947A010C947A010C947A010C947A01D4
:1000C0000C947A010C947A010C947A010C947A01C4
:1000D0000C947A010C947A010C947A010C947A01B4
:1000E0000C947A010C947A010C947A010C947A01A4
:1000F0000C947A010C947A010C947A010C947A0194
:100100000C947A010C947A010C947A010C947A0183
:100110000C947A010C947A010C947A010C947A0173
:100120000C947A010C947A010C947A010C947A0163
:100130000C947A010C947A010C947A010C947A0153
:100140000C947A010C947A010C947A010C947A0143
:100150000C947A010C947A010C947A010C947A0133
:100160000C947A010C947A010C947A010C947A0123
:100170000C947A010C947A010C947A010C947A0113
:100180000C947A010C947A010C947A010C947A0103
:100190000C947A010C947A010C947A010C947A01F3
:1001A0000C947A010C947A010C947A010C947A01E3
:1001B0000C947A010C947A010C947A010C947A01D3
:1001C0000C947A010C947A010C947A010C947A01C3
:1001D0000C947A010C947A010C947A010C947A01B3
:1001E0000C947A010C947A010C947A010C947A01A3
:1001F0000C947A01E7E7E7E7E7E7E8E9EACAAAABA0
:100200004525030405060708090AE7E7E7E7E7E7E6
:10021000E8E9EACBABACAD4827060708090A0B0CA6
:10022000C0A181828360614142222302030405064A
:100230000708090A0B0CFF1B3017B016F024F42234
:100240009421542A9F270D282027302EDE300000CD
:100250007332B92A0000BB1ACB1AAB1A811A9A1A48
:10026000CD19E619631A00000000A5195619191ACC
:100270002B19BB19461987197819371996190104D2
:10028000010101020101010101010101010104015A
:100290000802010101010201010201020101020142
:1002A000020201010101080011241FBECFEFDFE3AC
:1002B000DEBFCDBF00E00CBF18BE19BE1ABE1BBE0C
:1002C00010E2A0E0B0E2E8E9FFE600E00BBF02C008
:1002D00007900D92A430B107D9F71BBE14E2A4E039
:1002E000B0E201C01D92AA3FB107E1F70E949B0254
:1002F0000C94CA370C940000089582E090E061E00D
:1003000070E00E94FF080895EF92FF920F931F93F1
:1003100082E090E060E070E00E94FF0884E040E24C
:1003200051EA67E070E020E030E00DE711E0EE24F4
:10033000FF240E9438061F910F91FF90EF900895BF
:10034000EF92FF920F931F937C01E0910420F091B4
:100350000520309709F1809106208217E9F48091F9
:1003600007208317C9F4809108208417A9F480918D
:100370000920851789F480910A20861769F48091F5
:100380000B20871749F480910C208E1529F4809159
:100390000D208F1509F45DC000910E2010910F20E3
:1003A0000115110501F1809110208217E1F480916F
:1003B00011208317C1F4809112208417A1F4809139
:1003C0001320851781F480911420861761F48091A1
:1003D0001520871741F4809116208E1521F4809105
:1003E00017208F15B9F1EF2B19F4A0E0B0E004C08D
:1003F000012B49F5A1E0B0E08D010F5F1F4FFD011A
:10040000EE0FFF1FCD01880F991F880F991F880FCE
:10041000991FE80FF91FEC5FFF4D00831183FD0169
:10042000EE0FFF1FEE0FFF1FEA0FFB1FEE0FFF1F68
:10043000EA5FFF4D20833183428353836483758356
:10044000E682F78207C0C7010FEF1FEFEE24E394A7
:1004500003C08F01C701EE240E94A3351F910F91A5
:10046000FF90EF900895882339F481E090E060E0F8
:1004700070E00E94FF08089581E00E941B350895F6
:10048000AF92CF92EF920F938EEB9AEB61E040E048
:100490002FE00FE0EE24E394CC24AA240E946B34D6
:1004A0000F91EF90CF90AF900895DF93CF930F927D
:1004B0000F92CDB7DEB7882349F419821A8283E5FB
:1004C000BE016F5F7F4F0E94923603C081E00E94A1
:1004D0001B350F900F90CF91DF9108950F93DF930D
:1004E000CF930F92CDB7DEB78823E9F4633521F4BB
:1004F00081E0898381E405C0613449F481E0898326
:1005000082E5BE016F5F7F4F0E9492360FC0623559
:1005100051F481E04EEF57E060E070E021E000E050
:100520000E949E3403C081E00E941B350F90CF9142
:10053000DF910F9108950E94D436882311F00E9414
:1005400095030E94F90880E090E060E070E00E946E
:10055000FF0881E090E061E070E00E94FF0882E027
:1005600090E061E070E00E94FF08789481E00E94D2
:100570001B350E94BE36FDCF809318209093192022
:10058000E0E4F6E091E0928B84E08287948708951E
:100590001F920F920FB60F9208B60F9209B60F92E4
:1005A0000BB60F92112418BE19BE1BBE2F933F939A
:1005B0004F935F936F937F938F939F93AF93BF936B
:1005C000EF93FF93E0911820F09119201995FF9176
:1005D000EF91BF91AF919F918F917F916F915F91BB
:1005E0004F913F912F910F900BBE0F9009BE0F902E
:1005F00008BE0F900FBE0F901F9018951F920F927C
:100600000FB60F9208B60F92112418BE0F9008BEB5
:100610000F900FBE0F901F9018951F920F920FB65C
:100620000F9208B60F92112418BE0F9008BE0F90BB
:100630000FBE0F901F9018954F925F926F927F920E
:100640008F929F92AF92BF92CF92DF92EF92FF92E2
:100650000F931F93CF93DF939C016B015A01CB0142
:10066000820F931F8150984010F085E84DC0A0E0A4
:10067000B0E0C0ECD1E040EC51E016E0612EF8EDC6
:10068000EF2EF12C01E010E06BEC71E0E3E37E2E45
:1006900095E3892E86E3982E33C08091CF0187FDA4
:1006A000FCCFFA0112823183522E2093C001628660
:1006B000C701FB0184BF00838091C401F501EA0FEB
:1006C000FB1F40808415C9F08091CF0187FDFCCFCE
:1006D0008091CF0181FF06C0FA019286C701FB011C
:1006E00084BF00837A865092C00119821A824C829C
:1006F0008A86C701FB0184BF00832F5F3F4F11969D
:10070000AC15BD0550F280E0DF91CF911F910F91A4
:10071000FF90EF90DF90CF90BF90AF909F908F9021
:100720007F906F905F904F9008951F93CF93DF93CA
:10073000E0E8F6E014828FEF8183C0E8D6E01FEF97
:100740008FEF9FEF0E9431041F83FACFBF92CF92A9
:10075000DF92EF92FF920F931F93CF93DF9381303D
:10076000910531F4862F642FA9010E94410835C0FC
:10077000892B11F088EE31C0CA01860F971F815076
:10078000984010F085E829C0A0E0B0E0C0ECD1E0CE
:1007900096E0B92E88EDC82ED12C01E0E02EF12C88
:1007A0000BEC11E016C08091CF0187FDFCCF1A82BF
:1007B00079836093C001BA86C601F80184BFE082E4
:1007C0008091C401F901EA0FFB1F808311966F5FCE
:1007D0007F4FA417B50738F380E0DF91CF911F91C9
:1007E0000F91FF90EF90DF90CF90BF9008950E94FF
:1007F000FF0508950E94FA070E9415080E948209C9
:100800000E94B6070E94ED070E94F40780E0089559
:10081000892B29F488E0809300088093400808958C
:10082000FC012091002430910124C901A0E0B0E036
:10083000BC01552744278091200890912108A0E011
:10084000B0E0482B592B6A2B7B2B80910024909190
:1008500001242817390729F7408351836283738362
:1008600008954FB7F8948630910518F1209120082B
:1008700030912108280F391F80912008909121087C
:100880008217930740F480912008909121088217E5
:100890009307C8F30EC08091200890912108281773
:1008A0003907C8F380912008909121088217930797
:1008B000C8F34FBF089520E090E0FC0153E0EE0F35
:1008C000FF1F5A95E1F7E80FF91FEE5FFB4D84819A
:1008D0009581892B09F021E0822F0895DF92EF9214
:1008E000FF920F931F93DFB6F89480911C208F3FE7
:1008F00009F456C090E0FC01A3E0EE0FFF1FAA959B
:10090000E1F7E80FF91FEE5FFB4DE080F180028117
:1009100013812091002430910124C801AA27BB270C
:100920002817390769F4E0922808F0922908809185
:100930000C08806180930C0880910708836003C0D5
:10094000809107088C7F8093070860910024709144
:1009500001249B0140E050E0809120089091210803
:10096000A90133272227A0E0B0E0282B392B4A2BFE
:100970005B2B80910024909101246817790729F757
:100980002E193F09400B510B2F5F3F4F4F4F5F4FC9
:100990002F5F3F4F4F4F5F4718F481E080931B203C
:1009A000DFBE1F910F91FF90EF90DF90089580912F
:1009B0001B20882309F44CC010921B2030911A2070
:1009C000332309F445C080911D208F3F59F4809155
:1009D0001E208F3F39F480911C2080931E2080932D
:1009E0001D2012C020911C2080911E2090E0FC014F
:1009F00043E0EE0FFF1F4A95E1F7E80FF91FEE5FA6
:100A0000FB4D208720931E2080911C2090E0FC014C
:100A100023E0EE0FFF1F2A95E1F7E80FF91FEE5FC5
:100A2000FB4D808580931C2080911E2090E0FC016E
:100A3000B3E0EE0FFF1FBA95E1F7E80FF91FEE5F85
:100A4000FB4D8FEF8087315030931A200E946E0447
:100A50000895FF920F931F93182F853010F08AE8A6
:100A6000C5C0FFB6F8940E94D70400911A20002355
:100A700009F4C0C040911C20842F242F302F12175E
:100A8000F1F5212F30E0141781F4F90163E0EE0F46
:100A9000FF1F6A95E1F7E20FF31FEE5FFB4D8085C4
:100AA00080931C200E946E0418C090E0DC0153E08B
:100AB000AA0FBB1F5A95E1F7A80FB91FAE5FBB4D38
:100AC000F90143E0EE0FFF1F4A95E1F7E20FF31F34
:100AD000EE5FFB4D808518968C93812F90E0FC0192
:100AE00023E0EE0FFF1F2A95E1F7E80FF91FEE5FF5
:100AF000FB4D8FEF8087015000931A2062C0822F38
:100B000090E0FC01B3E0EE0FFF1FBA95E1F7E80FAC
:100B1000F91FEE5FFB4D50853150822F09F46AC0FA
:100B2000252FADCF1217D1F520911E201317B1F448
:100B3000121721F48FEF80931E200DC0812F90E0BB
:100B4000FC01A3E0EE0FFF1FAA95E1F7E80FF91FE4
:100B5000EE5FFB4D808580931D2033C0842F90E095
:100B6000DC01E3E0AA0FBB1FEA95E1F7A80FB91F6C
:100B7000AE5FBB4D812F90E0FC0173E0EE0FFF1FD5
:100B80007A95E1F7E80FF91FEE5FFB4D8085189627
:100B90008C931217B1F440931E2013C0822F90E063
:100BA000FC0163E0EE0FFF1F6A95E1F7E80FF91F04
:100BB000EE5FFB4D422F20852F3F09F0B3CF80E041
:100BC0000FC0812F90E0FC0153E0EE0FFF1F5A95FC
:100BD000E1F7E80FF91FEE5FFB4D1482158281E00B
:100BE000FFBE882311F489E801C080E01F910F91B6
:100BF000FF90089530911D20432F232FDDCF1F93A9
:100C00001FB7F8940E94D7041FBF1FEF25C06FB70E
:100C1000F894822F90E0FC0173E0EE0FFF1F7A95AD
:100C2000E1F7E80FF91FEE5FFB4D20854481558108
:100C300086819781108714821582168217822F3F32
:100C400009F43FEF6FBF4115510551F030931E205D
:100C500020931D20FA01199530911E2020911D200E
:100C60002F3FA9F630931E2020931D201F91089539
:100C70002F923F924F925F927F928F929F92AF926C
:100C8000BF92CF92DF92EF92FF920F931F93CF9379
:100C9000DF93782E5A016B01490194E0292E281622
:100CA00010F48AE8E2C00115110509F4DBC0C82F71
:100CB000D0E0FE0183E0EE0FFF1F8A95E1F7EC0F15
:100CC000FD1FEE5FFB4D84819581892B11F088E833
:100CD000CCC060910024709101249B0140E050E061
:100CE0008091200890912108A90133272227A0E0B4
:100CF000B0E0282B392B4A2B5B2B8091002490915C
:100D000001246817790729F78114910431F061E013
:100D10008616910409F0A6C011C0D601C5018058FD
:100D20009040A040B04080589F4FAF4FBF4708F061
:100D30009BC0A20EB31EC41ED51E10C0D601C50195
:100D400080589040A040B040821B930BA40BB50B81
:100D500080589F4FAF4FBF4708F086C09FB6F894AA
:100D60000E94D70450911C205F3F31F060911A20FF
:100D7000452F252F30E054C070921C20FE01A3E0C7
:100D8000EE0FFF1FAA95E1F7EC0FFD1FEE5FFB4D85
:100D9000508731C02F3F09F43EC0822F90E0FC0104
:100DA00073E0EE0FFF1F7A95E1F7E80FF91FEE5F92
:100DB000FB4D80819181A281B38115012601281A02
:100DC000390A4A0A5B0AD201C1018F5F9F4FAF4FB8
:100DD000BF4710F4808521C0FE0133E0EE0FFF1FF6
:100DE0003A95E1F7EC0FFD1FEE5FFB4D20875217A0
:100DF00021F470921C2091E017C0842F90E0FC0138
:100E000023E0EE0FFF1F2A95E1F7E80FF91FEE5FD1
:100E1000FB4D708655C08FEF242F3F5F422F282F48
:100E2000361708F4B7CF33C0FE0183E0EE0FFF1F83
:100E30008A95E1F7EC0FFD1FEE5FFB4DA082B182BA
:100E4000C282D38204831583E682F78280911A20BE
:100E50008F5F80931A20992311F00E946E049FBE29
:100E600080E003C088EE01C08BE8DF91CF911F9135
:100E70000F91FF90EF90DF90CF90BF90AF909F9039
:100E80008F907F905F904F903F902F900895842F88
:100E900090E0FC01B3E0EE0FFF1FBA95E1F7E80F19
:100EA000F91FEE5FFB4D7086FE01A3E0EE0FFF1F02
:100EB000AA95E1F7EC0FFD1FEE5FFB4D8FEF8087EA
:100EC00090E0B2CF1F920F920FB60F9208B60F921A
:100ED00009B60F920BB60F92112418BE19BE1BBE95
:100EE0002F933F934F935F936F937F938F939F9332
:100EF000AF93BF93EF93FF938091002490910124CF
:100F0000019680930024909301240E946E04FF9127
:100F1000EF91BF91AF919F918F917F916F915F9171
:100F20004F913F912F910F900BBE0F9009BE0F90E4
:100F300008BE0F900FBE0F901F9018951F920F9232
:100F40000FB60F9208B60F92112418BE8F9380919E
:100F50001A20882319F081E080931B208F910F9035
:100F600008BE0F900FBE0F901F90189510921A2078
:100F700010921B2010920024109201248FEF809376
:100F80001C2080931D2080931E20E6E0F4E28483E1
:100F900010821182399694E2E333F907C1F70E9477
:100FA0002A080895FC018091002490910124209149
:100FB000680830916908A0E0B0E0DC019927882733
:100FC00040E050E0822B932BA42BB52B80839183A0
:100FD000A283B383089581E0089584E8809380011B
:100FE00081E6809381010895E0EAF0E082818460E7
:100FF0008283089582E0809350008091510081FFA8
:10100000FCCF98ED94BF84E0E0E4F0E0818394BFEE
:1010100081E08093400082E0E0E5F0E0868380910B
:1010200060008160809360000895E0E4F6E08081D4
:1010300080618083808180688083808181608083FB
:1010400080818062808380818860808380818F7BC3
:101050008083089588E0809300088093400880EFA3
:1010600080930C0880E380934C0883E0809306080B
:10107000E1E4F8E080818061808389E28093430825
:1010800008956F927F929F92AF92BF92CF92DF921C
:10109000EF92FF920F931F93DF93CF93CDB7DEB7FD
:1010A000C054D040CDBFDEBFD82EA62EC42EB52E44
:1010B0003E010894611C711C662DA0E4B6E0EE248C
:1010C000E39470E1F72E00EC18E053E0952E20EC4D
:1010D00038E0AE01405C5F4F962D961B709149063B
:1010E000809149068C7F19968C9319971696EC92ED
:1010F00016971696FC92169700000000000000005C
:1011000000000000000000000000000000000000DF
:101110000000000000000000F80193828091C208E6
:1011200087FFFCCF9F77F90193838091C20887FFE7
:10113000FCCFF90113828091C20887FFFCCF809118
:10114000C3081596FC9215971596EC92159719966B
:101150007C931997F30180836416750621F0089437
:10116000611C711CB9CF20E030E0FE013196DE0138
:10117000AF5BBF4F81912827022E2295207F20252B
:10118000032E322F22952F700226269532272327F1
:10119000220F220F220F2025EA17FB0759F7232BD6
:1011A00011F085E814C0DE011196AD0DB11D8C2D36
:1011B0009B2D9C01AD0106C0FA018191AF01F9019F
:1011C00081939F01842F8A1B8A15B0F380E0C05C55
:1011D000DF4FCDBFDEBFCF91DF911F910F91FF9009
:1011E000EF90DF90CF90BF90AF909F907F906F90E7
:1011F0000895E0E8F6E08FEF8483808308958430DB
:101200009105E9F08530910548F48230910599F017
:101210008330910590F4019761F409C086309105FF
:1012200091F08630910568F0079719F40EC021E01F
:101230000DC020E00BC022E009C023E007C024E07D
:1012400005C025E003C026E001C027E06115710557
:1012500021F061307105A9F40BC081E090E002C07B
:10126000880F991F2A95E2F7E0E8F6E08683089553
:1012700002C0660F771F2A95E2F7E0E8F6E0658383
:10128000089581E090E002C0880F991F2A95E2F747
:10129000E0E8F6E0878308951092A0060895843070
:1012A0009105E9F08530910548F48230910599F077
:1012B0008330910590F4019761F409C0863091055F
:1012C00091F08630910568F0079719F40EC081E01F
:1012D0000DC080E00BC082E009C083E007C084E05D
:1012E00005C085E003C086E001C087E02091A80624
:1012F00030E002C0359527958A95E2F7217030706D
:10130000C901089580E58093C00880E1E0E4F6E03B
:1013100085830895E0E4F6E020914906909149061E
:101320009C7F9187806C90E19683E0ECF8E083836A
:101330008091C20887FFFCCFE0ECF8E063838091E6
:10134000C20887FFFCCFE0E4F6E080E185832187D7
:101350000895E0E4F6E020914906909149069C7FCB
:101360009187806890E19683E0ECF8E08383809138
:10137000C20887FFFCCFE0ECF8E013828091C2083E
:1013800087FFFCCF8091C308E0E4F6E090E195830D
:1013900021870895CF93DF93DC0180E1E0E4F6E05C
:1013A000868380E2E0ECF8E083838091C20887FFC7
:1013B000FCCFE0ECF8E013826130A9F0FD01262FAC
:1013C000C0ECD8E08091C20887FFFCCF8091C308B1
:1013D0001B82819321502230A8F76250862F90E023
:1013E0000196A80FB91F8091C20887FFFCCF80919A
:1013F000C3088C9380E1E0E4F6E08583DF91CF9130
:101400000895DC0180E1E0E4F6E0868380E6E0EC2C
:10141000F8E083838091C20887FFFCCFE0ECF8E01E
:101420009D9161508091C20887FFFCCF9383662312
:10143000B9F78091C20887FFFCCF80E1E0E4F6E0D5
:1014400085830895FF920F931F93062FF42E0E9419
:10145000A909082310E002C015950795FA94E2F750
:10146000802F1F910F91FF900895DF92EF92FF92CE
:101470000F931F93D82EF62EE42E022F0E94A90957
:1014800010E002C0000F111FEA94E2F76F2D6023F5
:10149000F094F8226F298D2D0E948A091F910F91D7
:1014A000FF90EF90DF900895BC01009721F083ED4D
:1014B00093E20E94890A089583ED93E260E070E070
:1014C0000E941E0B08950F931F93CF93DF9383ED1C
:1014D00093E20E94820ACBEBD3E20FE110E2088391
:1014E000198383ED93E2BE010E94890A2496065671
:1014F0001F4F83E2C33DD80791F7DF91CF911F9132
:101500000F910895FC0110821182128213821482BD
:101510000895CF93DF93DC01EB019FB7F894149605
:101520008C911497882321F46D937C93119706C0B6
:101530001296ED91FC911397628373831296CD936B
:10154000DC9313971A821B8214968C9114978F5FE9
:1015500014968C939FBFDF91CF9108959F92AF9285
:10156000BF92CF92DF92EF92FF920F931F93CF9390
:10157000DF938C015B016A019FB6F894DC0114963D
:101580008C91882319F4C0E0D0E04AC0F801C081F2
:10159000D18141155105B1F07E0111C0D6011296DD
:1015A0006D917C911397ED91FC91888199811995AA
:1015B000882359F47E018A819B819C01E90120974F
:1015C00069F72EC0209761F17E01AB2849F5F8013B
:1015D000808191812A813B81C817D90719F4208322
:1015E000318305C0D70112962D933C931397F801D0
:1015F00082819381C817D90711F4E282F382D8015E
:1016000014968C911497815014968C9314978D9105
:101610009C911197892B21F412961D921C9213977D
:101620009FBECE01DF91CF911F910F91FF90EF9060
:10163000DF90CF90BF90AF909F900895AB0160E096
:1016400070E00E94AE0A0895AB0161E070E00E9474
:10165000AE0A0895CF93DF93EC010BC0CE0160E09A
:1016600070E00E941E0B009711F41C8205C00E94BE
:10167000540A8C81882391F7DF91CF9108951F93AD
:1016800081E06FE140E00E94220A8830A1F48FE0FF
:101690000E94A90982E069E00E948A0910E08FE0B7
:1016A0000E94A90980FD07C088EC90E00E943104E7
:1016B0001F5F1330A1F71F9108950F931F93082FF9
:1016C00080914F248F3009F59FB7F894789488E083
:1016D000E0E4F6E08683809158248823E1F39FBFFD
:1016E000109258248FE00E94A90980ED94E10E9495
:1016F000BC028EE068E00E948A09083011F00330D5
:1017000021F488E080934F24D9C181E06FE140E06B
:101710000E94220A80934F24083009F455C00930F2
:1017200050F4043009F4A2C0063009F4ACC0033010
:1017300009F0BBC161C00F3069F0003120F40930FD
:1017400009F0B3C171C0063109F4D6C0093109F0FE
:10175000ACC13EC182E063E00E948A090E947437F6
:10176000682F192F8DE20E948A098EE267E040E01F
:10177000212F0E94350A8FE00E94A90987EC94E18D
:101780000E94BC028EE06FEF40E020E10E94350A2B
:101790000000000000000000000000000000000049
:1017A0000000000000000000000000000000000039
:1017B00088E0E0E4F6E0858383E290E00E94310473
:1017C00000934F248FE07AC1883009F46EC182E023
:1017D00068E00E948A09000000000000000000008C
:1017E00000000000000000000000000000000000F9
:1017F00000000000000059C1883009F456C182E0A1
:1018000063E00E948A090000000000000000000060
:1018100000000000000000000000000000000000C8
:1018200000000000000041C1883029F1893020F417
:10183000863009F03AC105C0863119F0893109F0C6
:1018400034C182E069E00E948A09000000000000C3
:101850000000000000000000000000000000000088
:10186000000000000000000000001FC1883019F0D7
:10187000893021F41AC10E943F0B17C182E064E055
:101880000E948A0912C1893059F08A3020F48830C8
:1018900009F00BC11AC0863119F0893109F005C170
:1018A00082E066E00E948A0900000000000000005B
:1018B0000000000000000000000000000000000028
:1018C0000000000000000000F0C00E943F0B82E01A
:1018D00066E00E948A09000000000000000000008D
:1018E00000000000000000000000000000000000F8
:1018F000000000000000D9C0883001F1893020F4D8
:10190000863009F0D2C031C0893019F0893109F030
:10191000CCC082E066E10E948A090000000000005D
:1019200000000000000000000000000000000000B7
:1019300000000000000000000000B7C00E943F0B44
:1019400082E066E10E948A090000000000000000B9
:101950000000000000000000000000000000000087
:101960000000000000000000A0C082E069E00E94CA
:101970008A090000000000000000000000000000D4
:101980000000000000000000000000000000000057
:10199000000081E06FE140E00E94220A80934F2422
:1019A000893009F08BC082E066E10E948A0900005C
:1019B0000000000000000000000000000000000027
:1019C00000000000000000000000000000006DC0EA
:1019D000883009F454C0893020F4863009F065C09D
:1019E0001BC0893021F0863109F05FC015C082E04C
:1019F00069E10E948A090000000000000000000068
:101A000000000000000000000000000000000000D6
:101A100000000000000049C082E069E00E948A09DD
:101A200000000000000000000000000000000000B6
:101A300000000000000000000000000000000000A6
:101A400081E06FE140E00E94220A80934F248930B8
:101A500009F034C082E069E10E948A0900000000B8
:101A60000000000000000000000000000000000076
:101A700000000000000000000000000016C00E94EE
:101A80003F0B82E069E10E948A090000000000002B
:101A90000000000000000000000000000000000046
:101AA0000000000000000000000081E06FE140E065
:101AB0000E94220A80934F248F31B9F31F910F9116
:101AC0000895809140248823E1F08091592488234F
:101AD000C1F48091D8239091D923892B39F48AE9D4
:101AE0000E945C0A8093D8239093D9238091D823B5
:101AF0009091D923892B29F01092402486E10E94ED
:101B00005D0B80914524882351F081E494E260E0EC
:101B100070E00E941E0B009711F00E949C0D8091B6
:101B20005924823019F0853031F403C00E94030F2C
:101B300008950E94330F0895EF92FF920F931F9321
:101B4000CF93DF937C01DC010D911C91D801179696
:101B5000ED91FC911897808180935124C82FD0E09B
:101B60002196CE0FDF1F98812981293210F028E2BB
:101B700003C0222309F421E09295969596959370DF
:101B80008FEF989FC001112430E0FC01E29FC0015B
:101B9000E39F900DF29F900D112468E770E00E9482
:101BA00005376F3F710511F008F06FEF6883D801BA
:101BB0001196ED92FC921297C8010E941D1BDF91B5
:101BC000CF911F910F91FF90EF900895DF92EF92C8
:101BD000FF920F931F93DF93CF930F92CDB7DEB792
:101BE000E091D823F091D9233097C1F1E080F180C2
:101BF00087E00E94A909D82ECE01019661E00E94DB
:101C0000CA09698167FD2AC06D5F0AE910E0061BF9
:101C100011090E0D1F1D6150C8010E94CA09F7016C
:101C2000078310878981080F111DF801D282609106
:101C3000D8237091D92381E494E20E94890A8AE929
:101C40000E945C0A8093D8239093D923892B31F486
:101C500089E00E945D0B81E0809340240F90CF913A
:101C6000DF911F910F91FF90EF90DF9008958823EF
:101C700011F087E005C082E060EE45E00E94220A94
:101C80008093DA2382E0809359248091D823909125
:101C9000D923892B39F489E00E945D0B81E0809380
:101CA0004024089586E10E945D0B0895EF92FF9213
:101CB0000F931F93CF93DF937C01EB01042F4423F9
:101CC00031F08CE260EF44E020914E2404C08CE2BD
:101CD00060EF44E020E00E94350AC230D10598F45C
:101CE000002361F08CE26EE041E0209146240E94E6
:101CF000350A8FE260E00E948A0916C08CE26EE02D
:101D000041E027E00FC060914A246295607F809196
:101D10004D24682B8FE20E948A098CE26EE041E03C
:101D2000209146240E94350A89E10E945D0B893189
:101D3000D9F7809149068C7FE0E4F6E0818721970E
:101D400079F58091512490913A248331A0F08091CB
:101D50004824992341F4882319F08FEB93E01EC0A7
:101D600087EA97E01BC0882319F087E592E016C048
:101D700087E196E013C080914824992341F4882399
:101D800019F083E091E00AC08FE292E007C0882357
:101D900019F087E990E002C087EB91E00E943104DE
:101DA00000E416E088E0F80185838683C701F70127
:101DB00060810E94010A81E0809359248091490644
:101DC0008360F8018187DF91CF911F910F91FF9080
:101DD000EF900895FC0180915924882311F086E842
:101DE0000895E0934B24F0934C2487819085809351
:101DF000522490935324009711F488EE08950E9482
:101E0000560E80E00895109259248091DA23833091
:101E1000B1F0843028F4882331F08130E1F409C036
:101E20008530C9F412C060914B2470914C2480E03D
:101E300017C060914B2470914C2487E811C06091C9
:101E40004B2470914C2481EE0BC060914B24709117
:101E50004C2489EE05C060914B2470914C2485E898
:101E60000E94692C089585E160E847E020E00E9427
:101E7000350A80ED94E10E94BC028EE068E00E9489
:101E80008A09809149068360E0E4F6E08187109238
:101E9000592486E10E945D0B9091DB239F3320F053
:101EA0008FEF8093DB230AC08FEF989FC00111242E
:101EB0006EE370E00E9405376093DB238091DB23A3
:101EC0000E94A83008951F93CF93DF93182F80911D
:101ED0005924882341F080914F248F3011F086E8F7
:101EE00060C081E85EC0C0E4D6E0809149068C7F86
:101EF00089878FE00E94A90985E160E847E021E039
:101F00000E94350A85ED9FE00E94BC028EE06FEFD3
:101F100040E020E10E94350A80914906836089876C
:101F200086E00E945D0B8630A1F085E160E847E025
:101F300020E00E94350A80ED94E10E94BC028EE010
:101F400068E00E948A09809149068360898785E854
:101F500028C087E06FEF0E948A0984E080935924AB
:101F60001092DB2380EC93E0A0E0B0E004C0880F87
:101F7000991FAA1FBB1F1A95D2F780549C4FAF4FD1
:101F8000BF4F23E0B695A795979587952A95D1F7EA
:101F90008093DC239093DD23A093DE23B093DF2393
:101FA00080E0DF91CF911F9108958FE00E94A909F1
:101FB00084FF29C087E00E94A909982F8091DB2324
:101FC000891710F49093DB238091DC239091DD231B
:101FD000A091DE23B091DF230197A109B10980937D
:101FE000DC239093DD23A093DE23B093DF230097BF
:101FF000A105B10529F087E06FEF0E948A090895D5
:1020000085E080935924089580912F2485FD03C095
:10201000982F9F7308C0982F91959F719195963F27
:1020200014F495EF22C080913A24823059F0853023
:10203000A1F08823A1F480914824882359F4963094
:10204000FCF411C080914824882321F494303CF0A2
:1020500093E00FC09B3094F402C096308CF4903221
:1020600014F08FE908C097FF04C0892F8F71806A30
:1020700002C0892F806880932F2408959AE0F9CFB9
:1020800095E0F7CF1F9384E08093462423E02093CC
:102090004D248FEF9FEF80933B2490933C248093BB
:1020A0003E2490933F2411E01093482410923A2448
:1020B00088E294E0809338249093392488E28093D6
:1020C000502488E08093472485E080934A2420931D
:1020D0004E248AE880932F240E94041010933D24FC
:1020E000109249241F91089585FD03C0982F9F7376
:1020F00004C0982F91959F71919580913A248530D5
:1021000051F4892F992787FD9095EEEFF1E0E81BB8
:10211000F90B8491089580914824292F332727FDB6
:102120003095882331F4E4E1F2E0E21BF30B849173
:102130000895EAE2F2E0E21BF30B84910895E09146
:102140003A24EE2309F0C1C060E074E048E050E0BA
:1021500020E230E0240F351F260F371F209338244C
:1021600030933924EE2319F428E090E202C022E0F3
:1021700098E0920F90935024EE2311F092E001C06A
:1021800098E090934724823091F0853009F456C04E
:10219000882311F080E008958CE068E043E020E0BF
:1021A0000E94350A86E163E040E023E010C08CE045
:1021B00068E043E021E00E94350A86E163E040E008
:1021C00022E00E94350A8CE063E040E020E00E94BB
:1021D000350A80914824882321F48CE064E042E0B1
:1021E00009C08CE064E042E021E00E94350A8CE006
:1021F00060E144E020E00E94350A87E164E042E0CB
:1022000020E00E94350A8FEF97E0A0E0B0E08093D5
:10221000542490935524A0935624B093572484E1DA
:1022200067E040E020E00E94350A88E06FE140E08E
:10223000209148240E94350A81E008958CE068E0EE
:1022400043E021E00E94350A86E163E040E022E0BD
:102250000E94350A8CE063E040E020E00E94350AED
:102260008CE060E144E021E00E94350A8CE064E00B
:1022700042E021E00E94350A87E164E042E020E08C
:102280000E94350A8FE090E0A0E0B0E080935424F3
:1022900090935524A0935624B093572480914824BA
:1022A000843010F01092482484E167E040E024E09C
:1022B0000E94350A20914824220F255F83E16FEFA9
:1022C00040E00E94350A81E0089560E071E042E05C
:1022D00050E028E030E03ECF1F93CF93DF9382E2BF
:1022E00060913B240E948A0983E260913C240E9411
:1022F0008A09C0E3D4E214E2812F69910E948A091D
:102300001F5F1C32C9F780E260913E240E948A0957
:1023100081E260913F240E948A0988E060E645E0FE
:1023200020913D240E94350A8FE26FE040E0209129
:102330004D240E94350A8EE268E043E02091492452
:102340000E94350A8FE260EF44E020914A240E9407
:10235000350A80913A240E949F1080912F240E9478
:102360007410682F85E00E948A09DF91CF911F9138
:102370000895FF920F931F93CF93DF93EB019091FA
:102380005924943009F417C18E3431F0893541F461
:10239000888180934E2413C18881809346240FC185
:1023A00020914F242F3011F481E80AC18B3009F4B9
:1023B000FBC08C3070F4823009F4BEC0833018F456
:1023C0008823E9F115C0833009F4C2C0843081F458
:1023D00089C0833521F1843528F48F3459F0803554
:1023E00039F40FC0873509F4A0C0803F09F4B9C0A3
:1023F00084EFE6C0288120934D248FE26FE040E017
:10240000ADC088819981682F80933B2490933C24B0
:1024100082E20E948A0983E260913C240DC0888197
:102420009981682F80933E2490933F2480E20E94FC
:102430008A0981E260913F240E948A09C0C09923E1
:1024400009F0B9C080913A242881853029F48FE0C1
:1024500090E0A0E0B0E004C08FEF97E0A0E0B0E033
:1024600004C0B695A795979587952A95D2F780FFD2
:10247000A4C01091482488818093482480914F24DF
:10248000883011F408E006C088E00E945D0B8830B7
:10249000D9F706E180913A2420914824853029F427
:1024A000220F255F83E16FEF06C0222341F0112345
:1024B00031F088E06FE140E00E94350A0CC00E94D4
:1024C0009F100E94041080912F240E947410682F86
:1024D00085E00E948A09083009F471C086E10E94F3
:1024E0005D0B6DC0992309F066C0283011F418E027
:1024F00006C088E00E945D0B8830D9F716E1F880AD
:102500008F2D0E949F10082F183019F086E10E942D
:102510005D0B002309F451C0F0923A240E9404108C
:1025200080912F240E94741010C0288120934A2487
:102530008FE260EF44E012C0888180932F240E94D4
:10254000041080912F240E947410682F85E074CFAE
:10255000288120933D2488E060E645E00E94350A0A
:102560002EC08881809330248981809331248A8190
:10257000809332248B81809333248C818093342404
:102580008D81809335248E81809336248F81809332
:102590003724C0E3D4E214E2812F69910E948A09B2
:1025A0001F5F1C32C9F70BC02881209349248EE29B
:1025B00068E043E0D3CF86E803C088EE01C080E046
:1025C000DF91CF911F910F91FF900895DF92EF92CD
:1025D000FF920F931F93DF93CF930F92CDB7DEB788
:1025E000D82E81E090E065E170E041E050E09E018E
:1025F0002F5F3F4F0E94A60300E416E088E0F80139
:1026000086838CE791E00E943104FF24F394F80163
:10261000F68281E090E00E943104F801F58210E03A
:1026200084E690E00E94310481E06FE140E00E9486
:10263000220A1A3011F485E83AC0883011F01F5F81
:10264000EFCF80934F2429812223D1F182E16FE0E3
:1026500040E00E94350A34C086E060E645E00E9412
:10266000220A9801220F331F220F331F082F10E078
:10267000022B132BF394F8E0FF1671F783E00E940E
:102680005D0B8FE00E94A909E0E4F6E081E0848719
:10269000E186C8010E947937DD2011F00E944210C6
:1026A0000E946C11109259241092402480E00F90E7
:1026B000CF91DF911F910F91FF90EF90DF900895E0
:1026C00083E060E344E020E00E94350A83E068E0B4
:1026D00043E020E00E94350A83E067E040E021E02B
:1026E0000E94350A8EE260E245E021E00E94350A50
:1026F0008CE060E847E021E00E94350A84E062E077
:1027000041E021E00E94350A8EE068E00E948A09DB
:1027100086E00E945D0BE0904906809149068C7F1F
:10272000E0E4F6E0818700E010E0FF2495CF1F93FE
:102730000E94E612882361F085E82DC081E494E2CE
:1027400060E070E00E941E0B009711F00E94540A96
:1027500080914524882391F780ED94E10E94BC028A
:10276000E0E4F6E081E08487809149068360818718
:102770000E947437682F192F8DE20E948A098EE219
:1027800067E040E0212F0E94350A80E00E94F514A6
:102790000E94E21480E01F910895FF920F931F930F
:1027A000CF93DF930E94FA03882309F0E9C0E0E4A5
:1027B000F6E081E0858388E086838AE491E00E94E8
:1027C000310410E0C0E4D6E0FF24F39401E00E836E
:1027D00081E090E00E943104FD821A3009F4D0C0FB
:1027E00084E690E00E9431048CE10E94A9098730C0
:1027F00011F01F5FECCF83E067E040E021E00E9432
:10280000350A82E063E00E948A0910E084E690E0E5
:102810000E94310481E06FE140E00E94220A1A30F8
:1028200009F4AEC0883011F01F5FF0CF80934F24C1
:1028300081E090E060E070E048E050E020E334E2C6
:102840000E94A60381E00E94E612882351F098C0FE
:10285000C0E3D4E20E947437899384E2C833D80776
:10286000C9F7809130243091312440913224609115
:10287000332470913424F0913524B0913624509152
:102880003724082F015091E0081708F090E0832FBB
:10289000815021E0831708F020E0192F180F91E0F4
:1028A000181708F090E0292B842F815031E084170D
:1028B00008F030E0A22FA80F91E0A81708F090E0F0
:1028C000392B862F815021E0861708F020E0E32F76
:1028D000E80F91E0E81708F090E0292B872F81504E
:1028E00031E0871708F030E0622F680F91E0681739
:1028F00008F090E0392B8F2F815021E08F1708F0DE
:1029000020E0432F480F91E0481708F090E0292B72
:102910008B2F815091E08B1708F090E0322F380F09
:1029200021E0381708F020E0922B5195591779F4DF
:102930003F3F69F44F3F59F46F3F49F4EF3F39F49B
:10294000AF3F29F41F3F19F40E3F08F081CF80ED0F
:1029500094E10E94BC02809149068360E0E4F6E0C5
:1029600081870E94630A8AE90E945C0A8093D823C7
:102970009093D92381E494E20E94820A80E001C00E
:1029800085E8DF91CF911F910F91FF9008958FE01F
:102990000E94A90984FF03C081E080935824089510
:1029A0008FE00E94A909282F83FF0BC08091592432
:1029B000813029F426FF80E00E94370E08950E949E
:1029C000E60D089580914F248F3011F082E808952C
:1029D00088E00E945D0B883011F085E8089581E061
:1029E00090E00E94080480E00895882311F088EEAA
:1029F000089580914F248F3011F481E808958091DB
:102A00005924882391F41092402488E00E945D0BA1
:102A10008830D9F780E090E00E9408048FE00E949F
:102A20005D0B8F3011F480E0089586E80895982FAB
:102A300080915924882311F086E80895983039F45C
:102A400088E00E945D0B1092402488E008958091F8
:102A5000D8239091D923892B29F086E10E945D0B20
:102A600086E0089581E08093402486E00895CF9326
:102A7000DF93DC019C9111962C91119780915A243F
:102A8000882321F4CD010E94540A1AC0E92FF22FA5
:102A90009F012F5F3F4F4DED54E288E0EA0109901E
:102AA000AE01E90109929E018150C1F78091E824AD
:102AB000818783E1808385EF94E2BD010E94890ACA
:102AC000DF91CF910895DC01ED91FC91119784E1A4
:102AD000808363834183528385EF94E2BD010E942A
:102AE000890A08950F931F93DF93CF930F920F924C
:102AF000CDB7DEB7A0917E24B0917F24ED91FC91FB
:102B0000119784E180838BEE83830FEF1FEF0183A6
:102B1000128385EF94E2BD010E94890A10926D2410
:102B200009831A8380E5BE016F5F7F4F0E94F12702
:102B30000093B4241093B5241092C2241092C3249D
:102B40001092C4241092C5241092C6241092C72457
:102B50001092C8241092C9240E9440260F900F9012
:102B6000CF91DF911F910F910895CF92DF92EF9255
:102B7000FF920F931F9380913A24909148248823C9
:102B8000D1F44091BE245091BF24992341F4BA015D
:102B900080E090E022E330E040E050E007C0BA017E
:102BA00080E090E029E130E040E050E00E94E6362D
:102BB0006B017C0118C04091BE245091BF24992321
:102BC00041F4BA0180E090E028E230E040E050E0DB
:102BD000EDCF6A01EE24FF2484E0CC0CDD1CEE1C5A
:102BE000FF1C8A95D1F780E061E040E020E030E012
:102BF00000E010E00E94601F8823A9F4A0917E24C9
:102C0000B0917F24ED91FC91119784E1808381EE56
:102C100083838FEF9FEF8183928385EF94E2BD01E1
:102C20000E94890A11C080E0B701A60120E030E0CF
:102C300002E715E1EE24FF240E943806882321F0E4
:102C400080E090E00E9472151F910F91FF90EF902D
:102C5000DF90CF900895FF920F931F93DF93CF9350
:102C60000F920F92CDB7DEB7F090EA240E94540A7B
:102C7000FF20B1F583E568EE74E20E94F127209110
:102C8000E8243091E9248091DD248093C22480914E
:102C9000DE248093C3248091DF248093C424809118
:102CA000E0248093C5248091E1248093C624809100
:102CB000E2248093C7248091E3248093C8248091E8
:102CC000E4248093C92481E08093F12410926D2440
:102CD00080917824833031F582E08093782422C07B
:102CE00010926D240FEF1FEF09831A8380E5BE0158
:102CF0006F5F7F4F0E94F1270093B4241093B52497
:102D00001092C2241092C3241092C4241092C5249D
:102D10001092C6241092C7241092C8241092C9247D
:102D20002FEF3FEFE0917E24F0917F24A081B181CD
:102D300084E18C931396FC92139711962D933C93F8
:102D4000129785EF94E2BF010E94890A0E944026F3
:102D50000F900F90CF91DF911F910F91FF900895E9
:102D60000F931F93DF93CF93CDB7DEB72C97CDBFD3
:102D7000DEBFAC01DE011196FC01808191819C01D6
:102D8000F9018CE001900D928150E1F7DA010D918B
:102D90001C918091F1248250823020F0CA010E945F
:102DA000540A56C082E0F8018083D801AC56BF4F68
:102DB000FD0181938A859B8511968D939C93129733
:102DC0008C8582839D0128503040D901E0E3F4E2F4
:102DD00088E001900D928150E1F7F90138979F0149
:102DE000BE016E5F7F4F88E0DB010D90BD01D90110
:102DF0000D929D018150C1F780913B2490913C241C
:102E0000929382938091792482938F5F8093792427
:102E100083E69CEC929382938BE18293D801179680
:102E2000ED93FC93189716961C928CE594E2BA01E8
:102E30000E94890A80917B2490917C24F8018483EC
:102E4000958381E00E945B04882311F40E9488230B
:102E50002C96CDBFDEBFCF91DF911F910F910895CA
:102E6000CF92DF92EF92FF921F93DF93CF93CDB774
:102E7000DEB72F97CDBFDEBFAC017C01DE0111961E
:102E8000FC01808191819C01F9018FE001900D92FC
:102E90008150E1F740937E2450937F248C818230CF
:102EA00019F48F8198851AC08F818093C2248885F8
:102EB0008093C32489858093C4248A858093C52404
:102EC0008B858093C6248C858093C7248D858093C1
:102ED000C8248E858093C9248EEF9FEF8093B424FD
:102EE0009093B52480E5BE016B5F7F4F0E94F12770
:102EF0000E941B26D701CD90DC9081E0F6018083F3
:102F0000E182F282EA56FF4F80838F8581839F01A1
:102F100028503040D901E0E3F4E288E001900D92BE
:102F20008150E1F7F9018FEF9FEF929382938C81AB
:102F3000823051F48091B4249091B524929382937D
:102F400045E123E238EC11C0F9013A979F0142ECC8
:102F500054E288E0DA010D90AD01D9010D929D0196
:102F60008150C1F74BE123E23CEC80913B249091EE
:102F70003C24929382938091792482938F5F8093F3
:102F80007924329322934293D6011796ED93FC93C2
:102F9000189784E0BE016D5F7F4F0E94F127182FC4
:102FA00080E0BE016E5F7F4F0E94F127112371F414
:102FB000882361F4C60162E070E041E00E94EA0EFD
:102FC000882321F481E08093F22412C0D701ED918F
:102FD000FC9184E1808381EE83838FEF9FEF818377
:102FE000928385EF94E2B7010E94890A0E944026ED
:102FF0002F96CDBFDEBFCF91DF911F91FF90EF9055
:10300000DF90CF900895FC018091E2238730F0F4A7
:10301000A781B08512968C911297869586958370BC
:103020008230A1F4E091E023F091E1233297E09324
:10303000E023F093E12316968D919C91179780835E
:1030400091838091E2238F5F8093E22380E0089553
:10305000FC018091E2238730F0F40780F085E02DB9
:1030600082818695869583708330A9F48091E023D0
:103070009091E12308978093E0239093E123DC0172
:10308000369688E001900D928150E1F78091E2231D
:103090008F5F8093E22380E008959F92AF92BF926A
:1030A000CF92DF92EF92FF920F931F93DF93CF9314
:1030B00000D00F92CDB7DEB7FB01A080B180D50163
:1030C00011966D937C9312978AE08C9378E9C72EC2
:1030D000D12CCA0CDB1C80917A24882319F46DE072
:1030E000962E0EC0482F50E0C41AD50A5DE0952EEA
:1030F000980E20E834E2C601B90150E00E948437FE
:1031000080916024882309F442C0C092E023D092C9
:10311000E1231092E22388E298E189839A838CE587
:1031200094E27E010894E11CF11CB7010E94240B7B
:103130000091E2231092E22383E098E189839A834D
:103140008CE594E2B7010E94240B2091E223E091E8
:10315000E023F091E123319710E0C80134E0880FBB
:10316000991F3A95E1F7822B8083000F111F000F02
:10317000111F020F111D000F111F0093E223900E6B
:10318000E02FF0E0E095F095EC0DFD1D02C0F6019A
:103190001292DF011E928091F124833019F42FEFF7
:1031A0003FE402C02FEF3FE080915A248111306844
:1031B000FD013293229380913E2490913F242FEF82
:1031C0008E3F920799F4FD013A9786E0980E9F0191
:1031D00040E354E288E0DA010D90AD01D9010D928F
:1031E0009D018150C1F720E030EC04C0929382939E
:1031F00020E030E880913B2490913C24929382938C
:103200008091772482938F5F8093772432932293E7
:103210009292D5011796ED93FC931897C50162E041
:1032200070E040E00E94EA0E81E08093F224249650
:10323000CDBFDEBFCF91DF911F910F91FF90EF9037
:10324000DF90CF90BF90AF909F900895BC0180E039
:103250000E944D180895FC010190F081E02D6281DB
:1032600073818181448125810E94E53608950F9301
:103270001F938C01DC01ED91FC9181810E9433024E
:10328000C8010E94540A1F910F9108950F931F9334
:103290008C01DC01ED91FC91818162810E946E02C2
:1032A000C8010E94540A1F910F910895AF92BF92D6
:1032B000CF92DF92EF920F931F935C01DC01ED91AF
:1032C000FC9104811581268137818181628143814E
:1032D000E08439966F010E944002C5010E94540AA1
:1032E0001F910F91EF90DF90CF90BF90AF90089516
:1032F0000F931F938C01DC01ED91FC9181810E9461
:10330000E436C8010E94540A1F910F9108950F934B
:103310001F938C01DC01ED91FC9181810E9455028B
:10332000C8010E94540A1F910F9108950F931F9393
:103330008C01DC01ED91FC9181810E94E336C80192
:103340000E94540A1F910F9108950F931F938C01AF
:10335000DC01ED91FC9121813281438154816581B1
:103360007681878190850E94E236C8010E94540AC6
:103370001F910F9108950F931F938C01DC01ED9124
:10338000FC91818162813396AF010E94E136C801D0
:103390000E94540A1F910F910895EF92FF920F938C
:1033A0007C01DC01ED91FC912181328143815481CA
:1033B000658176818781908501850E94E036C7010D
:1033C0000E94540A0F91FF90EF9008950F931F935E
:1033D000DF93CF93CDB7DEB72B97CDBFDEBF8C0188
:1033E000DC01ED91FC9182818983838194818A83C0
:1033F0009B839E012C5F3F4FAF014B5F5F4F88E087
:10340000DA010D90AD01D9010D929D018150C1F7F6
:103410008181BE016F5F7F4F0E94DF36C8010E942D
:10342000540A2B96CDBFDEBFCF91DF911F910F9134
:1034300008950F931F93DF93CF93CDB7DEB76697B1
:10344000CDBFDEBF8C01DC01ED91FC9181819281C9
:103450008A839B83838189839E012C5F3F4FAF01C9
:103460004C5F5F4F88E0DA010D90AD01D9010D92FC
:103470009D018150C1F7818192818D879E878485CE
:103480008C879E01215F3F4FAF01435F5F4F88E014
:10349000DA010D90AD01D9010D929D018150C1F766
:1034A000CE010196BE01645F7F4F45890E947C0179
:1034B000C8010E94540A6696CDBFDEBFCF91DF914E
:1034C0001F910F910895CF92DF92EF92FF920F9389
:1034D0006C01DC01ED91FC91BF016E5F7F4F24898F
:1034E0003589E788F08C8181438906890E94DE3620
:1034F000C6010E94540A0F91FF90EF90DF90CF9089
:103500000895EF92FF920F937C01DC01ED91FC9105
:1035100021813281438154816581768187819085C3
:1035200001850E94A001C7010E94540A0F91FF90DB
:10353000EF9008950F931F938C01DC01ED91FC91A6
:103540008181928163810E94DD36C8010E94540A04
:103550001F910F9108950F931F938C01DC01ED9142
:10356000FC91818162810E94DC36C8010E94540A6C
:103570001F910F9108950F931F938C01DC01ED9122
:10358000FC91818162810E94DB36C8010E94540A4D
:103590001F910F910895CF92DF92EF920F93DF93D7
:1035A000CF93CDB7DEB76697CDBFDEBF6C01DC0130
:1035B000ED91FC9181818983828193818A839B83B0
:1035C0009E012C5F3F4FAF014C5F5F4F88E0DA01F7
:1035D0000D90AD01D9010D929D018150C1F78485F7
:1035E0008C87858596858D879E879E01215F3F4FBD
:1035F000AF01415F5F4F88E0DA010D90AD01D90165
:103600000D929D018150C1F7228D338DCE0101961F
:10361000BE01645F7F4F418D0789E08C0E94840169
:10362000C6010E94540A6696CDBFDEBFCF91DF91DE
:103630000F91EF90DF90CF900895FC01108261818F
:1036400072816115710521F089EB94E20E94890A6B
:103650000895282F8091E8249091E92496FF1BC0BB
:10366000222359F42091DB243091DC2480913B24E7
:1036700090913C242817390759F02091DB24309190
:10368000DC248091B7249091B8242817390719F4C5
:103690008EEE0E940E3308950F931F93CF93DF9306
:1036A000282F8091E8249091E92496FFA3C022233B
:1036B00059F42091DB243091DC2480913B249091BB
:1036C0003C242817390761F02091DB243091DC2459
:1036D0008091B7249091B8242817390709F08AC03F
:1036E0002091DD243091DE248091B4249091B52482
:1036F0002817390709F47EC09091DD248091C224F7
:10370000981759F59091DE248091C324981729F5D4
:103710009091DF248091C4249817F9F49091E024CB
:103720008091C5249817C9F49091E1248091C62412
:10373000981799F49091E2248091C724981769F41E
:103740009091E3248091C824981739F49091E4244F
:103750008091C924981709F44DC08AE90E945C0A37
:103760008C01009709F446C0DC012D913C9185E065
:10377000F901808301831283E956FF4F8083AF01F3
:1037800048505040FA01A0E3B4E288E00D90019265
:103790008150E1F7FA013897EF01A2ECB4E288E03A
:1037A0000D9009928150E1F780913B2490913C2447
:1037B000929382938091792482938F5F809379246E
:1037C00083E69CEC9293829388E18293D9011796C9
:1037D000ED93FC931897C90162E070E041E00E940C
:1037E000EA0E882321F481E08093F22403C0C8010B
:1037F0000E94540ADF91CF911F910F9108950F936A
:103800001F93CF93DF93EC01E881F981A781B08505
:103810007C917093CD24FD01E70FF11D8181809390
:10382000E62411964D915C9112974093CA245093CF
:10383000CB2413968C9113978093CE248D010C5F2B
:103840001F4F652F6295669566956370352F369587
:103850003695337019F4F80120E049C014968D9123
:103860009C9115978093D0249093D124FD01369696
:103870003230E1F41092D2241092D3241092D42446
:103880001092D5241092D6241092D7241092D824C6
:103890001092D92416968D919C9117978093D224DB
:1038A0009093D324FD01389624E021C0333011F0E9
:1038B00022E01DC016968C9116978093D2248181A8
:1038C0008093D32482818093D42483818093D524D0
:1038D00084818093D62485818093D72486818093A8
:1038E000D82487818093D924FD013E962AE066235F
:1038F00009F447C046FD08C0819191918093DB2473
:103900009093DC242E5F08C08091D0249091D12424
:103910008093DB249093DC246230C1F41092DD2488
:103920001092DE241092DF241092E0241092E12401
:103930001092E2241092E3241092E4248081918179
:103940008093DD249093DE242E5F1BC06330C9F486
:1039500080818093DD2481818093DE248281809325
:10396000DF2483818093E02484818093E124858116
:103970008093E22486818093E32487818093E424EA
:10398000285F972F9550921B9093E7246093DA2439
:103990003093CF2443FDCEC1D801A20FB11D842F97
:1039A00087708093CC24833021F48C918093E5241C
:1039B00063C0813009F451C0813020F0833009F0B8
:1039C000B9C15AC08D919C9111978093E82490932E
:1039D000E92412968C9112978093EA24877011F44F
:1039E00093E002C0982F9C5FFD01E90FF11D8081DB
:1039F0008093EB24292F2F5F382F377090E080774A
:103A0000907044E0959587954A95E1F7482F3323C8
:103A100011F4882389F0CD01820F911D8093EC244D
:103A20009093ED24332311F0330F230F442321F01F
:103A3000440F440F440F240F8091E724281750F4BB
:103A4000821B8093EE24A20FB11DA093EF24B093AC
:103A5000F02474C11092EE2471C1992351F096376D
:103A600018F086E78093E724A093E824B093E92434
:103A700065C11092E72462C18091E5248330E1F0B2
:103A8000843030F48130C1F0823009F053C107C076
:103A9000883008F453C1883009F04CC112C0119627
:103AA0008D919C9112978093E8249093E92413962A
:103AB0008C918093EA2442C111968C918093E824E2
:103AC0003DC111968D919C9112978093E82490931B
:103AD000E92413968D919C9114978093EA249093F6
:103AE000EB2415968C9115978093EC2416968D9166
:103AF0009C9117978093ED249093EE2454FF1EC160
:103B000018968C918093EF2419C18091CC24833036
:103B100061F48091E524843011F0873031F489EB31
:103B200094E2BE010E94890A0FC180916D24813008
:103B300009F4EBC0813020F0843008F0FBC0A3C052
:103B400080917624882309F06AC09091F124933003
:103B500080F1933009F0EEC08091CC24813009F4DB
:103B6000E5C0813010F1833009F0E4C08091E52494
:103B7000843009F4AFC0853038F4813009F4A0C036
:103B8000833009F0D7C009C0863009F4AEC0863052
:103B900040F0873009F0CEC0B0C0CE010E94632152
:103BA000D3C08EEE0E940E33C5C080E00E94291B58
:103BB000C1C08091CC24813009F4B8C0813020F09C
:103BC000833009F0B7C00CC08091F424882309F435
:103BD000B1C0992309F4AEC080E00E944C1BAAC07A
:103BE0008091E524843009F475C0853038F4813043
:103BF00009F466C0833009F09DC004C0873009F025
:103C00005AC009C0CE010E9463218091F124813005
:103C100009F09AC05CC0923009F08CC06EC083304D
:103C200009F1843019F0823009F084C08091CC24ED
:103C3000882309F07FC08091F124833019F481E05A
:103C40000E94291B8091F424882341F08091F12463
:103C50008150823018F481E00E944C1BCE010E94FA
:103C6000172B72C08091CC24833009F063C08091FF
:103C7000E524883009F05EC082E00E942905CE016B
:103C80000E94672F61C00E94882A8091CC248130D5
:103C900009F44CC0833009F04DC08091E524843094
:103CA000C9F0853030F4813059F0833009F042C0DA
:103CB0000BC08730F1F0883021F18630D9F515C07E
:103CC000CE010E94371540C0CE010E9463210E94A0
:103CD0005D273AC080916024882321F0CE010E94A4
:103CE000232032C00E94051F25C0CE010E94BC27A0
:103CF0002BC08091F1248230E9F4CE010E94261974
:103D000023C0CE010E9453331FC08091CC24833046
:103D100059F48091E524823069F480E00E942905FD
:103D2000CE010E942B1610C0813021F4CE010E94DA
:103D3000BD230AC0CE010E94540A06C08091F2241D
:103D4000882309F0E2CEF1CEDF91CF911F910F9140
:103D50000895DB01FC018681882399F40780F085B2
:103D6000E02D8281869586958370823051F440E003
:103D70002D913C91868197812817390719F441E0EC
:103D800001C040E0842F0895DB01FC018681882377
:103D9000C9F50780F085E02D828186958695837030
:103DA000833081F520E09C918681981761F511960A
:103DB0009C9111978781981731F512969C911297D3
:103DC0008085981701F513969C9113978185981714
:103DD000D1F414969C91149782859817A1F41596A6
:103DE0009C9115978385981771F416969C91169758
:103DF0008485981741F417969C918585981719F436
:103E000021E001C020E0822F08950F931F93CF93EC
:103E1000DF938AE90E945C0A8C01009709F44BC089
:103E2000DC01CD91DC918CE0888309831A831E82AA
:103E3000FE01E856FF4F8091DA24833089F43897E9
:103E40009F014DED54E288E0DA010D90AD01D901FA
:103E50000D929D018150C1F721E03CE04FE009C087
:103E60008091DD249091DE249293829321E038E0CA
:103E700049E08091DB249091DC249293829380919D
:103E8000792482938F5F8093792432932293429393
:103E9000EF83F887F8018081918161E070E040E074
:103EA0000E94EA0E882321F481E08093F22403C06B
:103EB000C8010E94540ADF91CF911F910F9108957C
:103EC0006F927F929F92AF92BF92CF92DF92EF92CA
:103ED000FF920F931F93CF93DF93D82E962EC42E6D
:103EE000590138018AE90E945C0A7C01009709F4B3
:103EF0009BC0DC010D911C91DD2021F084E0F801D4
:103F0000808303C08BE0D8018C93F801E182F282B8
:103F1000E956FF4F84E0808320913E2430913F2476
:103F2000C9010296029710F0992069F03897EF01C5
:103F3000A0E3B4E288E00D9009928150E1F762E1DC
:103F400083E290EC05C0329322936CE083E290E828
:103F5000CC2061F020913B2430913C246216730602
:103F600029F06E5F3293229370E002C0806471E0AA
:103F700022E0C21641F4AC015860D5018D919C91AC
:103F80009293829328C0B3E0CB1661F4AC015C60DD
:103F900038976A5FEF01D50188E00D900992815052
:103FA000E1F719C02091B4243091B5244FEF2E3F92
:103FB000340729F0AC015860329322930CC0AC0155
:103FC0005C6038976A5FEF01A2ECB4E288E00D9084
:103FD00009928150E1F73297772339F080913B24A1
:103FE00090913C248083918302C060827182809191
:103FF000792482938F5F80937924529342936293C2
:10400000D8011796ED93FC931897C80162E070E011
:1040100041E00E94EA0E882321F481E08093F2249B
:1040200004C0C7010E94540A80E0DF91CF911F9124
:104030000F91FF90EF90DF90CF90BF90AF909F9047
:104040007F906F900895EF92FF920F931F93DF93ED
:10405000CF9300D00F92CDB7DEB70E94540A809163
:10406000F124823008F453C08091DA24823019F4AC
:1040700089EA9EE105C0833009F049C084EC9EE1E5
:1040800089839A838DED94E28B839C838CE594E203
:104090007E010894E11CF11CB7010E94240BDC0195
:1040A000009781F00D911C911197F80187819085FF
:1040B0002091DB243091DC24FC0184819581281738
:1040C000390719F00E94051F22C081E0F80186839C
:1040D000A183B2838CE594E2B7010E94240B892B63
:1040E00041F0D8011796ED91FC911897818180617C
:1040F0008183C80161E070E040E00E94EA0E8823FD
:1041000021F481E08093F22402C0F8011682249603
:10411000CDBFDEBFCF91DF911F910F91FF90EF9048
:104120000895EF92FF920F931F93CF93DF937C013B
:10413000E801DC01ED91FC9186E18083618342839B
:1041400023833483CF010596423069F415821682A9
:1041500017821086118612861386148688819981AB
:104160008583968307C0DC01F80188E001900D92F9
:104170008150E1F785EF94E2B7010E94890ADF914F
:10418000CF911F910F91FF90EF9008950F931F9380
:10419000DF93CF93CDB7DEB72897CDBFDEBFDC016D
:1041A000ED91FC91119719821A821B821C821D824B
:1041B0001E821F8218860780F085E02D4281469579
:1041C00046954370842F8250823080F486818983A3
:1041D00087818A8380858B8381858C8382858D838B
:1041E00083858E8384858F83858588878091F1245C
:1041F000833049F420913B2430913C248E010F5FA1
:104200001F4FCD0156C0823009F03FC0423051F4FB
:10421000268137818091B4249091B52428173907DD
:1042200059F533C0433041F596818091C2249817E7
:1042300019F597818091C3249817F1F490858091A6
:10424000C4249817C9F491858091C5249817A1F4C6
:1042500092858091C624981779F493858091C7241C
:10426000981751F494858091C824981729F495855E
:104270008091C924981749F020913B2430913C2427
:10428000CD018E010F5F1F4F14C080913E2490918D
:104290003F24029620913B2430913C24029728F43D
:1042A000CD0143E000E314E204C0CD0142E00EE39F
:1042B00014E20E9491202896CDBFDEBFCF91DF91FE
:1042C0001F910F910895CF93DF939C01FC01C08152
:1042D000D181FE0185E18193ADEDB4E288E00D90DE
:1042E00001928150E1F78091E824898785EF94E27B
:1042F000B9010E94890A1092C2241092C32410921C
:10430000C4241092C5241092C6241092C72410927F
:10431000C8241092C9248FEF9FEF8093B424909308
:10432000B524DF91CF910895EF92FF920F931F93E1
:10433000DF93CF93CDB7DEB72E97CDBFDEBF8C0115
:10434000DC01ED90FC90DE011196F7018EE001900A
:104350000D928150E1F7F7010183128383E080839E
:10436000EA56FF4F80838D85818338979F0140E314
:1043700054E288E0DA010D90AD01D9010D929D0162
:104380008150C1F78A81823031F48D819E81929370
:10439000829333E10FC038979F01AE014B5F5F4FAF
:1043A00088E0DA010D90AD01D9010D929D01815097
:1043B000C1F739E180913B2490913C249293829300
:1043C0008091792482938F5F809379242A81922F20
:1043D000990F990F80E08366906C92938293329349
:1043E000D7011796ED93FC93189716961C9280911F
:1043F000F1248250823008F060C08E85882309F451
:104400005CC08A818230D1F48D818B3409F041C047
:104410008E818823F1F58F818823D9F588858823BB
:10442000C1F589858823A9F58A85882391F58B852F
:10443000882379F58C85882361F55BC0833009F08A
:1044400058C09D818091C224981719F59E81809152
:10445000C3249817F1F49F818091C4249817C9F45C
:1044600098858091C5249817A1F499858091C624D8
:10447000981779F49A858091C724981751F49B85F1
:104480008091C824981729F49C858091C924981795
:1044900081F18CE594E2B8010E94890A80917B2425
:1044A00090917C24F7018483958381E00E945B04D2
:1044B0008823F9F40E9488231CC00E941B26D8017F
:1044C0008D919C9162E070E041E00E94EA0E8823A9
:1044D00021F481E08093F2240CC02B813C81C8013F
:1044E00061EE4A818E010B5F1F4F0E9491200E9456
:1044F00040262E96CDBFDEBFCF91DF911F910F9149
:10450000FF90EF900895DC01ED91FC911197E0810F
:10451000E43278F4F0E0EE0FFF1FEA5CFD4F2591E6
:1045200034912115310519F0F901199508950E946A
:10453000540A08951F938091F224882381F4809176
:104540007524882361F081E794E260E070E00E94C6
:104550001E0B009721F00E94832211E001C010E0A1
:104560008091BD24882359F089EB94E260E070E0EB
:104570000E941E0B009719F00E94832211E0812FE8
:104580001F910895FC018681882329F484819581F7
:1045900001978483958380E00895FC0186818823B8
:1045A00011F020E006C020E084819581892B09F478
:1045B00021E0822F0895FB0120E0DC0113969C91FD
:1045C0008081981709F421E0822F0895DC01ED9194
:1045D000FC91119780E180834183628385EF94E2AF
:1045E000BD010E94890A0895EF92FF920F931F93D5
:1045F000DF93CF93CDB7DEB72597CDBFDEBF7C016C
:10460000FC0100811181F801918182E1808399830D
:104610008BED92E28A839B83CE0101968C839D83EE
:104620008CE594E2BE016E5F7F4F0E941E0B0097E7
:1046300029F00E94540AF801128203C087EEF801A3
:10464000828385EF94E2B7010E94890A2596CDBF47
:10465000DEBFCF91DF911F910F91FF90EF900895F2
:10466000FF920F931F93DF93CF9300D00F92CDB79C
:10467000DEB782EC92E289839A838CE594E28E0124
:104680000F5F1F4FB8010E94240B8DEC92E28983CB
:104690009A83F02E012F10E18CE594E26F2D702F9C
:1046A0000E941E0BDC01009721F19C9111962C9128
:1046B0001197E92FF22F8081833049F08D3061F01E
:1046C000823051F780EFBD010E944B26E5CFCD012E
:1046D00060EF0E94C620E0CF8381E92FF22F108384
:1046E000818380EF828385EF94E2BD010E94890A75
:1046F000D3CF80916024882311F00E9488232496D0
:10470000CDBFDEBFCF91DF911F910F91FF90089534
:10471000EF92FF920F931F9380913A249091482437
:10472000882361F4992329F040E05EEE62E070E0B6
:1047300010C040E05CED65E070E00BC0992329F00B
:1047400040E050EE61E070E004C040E050EB64E017
:1047500070E081E020E030E000E313E2EE24FF248B
:104760000E943806882321F080E090E00E943023E8
:104770001F910F91FF90EF9008950F931F93DF9378
:10478000CF93CDB7DEB72897CDBFDEBFAC01DC013C
:104790009C9111962C918091E724882321F4CA01E1
:1047A0000E94540A13C1E92FF22F8091CE24808FEA
:1047B0002091DA2421838091DB249091DC24828370
:1047C0009383822F8250823010F5148215821682D4
:1047D00017821086118612861386223039F4809152
:1047E000DD249091DE24848395831BC02330C9F49B
:1047F0009F012C5F3F4F6DED74E288E0DB010D906F
:10480000BD01D9010D929D018150C1F70AC01282EC
:1048100013821482158216821782108611861286E0
:104820001386208D80915B24281761F594818091F7
:104830006324981739F5958180916424981711F5B0
:104840009681809165249817E9F497818091662478
:104850009817C1F4908580916724981799F49185F1
:1048600080916824981771F4928580916924981733
:1048700049F4938580916A24981721F4CA010E9413
:10488000540A5AC020935B248481809363248581D9
:104890008093642486818093652487818093662435
:1048A00080858093672481858093682482858093A6
:1048B0006924838580936A242091CF2424871786D6
:1048C000108A118A128A138A148A158A168A80918C
:1048D000D0249091D12485879687233079F49F0145
:1048E000215F3F4F62ED74E288E0DB010D90BD0176
:1048F000D9010D929D018150C1F70BC0223039F4CE
:104900008091D2249091D3248787908B02C0158602
:1049100016868091E624878B8091E724818F809191
:10492000E8249091E924828F938F81E1808385EF41
:1049300094E2BA010E94890A8091CA2484FF46C089
:104940008091F124833009F443C08091DA248230CD
:1049500071F48091DD249091DE2489839A83009103
:10496000DB241091DC2480E060E042E021C0833051
:1049700019F58091DD2489838091DE248A838091DA
:10498000DF248B838091E0248C838091E1248D83CC
:104990008091E2248E838091E3248F838091E424AC
:1049A00088870091DB241091DC2480E060E043E004
:1049B0009E012F5F3F4F07C080E060E040E020E0B5
:1049C00030E000E010E00E94601F02C00E9440261C
:1049D0002896CDBFDEBFCF91DF911F910F91089533
:1049E000CF92DF92EF92FF920F931F93DF93CF93BB
:1049F000CDB7DEB76297CDBFDEBF8C01DE01119669
:104A0000FC01808191819C01F90182E101900D926C
:104A10008150E1F78F8582FD11C080916D2488233C
:104A200021F480917624882349F09E85D801ED9168
:104A3000FC9180E18083918381EEAEC0F801E0803B
:104A4000F1808DE0D7018C938E8513968C9313970C
:104A500016961C92888945E0D42ED80EE8E9F0E03D
:104A6000E81BF109EE0DFF1D9A81923051F437E0F9
:104A7000D32ED80E80913E2490913F24929382931E
:104A800012C0933081F438972DE0D22ED80E9F01BA
:104A900040E354E288E0DA010D90AD01D9010D92B6
:104AA0009D018150C1F720913B2430913C248C81A1
:104AB0009D812817390749F48A81882331F08B8139
:104AC000882319F040E450E009C08A81882321F04E
:104AD000B2E0DB0E3293229340E050E08B818823DA
:104AE00011F1823039F46D2D6E5F8E819F8192932A
:104AF000829312C038976D2D685F9F0196E0C92E92
:104B0000D12CCC0EDD1E88E0D6010D906D01D901AF
:104B10000D929D018150C1F782E0D82ED60E8C8176
:104B20009D81929382938091792482938F5F809369
:104B30007924BA0161608F8580FF02C0BA01616289
:104B40008889873608F070618B81382F330F330FD7
:104B500020E04A81942F9295990F990F907C80E0E4
:104B6000282B392B262B372B329322933296D7FCC6
:104B70000BC03397D082D7011796ED93FC9318970B
:104B80008F8582FD10C028C09E85D801ED91FC91D3
:104B900080E18083918385EE828385EF94E2B80182
:104BA0000E94890A3CC08091F12482508230A0F496
:104BB0008CE594E2B8010E94890A80917B2490914F
:104BC0007C24F7018483958381E00E945B04882321
:104BD00031F50E94882323C00E941B26D70111961D
:104BE0000D931C931297C70162E070E041E00E94B0
:104BF000EA0E882321F481E08093F22410C09E8580
:104C0000D801ED91FC9180E18083918381EE8283D4
:104C100085EF94E2B8010E94890A0E9440266296BC
:104C2000CDBFDEBFCF91DF911F910F91FF90EF902D
:104C3000DF90CF9008958091F324813051F40E9449
:104C4000E214853831F081E090E00E94080410926F
:104C5000F32408958091F324882389F480E090E080
:104C60000E94080480E00E94F514882321F481E06A
:104C70008093F324089581E090E00E940804089551
:104C800080916124882331F48091B624882311F423
:104C90000E942A260895DF93CF93CDB7DEB72897D9
:104CA000CDBFDEBF482F9B01DB01ED91FC9107805A
:104CB000F085E02DDE011196369688E001900D9288
:104CC0008150E1F7D901ED91FC918CE180838091D5
:104CD0003B2490913C248183928393E09383809141
:104CE000302484838091312485838091322486838B
:104CF0008091332487838091342480878091352468
:104D00008187809136248287809137248387948796
:104D1000898185878A8186878B8187878C81808B33
:104D20008D81818B8E81828B8F81838B8885848B13
:104D3000458B85EF94E2B9010E94890A2896CDBF80
:104D4000DEBFCF91DF9108950F931F93182F10921C
:104D5000F2241092F1241092F324109276241092EF
:104D6000782410926D2410925B248FEF809363243B
:104D700080936424809365248093662480936724C1
:104D8000809368248093692480936A241092B624C7
:104D900088E00E9417150FB7F89480E00E9429055B
:104DA00081E00E94290582E00E94290583E00E949B
:104DB00029050FBF112309F440C01092F42480EE9E
:104DC0009AE080936F249093702480E098E780931A
:104DD000BE249093BF2410926C2410925A241092F7
:104DE0007A240E9474378093772484EF91E0809333
:104DF0007B2490937C2481E080936E2486E08093D2
:104E000062241092C2241092C3241092C4241092DF
:104E1000C5241092C6241092C7241092C824109260
:104E2000C9248FEF9FEF8093B4249093B5240E9400
:104E3000743780937924109261241F910F91089503
:104E40000F931F93CF93DF93EC01088119810E9488
:104E50001B26F801018180E090E00E94080480E0B8
:104E6000011181E00E949713182F81E090E00E94C9
:104E70000804802F0E94A4260E94402681E794E225
:104E80000E942A0B89EB94E20E942A0B85EF94E2A0
:104E90000E942A0B8CE594E20E942A0BE881F9819A
:104EA000118380E2808385EF94E2BE010E94890A2B
:104EB000DF91CF911F910F910895DF93CF9300D091
:104EC0000F92CDB7DEB70E941B268FEF9FEF89832D
:104ED0009A838B839C8383E5BE016F5F7F4F0E9423
:104EE000F12780E5BE016D5F7F4F0E94F12781E0D1
:104EF0000E94A4260E9440262496CDBFDEBFCF91FB
:104F0000DF9108950E94CD138823B9F40E94EB0726
:104F1000882399F081E00E94A4260E94402681E720
:104F200094E20E94820A89EB94E20E94820A8CE554
:104F300094E20E94820A80E0089585E80895FF9235
:104F40000F931F93182FF92E40913B2450913C242E
:104F500089E0612F792F2091482400913A240E9402
:104F60008833882329F481EE612F7F2D0E944B2600
:104F70001F910F91FF900895CF93DF93EC01E8818B
:104F8000F9818AE18193ADEDB4E288E00D90019260
:104F90008150E1F785EF94E2BE010E94890ADF911A
:104FA000CF910895E82F853419F480917A240895DB
:104FB000883030F4E82FF0E0E258FD4F84910895F6
:104FC0008054803228F4F0E0EA5BFD4F849108952C
:104FD000E03F10F480E00895F0E0EA54FE4F849141
:104FE00008951F93CF93DF93182FEB018091F32443
:104FF000813051F40E941B26812FBE010E94B911FD
:10500000182F0E94402604C0812F0E94B911182F2A
:10501000812FDF91CF911F9108950F931F93CF930D
:10502000DF938C01FC01C081D181BE016D5F7F4F98
:1050300089818B3409F4A4C08C3478F5863009F466
:1050400075C0873098F4823009F4D0C0833038F4CA
:10505000882309F4BBC0813009F048C0BAC084304D
:1050600009F45CC0853008F05CC0C3C0853409F425
:1050700069C0863448F4813409F461C0823409F48B
:105080005BC0873099F555C0893409F468C08A340B
:1050900008F06DC0863451F55FC0853509F462C0F3
:1050A0008635A0F48F3409F476C0803530F48C3422
:1050B00009F46BC08E34D1F46BC0823509F473C02F
:1050C000833509F473C0803589F468C08935D9F017
:1050D0008A3528F4873579F0883580F409C08D3514
:1050E000D1F0803F09F469C08A3581F094EF85C022
:1050F0008091F42480C080914A247DC080916F24E7
:105100009091702457C080914E2475C08091BE2428
:105110009091BF244FC080916C246DC080913A243F
:105120006AC0809138249091392444C080915024E1
:1051300062C0809147245FC080916E245CC08091E2
:105140005A2459C040917A2420E834E2CB01B901B5
:1051500050E00E94843750C080917A244CC08091E6
:10516000772449C080917B2490917C2423C0DB016B
:10517000E2ECF4E288E001900D928150E1F73CC04E
:105180008091B4249091B52415C08091792433C0C6
:105190008091462430C080914D242DC080913B24C5
:1051A00090913C2407C08091612425C080913E24C9
:1051B00090913F248B839C831FC0DB01E0E3F4E2EA
:1051C00088E001900D928150E1F716C0809148244B
:1051D00012C08091542490915524A0915624B091EE
:1051E00057248B839C83AD83BE8306C080912F247C
:1051F00002C080913D248B8390E089818A838EE177
:105200008883998385EF94E2B8010E94890ADF912F
:10521000CF911F910F910895FF920F931F93CF93FA
:10522000DF93182FEB01F42E8B3409F49BC08C34E0
:1052300040F5833409F4B1C0843478F4853038F40F
:10524000823008F0AAC0882309F4A7C03EC0813488
:1052500009F453C08234C9F548C0863409F45AC0F1
:10526000873430F4843409F444C0853471F549C07E
:10527000893409F453C08A3408F05BC0873429F5B7
:105280008CC0853509F44EC0863570F4813530F414
:105290008E3408F082C08C34C1F46BC0823509F4BE
:1052A0006CC0823590F079C08835A9F0893528F432
:1052B000863569F0873549F470C08A3579F08A35CA
:1052C00008F46BC0803F09F468C004EFD4C0888143
:1052D0008093F424CFC088819981C8C08881998146
:1052E0008093BE249093BF24C5C0888180936E2490
:1052F000C1C0888180936224BDC0888180935A2474
:10530000B9C020E834E240917A24C90150E00E94FB
:105310008437B0C0888180937A24ACC08881809320
:105320007724A8C08881998180937B2490937C24E2
:10533000A1C088818093C22489818093C3248A81FB
:105340008093C4248B818093C5248C818093C62450
:105350008D818093C7248E818093C8248F81809310
:10536000C92488C0888199818093B4249093B524FE
:1053700081C08881809379247DC06881611161E05A
:1053800060936124662331F00E941B2686E00E9410
:10539000171570C00E9440266DC0812FBE010E946B
:1053A000B911082F813871F40E94E214812FBE01D7
:1053B0000E94B911082F882309F05DC081E0809315
:1053C000E32303C0882309F056C080914624282F88
:1053D00030E080914A24482F50E060914D24CA016A
:1053E000861B9109281739070CF4C901A82F281B1F
:1053F000310981E090E002C0880F991F4A95E2F7D9
:105400000197289FA001299F500D389F500D11240E
:1054100020E030E070E0E1E0F0E00DC0C901860F6F
:10542000971FEF0102C0CC0FDD1F8A95E2F74C0FEA
:105430005D1F2F5F3F4F2A1788F384E190E0489F5C
:10544000B001499F700D589F700D112480913A242E
:10545000882319F540E054E028E030E080E290E055
:10546000820F931F840F951F860F971F80936F24C1
:105470009093702400E0FF2049F08091E32388237B
:1054800029F080E00E94F5141092E323802FDF9131
:10549000CF911F910F91FF90089540E051E022E0DD
:1054A00030E088E090E0DCCFEF92FF920F931F9303
:1054B0007C01FC0100811181B8016E5F7F4FF80112
:1054C000818141E00E940C29F801918192839FE142
:1054D0009083818385EF94E2B7010E94890A1F912E
:1054E0000F91FF90EF900895CF93DF93EC01E88147
:1054F000F98183E280836183662311F00E94402654
:1055000085EF94E2BE010E94890ADF91CF91089550
:105510008091CC248823E1F080E00E9429058091CD
:10552000CC24813031F48091E724882311F060E0AD
:1055300001C06BEE80916D24823031F480917E2425
:1055400090917F240E94742A1092F22410926D246C
:10555000089580916D24823039F480917E24909159
:105560007F246BEE0E94742A10926D241092F22414
:105570000895CF92DF92EF92FF920F931F93DF93E4
:10558000CF93CDB7DEB72897CDBFDEBFD82EC92EBB
:1055900080916D248823D1F58091F1248330B1F17D
:1055A00080917624882391F50E941B26ED2CFC2CFB
:1055B000D701ED91FC9181819F012C5F3F4F82309B
:1055C00031F48481958189839A8342E00DC0AE01D4
:1055D0004F5F5F4F88E0D9010D909D01DA010D9278
:1055E000AD018150C1F743E00281138181E060E0A9
:1055F0009E012F5F3F4F0E94601F882329F0D092A9
:105600007E24C0927F2407C0C70102C08D2D9C2D2F
:1056100061EE0E94742A2896CDBFDEBFCF91DF9144
:105620001F910F91FF90EF90DF90CF9008955F92C0
:105630006F927F928F929F92AF92BF92CF92DF92A2
:10564000EF92FF920F931F93DF93CF93CDB7DEB707
:105650006197CDBFDEBFBC0140917624423011F08E
:10566000443069F480916E24882349F0E0917E24CF
:10567000F0917F2420813181D901199604C0A0E0E6
:10568000B0E020E030E05091DA2459830091DB242F
:105690001091DC240A831B83523069F41E821F821E
:1056A000188619861A861B868091DD249091DE2447
:1056B0008C839D8318C08091DD248C838091DE24AF
:1056C0008D838091DF248E838091E0248F8380916D
:1056D000E12488878091E22489878091E3248A8766
:1056E0008091E4248B87909048249C86B0903A2443
:1056F000BD868091E8249091E9248E879F87188A3F
:105700008091EA2487FF02C081E0888B8091E624A3
:10571000898B423019F0443009F06FC080916E24BB
:10572000882309F46AC0F901F084EC81FD815C8072
:105730006D807E808F80A884C984DA84EB8440E009
:1057400049C011968D919C9112970817190709F07D
:105750003FC08C915817E1F51B968C911B979816BA
:10576000B9F51C968C911C97B81691F5523041F4FE
:1057700013968D919C911497E817F90749F53DC050
:1057800013968C911397851519F514968C9114978F
:105790008615F1F415968C9115978715C9F4169610
:1057A0008C9116978815A1F417968C9117978A15E6
:1057B00079F418968C9118978C1551F419968C9150
:1057C00019978D1529F41A968C911A978E15A9F0B0
:1057D0004F5F51964F1508F4B4CF59C0FD01DE015B
:1057E000119681E10D9001928150E1F7D90118964F
:1057F0008C9118978F5F18968C939091EB248091E1
:10580000EE24882321F480916E248823E1F5DB01C6
:10581000ED91FC9187E180838091CE2481839F016B
:105820002E5F3F4FAE014F5F5F4F81E1DA010D9078
:10583000AD01D9010D929D018150C1F78091EB24FA
:10584000838B892F877059F4892F90E0807790702F
:1058500024E0959587952A95E1F7882331F080918A
:10586000EC249091ED24848B958B8091EE24868B93
:105870008091EF249091F024878B908F85EF94E2B4
:105880000E94890A09C0CB010E94540A05C0E4E0C5
:10589000EF1508F4B2CFA2CF6196CDBFDEBFCF9196
:1058A000DF911F910F91FF90EF90DF90CF90BF900D
:1058B000AF909F908F907F906F905F900895FB01C5
:1058C00040E0208131812817390709F441E0842F15
:1058D0000895EF92FF920F931F93DF93CF9300D021
:1058E0000F92CDB7DEB7F82E8B011092F224809183
:1058F0007624823029F4FB018081873059F406C078
:10590000833041F4FB018081863021F48F2D0E9489
:10591000C73174C1F8018081883009F461C18930D0
:1059200098F4833009F445C0843038F4813009F4A8
:1059300068C0823009F060C12CC1843009F4B4C061
:10594000853009F059C143C18B3009F4ADC08C30AA
:1059500038F4893009F434C18A3009F04DC147C1A7
:105960008C3009F444C18D3009F046C1F8018681BC
:105970008823B9F01682FF2021F0F7E8FF1609F01E
:105980003BC18FE59CE289839A83F80181819281F2
:105990008B839C838CE594E2BE016F5F7F4F0E94F6
:1059A0001E0BF801818192816F2D43810E94E622B6
:1059B00023C1F80186818823B1F01682FF2019F0F7
:1059C000F7E8FF16B1F48FE59CE289839A83F8012A
:1059D000818192818B839C838CE594E2BE016F5F11
:1059E0007F4F0E941E0BF801818192816F2D0E94D2
:1059F000C6208091F124813009F0FEC00E945D270D
:105A0000FBC0F9EEFF1619F091EEF91649F4F80112
:105A1000818192816F2D4FEF5FEF0E946315ECC083
:105A200080936D248091BE249091BF24AC0160E0EE
:105A300070E080913A24909148248823A1F499231E
:105A400039F4CB01BA0122E330E040E050E006C077
:105A5000CB01BA0129E130E040E050E00E94E63697
:105A6000AB01BC0110C0992339F4CB01BA0128E283
:105A700030E040E050E0F2CF94E0440F551F661F45
:105A8000771F9A95D1F780E020E030E005EB15E133
:105A9000EE24FF240E943806882309F4AFC080E07A
:105AA00090E00E94B515AAC0F801818192810E9400
:105AB000540A80916D24813009F4A0C0F8018081DE
:105AC0008430C1F4F7E8FF1699F0E0917E24F0915C
:105AD0007F240190F081E02D83E28083F182609148
