S01D000050726F6D697363756F75735F4D6F64655F44656D6F2E7372656396
S11300000C944E010C946F010C9484050C94AF0570
S11300100C946F010C946F010C946F010C946F019C
S11300200C946F010C946F010C946F010C946F018C
S11300300C946F010C946F010C94250A0C946F01BD
S11300400C94560A0C946F010C946F010C946F017C
S11300500C946F010C946F010C946F010C946F015C
S11300600C946F010C946F010C946F010C946F014C
S11300700C946F010C946F010C946F010C946F013C
S11300800C946F010C946F010C94150C0C946F017B
S11300900C946F010C946F010C946F010C946F011C
S11300A00C946F010C946F010C946F010C946F010C
S11300B00C946F010C946F010C946F010C946F01FC
S11300C00C946F010C946F010C946F010C946F01EC
S11300D00C946F010C946F010C946F010C946F01DC
S11300E00C946F010C946F010C946F010C946F01CC
S11300F00C946F010C946F010C946F010C946F01BC
S11301000C946F010C946F010C946F010C946F01AB
S11301100C946F010C946F010C946F010C946F019B
S11301200C946F010C946F010C946F010C946F018B
S11301300C946F010C946F010C946F010C946F017B
S11301400C946F010C946F010C946F010C946F016B
S11301500C946F010C946F010C946F010C946F015B
S11301600C94F5040C946F010C9421050C946F010C
S11301700C946F010C946F010C946F010C946F013B
S11301800C946F010C946F010C946F010C946F012B
S11301900C946F010C946F010C946F010C946F011B
S11301A00C946F010C946F010C946F010C946F010B
S11301B00C946F010C946F010C946F010C946F01FB
S11301C00C946F010C946F010C946F010C946F01EB
S11301D00C946F010C946F010C946F010C946F01DB
S11301E00C946F010C946F01E7E7E7E7E7E7E8E9B0
S11301F0EACAAAAB4525030405060708090AE7E786
S1130200E7E7E7E7E8E9EACBABACAD482706070840
S1130210090A0B0CC0A1818283606141422223023E
S1130220030405060708090A0B0C9F1C8B19000020
S11302307522000051201026000030264B24262A67
S11302400B2D00000000532700006E1B821B0000D2
S113025000005D1BF31A0C1B3F1B00000000000094
S1130260921A0000761AE11A821AC31AB41A00000C
S1130270D21A01040101010201010101010101017C
S1130280010104010802010101010201010201024C
S113029001010201020201010101080011241FBE33
S11302A0CFEFDFE5DEBFCDBF00E00CBF11E2A0E081
S11302B0B0E2E2E2FDE600E00BBF02C007900D925F
S11302C0A83BB107D9F715E2A8EBB1E201C01D9232
S11302D0A836B107E1F70E949C030C948F360C9466
S11302E000007F928F929F92AF92BF92CF92DF9243
S11302F0EF92FF920F931F93DF93CF93CDB7DEB7A7
S11303002597CDBFDEBF742E4901702F6E2DE0906E
S1130310B821F090B9210091BA211091BB21089421
S1130320E11CF11C011D111DE092B821F092B921CC
S11303300093BA211093BB21F9014191519140934B
S1130340BC215093BD21842F87708093BE2170926D
S1130350BF21252F2695269523702093C121352F63
S113036032953695369533703093CC21222371F132
S1130370D40112968D919C9113978093C2219093EE
S1130380C3213296223039F4819191918093C42112
S11303909093C5211BC02330C9F480818093C4216C
S11303A081818093C52182818093C621838180933A
S11303B0C72184818093C82185818093C921868146
S11303C08093CA2187818093CB213896332389F186
S11303D046FD03C08191919104C08091C221909106
S11303E0C3218093CD219093CE21323039F4819171
S11303F091918093CF219093D0211BC03330C9F4C5
S113040080818093CF2181818093D02182818093C8
S1130410D12183818093D22184818093D3218581CA
S11304208093D42186818093D52187818093D6219E
S113043038966093C021872D880D8E1B8093DC2114
S11304407093D721A092D821B092D921C092DA21F9
S1130450D092DB21E093DD21F093DE2100D000D0A7
S113046080E090E2EDB7FEB781839283ADB7BEB76B
S11304701396ED92FD920D931C9316970E943A32B7
S1130480EDB7FEB73696EDBFFEBF8091BE21813039
S1130490F1F0813028F08230F9F0833059F521C031
S11304A00F920F928AE090E2ADB7BEB711968D938A
S11304B09C9312970E943A320F900F9064018E0120
S11304C00F5F1F4F86E3E82E80E2F82E38C00F92AC
S11304D00F9283E190E209C00F920F928AE190E2B9
S11304E0E3CF0F920F9280E290E2EDB7FEB78183E3
S11304F09283E0CF0F920F9286E290E2D5CF00D0A4
S113050000D0EDB7FEB73196ADB7BEB711960D93D7
S11305101C931297E282F382D6018D916D0184833C
S113052015820E9481320F900F900F900F90EDB7BB
S1130530FEB7018312830E943A320F900F908C2DE4
S113054088198715E0F28CE390E20E944C322596DC
S1130550CDBFDEBFCF91DF911F910F91FF90EF9040
S1130560DF90CF90BF90AF909F908F907F90089531
S1130570EF92FF920F931F93DF93CF9300D0CDB7E9
S1130580DEB7882309F050C0643031F41092DF21C3
S113059084E06FED71E246C0662309F045C000D0E7
S11305A00F92EDB7FEB731968EE390E2ADB7BEB7CA
S11305B011968D939C931297DA018C918283138206
S11305C00E943A32DE011196EBEAF1E283E00190F7
S11305D00D928150E1F70F900F900F900F9086E5E8
S11305E090E20E944C328E010F5F1F4F94E0E92E7F
S11305F0F12CEC0EFD1E80E090E00E940104982F87
S113060080538A3030F4F80191938F01EE15FF0581
S113061091F7CE0101960E94A9316093E02180E018
S113062060EE71E20E9493302396CDBFDEBFCF917E
S1130630DF911F910F91FF90EF900895DF93CF9377
S11306400F92CDB7DEB7882309F04EC06430D9F4D9
S113065000D00F92EDB7FEB7319683E890E2ADB7C4
S1130660BEB711968D939C9312978091DF2182835C
S113067013820E943A320F900F900F900F9080E0F7
S11306800E94962F4BC06623D9F400D00F92EDB789
S1130690FEB731968EE390E2ADB7BEB711968D9357
S11306A09C9312978091E021828313820E943A32B4
S11306B081E089830F900F900F900F9082E509C01D
S11306C0623569F480EA90E20E944C3281E08983C9
S11306D081E5BE016F5F7F4F0E9493301FC061357B
S11306E019F484EB90E218C00F920F9280ED90E21F
S11306F0EDB7FEB7818392830E943A3282EF90E293
S1130700ADB7BEB711968D939C9312970E943A325F
S11307100F900F908CE091E20E944C320F90CF9199
S1130720DF910895882321F484E00E94962F089590
S113073081E00E94AE2F08950E94D530882311F0E5
S11307400E9458060E94B40B789480E00E946005D1
S1130750882311F00E9458068AE194E061E074E075
S11307600E94EE3180E090E00E94010481E00E944A
S1130770AE2F87E291E20E944C320F920F9289E6EB
S113078091E2EDB7FEB7818392830E943A328DE8FD
S113079091E2EDB7FEB7818392830E943A3287E9F2
S11307A091E2EDB7FEB7818392830E943A328BE9DE
S11307B091E2EDB7FEB7818392830E943A320F90A3
S11307C00F9088EA91E20E944C320E94BF30FDCF24
S11307D0DF93CF930F92CDB7DEB780E0BE016F5F9A
S11307E07F4F41E00E944E05813019F02FEF3FEF1B
S11307F003C08981282F30E0C9010F90CF91DF9188
S113080008950F931F93DF93CF930F92CDB7DEB765
S11308108E010F5F1F4F80E0B80141E00E944E053A
S11308208823C9F3898190E00F90CF91DF911F91C4
S11308300F9108950F931F93DF93CF930F92CDB72A
S1130840DEB789838A3071F48DE089838E010F5F6E
S11308501F4F80E0B80141E00E9457058823C9F387
S11308608AE089838E010F5F1F4F80E0B80141E069
S11308700E9457058823C9F380E090E00F90CF9140
S1130880DF911F910F9108959B01AC016050774F48
S1130890824C9F4FF2E0660F771F881F991FFA95CD
S11308A0D1F7E3E0220F331F441F551FEA95D1F718
S11308B00E941C3121503040E0E6F6E088E081835C
S11308C084E08283E0EAF9E0378326838CE1848341
S11308D083E085838CE383830895DC018091A309FD
S11308E0837FE0EAF9E0838320919124809192242C
S11308F0821730F0275F922F981B892F295005C04B
S11309002150922F981B892F2F5F482F681708F4C6
S1130910462F342F12C090919224E92FF0E0E3582F
S1130920FB4D8C918083993019F41092922403C06A
S11309309F5F9093922431501196332361F78091F5
S11309409524882351F4E22FF0E0E358FB4D808195
S11309508093A00981E0809395248091A3098C6001
S1130960E0EAF9E08383842F0895DC012091962442
S1130970222311F480E008958091A3098F7CE0EA9A
S1130980F9E083832A3058F080919424809393244F
S11309908AE0809396246A3020F02AE003C0261768
S11309A008F0262F322F17C0E0919324F0E0E3588B
S11309B0FB4D82858C93909193249F5F9093932415
S11309C0809196248150809396249A3011F4109249
S11309D0932411963150332339F78091A30980630E
S11309E0E0EAF9E08383822F08951F920F920FB6F5
S11309F00F920BB60F9211248F939F93EF93FF9353
S1130A0090919424809196248F5F80939624809172
S1130A10A009E92FF0E0E358FB4D8287993019F4DF
S1130A201092942403C09F5F90939424FF91EF91BC
S1130A309F918F910F900BBE0F900FBE0F901F9040
S1130A4018951F920F920FB60F920BB60F921124A6
S1130A508F93EF93FF9380919124893019F410922E
S1130A60912403C08F5F80939124E091912480911D
S1130A709224E81739F0F0E0E358FB4D808180932D
S1130A80A00902C010929524FF91EF918F910F90CD
S1130A900BBE0F900FBE0F901F901895882311F076
S1130AA080E00895CB01642F0E94B5040895882343
S1130AB011F080E00895CB01642F0E946D04089525
S1130AC0882311F085E8089560E875E280E090E0FD
S1130AD00E94440480E008958093E1219093E221F0
S1130AE0E0E4F6E091E0928B84E0828794870895B5
S1130AF08093E3219093E421E0E4F6E081E0818BAC
S1130B0082E08387848708951F920F920FB60F9215
S1130B100BB60F9211242F933F934F935F936F93D0
S1130B207F938F939F93AF93BF93EF93FF93E09142
S1130B30E121F091E2211995FF91EF91BF91AF91DD
S1130B409F918F917F916F915F914F913F912F91E1
S1130B500F900BBE0F900FBE0F901F9018951F9211
S1130B600F920FB60F920BB60F9211242F933F934F
S1130B704F935F936F937F938F939F93AF93BF93A1
S1130B80EF93FF93ECE4F8E0808180618083E0914F
S1130B90E321F091E4211995FF91EF91BF91AF9179
S1130BA09F918F917F916F915F914F913F912F9181
S1130BB00F900BBE0F900FBE0F901F9018954F9281
S1130BC05F926F927F928F929F92AF92BF92CF92D9
S1130BD0DF92EF92FF920F931F93CF93DF939C01C9
S1130BE06B015A01CB01820F931F8150904110F089
S1130BF085E84DC0A0E0B0E0C0ECD1E040EC51E0AD
S1130C0016E0612EF8EDEF2EF12C01E010E06BEC14
S1130C1071E0E3E37E2E95E3892E86E3982E33C0BC
S1130C208091CF0187FDFCCFFA0112823183522ECD
S1130C302093C0016286C701FB0184BF00838091B9
S1130C40C401F501EA0FFB1F40808415C9F08091AF
S1130C50CF0187FDFCCF8091CF0181FF06C0FA014F
S1130C609286C701FB0184BF00837A865092C0013B
S1130C7019821A824C828A86C701FB0184BF0083D1
S1130C802F5F3F4F1196AC15BD0550F280E0DF9108
S1130C90CF911F910F91FF90EF90DF90CF90BF9075
S1130CA0AF909F908F907F906F905F904F9008953A
S1130CB01F93CF93DF93E0E2F6E014828FEF8183FA
S1130CC0C0E2D6E01FEF8FEF9FEF0E94F4061F8370
S1130CD0FACFBF92CF92DF92EF92FF920F931F93BE
S1130CE0CF93DF938130910531F4862F642FA901CE
S1130CF00E94FC0A35C0892B11F088EE31C0CA016C
S1130D00860F971F8150904110F085E829C0A0E01C
S1130D10B0E0C0ECD1E096E0B92E88EDC82ED12C1D
S1130D2001E0E02EF12C0BEC11E016C08091CF0114
S1130D3087FDFCCF1A8279836093C001BA86C6010D
S1130D40F80184BFE0828091C401F901EA0FFB1F1E
S1130D50808311966F5F7F4FA417B50738F380E047
S1130D60DF91CF911F910F91FF90EF90DF90CF9083
S1130D70BF9008950E94C20808950E94AD0A0E947F
S1130D80C80A0E943E0C0E94690A0E94A00A0E949E
S1130D90A70A80E00895892B29F488E0809300084D
S1130DA0809340080895FC01209197243091982461
S1130DB0C901A0E0B0E0BC01552744278091200878
S1130DC090912108A0E0B0E0482B592B6A2B7B2B93
S1130DD080919724909198242817390729F7408304
S1130DE051836283738308954FB7F89486309105D5
S1130DF018F12091200830912108280F391F809183
S1130E002008909121088217930740F480912008CC
S1130E109091210882179307C8F30EC0809120088F
S1130E209091210828173907C8F3809120089091E0
S1130E30210882179307C8F34FBF089520E090E07C
S1130E40FC0153E0EE0FFF1F5A95E1F7E80FF91F7D
S1130E50E756FB4D84819581892B09F021E0822F8F
S1130E600895DF92EF92FF920F931F93DFB6F894E9
S1130E708091E7218F3F09F456C090E0FC01A3E084
S1130E80EE0FFF1FAA95E1F7E80FF91FE756FB4D98
S1130E90E080F1800281138120919724309198247D
S1130EA0C801AA27BB272817390769F4E092280844
S1130EB0F092290880910C08806180930C0880913D
S1130EC00708836003C0809107088C7F809307081C
S1130ED060919724709198249B0140E050E08091A8
S1130EE0200890912108A90133272227A0E0B0E02F
S1130EF0282B392B4A2B5B2B809197249091982493
S1130F006817790729F72E193F09400B510B2F5FFA
S1130F103F4F4F4F5F4F2F5F3F4F4F4F5F4718F487
S1130F2081E08093E621DFBE1F910F91FF90EF9047
S1130F30DF9008958091E621882309F44CC0109233
S1130F40E6213091E521332309F445C08091E8215D
S1130F508F3F59F48091E9218F3F39F48091E72143
S1130F608093E9218093E82112C02091E7218091A8
S1130F70E92190E0FC0143E0EE0FFF1F4A95E1F701
S1130F80E80FF91FE756FB4D20872093E921809154
S1130F90E72190E0FC0123E0EE0FFF1F2A95E1F723
S1130FA0E80FF91FE756FB4D80858093E721809178
S1130FB0E92190E0FC01B3E0EE0FFF1FBA95E1F7E1
S1130FC0E80FF91FE756FB4D8FEF808731503093C0
S1130FD0E5210E9431070895FF920F931F93182F64
S1130FE0853010F08AE8C5C0FFB6F8940E949A07CD
S1130FF00091E521002309F4C0C04091E721242F8A
S1131000842F302F1217F1F5212F30E0141781F4BB
S1131010F90163E0EE0FFF1F6A95E1F7E20FF31F9A
S1131020E756FB4D80858093E7210E94310718C065
S113103090E0DC0153E0AA0FBB1F5A95E1F7A80F1B
S1131040B91FA756BB4DF90143E0EE0FFF1F4A95A8
S1131050E1F7E20FF31FE756FB4D808518968C935A
S1131060812F90E0FC0123E0EE0FFF1F2A95E1F7AA
S1131070E80FF91FE756FB4D8FEF8087015000936F
S1131080E52162C0822F90E0FC01B3E0EE0FFF1F68
S1131090BA95E1F7E80FF91FE756FB4D508531503B
S11310A0822F09F46AC0252FADCF1217D1F52091F4
S11310B0E9211317B1F4121721F48FEF8093E9217A
S11310C00DC0812F90E0FC01A3E0EE0FFF1FAA9555
S11310D0E1F7E80FF91FE756FB4D80858093E8217F
S11310E033C0842F90E0DC01E3E0AA0FBB1FEA9534
S11310F0E1F7A80FB91FA756BB4D812F90E0FC0163
S113110073E0EE0FFF1F7A95E1F7E80FF91FE7563A
S1131110FB4D808518968C931217B1F44093E92106
S113112013C0822F90E0FC0163E0EE0FFF1F6A956D
S1131130E1F7E80FF91FE756FB4D422F20852F3FBB
S113114009F0B3CF80E00FC0812F90E0FC0153E0A1
S1131150EE0FFF1F5A95E1F7E80FF91FE756FB4D15
S11311601482158281E0FFBE882311F489E801C04E
S113117080E01F910F91FF9008953091E821232F73
S1131180432FDDCF1F931FB7F8940E949A071FBF08
S11311901FEF25C06FB7F894822F90E0FC0173E035
S11311A0EE0FFF1F7A95E1F7E80FF91FE756FB4DA5
S11311B02085448155818681978110871482158208
S11311C0168217822F3F09F43FEF6FBF4115510577
S11311D051F03093E9212093E821FA0119953091D7
S11311E0E9212091E8212F3FA9F63093E9212093AA
S11311F0E8211F9108952F923F924F925F927F9220
S11312008F929F92AF92BF92CF92DF92EF92FF9212
S11312100F931F93CF93DF93782E5A016B014901EB
S113122094E0292E281610F48AE8E2C0011511056D
S113123009F4DBC0C82FD0E0FE0183E0EE0FFF1FEE
S11312408A95E1F7EC0FFD1FE756FB4D84819581EC
S1131250892B11F088E8CCC0609197247091982470
S11312609B0140E050E08091200890912108A90161
S113127033272227A0E0B0E0282B392B4A2B5B2B05
S113128080919724909198246817790729F78114FD
S1131290910431F061E08616910409F0A6C011C0F2
S11312A0D601C50180589040A040B04080589F4F5F
S11312B0AF4FBF4708F09BC0A20EB31EC41ED51E7D
S11312C010C0D601C50180589040A040B040821B98
S11312D0930BA40BB50B80589F4FAF4FBF4708F03B
S11312E086C09FB6F8940E949A075091E7215F3F09
S11312F031F06091E521452F252F30E054C07092E4
S1131300E721FE01A3E0EE0FFF1FAA95E1F7EC0F22
S1131310FD1FE756FB4D508731C02F3F09F43EC0F7
S1131320822F90E0FC0173E0EE0FFF1F7A95E1F746
S1131330E80FF91FE756FB4D80819181A281B381AB
S113134015012601281A390A4A0A5B0AD201C10189
S11313508F5F9F4FAF4FBF4710F4808521C0FE01C0
S113136033E0EE0FFF1F3A95E1F7EC0FFD1FE75650
S1131370FB4D2087521721F47092E72191E017C0AA
S1131380842F90E0FC0123E0EE0FFF1F2A95E1F784
S1131390E80FF91FE756FB4D708655C08FEF242FD9
S11313A03F5F422F282F361708F4B7CF33C0FE0112
S11313B083E0EE0FFF1F8A95E1F7EC0FFD1FE75660
S11313C0FB4DA082B182C282D38204831583E6825C
S11313D0F7828091E5218F5F8093E521992311F0B5
S11313E00E9431079FBE80E003C088EE01C08BE8F5
S11313F0DF91CF911F910F91FF90EF90DF90CF90ED
S1131400BF90AF909F908F907F905F904F903F9050
S11314102F900895842F90E0FC01B3E0EE0FFF1F9E
S1131420BA95E1F7E80FF91FE756FB4D7086FE0108
S1131430A3E0EE0FFF1FAA95E1F7EC0FFD1FE7569F
S1131440FB4D8FEF808790E0B2CF1F920F920FB6C3
S11314500F920BB60F9211242F933F934F935F93E8
S11314606F937F938F939F93AF93BF93EF93FF9368
S11314708091972490919824019680939724909337
S113148098240E943107FF91EF91BF91AF919F91F2
S11314908F917F916F915F914F913F912F910F9019
S11314A00BBE0F900FBE0F901F9018951F920F92B6
S11314B00FB60F9211248F938091E521882319F0A0
S11314C081E08093E6218F910F900FBE0F901F90C3
S11314D018951092E5211092E6211092972410920B
S11314E098248FEF8093E7218093E8218093E9216A
S11314F0EDE9F4E2848310821182399694E2EA3CA5
S1131500F907C1F70E94E50A0895FC018091972428
S1131510909198242091680830916908A0E0B0E087
S1131520DC019927882740E050E0822B932BA42BE1
S1131530B52B80839183A283B383089581E00895BA
S113154084E88093800181E6809381010895E0EA34
S1131550F0E0828184608283089582E08093500069
S11315608091510081FFFCCF98ED94BF84E0E0E4CA
S1131570F0E0818394BF81E08093400082E0E0E565
S1131580F0E086838091600081608093600008951C
S1131590E0E4F6E0808180618083808180688083DC
S11315A08081816080838081806280838081886083
S11315B0808380818F7B8083E0E6F6E080ED818309
S11315C080E2828380E18583089588E08093000827
S11315D08093400880EF80930C0880E380934C084C
S11315E083E080930608E1E4F8E0808180618083F1
S11315F089E28093430808956F927F929F92AF92FD
S1131600BF92CF92DF92EF92FF920F931F93DF93DB
S1131610CF93CDB7DEB7C054D040CDBFDEBFD82EF8
S1131620A62EC42EB52E3E010894611C711C662D95
S1131630A0E4B6E0EE24E39470E1F72E00EC18E0A9
S113164053E0952E20EC38E0AE01405C5F4F962DC0
S1131650961B70914906809149068C7F19968C934C
S113166019971696EC9216971696FC921697000008
S11316700000000000000000000000000000000066
S11316800000000000000000000000000000F8015D
S113169093828091C20887FFFCCF9F77F9019383DF
S11316A08091C20887FFFCCFF90113828091C208A0
S11316B087FFFCCF8091C3081596FC921597159669
S11316C0EC92159719967C931997F301808364160D
S11316D0750621F00894611C711CB9CFFE01319686
S11316E020E030E0DE01AF5BBF4F81912827022E5E
S11316F02295207F2025032E322F22952F7002263B
S1131700269532272327220F220F220F2025EA179E
S1131710FB0759F7232B11F085E814C0DE0111965D
S1131720AD0DB11D8C2D9B2D9C01AD0106C0FA01A0
S11317308191AF01F90181939F01842F8A1B8A153E
S1131740B0F380E0C05CDF4FCDBFDEBFCF91DF914F
S11317501F910F91FF90EF90DF90CF90BF90AF90CB
S11317609F907F906F900895E0E2F6E087E0818398
S1131770868308958130910519F0029719F404C005
S113178021E003C020E001C022E06115710521F0D1
S113179061307105A9F40BC081E090E002C0880FAC
S11317A0991F2A95E2F7E0E2F6E08583089502C0E6
S11317B0660F771F2A95E2F7E0E2F6E06683089564
S11317C081E090E002C0880F991F2A95E2F7E0E2D9
S11317D0F6E087830895E0E2F6E088E0828388E11A
S11317E0838B0895E0E2F6E0208530E0E3E036956F
S11317F02795EA95E1F721703070C90108952FB754
S1131800F89498E09093B000E0E2F6E08BE1838BEB
S113181081858C7F826081879287E0EAF0E0828113
S11318208260828378942FBF08951F920F920FB61F
S11318300F920BB60F9211248F93EF93FF93E0E274
S1131840F6E08285877F8287E8E4F0E080818E7FFE
S11318508083FF91EF918F910F900BBE0F900FBE7D
S11318600F901F9018950E94FF0BE8E4F0E0808130
S1131870807F8560808378948895089580E580933F
S1131880C00880E1E0E4F6E085830895E0E4F6E052
S113189020914906909149069C7F9187806C90E144
S11318A09683E0ECF8E083838091C20887FFFCCF45
S11318B0E0ECF8E063838091C20887FFFCCFE0E4AA
S11318C0F6E080E1858321870895E0E4F6E0209145
S11318D04906909149069C7F9187806890E19683A0
S11318E0E0ECF8E083838091C20887FFFCCFE0EC52
S11318F0F8E013828091C20887FFFCCF8091C3086F
S1131900E0E4F6E090E1958321870895CF93DF9397
S1131910DC0180E1E0E4F6E0868380E2E0ECF8E0DC
S113192083838091C20887FFFCCFE0ECF8E0138248
S11319306130A9F0FD01262FC0ECD8E08091C208E7
S113194087FFFCCF8091C3081B82819321502230F2
S1131950A8F76250862F90E00196A80FB91F8091D6
S1131960C20887FFFCCF8091C3088C9380E1E0E438
S1131970F6E08583DF91CF910895DC0180E1E0E416
S1131980F6E0868380E6E0ECF8E083838091C20889
S113199087FFFCCFE0ECF8E09D9161508091C20894
S11319A087FFFCCF93836623B9F78091C20887FF32
S11319B0FCCF80E1E0E4F6E085830895FF920F9385
S11319C01F93062FF42E0E94650C082310E002C01A
S11319D015950795FA94E2F7802F1F910F91FF90C8
S11319E00895DF92EF92FF920F931F93D82EF62E55
S11319F0E42E022F0E94650C10E002C0000F111F9C
S1131A00EA94E2F76F2D6023F094F8226F298D2D6C
S1131A100E94460C1F910F91FF90EF90DF90089564
S1131A20BC01009721F082E694E20E94450D0895DE
S1131A3082E694E260E070E00E94DA0D08950F936C
S1131A401F93CF93DF9382E694E20E943E0DC2E59A
S1131A50D4E20AEE11E20883198382E694E2BE011D
S1131A600E94450D249606561F4F84E2C236D807BD
S1131A7091F7DF91CF911F910F910895FC0110828E
S1131A8011821282138214820895CF93DF93DC01B2
S1131A90EB019FB7F89414968C911497882321F442
S1131AA06D937C93119706C01296ED91FC91139758
S1131AB0628373831296CD93DC9313971A821B82ED
S1131AC014968C9114978F5F14968C939FBFDF911B
S1131AD0CF9108959F92AF92BF92CF92DF92EF92EF
S1131AE0FF920F931F93CF93DF938C015B016A01E5
S1131AF09FB6F894DC0114968C91882319F4C0E005
S1131B00D0E04AC0F801C081D18141155105B1F03E
S1131B107E0111C0D60112966D917C911397ED91BF
S1131B20FC91888199811995882359F47E018A81D1
S1131B309B819C01E901209769F72EC0209761F1F0
S1131B407E01AB2849F5F801808191812A813B818E
S1131B50C817D90719F42083318305C0D701129619
S1131B602D933C931397F80182819381C817D90769
S1131B7011F4E282F382D80114968C911497815067
S1131B8014968C9314978D919C911197892B21F421
S1131B9012961D921C9213979FBECE01DF91CF9196
S1131BA01F910F91FF90EF90DF90CF90BF90AF9077
S1131BB09F900895AB0160E070E00E946A0D089563
S1131BC0AB0161E070E00E946A0D0895CF93DF934A
S1131BD0EC010BC0CE0160E070E00E94DA0D0097CA
S1131BE011F41C8205C00E94100D8C81882391F78A
S1131BF0DF91CF9108951F9381E06FE140E00E944F
S1131C00DE0C8830A1F48FE00E94650C82E069E06C
S1131C100E94460C10E08FE00E94650C80FD07C016
S1131C2088EC90E00E94F4061F5F1330A1F71F9127
S1131C3008950F931F93082F8091EB248F3009F59B
S1131C409FB7F894789488E0E0E4F6E08683809186
S1131C50F4248823E1F39FBF1092F4248FE00E94C0
S1131C60650C81ED97E10E946C058EE068E00E94AE
S1131C70460C083011F0033021F488E08093EB2403
S1131C80D9C181E06FE140E00E94DE0C8093EB2437
S1131C90083009F455C0093050F4043009F4A2C0E6
S1131CA0063009F4ACC0033009F0BBC161C00F3089
S1131CB069F0003120F4093009F0B3C171C0063174
S1131CC009F4D6C0093109F0ACC13EC182E063E039
S1131CD00E94460C0E949931682F192F8DE20E94B0
S1131CE0460C8EE267E040E0212F0E94F10C8FE069
S1131CF00E94650C83EC97E10E946C058EE06FEF07
S1131D0040E020E10E94F10C00000000000000000F
S1131D1000000000000000000000000000000000BF
S1131D20000000000000000088E0E0E4F6E08583A5
S1131D3083E290E00E94F4060093EB248FE07AC1E2
S1131D40883009F46EC182E068E00E94460C00000D
S1131D50000000000000000000000000000000007F
S1131D60000000000000000000000000000059C155
S1131D70883009F456C182E063E00E94460C0000FA
S1131D80000000000000000000000000000000004F
S1131D90000000000000000000000000000041C13D
S1131DA0883029F1893020F4863009F03AC105C021
S1131DB0863119F0893109F034C182E069E00E946A
S1131DC0460C0000000000000000000000000000BD
S1131DD000000000000000000000000000000000FF
S1131DE000001FC1883019F0893021F41AC10E9403
S1131DF0FB0D17C182E064E00E94460C12C18930D9
S1131E0059F08A3020F4883009F00BC11AC08631A9
S1131E1019F0893109F005C182E066E00E94460CA0
S1131E2000000000000000000000000000000000AE
S1131E30000000000000000000000000000000009E
S1131E40F0C00E94FB0D82E066E00E94460C000098
S1131E50000000000000000000000000000000007E
S1131E600000000000000000000000000000D9C0D5
S1131E70883001F1893020F4863009F0D2C031C0B5
S1131E80893019F0893109F0CCC082E066E10E9402
S1131E90460C0000000000000000000000000000EC
S1131EA0000000000000000000000000000000002E
S1131EB00000B7C00E94FB0D82E066E10E94460C60
S1131EC0000000000000000000000000000000000E
S1131ED000000000000000000000000000000000FE
S1131EE0A0C082E069E00E94460C000000000000EF
S1131EF000000000000000000000000000000000DE
S1131F000000000000000000000081E06FE140E0FC
S1131F100E94DE0C8093EB24893009F08BC082E0B0
S1131F2066E10E94460C0000000000000000000072
S1131F30000000000000000000000000000000009D
S1131F400000000000006DC0883009F454C08930DE
S1131F5020F4863009F065C01BC0893021F0863139
S1131F6009F05FC015C082E069E10E94460C0000E0
S1131F70000000000000000000000000000000005D
S1131F80000000000000000000000000000049C044
S1131F9082E069E00E94460C00000000000000009E
S1131FA0000000000000000000000000000000002D
S1131FB0000000000000000081E06FE140E00E94AA
S1131FC0DE0C8093EB24893009F034C082E069E1AF
S1131FD00E94460C00000000000000000000000009
S1131FE000000000000000000000000000000000ED
S1131FF00000000016C00E94FB0D82E069E10E940F
S1132000460C00000000000000000000000000007A
S113201000000000000000000000000000000000BC
S1132020000081E06FE140E00E94DE0C8093EB242D
S11320308F31B9F31F910F9108958091D72488238C
S113204011F18091F5248823F1F480916724909113
S11320506824892B39F48AE90E94180D8093672437
S1132060909368248091672490916824892B59F077
S11320701092D7248091EA24882311F086E001C0CD
S113208086E10E94190E8091DC24882351F088EDAA
S113209094E260E070E00E94DA0D009711F00E9473
S11320A07D108091F524823011F40E94E711089587
S11320B0982F693210F068E203C0662309F461E0E6
S11320C092959695969593708FEF989FC0011124E1
S11320D0262F30E0AC01429FC001439F900D529FD8
S11320E0900D112468E770E00E940831CB016F3F26
S11320F0710511F008F08FEF0895EF92FF920F939E
S11321001F93CF93DF937C01FC01C081D181EA85C9
S1132110FB8580818093ED24282F30E089010F5FB7
S11321201F4F0E0F1F1FF801808161810E945810FC
S1132130F8018083E982FA82CE010E94E01BDF91DC
S1132140CF911F910F91FF90EF900895DF92EF923E
S1132150FF920F931F93DF93CF930F92CDB7DEB708
S1132160E0916724F0916824309709F451C0E0802D
S1132170F1808091EA24882341F086E060E847E01A
S11321800E94DE0C882309F443C087E00E94650C9A
S1132190D82ECE01019661E00E94860C698167FD0C
S11321A037C06D5F0AE910E0061B11090E0D1F1DF3
S11321B06150C8010E94860CF70102871387898148
S11321C0080F111DF801D2828091E6249091E72432
S11321D0A091E824B091E924F70186839783A0872E
S11321E0B187609167247091682488ED94E20E941D
S11321F0450D8AE90E94180D809367249093682402
S1132200892B31F489E00E94190E81E08093D72450
S11322100F90CF91DF911F910F91FF90EF90DF907E
S113222008951F93182F8091E2249091E324069639
S11322300E94D306112311F087E005C082E060EE0E
S113224045E00E94DE0C8093692482E08093F524AB
S11322508091672490916824892B39F489E00E9445
S1132260190E81E08093D72403C086E10E94190EE1
S11322701F910895EF92FF920F931F93CF93DF93D3
S11322807C01EB01042F442331F08CE260EF44E045
S11322902091E52404C08CE260EF44E020E00E9439
S11322A0F10CC230D10598F4002361F08CE26EE0A9
S11322B041E02091DD240E94F10C8FE260E00E9455
S11322C0460C16C08CE26EE041E027E00FC060913E
S11322D0E1246295607F8091E424682B8FE20E9460
S11322E0460C8CE26EE041E02091DD240E94F10C6A
S11322F089E10E94190E8931D9F7809149068C7FB2
S1132300E0E4F6E08187219779F58091ED249091BE
S1132310D1248331A0F08091DF24992341F48823D0
S113232019F08FEB93E01EC087EA97E01BC0882367
S113233019F087E592E016C087E196E013C080911A
S1132340DF24992341F4882319F083E091E00AC043
S11323508FE292E007C0882319F087E990E002C079
S113236087EB91E00E94F40600E416E088E0F801AF
S113237085838683C701F70160810E94BD0C81E0DB
S11323808093F524809149068360F8018187DF9169
S1132390CF911F910F91FF90EF900895FC018091D0
S11323A0F524882311F086E80895E093E224F0935D
S11323B0E324828593858093EE249093EF24009701
S11323C011F488EE08950E943A1180E00895CF93A5
S11323D0DF931092F524A091D1248091DF24AA23C5
S11323E039F4E091EE24F091EF24882339F09CC075
S11323F0882309F48EC060EC70E08DC0808190E089
S1132400029620E931E0829FA001839F500D929FA4
S1132410500D112460E679E021C0E091EE24F091A2
S1132420EF24882389F4808190E0029620E530E04F
S1132430829FA001839F500D929F500D11240EC0C6
S1132440E091EE24F091EF248081482F50E04E5F1C
S11324505F4F85E0440F551F8A95E1F79A01260FD7
S1132460371F275F3F4FC091E224D091E324EA85D0
S1132470FB85818185FF22C08091DF24AA2319F482
S1132480882369F060C0882309F449C040EC50E017
S113249048C0882309F05EC0E0E9F1E007C0E0ED40
S11324A0F7E040E659E068E572E002C060EE71E0F2
S11324B0E40FF51F2E0F3F1F260F371F40E050E09B
S11324C08E819F81A885B985821B930BA40BB50BC4
S11324D08E839F83A887B98780916924833071F0A4
S11324E0843028F4882331F0813061F405C08530CC
S11324F049F406C080E007C087E805C081EE03C048
S113250089EE01C085E8BE010E94E428DF91CF91E5
S1132510089560EE71E0A23009F092CF7ECF40EED4
S113252051E0A230B9F4B5CF808190E0029628EC56
S113253030E0829FA001839F500D929F500D112483
S113254060EB74E08BCFE8EEF3E040EB54E06CE238
S113255071E0AECFE0EAF0E0882309F4A7CF60ECA5
S113256070E0A6CF8091C62485FD03C0982F9F7389
S113257008C0982F91959F719195963F14F495EF0B
S113258022C08091D124823059F08530A1F0882373
S1132590A1F48091DF24882359F49630FCF411C00F
S11325A08091DF24882321F494303CF093E00FC021
S11325B09B3094F402C096308CF4903214F08FE97E
S11325C008C097FF04C0892F8F71806A02C0892FC9
S11325D080688093C62408959AE0F9CF95E0F7CFF8
S11325E01F9384E08093DD2423E02093E4248FEF81
S11325F09FEF8093D2249093D3248093D5249093F7
S1132600D62411E01093DF241092D12488E294E0C0
S11326108093CF249093D02488E28093EC2488E0A4
S11326208093DE2485E08093E1242093E5248AE8E6
S11326308093C6240E94B2121093D4241092E024F2
S11326401092EA241F91089585FD03C0982F9F736B
S113265004C0982F91959F7191958091D1248530D4
S113266051F4892F992787FD9095E2EFF1E0E81B5B
S1132670F90B849108958091DF24292F332727FDB6
S11326803095882331F4E8E0F2E0E21BF30B849107
S11326900895EEE1F2E0E21BF30B84910895E091DA
S11326A0D124EE2309F0C1C060E074E048E050E0BA
S11326B020E230E0240F351F260F371F2093CF244C
S11326C03093D024EE2319F428E090E202C022E0F3
S11326D098E0920F9093EC24EE2311F092E001C065
S11326E098E09093DE24823091F0853009F456C04E
S11326F0882311F080E008958CE068E043E020E056
S11327000E94F10C86E163E040E023E010C08CE01D
S113271068E043E021E00E94F10C86E163E040E0E0
S113272022E00E94F10C8CE063E040E020E00E9493
S1132730F10C8091DF24882321F48CE064E042E0F2
S113274009C08CE064E042E021E00E94F10C8CE0DE
S113275060E144E020E00E94F10C87E164E042E0A3
S113276020E00E94F10C8FEF97E0A0E0B0E08093AE
S1132770F0249093F124A093F224B093F32484E101
S113278067E040E020E00E94F10C88E06FE140E067
S11327902091DF240E94F10C81E008958CE068E030
S11327A043E021E00E94F10C86E163E040E022E096
S11327B00E94F10C8CE063E040E020E00E94F10C08
S11327C08CE060E144E021E00E94F10C8CE064E0E4
S11327D042E021E00E94F10C87E164E042E020E065
S11327E00E94F10C8FE090E0A0E0B0E08093F02430
S11327F09093F124A093F224B093F3248091DF24E6
S1132800843010F01092DF2484E167E040E024E09B
S11328100E94F10C2091DF24220F255F83E16FEFEA
S113282040E00E94F10C81E0089560E071E042E034
S113283050E028E030E03ECFFF920F931F93CF93F8
S1132840DF93EB01813569F0893519F08E3439F560
S113285004C088818093E52444C188818093DD2469
S113286040C12881211121E02093EA24222389F008
S11328700E94E3178091672490916824892B39F48E
S113288089E00E94190E81E08093D7242AC186E052
S1132890AEC088E00E94190E1092D72422C19091F4
S11328A0EB249F3011F481E81DC18B3009F40EC173
S11328B08C3078F4823009F4CFC0833020F488233C
S11328C009F443C015C0833009F4D4C0843081F4C2
S11328D091C0833561F1843528F48F3459F0803503
S11328E039F417C0873509F4AAC0803F09F4CBC076
S11328F084EFF8C088818093E4249091E1249817B0
S113290010F49093E4248FE26FE040E02091E424FB
S1132910B7C088819981682F8093D2249093D3245F
S113292082E20E94460C83E26091D324A0C0888195
S11329309981682F8093D5249093D62480E20E94B5
S1132940460C81E26091D62492C08091F5248823BC
S113295009F0C3C08091D1242881853029F48FE007
S113296090E0A0E0B0E004C08FEF97E0A0E0B0E01A
S113297004C0B695A795979587952A95D2F780FFB9
S1132980AEC01091DF2488818093DF248091EB24F2
S1132990883011F408E006C088E00E94190E8830DF
S11329A0D9F706E18091D1242091DF24853029F4E0
S11329B0220F255F83E16FEF06C0222341F011232C
S11329C031F088E06FE140E00E94F10C0CC00E94FD
S11329D04F130E94B2128091C6240E942413682FC0
S11329E085E00E94460C083009F47BC086E10E9411
S11329F0190E77C08091F524882309F06EC09830B1
S1132A0011F418E006C088E00E94190E8830D9F746
S1132A1016E1F8808F2D0E944F13082F183019F0FB
S1132A2086E10E94190E002309F459C0F092D124C2
S1132A300E94B2128091C6240E94241316C02881D9
S1132A402093E1248091E424281710F42093E424B3
S1132A508FE260EF44E014C088818093C6240E9412
S1132A60B2128091C6240E942413682F85E00E942C
S1132A70460C37C028812093D42488E060E645E0E2
S1132A800E94F10C2EC088818093C7248981809391
S1132A90C8248A818093C9248B818093CA248C8121
S1132AA08093CB248D818093CC248E818093CD24FC
S1132AB08F818093CE24C7ECD4E214E2812F6991F4
S1132AC00E94460C1F5F1C32C9F70BC0288120935B
S1132AD0E0248EE268E043E0D3CF86E803C088EECA
S1132AE001C080E0DF91CF911F910F91FF90089575
S1132AF01F93CF93DF9382E26091D2240E94460C0D
S1132B0083E26091D3240E94460CC7ECD4E214E221
S1132B10812F69910E94460C1F5F1C32C9F780E225
S1132B206091D5240E94460C81E26091D6240E94D3
S1132B30460C88E060E645E02091D4240E94F10C24
S1132B408FE26FE040E02091E4240E94F10C8EE2D9
S1132B5068E043E02091E0240E94F10C8FE260EFF2
S1132B6044E02091E1240E94F10C8091D1240E9440
S1132B704F138091C6240E942413682F85E00E947D
S1132B80460C8091EA24882319F086E00E94190EED
S1132B90DF91CF911F910895DF92EF92FF920F93EF
S1132BA01F93DF93CF930F92CDB7DEB7D82E81E07A
S1132BB090E065E170E041E050E09E012F5F3F4FFF
S1132BC00E94690600E416E088E0F80186838CE739
S1132BD091E00E94F406FF24F394F801F68281E068
S1132BE090E00E94F406F801F58210E084E690E09B
S1132BF00E94F40681E06FE140E00E94DE0C1A308E
S1132C0011F485E83AC0883011F01F5FEFCF80934C
S1132C10EB2429812223D1F182E16FE040E00E947C
S1132C20F10C34C086E060E645E00E94DE0C9801B9
S1132C30220F331F220F331F082F10E0022B132BF8
S1132C40F394F8E0FF1671F783E00E94190E8FE009
S1132C500E94650CE0E4F6E081E08487E186C80127
S1132C600E949E31DD2011F00E94F0120E9478151E
S1132C701092F5241092D72480E00F90CF91DF9129
S1132C801F910F91FF90EF90DF90089583E060E330
S1132C9044E020E00E94F10C83E068E043E020E09F
S1132CA00E94F10C83E067E040E021E00E94F10C17
S1132CB08EE260E245E021E00E94F10C8CE060E8E5
S1132CC047E021E00E94F10C84E062E041E021E071
S1132CD00E94F10C8EE068E00E94460C84E060E4FF
S1132CE046E021E00E94F10C89E06FE040E025E03D
S1132CF00E94F10C86E00E94190EE0904906809132
S1132D0049068C7FE0E4F6E0818700E010E0FF24D0
S1132D1089CF1F930E94CC15882361F085E82DC0CC
S1132D2088ED94E260E070E00E94DA0D009711F003
S1132D300E94100D8091DC24882391F781ED97E1A6
S1132D400E946C05E0E4F6E081E084878091490606
S1132D50836081870E949931682F192F8DE20E9428
S1132D60460C8EE267E040E0212F0E94F10C80E0E7
S1132D700E94F6170E94E31780E01F910895FF92C6
S1132D800F931F93CF93DF930E94BD06882309F00E
S1132D90F3C0E0E4F6E081E0858388E086838AE49A
S1132DA091E00E94F40600E0C0E4D6E0FF24F3942E
S1132DB011E01E8381E090E00E94F406FD820A3057
S1132DC009F4DAC084E690E00E94F4068CE10E94E3
S1132DD0650C873011F00F5FECCF83E067E040E0D3
S1132DE021E00E94F10C82E063E00E94460C00E0C6
S1132DF084E690E00E94F40681E06FE140E00E94E6
S1132E00DE0C0A3009F4B8C0883011F00F5FF0CF3F
S1132E108093EB2481E090E060E070E048E050E0D3
S1132E2027EC34E20E94690681E00E94CC158823D5
S1132E3051F0A2C0C7ECD4E20E949931899384E294
S1132E40CF3CD807C9F78091C7243091C82440915A
S1132E50C9246091CA247091CB24F091CC24B09100
S1132E60CD245091CE24082F015091E0081708F08A
S1132E7090E0832F815021E0831708F020E0192F80
S1132E80180F91E0181708F090E0292B842F815037
S1132E9031E0841708F030E0A22FA80F91E0A817C2
S1132EA008F090E0392B862F815021E0861708F036
S1132EB020E0E32FE80F91E0E81708F090E0292BD9
S1132EC0872F815031E0871708F030E0622F680FB8
S1132ED091E0681708F090E0392B8F2F815021E0A2
S1132EE08F1708F020E0432F480F91E0481708F0AF
S1132EF090E0292B8B2F815091E08B1708F090E004
S1132F00322F380F21E0381708F020E0922B51952A
S1132F10591779F43F3F69F44F3F59F46F3F49F42F
S1132F20EF3F39F4AF3F29F41F3F19F40E3F08F087
S1132F3081CF81ED97E10E946C0500E416E0809159
S1132F4049068360F80181878CEC97E10E9478053B
S1132F50809149068C60F80181870E941F0D8AE9DF
S1132F600E94180D809367249093682488ED94E25E
S1132F700E943E0D80E001C085E8DF91CF911F9152
S1132F800F91FF9008958FE00E94650C84FF03C0A9
S1132F9081E08093F424089586EE94E20E94850AE9
S1132FA008958FE00E94650C282F83FF0BC0809149
S1132FB0F524813029F426FF80E00E941111089540
S1132FC00E94A61008958091EB248F3011F082E8BE
S1132FD0089588E00E94190E883011F085E808955C
S1132FE081E090E00E94CB0680E00895882311F0F0
S1132FF088EE08958091EB248F3011F481E80895D0
S11330008091F524882391F41092D72488E00E94BB
S1133010190E8830D9F780E090E00E94CB068FE04B
S11330200E94190E8F3011F480E0089586E8089507
S1133030982F8091F524882311F086E8089598301C
S113304039F488E00E94190E1092D72488E008957C
S11330508091672490916824892B59F08091EA2407
S1133060882311F086E001C086E10E94190E86E0F3
S1133070089581E08093D72486E00895DC01ED91E2
S1133080FC91119784E1808363834183528389E5B2
S113309095E2BD010E94450D08950F931F93DF93A0
S11330A0CF930F920F92CDB7DEB7A0911225B091B6
S11330B01325ED91FC91119784E180838BEE83833A
S11330C00FEF1FEF0183128389E595E2BD010E9492
S11330D0450D1092032509831A8380E5BE016F5FB5
S11330E07F4F0E94DC240093142510931525109221
S11330F02225109223251092242510922525109222
S113310026251092272510922825109229250E9401
S1133110D6230F900F90CF91DF911F910F910895B7
S1133120CF92DF92EF92FF920F931F938091D1245D
S11331309091DF248823D1F440911E2550911F25BE
S1133140992341F4BA0180E090E022E330E040E0CA
S113315050E007C0BA0180E090E029E130E040E0AF
S113316050E00E94E9306B017C0118C040911E259B
S113317050911F25992341F4BA0180E090E028E2A0
S113318030E040E050E0EDCF6A01EE24FF2484E01B
S1133190CC0CDD1CEE1CFF1C8A95D1F780E061E0AD
S11331A040E020E030E000E010E00E940C1F8823A3
S11331B0A9F4A0911225B0911325ED91FC911197DA
S11331C084E1808381EE83838FEF9FEF81839283F9
S11331D089E595E2BD010E94450D11C080E0B7016B
S11331E0A60120E030E00DE418E1EE24FF240E9463
S11331F0FB08882321F080E090E00E944D181F9185
S11332000F91FF90EF90DF90CF900895FF920F936E
S11332101F93DF93CF930F920F92CDB7DEB7F09049
S11332204E250E94100DFF20B1F583E56CE475E294
S11332300E94DC2420914C2530914D2580913D2520
S11332408093222580913E258093232580913F25DC
S113325080932425809140258093252580914125C4
S113326080932625809142258093272580914325AC
S113327080932825809144258093292581E080939B
S113328055251092032580910D25833031F582E078
S113329080930D2522C0109203250FEF1FEF0983A1
S11332A01A8380E5BE016F5F7F4F0E94DC24009388
S11332B0142510931525109222251092232510927F
S11332C02425109225251092262510922725109248
S11332D02825109229252FEF3FEFE0911225F09138
S11332E01325A081B18184E18C931396FC921397EA
S11332F011962D933C93129789E595E2BF010E94A4
S1133300450D0E94D6230F900F90CF91DF911F910E
S11333100F91FF900895CF92DF92EF92FF921F9347
S1133320DF93CF93CDB7DEB72F97CDBFDEBFAC0110
S11333307C01DE011196FC01808191819C01F901DF
S11333408FE001900D928150E1F740931225509344
S113335013259C81892F8250823088F0D701ED910A
S1133360FC9184E1808388EE83838FEF9FEF8183D8
S1133370928389E595E2B7010E94450DACC0923075
S113338019F48F8198851AC08F81809322258885AE
S1133390809323258985809324258A8580932525F8
S11333A08B85809326258C85809327258D85809316
S11333B028258E85809329258EEF9FEF80931425F1
S11333C09093152580E5BE016B5F7F4F0E94DC243E
S11333D00E94B123F701C080D18081E0D6018C9393
S11333E01196ED92FC921297F601EA56FF4F8083F4
S11333F08F8581839F0128503040D901E7ECF4E2A6
S113340088E001900D928150E1F7F9018FEF9FEF71
S1133410929382938C81823051F4809114259091FF
S113342015259293829345E123E238EC11C0F9010A
S11334303A979F0142E255E288E0DA010D90AD012E
S1133440D9010D929D018150C1F74BE123E23CEC7F
S11334508091D2249091D3249293829380910E25CB
S113346082938F5F80930E25329322934293D601E9
S11334701A96ED93FC931B9784E0BE016D5F7F4F1A
S11334800E94DC24182F80E0BE016E5F7F4F0E94F3
S1133490DC24112371F4882361F4C60162E070E036
S11334A041E00E94CE11882321F481E080935625C7
S11334B012C0D701ED91FC9184E1808381EE838376
S11334C08FEF9FEF8183928389E595E2B7010E9494
S11334D0450D0E94D6232F96CDBFDEBFCF91DF913D
S11334E01F91FF90EF90DF90CF900895FC01019021
S11334F0F081E02D628173818181448125810E9464
S1133500E83008950F931F938C01DC01ED91FC9139
S1133510818162810E941E03C8010E94100D1F91C7
S11335200F910895AF92BF92CF92DF92EF920F93D3
S11335301F935C01DC01ED91FC91048115812681CE
S11335403781818162814381E08439966F010E94D1
S1133550E630C5010E94100D1F910F91EF90DF908E
S1133560CF90BF90AF9008950F931F938C01DC010F
S1133570ED91FC9181810E94E530C8010E94100DFB
S11335801F910F9108950F931F938C01DC01ED910E
S1133590FC9181810E949203C8010E94100D1F9129
S11335A00F9108950F931F938C01DC01ED91FC9111
S11335B081810E94E430C8010E94100D1F910F9177
S11335C008950F931F938C01DC01ED91FC9181818F
S11335D062813396AF010E94B802C8010E94100DA7
S11335E01F910F910895EF92FF920F937C01DC01DC
S11335F0ED91FC91218132814381548165817681F1
S11336008781908501850E94E230C7010E94100DD8
S11336100F91FF90EF9008950F931F93DF93CF9333
S1133620CDB7DEB72B97CDBFDEBF8C01DC01ED91AA
S1133630FC9182818983838194818A839B839E0107
S11336402C5F3F4FAF014B5F5F4F88E0DA010D9075
S1133650AD01D9010D929D018150C1F78181BE0157
S11336606F5F7F4F0E94E130C8010E94100D2B96BE
S1133670CDBFDEBFCF91DF911F910F910895CF92FF
S1133680DF92EF92FF920F936C01DC01ED91FC91BC
S1133690BF016E5F7F4F208D318DE38CF48C81816F
S11336A04789028D0E94DF30C6010E94100D0F91E0
S11336B0FF90EF90DF90CF9008950F931F938C01AC
S11336C0DC01ED91FC918181928163810E94DD3066
S11336D0C8010E94100D1F910F9108950F931F931D
S11336E08C01DC01ED91FC9123813481458156816B
S11336F0818162810E94DC30C8010E94100D1F91FB
S11337000F9108958F929F92AF92BF92CF92DF92C2
S1133710EF920F93DF93CF93CDB7DEB76697CDBF0C
S1133720DEBF4C01DC01ED91FC91818189838281B2
S113373093818A839B839E012C5F3F4FAF014C5F33
S11337405F4F88E0DA010D90AD01D9010D929D0122
S11337508150C1F784858C87858596858D879E8762
S11337609E01215F3F4FAF01415F5F4F88E0DA0167
S11337700D90AD01D9010D929D018150C1F7268DA7
S1133780378DA18CB28CC38CD48CCE010196BE0132
S1133790645F7F4F458D0789E08C0E947101C401ED
S11337A00E94100D6696CDBFDEBFCF91DF910F91C1
S11337B0EF90DF90CF90BF90AF909F908F9008953F
S11337C0FC011082618172816115710521F089E12A
S11337D095E20E94450D08950F931F93CF93DF93B5
S11337E0282F80914C2590914D2596FFA3C022232C
S11337F059F420913B2530913C258091D22490911D
S1133800D3242817390761F020913B2530913C25BA
S113381080911725909118252817390709F08AC037
S113382020913D2530913E258091142590911525B8
S11338302817390709F47EC090913D2580912225EF
S1133840981759F590913E2580912325981729F5CD
S113385090913F25809124259817F9F49091402563
S1133860809125259817C9F49091412580912625AA
S1133870981799F49091422580912725981769F417
S11338809091432580912825981739F490914425E7
S113389080912925981709F44DC08AE90E94180DD2
S11338A08C01009709F446C0DC012D913C9185E020
S11338B0F901808301831283E956FF4F8083AF01AE
S11338C048505040FA01A7ECB4E288E00D90019210
S11338D08150E1F7FA013897EF01A2E2B5E288E0FE
S11338E00D9009928150E1F78091D2249091D324D4
S11338F09293829380910E2582938F5F80930E25FD
S113390083E69CEC9293829388E18293D9011A9680
S1133910ED93FC931B97C90162E070E041E00E94C3
S1133920CE11882321F481E08093562503C0C80179
S11339300E94100DDF91CF911F910F9108950F9365
S11339401F93CF93DF938C01DC01CD91DC91AA8589
S1133950BB857C9170932D25FD01E70FF11D4181FD
S1133960409346258091EA249D012F5F3F4F882391
S113397071F1D801ED91FC91268F378FAA85BB8513
S11339808C91858F108E8E819F81A885B985818FBA
S1133990928FA38FB48F11821282138214821582A4
S11339A0168217821086118612861386148615864F
S11339B016861786108A118A128A138A148A158A1F
S11339C0168A478B81E1808389E595E280C111964F
S11339D04D915C91129740932A2550932B25139671
S11339E08C91139780932E25ED012496652F629573
S11339F0669566956370352F36953695337019F450
S1133A00FE0120E049C014968D919C9115978093F6
S1133A10302590933125FD0136963230E1F4109231
S1133A2032251092332510923425109235251092A8
S1133A30362510923725109238251092392516967E
S1133A408D919C9117978093322590933325FD0196
S1133A50389624E021C0333011F022E01DC01696C0
S1133A608C911697809332258181809333258281AE
S1133A7080933425838180933525848180933625F2
S1133A80858180933725868180933825878180932B
S1133A903925FD013E962AE0662309F447C046FD18
S1133AA008C08191919180933B2590933C252E5F92
S1133AB008C0809130259091312580933B259093C7
S1133AC03C256230C1F410923D2510923E2510929F
S1133AD03F251092402510924125109242251092C4
S1133AE04325109244258081918180933D259093B4
S1133AF03E252E5F1BC06330C9F4808180933D2531
S1133B00818180933E25828180933F2583818093A8
S1133B104025848180934125858180934225868137
S1133B2080934325878180934425285F972F955060
S1133B30921B90934B2560933A2530932F2543FD98
S1133B405CC1DE01A20FB11D842F877080932C25E8
S1133B50833021F48C918093452563C0813009F42E
S1133B6051C0813020F0833009F047C15AC08D9193
S1133B709C91119780934C2590934D2512968C918E
S1133B80129780934E25877011F493E002C0982F0A
S1133B909C5FFD01E90FF11D808180934F25292F42
S1133BA02F5F382F377090E08077907044E09595C0
S1133BB087954A95E1F7482F332311F4882389F038
S1133BC0CD01820F911D809350259093512533236D
S1133BD011F0330F230F442321F0440F440F440FFB
S1133BE0240F80914B25281750F4821B8093522573
S1133BF0A20FB11DA0935325B093542502C1109276
S1133C005225FFC0992351F0963718F086E7809328
S1133C104B25A0934C25B0934D25F3C010924B2512
S1133C20F0C080914525843009F4EBC0853030F430
S1133C30823059F0833009F0E0C014C0873009F4B1
S1133C40E0C0883009F0D9C012C011968D919C91C2
S1133C50129780934C2590934D2513968C918093C5
S1133C604E25CFC011968C9180934C25CAC01196D5
S1133C708D919C91129780934C2590934D2513968A
S1133C808D919C91149780934E2590934F25159672
S1133C908C9115978093502516968D919C9117972A
S1133CA0809351259093522554FFABC018968C9164
S1133CB080935325A6C080912C25833061F4809194
S1133CC04525843011F0873031F489E195E2B8015B
S1133CD00E94450D9CC080910325813009F478C071
S1133CE0813020F0843008F088C059C080910C25C0
S1133CF0882351F590915525923008F07EC080912B
S1133D002C25813009F475C0813020F0833009F00E
S1133D1074C00CC080915825882309F46EC099237F
S1133D2009F46BC080E00E94EC1B67C080914525BC
S1133D30833009F040C0C8010E942020809155259D
S1133D40813009F064C03DC08330D1F0843019F073
S1133D50823009F052C080912C25882309F04DC08F
S1133D6080915825882341F08091552581508230D7
S1133D7018F481E00E94EC1BC8010E94AD2747C0E3
S1133D8080912C258330C9F5809145258830A9F58B
S1133D9081E00E94EC07C8010E94B52B38C00E9444
S1133DA0222780912C25813021F1833031F58091B7
S1133DB04525833019F0883001F506C0C8010E94FA
S1133DC020200E94842423C0C8010E94C92E1FC041
S1133DD080912C25833059F480914525823069F4F3
S1133DE080E00E94EC07C8010E94061910C08130CF
S1133DF021F4C8010E943B210AC0C8010E94100D91
S1133E0006C080915625882309F055CF64CFDF91F1
S1133E10CF911F910F9108956F927F929F92AF92CD
S1133E20BF92CF92DF92EF92FF920F931F93CF93A3
S1133E30DF93D82E962EC42E590138018AE90E94A8
S1133E40180D7C01009709F49BC0DC010D911C91B5
S1133E50DD2021F084E0F801808303C08BE0D801E9
S1133E608C93F801E182F282E956FF4F84E080836B
S1133E702091D5243091D624C9010296029710F0DE
S1133E80992069F03897EF01A7ECB4E288E00D902F
S1133E9009928150E1F762E183E290EC05C032932C
S1133EA022936CE083E290E8CC2061F02091D2244C
S1133EB03091D3246216730629F06E5F32932293F5
S1133EC070E002C0806471E022E0C21641F4AC01EB
S1133ED05860D5018D919C919293829328C0B3E050
S1133EE0CB1661F4AC015C6038976A5FEF01D501D1
S1133EF088E00D9009928150E1F719C020911425B2
S1133F00309115254FEF2E3F340729F0AC0158604E
S1133F10329322930CC0AC015C6038976A5FEF0166
S1133F20A2E2B5E288E00D9009928150E1F7329760
S1133F30772339F08091D2249091D3248083918384
S1133F4002C06082718280910E2582938F5F80937C
S1133F500E25529342936293D8011A96ED93FC93E3
S1133F601B97C80162E070E041E00E94CE118823F3
S1133F7021F481E08093562504C0C7010E94100DEE
S1133F8080E0DF91CF911F910F91FF90EF90DF9030
S1133F90CF90BF90AF909F907F906F900895EF92D5
S1133FA0FF920F931F93CF93DF937C01E801DC0111
S1133FB0ED91FC9186E18083618342832383348382
S1133FC0CF010596423069F4158216821782108655
S1133FD01186128613861486888199818583968337
S1133FE007C0DC01F80188E001900D928150E1F7EF
S1133FF089E595E2B7010E94450DDF91CF911F91AC
S11340000F91FF90EF9008950F931F93AC0180914F
S1134010D5249091D62402962091D2243091D32491
S1134020029728F4CA0143E007EC14E204C0CA0171
S113403042E005ED14E20E94CF1F1F910F910895F5
S1134040CF93DF939C01FC01C081D181FE0185E106
S11340508193ADE3B5E288E00D9001928150E1F7E0
S113406080914C25898789E595E2B9010E94450D27
S11340701092222510922325109224251092252592
S11340801092262510922725109228251092292572
S11340908FEF9FEF8093142590931525DF91CF9197
S11340A008950F931F93DF93CF93CDB7DEB72E9769
S11340B0CDBFDEBF8C01DC014D915C91DE01119618
S11340C0FA018EE001900D928150E1F72B813C8141
S11340D08091D2249091D3242817390749F0C8013C
S11340E068EE4A818E010B5F1F4F0E94CF1F66C08E
S11340F0FA010183128383E08083EA56FF4F8083B1
S11341008D85818338979F0167EC74E288E0DB0139
S11341100D90BD01D9010D929D018150C1F78A8195
S1134120823031F48D819E819293829333E10FC06A
S113413038979F01BE016B5F7F4F88E0DB010D90D4
S1134140BD01D9010D929D018150C1F739E18091E2
S1134150D2249091D3249293829380910E258293BA
S11341608F5F80930E252A81922F990F990F80E0FB
S11341708366906C929382933293DA011A96ED934C
S1134180FC931B970E94B123F8018081918162E026
S113419070E041E00E94CE11882321F481E08093F5
S11341A056250CC02B813C81C80161EE4A818E01E9
S11341B00B5F1F4F0E94CF1F0E94D6232E96CDBFA8
S11341C0DEBFCF91DF911F910F910895DC01ED9136
S11341D0FC911197E081E43278F4F0E0EE0FFF1FD8
S11341E0E65DFD4F259134912115310519F0F90152
S11341F0199508950E94100D08951F9380915625D6
S1134200882381F480910B25882361F087E095E26F
S113421060E070E00E94DA0D009721F00E94E62031
S113422011E001C010E080911D25882359F089E137
S113423095E260E070E00E94DA0D009719F00E94A8
S1134240E62011E0812F1F9108950F931F93DC0145
S1134250ED91FC91119780E1808341836283038314
S113426014832583368389E595E2BD010E94450DBB
S11342701F910F9108950F931F93DF93CF93CDB7A1
S1134280DEB72897CDBFDEBFAC01DC019C9111964F
S11342902C9180914B25882321F4CA010E94100D92
S11342A01AC1E92FF22F80912E25808F8091472506
S11342B090914825A0914925B0914A25818F928FEC
S11342C0A38FB48F20913A25218380913B2590912F
S11342D03C2582839383822F8250823010F514828E
S11342E01582168217821086118612861386223052
S11342F039F480913D2590913E25848395831BC09C
S11343002330C9F49F012C5F3F4F6DE375E288E0D1
S1134310DB010D90BD01D9010D929D018150C1F7C2
S11343200AC01282138214821582168217821086A2
S1134330118612861386208D8091F624281761F544
S113434094818091F924981739F595818091FA2404
S1134350981711F596818091FB249817E9F49781B9
S11343608091FC249817C1F490858091FD249817BE
S113437099F491858091FE24981771F49285809127
S1134380FF24981749F4938580910025981721F408
S1134390CA010E94100D5AC02093F6248481809390
S11343A0F92485818093FA2486818093FB24878174
S11343B08093FC2480858093FD2481858093FE2452
S11343C082858093FF2483858093002520912F2567
S11343D024871786108A118A128A138A148A158AE6
S11343E0168A8091302590913125858796872330D0
S11343F079F49F01215F3F4F62E375E288E0DB01BE
S11344000D90BD01D9010D929D018150C1F70BC0E2
S1134410223039F480913225909133258787908B0F
S113442002C01586168680914625878B80914B2580
S1134430858F80914C2590914D25868F978F81E1B2
S1134440808389E595E2BA010E94450D80912A2571
S113445084FF41C080913A25823071F480913D25DA
S113446090913E2589839A8300913B2510913C25A8
S113447080E060E042E021C0833019F580913D2561
S1134480898380913E258A8380913F258B83809107
S113449040258C83809141258D83809142258E8394
S11344A0809143258F8380914425888700913B2503
S11344B010913C2580E060E043E09E012F5F3F4F78
S11344C007C080E060E040E020E030E000E010E081
S11344D00E940C1F02C00E94D6232896CDBFDEBFC7
S11344E0CF91DF911F910F910895CF92DF92EF92B8
S11344F0FF920F931F93DF93CF93CDB7DEB76497EB
S1134500CDBFDEBF8C01DE011396FC018081918159
S11345109C01F90182E101900D928150E1F78989B2
S113452082FD11C080910325882321F480910C25FC
S1134530882349F09889D801ED91FC9180E180832A
S1134540918381EEDFC02885398529833A8389895F
S113455080FF06C08D81823019F42F5F3F4FA1F098
S11345608C81882361F48D81882359F49889D8013A
S1134570ED91FC9180E18083918385EFC3C081300C
S113458019F08D81813049F49889D801ED91FC911D
S113459080E18083918388EEB5C0F801C080D1802A
S11345A08DE0D6018C93888913968C938A8945E093
S11345B0F42EF80EE8E9F0E0E81BF109EC0DFD1D1E
S11345C09C81923051F437E0F32EF80E8091D5247B
S11345D09091D6249293829312C0933081F43897A9
S11345E02DE0F22EF80E9F0147EC54E288E0DA0148
S11345F00D90AD01D9010D929D018150C1F720911B
S1134600D2243091D3248E819F812817390749F40D
S11346108C81882331F08D81882319F040E450E0A7
S113462009C08C81882321F0B2E0FB0E32932293DF
S113463040E050E08D81882311F1823039F46F2DF0
S11346406E5F888599859293829312C038976F2DF7
S1134650685F9F0198E0E92EF12CEC0EFD1E88E0C6
S1134660D7010D907D01D9010D929D018150C1F7B3
S113467082E0F82EF60E8E819F8192938293809130
S11346800E2582938F5F80930E25BA01616089891C
S113469080FF02C0BA0161628A89873608F07061BE
S11346A08D81382F330F330F20E04C81942F929556
S11346B0990F990F907C80E0282B392B262B372BD0
S11346C0329322933296F7FC15C03397F082D601C9
S11346D01A96ED93FC931B970E94B123F601018374
S11346E01283C60162E070E041E00E94CE1188238B
S11346F0A1F017C09889D801ED91FC9180E18083E5
S1134700918385EE8283138214821582168289E551
S113471095E2B8010E94450D18C081E080935625AA
S113472014C09889D801ED91FC9180E18083918334
S113473081EE8283138214821582168289E595E2C2
S1134740B8010E94450D0E94D6236496CDBFDEBFFA
S1134750CF91DF911F910F91FF90EF90DF90CF9059
S1134760089580915725813051F40E94E3178538CC
S113477031F081E090E00E94CB0610925725089515
S113478080915725882389F480E090E00E94CB062D
S113479080E00E94F617882321F481E08093572556
S11347A0089581E090E00E94CB0608958091F7245B
S11347B0882331F480911625882311F40E94C023A4
S11347C008950F931F93182F109256251092552574
S11347D01092572510920C2510920D251092032546
S11347E01092F6248FEF8093F9248093FA24809317
S11347F0FB248093FC248093FD248093FE248093E7
S1134800FF24809300251092162588E00E94181832
S11348100FB7F89480E00E94EC0781E00E94EC0757
S113482082E00E94EC070FBF112391F110925825EA
S113483080EE9AE0809305259093062580E098E722
S113484080931E2590931F251092022581E080936A
S1134850042586E08093F8241092222510922325C3
S11348601092242510922525109226251092272592
S113487010922825109229258FEF9FEF80931425FD
S1134880909315250E94993180930E251092F72458
S11348901F910F9108950F931F93CF93DF93EC0112
S11348A0088119810E94B123F801018180E090E020
S11348B00E94CB0680E0011181E00E948916182F26
S11348C081E090E00E94CB06802F0E94E1230E94A9
S11348D0D62387E095E20E94E60D89E195E20E94E5
S11348E0E60D89E595E20E94E60DE881F9811183E0
S11348F080E2808389E595E2BE010E94450DDF9147
S1134900CF911F910F910895DF93CF9300D00F9211
S1134910CDB7DEB70E94B1238FEF9FEF89839A83CF
S11349208B839C8383E5BE016F5F7F4F0E94DC24F1
S113493080E5BE016D5F7F4F0E94DC2481E00E9410
S1134940E1230E94D6232496CDBFDEBFCF91DF9111
S113495008950E94BF16882399F40E949E0A882312
S113496079F081E00E94E1230E94D62387E095E25A
S11349700E943E0D89E195E20E943E0D80E008957B
S113498085E80895E82F883030F4E82FF0E0EE58F9
S1134990FD4F849108958054803228F4F0E0E65C61
S11349A0FD4F84910895E03F10F480E00895F0E015
S11349B0E655FE4F849108951F93CF93DF93182FEC
S11349C0EB0180915725813051F40E94B123812F4E
S11349D0BE010E941C14182F0E94D62304C0812FEC
S11349E00E941C14182F812FDF91CF911F910895DD
S11349F0FF920F931F93CF93DF93182FEB01F42EA5
S1134A00823518F58E3408F084C0833409F481C0EB
S1134A10843460F4853038F4823008F07AC0882316
S1134A2009F477C02AC0823441F537C08A34E9F1E9
S1134A308B3428F48434A9F18734F9F46AC08B34B4
S1134A4009F44CC08C34C9F450C0873509F461C0F2
S1134A50883548F4853520F4833508F05AC049C0B8
S1134A60863559F40CC0893509F453C0893558F09A
S1134A708A3561F0803F09F44CC004EFB8C08881E6
S1134A8080935825B3C088819981ACC0888199816D
S1134A9080931E2590931F25A9C0888180930425A7
S1134AA0A5C088818093F824A1C0888180932225A1
S1134AB08981809323258A81809324258B81809307
S1134AC025258C81809326258D81809327258E81B1
S1134AD0809328258F818093292588C08881998196
S1134AE0809314259093152581C0888180930E2589
S1134AF07DC06881611161E06093F724662331F021
S1134B000E94B12386E00E94181870C00E94D62328
S1134B106DC0812FBE010E941C14082F813871F4CE
S1134B200E94E317812FBE010E941C14082F8823C2
S1134B3009F05DC081E080936A2403C0882309F0F2
S1134B4056C08091DD24282F30E08091E124482F45
S1134B5050E06091E424CA01861B910928173907A3
S1134B600CF4C901A82F281B310981E090E002C090
S1134B70880F991F4A95E2F70197289FA001299F62
S1134B80500D389F500D112420E030E070E0E1E03A
S1134B90F0E00DC0C901860F971FEF0102C0CC0FD2
S1134BA0DD1F8A95E2F74C0F5D1F2F5F3F4F2A17D9
S1134BB088F384E190E0489FB001499F700D589FAD
S1134BC0700D11248091D124882319F540E054E01C
S1134BD028E030E080E290E0820F931F840F951F5D
S1134BE0860F971F809305259093062500E0FF20EC
S1134BF049F080916A24882329F080E00E94F61706
S1134C0010926A24802FDF91CF911F910F91FF9012
S1134C10089540E051E022E030E088E090E0DCCF0D
S1134C20EF92FF920F931F937C01FC01008111818D
S1134C30B8016E5F7F4FF801818141E00E94F82442
S1134C40F801918192839FE19083818389E595E2C4
S1134C50B7010E94450D1F910F91FF90EF900895A9
S1134C60CF93DF93AC01DC01ED91FC919F012D5FAB
S1134C703F4F81818E3409F48FC08F3458F58530CD
S1134C8009F468C0863090F4823009F4B3C08330EC
S1134C9038F4882309F49EC0813009F040C09DC0D7
S1134CA0833009F4AAC08430D1F551C0823409F4A8
S1134CB05CC0833430F4863009F451C0873079F510
S1134CC051C08B3409F460C08C3409F462C08A3456
S1134CD031F551C0863529F1873588F4813509F4D9
S1134CE047C0823530F48F3409F459C08035B9F4A3
S1134CF059C0823509F45BC0833589F45BC08935BA
S1134D00D9F08A3528F4873579F0883541F40FC015
S1134D108D35D1F0803F09F454C08A3581F094EF89
S1134D2070C0809158256BC08091E12468C0809147
S1134D3005259091062542C08091E52460C08091AC
S1134D401E2590911F253AC08091022558C080915C
S1134D50D12455C08091CF249091D0242FC080912C
S1134D60EC244DC08091DE244AC08091042547C0C4
S1134D708091EA2444C0E901A2E2B5E288E00D9002
S1134D8009928150E1F73CC080911425909115253A
S1134D9015C080910E2533C08091DD2430C08091F0
S1134DA0E4242DC08091D2249091D32407C0809113
S1134DB0F72425C08091D5249091D62483839483AD
S1134DC01FC0E901A7ECB4E288E00D90099281507C
S1134DD0E1F716C08091DF2412C08091F0249091F5
S1134DE0F124A091F224B091F32483839483A583C6
S1134DF0B68306C08091C62402C08091D4248383E4
S1134E0090E0818182838EE18083918389E595E2BC
S1134E10BA010E94450DDF91CF910895CF93DF939E
S1134E20EC01E881F98183E280836183662311F0D8
S1134E300E94D62389E595E2BE010E94450DDF91CB
S1134E40CF91089580912C258823E1F080E00E9481
S1134E50EC0780912C25813031F480914B258823F7
S1134E6011F060E001C06BEE80910325823031F4D3
S1134E7080911225909113250E940E271092562599
S1134E8010920325089580910325823039F480918E
S1134E901225909113256BEE0E940E271092032584
S1134EA0109256250895CF92DF92EF92FF920F93BE
S1134EB01F93DF93CF93CDB7DEB72897CDBFDEBF67
S1134EC0D82EC92E809103258823B1F580910C2515
S1134ED0882391F50E94B123ED2CFC2CD701ED9190
S1134EE0FC9181819F012C5F3F4F823031F484819A
S1134EF0958189839A8342E00DC0AE014F5F5F4F75
S1134F0088E0D9010D909D01DA010D92AD01815027
S1134F10C1F743E00281138181E060E09E012F5FCD
S1134F203F4F0E940C1F882329F0D0921225C09273
S1134F30132507C0C70102C08D2D9C2D61EE0E9470
S1134F400E272896CDBFDEBFCF91DF911F910F9121
S1134F50FF90EF90DF90CF9008955F926F927F92D1
S1134F608F929F92AF92BF92CF92DF92EF92FF9275
S1134F700F931F93DF93CF93CDB7DEB76597CDBF64
S1134F80DEBFBC0140910C25423011F0443069F47D
S1134F9080910425882349F0E0911225F09113258E
S1134FA020813181F901399604C0E0E0F0E020E08D
S1134FB030E050913A25598300913B2510913C25CE
S1134FC00A831B83523069F41E821F821886198655
S1134FD01A861B8680913D2590913E258C839D8366
S1134FE018C080913D258C8380913E258D838091CE
S1134FF03F258E83809140258F838091412588872A
S1135000809142258987809143258A878091442510
S11350108B877090DF247C86A090D124AD8680910C
S11350204C2590914D258E879F87188A80914E2517
S113503087FF02C081E0888B80914625898B80910F
S1135040472590914825A0914925B0914A258A8BFE
S11350509B8BAC8BBD8B423019F0443009F052C0AD
S113506080910425882309F44DC0D9011896FC9039
S1135070AC81BD815C806D808E809F80B884C98442
S1135080DA84EB8440E030C08181928108171907EB
S113509049F58081581731F58385781619F584858B
S11350A0A81601F5523031F483819481A817B90709
S11350B0C9F428C083818515A9F48481861591F4E7
S11350C08581881579F48681891561F487818B152A
S11350D049F480858C1531F481858D1519F4828508
S11350E08E1581F04F5F75964F1570F255C0DE0135
S11350F0119685E10D9001928150E1F7F9018085C7
S11351008F5F808790914F2580915225882321F4C9
S1135110809104258823E1F5DB01ED91FC9187E181
S1135120808380912E2581839F012E5F3F4FAE01A6
S11351304F5F5F4F85E1DA010D90AD01D9010D920A
S11351409D018150C1F780914F25878B892F8770EE
S113515059F4892F90E08077907024E09595879595
S11351602A95E1F7882331F08091502590915125BB
S1135170808F918F80915225828F809153259091B9
S11351805425838F948F89E595E20E94450D09C0CB
S1135190CB010E94100D05C0B4E0BF1508F4B2CFD6
S11351A0A6CF6596CDBFDEBFCF91DF911F910F9142
S11351B0FF90EF90DF90CF90BF90AF909F908F9033
S11351C07F906F905F900895EF92FF920F931F93DB
S11351D0CF93DF93F82EEB011092562580910C2586
S11351E0823021F48881873051F405C0833039F44A
S11351F08881863021F48F2D0E94052EF8C0888185
S1135200843009F47BC0853030F4813029F1833057
S113521009F0EBC014C08B3009F470C08D3021F05C
S1135220853009F0E2C0DAC00E811F8128853985F6
S113523089819A816F2D4B810E942521D6C0898155
S11352409A816F2D0E94042080915525813009F0A8
S1135250CCC00E948424C9C099EEF91619F091EECD
S1135260F91641F489819A816F2D4FEF5FEF0E9407
S11352703E18BBC08093032580911E2590911F2565
S1135280AC0160E070E08091D1249091DF24882308
S1135290A1F4992339F4CB01BA0122E330E040E0D0
S11352A050E006C0CB01BA0129E130E040E050E013
S11352B00E94E930AB01BC0110C0992339F4CB0141
S11352C0BA0128E230E040E050E0F2CF94E0440F2D
S11352D0551F661F771F9A95D1F780E020E030E0D4
S11352E000E918E1EE24FF240E94FB08882309F456
S11352F07EC080E090E00E94901879C089819A81F4
S11353000E94100D80910325813009F470C08881BA
S11353108430A9F487E8F81681F0E0911225F09121
S11353201325A081B18183E28C931196FC9289E5C7
S113533095E2BF010E94450D58C082E009C099EE74
S1135340F91609F452C081EEF81609F44EC083E050
S1135350809303258091052590910625AC0160E09A
S113536070E08091D1249091DF248823A1F49923C3
S113537039F4CB01BA0122E330E040E050E006C04A
S1135380CB01BA0129E130E040E050E00E94E9306D
S1135390AB01BC0110C0992339F4CB01BA0128E256
S11353A030E040E050E0F2CF84E0440F551F661F28
S11353B0771F8A95D1F780E020E030E003E417E21C
S11353C0EE24FF240E94FB0891E090935625882345
S11353D071F080E090E00E94432709C089819A819E
S11353E00E94100D8EEE0E94842E0E94D623DF911F
S11353F0CF911F910F91FF90EF900895EF92FF923C
S11354000F931F93109216258091F7248823C9F4D3
S1135410809157258823A9F488E00E9418188830C1
S113542071F082E040E850E060E070E020E030E0BD
S11354300EEF19E2EE24FF240E94FB0802C00E9432
S1135440D6231F910F91FF90EF900895DF92EF9272
S1135450FF920F931F93CF93DF93EC01E881F981BF
S1135460E680F78000851185E114F104010511053A
S113547039F480E090E00E94FE29E881F9816CC053
S113548080910325882309F062C080910C2588232C
S113549009F05DC00E94B12386E00E941818D82E3E
S11354A081E08093162582E00E941E07882319F06C
S11354B082E00E94EC078091D1249091DF2488231C
S11354C0A1F4992339F4C801B70122E330E040E0A4
S11354D050E006C0C801B70129E130E040E050E0E7
S11354E00E94E930AB01BC0112C0992339F4C80110
S11354F0B70128E230E040E050E0F2CFB801A70164
S113550084E0440F551F661F771F8A95D1F782E008
S113551020E030E00EEF19E2EE24FF240E94FB08A5
S1135520882381F0E881F98181E2808388EE818398
S113553089E595E2BE010E94450D80E090E00E945D
S1135540FE2912C0E881F98186E0D81629F081E2AB
S1135550808382EF818303C081E28083118289E5A5
S113556095E2BE010E94450DDF91CF911F910F91ED
S1135570FF90EF90DF900895BC0189E595E20E94C9
S1135580450D809101258093712484E061E774E2E4
S11355900E94DC24809111258093702480E060E7D0
S11355A074E20E94DC2410920C250E94D6230895F4
S11355B0CF93DF93E0912025F0912125C081D18103
S11355C0DE01A956BF4FE983FA83882339F087E0C7
S11355D088838C934AE023E038E013C086E0888314
S11355E08C9318979D0147EC54E288E0FA010190EE
S11355F0AF01F90101929F018150C1F742E123E417
S113560038ECFD018FEF9FEF929382933297808362
S11356109183159780910E258C938F5F80930E252F
S11356203E932E93FD014293EA87FB87CE0162E00D
S113563070E040E00E94CE11882311F080E003C0A6
S113564081E080935625DF91CF910895EF92FF92E8
S11356500F931F93DF93CF930F92CDB7DEB7909143
S11356600C25933009F467C0943041F0923009F06E
S113567074C0882309F06CC081E05FC0882309F0FE
S113568067C086E00E941818863009F047C040ECD5
S113569053E060E070E00090722404C0440F551F92
S11356A0661F771F0A94D2F740545C4F6F4F7F4FA9
S11356B08091D1249091DF248823A1F4992339F493
S11356C0CB01BA0122E330E040E050E006C0CB0158
S11356D0BA0129E130E040E050E00E94E930AB013A
S11356E0BC0110C0992339F4CB01BA0128E230E09F
S11356F040E050E0F2CF84E0440F551F661F771F4F
S11357008A95D1F781E020E030E007ED1CE2EE2439
S1135710FF240E94FB08882301F113C080917024A8
S11357208F5F80937024609112257091132582E01D
S11357300E940D2C12C0882359F40E94D82A882371
S113574061F481E08983CE0101960E94D72C05C0C3
S1135750809170248F5F809370240F90CF91DF919C
S11357601F910F91FF90EF9008950F931F938C0159
S113577080912025909121250E94100D10922025C2
S113578010922125A0911225B0911325ED91FC9141
S113579011978BE18083118283E0828314821582C6
S11357A016821782108689E595E2BD010E94450D97
S11357B010920C250E94D623C8010E94100D80E58A
S11357C06CE475E20E94DC2480915125909152256D
S11357D08F5F9F4F29F083E561E575E20E94DC2429
S11357E080914E2590914F258093142590931525F3
S11357F080912A2590912B2594FF05C084E063E5D0
S113580075E20E94DC2480E060E575E20E94DC24FD
S11358100E94262B1F910F910895EF92FF921F93E0
S1135820CF93DF93182F7B01FB01C081D18184E0EA
S113583061E774E20E94DC2440910C255091042518
S11358402091702455C0423011F0443031F4552376
S113585021F08885853008F04EC0133021F4888506
S1135860882309F087C0322F3F5F8C819D81AE81F0
S1135870BF81022E04C0B695A795979587950A9483
S1135880D2F781709070892B91F12093702411309C
S113589011F482E003C0123021F484E080930C25DB
S11358A004C0133011F410930C2580E060E774E217
S11358B00E94DC24182F8823B1F080912025909138
S11358C021250E94100D10922025109221250E945E
S11358D0D6238AEE8983188689E595E2B7010E946A
S11358E0450D10920C25812F0E94262B5AC0232F80
S11358F02B3008F4A8CF20937024123041F11330D8
S1135900D9F1113009F04DC08091202590912125C5
S11359100E94100D109220251092212580910425BB
S1135920882339F08885853010F08AEF05C08823F4
S113593011F0198202C08AEE898380E567E175E27D
S11359400E94DC24809112259091132528C05523B0
S113595039F08885853010F08AEF05C0882311F06E
S1135960198202C08AEE898380E567E175E20E94AC
S1135970DC2414C02093702480912025909121254B
S11359800E94100D109220251092212588858823CD
S113599011F0198202C08AEE89831886C7010E9419
S11359A0BC2ADF91CF911F91FF90EF900895CF9380
S11359B0DF93C0911225D09113259881298180917C
S11359C00C258250833020F5E92FF22F21E030E0BE
S11359D040E050E00090702404C0220F331F441FA5
S11359E0551F0A94D2F7209530954095509584819F
S11359F09581A681B78182239323A423B52384832D
S1135A009583A683B78380916B24BE010E940D2CDD
S1135A10DF91CF910895CF92DF92EF92FF920F938F
S1135A201F93DF93CF930F920F92CDB7DEB7D82E8B
S1135A30C92E082F192FD801ED91FC918091DF24F4
S1135A40809311258091D1248093012586818093B0
S1135A507224818180936B2482819381A481B58196
S1135A6080936C2490936D24A0936E24B0936F2440
S1135A70278120937124D0921225C09213258BE1A3
S1135A80808380916B24828380916C2490916D2417
S1135A90A0916E24B0916F2484839583A683B783E9
S1135AA0238310861186809103258823F1F4809145
S1135AB00C258823D1F480916C2490916D24A091BD
S1135AC06E24B0916F240097A105B10571F0807028
S1135AD0987F0097A105B10541F4809172248F301D
S1135AE020F480916B24882341F488EE818389E536
S1135AF095E2B8010E94450D7DC00E94B123F801D2
S1135B00E080F1801092702480916B24813008F43D
S1135B1066C0833020F0833009F061C04BC08FEF42
S1135B209FEF89839A838091D2249091D324809388
S1135B3017259093182580E5BE016F5F7F4F0E9463
S1135B40DC2480916B24813021F4D0922025C092F2
S1135B5021258AE90E94180D80931225909313251C
S1135B600097E9F180916B24823019F4C8010E94F6
S1135B70100D2091122530911325D901ED91FC913E
S1135B808BE1808380916B24828380917124838351
S1135B9080916C2490916D24A0916E24B0916F2417
S1135BA084839583A683B7831086118680916B24A2
S1135BB0B90112C08AE90E94180D809320259093A0
S1135BC02125009721F488EEF70181830CC06091B0
S1135BD012257091132583E00E940D2C0BC088EED2
S1135BE0D70111968C9389E595E2B8010E94450D81
S1135BF00E94D6230F900F90CF91DF911F910F91A8
S1135C00FF90EF90DF90CF900895EF92FF920F9363
S1135C101F93DF93CF930F92CDB7DEB790910E25EC
S1135C209F5F90930E25882309F059C080910C251D
S1135C30823091F440EC53E060E070E00090722414
S1135C4004C0440F551F661F771F0A94D2F74054AF
S1135C505C4F6F4F7F4F07C080911E2590911F2589
S1135C60AC0160E070E08091D1249091DF2488231E
S1135C70A1F4992339F4CB01BA0122E330E040E0E6
S1135C8050E006C0CB01BA0129E130E040E050E029
S1135C900E94E930AB01BC0110C0992339F4CB0157
S1135CA0BA0128E230E040E050E0F2CF94E0440F43
S1135CB0551F661F771F9A95D1F781E020E030E0E9
S1135CC007ED1CE2EE24FF240E94FB088823A1F0C8
S1135CD081E08983CE0101960E94D72C0DC080916A
