:100000000C9435010C9456010C94B4030C94DF034A
:100010000C9456010C9456010C9456010C94560104
:100020000C9456010C9456010C9456010C945601F4
:100030000C9456010C9456010C942D080C94560106
:100040000C945E080C9456010C9456010C945601C5
:100050000C9456010C9456010C9456010C945601C4
:100060000C9456010C9456010C9456010C945601B4
:100070000C9456010C9456010C9456010C945601A4
:100080000C9456010C9456010C94F8090C945601EA
:100090000C9456010C9456010C9456010C94560184
:1000A0000C9456010C9456010C9456010C94560174
:1000B0000C9456010C9456010C9456010C94560164
:1000C0000C9456010C9456010C9456010C94560154
:1000D0000C9456010C9456010C9456010C94560144
:1000E0000C9456010C9456010C9456010C94560134
:1000F0000C9456010C9456010C9456010C94560124
:100100000C9456010C9456010C9456010C94560113
:100110000C9456010C9456010C9456010C94560103
:100120000C9456010C9456010C9456010C945601F3
:100130000C9456010C9456010C9456010C945601E3
:100140000C9456010C9456010C9456010C945601D3
:100150000C9456010C9456010C9456010C945601C3
:100160000C9456010C9456010C9456010C945601B3
:100170000C9456010C9456010C9456010C945601A3
:100180000C9456010C9456010C9456010C94560193
:100190000C9456010C9456010C9456010C94560183
:1001A0000C9456010C9456010C9456010C94560173
:1001B0000C9456010C9456010C9456010C94560163
:1001C0000C9456010C9456010C9456010C94560153
:1001D0000C9456010C9456010C9456010C94560143
:1001E0000C9456010C94560103020201010000FF19
:1001F000FEFDFCFBF9F7F4EF551B861606162D24C1
:100200004A22EA207D29DC264A275D26112D9A2FD5
:1002100000000C31E2290000111A211A011AD71925
:10022000F01923193C19B91900000000FB18AC188B
:100230006F19811811199C18DD18CE188D18EC183B
:10024000010401010102010101010101010101019A
:100250000401080201010101020101020102010180
:100260000201020201010101080011241FBECFEFAB
:10027000DFE5DEBFCDBF00E00CBF10E2A0E0B0E2E2
:10028000E6ECFCE600E00BBF02C007900D92A43044
:10029000B107D9F715E2A4E0B0E201C01D92AF307A
:1002A000B107E1F70E9487030C9461360C940000BB
:1002B000089582E090E061E070E00E949D09089559
:1002C000EF92FF920F931F93662399F482E090E0E0
:1002D00060E070E00E949D0985E040E251EA67E03D
:1002E00070E020E030E009E511E0EE24FF240E94F8
:1002F00003071F910F91FF90EF900895EF92FF92E7
:100300000F931F9382E090E060E070E00E949D09EF
:1003100085E040E251EA67E070E020E030E009E586
:1003200011E0EE24FF240E9403071F910F91FF901C
:10033000EF900895EF92FF920F931F9381E090E06A
:1003400062E070E00E949D0985E040E251EA67E0CA
:1003500070E020E030E00AE911E0EE24FF240E9482
:1003600003071F910F91FF90EF900895EF92FF9276
:100370000F931F936623B9F485E00E94F40581E092
:1003800090E060E070E00E949D0984E040E854E85D
:100390006EE170E020E030E00BEE11E0EE24FF248F
:1003A0000E94030703C081E00E94B4331F910F91A4
:1003B000FF90EF900895882351F485E00E94F405A2
:1003C00081E090E060E070E00E949D09089581E086
:1003D0000E94B4330895EF92FF920F931F93DF931F
:1003E000CF93CDB7DEB72C97CDBFDEBF82E08A8337
:1003F0008EEB9AEB8B839C83809105209091062055
:100400008D839E830E94EC358983009104200F5FC9
:100410000093042082E0BE016E5F7F4F41E09E01A9
:100420002F5F3F4FEE24E3940E94C83484E040E8FD
:1004300054E86EE170E020E030E00BEE11E0EE24D5
:10044000FF240E9403072C96CDBFDEBFCF91DF9122
:100450001F910F91FF90EF900895EF92FF920F93ED
:100460001F937C01E0911020F0911120309709F149
:10047000809112208217E9F4809113208317C9F428
:10048000809114208417A9F480911520851789F490
:1004900080911620861769F480911720871749F4F8
:1004A000809118208E1529F4809119208F1509F458
:1004B0005DC000911A2010911B200115110501F15A
:1004C00080911C208217E1F480911D208317C1F4D4
:1004D00080911E208417A1F480911F20851781F43C
:1004E00080912020861761F480912120871741F4A4
:1004F000809122208E1521F4809123208F15B9F14F
:10050000EF2B19F4A0E0B0E004C0012B49F5A1E005
:10051000B0E08D010F5F1F4FFD01EE0FFF1FCD01FA
:10052000880F991F880F991F880F991FE80FF91FCF
:10053000E05FFF4D00831183FD01EE0FFF1FEE0F03
:10054000FF1FEA0FFB1FEE0FFF1FEE5EFF4D208324
:1005500031834283538364837583E682F78207C0C5
:10056000C7010FEF1FEFEE24E39403C08F01C70113
:10057000EE240E943C341F910F91FF90EF9008955C
:10058000AF92CF92EF920F93DF93CF930F92CDB7AD
:10059000DEB7882301F5633521F481E0898381E4A6
:1005A00005C0613449F481E0898382E5BE016F5F53
:1005B0007F4F0E942B3512C0623569F48EEB9AEBA7
:1005C00064E140E02FE00FE0EE24E394CC24AA2481
:1005D0000E94043303C081E00E94B4330F90CF9196
:1005E000DF910F91EF90CF90AF900895CF92DF926F
:1005F000EF920F93DF93CF930F920F92CDB7DEB7A9
:1006000040910F204F5F40930F208823C1F5F601E2
:1006100020E032C08385843169F58485882351F5D3
:10062000818192818E5B9A4B29F58585968597FF0E
:1006300021C08081823039F48381948180930520A8
:100640009093062010C0833089F527E030E2AF0197
:100650004D5F5F4F88E0DA010D90AD01D9010D9239
:100660009D018150C1F783856485AF0120E80E9418
:1006700079341FC071962F5F2E1560F202C08A3E3A
:10068000A9F4433050F481E040E058EF6FEF77E099
:1006900024E000E00E9437330CC019821A8283E5FF
:1006A000BE016F5F7F4F0E942B3503C081E00E9427
:1006B000B4330F900F90CF91DF910F91EF90DF90B7
:1006C000CF900895EF92FF920F931F938823B9F470
:1006D00081E040E058EF6FEF77E024E000E00E9417
:1006E000373385E040E251EA67E070E020E030E037
:1006F0000AE911E0EE24FF240E94030703C081E011
:100700000E94B4331F910F91FF90EF9008950E94C3
:100710006D35882311F00E9462040E94970980E0E1
:1007200090E060E070E00E949D0981E090E061E06F
:1007300070E00E949D0982E090E061E070E00E941C
:100740009D09789481E00E94B4330E945735FDCF13
:100750008093242090932520E0E4F6E091E0928BB2
:1007600084E08287948708951F920F920FB60F92AC
:100770000BB60F9211242F933F934F935F936F9378
:100780007F938F939F93AF93BF93EF93FF93E091EA
:100790002420F09125201995FF91EF91BF91AF9101
:1007A0009F918F917F916F915F914F913F912F9189
:1007B0000F900BBE0F900FBE0F901F9018951F92B9
:1007C0000F920FB60F9211240F900FBE0F901F9033
:1007D00018954F925F926F927F928F929F92AF92F5
:1007E000BF92CF92DF92EF92FF920F931F93CF931E
:1007F000DF939C016B015A01CB01820F931F815043
:10080000904110F085E84DC0A0E0B0E0C0ECD1E030
:1008100040EC51E016E0612EF8EDEF2EF12C01E0F6
:1008200010E06BEC71E0E3E37E2E95E3892E86E326
:10083000982E33C08091CF0187FDFCCFFA01128240
:100840003183522E2093C0016286C701FB0184BF11
:1008500000838091C401F501EA0FFB1F40808415DD
:10086000C9F08091CF0187FDFCCF8091CF0181FF3E
:1008700006C0FA019286C701FB0184BF00837A8615
:100880005092C00119821A824C828A86C701FB01EC
:1008900084BF00832F5F3F4F1196AC15BD0550F20A
:1008A00080E0DF91CF911F910F91FF90EF90DF904B
:1008B000CF90BF90AF909F908F907F906F905F9000
:1008C0004F9008951F93CF93DF93E0E2F6E01482F8
:1008D0008FEF8183C0E2D6E01FEF8FEF9FEF0E9482
:1008E000FC041F83FACFBF92CF92DF92EF92FF9268
:1008F0000F931F93CF93DF938130910531F4862FAF
:10090000642FA9010E94DF0835C0892B11F088EE01
:1009100031C0CA01860F971F8150904110F085E8C1
:1009200029C0A0E0B0E0C0ECD1E096E0B92E88ED9F
:10093000C82ED12C01E0E02EF12C0BEC11E016C0FA
:100940008091CF0187FDFCCF1A8279836093C0012B
:10095000BA86C601F80184BFE0828091C401F90122
:10096000EA0FFB1F808311966F5F7F4FA417B507B7
:1009700038F380E0DF91CF911F910F91FF90EF90BE
:10098000DF90CF90BF9008950E94CA0608950E94FC
:100990009A080E94B5080E94210A0E9471080E94CC
:1009A00090080E94940880E00895892B19F488E04B
:1009B000809300080895FC0120910C2430910D24AF
:1009C000C901A0E0B0E0BC01552744278091200870
:1009D00090912108A0E0B0E0482B592B6A2B7B2B8B
:1009E00080910C2490910D242817390729F7408312
:1009F00051836283738308954FB7F89486309105CD
:100A000018F12091200830912108280F391F80917A
:100A10002008909121088217930740F480912008C4
:100A20009091210882179307C8F30EC08091200887
:100A30009091210828173907C8F3809120089091D8
:100A4000210882179307C8F34FBF089520E090E074
:100A5000FC0153E0EE0FFF1F5A95E1F7E80FF91F75
:100A6000E25FFB4D84819581892B09F021E0822F83
:100A70000895DF92EF92FF920F931F93DFB6F894E1
:100A8000809128208F3F09F456C090E0FC01A3E03C
:100A9000EE0FFF1FAA95E1F7E80FF91FE25FFB4D8C
:100AA000E080F1800281138120910C2430910D248B
:100AB000C801AA27BB272817390769F4E09228083C
:100AC000F092290880910C08806180930C08809135
:100AD0000708836003C0809107088C7F8093070814
:100AE00060910C2470910D249B0140E050E08091B6
:100AF000200890912108A90133272227A0E0B0E027
:100B0000282B392B4A2B5B2B80910C2490910D24A0
:100B10006817790729F72E193F09400B510B2F5FF2
:100B20003F4F4F4F5F4F2F5F3F4F4F4F5F4718F47F
:100B300081E080932720DFBE1F910F91FF90EF90FF
:100B4000DF90089580912720882309F44CC01092EB
:100B5000272030912620332309F445C08091292095
:100B60008F3F59F480912A208F3F39F480912820BB
:100B700080932A208093292012C0209128208091E0
:100B80002A2090E0FC0143E0EE0FFF1F4A95E1F7B9
:100B9000E80FF91FE25FFB4D208720932A20809108
:100BA000282090E0FC0123E0EE0FFF1F2A95E1F7DB
:100BB000E80FF91FE25FFB4D80858093282080912C
:100BC0002A2090E0FC01B3E0EE0FFF1FBA95E1F799
:100BD000E80FF91FE25FFB4D8FEF808731503093B4
:100BE00026200E9439050895FF920F931F93182F16
:100BF000863010F08AE8C5C0FFB6F8940E94A205BE
:100C000000912620002309F4C0C040912820842FA1
:100C1000242F302F1217F1F5212F30E0141781F413
:100C2000F90163E0EE0FFF1F6A95E1F7E20FF31F92
:100C3000E25FFB4D8085809328200E94390518C013
:100C400090E0DC0153E0AA0FBB1F5A95E1F7A80F13
:100C5000B91FA25FBB4DF90143E0EE0FFF1F4A959C
:100C6000E1F7E20FF31FE25FFB4D808518968C934E
:100C7000812F90E0FC0123E0EE0FFF1F2A95E1F7A2
:100C8000E80FF91FE25FFB4D8FEF80870150009363
:100C9000262062C0822F90E0FC01B3E0EE0FFF1F20
:100CA000BA95E1F7E80FF91FE25FFB4D508531502F
:100CB000822F09F46AC0252FADCF1217D1F52091EC
:100CC0002A201317B1F4121721F48FEF80932A20F2
:100CD0000DC0812F90E0FC01A3E0EE0FFF1FAA954D
:100CE000E1F7E80FF91FE25FFB4D80858093292033
:100CF00033C0842F90E0DC01E3E0AA0FBB1FEA952C
:100D0000E1F7A80FB91FA25FBB4D812F90E0FC0156
:100D100073E0EE0FFF1F7A95E1F7E80FF91FE25F2E
:100D2000FB4D808518968C931217B1F440932A20BE
:100D300013C0822F90E0FC0163E0EE0FFF1F6A9565
:100D4000E1F7E80FF91FE25FFB4D422F20852F3FAF
:100D500009F0B3CF80E00FC0812F90E0FC0153E099
:100D6000EE0FFF1F5A95E1F7E80FF91FE25FFB4D09
:100D70001482158281E0FFBE882311F489E801C046
:100D800080E01F910F91FF90089530912920432F0B
:100D9000232FDDCF1F931FB7F8940E94A2051FBF1A
:100DA0001FEF25C06FB7F894822F90E0FC0173E02D
:100DB000EE0FFF1F7A95E1F7E80FF91FE25FFB4D99
:100DC0002085448155818681978110871482158200
:100DD000168217822F3F09F43FEF6FBF411551056F
:100DE00051F030932A2020932920FA01199530914F
:100DF0002A20209129202F3FA9F630932A202093E2
:100E000029201F9108952F923F924F925F927F92D7
:100E10008F929F92AF92BF92CF92DF92EF92FF920A
:100E20000F931F93CF93DF93782E5A016B014901E3
:100E300095E0292E281610F48AE8E2C00115110564
:100E400009F4DBC0C82FD0E0FE0183E0EE0FFF1FE6
:100E50008A95E1F7EC0FFD1FE25FFB4D84819581E0
:100E6000892B11F088E8CCC060910C2470910D247E
:100E70009B0140E050E08091200890912108A90159
:100E800033272227A0E0B0E0282B392B4A2B5B2BFD
:100E900080910C2490910D246817790729F781140B
:100EA000910431F061E08616910409F0A6C011C0EA
:100EB000D601C50180589040A040B04080589F4F57
:100EC000AF4FBF4708F09BC0A20EB31EC41ED51E75
:100ED00010C0D601C50180589040A040B040821B90
:100EE000930BA40BB50B80589F4FAF4FBF4708F033
:100EF00086C09FB6F8940E94A205509128205F3FBB
:100F000031F060912620452F252F30E054C070929B
:100F10002820FE01A3E0EE0FFF1FAA95E1F7EC0FDA
:100F2000FD1FE25FFB4D508731C02F3F09F43EC0EB
:100F3000822F90E0FC0173E0EE0FFF1F7A95E1F73E
:100F4000E80FF91FE25FFB4D80819181A281B3819F
:100F500015012601281A390A4A0A5B0AD201C10181
:100F60008F5F9F4FAF4FBF4710F4808521C0FE01B8
:100F700033E0EE0FFF1F3A95E1F7EC0FFD1FE25F44
:100F8000FB4D2087521721F47092282091E017C062
:100F9000842F90E0FC0123E0EE0FFF1F2A95E1F77C
:100FA000E80FF91FE25FFB4D708655C08FEF242FCD
:100FB0003F5F422F282F361708F4B7CF33C0FE010A
:100FC00083E0EE0FFF1F8A95E1F7EC0FFD1FE25F54
:100FD000FB4DA082B182C282D38204831583E68254
:100FE000F782809126208F5F80932620992311F02D
:100FF0000E9439059FBE80E003C088EE01C08BE8E7
:10100000DF91CF911F910F91FF90EF90DF90CF90E4
:10101000BF90AF909F908F907F905F904F903F9048
:101020002F900895842F90E0FC01B3E0EE0FFF1F96
:10103000BA95E1F7E80FF91FE25FFB4D7086FE01FC
:10104000A3E0EE0FFF1FAA95E1F7EC0FFD1FE25F93
:10105000FB4D8FEF808790E0B2CF1F920F920FB6BB
:101060000F920BB60F9211242F933F934F935F93E0
:101070006F937F938F939F93AF93BF93EF93FF9360
:1010800080910C2490910D24019680930C249093D0
:101090000D240E943905FF91EF91BF91AF919F916F
:1010A0008F917F916F915F914F913F912F910F9011
:1010B0000BBE0F900FBE0F901F9018951F920F92AE
:1010C0000FB60F9211248F9380912620882319F058
:1010D00081E0809327208F910F900FBE0F901F907B
:1010E0001895109226201092272010920C2410920E
:1010F0000D248FEF809328208093292080932A202D
:10110000E2E1F4E2848310821182399694E2E834B9
:10111000F907C1F70E94D2080895089581E0089563
:1011200084E8809380010895E0EAF0E082818460A1
:101130008283089582E0809350008091510081FF66
:10114000FCCF98ED94BF84E0E0E4F0E0818394BFAD
:1011500081E08093400082E0E0E5F0E086838091CA
:1011600060008160809360000895E0E4F6E0808193
:1011700080618083808180688083808181608083BA
:1011800080818062808380818860808380818F7B82
:101190008083E0E6F6E080ED818380E2828380E177
:1011A0008583089588E08093000880EF80930C0881
:1011B00080E380934C0883E08093060808956F9243
:1011C0007F929F92AF92BF92CF92DF92EF92FF9267
:1011D0000F931F93DF93CF93CDB7DEB7C054D040AA
:1011E000CDBFDEBFD82EA62EC42EB52E3E0108944C
:1011F000611C711C662DA0E4B6E0EE24E39490E13E
:10120000F92E00EC18E083E0982E20EC38E0AE01D7
:10121000405C5F4F962D961B709149068091490660
:101220008C7F19968C9319971696EC9216971696B2
:10123000FC92169700000000000000000000000073
:10124000000000000000000000000000000000009E
:1012500000000000F80193828091C20887FFFCCF54
:101260009F77F90193838091C20887FFFCCFF90132
:1012700013828091C20887FFFCCF8091C308159626
:10128000FC9215971596EC92159719967C931997E1
:10129000F30180836416750621F00894611C711CAB
:1012A000B9CFFE01319620E030E0DE01AF5BBF4FE9
:1012B00081912827022E2295207F2025032E322F70
:1012C00022952F700226269532272327220F220FE0
:1012D000220F2025EA17FB0759F7232B11F085E889
:1012E00014C0DE011196AD0DB11D8C2D9B2D9C01FE
:1012F000AD0106C0FA018191AF01F90181939F010F
:10130000842F8A1B8A15B0F380E0C05CDF4FCDBF0D
:10131000DEBFCF91DF911F910F91FF90EF90DF9093
:10132000CF90BF90AF909F907F906F900895E0E234
:10133000F6E087E08183868308958130910519F076
:10134000029719F404C021E003C020E001C022E0AC
:101350006115710521F061307105A9F40BC081E0C0
:1013600090E002C0880F991F2A95E2F7E0E2F6E0CC
:101370008583089502C0660F771F2A95E2F7E0E2A1
:10138000F6E06683089581E090E002C0880F991F1F
:101390002A95E2F7E0E2F6E087830895E0E2F6E0DE
:1013A00088E0828388E1838B0895E0E2F6E020857F
:1013B00030E043E0369527954A95E1F7217030708B
:1013C000C90108952FB7F89498E09093B000E0E237
:1013D000F6E08BE1838B81858C7F826081879287A9
:1013E000E0EAF0E082818260828378942FBF0895E2
:1013F0001F920F920FB60F920BB60F9211248F937C
:10140000EF93FF93E0E2F6E08285877F8287E8E44E
:10141000F0E080818E7F8083FF91EF918F910F901C
:101420000BBE0F900FBE0F901F9018950E94E209FF
:10143000E8E4F0E08081807F8560808378948895FF
:10144000089580E58093C00880E1E0E4F6E08583BC
:101450000895E0E4F6E020914906909149069C7FCA
:101460009187806C90E19683E0ECF8E08383809133
:10147000C20887FFFCCFE0ECF8E063838091C208EC
:1014800087FFFCCFE0E4F6E080E1858321870895C3
:10149000E0E4F6E020914906909149069C7F91870F
:1014A000806890E19683E0ECF8E083838091C20845
:1014B00087FFFCCFE0ECF8E013828091C20887FF41
:1014C000FCCF8091C308E0E4F6E090E195832187AA
:1014D0000895CF93DF93DC0180E1E0E4F6E08683BA
:1014E00080E2E0ECF8E083838091C20887FFFCCFC4
:1014F000E0ECF8E013826130A9F0FD01262FC0EC8A
:10150000D8E08091C20887FFFCCF8091C3081B827E
:10151000819321502230A8F76250862F90E00196E7
:10152000A80FB91F8091C20887FFFCCF8091C30824
:101530008C9380E1E0E4F6E08583DF91CF9108951C
:10154000DC0180E1E0E4F6E0868380E6E0ECF8E0B0
:1015500083838091C20887FFFCCFE0ECF8E09D9187
:1015600061508091C20887FFFCCF93836623B9F74F
:101570008091C20887FFFCCF80E1E0E4F6E085833C
:101580000895FF920F931F93062FF42E0E94480A8E
:10159000082310E002C015950795FA94E2F7802F12
:1015A0001F910F91FF900895DF92EF92FF920F939A
:1015B0001F93D82EF62EE42E022F0E94480A10E028
:1015C00002C0000F111FEA94E2F76F2D6023F09420
:1015D000F8226F298D2D0E94290A1F910F91FF90EB
:1015E000EF90DF900895BC01009721F08FED93E21A
:1015F0000E94280B08958FED93E260E070E00E9456
:10160000BD0B08950F931F93CF93DF938FED93E25C
:101610000E94210BC7ECD3E20BE210E2088319838E
:101620008FED93E2BE010E94280B249606561F4FB1
:1016300083E2CF3DD80791F7DF91CF911F910F91B2
:101640000895FC011082118212821382148208957F
:10165000CF93DF93DC01EB019FB7F89414968C9144
:101660001497882321F46D937C93119706C01296EA
:10167000ED91FC911397628373831296CD93DC9363
:1016800013971A821B8214968C9114978F5F14966D
:101690008C939FBFDF91CF9108959F92AF92BF929D
:1016A000CF92DF92EF92FF920F931F93CF93DF932E
:1016B0008C015B016A019FB6F894DC0114968C9151
:1016C000882319F4C0E0D0E04AC0F801C081D1817C
:1016D00041155105B1F07E0111C0D60112966D91F0
:1016E0007C911397ED91FC918881998119958823BC
:1016F00059F47E018A819B819C01E901209769F759
:101700002EC0209761F17E01AB2849F5F801808158
:1017100091812A813B81C817D90719F4208331832D
:1017200005C0D70112962D933C931397F80182813F
:101730009381C817D90711F4E282F382D801149675
:101740008C911497815014968C9314978D919C9141
:101750001197892B21F412961D921C9213979FBE0C
:10176000CE01DF91CF911F910F91FF90EF90DF900D
:10177000CF90BF90AF909F900895AB0160E070E074
:101780000E944D0B0895AB0161E070E00E944D0B8B
:101790000895CF93DF93EC010BC0CE0160E070E0C1
:1017A0000E94BD0B009711F41C8205C00E94F30A31
:1017B0008C81882391F7DF91CF9108951F9381E069
:1017C0006FE140E00E94C10A8830A1F48FE00E94DE
:1017D000480A82E069E00E94290A10E08FE00E9436
:1017E000480A80FD07C08EE690E00E94FC041F5F5F
:1017F0001330A1F71F9108950F931F93082F809125
:1018000064248F3039F59FB7F894789488E0E0E449
:10181000F6E0868380916D248823E1F39FBF1092C8
:101820006D248FE00E94480A8FE394E10E94A80390
:101830008EE06CE00E94290A8DE064E042E021E045
:101840000E94D40A083011F0033021F488E080931C
:101850006424DFC181E06FE140E00E94C10A80930F
:101860006424083009F45BC0093050F4043009F4F2
:10187000A8C0063009F4B2C0033009F0C1C167C086
:101880000F3069F0003120F4093009F0B9C177C098
:10189000063109F4DCC0093109F0B2C144C182E06B
:1018A00063E00E94290A8DE064E042E020E00E94AB
:1018B000D40A0E94EC35682F192F8DE20E94290A64
:1018C0008EE267E040E0212F0E94D40A8FE00E9460
:1018D000480A86E394E10E94A8038EE06FEF40E09F
:1018E00020E10E94D40A0000000000000000000077
:1018F00000000000000000000000000000000000E8
:1019000000000000000088E0E0E4F6E0858383E268
:1019100090E00E94FC04009364248FE07AC1883038
:1019200009F46EC182E068E00E94290A000000000C
:1019300000000000000000000000000000000000A7
:1019400000000000000000000000000059C18830C5
:1019500009F456C182E063E00E94290A00000000F9
:101960000000000000000000000000000000000077
:1019700000000000000000000000000041C18830AD
:1019800029F1893020F4863009F03AC105C086314A
:1019900019F0893109F034C182E069E00E94290A16
:1019A0000000000000000000000000000000000037
:1019B0000000000000000000000000000000000027
:1019C0001FC1883019F0893021F41AC10E94DE0B42
:1019D00017C182E064E00E94290A12C1893059F0DF
:1019E0008A3020F4883009F00BC11AC0863119F012
:1019F000893109F005C182E066E00E94290A0000F1
:101A000000000000000000000000000000000000D6
:101A10000000000000000000000000000000F0C016
:101A20000E94DE0B82E066E00E94290A00000000AE
:101A300000000000000000000000000000000000A6
:101A4000000000000000000000000000D9C0883045
:101A500001F1893020F4863009F0D2C031C08930DC
:101A600019F0893109F0CCC082E066E10E94290AB0
:101A70000000000000000000000000000000000066
:101A80000000000000000000000000000000000056
:101A9000B7C00E94DE0B82E066E10E94290A0000C6
:101AA0000000000000000000000000000000000036
:101AB0000000000000000000000000000000A0C0C6
:101AC00082E069E00E94290A000000000000000096
:101AD0000000000000000000000000000000000006
:101AE000000000000000000081E06FE140E00E9483
:101AF000C10A80936424893009F08BC082E066E1DA
:101B00000E94290A00000000000000000000000000
:101B100000000000000000000000000000000000C5
:101B2000000000006DC0883009F454C0893020F4F2
:101B3000863009F065C01BC0893021F0863109F07C
:101B40005FC015C082E069E10E94290A0000000020
:101B50000000000000000000000000000000000085
:101B600000000000000000000000000049C082E00A
:101B700069E00E94290A0000000000000000000047
:101B80000000000000000000000000000000000055
:101B900000000000000081E06FE140E00E94C10A07
:101BA00080936424893009F034C082E069E10E94A6
:101BB000290A0000000000000000000000000000F2
:101BC0000000000000000000000000000000000015
:101BD000000016C00E94DE0B82E069E10E94290A23
:101BE00000000000000000000000000000000000F5
:101BF00000000000000000000000000000000000E5
:101C000081E06FE140E00E94C10A809364248F313B
:101C1000B9F31F910F910895809155248823E1F025
:101C200080916E248823C1F48091E4239091E52370
:101C3000892B39F48AE90E94FB0A8093E42390936C
:101C4000E5238091E4239091E523892B29F01092DC
:101C5000552486E10E94FC0B80915A24882351F080
:101C600086E594E260E070E00E94BD0B009711F001
:101C70000E94470E80916E24823019F0853031F435
:101C800003C00E948B0F08950E94BB0F0895EF922E
:101C9000FF920F931F93CF93DF937C01DC010D9193
:101CA0001C91D8011796ED91FC9118978081809333
:101CB0006624C82FD0E02196CE0FDF1F988129819E
:101CC0002F3110F02EE103C0222309F421E0929578
:101CD0009695969593708FEF989FC001112430E0F0
:101CE000FC01E29FC001E39F900DF29F900D112433
:101CF0006AE570E00E947D356F3F710511F008F0D4
:101D00006FEF6883D8011196ED92FC921297C8018B
:101D10000E94731ADF91CF911F910F91FF90EF9066
:101D20000895DF92EF92FF920F931F93DF93CF936B
:101D30000F92CDB7DEB7E091E423F091E523309721
:101D4000C1F1E080F18087E00E94480AD82ECE01E0
:101D5000019661E00E94690A698167FD2AC06D5F92
:101D60000AE910E0061B11090E0D1F1D6150C80184
:101D70000E94690AF701078310878981080F111DE6
:101D8000F801D2826091E4237091E52386E594E224
:101D90000E94280B8AE90E94FB0A8093E423909317
:101DA000E523892B31F489E00E94FC0B81E08093CC
:101DB00055240F90CF91DF911F910F91FF90EF90DD
:101DC000DF900895882311F087E005C082E060EE7F
:101DD00045E00E94C10A8093E62382E080936E244E
:101DE0008091E4239091E523892B39F489E00E94C6
:101DF000FC0B81E080935524089586E10E94FC0B42
:101E00000895EF92FF920F931F93CF93DF937C017E
:101E1000EB01042F442331F08CE260EF44E0209189
:101E2000632404C08CE260EF44E020E00E94D40A06
:101E3000C230D10598F4002361F08CE26EE041E0FD
:101E400020915B240E94D40A8FE260E00E94290A5C
:101E500016C08CE26EE041E027E00FC060915F2485
:101E60006295607F80916224682B8FE20E94290A2C
:101E70008CE26EE041E020915B240E94D40A89E16B
:101E80000E94FC0B8931D9F7809149068C7FE0E4F0
:101E9000F6E08187219759F480916624833118F008
:101EA00080E492E002C080E890E00E94FC0400E43C
:101EB00016E088E0F80185838683F7016081615030
:101EC000C7010E94A00A81E080936E248091490698
:101ED0008360F8018187DF91CF911F910F91FF906F
:101EE000EF900895FC0180916E24882311F086E81C
:101EF0000895E0936024F093612487819085809316
:101F0000672490936824009711F488EE08950E9446
:101F1000010F80E0089510926E248091E6238330B3
:101F2000B1F0843028F4882331F08130E1F409C025
:101F30008530C9F412C0609160247091612480E002
:101F400017C0609160247091612487E811C060918E
:101F500060247091612481EE0BC0609160247091C7
:101F6000612489EE05C0609160247091612485E848
:101F70000E94922B089585E160E847E020E00E94EE
:101F8000D40A8FE394E10E94A8038EE06CE00E94E3
:101F9000290A809149068360E0E4F6E08187109287
:101FA0006E2486E10E94FC0B9091E723993320F088
:101FB0008FEF8093E7230AC08FEF989FC001112411
:101FC00068E370E00E947D356093E7238091E7230A
:101FD0000E94642F08951F93CF93DF93182F809151
:101FE0006E24882341F0809164248F3011F086E8BC
:101FF00060C081E85EC0C0E4D6E0809149068C7F75
:1020000089878FE00E94480A85E160E847E021E087
:102010000E94D40A8DE590E10E94A8038EE06FEF44
:1020200040E020E10E94D40A8091490683608987BC
:1020300086E00E94FC0B8630A1F085E160E847E075
:1020400020E00E94D40A8FE394E10E94A8038EE06E
:102050006CE00E94290A809149068360898785E89F
:1020600028C087E06FEF0E94290A84E080936E24E5
:102070001092E72380EC93E0A0E0B0E004C0880F6A
:10208000991FAA1FBB1F1A95D2F780549C4FAF4FC0
:10209000BF4F23E0B695A795979587952A95D1F7D9
:1020A0008093E8239093E923A093EA23B093EB2352
:1020B00080E0DF91CF911F9108958FE00E94480A40
:1020C00084FF29C087E00E94480A982F8091E72367
:1020D000891710F49093E7238091E8239091E923E6
:1020E000A091EA23B091EB230197A109B109809354
:1020F000E8239093E923A093EA23B093EB2300977E
:10210000A105B10529F087E06FEF0E94290A089523
:1021100085E080936E240895282F85FD03C0982FB5
:102120009F7304C0982F91959F719195E8EEF1E00F
:102130008491891734F03F968491981714F0822F78
:102140000CC0803E3CF080323CF487FF06C08F71AB
:10215000806203C080E201C08FE18068089584E05E
:1021600080935B2423E0209362248FEF9FEF809382
:1021700050249093512480935324909354248BE0C3
:1021800080935D2480E098EFAFEFB7E080936924FF
:1021900090936A24A0936B24B0936C2410924F24E4
:1021A0008AE091E080934D2490934E248AE08093BE
:1021B000652482E080935C2485E080935F242093F3
:1021C000632483E80E948C108093442481E08093F0
:1021D000522410925E24089585FD03C0982F9F73AA
:1021E00004C0982F91959F719195E8EEF1E080E001
:1021F0002491921724F029173CF4815008958F5FA1
:1022000031968031A9F780E008951F93CF93DF9333
:1022100082E2609150240E94290A83E26091512455
:102220000E94290AC5E4D4E214E2812F69910E9438
:10223000290A1F5F1C32C9F780E2609153240E9473
:10224000290A81E2609154240E94290A88E060E60C
:1022500045E0209152240E94D40A8FE26FE040E0D2
:10226000209162240E94D40A8EE268E043E020912B
:102270005E240E94D40A8FE260EF44E020915F2444
:102280000E94D40A88E06FE140E020915D240E9422
:10229000D40A809144240E94EC10282F85E06FE03E
:1022A00040E00E94D40ADF91CF911F9108951F93BF
:1022B000CF93DF93EB0190916E24943009F4D6C054
:1022C0008E3431F0893541F4888180936324D2C003
:1022D000888180935B24CEC0209164242F3011F438
:1022E00081E8C9C08B3009F4B8C08C3070F48230FA
:1022F00009F47BC0833018F48823D9F115C08330EA
:1023000009F481C0843081F461C0833511F18435D2
:1023100028F48F3459F0803539F40DC0873509F42D
:102320005DC0803F09F476C084EFA5C0288120936A
:1023300062248FE265C088819981682F8093502440
:102340009093512482E20E94290A83E260915124F1
:102350000DC088819981682F8093532490935424D1
:1023600080E20E94290A81E2609154240E94290A95
:1023700081C0992309F07AC080E098EFAFEFB7E011
:10238000088004C0B695A795979587950A94D2F7CB
:1023900081709070892B09F46BC0283011F418E01B
:1023A00006C088E00E94FC0B8830D9F716E128812E
:1023B00020935D2488E06FE140E00E94D40A183049
:1023C00009F458C086E10E94FC0B54C0992309F01F
:1023D0004DC08881882309F44DC04AC028812093CC
:1023E0005F248FE260EF44E03EC088818093442404
:1023F0000E948C10809344240E94EC10282F85E0CA
:102400006FE040E030C028812093522488E060E6ED
:1024100045E029C0888180934524898180934624A2
:102420008A81809347248B81809348248C81809378
:1024300049248D8180934A248E8180934B248F81FF
:1024400080934C24C5E4D4E214E2812F69910E9468
:10245000290A1F5F1C32C9F70DC0288120935E2412
:102460008EE268E043E00E94D40A04C086E803C01C
:1024700088EE01C080E0DF91CF911F910895DF9237
:10248000EF92FF920F931F93DF93CF930F92CDB7ED
:10249000DEB7D82E81E090E065E170E041E050E0E9
:1024A0009E012F5F3F4F0E94730400E416E088E016
:1024B000F80186838CE791E00E94FC04FF24F394EA
:1024C000F801F68281E090E00E94FC04F801F582B8
:1024D00010E084E690E00E94FC0481E06FE140E0BF
:1024E0000E94C10A1A3011F485E83AC0883011F010
:1024F0001F5FEFCF8093642429812223D1F182E1F1
:102500006FE040E00E94D40A34C086E060E645E017
:102510000E94C10A9801220F331F220F331F082F78
:1025200010E0022B132BF394F8E0FF1671F783E011
:102530000E94FC0B8FE00E94480AE0E4F6E081E094
:102540008487E186C8010E94F135DD2011F00E94E8
:10255000AF100E94051110926E241092552480E055
:102560000F90CF91DF911F910F91FF90EF90DF902F
:10257000089583E060E344E020E00E94D40A83E011
:1025800068E043E020E00E94D40A83E067E040E096
:1025900021E00E94D40A8EE260E245E021E00E9440
:1025A000D40A8CE060E847E021E00E94D40A84E08D
:1025B00062E041E021E00E94D40A8EE06CE00E94DB
:1025C000290A8DE063E040E021E00E94D40A8AE01D
:1025D0006FE040E023E00E94D40A8DE068E043E031
:1025E00021E00E94D40A8DE064E042E021E00E94F4
:1025F000D40A86E00E94FC0BE090490680914906CF
:102600008C7FE0E4F6E0818700E010E0FF247DCFDE
:102610001F930E943F12882361F085E82DC086E554
:1026200094E260E070E00E94BD0B009711F00E9400
:10263000F30A80915A24882391F78FE394E10E9452
:10264000A803E0E4F6E081E0848780914906836096
:1026500081870E94EC35682F192F8DE20E94290A8C
:102660008EE267E040E0212F0E94D40A80E00E94C1
:102670007B140E94681480E01F910895FF920F93CD
:102680001F93CF93DF930E94C704882309F0E7C00C
:1026900000E416E0FF24F394F801F58288E08683D5
:1026A0008AE491E00E94FC04F801F68281E090E067
:1026B0000E94FC04F801F58200E004C00F5F0A30BC
:1026C00009F4CDC084E690E00E94FC048DE10E94F4
:1026D000480A823099F78CE10E94480A833071F7EA
:1026E00082E068E00E94290A00E084E690E00E940F
:1026F000FC0481E06FE140E00E94C10A0A3009F465
:10270000AEC0883011F00F5FF0CF8093642481E079
:1027100090E060E070E048E050E025E434E20E94A0
:10272000730481E00E943F12882351F098C0C5E4F1
:10273000D4E20E94EC358993F4E2CD34DF07C9F787
:10274000809145243091462440914724609148244B
:1027500070914924F0914A24B0914B2450914C241B
:10276000182F115091E0181708F090E0832F815036
:1027700021E0831708F020E0092F080F91E00817E7
:1027800008F090E0292B842F815031E0841708F065
:1027900030E0A22FA80F91E0A81708F090E0392BA5
:1027A000862F815021E0861708F020E0E32FE80F04
:1027B00091E0E81708F090E0292B872F815031E055
:1027C000871708F030E0622F680F91E0681708F073
:1027D00090E0392B8F2F815021E08F1708F020E0F7
:1027E000432F480F91E0481708F090E0292B8B2FDA
:1027F000815091E08B1708F090E0322F380F21E0E4
:10280000381708F020E0922B5195591779F43F3F83
:1028100069F44F3F59F46F3F49F4EF3F39F4AF3F4C
:1028200029F40F3F19F41E3F08F081CF8FE394E1A4
:102830000E94A803809149068360E0E4F6E0818766
:102840000E94020B8AE90E94FB0A8093E423909382
:10285000E52386E594E20E94210B80E001C085E833
:10286000DF91CF911F910F91FF9008958FE00E940B
:10287000480A84FF03C081E080936D2408958FE0AF
:102880000E94480A282F83FF0CC080916E2481305B
:1028900029F426FF80E00E94E20E08950E94910E26
:1028A000089582FF14C08DE060E847E00E94C10AED
:1028B000882339F48DE063E040E021E00E94D40AEF
:1028C00008958DE063E040E022E00E94D40A08957C
:1028D000809164248F3011F082E8089588E00E948E
:1028E000FC0B883011F085E8089581E090E00E94AB
:1028F000D50480E00895882311F088EE0895809132
:1029000064248F3011F481E8089580916E24882327
:1029100091F41092552488E00E94FC0B8830D9F77E
:1029200080E090E00E94D5048FE00E94FC0B8F3085
:1029300011F480E0089586E80895982F80916E2420
:10294000882311F086E80895983039F488E00E94D1
:10295000FC0B1092552488E008958091E423909117
:10296000E523892B29F086E10E94FC0B86E008957F
:1029700081E08093552486E00895CF93DF93DC01B6
:102980009C9111962C91119780916F24882321F4AA
:10299000CD010E94F30A1AC0E92FF22F9F012F5F89
:1029A0003F4F42EF54E288E0EA010990AE01E901AD
:1029B00009929E018150C1F78091FD24818783E1B6
:1029C00080838AE095E2BD010E94280BDF91CF91C0
:1029D0000895DC01ED91FC91119784E1808363837C
:1029E000418352838AE095E2BD010E94280B08953D
:1029F0000F931F93DF93CF930F920F92CDB7DEB754
:102A0000A0919324B0919424ED91FC91119784E1CD
:102A100080838BEE83830FEF1FEF018312838AE0A5
:102A200095E2BD010E94280B1092822409831A832B
:102A300080E5BE016F5F7F4F0E942E270093C9245F
:102A40001093CA241092D7241092D8241092D9241B
:102A50001092DA241092DB241092DC241092DD24F0
:102A60001092DE240E947D250F900F90CF91DF9170
:102A70001F910F910895EF92FF920F931F93E09093
:102A8000D324F090D42480E061E040E020E030E006
:102A900000E010E00E94B61E8823A9F4A0919324C0
:102AA000B0919424ED91FC91119784E1808381EEA3
:102AB00083838FEF9FEF818392838AE095E2BD014C
:102AC0000E94280B19C0A70160E070E084E0440F69
:102AD000551F661F771F8A95D1F780E020E030E010
:102AE00008EF14E1EE24FF240E940307882321F05D
:102AF00080E090E00E94F8141F910F91FF90EF90FA
:102B00000895FF920F931F93DF93CF930F920F922D
:102B1000CDB7DEB7F090FF240E94F30AFF20B1F595
:102B200083E56DEF74E20E942E272091FD24309101
:102B3000FE248091F2248093D7248091F324809303
:102B4000D8248091F4248093D9248091F524809313
:102B5000DA248091F6248093DB248091F7248093FB
:102B6000DC248091F8248093DD248091F9248093E3
:102B7000DE2481E0809306251092822480918D24AA
:102B8000833031F582E080938D2422C0109282241C
:102B90000FEF1FEF09831A8380E5BE016F5F7F4F40
:102BA0000E942E270093C9241093CA241092D72480
:102BB0001092D8241092D9241092DA241092DB2497
:102BC0001092DC241092DD241092DE242FEF3FEFD0
:102BD000E0919324F0919424A081B18184E18C93BD
:102BE0001396FC92139711962D933C9312978AE0BB
:102BF00095E2BF010E94280B0E947D250F900F9047
:102C0000CF91DF911F910F91FF9008950F931F9324
:102C1000DF93CF93CDB7DEB72C97CDBFDEBFAC012E
:102C2000DE011196FC01808191819C01F9018CE00B
:102C300001900D928150E1F7DA010D911C91809184
:102C400006258250823020F0CA010E94F30A56C045
:102C500082E0F8018083D801AC56BF4FFD0181931B
:102C60008A859B8511968D939C9312978C85828380
:102C70009D0128503040D901E5E4F4E288E001905C
:102C80000D928150E1F7F90138979F01BE016E5F07
:102C90007F4F88E0DB010D90BD01D9010D929D01B0
:102CA0008150C1F780915024909151249293829346
:102CB00080918E2482938F5F80938E2483E69CEC98
:102CC000929382938BE18293D8011796ED93FC93B4
:102CD000189716961C9281E794E2BA010E94280B7D
:102CE0008091902490919124F8018483958381E0D0
:102CF0000E942605882311F40E94DE222C96CDBF67
:102D0000DEBFCF91DF911F910F910895CF92DF9297
:102D1000EF92FF921F93DF93CF93CDB7DEB72F973C
:102D2000CDBFDEBFAC017C01DE011196FC018081CC
:102D300091819C01F9018FE001900D928150E1F7A2
:102D400040939324509394248C81823019F48F8182
:102D500098851AC08F818093D72488858093D82442
:102D600089858093D9248A858093DA248B85809302
:102D7000DB248C858093DC248D858093DD248E85F7
:102D80008093DE248EEF9FEF8093C9249093CA2412
:102D900080E5BE016B5F7F4F0E942E270E94582561
:102DA000D701CD90DC9081E0F6018083E182F28250
:102DB000EA56FF4F80838F8581839F0128503040E2
:102DC000D901E5E4F4E288E001900D928150E1F749
:102DD000F9018FEF9FEF929382938C81823051F4AF
:102DE0008091C9249091CA249293829345E123E271
:102DF00038EC11C0F9013A979F0147ED54E288E0A1
:102E0000DA010D90AD01D9010D929D018150C1F7FC
:102E10004BE123E23CEC8091502490915124929319
:102E2000829380918E2482938F5F80938E2432933D
:102E300022934293D6011796ED93FC93189784E062
:102E4000BE016D5F7F4F0E942E27182F80E0BE01CC
:102E50006E5F7F4F0E942E27112371F4882361F447
:102E6000C60162E070E041E00E94720F882321F405
:102E700081E08093072512C0D701ED91FC9184E198
:102E8000808381EE83838FEF9FEF818392838AE03B
:102E900095E2B7010E94280B0E947D252F96CDBF99
:102EA000DEBFCF91DF911F91FF90EF90DF90CF9029
:102EB0000895FC018091EE238730F0F4A781B0855E
:102EC00012968C9112978695869583708230A1F424
:102ED000E091EC23F091ED233297E093EC23F09313
:102EE000ED2316968D919C91179780839183809105
:102EF000EE238F5F8093EE2380E00895FC018091A4
:102F0000EE238730F0F40780F085E02D82818695EE
:102F1000869583708330A9F48091EC239091ED2302
:102F200008978093EC239093ED23DC01369688E09C
:102F300001900D928150E1F78091EE238F5F809395
:102F4000EE2380E008959F92AF92BF92CF92DF92DE
:102F5000EF92FF920F931F93DF93CF9300D00F92C6
:102F6000CDB7DEB7FB01A080B180D50111966D937E
:102F70007C9312978AE08C9378E9C72ED12CCA0CE7
:102F8000DB1C80918F24882319F46DE0962E0EC0EF
:102F9000482F50E0C41AD50A5DE0952E980E25E919
:102FA00034E2C601B90150E00E94FC3580917524DD
:102FB000882309F442C0C092EC23D092ED231092F2
:102FC000EE238EE797E189839A8381E794E27E017D
:102FD0000894E11CF11CB7010E94C30B0091EE2381
:102FE0001092EE2389E597E189839A8381E794E241
:102FF000B7010E94C30B2091EE23E091EC23F091E6
:10300000ED23319710E0C80134E0880F991F3A95FD
:10301000E1F7822B8083000F111F000F111F020F99
:10302000111D000F111F0093EE23900EE02FF0E012
:10303000E095F095EC0DFD1D02C0F6011292DF0146
:103040001E9280910625833019F42FEF3FE402C0D1
:103050002FEF3FE080916F2481113068FD013293A2
:10306000229380915324909154242FEF8E3F920706
:1030700099F4FD013A9786E0980E9F0145E454E2E9
:1030800088E0DA010D90AD01D9010D929D018150CA
:10309000C1F720E030EC04C09293829320E030E846
:1030A00080915024909151249293829380918C240A
:1030B00082938F5F80938C24329322939292D501D6
:1030C0001796ED93FC931897C50162E070E040E01D
:1030D0000E94720F81E0809307252496CDBFDEBF4A
:1030E000CF91DF911F910F91FF90EF90DF90CF90E4
:1030F000BF90AF909F900895BC0180E00E94A317FD
:103100000895FC010190F081E02D6281738181813D
:10311000448125810E947C3508950F931F938C0173
:10312000DC01ED91FC9181810E94DB01C8010E94CC
:10313000F30A1F910F9108950F931F938C01DC01E7
:10314000ED91FC91818162810E94C002C8010E94C0
:10315000F30A1F910F910895AF92BF92CF92DF9221
:10316000EF920F931F935C01DC01ED91FC910481C0
:10317000158126813781818162814381E08439967E
:103180006F010E94F602C5010E94F30A1F910F9180
:10319000EF90DF90CF90BF90AF9008950F931F9363
:1031A0008C01DC01ED91FC9181810E947B35C8018D
:1031B0000E94F30A1F910F9108950F931F938C01A2
:1031C000DC01ED91FC9181810E946203C8010E94A3
:1031D000F30A1F910F9108950F931F938C01DC0147
:1031E000ED91FC9181810E947A35C8010E94F30A19
:1031F0001F910F9108950F931F938C01DC01ED91A6
:10320000FC9121813281438154816581768187815E
:1032100090850E947935C8010E94F30A1F910F9191
:1032200008950F931F938C01DC01ED91FC91818136
:1032300062813396AF010E947835C8010E94F30A7B
:103240001F910F910895EF92FF920F937C01DC0183
:10325000ED91FC9121813281438154816581768198
:103260008781908501850E947735C7010E94F30A06
:103270000F91FF90EF9008950F931F93DF93CF93DB
:10328000CDB7DEB72B97CDBFDEBF8C01DC01ED9152
:10329000FC9182818983838194818A839B839E01AF
:1032A0002C5F3F4FAF014B5F5F4F88E0DA010D901D
:1032B000AD01D9010D929D018150C1F78181BE01FF
:1032C0006F5F7F4F0E947635C8010E94F30A2B96EC
:1032D000CDBFDEBFCF91DF911F910F9108950F9366
:1032E0001F93DF93CF93CDB7DEB76697CDBFDEBF19
:1032F0008C01DC01ED91FC91818192818A839B8319
:10330000838189839E012C5F3F4FAF014C5F5F4FEC
:1033100088E0DA010D90AD01D9010D929D01815037
:10332000C1F7818192818D879E8784858C879E01DC
:10333000215F3F4FAF01435F5F4F88E0DA010D909F
:10334000AD01D9010D929D018150C1F7CE010196C9
:10335000BE01645F7F4F45890E945801C8010E94E9
:10336000F30A6696CDBFDEBFCF91DF911F910F911B
:103370000895CF92DF92EF92FF920F936C01DC01E0
:10338000ED91FC91BF016E5F7F4F24893589E788FD
:10339000F08C8181438906890E947535C6010E949F
:1033A000F30A0F91FF90EF90DF90CF900895EF9286
:1033B000FF920F937C01DC01ED91FC912181328120
:1033C00043815481658176818781908501850E9442
:1033D0002D02C7010E94F30A0F91FF90EF9008950C
:1033E0000F931F938C01DC01ED91FC9181819281FF
:1033F00063810E94B601C8010E94F30A1F910F91D8
:1034000008950F931F938C01DC01ED91FC91818154
:1034100062810E947435C8010E94F30A1F910F91C6
:1034200008950F931F938C01DC01ED91FC91818134
:1034300062810E946001C8010E94F30A1F910F91EE
:103440000895CF92DF92EF920F93DF93CF93CDB792
:10345000DEB76697CDBFDEBF6C01DC01ED91FC915C
:1034600081818983828193818A839B839E012C5FE2
:103470003F4FAF014C5F5F4F88E0DA010D90AD0127
:10348000D9010D929D018150C1F784858C87858576
:1034900096858D879E879E01215F3F4FAF01415FDB
:1034A0005F4F88E0DA010D90AD01D9010D929D01C9
:1034B0008150C1F7228D338DCE010196BE01645F2C
:1034C0007F4F418D0789E08C0E947E01C6010E94DA
:1034D000F30A6696CDBFDEBFCF91DF910F91EF90DB
:1034E000DF90CF900895FC01108261817281611597
:1034F000710521F08EEC94E20E94280B0895282F8C
:103500008091FD249091FE2496FF1BC0222359F444
:103510002091F0243091F1248091502490915124F5
:103520002817390759F02091F0243091F124809127
:10353000CC249091CD242817390719F48EEE0E94DF
:10354000A73108950F931F93CF93DF93282F809176
:10355000FD249091FE2496FFA3C0222359F42091CC
:10356000F0243091F1248091502490915124281717
:10357000390761F02091F0243091F1248091CC241E
:103580009091CD242817390709F08AC02091F224A0
:103590003091F3248091C9249091CA2428173907C7
:1035A00009F47EC09091F2248091D724981759F5A0
:1035B0009091F3248091D824981729F59091F424C0
:1035C0008091D9249817F9F49091F5248091DA2408
:1035D0009817C9F49091F6248091DB24981799F4F8
:1035E0009091F7248091DC24981769F49091F82445
:1035F0008091DD24981739F49091F9248091DE248C
:10360000981709F44DC08AE90E94FB0A8C010097C3
:1036100009F446C0DC012D913C9185E0F9018083DD
:1036200001831283E956FF4F8083AF014850504019
:10363000FA01A5E4B4E288E00D9001928150E1F72F
:10364000FA013897EF01A7EDB4E288E00D900992F6
:103650008150E1F78091502490915124929382936C
:1036600080918E2482938F5F80938E2483E69CECDE
:103670009293829388E18293D9011796ED93FC93FC
:103680001897C90162E070E041E00E94720F882340
:1036900021F481E08093072503C0C8010E94F30A4A
:1036A000DF91CF911F910F9108950F931F93CF93A7
:1036B000DF93EC01E881F981A781B0857C9170935B
:1036C000E224FD01E70FF11D81818093FB24119617
:1036D0004D915C9112974093DF245093E024139610
:1036E0008C9113978093E3248D010C5F1F4F652FFE
:1036F0006295669566956370352F3695369533706D
:1037000019F4F80120E049C014968D919C91159709
:103710008093E5249093E624FD0136963230E1F45F
:103720001092E7241092E8241092E9241092EA24DF
:103730001092EB241092EC241092ED241092EE24BF
:1037400016968D919C9117978093E7249093E82487
:10375000FD01389624E021C0333011F022E01DC075
:1037600016968C9116978093E72481818093E824A4
:1037700082818093E92483818093EA2484818093E9
:10378000EB2485818093EC2486818093ED248781CE
:103790008093EE24FD013E962AE0662309F447C09B
:1037A00046FD08C0819191918093F0249093F1247B
:1037B0002E5F08C08091E5249091E6248093F02448
:1037C0009093F1246230C1F41092F2241092F32409
:1037D0001092F4241092F5241092F6241092F724FB
:1037E0001092F8241092F924808191818093F22420
:1037F0009093F3242E5F1BC06330C9F480818093C3
:10380000F22481818093F32482818093F424838144
:103810008093F52484818093F62485818093F72416
:1038200086818093F82487818093F924285F972FDD
:103830009550921B9093FC246093EF243093E424E2
:1038400043FDCEC1D801A20FB11D842F8770809394
:10385000E124833021F48C918093FA2463C0813079
:1038600009F451C0813020F0833009F0B9C15AC049
:103870008D919C9111978093FD249093FE24129634
:103880008C9112978093FF24877011F493E002C00B
:10389000982F9C5FFD01E90FF11D80818093002529
:1038A000292F2F5F382F377090E08077907044E099
:1038B000959587954A95E1F7482F332311F488238E
:1038C00089F0CD01820F911D8093012590930225EF
:1038D000332311F0330F230F442321F0440F440FFF
:1038E000440F240F8091FC24281750F4821B8093EE
:1038F0000325A20FB11DA0930425B093052574C123
:103900001092032571C1992351F0963718F086E77C
:103910008093FC24A093FD24B093FE2465C11092F3
:10392000FC2462C18091FA248330E1F0843030F4C9
:103930008130C1F0823009F053C107C0883008F4EB
:1039400053C1883009F04CC112C011968D919C91E1
:1039500012978093FD249093FE2413968C9180936C
:10396000FF2442C111968C918093FD243DC1119694
:103970008D919C9112978093FD249093FE24139631
:103980008D919C9114978093FF2490930025159618
:103990008C9115978093012516968D919C91179780
:1039A000809302259093032554FF1EC118968C9195
:1039B0008093042519C18091E124833061F48091C2
:1039C000FA24843011F0873031F48EEC94E2BE0199
:1039D0000E94280B0FC180918224813009F4EBC032
:1039E000813020F0843008F0FBC0A3C080918B248C
:1039F000882309F06AC090910625933080F19330B6
:103A000009F0EEC08091E124813009F4E5C08130F5
:103A100010F1833009F0E4C08091FA24843009F475
:103A2000AFC0853038F4813009F4A0C0833009F08C
:103A3000D7C009C0863009F4AEC0863040F0873068
:103A400009F0CEC0B0C0CE010E94B920D3C08EEE26
:103A50000E94A731C5C080E00E947F1AC1C080913A
:103A6000E124813009F4B8C0813020F0833009F0BE
:103A7000B7C00CC080910925882309F4B1C09923EF
:103A800009F4AEC080E00E94A21AAAC08091FA2474
:103A9000843009F475C0853038F4813009F466C08B
:103AA000833009F09DC004C0873009F05AC009C0B6
:103AB000CE010E94B92080910625813009F09AC07C
:103AC0005CC0923009F08CC06EC0833009F1843044
:103AD00019F0823009F084C08091E124882309F034
:103AE0007FC080910625833019F481E00E947F1AFF
:103AF00080910925882341F08091062581508230EC
:103B000018F481E00E94A21ACE010E94402A72C0DD
:103B10008091E124833009F063C08091FA248830D9
:103B200009F05EC082E00E94F405CE010E94232EBF
:103B300061C00E94B1298091E124813009F44CC018
:103B4000833009F04DC08091FA248430C9F085306B
:103B500030F4813059F0833009F042C00BC0873017
:103B6000F1F0883021F18630D9F515C0CE010E94E0
:103B7000BD1440C0CE010E94B9200E949A263AC0CE
:103B800080917524882321F0CE010E94791F32C0D4
:103B90000E945B1E25C0CE010E94F9262BC0809199
:103BA00006258230E9F4CE010E947C1823C0CE01A4
:103BB0000E94EC311FC08091E124833059F4809140
:103BC000FA24823069F480E00E94F405CE010E945C
:103BD000811510C0813021F4CE010E94FA220AC062
:103BE000CE010E94F30A06C080910725882309F0C0
:103BF000E2CEF1CEDF91CF911F910F910895DB01BD
:103C0000FC018681882399F40780F085E02D82816C
:103C1000869586958370823051F440E02D913C91D9
:103C2000868197812817390719F441E001C040E0E7
:103C3000842F0895DB01FC0186818823C9F5078064
:103C4000F085E02D8281869586958370833081F59D
:103C500020E09C918681981761F511969C911197AF
:103C60008781981731F512969C9112978085981745
:103C700001F513969C91139781859817D1F41496AA
:103C80009C91149782859817A1F415969C9115978D
:103C90008385981771F416969C91169784859817CA
:103CA00041F417969C918585981719F421E001C07D
:103CB00020E0822F08950F931F93CF93DF938AE91B
:103CC0000E94FB0A8C01009709F44BC0DC01CD91E6
:103CD000DC918CE0888309831A831E82FE01E856FA
:103CE000FF4F8091EF24833089F438979F0142EF92
:103CF00054E288E0DA010D90AD01D9010D929D01E9
:103D00008150C1F721E03CE04FE009C08091F224EE
:103D10009091F3249293829321E038E049E08091DE
:103D2000F0249091F1249293829380918E24829337
:103D30008F5F80938E24329322934293EF83F88790
:103D4000F8018081918161E070E040E00E94720F93
:103D5000882321F481E08093072503C0C8010E94D5
:103D6000F30ADF91CF911F910F9108956F927F9287
:103D70009F92AF92BF92CF92DF92EF92FF920F93FA
:103D80001F93CF93DF93D82E962EC42E590138015E
:103D90008AE90E94FB0A7C01009709F49BC0DC01C0
:103DA0000D911C91DD2021F084E0F801808303C097
:103DB0008BE0D8018C93F801E182F282E956FF4F43
:103DC00084E080832091532430915424C9010296C9
:103DD000029710F0992069F03897EF01A5E4B4E25A
:103DE00088E00D9009928150E1F762E183E290EC66
:103DF00005C0329322936CE083E290E8CC2061F01E
:103E000020915024309151246216730629F06E5F80
:103E10003293229370E002C0806471E022E0C21607
:103E200041F4AC015860D5018D919C91929382939D
:103E300028C0B3E0CB1661F4AC015C6038976A5FD0
:103E4000EF01D50188E00D9009928150E1F719C08A
:103E50002091C9243091CA244FEF2E3F340729F016
:103E6000AC015860329322930CC0AC015C6038976F
:103E70006A5FEF01A7EDB4E288E00D9009928150EE
:103E8000E1F73297772339F08091502490915124B3
:103E90008083918302C06082718280918E2482939C
:103EA0008F5F80938E24529342936293D80117962A
:103EB000ED93FC931897C80162E070E041E00E9426
:103EC000720F882321F481E08093072504C0C70185
:103ED0000E94F30A80E0DF91CF911F910F91FF9034
:103EE000EF90DF90CF90BF90AF909F907F906F90BA
:103EF0000895EF92FF920F931F93DF93CF9300D01B
:103F00000F92CDB7DEB70E94F30A8091062582306A
:103F100008F453C08091EF24823019F48FEF9DE1B3
:103F200005C0833009F049C08AE19EE189839A8304
:103F300082EF94E28B839C8381E794E27E01089474
:103F4000E11CF11CB7010E94C30BDC01009781F05A
:103F50000D911C911197F801878190852091F02493
:103F60003091F124FC01848195812817390719F0DB
:103F70000E945B1E22C081E0F8018683A183B28388
:103F800081E794E2B7010E94C30B892B41F0D8016D
:103F90001796ED91FC911897818180618183C8010A
:103FA00061E070E040E00E94720F882321F481E01C
:103FB0008093072502C0F80116822496CDBFDEBF8C
:103FC000CF91DF911F910F91FF90EF900895EF92A5
:103FD000FF920F931F93CF93DF937C01E801DC01E5
:103FE000ED91FC9186E18083618342832383348356
:103FF000CF010596423069F4158216821782108629
:10400000118612861386148688819981858396830A
:1040100007C0DC01F80188E001900D928150E1F7C2
:104020008AE095E2B7010E94280BDF91CF911F91A2
:104030000F91FF90EF9008950F931F93DF93CF930D
:10404000CDB7DEB72897CDBFDEBFDC01ED91FC9187
:10405000119719821A821B821C821D821E821F8266
:1040600018860780F085E02D42814695469543707D
:10407000842F8250823080F48681898387818A836D
:1040800080858B8381858C8382858D8383858E83D8
:1040900084858F838585888780910625833049F4C0
:1040A00020915024309151248E010F5F1F4FCD017C
:1040B00056C0823009F03FC0423051F4268137812A
:1040C0008091C9249091CA242817390759F533C023
:1040D000433041F596818091D724981719F597813F
:1040E0008091D8249817F1F490858091D92498175D
:1040F000C9F491858091DA249817A1F49285809172
:10410000DB24981779F493858091DC24981751F477
:1041100094858091DD24981729F495858091DE247B
:10412000981749F02091502430915124CD018E01EF
:104130000F5F1F4F14C08091532490915424029616
:104140002091502430915124029728F4CD0143E06E
:1041500005E414E204C0CD0142E003E514E20E944C
:10416000E71F2896CDBFDEBFCF91DF911F910F9142
:104170000895CF93DF939C01FC01C081D181FE01A2
:1041800085E18193A2EFB4E288E00D900192815025
:10419000E1F78091FD2489878AE095E2B9010E94C8
:1041A000280B1092D7241092D8241092D924109260
:1041B000DA241092DB241092DC241092DD24109279
:1041C000DE248FEF9FEF8093C9249093CA24DF9160
:1041D000CF910895EF92FF920F931F93DF93CF93A8
:1041E000CDB7DEB72E97CDBFDEBF8C01DC01ED90E1
:1041F000FC90DE011196F7018EE001900D92815046
:10420000E1F7F7010183128383E08083EA56FF4FD1
:1042100080838D85818338979F0145E454E288E04F
:10422000DA010D90AD01D9010D929D018150C1F7C8
:104230008A81823031F48D819E819293829333E121
:104240000FC038979F01AE014B5F5F4F88E0DA01E6
:104250000D90AD01D9010D929D018150C1F739E159
:1042600080915024909151249293829380918E2436
:1042700082938F5F80938E242A81922F990F990FBA
:1042800080E08366906C929382933293D701179665
:10429000ED93FC93189716961C92809106258250F8
:1042A000823008F060C08E85882309F45CC08A8162
:1042B0008230D1F48D818B3409F041C08E81882306
:1042C000F1F58F818823D9F588858823C1F5898503
:1042D0008823A9F58A85882391F58B85882379F52C
:1042E0008C85882361F55BC0833009F058C09D81BF
:1042F0008091D724981719F59E818091D82498171A
:10430000F1F49F818091D9249817C9F49885809100
:10431000DA249817A1F499858091DB24981779F411
:104320009A858091DC24981751F49B858091DD2437
:10433000981729F49C858091DE24981781F181E7F4
:1043400094E2B8010E94280B8091902490919124CE
:10435000F7018483958381E00E9426058823F9F480
:104360000E94DE221CC00E945825D8018D919C918C
:1043700062E070E041E00E94720F882321F481E046
:10438000809307250CC02B813C81C80161EE4A81D6
:104390008E010B5F1F4F0E94E71F0E947D252E9606
:1043A000CDBFDEBFCF91DF911F910F91FF90EF90B6
:1043B0000895DC01ED91FC911197E081E43278F4ED
:1043C000F0E0EE0FFF1FE850FE4F259134912115CC
:1043D000310519F0F901199508950E94F30A08951D
:1043E0001F9380910725882381F480918A24882354
:1043F00061F086E894E260E070E00E94BD0B0097F7
:1044000021F00E94D92111E001C010E08091D22456
:10441000882359F08EEC94E260E070E00E94BD0BBE
:10442000009719F00E94D92111E0812F1F91089562
:10443000FC018681882329F48481958101978483F6
:10444000958380E00895FC018681882311F020E0A7
:1044500006C020E084819581892B09F421E0822F18
:104460000895FB0120E0DC0113969C918081981750
:1044700009F421E0822F0895DC01ED91FC91119760
:1044800080E18083418362838AE095E2BD010E94DE
:10449000280B0895EF92FF920F931F93DF93CF9312
:1044A000CDB7DEB72597CDBFDEBF7C01FC01008113
:1044B0001181F801918182E18083998381E392E205
:1044C0008A839B83CE0101968C839D8381E794E24E
:1044D000BE016E5F7F4F0E94BD0B009729F00E94C6
:1044E000F30AF801128203C087EEF80182838AE0A2
:1044F00095E2B7010E94280B2596CDBFDEBFCF9174
:10450000DF911F910F91FF90EF900895FF920F930D
:104510001F93DF93CF9300D00F92CDB7DEB788E122
:1045200092E289839A8381E794E28E010F5F1F4FA5
:10453000B8010E94C30B83E292E289839A83F02E32
:10454000012F10E181E794E26F2D702F0E94BD0BC7
:10455000DC01009721F19C9111962C911197E92F84
:10456000F22F8081833049F08D3061F0823051F735
:1045700080EFBD010E948825E5CFCD0160EF0E944C
:104580001C20E0CF8381E92FF22F1083818380EFFD
:1045900082838AE095E2BD010E94280BD3CF8091EF
:1045A0007524882311F00E94DE222496CDBFDEBF41
:1045B000CF91DF911F910F91FF900895EF92FF929D
:1045C0000F931F9381E040E050EE61E070E020E047
:1045D00030E006E812E2EE24FF240E94030788235D
:1045E00021F080E090E00E9486221F910F91FF90C1
:1045F000EF9008950F931F93DF93CF93CDB7DEB75E
:104600002897CDBFDEBFAC01DC019C9111962C91A7
:104610008091FC24882321F4CA010E94F30A13C16B
:10462000E92FF22F8091E324808F2091EF242183C2
:104630008091F0249091F12482839383822F825081
:10464000823010F514821582168217821086118628
:1046500012861386223039F48091F2249091F3244B
:10466000848395831BC02330C9F49F012C5F3F4F87
:1046700062EF74E288E0DB010D90BD01D9010D927B
:104680009D018150C1F70AC01282138214821582E3
:10469000168217821086118612861386208D8091CD
:1046A0007024281761F5948180917824981739F542
:1046B000958180917924981711F5968180917A24BB
:1046C0009817E9F4978180917B249817C1F490851D
:1046D00080917C24981799F4918580917D24981776
:1046E00071F4928580917E24981749F49385809186
:1046F0007F24981721F4CA010E94F30A5AC020931C
:1047000070248481809378248581809379248681A4
:1047100080937A24878180937B24808580937C2476
:10472000818580937D24828580937E2483858093F8
:104730007F242091E42424871786108A118A128A04
:10474000138A148A158A168A8091E5249091E624AA
:1047500085879687233079F49F01215F3F4F67EE6D
:1047600074E288E0DB010D90BD01D9010D929D013D
:104770008150C1F70BC0223039F48091E724909129
:10478000E8248787908B02C0158616868091FB24CB
:10479000878B8091FC24818F8091FD249091FE2451
:1047A000828F938F81E180838AE095E2BA010E9433
:1047B000280B8091DF2484FF46C08091062583303A
:1047C00009F443C08091EF24823071F48091F22487
:1047D0009091F32489839A830091F0241091F1241D
:1047E00080E060E042E021C0833019F58091F2243E
:1047F00089838091F3248A838091F4248B83809130
:10480000F5248C838091F6248D838091F7248E8308
:104810008091F8248F838091F92488870091F02477
:104820001091F12480E060E043E09E012F5F3F4F54
:1048300007C080E060E040E020E030E000E010E011
:104840000E94B61E02C00E947D252896CDBFDEBF05
:10485000CF91DF911F910F910895CF92DF92EF9248
:10486000FF920F931F93DF93CF93CDB7DEB762977D
:10487000CDBFDEBF8C01DE011196FC0180819181EC
:104880009C01F90182E101900D928150E1F78F8541
:1048900082FD11C080918224882321F480918B2491
:1048A000882349F09E85D801ED91FC9180E18083B9
:1048B000918381EEAEC0F801E080F1808DE0D701F8
:1048C0008C938E8513968C93139716961C928889D9
:1048D00045E0D42ED80EE8E9F0E0E81BF109EE0D32
:1048E000FF1D9A81923051F437E0D32ED80E80917B
:1048F0005324909154249293829312C0933081F464
:1049000038972DE0D22ED80E9F0145E454E288E07E
:10491000DA010D90AD01D9010D929D018150C1F7D1
:1049200020915024309151248C819D812817390782
:1049300049F48A81882331F08B81882319F040E47F
:1049400050E009C08A81882321F0B2E0DB0E329367
:10495000229340E050E08B81882311F1823039F4BA
:104960006D2D6E5F8E819F819293829312C03897D6
:104970006D2D685F9F0196E0C92ED12CCC0EDD1EF7
:1049800088E0D6010D906D01D9010D929D018150F5
:10499000C1F782E0D82ED60E8C819D8192938293AE
:1049A00080918E2482938F5F80938E24BA01616000
:1049B0008F8580FF02C0BA0161628889873608F05E
:1049C00070618B81382F330F330F20E04A81942F91
:1049D0009295990F990F907C80E0282B392B262BEC
:1049E000372B329322933296D7FC0BC03397D08269
:1049F000D7011796ED93FC9318978F8582FD10C011
:104A000028C09E85D801ED91FC9180E1808391833F
:104A100085EE82838AE095E2B8010E94280B3CC0B3
:104A20008091062582508230A0F481E794E2B8019B
:104A30000E94280B8091902490919124F701848307
:104A4000958381E00E942605882331F50E94DE22AD
:104A500023C00E945825D70111960D931C931297DD
:104A6000C70162E070E041E00E94720F882321F4E8
:104A700081E08093072510C09E85D801ED91FC91BF
:104A800080E18083918381EE82838AE095E2B801A0
:104A90000E94280B0E947D256296CDBFDEBFCF917C
:104AA000DF911F910F91FF90EF90DF90CF900895CD
:104AB00080910825813051F40E946814853831F0C6
:104AC00081E090E00E94D50410920825089580911D
:104AD0000825882389F480E090E00E94D50480E0D6
:104AE0000E947B14882321F481E080930825089597
:104AF00081E090E00E94D504089580917624882377
:104B000031F48091CB24882311F40E946725089505
:104B1000DF93CF93CDB7DEB72897CDBFDEBF482F49
:104B20009B01DB01ED91FC910780F085E02DDE011A
:104B30001196369688E001900D928150E1F7D901E7
:104B4000ED91FC918CE180838091502490915124CF
:104B50008183928393E09383809145248483809121
:104B600046248583809147248683809148248783C7
:104B700080914924808780914A24818780914B24A9
:104B8000828780914C2483879487898185878A8155
:104B900086878B8187878C81808B8D81818B8E81AD
:104BA000828B8F81838B8885848B458B8AE095E20D
:104BB000B9010E94280B2896CDBFDEBFCF91DF91AF
:104BC00008950F931F93182F109207251092062512
:104BD0001092082510928B2410928D24109282241A
:104BE000109270248FEF809378248093792480939F
:104BF0007A2480937B2480937C2480937D248093EB
:104C00007E2480937F241092CB2488E00E949D1400
:104C10000FB7F89480E00E94F40581E00E94F4054B
:104C200082E00E94F40583E00E94F4050FBF112387
:104C300009F440C01092092582EC97E08093842407
:104C40009093852480E098E78093D3249093D42494
:104C50001092812410926F2410928F240E94EC35C0
:104C600080938C2484EF91E08093902490939124FE
:104C700081E08093832486E0809377241092D72468
:104C80001092D8241092D9241092DA241092DB24A6
:104C90001092DC241092DD241092DE248FEF9FEF1F
:104CA0008093C9249093CA240E94EC3580938E246B
:104CB000109276241F910F9108950F931F93CF9315
:104CC000DF93EC01088119810E945825F8010181C8
:104CD00080E090E00E94D50480E0011181E00E9414
:104CE0000813182F81E090E00E94D504802F0E94C5
:104CF000E1250E947D2586E894E20E94C90B8EEC96
:104D000094E20E94C90B8AE095E20E94C90B81E7F8
:104D100094E20E94C90BE881F981118380E28083CB
:104D20008AE095E2BE010E94280BDF91CF911F918E
:104D30000F910895DF93CF9300D00F92CDB7DEB7D8
:104D40000E9458258FEF9FEF89839A838B839C83E2
:104D500083E5BE016F5F7F4F0E942E2780E5BE0175
:104D60006D5F7F4F0E942E2781E00E94E1250E9407
:104D70007D252496CDBFDEBFCF91DF9108950E949F
:104D80003E138823B9F40E948E08882399F081E0AD
:104D90000E94E1250E947D2586E894E20E94210B75
:104DA0008EEC94E20E94210B81E794E20E94210B99
:104DB00080E0089585E80895FF920F931F93182FC0
:104DC000F92E409150245091512489E0612F792F80
:104DD00020915D2400914F240E942132882329F4E0
:104DE00081EE612F7F2D0E9488251F910F91FF90EA
:104DF0000895CF93DF93EC01E881F9818AE18193F3
:104E0000A2EFB4E288E00D9001928150E1F78AE0D0
:104E100095E2BE010E94280BDF91CF910895E82F03
:104E2000853419F480918F240895883030F4E82F68
:104E3000F0E0E05CFD4F849108958054803228F4C6
:104E4000F0E0E85FFD4F84910895E03F10F480E0CA
:104E50000895F0E0E858FE4F849108951F93CF9392
:104E6000DF93182FEB0180910825813051F40E94C7
:104E70005825812FBE010E945711182F0E947D25B1
:104E800004C0812F0E945711182F812FDF91CF91DD
:104E90001F9108950F931F93CF93DF938C01FC0113
:104EA000C081D181BE016D5F7F4F89818B3409F450
:104EB000A4C08C3478F5863009F475C0873098F436
:104EC000823009F4D0C0833038F4882309F4BBC0A1
:104ED000813009F048C0BAC0843009F45CC0853024
:104EE00008F05CC0C3C0853409F469C0863448F456
:104EF000813409F461C0823409F45BC0873099F5CC
:104F000055C0893409F468C08A3408F06DC086340D
:104F100051F55FC0853509F462C08635A0F48F3441
:104F200009F476C0803530F48C3409F46BC08E34CB
:104F3000D1F46BC0823509F473C0833509F473C0B2
:104F4000803589F468C08935D9F08A3528F48735E9
:104F500079F0883580F409C08D35D1F0803F09F4AF
:104F600069C08A3581F094EF85C08091092580C0A1
:104F700080915F247DC0809184249091852457C0C6
:104F80008091632475C08091D3249091D4244FC024
:104F9000809181246DC080914F246AC080914D24FE
:104FA00090914E2444C08091652462C080915C241D
:104FB0005FC0809183245CC080916F2459C0409170
:104FC0008F2425E934E2CB01B90150E00E94FC3581
:104FD00050C080918F244CC080918C2449C0809116
:104FE00090249091912423C0DB01E7EDF4E288E066
:104FF00001900D928150E1F73CC08091C9249091BD
:10500000CA2415C080918E2433C080915B2430C0A7
:10501000809162242DC0809150249091512407C02A
:105020008091762425C080915324909154248B83C1
:105030009C831FC0DB01E5E4F4E288E001900D925F
:105040008150E1F716C080915D2412C080916924DF
:1050500090916A24A0916B24B0916C248B839C83E3
:10506000AD83BE8306C08091442402C08091522447
:105070008B8390E089818A838EE1888399838AE09B
:1050800095E2B8010E94280BDF91CF911F910F91FB
:105090000895FF920F931F93CF93DF93182FEB0187
:1050A000F42E8B3409F49BC08C3440F5833409F41E
:1050B000B1C0843478F4853038F4823008F0AAC066
:1050C000882309F4A7C03EC0813409F453C0823458
:1050D000C9F548C0863409F45AC0873430F48434A2
:1050E00009F444C0853471F549C0893409F453C0CA
:1050F0008A3408F05BC0873429F58CC0853509F403
:105100004EC0863570F4813530F48E3408F082C09C
:105110008C34C1F46BC0823509F46CC0823590F0D8
:1051200079C08835A9F0893528F4863569F0873546
:1051300049F470C08A3579F08A3508F46BC0803F35
:1051400009F468C004EFC7C0888180930925C2C0F4
:1051500088819981BBC0888199818093D324909361
:10516000D424B8C0888180938324B4C0888180937C
:105170007724B0C0888180936F24ACC025E934E2E5
:1051800040918F24C90150E00E94FC35A3C0888162
:1051900080938F249FC0888180938C249BC08881BA
:1051A0009981809390249093912494C088818093D6
:1051B000D72489818093D8248A818093D9248B81B4
:1051C0008093DA248C818093DB248D818093DC248E
:1051D0008E818093DD248F818093DE247BC0888143
:1051E00099818093C9249093CA2474C08881809344
:1051F0008E2470C06881611161E06093762466231B
:1052000031F00E94582586E00E949D1463C00E94E0
:105210007D2560C0812FBE010E945711082F813863
:1052200071F40E946814812FBE010E945711082F4B
:10523000882309F050C081E08093EF2303C08823C6
:1052400009F049C080915B24282F30E080915F24D1
:10525000482F50E060916224CA01861B91092817EB
:1052600039070CF4C901A82F281B310981E090E00F
:1052700002C0880F991F4A95E2F70197289FA00165
:10528000299F500D389F500D112420E030E070E030
:10529000E1E0F0E00DC0C901860F971FEF0102C0E9
:1052A000CC0FDD1F8A95E2F74C0F5D1F2F5F3F4F3C
:1052B0002A1788F384E190E09C01429FC001439F3C
:1052C000900D529F900D1124865F9E4F80938424F1
:1052D0009093852400E0FF2049F08091EF238823FC
:1052E00029F080E00E947B141092EF23802FDF9141
:1052F000CF911F910F91FF900895EF92FF920F931E
:105300001F937C01FC0100811181B8016E5F7F4F0A
:10531000F801818141E00E944928F801918192833E
:105320009FE1908381838AE095E2B7010E94280B78
:105330001F910F91FF90EF900895CF93DF93EC01B1
:10534000E881F98183E280836183662311F00E9402
:105350007D258AE095E2BE010E94280BDF91CF9166
:1053600008958091E1248823E1F080E00E94F40513
:105370008091E124813031F48091FC24882311F064
:1053800060E001C06BEE80918224823031F4809124
:105390009324909194240E949D29109207251092A5
:1053A0008224089580918224823039F4809193245C
:1053B000909194246BEE0E949D2910928224109269
:1053C00007250895CF92DF92EF92FF920F931F93DC
:1053D000DF93CF93CDB7DEB72897CDBFDEBFD82EF2
:1053E000C92E809182248823D1F5809106258330AF
:1053F000B1F180918B24882391F50E945825ED2CE2
:10540000FC2CD701ED91FC9181819F012C5F3F4FD6
:10541000823031F48481958189839A8342E00DC082
:10542000AE014F5F5F4F88E0D9010D909D01DA0119
:105430000D92AD018150C1F743E00281138181E0FB
:1054400060E09E012F5F3F4F0E94B61E882329F027
:10545000D0929324C092942407C0C70102C08D2D1E
:105460009C2D61EE0E949D292896CDBFDEBFCF9175
:10547000DF911F910F91FF90EF90DF90CF900895F3
:105480005F926F927F928F929F92AF92BF92CF92D4
:10549000DF92EF92FF920F931F93DF93CF93CDB7DD
:1054A000DEB76197CDBFDEBFBC0140918B24423097
:1054B00011F0443069F480918324882349F0E0910D
:1054C0009324F091942420813181D901199604C04C
:1054D000A0E0B0E020E030E05091EF24598300914B
:1054E000F0241091F1240A831B83523069F41E8248
:1054F0001F82188619861A861B868091F224909145
:10550000F3248C839D8318C08091F2248C83809136
:10551000F3248D838091F4248E838091F5248F83EE
:105520008091F62488878091F72489878091F824D8
:105530008A878091F9248B8790905D249C86B09017
:105540004F24BD868091FD249091FE248E879F87F5
:10555000188A8091FF2487FF02C081E0888B8091A8
:10556000FB24898B423019F0443009F06FC08091E0
:105570008324882309F46AC0F901F084EC81FD8159
:105580005C806D807E808F80A884C984DA84EB84FF
:1055900040E049C011968D919C9112970817190708
:1055A00009F03FC08C915817E1F51B968C911B9721
:1055B0009816B9F51C968C911C97B81691F5523037
:1055C00041F413968D919C911497E817F90749F5CA
:1055D0003DC013968C911397851519F514968C91EF
:1055E00014978615F1F415968C9115978715C9F4C3
:1055F00016968C9116978815A1F417968C9117978B
:105600008A1579F418968C9118978C1551F419967F
:105610008C9119978D1529F41A968C911A978E15DD
:10562000A9F04F5F51964F1508F4B4CF59C0FD0152
:10563000DE01119681E10D9001928150E1F7D901CF
:1056400018968C9118978F5F18968C9390910025DF
:1056500080910325882321F4809183248823E1F518
:10566000DB01ED91FC9187E180838091E3248183CC
:105670009F012E5F3F4FAE014F5F5F4F81E1DA0127
:105680000D90AD01D9010D929D018150C1F780911E
:105690000025838B892F877059F4892F90E08077BC
:1056A000907024E0959587952A95E1F7882331F04D
:1056B0008091012590910225848B958B8091032503
:1056C000868B8091042590910525878B908F8AE0A9
:1056D00095E20E94280B09C0CB010E94F30A05C085
:1056E000E4E0EF1508F4B2CFA2CF6196CDBFDEBFE4
:1056F000CF91DF911F910F91FF90EF90DF90CF90AE
:10570000BF90AF909F908F907F906F905F90089523
:10571000FB0140E0208131812817390709F441E07D
:10572000842F0895EF92FF920F931F93DF93CF93EF
:1057300000D00F92CDB7DEB7F82E8B01109207255F
:1057400080918B24823029F4FB018081873059F4C9
:1057500006C0833041F4FB018081863021F48F2D17
:105760000E9484302CC1F8018081883009F419C16D
:10577000893098F4833009F445C0843038F481309E
:1057800009F468C0823009F018C1E4C0843009F41B
:1057900090C0853009F011C1FBC08B3009F489C07D
:1057A0008C3038F4893009F4ECC08A3009F005C136
:1057B000FFC08C3009F4FCC08D3009F0FEC0F80148
:1057C00086818823B9F01682FF2021F0F7E8FF16C2
:1057D00009F0F3C088E89BE289839A83F80181810C
:1057E00092818B839C8381E794E2BE016F5F7F4F40
:1057F0000E94BD0BF801818192816F2D43810E942F
:105800003C22DBC0F80186818823B1F01682FF209C
:1058100019F0F7E8FF16B1F488E89BE289839A83D0
:10582000F801818192818B839C8381E794E2BE01A0
:105830006F5F7F4F0E94BD0BF801818192816F2DB8
:105840000E941C2080910625813009F0B6C00E947C
:105850009A26B3C0F9EEFF1619F091EEF91649F445
:10586000F801818192816F2D4FEF5FEF0E94E91463
:10587000A4C0809382244091D3245091D42460E02A
:1058800070E094E0440F551F661F771F9A95D1F77B
:1058900080E020E030E00BE315E1EE24FF240E94DD
:1058A0000307882309F48BC080E090E00E943B1539
:1058B00086C0F801818192810E94F30A809182243E
:1058C000813009F47CC0F80180818430C1F4F7E8AC
:1058D000FF1699F0E0919324F09194240190F081C7
:1058E000E02D83E28083F18260919324709194246F
:1058F0008AE095E20E94280B60C082E009C089EE30
:10590000F81609F45AC091EEF91609F456C083E06E
:1059100080938224409184245091852460E070E03B
:1059200084E0440F551F661F771F8A95D1F780E0EA
:1059300020E030E002ED19E2EE24FF240E9403078C
:1059400091E0909307258823D1F180E090E00E94B8
:10595000D22935C0F8011682FF2019F0F7E8FF16AA
:1059600061F588E89BE289839A83F80181819281BD
:105970008B839C8381E794E2BE016F5F7F4F0E941F
:10598000BD0BF801618172818F2D0E94882515C0A1
:10599000F801818192810E94F30A8EEE0E94A73164
:1059A0000CC0F801618172818F2D0E94DF3005C02B
:1059B000F801818192810E94F30A0E947D2524963C
:1059C000CDBFDEBFCF91DF911F910F91FF90EF9080
:1059D0000895EF92FF920F931F931092CB24809122
:1059E00076248823C9F4809108258823A9F488E0C7
:1059F0000E949D14883071F083E040E850E060E040
:105A000070E020E030E009EE1CE2EE24FF240E946A
:105A1000030702C00E947D251F910F91FF90EF9018
:105A20000895DF92EF92FF920F931F93CF93DF932E
:105A3000EC01E881F981E680F78000851185E114A9
:105A4000F1040105110539F480E090E00E94E92C91
:105A5000E881F98147C0809182248823F1F5809103
:105A60008B248823D1F50E94582586E00E949D143E
:105A7000D82E81E08093CB2483E00E9426058823E2
:105A800019F083E00E94F40584E0EE0CFF1C001F77
:105A9000111F8A95D1F783E0B801A70120E030E01B
:105AA00009EE1CE2EE24FF240E940307882381F004
:105AB000E881F98181E2808388EE81838AE095E242
:105AC000BE010E94280B80E090E00E94E92C12C0E9
:105AD000E881F98186E0D81629F081E2808382EF9F
