:100000000C9435010C9456010C9484040C94560104
:100010000C9456010C9456010C9456010C94560104
:100020000C9456010C9456010C9456010C945601F4
:100030000C9456010C9456010C94F5080C9456013E
:100040000C9426090C9456010C9456010C945601FC
:100050000C9456010C9456010C9456010C945601C4
:100060000C9456010C9456010C9456010C945601B4
:100070000C9456010C9456010C9456010C945601A4
:100080000C9456010C9456010C94340A0C945601AD
:100090000C9456010C9456010C9456010C94560184
:1000A0000C9456010C9456010C9456010C94560174
:1000B0000C9456010C9456010C9456010C94560164
:1000C0000C9456010C9456010C9456010C94560154
:1000D0000C9456010C9456010C9456010C94560144
:1000E0000C9456010C9456010C9456010C94560134
:1000F0000C9456010C9456010C9456010C94560124
:100100000C9456010C9456010C9456010C94560113
:100110000C9456010C9456010C9456010C94560103
:100120000C9456010C9456010C9456010C945601F3
:100130000C9456010C9456010C9456010C945601E3
:100140000C9456010C9456010C9456010C945601D3
:100150000C9456010C9456010C9456010C945601C3
:100160000C9401040C9456010C942D040C9456012B
:100170000C9456010C9456010C9456010C945601A3
:100180000C9456010C9456010C9456010C94560193
:100190000C9456010C9456010C9456010C94560183
:1001A0000C9456010C9456010C9456010C94560173
:1001B0000C9456010C9456010C9456010C94560163
:1001C0000C9456010C9456010C9456010C94560153
:1001D0000C9456010C9456010C9456010C94560143
:1001E0000C9456010C94560103020201010000FF19
:1001F000FEFDFCFBF9F7F4EF061A1A170000811F49
:100200000000831DD9220000F9222521A6264229BB
:100210000000000015240000E518F518000000009B
:10022000D4186A188318B6180000000000000918D6
:100230000000ED175818F9173A182B180000491844
:10024000010401010102010101010101010101019A
:100250000401080201010101020101020102010180
:100260000201020201010101080011241FBECFEFAB
:10027000DFE5DEBFCDBF00E00CBF10E2A0E0B0E2E2
:10028000EEE9F4E600E00BBF02C007900D92A43A3D
:10029000B107D9F714E2A4EAB0E201C01D92A63278
:1002A000B107E1F70E94BA020C944D320C940000A1
:1002B000EF92FF920F931F9383E040E45BE46CE4C2
:1002C00070E020E030E00EE611E0EE24FF240E9412
:1002D000CB071F910F91FF90EF900895DF93CF937D
:1002E000CDB7DEB72B97CDBFDEBF82E089838EEB23
:1002F0009AEB8A839B838091A4209091A5208C8384
:100300009D8380E090E20E94EB2DCE0101960E9439
:10031000FC2A2B96CDBFDEBFCF91DF910895EF92DF
:10032000FF920F931F93DF93CF93CDB7DEB7CF5FCD
:10033000D040CDBFDEBF8091A6209091A720A09194
:10034000A820B091A9200196A11DB11D8093A620DF
:100350009093A720A093A820B093A9202DB73EB7D3
:10036000285030402DBF3EBF4DB75EB74F5F5F4F47
:100370008E010F5F1F4FEDB7FEB70183128321E19E
:1003800030E2FA012283338384839583A683B78383
:100390000E94202E2DB73EB72A5F3F4F2DBF3EBF94
:1003A000EDB7FEB7018312830E94D92D0F900F90F5
:1003B00082E090E060E070E00E94D20984E040E2D8
:1003C00051EA67E070E020E030E006EF11E0EE2453
:1003D000FF240E94CB07C150DF4FCDBFDEBFCF91BE
:1003E000DF911F910F91FF90EF90089582E090E0D0
:1003F00061E070E00E94D2090895EF92FF920F939E
:100400001F9381E090E062E070E00E94D20984E0F6
:1004100040E251EA67E070E020E030E00DEF11E0EB
:10042000EE24FF240E94CB071F910F91FF90EF90C5
:100430000895EF92FF920F931F936623D9F486E2FB
:1004400090E20E94EB2D84E00E94BC0681E090E0E7
:1004500060E070E00E94D20983E040E45BE46CE479
:1004600070E020E030E00EE611E0EE24FF240E9470
:10047000CB0703C081E00E94AC2B1F910F91FF902E
:10048000EF900895CF92DF92EF920F93CF93DF9387
:10049000882389F5E60120E025C08B85843101F5AC
:1004A0008C858823E9F489819A818E5B9A4BC1F40B
:1004B0008D859E8597FF14C08881823041F58B81A0
:1004C0009C818093A4209093A5208EE490E20E94CA
:1004D000EB2D8B856C85AE0120E80E94F72B1AC0AE
:1004E00061962F5F2E15C8F281E040E058EF6FEF64
:1004F00077E025E008C08A3E51F481E040E058EF03
:100500006FEF77E026E000E00E942F2B03C081E030
:100510000E94AC2BDF91CF910F91EF90DF90CF90A5
:100520000895EF92FF920F931F938823D9F48CE5DF
:1005300090E20E94EB2D81E040E058EF6FEF77E012
:1005400025E000E00E942F2B84E040E251EA67E0C2
:1005500070E020E030E00DEF11E0EE24FF240E9477
:10056000CB0703C081E00E94AC2B1F910F91FF903D
:10057000EF9008950E94D32C882311F00E947505F6
:100580000E94CC0980E090E060E070E00E94D20917
:1005900081E090E061E070E00E94D20982E090E0AA
:1005A00061E070E00E94D209789480E00E946C04BF
:1005B000882311F00E94750586E293E06DE073E0F8
:1005C0000E948D2D80E090E00E940D038EE690E267
:1005D0000E94EB2D80E990E20E94EB2D81E00E94C9
:1005E000AC2B0E94BD2CFDCFDF93CF930F92CDB7E4
:1005F000DEB780E0BE016F5F7F4F41E00E945A048A
:10060000813019F02FEF3FEF03C08981282F30E0B0
:10061000C9010F90CF91DF9108950F931F93DF933E
:10062000CF930F92CDB7DEB78E010F5F1F4F80E0E3
:10063000B80141E00E945A048823C9F3898190E0FF
:100640000F90CF91DF911F910F9108950F931F93FA
:10065000DF93CF930F92CDB7DEB789838A3071F4E1
:100660008DE089838E010F5F1F4F80E0B80141E06C
:100670000E9463048823C9F38AE089838E010F5F97
:100680001F4F80E0B80141E00E9463048823C9F352
:1006900080E090E00F90CF91DF911F910F9108952E
:1006A0009B01AC016050774F824C9F4FF2E0660F88
:1006B000771F881F991FFA95D1F7E3E0220F331FA8
:1006C000441F551FEA95D1F70E94F72C2150304066
:1006D000E0E6F6E088E0818384E08283E0EAF9E006
:1006E000378326838CE1848383E085838CE3838353
:1006F0000895DC018091A309837FE0EAF9E0838318
:100700002091572380915823821730F0275F922F32
:10071000981B892F295005C02150922F981B892F93
:100720002F5F482F681708F4462F342F12C090917E
:100730005823E92FF0E0ED5BFC4D8C9180839930DC
:1007400019F41092582303C09F5F9093582331509F
:100750001196332361F780915B23882351F4E22FB4
:10076000F0E0ED5BFC4D80818093A00981E08093F7
:100770005B238091A3098C60E0EAF9E08383842FF6
:100780000895DC0120915C23222311F480E0089578
:100790008091A3098F7CE0EAF9E083832A3058F046
:1007A00080915A23809359238AE080935C236A3096
:1007B00020F02AE003C0261708F0262F322F17C09A
:1007C000E0915923F0E0ED5BFC4D82858C93909194
:1007D00059239F5F9093592380915C23815080938C
:1007E0005C239A3011F4109259231196315033231F
:1007F00039F78091A3098063E0EAF9E08383822FCF
:1008000008951F920F920FB60F920BB60F921124FC
:100810008F939F93EF93FF9390915A2380915C2342
:100820008F5F80935C238091A009E92FF0E0ED5B5E
:10083000FC4D8287993019F410925A2303C09F5FB0
:1008400090935A23FF91EF919F918F910F900BBE40
:100850000F900FBE0F901F9018951F920F920FB61A
:100860000F920BB60F9211248F93EF93FF93809109
:100870005723893019F41092572303C08F5F809358
:100880005723E091572380915823E81739F0F0E07F
:10089000ED5BFC4D80818093A00902C010925B2328
:1008A000FF91EF918F910F900BBE0F900FBE0F90A5
:1008B0001F901895882311F080E00895CB01642FD4
:1008C0000E94C1030895882311F080E00895CB01B0
:1008D000642F0E9479030895882311F085E8089514
:1008E00060E875E280E090E00E94500380E00895A7
:1008F0008093AA209093AB20E0E4F6E091E0918B06
:1009000082E08287948708951F920F920FB60F920C
:100910000BB60F9211242F933F934F935F936F93D6
:100920007F938F939F93AF93BF93EF93FF93ECE4E9
:10093000F8E0808180618083E091AA20F091AB2073
:100940001995FF91EF91BF91AF919F918F917F91F9
:100950006F915F914F913F912F910F900BBE0F9030
:100960000FBE0F901F901895BF92CF92DF92EF921B
:10097000FF920F931F93CF93DF93892B11F088EE93
:1009800031C0CA01860F971F8150904110F085E851
:1009900029C0A0E0B0E0C0ECD1E0E6E0BE2E98EDCA
:1009A000C92ED12C81E0E82EF12C0BEC11E016C001
:1009B0008091CF0187FDFCCF1A8279836093C001BB
:1009C000BA86C601F80184BFE0828091C401F901B2
:1009D000EA0FFB1F808311966F5F7F4FA417B50747
:1009E00038F380E0DF91CF911F910F91FF90EF904E
:1009F000DF90CF90BF9008954F925F926F927F9259
:100A00008F929F92AF92BF92CF92DF92EF92FF921E
:100A10000F931F93CF93DF939C016B015A01CB017E
:100A2000820F931F8150904110F085E84DC0A0E0E7
:100A3000B0E0C0ECD1E040EC51E076E0672E68ED2C
:100A4000E62EF12C01E010E06BEC71E093E3792EDF
:100A500085E3882EF6E39F2E33C08091CF0187FD7A
:100A6000FCCFFA0112823183522E2093C00162869C
:100A7000C701FB0184BF00838091C401F501EA0F27
:100A8000FB1F40808415C9F08091CF0187FDFCCF0A
:100A90008091CF0181FF06C0FA019286C701FB0158
:100AA00084BF00837A865092C00119821A824C82D8
:100AB0008A86C701FB0184BF00832F5F3F4F1196D9
:100AC000AC15BD0550F280E0DF91CF911F910F91E1
:100AD000FF90EF90DF90CF90BF90AF909F908F905E
:100AE0007F906F905F904F9008951F93CF93DF9307
:100AF000E0E2F6E014828FEF8183C0E2D6E01FEFE0
:100B00008FEF9FEF0E94C4051F83FACF0E949207C8
:100B100008950E947D090E9498090E94C10A82E0FE
:100B2000E0E6F6E081830E9439090E9470090E9484
:100B3000770980E00895892B29F488E080930008E4
:100B4000809340080895FC0120915D2330915E233D
:100B5000C901A0E0B0E0BC015527442780912008DE
:100B600090912108A0E0B0E0482B592B6A2B7B2BF9
:100B700080915D2390915E232817390729F74083E0
:100B800051836283738308954FB7F894863091053B
:100B900018F12091200830912108280F391F8091E9
:100BA0002008909121088217930740F48091200833
:100BB0009091210882179307C8F30EC080912008F6
:100BC0009091210828173907C8F380912008909147
:100BD000210882179307C8F34FBF089520E090E0E3
:100BE000FC0153E0EE0FFF1F5A95E1F7E80FF91FE4
:100BF000E15AFC4D84819581892B09F021E0822FF7
:100C00000895DF92EF92FF920F931F93DFB6F8944F
:100C10008091AE208F3F09F456C090E0FC01A3E024
:100C2000EE0FFF1FAA95E1F7E80FF91FE15AFC4DFF
:100C3000E080F1800281138120915D2330915E2359
:100C4000C801AA27BB272817390769F4E0922808AA
:100C5000F092290880910C08806180930C088091A3
:100C60000708836003C0809107088C7F8093070882
:100C700060915D2370915E239B0140E050E0809184
:100C8000200890912108A90133272227A0E0B0E095
:100C9000282B392B4A2B5B2B80915D2390915E236F
:100CA0006817790729F72E193F09400B510B2F5F61
:100CB0003F4F4F4F5F4F2F5F3F4F4F4F5F4718F4EE
:100CC00081E08093AD20DFBE1F910F91FF90EF90E8
:100CD000DF9008958091AD20882309F44CC01092D4
:100CE000AD203091AC20332309F445C08091AF2072
:100CF0008F3F59F48091B0208F3F39F48091AE201E
:100D00008093B0208093AF2012C02091AE208091BC
:100D1000B02090E0FC0143E0EE0FFF1F4A95E1F7A1
:100D2000E80FF91FE15AFC4D20872093B0208091F5
:100D3000AE2090E0FC0123E0EE0FFF1F2A95E1F7C3
:100D4000E80FF91FE15AFC4D80858093AE20809119
:100D5000B02090E0FC01B3E0EE0FFF1FBA95E1F781
:100D6000E80FF91FE15AFC4D8FEF80873150309327
:100D7000AC200E9401060895FF920F931F93182F35
:100D8000853010F08AE8C5C0FFB6F8940E946A0664
:100D90000091AC20002309F4C0C04091AE20842F04
:100DA000242F302F1217F1F5212F30E0141781F482
:100DB000F90163E0EE0FFF1F6A95E1F7E20FF31F01
:100DC000E15AFC4D80858093AE200E94010618C038
:100DD00090E0DC0153E0AA0FBB1F5A95E1F7A80F82
:100DE000B91FA15ABC4DF90143E0EE0FFF1F4A9510
:100DF000E1F7E20FF31FE15AFC4D808518968C93C2
:100E0000812F90E0FC0123E0EE0FFF1F2A95E1F710
:100E1000E80FF91FE15AFC4D8FEF808701500093D6
:100E2000AC2062C0822F90E0FC01B3E0EE0FFF1F08
:100E3000BA95E1F7E80FF91FE15AFC4D50853150A2
:100E4000822F09F46AC0252FADCF1217D1F520915A
:100E5000B0201317B1F4121721F48FEF8093B02054
:100E60000DC0812F90E0FC01A3E0EE0FFF1FAA95BB
:100E7000E1F7E80FF91FE15AFC4D80858093AF2020
:100E800033C0842F90E0DC01E3E0AA0FBB1FEA959A
:100E9000E1F7A80FB91FA15ABC4D812F90E0FC01CA
:100EA00073E0EE0FFF1F7A95E1F7E80FF91FE15AA3
:100EB000FC4D808518968C931217B1F44093B020A6
:100EC00013C0822F90E0FC0163E0EE0FFF1F6A95D4
:100ED000E1F7E80FF91FE15AFC4D422F20852F3F23
:100EE00009F0B3CF80E00FC0812F90E0FC0153E008
:100EF000EE0FFF1F5A95E1F7E80FF91FE15AFC4D7D
:100F00001482158281E0FFBE882311F489E801C0B4
:100F100080E01F910F91FF9008953091AF20432FF3
:100F2000232FDDCF1F931FB7F8940E946A061FBFBF
:100F30001FEF25C06FB7F894822F90E0FC0173E09B
:100F4000EE0FFF1F7A95E1F7E80FF91FE15AFC4D0C
:100F5000208544815581868197811087148215826E
:100F6000168217822F3F09F43FEF6FBF41155105DD
:100F700051F03093B0202093AF20FA0119953091B1
:100F8000B0202091AF202F3FA9F63093B0202093BE
:100F9000AF201F9108952F923F924F925F927F92C0
:100FA0008F929F92AF92BF92CF92DF92EF92FF9279
:100FB0000F931F93CF93DF93782E5A016B01490152
:100FC00094E0292E281610F48AE8E2C001151105D4
:100FD00009F4DBC0C82FD0E0FE0183E0EE0FFF1F55
:100FE0008A95E1F7EC0FFD1FE15AFC4D8481958154
:100FF000892B11F088E8CCC060915D2370915E234D
:101000009B0140E050E08091200890912108A901C7
:1010100033272227A0E0B0E0282B392B4A2B5B2B6B
:1010200080915D2390915E236817790729F78114D9
:10103000910431F061E08616910409F0A6C011C058
:10104000D601C50180589040A040B04080589F4FC5
:10105000AF4FBF4708F09BC0A20EB31EC41ED51EE3
:1010600010C0D601C50180589040A040B040821BFE
:10107000930BA40BB50B80589F4FAF4FBF4708F0A1
:1010800086C09FB6F8940E946A065091AE205F3FDA
:1010900031F06091AC20452F252F30E054C0709284
:1010A000AE20FE01A3E0EE0FFF1FAA95E1F7EC0FC3
:1010B000FD1FE15AFC4D508731C02F3F09F43EC05F
:1010C000822F90E0FC0173E0EE0FFF1F7A95E1F7AD
:1010D000E80FF91FE15AFC4D80819181A281B38113
:1010E00015012601281A390A4A0A5B0AD201C101F0
:1010F0008F5F9F4FAF4FBF4710F4808521C0FE0127
:1011000033E0EE0FFF1F3A95E1F7EC0FFD1FE15AB8
:10111000FC4D2087521721F47092AE2091E017C049
:10112000842F90E0FC0123E0EE0FFF1F2A95E1F7EA
:10113000E80FF91FE15AFC4D708655C08FEF242F40
:101140003F5F422F282F361708F4B7CF33C0FE0178
:1011500083E0EE0FFF1F8A95E1F7EC0FFD1FE15AC8
:10116000FC4DA082B182C282D38204831583E682C1
:10117000F7828091AC208F5F8093AC20992311F08F
:101180000E9401069FBE80E003C088EE01C08BE88C
:10119000DF91CF911F910F91FF90EF90DF90CF9053
:1011A000BF90AF909F908F907F905F904F903F90B7
:1011B0002F900895842F90E0FC01B3E0EE0FFF1F05
:1011C000BA95E1F7E80FF91FE15AFC4D7086FE0170
:1011D000A3E0EE0FFF1FAA95E1F7EC0FFD1FE15A08
:1011E000FC4D8FEF808790E0B2CF1F920F920FB629
:1011F0000F920BB60F9211242F933F934F935F934F
:101200006F937F938F939F93AF93BF93EF93FF93CE
:1012100080915D2390915E23019680935D2390934E
:101220005E230E940106FF91EF91BF91AF919F91C4
:101230008F917F916F915F914F913F912F910F907F
:101240000BBE0F900FBE0F901F9018951F920F921C
:101250000FB60F9211248F938091AC20882319F040
:1012600081E08093AD208F910F900FBE0F901F9063
:1012700018951092AC201092AD2010925D23109220
:101280005E238FEF8093AE208093AF208093B020B9
:10129000E3E6F3E2848310821182399693E2E03927
:1012A000F907C1F70E94B5090895FC0180915D23FB
:1012B00090915E232091680830916908A0E0B0E029
:1012C000DC019927882740E050E0822B932BA42B48
:1012D000B52B80839183A283B383089581E0089521
:1012E00084E88093800181E6809381010895E0EA9B
:1012F000F0E0828184608283089582E080935000D0
:101300008091510081FFFCCF98ED94BF84E0E0E430
:10131000F0E0818394BF81E08093400082E0E0E5CB
:10132000F0E0868380916000816080936000089582
:10133000E0E4F6E080818061808380818068808342
:1013400080818160808380818062808380818860E9
:10135000808380818F7B8083E0E6F6E080ED81836F
:1013600080E2828380E18583089588E0809300088D
:101370008093400880EF80930C0880E380934C08B2
:1013800083E080930608E1E4F8E080818061808357
:1013900089E2809343080895E0E2F6E087E08183E4
:1013A000868308958130910519F0029719F404C0DD
:1013B00021E003C020E001C022E06115710521F0A9
:1013C00061307105A9F40BC081E090E002C0880F84
:1013D000991F2A95E2F7E0E2F6E08583089502C0BE
:1013E000660F771F2A95E2F7E0E2F6E0668308953C
:1013F00081E090E002C0880F991F2A95E2F7E0E2B1
:10140000F6E087830895E0E2F6E088E0828388E1F1
:10141000838B0895E0E2F6E0208530E053E03695D6
:1014200027955A95E1F721703070C9010895FC01A4
:1014300081E0838324813581C90108952FB7F89411
:1014400098E09093B000E0E2F6E08BE1838B818539
:101450008C7F826081879287E0EAF0E082818260FF
:10146000828378942FBF08951F920F920FB60F9228
:101470000BB60F9211248F93EF93FF93E0E2F6E007
:101480008285877F8287E8E4F0E080818E7F808399
:10149000FF91EF918F910F900BBE0F900FBE0F90A9
:1014A0001F9018950E941E0AE8E4F0E08081807F7A
:1014B00085608083789488950895FF920F931F9399
:1014C0008C01FC01F480148280E490E00E94C40549
:1014D000F801F4821F910F91FF9008950F931F93CD
:1014E00000E012E080910102897E8061F801818331
:1014F00080910402887F83608483809102028F7CC4
:101500008061828380912002807E816080A382E15D
:1015100081A38091000281608093000280E092E0CC
:101520000E945D0A809101028860F801818320E0B9
:1015300030E040E050E0E0E2F2E061E08091230240
:1015400080FFFCCF63838091240290912502220FBB
:10155000331F817090E0282B392B4F5F5F4F403154
:10156000510561F780910102877FE0E0F2E081831D
:10157000809100028E7F80930002C9011F910F911C
:10158000089580E58093C00880E1E0E4F6E085837B
:101590000895E0E4F6E020914906909149069C7F89
:1015A0009187806C90E19683E0ECF8E083838091F2
:1015B000C20887FFFCCFE0ECF8E063838091C208AB
:1015C00087FFFCCFE0E4F6E080E185832187089582
:1015D000E0E4F6E020914906909149069C7F9187CE
:1015E000806890E19683E0ECF8E083838091C20804
:1015F00087FFFCCFE0ECF8E013828091C20887FF00
:10160000FCCF8091C308E0E4F6E090E19583218768
:101610000895CF93DF93DC0180E1E0E4F6E0868378
:1016200080E2E0ECF8E083838091C20887FFFCCF82
:10163000E0ECF8E013826130A9F0FD01262FC0EC48
:10164000D8E08091C20887FFFCCF8091C3081B823D
:10165000819321502230A8F76250862F90E00196A6
:10166000A80FB91F8091C20887FFFCCF8091C308E3
:101670008C9380E1E0E4F6E08583DF91CF910895DB
:10168000DC0180E1E0E4F6E0868380E6E0ECF8E06F
:1016900083838091C20887FFFCCFE0ECF8E09D9146
:1016A00061508091C20887FFFCCF93836623B9F70E
:1016B0008091C20887FFFCCF80E1E0E4F6E08583FB
:1016C0000895FF920F931F93062FF42E0E94E80AAD
:1016D000082310E002C015950795FA94E2F7802FD1
:1016E0001F910F91FF900895DF92EF92FF920F9359
:1016F0001F93D82EF62EE42E022F0E94E80A10E047
:1017000002C0000F111FEA94E2F76F2D6023F094DE
:10171000F8226F298D2D0E94C90A1F910F91FF9009
:10172000EF90DF900895BC01009721F089E293E2E9
:101730000E94C80B089589E293E260E070E00E9485
:101740005D0C08950F931F93CF93DF9389E293E28B
:101750000E94C10BC9E1D3E201EB10E208831983B7
:1017600089E293E2BE010E94C80B249606561F4FE1
:1017700083E2C932D80791F7DF91CF911F910F9182
:101780000895FC011082118212821382148208953E
:10179000CF93DF93DC01EB019FB7F89414968C9103
:1017A0001497882321F46D937C93119706C01296A9
:1017B000ED91FC911397628373831296CD93DC9322
:1017C00013971A821B8214968C9114978F5F14962C
:1017D0008C939FBFDF91CF9108959F92AF92BF925C
:1017E000CF92DF92EF92FF920F931F93CF93DF93ED
:1017F0008C015B016A019FB6F894DC0114968C9110
:10180000882319F4C0E0D0E04AC0F801C081D1813A
:1018100041155105B1F07E0111C0D60112966D91AE
:101820007C911397ED91FC9188819981199588237A
:1018300059F47E018A819B819C01E901209769F717
:101840002EC0209761F17E01AB2849F5F801808117
:1018500091812A813B81C817D90719F420833183EC
:1018600005C0D70112962D933C931397F8018281FE
:101870009381C817D90711F4E282F382D801149634
:101880008C911497815014968C9314978D919C9100
:101890001197892B21F412961D921C9213979FBECB
:1018A000CE01DF91CF911F910F91FF90EF90DF90CC
:1018B000CF90BF90AF909F900895AB0160E070E033
:1018C0000E94ED0B0895AB0161E070E00E94ED0B0A
:1018D0000895CF93DF93EC010BC0CE0160E070E080
:1018E0000E945D0C009711F41C8205C00E94930BAE
:1018F0008C81882391F7DF91CF9108950F931F93E7
:10190000DF93CF93CDB7DEB72897CDBFDEBF81E0A1
:101910006FE140E00E94610B883009F03FC0809188
:1019200049068C7FE0E4F6E081878EE061E00E946A
:10193000C90A8FE00E94E80A82E069E00E94C90AB1
:10194000CE0101960E94A3058E010B5F1F4F8FE011
:101950000E94E80A80FD14C0C8010E94A3058D8181
:101960009E81AF81B88529813A814B815C81821B40
:10197000930BA40BB50B89509740A040B04038F3AF
:1019800000E416E081E0F80184878EE068E00E94C0
:10199000C90A809149068360F80181872896CDBFE6
:1019A000DEBFCF91DF911F910F910895EF92FF92CB
:1019B0000F931F938C018091AC239091AD230F97CF
:1019C000D1F488E0E0E4F6E0868381E06FE140E076
:1019D0000E94610B8830C9F70830110519F00330F7
:1019E000110549F488E090E08093AC239093AD23F7
:1019F00028E030E0C2C281E06FE140E00E94610B6C
:101A00008093AC231092AD230930110509F499C0DD
:101A10000A30110568F40630110509F449C108308F
:101A2000110509F44BC00330110509F098C25EC0DE
:101A30000631110509F4AFC10731110528F40A3048
:101A4000110509F08CC2A0C00931110509F415C2B5
:101A50000A31110509F083C282E063E00E94C90ADD
:101A60000E94742D682F192F8DE20E94C90A8EE200
:101A700067E040E0212F0E94740B0000000000008E
:101A80000000000000000000000000000000000056
:101A90000000000000000000000088E0E0E4F6E044
:101AA000858383E290E00E94C4058FE090E08093FC
:101AB000AC239093AD232FE030E05FC2883009F46F
:101AC0004EC282E068E00E94C90A000000000000E7
:101AD0000000000000000000000000000000000006
:101AE0000000000000000000000039C2883009F446
:101AF00036C2893189F482E063E00E94C90A00E4B9
:101B000016E098E0F92EF801F58282E090E00E945C
:101B1000C405F801F68223C282E063E00E94C90A8C
:101B200000000000000000000000000000000000B5
:101B300000000000000000000000000000000000A5
:101B40000EC2883009F4B1C0893020F4863009F023
:101B500006C205C0863119F0893109F000C282E061
:101B600069E00E94C90A00000000000000000000B7
:101B70000000000000000000000000000000000065
:101B8000000000000000EBC1883009F48EC08930ED
:101B900048F4823009F437C0863061F0813009F0B2
:101BA000DEC108C0823109F452C0863119F081319A
:101BB00009F0D5C100E416E0F0904906809149068D
:101BC0008C7FF801818782E063E00E94C90A82E08D
:101BD00069E00E94C90A8FE00E94E80A81E0F801EA
:101BE0008487F18600000000000000000000000073
:101BF00000000000000000000000000000000000E5
:101C000000000000ACC100E416E0F09049068091AD
:101C100049068C7FF801818782E063E00E94C90A4F
:101C200082E069E00E94C90AF801F1860000000024
:101C300000000000000000000000000000000000A4
:101C400000000000000000000000000088C100E467
:101C500016E0E0904906809149068C7FF801818763
:101C600082E063E00E94C90A88E0F82EF801F6825B
:101C700082E090E00E94C405F801F58282E069E00C
:101C80000E94C90AF801E18600000000000000007F
:101C90000000000000000000000000000000000044
:101CA00000000000000000005AC10E947E0C57C1D5
:101CB000893069F08A3020F4883009F050C11CC0A6
:101CC000863109F430C0893109F049C12CC082E065
:101CD00066E00E94C90A0000000000000000000049
:101CE00000000000000000000000000000000000F4
:101CF00000000000000033C10E947E0C82E066E01C
:101D00000E94C90A0000000000000000000000005E
:101D100000000000000000000000000000000000C3
:101D2000000000001CC182E069E00E94C90A0000B6
:101D300000000000000000000000000000000000A3
:101D4000000000000000000000000000000081E032
:101D50006FE140E00E94610B282F30E02093AC231C
:101D60003093AD232930310509F007C182E066E0E8
:101D70000E94C90A000000000000000000000000EE
:101D80000000000000000000000000000000000053
:101D900000000000E4C0883009F1893020F486306A
:101DA00009F0DDC032C0893021F0893109F0D7C097
:101DB0002CC082E066E10E94C90A00000000000019
:101DC0000000000000000000000000000000000013
:101DD00000000000000000000000C1C00E947E0C56
:101DE00082E066E10E94C90A0000000000000000D5
:101DF00000000000000000000000000000000000E3
:101E00000000000000000000AAC082E069E00E941B
:101E1000C90A0000000000000000000000000000EF
:101E200000000000000000000000000000000000B2
:101E3000000081E06FE140E00E94610B282F30E05C
:101E40002093AC233093AD232930310509F095C0A0
:101E500082E066E10E94C90A000000000000000064
:101E60000000000000000000000000000000000072
:101E7000000000000000000072C0883009F459C062
:101E8000893020F4863009F06AC01BC0893021F007
:101E9000863109F064C015C082E069E10E94C90A78
:101EA0000000000000000000000000000000000032
:101EB0000000000000000000000000000000000022
:101EC0004EC082E069E00E94C90A000000000000E4
:101ED0000000000000000000000000000000000002
:101EE0000000000000000000000081E06FE140E021
:101EF0000E94610B282F30E02093AC233093AD2358
:101F00002930310509F039C082E069E10E94C90A2F
:101F100000000000000000000000000000000000C1
:101F200000000000000000000000000000000000B1
:101F300016C00E947E0C82E069E10E94C90A00007E
:101F40000000000000000000000000000000000091
:101F5000000000000000000000000000000081E020
:101F60006FE140E00E94610B282F30E02093AC230A
:101F70003093AD232F31310591F3C9011F910F919A
:101F8000FF90EF90089580919D238823F9F0809130
:101F9000B6239091B723892BC9F480912E23909179
:101FA0002F23892B39F48AE90E949B0B80932E23DF
:101FB00090932F2380912E2390912F23892B31F002
:101FC00010929D2386E190E00E94D60C8091A2237E
:101FD000882351F08EE993E260E070E00E945D0C8E
:101FE000009711F00E9401108091B6239091B723C1
:101FF000009731F08F708250823010F40E945F1190
:102000000895EF92FF920F931F93CF93DF937C017C
:10201000DC010D911C91D8011696ED91FC9117975A
:1020200080818093AF23C82FD0E02196CE0FDF1F91
:1020300098812981203210F02FE103C0222309F476
:1020400021E092959695969593708FEF989FC00199
:10205000112430E0FC01E29FC001E39F900DF29F4C
:10206000900D11246DE570E00E94E32C6F3F710527
:1020700011F008F06FEF6883D8011196ED92FC9291
:102080001297C8010E944719DF91CF911F910F91BC
:10209000FF90EF900895DF92EF92FF920F931F93BE
:1020A000DF93CF930F92CDB7DEB7E0912E23F0915F
:1020B0002F233097C9F1E080F18087E00E94E80A81
:1020C000D82ECE01019661E00E94090B698167FD5F
:1020D0002BC06D5F0AE910E0061B11090E0D1F1DD4
:1020E0006150C8010E94090BF7010683178389819B
:1020F000080F111DF801D28260912E2370912F23B9
:102100008EE993E20E94C80B8AE90E949B0B8093A0
:102110002E2390932F23892B39F489E090E00E949D
:10212000D60C81E080939D230F90CF91DF911F917A
:102130000F91FF90EF90DF9008952091B62330919A
:10214000B72322303105A9F5882349F582E060EEF6
:1021500045E00E94610B8330B1F0843028F488237D
:1021600061F08130E1F403C08530C9F412C0809180
:10217000B6239091B723806117C08091B6239091C8
:10218000B723806211C08091B6239091B7238063FA
:102190000BC08091B6239091B723806405C08091D5
:1021A000B6239091B72380658093B6239093B7238D
:1021B00008952330310531F483E290E08093B62313
:1021C0009093B7230895EF92FF920F931F93CF93AD
:1021D000DF937C01EB01442359F08CE260EF44E093
:1021E0002091AB230E94740BC230D10528F50AC0A0
:1021F0006230710538F08CE260EF44E020E00E942C
:10220000740B1AC089E090E00E94D60C0997D1F7B0
:1022100083E090E08093B6239093B7232197C1F495
:102220008091AF23833118F080E492E002C080E80F
:1022300090E00E94C4050CC089E190E00E94D60C99
:102240004997D1F782E090E08093B6239093B7232B
:1022500000E416E0809149068C7FF801818788E0D0
:1022600085838683F70160816150C7010E94400B1E
:10227000809149068360F8018187DF91CF911F919A
:102280000F91FF90EF900895FC018091B6239091FB
:10229000B723892B11F086E80895E093A823F093E3
:1022A000A923868197818093B0239093B1230097CF
:1022B00011F488EE08950E94E31080E00895809163
:1022C000B6239091B7239C01207F30708F7090705F
:1022D0008230910521F0039709F059C04AC020339C
:1022E000310539F12133310540F42031310569F0F0
:1022F0002032310509F04BC012C02034310519F1EC
:102300002035310509F043C028C01092B623109241
:10231000B7236091A8237091A92387E827C0109262
:10232000B6231092B7236091A8237091A92380E06F
:102330001DC01092B6231092B7236091A82370910C
:10234000A92381EE13C01092B6231092B723609197
:10235000A8237091A92389EE09C01092B623109288
:10236000B7236091A8237091A92385E80E94B7251F
:1023700008952032310559F41092B6231092B723F4
:102380006091A8237091A92380E00E94B725089549
:10239000282F85FD03C0982F9F7304C0982F919517
:1023A0009F719195E8EEF1E08491891734F03F96A2
:1023B0008491981714F0822F0CC0803E3CF080323C
:1023C0003CF487FF06C08F71806203C080E201C0C9
:1023D0008FE18068089584E08093A32323E0209315
:1023E000AA238FEF9FEF8093982390939923809354
:1023F0009B2390939C238BE08093A52380E098EF10
:10240000AFEFB7E08093B2239093B323A093B423AC
:10241000B093B523109297238AE091E0809395239F
:10242000909396238AE08093AE2382E08093A42346
:1024300085E08093A7232093AB2383E80E94C811F3
:1024400080938C2381E080939A231092A623089591
:1024500085FD03C0982F9F7304C0982F91959F719D
:102460009195E8EEF1E080E02491921724F029178D
:102470003CF4815008958F5F31968031A9F780E058
:1024800008951F93CF93DF9382E2609198230E9477
:10249000C90A83E2609199230E94C90ACDE8D3E278
:1024A00014E2812F69910E94C90A1F5F1C32C9F78B
:1024B00080E260919B230E94C90A81E260919C2383
:1024C0000E94C90A80918C230E942812282F85E03F
:1024D0006FE040E00E94740B88E060E645E02091E8
:1024E0009A230E94740B88E06FE140E02091A523BD
:1024F0000E94740B8EE260EC46E02091AA230E94B9
:10250000740BDF91CF911F9108950F931F93CF9379
:10251000DF93EB018E3431F0893541F4888180936B
:10252000AB23E2C088818093A323DEC02091AC233B
:102530003091AD232F30310511F481E8D6C08B30B6
:1025400009F4C5C08C3070F4823009F488C083303F
:1025500018F48823E9F115C0833009F48EC0843063
:1025600081F46DC0833521F1843528F48F3459F01E
:10257000803539F40FC0873509F46DC0803F09F408
:1025800083C084EFB2C028812093AA238EE260EC3E
:1025900046E0A3C088819981682F80939823909307
:1025A000992382E20E94C90A83E2609199230DC0B7
:1025B00088819981682F80939B2390939C2380E24C
:1025C0000E94C90A81E260919C230E94C90A8CC0C2
:1025D0008091B6239091B723892B09F081C080E0C8
:1025E00098EFAFEFB7E0088004C0B695A795979530
:1025F00087950A94D2F781709070892B09F472C084
:102600002830310519F408E010E008C088E090E0B7
:102610000E94D60C0897D1F706E110E0288120939C
:10262000A52388E06FE140E00E94740B083011059B
:1026300009F45AC086E190E00E94D60C55C0809102
:10264000B6239091B723892B09F04AC0888188234B
:1026500009F44AC047C088818093A72345C0888178
:1026600080938C230E94C81180938C230E9428128F
:10267000282F85E06FE040E030C0288120939A2326
:1026800088E060E645E029C0888180938D238981B8
:1026900080938E238A8180938F238B8180939023D4
:1026A0008C81809391238D81809392238E8180935E
:1026B00093238F8180939423CDE8D3E214E2812F7A
:1026C00069910E94C90A1F5F1C32C9F70DC0288199
:1026D0002093A6238EE268E043E00E94740B04C0BE
:1026E00086E803C088EE01C080E0DF91CF911F91A2
:1026F0000F910895EF92FF920F931F93E82E00E43D
:1027000016E088E0F801868380E793E00E94C40524
:10271000FF24F394F801F68286E090E00E94C4055D
:10272000F801F58210E081E06FE140E00E94610B6A
:102730001F5F1B3F11F485E83BC08830A1F788E09C
:1027400090E08093AC239093AD2383E061E00E94FE
:10275000C90A8EE260E245E021E00E94740B85E048
:1027600060E847E021E00E94740B8EE068E00E9480
:10277000C90A0E94742D682F192F8DE20E94C90A80
:102780008EE267E040E0212F0E94740B80E00E94FF
:10279000B1150E949B15EE2011F00E94EB110E94D2
:1027A00041121092B6231092B72310929D2380E01D
:1027B0001F910F91FF90EF9008950E947A13882344
:1027C00061F085E808958EE993E260E070E00E9490
:1027D0005D0C009711F00E94930B8091A223882337
:1027E00091F78BE795E10E947804E0E4F6E081E060
:1027F0008487809149068360818780E00895EF9205
:10280000FF920F931F93CF93DF930E948905882334
:1028100009F069C100E416E0FF24F394F801F582A1
:1028200088E0868384EF91E00E94C405F801F68277
:1028300086E090E00E94C405F801F58200E004C043
:102840000F5F0F3F09F44FC18DE10E94E80A82300B
:10285000B9F78CE10E94E80A823091F768E00E94A3
:10286000C90A00E081E06FE140E00E94610B015085
:1028700009F439C18830B1F788E090E08093AC2347
:102880009093AD2380E090E060E070E048E050E09D
:102890002DE833E20E94B40470918D23E0918E23E1
:1028A00040918F2360919023F0919123B0919223D6
:1028B000F090932350919423E72EEA9491E0E71649
:1028C00008F090E08E2F815021E08E1708F020E074
:1028D000192F180F91E0181708F090E0292B842F7A
:1028E000815031E0841708F030E0022F080F91E0AA
:1028F000081708F090E0392B862F815021E08617C9
:1029000008F020E0A32FA80F91E0A81708F090E0AE
:10291000292B8F2F815031E08F1708F030E0622F84
:10292000680F91E0681708F090E0392B8B2F8150E9
:1029300021E08B1708F020E0432F480F91E0481763
:1029400008F090E0292B8F2D815091E08F1508F031
:1029500090E0322F380F21E0381708F020E0922B5A
:102960005195591709F09AC03F3F09F097C04F3F62
:1029700009F094C06F3F09F091C0AF3F09F08EC0DD
:102980000F3F09F08BC01F3F09F088C0FDEFFE1517
:1029900008F084C00E946E0A0E94792DCDE8D3E22F
:1029A0000E94742D899383E2C539D807C9F78091B5
:1029B0008D2330918E2340918F23609190237091CD
:1029C0009123F0919223B091932350919423082F57
:1029D000015091E0081708F090E0832F815021E02A
:1029E000831708F020E0192F180F91E0181708F04E
:1029F00090E0292B842F815031E0841708F030E0DB
:102A0000A22FA80F91E0A81708F090E0392B862F8D
:102A1000815021E0861708F020E0E32FE80F91E0D5
:102A2000E81708F090E0292B872F815031E08717B5
:102A300008F030E0622F680F91E0681708F090E02E
:102A4000392B8F2F815021E08F1708F020E0432F82
:102A5000480F91E0481708F090E0292B8B2F815008
:102A600091E08B1708F090E0322F380F21E03817F3
:102A700008F020E0922B51955917A1F43F3F91F4B3
:102A80004F3F81F46F3F71F4EF3F61F4AF3F51F47A
:102A90001F3F41F40E3F08F081CF04C0872F9E2FC7
:102AA0000E94792D81E00E947A138823E1F48FE05F
:102AB0000E94E80A8BE795E10E947804809149061C
:102AC0008360E0E4F6E081870E94A20B8AE90E941D
:102AD0009B0B80932E2390932F238EE993E20E94E9
:102AE000C10B80E001C085E8DF91CF911F910F916C
:102AF000FF90EF900895CF93DF938FE00E94E80A54
:102B0000C82F83FF15C08091B6239091B7230297F9
:102B1000029760F486E190E00E94D60CC6FF02C0E6
:102B200081E001C080E00E949D1002C00E944B1015
:102B3000DF91CF9108958091AC239091AD230F97B1
:102B400011F082E8089588E090E00E94D60C089782
:102B500011F085E8089581E090E00E949B0580E0F7
:102B60000895882311F088EE08958091AC23909108
:102B7000AD230F9711F481E808958091B6239091C9
:102B8000B723892BA1F410929D2388E090E00E9446
:102B9000D60C0897D1F780E090E00E949B058AE16F
:102BA00090E00E94D60C0F9711F480E0089586E81B
:102BB0000895282F8091B6239091B723892B11F087
:102BC00086E80895283041F488E090E00E94D60C11
:102BD00010929D2388E0089580912E2390912F23B9
:102BE000892B31F086E190E00E94D60C86E00895B2
:102BF00081E080939D2386E00895DC01ED91FC91B6
:102C0000119784E1808363834183528387E194E257
:102C1000BD010E94C80B08950F931F93DF93CF93BC
:102C20000F920F92CDB7DEB7A091D423B091D523E8
:102C3000ED91FC91119784E180838BEE83830FEFFC
:102C40001FEF0183128387E194E2BD010E94C80B4C
:102C50001092C52309831A8380E5BE016F5F7F4F01
:102C60000E94B6210093D6231093D7231092E42319
:102C70001092E5231092E6231092E7231092E823A6
:102C80001092E9231092EA231092EB230E94B020C5
:102C90000F900F90CF91DF911F910F910895EF92B8
:102CA000FF920F931F93E090E023F090E12380E0E8
:102CB00061E040E020E030E000E010E00E943E1CD7
:102CC0008823A9F4A091D423B091D523ED91FC9150
:102CD000119784E1808381EE83838FEF9FEF81835F
:102CE000928387E194E2BD010E94C80B19C0A7013D
:102CF00060E070E084E0440F551F661F771F8A95DF
:102D0000D1F780E020E030E00CE016E1EE24FF2473
:102D10000E94CB07882321F080E090E00E940C16EF
:102D20001F910F91FF90EF900895FF920F931F93C3
:102D3000DF93CF930F920F92CDB7DEB7F0900C24B4
:102D40000E94930BFF20B1F583E56AE074E20E94D4
:102D5000B62120910A2430910B248091FF23809387
:102D6000E423809100248093E523809101248093C3
:102D7000E623809102248093E723809103248093AB
:102D8000E823809104248093E92380910524809393
:102D9000EA23809106248093EB2381E0809313241F
:102DA0001092C5238091CF23833031F582E0809348
:102DB000CF2322C01092C5230FEF1FEF09831A8380
:102DC00080E5BE016F5F7F4F0E94B6210093D6233E
:102DD0001093D7231092E4231092E5231092E62358
:102DE0001092E7231092E8231092E9231092EA232D
:102DF0001092EB232FEF3FEFE091D423F091D523F6
:102E0000A081B18184E18C931396FC921397119663
:102E10002D933C93129787E194E2BF010E94C80B67
:102E20000E94B0200F900F90CF91DF911F910F91D2
:102E3000FF900895CF92DF92EF92FF921F93DF935E
:102E4000CF93CDB7DEB72F97CDBFDEBFAC017C01EE
:102E5000DE011196FC01808191819C01F9018FE0D6
:102E600001900D928150E1F74093D4235093D523E4
:102E70008C81823019F48F8198851AC08F8180935C
:102E8000E42388858093E52389858093E6238A85DA
:102E90008093E7238B858093E8238C858093E923B7
:102EA0008D858093EA238E858093EB238EEF9FEFB1
:102EB0008093D6239093D72380E5BE016B5F7F4F2D
:102EC0000E94B6210E948B20D701CD90DC9081E03A
:102ED000F6018083E182F282EA56FF4F80838F857C
:102EE00081839F0128503040D901EDE8F3E288E06A
:102EF00001900D928150E1F7F9018FEF9FEF9293CE
:102F000082938C81823051F48091D6239091D72383
:102F10009293829345E123E238EC11C0F9013A978C
:102F20009F0144EE53E288E0DA010D90AD01D90132
:102F30000D929D018150C1F74BE123E23CEC809161
:102F4000982390919923929382938091D023829396
:102F50008F5F8093D023329322934293D6011696AB
:102F6000ED93FC93179784E0BE016D5F7F4F0E9445
:102F7000B621182F80E0BE016E5F7F4F0E94B62100
:102F8000112371F4882361F4C60162E070E041E02E
:102F90000E944411882321F481E08093142412C0FC
:102FA000D701ED91FC9184E1808381EE83838FEFE3
:102FB0009FEF8183928387E194E2B7010E94C80B5F
:102FC0000E94B0202F96CDBFDEBFCF91DF911F9121
:102FD000FF90EF90DF90CF900895FC010190F08179
:102FE000E02D628173818181448125810E94E22CE0
:102FF00008950F931F938C01DC01ED91FC91818169
:1030000062810E94DF2CC8010E94930B1F910F91D7
:103010000895AF92BF92CF92DF92EF920F931F93DA
:103020005C01DC01ED91FC910481158126813781E1
:10303000818162814381E08439966F010E9442025E
:10304000C5010E94930B1F910F91EF90DF90CF90DD
:10305000BF90AF9008950F931F938C01DC01ED9109
:10306000FC9181810E94E12CC8010E94930B1F9169
:103070000F9108950F931F938C01DC01ED91FC914A
:1030800081810E949102C8010E94930B1F910F91B0
:1030900008950F931F938C01DC01ED91FC918181C8
:1030A0000E945801C8010E94930B1F910F9108952F
:1030B0000F931F938C01DC01ED91FC918181628162
:1030C0003396AF010E94DE2CC8010E94930B1F9122
:1030D0000F910895EF92FF920F937C01DC01ED9127
:1030E000FC91218132814381548165817681878180
:1030F000908501850E94DD2CC7010E94930B0F91E2
:10310000FF90EF9008950F931F93DF93CF93CDB768
:10311000DEB72B97CDBFDEBF8C01DC01ED91FC91BA
:1031200082818983838194818A839B839E012C5F22
:103130003F4FAF014B5F5F4F88E0DA010D90AD016B
:10314000D9010D929D018150C1F78181BE016F5F50
:103150007F4F0E94DC2CC8010E94930B2B96CDBFA1
:10316000DEBFCF91DF911F910F910895CF92DF9233
:10317000EF92FF920F936C01DC01ED91FC91BF0186
:103180006E5F7F4F24893589E788F08C8181438980
:1031900006890E94DB2CC6010E94930B0F91FF90C1
:1031A000EF90DF90CF9008950F931F938C01DC0177
:1031B000ED91FC918181928163810E941902C80185
:1031C0000E94930B1F910F9108950F931F938C01F1
:1031D000DC01ED91FC91818162810E94DA2CC801B1
:1031E0000E94930B1F910F910895CF92DF92EF925F
:1031F0000F93DF93CF93CDB7DEB76697CDBFDEBF1A
:103200006C01DC01ED91FC91818189838281938144
:103210008A839B839E012C5F3F4FAF014C5F5F4FC2
:1032200088E0DA010D90AD01D9010D929D01815028
:10323000C1F784858C87858596858D879E879E01BD
:10324000215F3F4FAF01415F5F4F88E0DA010D9092
:10325000AD01D9010D929D018150C1F7228D338DB1
:10326000CE010196BE01645F7F4F418D0789E08CDE
:103270000E948F01C6010E94930B6696CDBFDEBFF0
:10328000CF91DF910F91EF90DF90CF900895FC01E7
:103290001082618172816115710521F08BED93E2DD
:1032A0000E94C80B08950F931F93CF93DF93282F8D
:1032B00080910A2490910B2496FFA3C0222359F4F5
:1032C0002091FD233091FE238091982390919923A2
:1032D0002817390761F02091FD233091FE2380915A
:1032E000D9239091DA232817390709F08AC0209151
:1032F000FF23309100248091D6239091D723281763
:10330000390709F47EC09091FF238091E423981738
:1033100059F5909100248091E523981729F5909113
:1033200001248091E6239817F9F49091022480916A
:10333000E7239817C9F4909103248091E823981704
:1033400099F4909104248091E923981769F490915D
:1033500005248091EA23981739F4909106248091EE
:10336000EB23981709F44DC08AE90E949B0B8C014E
:10337000009709F446C0DC012D913C9185E0F901EC
:10338000808301831283E956FF4F8083AF01485049
:103390005040FA01ADE8B3E288E00D90019281500F
:1033A000E1F7FA013897EF01A4EEB3E288E00D905F
:1033B00009928150E1F780919823909199239293FB
:1033C00082938091D02382938F5F8093D02383E672
:1033D0009CEC9293829388E18293D9011696ED93A7
:1033E000FC931797C90162E070E041E00E9444112C
:1033F000882321F481E08093142403C0C8010E9433
:10340000930BDF91CF911F910F9108950F931F930D
:10341000CF93DF93EC01E881F981A681B7817C919C
:103420007093EF23FD01E70FF11D81818093082444
:1034300011964D915C9112974093EC235093ED239C
:1034400013968C9113978093F0238D010C5F1F4F7F
:10345000652F6295669566956370352F369536951E
:10346000337019F4F80120E049C014968D919C91B5
:1034700015978093F2239093F323FD013696323013
:10348000E1F41092F4231092F5231092F623109297
:10349000F7231092F8231092F9231092FA23109236
:1034A000FB2316968D919C9117978093F42390930C
:1034B000F523FD01389624E021C0333011F022E0DD
:1034C0001DC016968C9116978093F423818180936A
:1034D000F52382818093F62383818093F72384816F
:1034E0008093F82385818093F92386818093FA2342
:1034F00087818093FB23FD013E962AE0662309F431
:1035000047C046FD08C0819191918093FD2390931F
:10351000FE232E5F08C08091F2239091F3238093C5
:10352000FD239093FE236230C1F41092FF2310928A
:10353000002410920124109202241092032410926D
:103540000424109205241092062480819181809396
:10355000FF23909300242E5F1BC06330C9F4808149
:103560008093FF23818180930024828180930124B2
:1035700083818093022484818093032485818093B6
:103580000424868180930524878180930624285F04
:10359000972F9550921B909309246093FC233093AE
:1035A000F12343FD5CC1D801A20FB11D842F8770A8
:1035B0008093EE23833021F48C918093072463C0A1
:1035C000813009F451C0813020F0833009F047C1C7
:1035D0005AC08D919C91119780930A2490930B244B
:1035E00012968C91129780930C24877011F493E0BB
:1035F00002C0982F9C5FFD01E90FF11D808180932F
:103600000D24292F2F5F382F377090E0807790702E
:1036100044E0959587954A95E1F7482F332311F4B7
:10362000882389F0CD01820F911D80930E24909301
:103630000F24332311F0330F230F442321F0440FC1
:10364000440F440F240F80910924281750F4821B43
:1036500080931024A20FB11DA0931124B0931224C3
:1036600002C110921024FFC0992351F0963718F030
:1036700086E780930924A0930A24B0930B24F3C017
:1036800010920924F0C080910724843009F4EBC023
:10369000853030F4823059F0833009F0E0C014C036
:1036A000873009F4E0C0883009F0D9C012C0119603
:1036B0008D919C91129780930A2490930B241396DA
:1036C0008C9180930C24CFC011968C9180930A2406
:1036D000CAC011968D919C91129780930A24909361
:1036E0000B2413968D919C91149780930C249093A6
:1036F0000D2415968C91159780930E2416968D9116
:103700009C91179780930F249093102454FFABC083
:1037100018968C9180931124A6C08091EE2383305B
:1037200061F480910724843011F0873031F48BEDFF
:1037300093E2BE010E94C80B9CC08091C5238130DA
:1037400009F478C0813020F0843008F088C059C076
:103750008091CE23882351F590911324923008F064
:103760007EC08091EE23813009F475C0813020F055
:10377000833009F074C00CC080911624882309F4AA
:103780006EC0992309F46BC080E00E94531967C092
:1037900080910724833009F040C0CE010E94521D61
:1037A00080911324813009F064C03DC08330D1F092
:1037B000843019F0823009F052C08091EE238823C2
:1037C00009F04DC080911624882341F08091132484
:1037D0008150823018F481E00E945319CE010E947A
:1037E0006F2447C08091EE238330C9F58091072470
:1037F0008830A9F581E00E94BC06CE010E94EC272A
:1038000038C00E94E4238091EE23813021F183307F
:1038100031F580910724833019F0883001F506C016
:10382000CE010E94521D0E945E2123C0CE010E9443
:10383000C72A1FC08091EE23833059F4809107245A
:10384000823069F480E00E94BC06CE010E94951689
:1038500010C0813021F4CE010E94531E0AC0CE0157
:103860000E94930B06C080911424882309F055CF41
:1038700064CFDF91CF911F910F9108956F927F9246
:103880009F92AF92BF92CF92DF92EF92FF920F93EF
:103890001F93CF93DF93D82E962EC42E5901380153
:1038A0008AE90E949B0B7C01009709F49BC0DC0114
:1038B0000D911C91DD2021F084E0F801808303C08C
:1038C0008BE0D8018C93F801E182F282E956FF4F38
:1038D00084E0808320919B2330919C23C901029630
:1038E000029710F0992069F03897EF01ADE8B3E244
:1038F00088E00D9009928150E1F762E183E290EC5B
:1039000005C0329322936CE083E290E8CC2061F012
:1039100020919823309199236216730629F06E5FE7
:103920003293229370E002C0806471E022E0C216FC
:1039300041F4AC015860D5018D919C919293829392
:1039400028C0B3E0CB1661F4AC015C6038976A5FC5
:10395000EF01D50188E00D9009928150E1F719C07F
:103960002091D6233091D7234FEF2E3F340729F0F3
:10397000AC015860329322930CC0AC015C60389764
:103980006A5FEF01A4EEB3E288E00D9009928150E6
:10399000E1F73297772339F080919823909199231A
:1039A0008083918302C0608271828091D023829350
:1039B0008F5F8093D023529342936293D8011696DF
:1039C000ED93FC931797C80162E070E041E00E941C
:1039D0004411882321F481E08093142404C0C7019A
:1039E0000E94930B80E0DF91CF911F910F91FF9088
:1039F000EF90DF90CF90BF90AF909F907F906F90AF
:103A00000895EF92FF920F931F93CF93DF937C0162
:103A1000E801DC01ED91FC9186E1808361834283C2
:103A200023833483CF010596423069F415821682D0
:103A300017821086118612861386148688819981D2
:103A40008583968307C0DC01F80188E001900D9220
:103A50008150E1F787E194E2B7010E94C80BDF9142
:103A6000CF911F910F91FF90EF9008950F931F93A7
:103A7000AC0180919B2390919C23029620919823E6
:103A800030919923029728F4CA0143E00DE813E22C
:103A900004C0CA0142E00BE913E20E94011D1F911C
:103AA0000F910895CF93DF939C01FC01C081D181D8
:103AB000FE0185E18193AFEFB3E288E00D900192C2
:103AC0008150E1F780910A24898787E194E2B90166
:103AD0000E94C80B1092E4231092E5231092E62373
:103AE0001092E7231092E8231092E9231092EA2320
:103AF0001092EB238FEF9FEF8093D6239093D723E1
:103B0000DF91CF9108950F931F93DF93CF93CDB79C
:103B1000DEB72E97CDBFDEBF8C01DC014D915C91ED
:103B2000DE011196FA018EE001900D928150E1F7CD
:103B3000FA010183128383E08083EA56FF4F80837A
:103B40008D85818338979F016DE873E288E0DB0102
:103B50000D90BD01D9010D929D018150C1F78A815F
:103B6000823031F48D819E819293829333E10FC034
:103B700038979F01BE016B5F7F4F88E0DB010D909E
:103B8000BD01D9010D929D018150C1F739E18091AC
:103B9000982390919923929382938091D02382933A
:103BA0008F5F8093D0232A81922F990F990F80E005
:103BB0008366906C929382933293DA011696ED931A
:103BC000FC9317970E948B20F8018081918162E01D
:103BD00070E041E00E944411882321F481E0809349
:103BE00014240CC02B813C81C80161EE4A818E01F6
:103BF0000B5F1F4F0E94011D0E94B0202E96CDBF6B
:103C0000DEBFCF91DF911F910F910895DC01ED91FF
:103C1000FC911197E081E43278F4F0E0EE0FFF1FA1
:103C2000E850FE4F259134912115310519F0F90125
:103C3000199508950E94930B08951F938091142461
:103C4000882381F48091CD23882361F089EC93E26D
:103C500060E070E00E945D0C009721F00E94061E5B
:103C600011E001C010E08091DF23882359F08BED33
:103C700093E260E070E00E945D0C009719F00E94F2
:103C8000061E11E0812F1F910895DC01ED91FC913A
:103C9000119780E180834183628387E194E2BD01D3
:103CA0000E94C80B08950F931F93DF93CF93CDB756
:103CB000DEB72897CDBFDEBFAC01DC019C91119629
:103CC0002C9180910924882321F4CA010E94930B2E
:103CD0000EC1E92FF22F8091F023808F2091FC23D9
:103CE00021838091FD239091FE2382839383822FF1
:103CF0008250823010F51482158216821782108647
:103D0000118612861386223039F48091FF23909118
:103D10000024848395831BC02330C9F49F012C5F4A
:103D20003F4F6FEF73E288E0DB010D90BD01D901D9
:103D30000D929D018150C1F70AC012821382148234
:103D40001582168217821086118612861386208DA0
:103D50008091B823281761F594818091BB2398172F
:103D600039F595818091BC23981711F59681809142
:103D7000BD239817E9F497818091BE239817C1F469
:103D800090858091BF23981799F491858091C023E5
:103D9000981771F492858091C123981749F49385FF
:103DA0008091C223981721F4CA010E94930B5AC034
:103DB0002093B82384818093BB2385818093BC2387
:103DC00086818093BD2387818093BE2380858093E5
:103DD000BF2381858093C02382858093C1238385FF
:103DE0008093C2232091F12324871786108A118A99
:103DF000128A138A148A158A168A8091F223909166
:103E0000F32385879687233079F49F01215F3F4F05
:103E100064EF73E288E0DB010D90BD01D9010D92E2
:103E20009D018150C1F70BC0223039F48091F423F9
:103E30009091F5238787908B02C015861686809116
:103E40000824878B80910924818F80910A24909186
:103E50000B24828F938F81E1808387E194E2BA0102
:103E60000E94C80B8091EC2384FF41C08091FC2309
:103E7000823071F48091FF239091002489839A838A
:103E80000091FD231091FE2380E060E042E021C01C
:103E9000833019F58091FF238983809100248A83E0
:103EA000809101248B83809102248C838091032450
:103EB0008D83809104248E83809105248F8380914B
:103EC000062488870091FD231091FE2380E060E0A6
:103ED00043E09E012F5F3F4F07C080E060E040E07D
:103EE00020E030E000E010E00E943E1C02C00E9492
:103EF000B0202896CDBFDEBFCF91DF911F910F91EB
:103F00000895CF92DF92EF92FF920F931F93DF936A
:103F1000CF93CDB7DEB76297CDBFDEBF8C01DE0198
:103F20001196FC01808191819C01F90182E101904F
:103F30000D928150E1F78F8582FD11C08091C523DC
:103F4000882321F48091CE23882349F09E85D801CF
:103F5000ED91FC9180E18083918381EEB5C0F80101
:103F6000C080D1808DE0D6018C938E8513968C9382
:103F7000888945E0F42EF80EE8E9F0E0E81BF10945
:103F8000EC0DFD1D9A81923051F437E0F32EF80EBE
:103F900080919B2390919C239293829312C09330A3
:103FA00081F438972DE0F22EF80E9F014DE853E290
:103FB00088E0DA010D90AD01D9010D929D0181508B
:103FC000C1F720919823309199238C819D812817E6
:103FD000390749F48A81882331F08B81882319F0CD
:103FE00040E450E009C08A81882321F0B2E0FB0E52
:103FF0003293229340E050E08B81882311F182308C
:1040000039F46F2D6E5F8E819F819293829312C0DF
:1040100038976F2D685F9F0196E0E92EF12CEC0E2A
:10402000FD1E88E0D7010D907D01D9010D929D0103
:104030008150C1F782E0F82EF60E8C819D8192931B
:1040400082938091D02382938F5F8093D023BA0193
:1040500061608F8580FF02C0BA01616288898736FE
:1040600008F070618B81382F330F330F20E04A81C5
:10407000942F9295990F990F907C80E0282B392BE3
:10408000262B372B329322933296F7FC15C03397A9
:10409000F082D6011696ED93FC9317970E948B2021
:1040A000F60101831283C60162E070E041E00E94E4
:1040B0004411882381F013C09E85D801ED91FC91B5
:1040C00080E18083918385EE828387E194E2B80169
:1040D0000E94C80B14C081E08093142410C09E85F8
:1040E000D801ED91FC9180E18083918381EE828300
:1040F00087E194E2B8010E94C80B0E94B02062964A
:10410000CDBFDEBFCF91DF911F910F91FF90EF9058
:10411000DF90CF90089580911524813051F40E9452
:104120009B15853831F081E090E00E949B0510924C
:104130001524089580911524882389F480E090E067
:104140000E949B0580E00E94B115882321F481E044
:1041500080931524089581E090E00E949B050895C6
:104160008091B923882331F48091D823882311F4D6
:104170000E949A2008950F931F93182F10921424D1
:1041800010921324109215241092CE231092CF2354
:104190001092C5231092B8238FEF8093BB23809396
:1041A000BC238093BD238093BE238093BF23809341
:1041B000C0238093C1238093C2231092D82388E028
:1041C0000E94D9150FB7F89480E00E94BC0681E0E8
:1041D0000E94BC0682E00E94BC060FBF112391F131
:1041E0001092162482EC97E08093C7239093C82303
:1041F00080E098E78093E0239093E1231092C4231A
:1042000081E08093C62386E08093BA231092E42352
:104210001092E5231092E6231092E7231092E823F0
:104220001092E9231092EA231092EB238FEF9FEF75
:104230008093D6239093D7230E94742D8093D0230C
:104240001092B9231F910F9108950F931F93CF934D
:10425000DF93EC01088119810E948B20F801018114
:1042600080E090E00E949B0580E0011181E00E94C7
:10427000DD13182F81E090E00E949B05802F0E94A3
:10428000BB200E94B02089EC93E20E94690C8BED68
:1042900093E20E94690C87E194E20E94690CE88134
:1042A000F981118380E2808387E194E2BE010E945C
:1042B000C80BDF91CF911F910F910895DF93CF939A
:1042C00000D00F92CDB7DEB70E948B208FEF9FEF0B
:1042D00089839A838B839C8383E5BE016F5F7F4FC5
:1042E0000E94B62180E5BE016D5F7F4F0E94B6211E
:1042F00081E00E94BB200E94B0202496CDBFDEBF8B
:10430000CF91DF9108950E94FF13882399F40E94B2
:104310006E09882379F081E00E94BB200E94B020C2
:1043200089EC93E20E94C10B8BED93E20E94C10BDA
:1043300080E0089585E80895E82F883030F4E82F6C
:10434000F0E0E05CFD4F849108958054803228F4C1
:10435000F0E0E85FFD4F84910895E03F10F480E0C5
:104360000895F0E0E858FE4F849108951F93CF938D
:10437000DF93182FEB0180911524813051F40E94B6
:104380008B20812FBE010E948512182F0E94B02021
:1043900004C0812F0E948512182F812FDF91CF91A9
:1043A0001F910895FF920F931F93CF93DF93182FC0
:1043B000EB01F42E813520F58E3408F087C083346C
:1043C00009F484C0843460F4853038F4823008F015
:1043D0007DC0882309F47AC02DC0823459F53AC0D3
:1043E0008A3409F43FC08B3428F48434B9F187341B
:1043F00009F56CC08B3409F44EC08C34D9F452C02A
:10440000873509F463C0883558F4853530F4833531
:1044100008F05CC0823571F449C0863559F40CC08F
:10442000893509F453C0893558F08A3561F0803FE9
:1044300009F44CC004EFABC0888180931624A6C059
:10444000888199819FC0888199818093E02390938E
:10445000E1239CC088818093C62398C08881809383
:10446000BA2394C088818093E42389818093E523D3
:104470008A818093E6238B818093E7238C818093CC
:10448000E8238D818093E9238E818093EA238F81B5
:104490008093EB237BC0888199818093D62390936E
:1044A000D72374C088818093D02370C06881611144
:1044B00061E06093B923662331F00E948B2086E08F
:1044C0000E94D91563C00E94B02060C0812FBE0138
:1044D0000E948512082F813871F40E949B15812F4C
:1044E000BE010E948512082F882309F050C081E088
:1044F0008093302303C0882309F049C08091A3230F
:10450000282F30E08091A723482F50E06091AA2304
:10451000CA01861B9109281739070CF4C901A82F75
:10452000281B310981E090E002C0880F991F4A954D
:10453000E2F70197289FA001299F500D389F500D49
:10454000112420E030E070E0E1E0F0E00DC0C901AE
:10455000860F971FEF0102C0CC0FDD1F8A95E2F78F
:104560004C0F5D1F2F5F3F4F2A1788F384E190E0C7
:104570009C01429FC001439F900D529F900D1124BA
:10458000865F9E4F8093C7239093C82300E0FF204F
:1045900049F080913023882329F080E00E94B115F2
:1045A00010923023802FDF91CF911F910F91FF90B8
:1045B0000895EF92FF920F931F937C01FC010081FD
:1045C0001181B8016E5F7F4FF801818141E00E9447
:1045D000D221F801918192839FE19083818387E1C9
:1045E00094E2B7010E94C80B1F910F91FF90EF90CA
:1045F0000895CF93DF93AC01DC01ED91FC919F0115
:104600002D5F3F4F81818C3409F485C08D3438F59E
:10461000853009F464C0863088F4823009F4ACC077
:10462000833030F4882309F497C08130E9F597C0CE
:10463000833009F4A4C08430B9F54EC0823409F443
:1046400059C0833430F4863009F44EC0873061F5A8
:104650004EC08A3409F451C08B3431F557C08635C9
:1046600029F1873588F4803509F45EC0813530F44E
:104670008E3409F453C08F34B9F453C0823509F431
:1046800058C0833589F458C08935D9F08A3528F463
:10469000873579F0883541F40FC08D35D1F0803FF2
:1046A00009F451C08A3581F094EF6DC080911624D1
:1046B00068C08091A72365C08091C7239091C823CB
:1046C0003FC08091AB235DC08091E0239091E123B6
:1046D00037C08091C42355C08091972352C08091E8
:1046E0009523909196232CC08091AE234AC080914F
:1046F000A42347C08091C62344C0E901A4EEB3E2DD
:1047000088E00D9009928150E1F73CC08091D6235A
:104710009091D72315C08091D02333C08091A323DB
:1047200030C08091AA232DC0809198239091992325
:1047300007C08091B92325C080919B2390919C2331
:10474000838394831FC0E901ADE8B3E288E00D9054
:1047500009928150E1F716C08091A52312C0809183
:10476000B2239091B323A091B423B091B523838356
:104770009483A583B68306C080918C2302C0809168
:104780009A23838390E0818182838EE18083918369
:1047900087E194E2BA010E94C80BDF91CF9108959E
:1047A000CF93DF93EC01E881F98183E28083618319
:1047B000662311F00E94B02087E194E2BE010E94BE
:1047C000C80BDF91CF9108958091EE238823E1F00B
:1047D00080E00E94BC068091EE23813031F480910C
:1047E0000924882311F060E001C06BEE8091C5239D
:1047F000823031F48091D4239091D5230E94D0232C
:10480000109214241092C52308958091C5238230FC
:1048100039F48091D4239091D5236BEE0E94D0235C
:104820001092C523109214240895CF92DF92EF9234
:10483000FF920F931F93DF93CF93CDB7DEB72897E7
:10484000CDBFDEBFD82EC92E8091C5238823B1F5F8
:104850008091CE23882391F50E948B20ED2CFC2C97
:10486000D701ED91FC9181819F012C5F3F4F8230F8
:1048700031F48481958189839A8342E00DC0AE0131
:104880004F5F5F4F88E0D9010D909D01DA010D92D5
:10489000AD018150C1F743E00281138181E060E006
:1048A0009E012F5F3F4F0E943E1C882329F0D0922B
:1048B000D423C092D52307C0C70102C08D2D9C2DE3
:1048C00061EE0E94D0232896CDBFDEBFCF91DF914D
:1048D0001F910F91FF90EF90DF90CF9008955F921E
:1048E0006F927F928F929F92AF92BF92CF92DF9200
:1048F000EF92FF920F931F93DF93CF93CDB7DEB765
:104900006197CDBFDEBFBC014091CE23423011F094
:10491000443069F48091C623882349F0E091D42380
:10492000F091D52320813181D901199604C0A0E0EE
:10493000B0E020E030E05091FC2359830091FD234A
:104940001091FE230A831B83523069F41E821F825A
:10495000188619861A861B868091FF239091002461
:104960008C839D8318C08091FF238C8380910024C9
:104970008D83809101248E83809102248F83809186
:1049800003248887809104248987809105248A875D
:10499000809106248B879090A5239C86B0909723C6
:1049A000BD8680910A2490910B248E879F87188A58
:1049B00080910C2487FF02C081E0888B80910824BD
:1049C000898B423019F0443009F06FC08091C623C2
:1049D000882309F46AC0F901F084EC81FD815C80D0
:1049E0006D807E808F80A884C984DA84EB8440E067
:1049F00049C011968D919C9112970817190709F0DB
:104A00003FC08C915817E1F51B968C911B97981617
:104A1000B9F51C968C911C97B81691F5523041F45B
:104A200013968D919C911497E817F90749F53DC0AD
:104A300013968C911397851519F514968C911497EC
:104A40008615F1F415968C9115978715C9F416966D
:104A50008C9116978815A1F417968C9117978A1543
:104A600079F418968C9118978C1551F419968C91AD
:104A700019978D1529F41A968C911A978E15A9F00D
:104A80004F5F51964F1508F4B4CF59C0FD01DE01B8
:104A9000119681E10D9001928150E1F7D9011896AC
:104AA0008C9118978F5F18968C9390910D2480911C
:104AB0001024882321F48091C6238823E1F5DB01AB
:104AC000ED91FC9187E180838091F02381839F01A8
:104AD0002E5F3F4FAE014F5F5F4F81E1DA010D90D6
:104AE000AD01D9010D929D018150C1F780910D2436
:104AF000838B892F877059F4892F90E0807790708D
:104B000024E0959587952A95E1F7882331F08091E7
:104B10000E2490910F24848B958B80911024868B8A
:104B20008091112490911224878B908F87E194E2D9
:104B30000E94C80B09C0CB010E94930B05C0E4E0A2
:104B4000EF1508F4B2CFA2CF6196CDBFDEBFCF91F3
:104B5000DF911F910F91FF90EF90DF90CF90BF906A
:104B6000AF909F908F907F906F905F900895EF929D
:104B7000FF920F931F93CF93DF93182FEB011092A7
:104B800014248091CE23823021F48881873051F41F
:104B900005C0833039F48881863021F4812F0E944A
:104BA000272AA5C08881843009F451C0853030F4AB
:104BB000813009F1833009F098C010C08B3009F4BE
:104BC00046C08D3021F0853009F08FC087C08981C3
:104BD0009A81612F4B810E94451E87C089819A81ED
:104BE000612F0E94361D80911324813009F07DC011
:104BF0000E945E217AC0193E11F0113E41F4898174
:104C00009A81612F4FEF5FEF0E94FD156EC0809378
:104C1000C5234091E0235091E12360E070E094E0EF
:104C2000440F551F661F771F9A95D1F780E020E04B
:104C300030E00FE416E1EE24FF240E94CB07882326
:104C400009F455C080E090E00E944F1650C0898161
:104C50009A810E94930B8091C523813009F447C04B
:104C600088818430A1F4173881F0E091D423F09149
:104C7000D523A081B18183E28C9311961C9387E1A7
:104C800094E2BF010E94C80B30C082E005C0193E0B
:104C900061F1113E51F183E08093C5234091C72318
:104CA0005091C82360E070E084E0440F551F661FF8
:104CB000771F8A95D1F780E020E030E005E014E22C
:104CC000EE24FF240E94CB0791E0909314248823C4
:104CD00071F080E090E00E94052409C089819A81EA
:104CE0000E94930B8EEE0E94822A0E94B020DF91D8
:104CF000CF911F910F91FF90EF900895EF92FF9247
:104D00000F931F931092D8238091B9238823C9F45D
:104D1000809115248823A9F488E00E94D915883051
:104D200071F082E040E850E060E070E020E030E0C8
:104D30000EE716E2EE24FF240E94CB0702C00E9479
:104D4000B0201F910F91FF90EF900895DF92EF92A6
:104D5000FF920F931F93CF93DF93EC01E881F981CA
:104D6000E680F78000851185E114F1040105110545
:104D700039F480E090E00E947E26E881F98147C006
:104D80008091C5238823F1F58091CE238823D1F526
:104D90000E948B2086E00E94D915D82E81E0809356
:104DA000D82382E00E94EE05882319F082E00E9459
:104DB000BC0684E0EE0CFF1C001F111F8A95D1F782
:104DC00082E0B801A70120E030E00EE716E2EE2411
:104DD000FF240E94CB07882381F0E881F98181E2DA
:104DE000808388EE818387E194E2BE010E94C80B34
:104DF00080E090E00E947E2612C0E881F98186E082
:104E0000D81629F081E2808382EF818303C081E29A
:104E10008083118287E194E2BE010E94C80BDF917A
:104E2000CF911F910F91FF90EF90DF900895BC01FB
:104E300087E194E20E94C80B8091C32380933723BB
:104E400084E067E373E20E94B6218091D3238093CC
:104E5000362380E066E373E20E94B6211092CE23EF
:104E60000E94B0200895CF93DF93E091E223F09168
:104E7000E323C081D181DE01A956BF4FE983FA83C4
:104E8000882339F087E088838C934AE023E038E078
:104E900013C086E088838C9318979D014DE853E2F8
:104EA00088E0FA010190AF01F90101929F01815060
:104EB000C1F742E123E438ECFD018FEF9FEF9293BD
:104EC000829332978083918315978091D0238C931E
:104ED0008F5F8093D0233E932E93FD014293EE8308
:104EE000FF83CE0160E070E040E00E94441188231F
:104EF00011F080E003C081E080931424DF91CF9112
:104F00000895EF92FF920F931F93DF93CF930F9229
:104F1000CDB7DEB79091CE23933009F443C09430DF
:104F200041F0923009F050C0882309F048C081E078
:104F30003BC0882309F043C086E00E94D915863023
:104F400021F540EC53E060E070E00090382304C0AD
:104F5000440F551F661F771F0A94D2F740545C4FC9
:104F60006F4F7F4F84E0440F551F661F771F8A9550
:104F7000D1F781E020E030E00EE019E2EE24FF24DA
:104F80000E94CB07882301F113C0809136238F5FE5
:104F9000809336236091D4237091D52382E00E94C0
:104FA000442812C0882359F40E943327882361F4CF
:104FB00081E08983CE0101960E940E2905C080916F
:104FC00036238F5F809336230F90CF91DF911F910F
:104FD0000F91FF90EF9008950F931F938C01809194
:104FE000E2239091E3230E94930B1092E22310920C
:104FF000E323A091D423B091D523ED91FC91119797
:105000008BE18083118283E0828314821582168271
:105010001782108687E194E2BD010E94C80B1092AE
:10502000CE230E94B020C8010E94930B80E56AE065
:1050300074E20E94B62180910F24909110248F5F1A
:105040009F4F29F083E56FE074E20E94B6218091C2
:105050000C2490910D248093D6239093D723809194
:10506000EC239091ED2394FF05C084E061E174E2AC
:105070000E94B62180E06EE074E20E94B6210E9498
:1050800081271F910F910895EF92FF921F93CF9365
:10509000DF93182F7B01FB01C081D18184E067E39E
:1050A00073E20E94B6214091CE235091C6232091F5
:1050B000362355C0423011F0443031F4552321F0ED
:1050C0008885853008F04EC0133021F48885882308
:1050D00009F087C0322F3F5F8C819D81AE81BF81F7
:1050E000022E04C0B695A795979587950A94D2F796
:1050F00081709070892B91F120933623113011F437
:1051000082E003C0123021F484E08093CE2304C0F7
:10511000133011F41093CE2380E066E373E20E9413
:10512000B621182F8823B1F08091E2239091E323D8
:105130000E94930B1092E2231092E3230E94B0206E
:105140008AEE8983188687E194E2B7010E94C80B32
:105150001092CE23812F0E9481275AC0232F2B31FA
:1051600008F4A8CF20933623123041F11330D9F13F
:10517000113009F04DC08091E2239091E3230E9409
:10518000930B1092E2231092E3238091C62388238D
:1051900039F08885853010F08AEF05C0882311F03A
:1051A000198202C08AEE898380E569ED73E20E946C
:1051B000B6218091D4239091D52328C0552339F06E
:1051C0008885853010F08AEF05C0882311F0198298
:1051D00002C08AEE898380E569ED73E20E94B62100
:1051E00014C0209336238091E2239091E3230E9400
:1051F000930B1092E2231092E3238885882311F009
:10520000198202C08AEE89831886C7010E94172777
:10521000DF91CF911F91FF90EF900895CF93DF938F
:10522000C091D423D091D523988129818091CE2318
:105230008250833020F5E92FF22F21E030E040E06A
:1052400050E00090362304C0220F331F441F551F27
:105250000A94D2F720953095409550958481958198
:10526000A681B78182239323A423B52384839583C6
:10527000A683B78380913123BE010E944428DF9129
:10528000CF910895CF92DF92EF92FF920F931F93E9
:10529000DF93CF930F920F92CDB7DEB7D82EC92EE2
:1052A000082F192FD801ED91FC918091A5238093AF
:1052B000D323809197238093C323868180933823BF
:1052C00081818093312382819381A481B5818093F0
:1052D000322390933323A0933423B0933523278133
:1052E00020933723D092D423C092D5238BE180839F
:1052F0008091312382838091322390913323A09136
:105300003423B091352384839583A683B783238385
:10531000108611868091C523882341F48091CE2385
:10532000882321F480913123882341F488EE8183FE
:1053300087E194E2B8010E94C80B7EC00E948B20D6
:10534000F801E080F1808BE0809336238091312357
:10535000813008F466C0833020F0833009F061C0EA
:105360004BC08FEF9FEF89839A8380919823909110
:1053700099238093D9239093DA2380E5BE016F5F50
:105380007F4F0E94B62180913123813021F4D09249
:10539000E223C092E3238AE90E949B0B8093D423EB
:1053A0009093D5230097E9F180913123823019F44D
:1053B000C8010E94930B2091D4233091D523D901A9
:1053C000ED91FC918BE180838091312382838091E8
:1053D000372383838091322390913323A091342308
:1053E000B091352384839583A683B7831086118675
:1053F00080913123B90112C08AE90E949B0B8093EE
:10540000E2239093E323009721F488EEF701818350
:105410000CC06091D4237091D52383E00E9444286E
:105420000BC088EED70111968C9387E194E2B80106
:105430000E94C80B0E94B0200F900F90CF91DF9177
:105440001F910F91FF90EF90DF90CF900895EF9212
:10545000FF920F931F93DF93CF930F92CDB7DEB7D9
:105460009091D0239F5F9093D0238823B1F58091B2
:10547000CE23823091F440EC53E060E070E0009085
:10548000382304C0440F551F661F771F0A94D2F7B4
:1054900040545C4F6F4F7F4F07C08091E023909145
:1054A000E123AC0160E070E094E0440F551F661FFB
:1054B000771F9A95D1F781E020E030E00EE019E205
:1054C000EE24FF240E94CB078823A1F081E089838A
:1054D000CE0101960E940E290DC0809136238F5F68
:1054E000809336236091D4237091D523809131230A
:1054F0000E9444280F90CF91DF911F910F91FF9050
:10550000EF9008952DE333E22093392330933A232B
:105510009DE190933D2380933E238091CE23882369
:1055200079F08091D9239091DA2380933F2390934F
:1055300040238091D323809341238091C3230EC0C5
:10554000809198239091992380933F2390934023B7
:105550008091A523809341238091972380934223B8
:1055600087E194E269E373E20E94C80B80911324FF
:10557000823050F48091CE23882331F48091C5236A
:10558000882311F40E94B0201092CF2308950F9326
:105590001F938C018FEE0E94822AC8010E94930BF8
:1055A00080E56AE074E20E94B62180910F24909118
:1055B00010248F5F9F4F29F083E56FE074E20E9413
:1055C000B62180910C2490910D248093D623909342
:1055D000D7238091EC239091ED2394FF05C084E0C4
:1055E00061E174E20E94B62180E06EE074E20E9404
:1055F000B6211F910F910895CF93DF93EC018AE9B3
:105600000E949B0BBC01009711F480E025C0DC01D7
:10561000ED91FC918EE080838881818389819A81DC
:105620008283938388819F012C5F3F4FAE014D5F42
:105630005F4F823029F48B819C818483958307C0DE
:10564000D901FA0188E001900D928150E1F789ECCF
:1056500093E20E94C80B81E0DF91CF910895BF9241
:10566000CF92DF92EF92FF920F931F93182F6A0150
:105670007B01B22E8AE90E949B0BDC01009711F49A
:1056800080E012C0ED91FC9111978BE08083118333
:10569000C282D382E482F582B682078389EC93E2E8
:1056A000BD010E94C80B81E01F910F91FF90EF9008
:1056B000DF90CF90BF9008957F928F929F92AF928C
:1056C000BF92CF92DF92EF92FF920F931F93782EAB
:1056D0006A017B01480159018AE90E949B0BDC01A8
:1056E000009711F480E014C0ED91FC9111978AE0CD
:1056F00080837182C282D382E482F582868297821D
:10570000A086B18689EC93E2BD010E94C80B81E0BE
:105710001F910F91FF90EF90DF90CF90BF90AF90CF
:105720009F908F907F9008951F93182F8AE90E9471
:105730009B0BDC01009711F480E00CC0ED91FC9113
:10574000119788E08083118389EC93E2BD010E9468
:10575000C80B81E01F9108951F93182F8AE90E94BA
:105760009B0BDC01009711F480E00CC0ED91FC91E3
:10577000119789E08083118389EC93E2BD010E9437
:10578000C80B81E01F9108950F931F93CF93DF9370
:10579000EC01162F042F8AE90E949B0B9C010097B5
:1057A00011F480E01FC0DC01ED91FC9185E0808365
:1057B00014878881818389819A8182839383AF0151
:1057C0004C5F5F4FDE01139688E00D90EA0109926D
:1057D000AE018150D1F7058789EC93E2B9010E94AF
:1057E000C80B81E0DF91CF911F910F910895FF9237
:1057F0000F931F93CF93DF93182FF62EEA01022FFA
:105800008AE90E949B0B9C01009711F480E020C064
:10581000DC01ED91FC9181E0808311838881838399
:1058200089819A8184839583AF014A5F5F4FDE014E
:10583000139688E00D90EA010992AE018150D1F7EC
:105840000687F28289EC93E2B9010E94C80B81E0DD
:10585000DF91CF911F910F91FF9008958F929F92AA
:10586000AF92BF92CF92DF92EF92FF920F931F936E
:10587000CF93DF93B82E6B01F42E922E832EA02EA1
:1058800086E7841708F43FC08AE90E949B0B8C01CD
:105890000097C9F1DC01ED91FC9183E08083B18236
:1058A000D6012C91228311968D919C91129783831E
:1058B00094832250223080F415821682178210863B
:1058C0001186128613861486EF012596139688E0BA
:1058D0000D9009928150E1F7A586E686F78628E9C2
:1058E00030E02F1931092E0F3F1FC901692D782D86
:1058F0004F2D50E00E94842D89EC93E2B8010E9464
:10590000C80B81E001C080E0DF91CF911F910F9122
:10591000FF90EF90DF90CF90BF90AF909F908F90CF
:105920000895FF920F931F93CF93DF93182F062FA5
:10593000F72E8AE90E949B0BEC01009711F480E09E
:1059400016C0812F0E949C21482FE881F98186E0B2
:10595000808311833296CF01602F7F2D50E00E940B
:10596000842D89EC93E2BE010E94C80B81E0DF9197
:10597000CF911F910F91FF9008951F930E941D1EBC
:10598000182F87E194E260E070E00E945D0C0097C0
:1059900019F00E94061E11E00E94C30F0E948605A6
:1059A000812F1F91089587E194E20E94C10B0E940C
:1059B00083210895089508950895089508950895F8
:1059C000089508950895AA1BBB1B51E107C0AA1FA3
:1059D000BB1FA617B70710F0A61BB70B881F991F90
:1059E0005A95A9F780959095BC01CD010895A1E243
:1059F0001A2EAA1BBB1BFD010DC0AA1FBB1FEE1F49
:105A0000FF1FA217B307E407F50720F0A21BB30B93
:105A1000E40BF50B661F771F881F991F1A9469F70F
:105A200060957095809590959B01AC01BD01CF016B
:105A30000895AF92BF92CF92DF92EF92FF920F93B1
:105A40001F93CF93DF93EC01A880B980CA80DB80DD
:105A5000A114B104C104D10441F484E2A82E89ED5B
:105A6000B82E8BE5C82E87E0D82EC601B5012DE1F2
:105A700033EF41E050E00E94323227EA31E440E067
:105A800050E00E9413327B018C01C601B5012DE16B
:105A900033EF41E050E00E943232CA01B9012CEEEE
:105AA00034EF4FEF5FEF0E9413326E0D7F1D801FAA
:105AB000911F97FF04C061507040804090486883F8
:105AC00079838A839B839B013F77C901DF91CF91C3
:105AD0001F910F91FF90EF90DF90CF90BF90AF900C
