:100000000C9435010C9456010C9429060C9454065A
:100010000C9456010C9456010C9456010C94560104
:100020000C9456010C9456010C9456010C945601F4
:100030000C9456010C9456010C94A20A0C9456018F
:100040000C94D30A0C9456010C9456010C9456014E
:100050000C9456010C9456010C9456010C945601C4
:100060000C9456010C9456010C9456010C945601B4
:100070000C9456010C9456010C9456010C945601A4
:100080000C9456010C9456010C946F0C0C94560170
:100090000C9456010C9456010C9456010C94560184
:1000A0000C9456010C9456010C9456010C94560174
:1000B0000C9456010C9456010C9456010C94560164
:1000C0000C9456010C9456010C9456010C94560154
:1000D0000C9456010C9456010C9456010C94560144
:1000E0000C9456010C9456010C9456010C94560134
:1000F0000C9456010C9456010C9456010C94560124
:100100000C9456010C9456010C9456010C94560113
:100110000C9456010C9456010C9456010C94560103
:100120000C9456010C9456010C9456010C945601F3
:100130000C9456010C9456010C9456010C945601E3
:100140000C9456010C9456010C9456010C945601D3
:100150000C9456010C9456010C9456010C945601C3
:100160000C94A6050C9456010C94D2050C945601DF
:100170000C9456010C9456010C9456010C945601A3
:100180000C9456010C9456010C9456010C94560193
:100190000C9456010C9456010C9456010C94560183
:1001A0000C9456010C9456010C9456010C94560173
:1001B0000C9456010C9456010C9456010C94560163
:1001C0000C9456010C9456010C9456010C94560153
:1001D0000C9456010C9456010C9456010C94560143
:1001E0000C9456010C94560103020201010000FF19
:1001F000FEFDFCFBF9F7F4EFB518000000006F1BE3
:1002000000000000581E0000781EFD1C791F000031
:100210000000000000000000471857180000000010
:1002200000000000000000000000000000000000CE
:1002300000000000351807182618171800000000E5
:10024000010401010102010101010101010101019A
:100250000401080201010101020101020102010180
:100260000201020201010101080011241FBECFEFAB
:10027000DFE5DEBFCDBF00E00CBF10E2A0E0B0E2E2
:10028000E2E9FCE400E00BBF02C007900D92A0344D
:10029000B107D9F713E2A0E4B0E201C01D92A93979
:1002A000B107E1F70E940C040C9447260C9400005F
:1002B0000895EF92FF920F931F9380914A2090919F
:1002C0004B20029759F481E090E080934A2090936C
:1002D0004B2080E593EC0E94710719C0809140206B
:1002E00090914120892B99F481E040E856E968E932
:1002F00070E020E030E00CE811E0EE24FF240E94E2
:10030000780981E090E061E070E00E94140C1F9198
:100310000F91FF90EF900895CF92DF92EF920F939D
:100320001F93DF93CF93CDB7DEB76797CDBFDEBF07
:1003300081E090E060E070E00E94140C9091422017
:100340004091432050914420609145207091462077
:1003500000914720E09048201091492020E030E0B3
:100360008CE0C82ED12CCC0EDD1EF601E20FF31F5F
:10037000D901A45BBF4D8C9180832F5F3F4F283004
:10038000310599F79C834D835E836F837887098756
:10039000EA861B878FEE9EEB8A839B8383E08983AB
:1003A0000E9431178C8B9D8B1E8A1F8A83E0BE01B1
:1003B0006F5F7F4F4CE0960100E0EE24E3940E94D3
:1003C0007E206796CDBFDEBFCF91DF911F910F9149
:1003D000EF90DF90CF9008958F929F92AF92BF924F
:1003E000CF92DF92EF920F931F93DF93CF93CDB70E
:1003F000DEB76197CDBFDEBF8C01FB01E42E690142
:1004000080914A2090914B20892B09F044C0D8015B
:100410008C91833009F0DAC011968D919C911297DE
:100420008F5E9E4B09F0D2C08081823009F0CEC031
:10043000818192818F5E9E4B09F0C8C081E00E944D
:100440006908A2E4B0E2F801339688E001900D92C9
:100450008150E1F781E090E080934A2090934B2017
:100460008091402090914120892B71F4198281E084
:1004700090E060E070E00E94140C82E5BE016F5FC6
:100480007F4F0E945220A2C082E090E080934020E3
:10049000909341209BC08091402090914120892BD6
:1004A00009F494C082E090E062E070E00E94140CD5
:1004B0008091402090914120029751F583E08F83F5
:1004C0008FEE9EEB88879987809142208A87809162
:1004D00043208B87809144208C87809145208D8795
:1004E000809146208E87809147208F878091482079
:1004F000888B80914920898B83E0BE01695F7F4FA3
:100500004E2D960100E0EE24E3940E947E205EC012
:10051000F9E0FE1508F05AC00F920F9280E090E2C9
:10052000ADB7BEB711968D939C9312970E94082287
:100530008601EE240F900F9022E0A22EB12CAC0E7B
:10054000BD1E98E0892E90E2992E00D000D0EDB724
:10055000FEB73196ADB7BEB71196AD92BC92129769
:1005600082829382D80117968C91848315820E948F
:100570001A220F900F900F900F90EDB7FEB7A18247
:10058000B2820E940822E394015010400F900F9015
:10059000F8E0EF16D1F600D00F928EE090E2ADB702
:1005A000BEB711968D939C931297F601918580E0CA
:1005B000208530E0822B932B13968D939C93149778
:1005C0000E9408220F900F900F900F906196CDBF60
:1005D000DEBFCF91DF911F910F91EF90DF90CF9011
:1005E000BF90AF909F908F900895DF93CF930F921D
:1005F000CDB7DEB7882399F4603FA1F4ACE4B0E254
:10060000FA0188E001900D928150E1F784E189833D
:1006100080E0BE016F5F7F4F0E94522003C081E0E7
:100620000E943A200F90CF91DF910895EF92FF92B0
:100630000F931F93DF93CF930F920F92CDB7DEB737
:10064000882321F081E00E943A205FC080914A20F7
:1006500090914B200197C9F1662359F48FEE9EEBE0
:1006600089839A8380E5BE016F5F7F4F0E9452208D
:100670004CC0603509F049C08091402090914120E4
:10068000892B11F4198202C081E0898310924A20DB
:1006900010924B2082E5BE016F5F7F4F0E94522077
:1006A00080E040E050E060E070E00FEF1FEF2FEFE0
:1006B00030E00E94EA1F81E040E856E968E970E016
:1006C00020E030E00EE813E01CC0809140209091C3
:1006D0004120892BD1F46235C1F480E040E050E044
:1006E00060E070E000E010E020E030E00E94EA1FEF
:1006F00081E040E856E968E970E020E030E00CE88D
:1007000011E0EE24FF240E9478090F900F90CF9102
:10071000DF911F910F91FF90EF900895209140205D
:10072000309141202130310549F583E090E08093FC
:1007300040209093412020934A2030934B2080E02A
:1007400090E060E070E00E94140C81E090E060E0D6
:1007500070E00E94140C82E090E061E070E00E9482
:10076000140C0F920F928EE190E2EDB7FEB78183E9
:1007700092830E9408220F900F9008950F920F927B
:100780008AE290E2EDB7FEB7818392830E9408224D
:100790000F900F9080E090E060E070E00E94140CF9
:1007A00080E593EC0E94710780E593EC0E9471074D
:1007B00080E090E061E070E00E94140C80E593EC32
:1007C0000E94710780E593EC0E94710780E090E041
:1007D0000E944C0C892BF1F680E090E061E070E023
:1007E0000E94140C81E090E061E070E00E94140C23
:1007F00082E090E061E070E00E94140C81E00E94D1
:100800003A200895882321F480EF0E942220089541
:1008100081E00E943A2008954F925F926F927F92FA
:100820008F929F92AF92BF92CF92DF92EF920F93EF
:100830001F93DF93CF93CDB7DEB72C97CDBFDEBF2D
:100840000E94F720882311F00E94D7060E940E0C08
:1008500080E090E061E070E00E94140C81E090E0A4
:1008600061E070E00E94140C82E090E061E070E0D2
:100870000E94140C789480E00E941106882311F0E5
:100880000E94D7068BEC94E062EB74E00E94BC21DE
:100890000E94450C80E090E00E944C0C892B09F0EE
:1008A00043C081E090E0809340209093412081E01C
:1008B0000E943A2052E0452E512C12E04FEE642E59
:1008C0004EEB742E88248A94982C32E0A32EB12CFF
:1008D000AC0EBD1E6E010894C11CD11C0E94E1200B
:1008E00080914A2090914B200197C1F78091402040
:1008F00090914120892B91F380E090E00E944C0C74
:10090000892B61F740924A2050924B201A836B82C8
:100910007C828D829E8283E0B50141E0960100E0F9
:10092000EE240E947E20DACF1092402010924120C7
:10093000BECFDF93CF930F92CDB7DEB780E0BE017D
:100940006F5F7F4F41E00E94FF05813019F02FEF6C
:100950003FEF03C08981282F30E0C9010F90CF916C
:10096000DF9108950F931F93DF93CF930F92CDB72D
:10097000DEB78E010F5F1F4F80E0B80141E00E949B
:10098000FF058823C9F3898190E00F90CF91DF9113
:100990001F910F9108950F931F93DF93CF930F92A1
:1009A000CDB7DEB789838A3071F48DE089838E01FB
:1009B0000F5F1F4F80E0B80141E00E9408068823C6
:1009C000C9F38AE089838E010F5F1F4F80E0B80171
:1009D00041E00E9408068823C9F380E090E00F9070
:1009E000CF91DF911F910F9108959B01AC01605051
:1009F000774F824C9F4FF2E0660F771F881F991F39
:100A0000FA95D1F7E3E0220F331F441F551FEA95F3
:100A1000D1F70E94262121503040E0E6F6E088E040
:100A2000818384E08283E0EAF9E0378326838CE1E6
:100A3000848383E085838CE383830895DC01809144
:100A4000A309837FE0EAF9E083832091F12280917A
:100A5000F222821730F0275F922F981B892F29509E
:100A600005C02150922F981B892F2F5F482F6817A0
:100A700008F4462F342F12C09091F222E92FF0E0B3
:100A8000E352FD4D8C918083993019F41092F2223B
:100A900003C09F5F9093F22231501196332361F788
:100AA0008091F522882351F4E22FF0E0E352FD4DCE
:100AB00080818093A00981E08093F5228091A30931
:100AC0008C60E0EAF9E08383842F0895DC012091B3
:100AD000F622222311F480E008958091A3098F7CEF
:100AE000E0EAF9E083832A3058F08091F422809381
:100AF000F3228AE08093F6226A3020F02AE003C0D5
:100B0000261708F0262F322F17C0E091F322F0E0CD
:100B1000E352FD4D82858C939091F3229F5F9093D9
:100B2000F3228091F62281508093F6229A3011F4BC
:100B30001092F32211963150332339F78091A30993
:100B40008063E0EAF9E08383822F08951F920F9279
:100B50000FB60F920BB60F9211248F939F93EF93C2
:100B6000FF939091F4228091F6228F5F8093F6227A
:100B70008091A009E92FF0E0E352FD4D8287993082
:100B800019F41092F42203C09F5F9093F422FF9116
:100B9000EF919F918F910F900BBE0F900FBE0F9012
:100BA0001F9018951F920F920FB60F920BB60F92CF
:100BB00011248F93EF93FF938091F122893019F4E0
:100BC0001092F12203C08F5F8093F122E091F12215
:100BD0008091F222E81739F0F0E0E352FD4D808178
:100BE0008093A00902C01092F522FF91EF918F919E
:100BF0000F900BBE0F900FBE0F901F90189588237B
:100C000011F080E00895CB01642F0E9466050895DD
:100C1000882311F080E00895CB01642F0E941E0507
:100C20000895882311F085E8089560E875E280E072
:100C300090E00E94F50480E0089580935420909302
:100C40005520E0E4F6E091E0928B84E0828794877F
:100C500008951F920F920FB60F920BB60F921124A8
:100C60002F933F934F935F936F937F938F939F93B4
:100C7000AF93BF93EF93FF93E0915420F0915520F1
:100C80001995FF91EF91BF91AF919F918F917F91B6
:100C90006F915F914F913F912F910F900BBE0F90ED
:100CA0000FBE0F901F9018951F920F920FB60F92C4
:100CB00011240F900FBE0F901F9018954F925F92C6
:100CC0006F927F928F929F92AF92BF92CF92DF925C
:100CD000EF92FF920F931F93CF93DF939C016B01D1
:100CE0005A01CB01820F931F8150904110F085E88B
:100CF0004DC0A0E0B0E0C0ECD1E040EC51E016E027
:100D0000612EF8EDEF2EF12C01E010E06BEC71E0BC
:100D1000E3E37E2E95E3892E86E3982E33C08091FF
:100D2000CF0187FDFCCFFA0112823183522E20932E
:100D3000C0016286C701FB0184BF00838091C401AA
:100D4000F501EA0FFB1F40808415C9F08091CF01A7
:100D500087FDFCCF8091CF0181FF06C0FA0192860A
:100D6000C701FB0184BF00837A865092C0011982BB
:100D70001A824C828A86C701FB0184BF00832F5FE1
:100D80003F4F1196AC15BD0550F280E0DF91CF9139
:100D90001F910F91FF90EF90DF90CF90BF90AF9099
:100DA0009F908F907F906F905F904F9008951F93CA
:100DB000CF93DF93E0E2F6E014828FEF8183C0E20D
:100DC000D6E01FEF8FEF9FEF0E9471071F83FACFCE
:100DD000BF92CF92DF92EF92FF920F931F93CF9328
:100DE000DF938130910531F4862F642FA9010E9491
:100DF000560B35C0892B11F088EE31C0CA01860F21
:100E0000971F8150904110F085E829C0A0E0B0E024
:100E1000C0ECD1E096E0B92E88EDC82ED12C01E0CF
:100E2000E02EF12C0BEC11E016C08091CF0187FD74
:100E3000FCCF1A8279836093C001BA86C601F8019B
:100E400084BFE0828091C401F901EA0FFB1F808317
:100E500011966F5F7F4FA417B50738F380E0DF91DD
:100E6000CF911F910F91FF90EF90DF90CF90BF90A7
:100E700008950E943F0908950E94110B0E942C0BB7
:100E80000E94980C0E94E60A0E94070B0E940B0B1E
:100E900080E00895892B19F488E080930008089574
:100EA000FC012091F7223091F822C901A0E0B0E0C6
:100EB000BC01552744278091200890912108A0E08B
:100EC000B0E0482B592B6A2B7B2B8091F722909115
:100ED000F8222817390729F74083518362837383E7
:100EE00008954FB7F8948630910518F120912008A5
:100EF00030912108280F391F8091200890912108F6
:100F00008217930740F4809120089091210882175E
:100F10009307C8F30EC080912008909121082817EC
:100F20003907C8F380912008909121088217930710
:100F3000C8F34FBF089520E090E0FC0153E0EE0FAE
:100F4000FF1F5A95E1F7E80FF91FE750FD4D848127
:100F50009581892B09F021E0822F0895DF92EF928D
:100F6000FF920F931F93DFB6F894809158208F3F24
:100F700009F456C090E0FC01A3E0EE0FFF1FAA9514
:100F8000E1F7E80FF91FE750FD4DE080F1800281A5
:100F900013812091F7223091F822C801AA27BB279C
:100FA0002817390769F4E0922808F09229088091FF
:100FB0000C08806180930C0880910708836003C04F
:100FC000809107088C7F809307086091F7227091C9
:100FD000F8229B0140E050E0809120089091210888
:100FE000A90133272227A0E0B0E0282B392B4A2B78
:100FF0005B2B8091F7229091F8226817790729F7E7
:101000002E193F09400B510B2F5F3F4F4F4F5F4F42
:101010002F5F3F4F4F4F5F4718F481E08093572079
:10102000DFBE1F910F91FF90EF90DF9008958091A8
:101030005720882309F44CC0109257203091562035
:10104000332309F445C0809159208F3F59F4809192
:101050005A208F3F39F48091582080935A208093F2
:10106000592012C02091582080915A2090E0FC0114
:1010700043E0EE0FFF1F4A95E1F7E80FF91FE75035
:10108000FD4D208720935A208091582090E0FC014C
:1010900023E0EE0FFF1F2A95E1F7E80FF91FE75055
:1010A000FD4D80858093582080915A2090E0FC016E
:1010B000B3E0EE0FFF1FBA95E1F7E80FF91FE75015
:1010C000FD4D8FEF80873150309356200E94AE0740
:1010D0000895FF920F931F93182F823010F08AE823
:1010E000C5C0FFB6F8940E9417080091562000234F
:1010F00009F4C0C040915820302F242F842F12179C
:10110000F1F5212F30E0141781F4F90163E0EE0FBF
:10111000FF1F6A95E1F7E20FF31FE750FD4D808551
:10112000809358200E94AE0718C090E0DC0153E085
:10113000AA0FBB1F5A95E1F7A80FB91FA750BD4DC5
:10114000F90143E0EE0FFF1F4A95E1F7E20FF31FAD
:10115000E750FD4D808518968C93812F90E0FC011F
:1011600023E0EE0FFF1F2A95E1F7E80FF91FE75084
:10117000FD4D8FEF808701500093562062C0822F73
:1011800090E0FC01B3E0EE0FFF1FBA95E1F7E80F26
:10119000F91FE750FD4D50853150822F09F46AC088
:1011A000252FADCF1217D1F520915A201317B1F486
:1011B000121721F48FEF80935A200DC0812F90E0F9
:1011C000FC01A3E0EE0FFF1FAA95E1F7E80FF91F5E
:1011D000E750FD4D80858093592033C0842F90E0E7
:1011E000DC01E3E0AA0FBB1FEA95E1F7A80FB91FE6
:1011F000A750BD4D812F90E0FC0173E0EE0FFF1F63
:101200007A95E1F7E80FF91FE750FD4D80851896B4
:101210008C931217B1F440935A2013C0822F90E0A0
:10122000FC0163E0EE0FFF1F6A95E1F7E80FF91F7D
:10123000E750FD4D422F20852F3F09F0B3CF80E0CE
:101240000FC0812F90E0FC0153E0EE0FFF1F5A9575
:10125000E1F7E80FF91FE750FD4D1482158281E098
:10126000FFBE882311F489E801C080E01F910F912F
:10127000FF90089530915920232F432FDDCF1F93E6
:101280001FB7F8940E9417081FBF1FEF25C06FB744
:10129000F894822F90E0FC0173E0EE0FFF1F7A9527
:1012A000E1F7E80FF91FE750FD4D20854481558196
:1012B00086819781108714821582168217822F3FAC
:1012C00009F43FEF6FBF4115510551F030935A209B
:1012D00020935920FA01199530915A2020915920D4
:1012E0002F3FA9F630935A20209359201F9108953B
:1012F0002F923F924F925F927F928F929F92AF92E6
:10130000BF92CF92DF92EF92FF920F931F93CF93F2
:10131000DF93782E5A016B01490122242394281669
:1013200010F48AE8E2C00115110509F4DBC0C82FEA
:10133000D0E0FE0183E0EE0FFF1F8A95E1F7EC0F8E
:10134000FD1FE750FD4D84819581892B11F088E8C0
:10135000CCC06091F7227091F8229B0140E050E0F0
:101360008091200890912108A90133272227A0E02D
:10137000B0E0282B392B4A2B5B2B8091F7229091E0
:10138000F8226817790729F78114910431F061E098
:101390008616910409F0A6C011C0D601C501805877
:1013A0009040A040B04080589F4FAF4FBF4708F0DB
:1013B0009BC0A20EB31EC41ED51E10C0D601C5010F
:1013C00080589040A040B040821B930BA40BB50BFB
:1013D00080589F4FAF4FBF4708F086C09FB6F89424
:1013E0000E941708509158205F3F31F060915620BD
:1013F000252F452F30E054C070925820FE01A3E005
:10140000EE0FFF1FAA95E1F7EC0FFD1FE750FD4D12
:10141000508731C02F3F09F43EC0822F90E0FC017D
:1014200073E0EE0FFF1F7A95E1F7E80FF91FE75021
:10143000FD4D80819181A281B38115012601281A79
:10144000390A4A0A5B0AD201C1018F5F9F4FAF4F31
:10145000BF4710F4808521C0FE0133E0EE0FFF1F6F
:101460003A95E1F7EC0FFD1FE750FD4D208752172D
:1014700021F47092582091E017C0842F90E0FC0175
:1014800023E0EE0FFF1F2A95E1F7E80FF91FE75061
:10149000FD4D708655C08FEF242F3F5F422F282FC0
:1014A000361708F4B7CF33C0FE0183E0EE0FFF1FFD
:1014B0008A95E1F7EC0FFD1FE750FD4DA082B18248
:1014C000C282D38204831583E682F78280915620FC
:1014D0008F5F80935620992311F00E94AE079FBE24
:1014E00080E003C088EE01C08BE8DF91CF911F91AF
:1014F0000F91FF90EF90DF90CF90BF90AF909F90B3
:101500008F907F905F904F903F902F900895842F01
:1015100090E0FC01B3E0EE0FFF1FBA95E1F7E80F92
:10152000F91FE750FD4D7086FE01A3E0EE0FFF1F8F
:10153000AA95E1F7EC0FFD1FE750FD4D8FEF808777
:1015400090E0B2CF1F920F920FB60F920BB60F9290
:1015500011242F933F934F935F936F937F938F93B8
:101560009F93AF93BF93EF93FF938091F722909156
:10157000F82201968093F7229093F8220E94AE07FA
:10158000FF91EF91BF91AF919F918F917F916F915B
:101590005F914F913F912F910F900BBE0F900FBE17
:1015A0000F901F9018951F920F920FB60F92112453
:1015B0008F9380915620882319F081E080935720E3
:1015C0008F910F900FBE0F901F901895109256207C
:1015D000109257201092F7221092F8228FEF8093EA
:1015E00058208093592080935A2080930123109291
:1015F000FD221092FE2280930A231092062310925D
:1016000007230E94490B0895089581E0089584E816
:10161000809380010895E0EAF0E082818460828313
:10162000089582E0809350008091510081FFFCCFAB
:1016300098ED94BF84E0E0E4F0E0818394BF81E022
:101640008093400082E0E0E5F0E0868380916000D6
:101650008160809360000895E0E4F6E0808180611D
:1016600080838081806880838081816080838081A5
:101670008062808380818860808380818F7B80838B
:10168000E0E6F6E080ED818380E2828380E185837D
:10169000089588E08093000880EF80930C0880E331
:1016A00080934C0883E08093060808956F927F92A0
:1016B0009F92AF92BF92CF92DF92EF92FF920F93E1
:1016C0001F93DF93CF93CDB7DEB7C054D040CDBFCB
:1016D000DEBFD82EA62EC42EB52E3E010894611C66
:1016E000711C662DA0E4B6E0EE24E39490E1F92E9F
:1016F00000EC18E083E0982E20EC38E0AE01405C6E
:101700005F4F962D961B70914906809149068C7FFC
:1017100019968C9319971696EC9216971696FC923A
:10172000169700000000000000000000000000000C
:1017300000000000000000000000000000000000A9
:101740000000F80193828091C20887FFFCCF9F7749
:10175000F90193838091C20887FFFCCFF9011382BE
:101760008091C20887FFFCCF8091C3081596FC9238
:1017700015971596EC92159719967C931997F30186
:1017800080836416750621F00894611C711CB9CF22
:10179000FE01319620E030E0DE01AF5BBF4F81916A
:1017A0002827022E2295207F2025032E322F2295D6
:1017B0002F700226269532272327220F220F220F71
:1017C0002025EA17FB0759F7232B11F085E814C0F1
:1017D000DE011196AD0DB11D8C2D9B2D9C01AD012F
:1017E00006C0FA018191AF01F90181939F01842F15
:1017F0008A1B8A15B0F380E0C05CDF4FCDBFDEBF2F
:10180000CF91DF911F910F91FF90EF90DF90CF90DC
:10181000BF90AF909F907F906F900895E0E2F6E0C8
:1018200087E08183868308958130910519F00297BE
:1018300019F404C021E003C020E001C022E06115DA
:10184000710521F061307105A9F40BC081E090E0D1
:1018500002C0880F991F2A95E2F7E0E2F6E085833F
:10186000089502C0660F771F2A95E2F7E0E2F6E0DE
:101870006683089581E090E002C0880F991F2A9541
:10188000E2F7E0E2F6E087830895E0E2F6E088E040
:10189000828388E1838B0895E0E2F6E0208530E0E2
:1018A00043E0369527954A95E1F721703070C901DC
:1018B00008952FB7F89498E09093B000E0E2F6E036
:1018C0008BE1838B81858C7F826081879287E0EAC0
:1018D000F0E082818260828378942FBF08951F9206
:1018E0000F920FB60F920BB60F9211248F93EF93B6
:1018F000FF93E0E2F6E08285877F8287E8E4F0E00C
:1019000080818E7F8083FF91EF918F910F900BBE2E
:101910000F900FBE0F901F9018950E94590CE8E48D
:10192000F0E08081807F8560808378948895089539
:1019300080E58093C00880E1E0E4F6E085830895C7
:10194000E0E4F6E020914906909149069C7F91875A
:10195000806C90E19683E0ECF8E083838091C2088C
:1019600087FFFCCFE0ECF8E063838091C20887FF3B
:10197000FCCFE0E4F6E080E1858321870895E0E490
:10198000F6E020914906909149069C7F91878068F6
:1019900090E19683E0ECF8E083838091C20887FFB2
:1019A000FCCFE0ECF8E013828091C20887FFFCCF07
:1019B0008091C308E0E4F6E090E1958321870895E3
:1019C000CF93DF93DC0180E1E0E4F6E0868380E200
:1019D000E0ECF8E083838091C20887FFFCCFE0EC65
:1019E000F8E013826130A9F0FD01262FC0ECD8E0A9
:1019F0008091C20887FFFCCF8091C3081B8281932E
:101A000021502230A8F76250862F90E00196A80F4F
:101A1000B91F8091C20887FFFCCF8091C3088C93C7
:101A200080E1E0E4F6E08583DF91CF910895DC0169
:101A300080E1E0E4F6E0868380E6E0ECF8E0838392
:101A40008091C20887FFFCCFE0ECF8E09D916150E7
:101A50008091C20887FFFCCF93836623B9F78091FA
:101A6000C20887FFFCCF80E1E0E4F6E085830895BB
:101A7000FF920F931F93062FF42E0E94BF0C082392
:101A800010E002C015950795FA94E2F7802F1F9198
:101A90000F91FF900895DF92EF92FF920F931F93A3
:101AA000D82EF62EE42E022F0E94BF0C10E002C0AA
:101AB000000F111FEA94E2F76F2D6023F094F822D3
:101AC0006F298D2D0E94A00C1F910F91FF90EF9018
:101AD000DF900895BC01009721F083ED92E20E940F
:101AE0009F0D089583ED92E260E070E00E94340E55
:101AF00008950F931F93CF93DF9383ED92E20E949B
:101B0000980DC3ECD2E20BE510E20883198383ED54
:101B100092E2BE010E949F0D249606561F4F82E25C
:101B2000C33DD80791F7DF91CF911F910F91089591
:101B3000FC01108211821282138214820895CF93C5
:101B4000DF93DC01EB019FB7F89414968C91149706
:101B5000882321F46D937C93119706C01296ED9122
:101B6000FC911397628373831296CD93DC93139742
:101B70001A821B8214968C9114978F5F14968C9303
:101B80009FBFDF91CF9108959F92AF92BF92CF9266
:101B9000DF92EF92FF920F931F93CF93DF938C010D
:101BA0005B016A019FB6F894DC0114968C9188233E
:101BB00019F4C0E0D0E04AC0F801C081D1814115DC
:101BC0005105B1F07E0111C0D60112966D917C9144
:101BD0001397ED91FC91888199811995882359F487
:101BE0007E018A819B819C01E901209769F72EC0C3
:101BF000209761F17E01AB2849F5F8018081918140
:101C00002A813B81C817D90719F42083318305C085
:101C1000D70112962D933C931397F80182819381FB
:101C2000C817D90711F4E282F382D80114968C9177
:101C30001497815014968C9314978D919C911197C1
:101C4000892B21F412961D921C9213979FBECE01F0
:101C5000DF91CF911F910F91FF90EF90DF90CF9088
:101C6000BF90AF909F900895AB0160E070E00E943C
:101C7000C40D0895AB0161E070E00E94C40D0895A9
:101C8000CF93DF93EC010BC0CE0160E070E00E94C7
:101C9000340E009711F41C8205C00E946A0D8C81DD
:101CA000882391F7DF91CF9108951F9381E06FE131
:101CB00040E00E94380D8830A1F48FE00E94BF0CF4
:101CC00082E069E00E94A00C10E08FE00E94BF0C4F
:101CD00080FD07C08EE690E00E9471071F5F133001
:101CE000A1F71F9108950F931F93082F80912B2325
:101CF0008F3039F59FB7F894789488E0E0E4F6E007
:101D00008683809134238823E1F39FBF109234238C
:101D10008FE00E94BF0C84EE95E10E941D068EE0CC
:101D20006CE00E94A00C8DE064E042E021E00E94A3
:101D30004B0D083011F0033021F488E080932B2301
:101D4000DFC181E06FE140E00E94380D80932B23DA
:101D5000083009F45BC0093050F4043009F4A8C01D
:101D6000063009F4B2C0033009F0C1C167C00F30BA
:101D700069F0003120F4093009F0B9C177C00631AB
:101D800009F4DCC0093109F0B2C144C182E063E06A
:101D90000E94A00C8DE064E042E020E00E944B0D28
:101DA0000E94A321682F192F8DE20E94A00C8EE2C1
:101DB00067E040E0212F0E944B0D8FE00E94BF0C96
:101DC0008BED95E10E941D068EE06FEF40E020E173
:101DD0000E944B0D00000000000000000000000009
:101DE00000000000000000000000000000000000F3
:101DF0000000000088E0E0E4F6E0858383E290E004
:101E00000E94710700932B238FE07AC1883009F478
:101E10006EC182E068E00E94A00C0000000000009B
:101E200000000000000000000000000000000000B2
:101E30000000000000000000000059C1883009F4D3
:101E400056C182E063E00E94A00C00000000000088
:101E50000000000000000000000000000000000082
:101E60000000000000000000000041C1883029F19E
:101E7000893020F4863009F03AC105C0863119F066
:101E8000893109F034C182E069E00E94A00C0000B1
:101E90000000000000000000000000000000000042
:101EA00000000000000000000000000000001FC152
:101EB000883019F0893021F41AC10E94550E17C1DB
:101EC00082E064E00E94A00C12C1893059F08A308F
:101ED00020F4883009F00BC11AC0863119F089311D
:101EE00009F005C182E066E00E94A00C000000003D
:101EF00000000000000000000000000000000000E2
:101F0000000000000000000000000000F0C00E947F
:101F1000550E82E066E00E94A00C00000000000068
:101F200000000000000000000000000000000000B1
:101F300000000000000000000000D9C0883001F15E
:101F4000893020F4863009F0D2C031C0893019F0D0
:101F5000893109F0CCC082E066E10E94A00C00004B
:101F60000000000000000000000000000000000071
:101F70000000000000000000000000000000B7C0EA
:101F80000E94550E82E066E10E94A00C0000000055
:101F90000000000000000000000000000000000041
:101FA000000000000000000000000000A0C082E06F
:101FB00069E00E94A00C000000000000000000008A
:101FC0000000000000000000000000000000000011
:101FD00000000000000081E06FE140E00E94380D49
:101FE00080932B23893009F08BC082E066E10E9448
:101FF000A00C000000000000000000000000000035
:1020000000000000000000000000000000000000D0
:1020100000006DC0883009F454C0893020F4863047
:1020200009F065C01BC0893021F0863109F05FC01E
:1020300015C082E069E10E94A00C000000000000D1
:102040000000000000000000000000000000000090
:102050000000000000000000000049C082E069E0CC
:102060000E94A00C00000000000000000000000022
:102070000000000000000000000000000000000060
:102080000000000081E06FE140E00E94380D809385
:102090002B23893009F034C082E069E10E94A00C52
:1020A0000000000000000000000000000000000030
:1020B0000000000000000000000000000000000020
:1020C00016C00E94550E82E069E10E94A00C00003B
:1020D0000000000000000000000000000000000000
:1020E000000000000000000000000000000081E08F
:1020F0006FE140E00E94380D80932B238F31B9F3BC
:102100001F910F91089580911C238823E1F0809105
:1021100035238823C1F48091D8229091D922892B2C
:1021200039F48AE90E94720D8093D8229093D922C3
:102130008091D8229091D922892B29F010921C23CA
:1021400086E10E94730E80912123882351F08DE156
:1021500093E260E070E00E94340E009711F00E945C
:10216000B81080913523823011F40E94FC1108953B
:10217000EF92FF920F931F93CF93DF937C01DC01CB
:102180000D911C91D8011696ED91FC9117978081C5
:1021900080932D23C82FD0E02196CE0FDF1F98818A
:1021A00029812F3110F02EE103C0222309F421E010
:1021B00092959695969593708FEF989FC0011124F4
:1021C00030E0FC01E29FC001E39F900DF29F900D73
:1021D00011246AE570E00E94FF206F3F710511F045
:1021E00008F06FEF6883D8011196ED92FC92129778
:1021F000C8010E94A918DF91CF911F910F91FF9004
:10220000EF900895DF92EF92FF920F931F93DF9369
:10221000CF930F92CDB7DEB7E091D822F091D922BB
:102220003097C1F1E080F18087E00E94BF0CD82E8A
:10223000CE01019661E00E94E00C698167FD2AC031
:102240006D5F0AE910E0061B11090E0D1F1D61509C
:10225000C8010E94E00CF701068317838981080FEB
:10226000111DF801D2826091D8227091D9228DE19E
:1022700093E20E949F0D8AE90E94720D8093D822FA
:102280009093D922892B31F489E00E94730E81E06A
:1022900080931C230F90CF91DF911F910F91FF909E
:1022A000EF90DF900895882311F087E005C082E069
:1022B00060EE45E00E94380D8093DA2282E0809340
:1022C00035238091D8229091D922892B39F489E045
:1022D0000E94730E81E080931C23089586E10E9482
:1022E000730E0895EF92FF920F931F93CF93DF9396
:1022F0007C01EB01042F442331F08CE260EF44E0D9
:1023000020912A2304C08CE260EF44E020E00E9488
:102310004B0DC230D10598F4002361F08CE26EE0E1
:1023200041E0209122230E944B0D8FE260E00E9449
:10233000A00C16C08CE26EE041E027E00FC0609177
:1023400026236295607F80912923682B8FE20E946B
:10235000A00C8CE26EE041E0209122230E944B0D04
:1023600089E10E94730E8931D9F7809149068C7FEB
:10237000E0E4F6E08187219759F480912D238331A1
:1023800018F080E492E002C080E890E00E947107BB
:1023900000E416E088E0F80185838683F701608118
:1023A0006150C7010E94170D81E080933523809111
:1023B00049068360F8018187DF91CF911F910F91CA
:1023C000FF90EF900895FC0180913523882311F050
:1023D00086E80895E0932723F09328238681978148
:1023E00080932E2390932F23009711F488EE089565
:1023F0000E94721180E00895109235238091DA22B4
:102400008330B1F0843028F4882331F08130E1F456
:1024100009C08530C9F412C0609127237091282328
:1024200080E017C0609127237091282387E811C0AE
:10243000609127237091282381EE0BC060912723A0
:102440007091282389EE05C060912723709128237D
:1024500085E80E94411F0895282F85FD03C0982F0D
:102460009F7304C0982F91959F719195E8EEF1E0CC
:102470008491891734F03F968491981714F0822F35
:102480000CC0803E3CF080323CF487FF06C08F7168
:10249000806203C080E201C08FE18068089584E01B
:1024A0008093222323E0209329238FEF9FEF8093B3
:1024B00017239093182380931A2390931B238BE068
:1024C0008093242380E098EFAFEFB7E08093302330
:1024D00090933123A0933223B09333231092162389
:1024E0008AE091E080931423909315238AE08093EF
:1024F0002C2382E08093232385E08093262320935E
:102500002A2383E80E942C1280930B2381E080937E
:10251000192310922523089585FD03C0982F9F73DA
:1025200004C0982F91959F719195E8EEF1E080E0BD
:102530002491921724F029173CF4815008958F5F5D
:1025400031968031A9F780E008951F93CF93DF93F0
:1025500082E2609117230E94A00C83E2609118230D
:102560000E94A00CCCE0D3E214E2812F69910E947A
:10257000A00C1F5F1C32C9F780E260911A230E94F1
:10258000A00C81E260911B230E94A00C88E060E611
:1025900045E0209119230E944B0D8FE26FE040E04F
:1025A000209129230E944B0D8EE268E043E02091A8
:1025B00025230E944B0D8FE260EF44E020912623FB
:1025C0000E944B0D88E06FE140E0209124230E949F
:1025D0004B0D80910B230E948C12282F85E06FE019
:1025E00040E00E944B0DDF91CF911F9108951F9302
:1025F000CF93DF93EB018E3431F0893541F488813C
:1026000080932A23D6C0888180932223D2C0209130
:102610002B232F3011F481E8CDC08B3009F4BCC0DE
:102620008C3070F4823009F47FC0833018F4882332
:10263000D9F115C0833009F485C0843081F463C0BA
:10264000833511F1843528F48F3459F0803539F40D
:102650000DC0873509F461C0803F09F47AC084EF6A
:10266000A9C02881209329238FE269C0888199819C
:10267000682F809317239093182382E20E94A00C66
:1026800083E2609118230DC088819981682F80931F
:102690001A2390931B2380E20E94A00C81E2609198
:1026A0001B230E94A00C85C080913523882309F04C
:1026B0007CC080E098EFAFEFB7E0088004C0B6952B
:1026C000A795979587950A94D2F781709070892B7A
:1026D00009F46DC0283011F418E006C088E00E94AB
:1026E000730E8830D9F716E128812093242388E0DF
:1026F0006FE140E00E944B0D183009F45AC086E1AA
:102700000E94730E56C080913523882309F04DC076
:102710008881882309F44DC04AC02881209326234C
:102720008FE260EF44E03EC0888180930B230E94DB
:102730002C1280930B230E948C12282F85E06FE0CF
:1027400040E030C028812093192388E060E645E00E
:1027500029C0888180930C23898180930D238A81ED
:1027600080930E238B8180930F238C818093102381
:102770008D81809311238E81809312238F8180938A
:102780001323CCE0D3E214E2812F69910E94A00CC4
:102790001F5F1C32C9F70DC02881209325238EE2CC
:1027A00068E043E00E944B0D04C086E803C088EE59
:1027B00001C080E0DF91CF911F910895DF92EF92E9
:1027C000FF920F931F93DF93CF930F92CDB7DEB796
:1027D000D82E81E090E065E170E041E050E09E019C
:1027E0002F5F3F4F0E94E80600E416E088E0F80102
:1027F00086838CE791E00E947107FF24F394F8012F
:10280000F68281E090E00E947107F801F58210E005
:1028100084E690E00E94710781E06FE140E00E9451
:10282000380D1A3011F485E83AC0883011F01F5F76
:10283000EFCF80932B2329812223D1F182E16FE016
:1028400040E00E944B0D34C086E060E645E00E9407
:10285000380D9801220F331F220F331F082F10E06D
:10286000022B132BF394F8E0FF1671F783E00E941C
:10287000730E8FE00E94BF0CE0E4F6E081E08487F5
:10288000E186C8010E94A821DD2011F00E944F12AC
:102890000E94A5121092352310921C2380E00F9005
:1028A000CF91DF911F910F91FF90EF90DF900895EE
:1028B00083E060E344E020E00E944B0D83E068E0A9
:1028C00043E020E00E944B0D83E067E040E021E020
:1028D0000E944B0D8EE260E245E021E00E944B0D2C
:1028E0008CE060E847E021E00E944B0D84E062E06C
:1028F00041E021E00E944B0D8EE06CE00E94A00CB4
:102900008DE063E040E021E00E944B0D8AE06FE043
:1029100040E023E00E944B0D8DE068E043E021E0C1
:102920000E944B0D8DE064E042E021E00E944B0DDF
:1029300086E00E94730EE0904906809149068C7FE4
:10294000E0E4F6E0818700E010E0FF247DCF1F93F4
:10295000182F0E94DE13882361F085E830C08DE1D6
:1029600093E260E070E00E94340E009711F00E9444
:102970006A0D80912123882391F7812F0E94701680
:1029800084EE95E10E941D06E0E4F6E081E0848794
:1029900080914906836081870E94A321682F192FA7
:1029A0008DE20E94A00C8EE267E040E0212F0E94A1
:1029B0004B0D80E00E9420160E940D1680E01F91B2
:1029C0000895FF920F931F93CF93DF930E943C07CC
:1029D000882309F0E9C000E416E0FF24F394F8012D
:1029E000F58288E086838AE491E00E947107F8010D
:1029F000F68281E090E00E947107F801F58200E024
:102A000004C00F5F0A3009F4CFC084E690E00E9452
:102A100071078DE10E94BF0C823099F78CE10E9412
:102A2000BF0C833071F782E068E00E94A00C00E0E8
:102A300084E690E00E94710781E06FE140E00E942F
:102A4000380D0A3009F4B0C0883011F00F5FF0CFB4
:102A500080932B2381E090E060E070E048E050E05C
:102A60002CE033E20E94E80681E00E94DE13882316
:102A700051F09AC0CCE0D3E20E94A3218993F3E203
:102A8000C431DF07C9F780910C2330910D234091A9
:102A90000E2360910F2370911023F0911123B091B8
:102AA000122350911323182F115091E0181708F09A
:102AB00090E0832F815021E0831708F020E0092F58
:102AC000080F91E0081708F090E0292B842F81501F
:102AD00031E0841708F030E0A22FA80F91E0A8178A
:102AE00008F090E0392B862F815021E0861708F0FE
:102AF00020E0E32FE80F91E0E81708F090E0292BA1
:102B0000872F815031E0871708F030E0622F680F7F
:102B100091E0681708F090E0392B8F2F815021E069
:102B20008F1708F020E0432F480F91E0481708F076
:102B300090E0292B8B2F815091E08B1708F090E0CB
:102B4000322F380F21E0381708F020E0922B5195F2
:102B5000591779F43F3F69F44F3F59F46F3F49F4F7
:102B6000EF3F39F4AF3F29F40F3F19F41E3F08F04F
:102B700081CF84EE95E10E941D0680914906836015
:102B8000E0E4F6E081870E94790D8AE90E94720DE7
:102B90008093D8229093D9228DE193E20E94980DE0
:102BA0000E947C1680E001C085E8DF91CF911F91E3
:102BB0000F91FF9008958FE00E94BF0C84FF03C027
:102BC00081E08093342308958FE00E94BF0C282F6A
:102BD00083FF0CC080913523813029F426FF80E0EB
:102BE0000E94531108950E940211089582FF14C09B
:102BF0008DE060E847E00E94380D882339F48DE0CD
:102C000063E040E021E00E944B0D08958DE063E019
:102C100040E022E00E944B0D089580912B238F30DD
:102C200011F082E8089588E00E94730E883011F058
:102C300085E8089581E090E00E944A0780E00895C9
:102C4000882311F088EE089580912B238F3011F4A2
:102C500081E8089580913523882391F410921C23F4
:102C600088E00E94730E8830D9F780E090E00E94DF
:102C70004A078FE00E94730E8F3011F480E00895B0
:102C800086E80895982F80913523882311F086E8EF
:102C90000895983039F488E00E94730E10921C2336
:102CA00088E008958091D8229091D922892B29F02B
:102CB00086E10E94730E86E0089581E080931C23D4
:102CC00086E00895FB01882311F084EF0895809138
:102CD000DB22808380E0089580E00E94A71408959D
:102CE000882311F01092DB2285E16FE040E0209113
:102CF000DB220E944B0D08951092DB2285E16FE0EC
:102D000040E020E00E944B0D80E00895FB01882305
:102D100011F084EF089580818093DB22992787FD4D
:102D20009095865A9F4F63E070E00E941321262FF2
:102D30002F5F85E16FE040E00E944B0D80E0089539
:102D4000EF92FF921F93DF93CF93CDB7DEB7C058BA
:102D5000D040CDBFDEBF182F84E060E245E020E028
:102D60000E944B0D82E068E00E94A00C86E36FE0B9
:102D70000E94A00C8CE063E00E94A00C8AE067EA4D
:102D80000E94A00C112339F481E089831A82CE01BC
:102D9000019662E012C08FE7898311E07E010894FA
:102DA000E11CF11C0E94A321F701E10FF11D8083BA
:102DB0001F5F1038B9F7C70160E80E94170D8CE15A
:102DC00064E50E94A00C8CE166E40E94A00C89E0FE
:102DD0000E94730EE0E4F6E088E085838683C058A5
:102DE000DF4FCDBFDEBFCF91DF911F91FF90EF90FE
:102DF00008951F9388E00E94730E8830D9F785E10B
:102E000060E847E021E00E944B0D86E00E94730ECF
:102E10008630D9F788E060E847E021E00E944B0D5A
:102E200080E990E00E94710781E060E847E00E943D
:102E3000380D8130C9F788E00E94730E81E060E4AC
:102E400046E00E94380D813011F010E001C014E01E
:102E500085E160E847E020E00E944B0D812F1F9143
:102E60000895FF920F931F93CF93DF93F0902B233E
:102E70008FE0F81619F488E00E94730E80914906DD
:102E80008C7FE0E4F6E0818781E160E144E020E0CE
:102E90000E944B0D81E16FE040E02FE00E944B0D5E
:102EA00085E090E00E94710781E160E245E00E94C8
:102EB000380D8823A9F481E16FE040E020E00E9412
:102EC0004B0D82E090E00E94710781E160E245E0F5
:102ED0000E94380D882309F05FC0C0E0D0E047C0F1
:102EE00081E160E144E021E00E944B0D81E16FE06F
:102EF00040E02FE00E944B0D85E090E00E947107BA
:102F000081E160E245E00E94380D813011F001E07E
:102F100044C0CFEFDFEF2BC081E16FE040E0212F15
:102F20000E944B0D82E090E00E94710781E160E217
:102F300045E00E94380D882339F4112311F420E074
:102F400007C0212F215004C01F5F103129F72FE047
:102F5000002339F08BE4289FE0011124CA50D64F9A
:102F600006C082E3289FE0011124CC55D94F8FE0A1
:102F70000E94BF0C809149068360E0E4F6E08187FF
:102F80008FE0F81611F40E94730ECE01DF91CF91FD
:102F90001F910F91FF90089500E010E0BDCF1F93A7
:102FA00086E00E94730E8630D9F785E160E847E03D
:102FB00021E00E944B0D87E06FEF0E94A00C80E89B
:102FC00090E00E9471078FE00E94BF0C84FFFBCF4E
:102FD00087E00E94BF0C182F8FE00E94BF0C85E194
:102FE00060E847E020E00E944B0D88E00E94730EED
:102FF000193310F06FEF08C08FEF189FC001112434
:1030000068E370E00E94FF20862F1F9108950F93C0
:103010001F938C01DC01ED91FC91818162810E9402
:103020001603C8010E946A0D1F910F9108950F9316
:103030001F938C01DC01ED91FC9181810E9458016C
:10304000C8010E946A0D1F910F9108950F931F935D
:103050008C01DC01ED91FC9181810E940204C80188
:103060000E946A0D1F910F9108950F931F938C0179
:10307000DC01ED91FC91818162813396AF010E9468
:10308000F502C8010E946A0D1F910F9108950F93D8
:103090001F938C01DC01ED91FC91818162810E9482
:1030A0005901C8010E946A0D1F910F910895CF9296
:1030B000DF92EF920F93DF93CF93CDB7DEB7669792
:1030C000CDBFDEBF6C01DC01ED91FC918181898374
:1030D000828193818A839B839E012C5F3F4FAF0146
:1030E0004C5F5F4F88E0DA010D90AD01D9010D9280
:1030F0009D018150C1F784858C87858596858D8754
:103100009E879E01215F3F4FAF01415F5F4F88E087
:10311000DA010D90AD01D9010D929D018150C1F7E9
:10312000228D338DCE010196BE01645F7F4F418DAC
:103130000789E08C0E94EC01C6010E946A0D669628
:10314000CDBFDEBFCF91DF910F91EF90DF90CF9099
:103150000895FC011082618172816115710521F071
:1031600081E593E20E949F0D08950F931F93CF93E3
:10317000DF93EC01E881F981A681B7817C9170939E
:103180006323FD01E70FF11D818180937C2311965C
:103190004D915C9112974093602350936123139655
:1031A0008C911397809364238D010C5F1F4F652FC3
:1031B0006295669566956370352F369536953370B2
:1031C00019F4F80120E049C014968D919C9115974F
:1031D0008093662390936723FD0136963230E1F4A5
:1031E000109268231092692310926A2310926B2325
:1031F00010926C2310926D2310926E2310926F2305
:1032000016968D919C9117978093682390936923CC
:10321000FD01389624E021C0333011F022E01DC0BA
:1032200016968C91169780936823818180936923E9
:10323000828180936A23838180936B23848180932E
:103240006C23858180936D23868180936E23878193
:1032500080936F23FD013E962AE0662309F447C060
:1032600046FD08C0819191918093712390937223C0
:103270002E5F08C08091662390916723809371230D
:10328000909372236230C1F41092732310927423CE
:103290001092752310927623109277231092782340
:1032A0001092792310927A238081918180937323E5
:1032B000909374232E5F1BC06330C9F48081809388
:1032C000732381818093742382818093752383810A
:1032D00080937623848180937723858180937823DC
:1032E000868180937923878180937A23285F972F23
:1032F0009550921B90937D236093702330936523A8
:1033000043FDC3C0D801A20FB11D842F87708093E5
:103310006223833021F48C9180937B2363C08130BE
:1033200009F451C0813020F0833009F0AEC05AC09A
:103330008D919C91119780937E2390937F23129679
:103340008C91129780938023877011F493E002C0D0
:10335000982F9C5FFD01E90FF11D808180938123EF
:10336000292F2F5F382F377090E08077907044E0DE
:10337000959587954A95E1F7482F332311F48823D3
:1033800089F0CD01820F911D809382239093832336
:10339000332311F0330F230F442321F0440F440F44
:1033A000440F240F80917D23281750F4821B8093B3
:1033B0008423A20FB11DA0938523B093862369C0F7
:1033C0001092842366C0992351F0963718F086E74F
:1033D00080937D23A0937E23B0937F235AC01092C5
:1033E0007D2357C080917B23873009F452C08830F9
:1033F00021F0843009F049C04CC011968D919C9108
:10340000129780937E2390937F2313968D919C91A6
:103410001497809380239093812315968C91159710
:103420008093822316968D919C9117978093832386
:103430009093842354FF2DC018968C9180938523FC
:1034400028C080916223833061F480917B23843093
:1034500011F0873031F481E593E2BE010E949F0DA7
:103460001DC080914223882381F4809149238823C1
:1034700061F480918723882341F480916223813015
:1034800021F4CE010E94921A09C0CE010E946A0D59
:1034900005C0809188238823A1F6E3CFDF91CF91E7
:1034A0001F910F910895DC01ED91FC911197E0813E
:1034B000E43278F4F0E0EE0FFF1FE850FE4F259164
:1034C00034912115310519F0F901199508950E94DB
:1034D0006A0D08951F9380918823882381F4809139
:1034E0004823882361F084E493E260E070E00E9466
:1034F000340E009721F00E94531A11E001C010E031
:1035000080915523882359F081E593E260E070E0D3
:103510000E94340E009719F00E94531A11E0812F77
:103520001F910895CF93DF93AC01FC01908121811D
:1035300080917D23882309F466C0E92FF22F8091C2
:103540006423808F20917023218380917123909137
:10355000722382839383822F82508230E8F4148214
:1035600015821682178210861186128613862230E3
:1035700039F480917323909174238483958316C0CA
:103580002330A1F4EF012496A3E7B3E288E00D9085
:1035900009928150E1F70AC01282138214821582C7
:1035A000168217821086118612861386208D8091CE
:1035B0003623281761F5948180913923981739F5BE
:1035C000958180913A23981711F5968180913B233C
:1035D0009817E9F4978180913C239817C1F490855E
:1035E00080913D23981799F4918580913E239817F7
:1035F00071F4928580913F23981749F493858091C7
:103600004023981721F4CA010E946A0D55C02093E7
:103610003623848180933923858180933A23868160
:1036200080933B23878180933C23808580933D2337
:10363000818580933E23828580933F238385809379
:1036400040232091652324871786108A118A128AC5
:10365000138A148A158A168A8091662390916723AB
:1036600085879687233051F4EF012F96A8E6B3E2C1
:1036700088E00D9009928150E1F70BC0223039F4B7
:1036800080916823909169238787908B02C015866B
:10369000168680917C23878B80917D23818F8091FA
:1036A0007E2390917F23828F938F81E180838AE8AC
:1036B00093E2BA010E949F0D0E949E1CDF91CF9160
:1036C0000895DC01ED91FC91119780E180834183A5
:1036D00062838AE893E2BD010E949F0D0895CF9214
:1036E000DF92EF92FF920F931F93DF93CF93CDB7AB
:1036F000DEB76297CDBFDEBF8C01DE011196FC0103
:10370000808191819C01F90182E101900D928150AB
:10371000E1F78F8582FD11C080914223882321F437
:1037200080914923882349F09E85D801ED91FC9131
:1037300080E18083918381EEB5C0F801C080D180A3
:103740008DE0D6018C938E8513968C93888945E005
:10375000F42EF80EE8E9F0E0E81BF109EC0DFD1D90
:103760009A81923051F437E0F32EF80E80911A23AB
:1037700090911B239293829312C0933081F43897D7
:103780002DE0F22EF80E9F014CE053E288E0DA01C2
:103790000D90AD01D9010D929D018150C1F720918D
:1037A0001723309118238C819D812817390749F4FC
:1037B0008A81882331F08B81882319F040E450E01E
:1037C00009C08A81882321F0B2E0FB0E3293229354
:1037D00040E050E08B81882311F1823039F46F2D65
:1037E0006E5F8E819F819293829312C038976F2D66
:1037F000685F9F0196E0E92EF12CEC0EFD1E88E03B
:10380000D7010D907D01D9010D929D018150C1F725
:1038100082E0F82EF60E8C819D81929382938091A6
:103820004B2382938F5F80934B23BA0161608F8516
:1038300080FF02C0BA0161628889873608F0706132
:103840008B81382F330F330F20E04A81942F9295CC
:10385000990F990F907C80E0282B392B262B372B42
:10386000329322933296F7FC15C03397F082D6013B
:103870001696ED93FC9317970E94791CF60101832D
:103880001283C60162E070E041E00E94E3118823E8
:1038900081F013C09E85D801ED91FC9180E1808379
:1038A000918385EE82838AE893E2B8010E949F0D9E
:1038B00014C081E08093882310C09E85D801ED91CB
:1038C000FC9180E18083918381EE82838AE893E298
:1038D000B8010E949F0D0E949E1C6296CDBFDEBF64
:1038E000CF91DF911F910F91FF90EF90DF90CF90DC
:1038F000089580918923813051F40E940D168538F6
:1039000031F081E090E00E944A07109289230895E7
:1039100080918923882389F480E090E00E944A07FF
:1039200080E00E942016882321F481E0809389237F
:10393000089581E090E00E944A070895809137231E
:10394000882331F480915023882311F40E94881C2D
:1039500008951F93182F1092882310928723109296
:1039600089231092492310924A23109242231092E5
:1039700036238FEF8093392380933A2380933B2320
:1039800080933C2380933D2380933E2380933F2369
:10399000809340231092502388E00E944216112306
:1039A00051F180E098E7809356239093572310922B
:1039B000412381E08093432386E080933823109253
:1039C00058231092592310925A2310925B2310927D
:1039D0005C2310925D2310925E2310925F238FEF81
:1039E0009FEF80934E2390934F230E94A3218093B7
:1039F0004B23109237231F9108950F931F93CF935A
:103A0000DF93EC01088119810E94791CF801018182
:103A100080E090E00E944A0780E0011181E00E946E
:103A2000A714182F81E090E00E944A07802F0E947F
:103A3000A91C0E949E1C84E493E20E94400E81E532
:103A400093E20E94400E8AE893E20E94400EE881D1
:103A5000F981118380E280838AE893E2BE010E94AB
:103A60009F0DDF91CF911F910F910895DF93CF9319
:103A700000D00F92CDB7DEB70E94791C8FEF9FEF79
:103A800089839A838B839C8383E5BE016F5F7F4F1D
:103A90000E948E1D80E5BE016D5F7F4F0E948E1DCE
:103AA00081E00E94A91C0E949E1C2496CDBFDEBF0F
:103AB000CF91DF9108950E94E114882399F40E9428
:103AC000050B882379F081E00E94A91C0E949E1CAE
:103AD00084E493E20E94980D81E593E20E94980DA0
:103AE00080E0089585E80895E82F883030F4E82FC5
:103AF000F0E0E05CFD4F849108958054803228F41A
:103B0000F0E0E85FFD4F84910895E03F10F480E01D
:103B10000895F0E0E858FE4F849108951F93CF93E5
:103B2000DF93182FEB0180918923813051F40E949B
:103B3000791C812FBE010E94F712182F0E949E1C33
:103B400004C0812F0E94F712182F812FDF91CF918F
:103B50001F910895FF920F931F93CF93DF93182F18
:103B6000EB01F42E8C3409F46AC08D34F0F4833404
:103B700009F479C0843460F4853038F4823008F078
:103B800072C0882309F46FC02AC0823441F529C06D
:103B9000873409F468C0883418F4843401F52AC0E5
:103BA0008A3469F18B34D9F443C0853558F48335B0
:103BB00008F059C08E3498F0813508F454C082352D
:103BC00071F441C0893509F44EC08A3518F487353F
:103BD00031F449C08A3539F0803F09F444C004EF1C
:103BE00055C008EE53C088819981809356239093E5
:103BF000572303C088818093382300E047C0888121
:103C0000809358238981809359238A8180935A23F2
:103C10008B8180935B238C8180935C238D81809347
:103C20005D238E8180935E238F8180935F23E5CF18
:103C30008881998180934E2390934F23DECF888192
:103C400080934B23DACF6881611161E06093372361
:103C5000662331F00E94791C86E00E944216CDCF87
:103C60000E949E1CCACF812FBE010E94F712082F0E
:103C7000813861F40E940D16812FBE010E94F71257
:103C8000082F882319F481E08093DC22FF2049F07B
:103C90008091DC22882329F080E00E942016109277
:103CA000DC22802FDF91CF911F910F91FF9008951B
:103CB000EF92FF920F931F937C01FC010081118111
:103CC000B8016E5F7F4FF801818141E00E94AA1D1B
:103CD000F801918192839FE1908381838AE893E246
:103CE000B7010E949F0D1F910F91FF90EF900895D3
:103CF000CF93DF93AC01DC01ED91FC919F012D5F2F
:103D00003F4F81818B3409F472C08C3410F58430BC
:103D100009F453C0853060F4813009F491C08130DA
:103D200008F48BC0823009F498C08330B1F598C094
:103D3000873009F44DC0883030F4853009F440C034
:103D4000863059F542C0823409F445C08A3429F5D9
:103D500045C0833509F461C0843588F48F3409F493
:103D600051C0803530F48C3409F446C08E34A9F447
:103D700046C0803509F449C0823579F44BC08A3594
:103D8000A1F08B3528F4873551F0893531F40AC01C
:103D90008D3581F0803F09F447C094EF65C0809174
:103DA000262360C080912A235DC080915623909184
:103DB000572337C08091412355C08091162352C0AC
:103DC00080911423909115232CC080912C234AC0FC
:103DD0008091232347C08091432344C0E901A8E593
:103DE000B3E288E00D9009928150E1F73CC08091E8
:103DF0004E2390914F2315C080914B2333C0809167
:103E0000222330C0809129232DC0809117239091C7
:103E1000182307C08091372325C080911A239091E1
:103E20001B23838394831FC0E901ACE0B3E288E0E5
:103E30000D9009928150E1F716C08091242312C0A1
:103E40008091302390913123A0913223B09133237C
:103E500083839483A583B68306C080910B2302C01D
:103E600080911923838390E0818182838EE1808316
:103E700091838AE893E2BA010E949F0DDF91CF916E
:103E80000895282FFB011092882380818D3031F412
:103E900081819281622F43810E94611B0E949E1C3E
:103EA0000895EF92FF920F931F93109250238091E9
:103EB00037238823C9F4809189238823A9F488E0D3
:103EC0000E944216883071F080E040E850E060E0E7
:103ED00070E020E030E001E51FE1EE24FF240E94C5
:103EE000780902C00E949E1C1F910F91FF90EF90D5
:103EF0000895DF92EF92FF920F931F93CF93DF937A
:103F0000EC01E881F981E680F78000851185E114F4
:103F1000F1040105110539F480E090E00E94511F81
:103F2000E881F98147C0809142238823F1F580918F
:103F300049238823D1F50E94791C86E00E9442160D
:103F4000D82E81E08093502380E00E949B07882335
:103F500019F080E00E94690884E0EE0CFF1C001F4D
:103F6000111F8A95D1F780E0B801A70120E030E069
:103F700001E51FE1EE24FF240E947809882381F0E7
:103F8000E881F98181E2808388EE81838AE893E287
:103F9000BE010E949F0D80E090E00E94511F12C060
:103FA000E881F98186E0D81629F081E2808382EFEA
:103FB000818303C081E2808311828AE893E2BE019B
:103FC0000E949F0DDF91CF911F910F91FF90EF9075
:103FD000DF9008957F928F929F92AF92BF92CF927F
:103FE000DF92EF92FF920F931F93782E6A017B016D
:103FF000480159018AE90E94720DDC01009711F411
:1040000080E014C0ED91FC9111978AE08083718269
:10401000C282D382E482F58286829782A086B186AC
:1040200084E493E2BD010E949F0D81E01F910F91F6
:10403000FF90EF90DF90CF90BF90AF909F908F90C8
:104040007F9008951F93182F8AE90E94720DDC015A
:10405000009711F480E00CC0ED91FC91119788E07D
:104060008083118384E493E2BD010E949F0D81E06F
:104070001F9108951F93182F8AE90E94720DDC0189
:10408000009711F480E00CC0ED91FC91119789E04C
:104090008083118384E493E2BD010E949F0D81E03F
:1040A0001F910895FF920F931F93CF93DF93182FC3
:1040B000062FF72E8AE90E94720DEC01009711F489
:1040C00080E016C0812F0E94741D482FE881F9817D
:1040D00086E0808311833296CF01602F7F2D50E0E0
:1040E0000E94B32184E493E2BE010E949F0D81E00F
:1040F000DF91CF911F910F91FF9008958F929F9222
:10410000AF92BF92CF92DF92EF92FF920F931F93E5
:10411000CF93DF93B82E6B01F42E922E832EA02E18
:1041200086E7841708F43FC08AE90E94720D8C016B
:104130000097C9F1DC01ED91FC9183E08083B182AD
:10414000D6012C91228311968D919C911297838395
:1041500094832250223080F41582168217821086B2
:104160001186128613861486EF012596139688E031
:104170000D9009928150E1F7A586E686F78628E939
:1041800030E02F1931092E0F3F1FC901692D782DFD
:104190004F2D50E00E94B32184E493E2B8010E94C5
:1041A0009F0D81E001C080E0DF91CF911F910F91C1
:1041B000FF90EF90DF90CF90BF90AF909F908F9047
:1041C00008951F930E946A1A182F8AE893E260E00C
:1041D00070E00E94340E009719F00E94531A11E00B
:1041E0000E9483100E943907812F1F9108958AE849
:1041F00093E20E94980D0E945B1D08950895AA1BEA
:10420000BB1B51E107C0AA1FBB1FA617B70710F0C1
:10421000A61BB70B881F991F5A95A9F780959095F3
:10422000BC01CD01089597FB092E07260AD077FD22
:1042300004D0E5DF06D000201AF4709561957F4F19
:104240000895F6F7909581959F4F0895A1E21A2E53
:10425000AA1BBB1BFD010DC0AA1FBB1FEE1FFF1F2A
:10426000A217B307E407F50720F0A21BB30BE40B7A
:10427000F50B661F771F881F991F1A9469F76095C1
:104280007095809590959B01AC01BD01CF0108957B
:10429000AF92BF92CF92DF92EF92FF920F931F9354
:1042A000CF93DF93EC01A880B980CA80DB80A11492
:1042B000B104C104D10441F484E2A82E89EDB82EE2
:1042C0008BE5C82E87E0D82EC601B5012DE133EF6E
:1042D00041E050E00E942C2627EA31E440E050E023
:1042E0000E940D267B018C01C601B5012DE133EF43
:1042F00041E050E00E942C26CA01B9012CEE34EFB7
:104300004FEF5FEF0E940D266E0D7F1D801F911FE6
:1043100097FF04C061507040804090486883798363
:104320008A839B839B013F77C901DF91CF911F91C6
:104330000F91FF90EF90DF90CF90BF90AF900895D6
:104340000E944821089586E390E20E944821089542
:10435000A0E0B0E08093362090933720A0933820DF
:10436000B09339200895FB01DC0102C001900D9249
:1043700041505040D8F708950F931F93CF93DF9388
:104380008C01EB01009731F46115710519F420E0FF
:1043900030E038C081E090E06EE070E00E9445249B
:1043A000FC019C01009771F180E88383209771F0F4
:1043B000C287D38781E8838380918F239091902354
:1043C000892B21F4E0938F23F0939023011511059D
:1043D000C9F0008711878381826083838091912354
:1043E00090919223892B71F4E0939123F09392237F
:1043F0008091932390919423892B21F4E09393232C
:10440000F0939423C901DF91CF911F910F910895EB
:10441000DF93CF93CDB7DEB7FE01369661917191F0
:104420008091912390919223AF010E944522CF91D8
:10443000DF9108950F931F93DF93CF93CDB7DEB72E
:104440002E97CDBFDEBF0E891F8986E08C8309833E
:104450001A838FEF9FE78D839E839E01265E3F4FD9
:10446000CE010196688D798DA9010E9445222F8188
:104470003885020F131FF80110822E96CDBFDEBFC4
:10448000CF91DF911F910F9108952F923F924F92FC
:104490005F926F927F928F929F92AF92BF92CF92D4
:1044A000DF92EF92FF920F931F93DF93CF93CDB7DD
:1044B000DEB72B97CDBFDEBF3C012B015A01FC01BB
:1044C00016821782838181FD03C06FEF7FEFC6C123
:1044D0009AE0892E1E010894211C311CF3012381CE
:1044E000F20123FD859123FF81912F01882309F497
:1044F000B2C1853239F423FD859123FF81912F01CB
:10450000853229F490E0B3010E948325E7CF982FEC
:10451000FF24EE249924FFE1FF15D0F09B3269F0CF
:104520009C3228F4903259F0933291F40EC09D32AF
:1045300049F0903369F441E024C052E0F52A84E068
:10454000F82A28C098E0F92A25C0E0E1FE2A22C016
:10455000F7FC29C0892F80538A3070F4F6FE05C01D
:10456000989C902C1124980E15C0E89CE02C1124E6
:10457000E80EF0E2FF2A0EC09E3229F4F6FC6BC171
:1045800040E4F42A07C09C3619F450E8F52A02C02A
:10459000983649F4F20123FD959123FF91912F0163
:1045A000992309F0B8CF892F8554833018F08052B1
:1045B000833038F444E050E0A40EB51E5FE3598325
:1045C0000FC0933631F0933779F0933509F056C028
:1045D00020C0F5018081898342E050E0A40EB51E21
:1045E000610101E010E012C0F501C080D180F6FC4D
:1045F00003C06FEF7FEF02C0692D70E042E050E032
:10460000A40EB51EC6010E9478258C015FE7F52235
:1046100014C0F501C080D180F6FC03C06FEF7FEFBE
:1046200002C0692D70E042E050E0A40EB51EC60144
:104630000E9466258C0150E8F52AF3FE07C01AC0D7
:1046400080E290E0B3010E948325EA948E2D90E0F1
:1046500008171907A8F30EC0F601F7FC8591F7FEBD
:1046600081916F0190E0B3010E948325E110EA94EB
:10467000015010400115110579F7EAC0943611F088
:10468000993669F5F7FE08C0F50120813181428134
:10469000538184E090E00AC0F501808191819C0102
:1046A000442737FD4095542F82E090E0A80EB91EB4
:1046B0009FE6F92257FF09C0509540953095219506
:1046C0003F4F4F4F5F4FE0E8FE2ACA01B901A101F9
:1046D0002AE030E00E94AF25D82ED21840C095378E
:1046E00029F41F2D1F7E2AE030E01DC01F2D197FE9
:1046F0009F3661F0903720F4983509F0ACC00FC0B8
:10470000903739F0983709F0A6C004C028E030E0AF
:104710000AC0106114FD146020E130E004C014FDF3
:10472000166020E132E017FF08C0F5016081718159
:104730008281938144E050E008C0F501808191813D
:10474000BC0180E090E042E050E0A40EB51EA10163
:104750000E94AF25D82ED2188FE7F82EF122F6FE50
:104760000BC05EEFF522D91438F4F4FE07C0F2FC5A
:1047700005C08FEEF82202C01D2D01C0192DF4FED8
:104780000DC0FE01ED0DF11D8081803319F499EE0D
:10479000F92208C01F5FF2FE05C003C08F2D867886
:1047A00009F01F5F0F2DF3FC14C0F0FE0FC01E15A3
:1047B00010F09D2C0BC09D2C9E0C911A1E2D06C036
:1047C00080E290E0B3010E9483251F5F1E15C0F3B5
:1047D00004C01E1510F4E11A01C0EE2404FF0FC03E
:1047E00080E390E0B3010E94832502FF1DC001FD1C
:1047F00003C088E790E00EC088E590E00BC0802FF2
:10480000867891F001FF02C08BE201C080E2F7FCE4
:104810008DE290E0B3010E94832506C080E390E022
:10482000B3010E9483259A94D914C0F3DA94F1015C
:10483000ED0DF11D808190E0B3010E948325DD2004
:10484000A9F706C080E290E0B3010E948325EA94B4
:10485000EE20C1F743CEF30166817781CB012B9621
:10486000CDBFDEBFCF91DF911F910F91FF90EF90F1
:10487000DF90CF90BF90AF909F908F907F906F9080
:104880005F904F903F902F9008950F931F93CF9379
:10489000DF93689F8001699F100D789F100D112490
:1048A000C8010E946124EC01009729F060E070E0EB
:1048B000A8010E947125CE01DF91CF911F910F9128
:1048C0000895CF93DF93BC018230910510F462E02C
:1048D00070E0A0919723B0919823ED01E0E0F0E023
:1048E00040E050E021C0888199818617970769F4DC
:1048F0008A819B81309719F08283938304C08093CF
:10490000972390939823FE0134C06817790738F4F1
:104910004115510519F08417950708F4AC01FE0103
:104920008A819B819C01E9012097E9F64115510597
:10493000A9F1CA01861B970B049708F4BA01E0E0BD
:10494000F0E02AC08D919C91119784179507F9F496
:104950006417750781F412968D919C911397309787
:1049600019F08283938304C08093972390939823B4
:10497000FD0132964FC0CA01861B970BFD01E80F5F
:10498000F91F6193719302978D939C9343C0FD012E
:10499000828193819C01D9011097A1F68091952382
:1049A00090919623892B41F480913C2090913D2059
:1049B000809395239093962340913E2050913F20E1
:1049C0004115510541F44DB75EB780913A20909161
:1049D0003B20481B590B2091952330919623241797
:1049E0003507B0F4CA01821B930B8617970780F036
:1049F000AB014E5F5F4F8417950750F0420F531F76
:104A00004093952350939623F9016193719302C0CB
:104A1000E0E0F0E0CF01DF91CF910895CF93DF93F5
:104A2000009709F450C0EC0122971A821B82A091D2
:104A30009723B0919823109709F140E050E0AC170C
:104A4000BD0708F1AA83BB83FE0121913191E20FDA
:104A5000F31FAE17BF0779F48D919C911197280F22
:104A6000391F2E5F3F4F2883398312968D919C9179
:104A700013978A839B834115510571F4C093972343
:104A8000D093982320C012968D919C911397AD01DD
:104A9000009711F0DC01D3CFFA01C283D3832191B7
:104AA0003191E20FF31FCE17DF0769F488819981F6
:104AB000280F391F2E5F3F4FFA01208331838A81EF
:104AC0009B8182839383DF91CF910895FC010590B0
:104AD000615070400110D8F7809590958E0F9F1F00
:104AE0000895DC0101C06D9341505040E0F70895F6
:104AF000FC016150704001900110D8F780959095AD
:104B00008E0F9F1F08950F931F93CF93DF938C01F8
:104B1000EB018B8181FF1BC082FF0DC02E813F8185
:104B20008C819D812817390764F4E881F98101930C
:104B3000E883F98306C0E885F985802F1995892BCC
:104B400031F48E819F8101968E839F8302C00FEF87
:104B50001FEFC801DF91CF911F910F910895FA01C6
:104B6000AA27283051F1203181F1E8946F936E7FAC
:104B70006E5F7F4F8F4F9F4FAF4FB1E03ED0B4E09D
:104B80003CD0670F781F891F9A1FA11D680F791FDE
:104B90008A1F911DA11D6A0F711D811D911DA11DEF
:104BA00020D009F468943F912AE0269F11243019FF
:104BB000305D3193DEF6CF010895462F4770405D9A
:104BC0004193B3E00FD0C9F7F6CF462F4F70405D49
:104BD0004A3318F0495D31FD4052419302D0A9F7A4
:104BE000EACFB4E0A6959795879577956795BA959E
:104BF000C9F700976105710508959B01AC010A2E64
:104C000006945795479537952795BA95C9F7620F3A
:104C1000731F841F951FA01D0895629FD001739F6D
:104C2000F001829FE00DF11D649FE00DF11D929F48
:104C3000F00D839FF00D749FF00D659FF00D992787
:104C4000729FB00DE11DF91F639FB00DE11DF91FAB
:104C5000BD01CF011124089597FB092E05260ED022
:104C600057FD04D0F3DA0AD0001C38F45095409573
:104C7000309521953F4F4F4F5F4F0895F6F7909530
:104C80008095709561957F4F8F4F9F4F0895F89451
:024C9000FFCF54
:104C920066726F6D20307800252E325820003A203F
:104CA200566363203D202575206D560D0A00524F34
:104CB2004F54204E4F44450A0D004C454146204E6C
:104CC2004F44450A0D000100000020009923000016
:00000001FF
